:020000040000FA
:100000000C940F050C9437050C9437050C943705A8
:100010000C9437050C9437050C9437050C94370570
:100020000C9437050C9437050C9437050C949916ED
:100030000C9437050C9401170C94DB160C943705BF
:100040000C9437050C9437050C9437050C94321733
:100050000C9437053110FD2152FDCDC6FECD3EFF7B
:10006000CDF4FD3EFFBC2010BD200D21D9FDCDC635
:10007000FE2188FDCDC6FE76E521D9FDCDC6FE2147
:1000800075FDCDC6FEE1CD4BFFCD3EFFCD3EFFDB86
:1000900001FEFF20FAE9694C6F6164202D20496E52
:1000A00074656C2D486578204C6F61646572202DF5
:1000B0002053323030373138005374617274696EB6
:1000C0006720416464726573733A20004C6F616409
:1000D000206572726F72202D2053797374656D20C4
:1000E00068616C7465640057616974696E67206942
:1000F0006E7075742073747265616D2E2E2E0053B0
:10010000796E746178206572726F72210043686540
:10011000636B73756D206572726F722100694C6F2D
:1001200061643A2000416464726573732076696F7C
:100130006C6174696F6E2100F5D5C501FFFF21A3C5
:10014000FDCDC6FECD3EFFCD72FFFE0D28F9FE0AA5
:1001500028F5FE2028F1CD1AFFCD69FFFE3AC2A393
:10016000FECDE1FE571E00CDBEFECDD6FE3EFFB851
:100170002005B92002444D7CCDBEFE7DCDBEFECD16
:10018000E1FECDBEFEFE01201ECDE1FECDBEFE7B1A
:10019000A72866CD3EFF21D9FDCDC6FE21C9FDCDE4
:1001A000C6FE01FFFF18527AA7282CCDE1FECDBE76
:1001B000FEE5C5A701F0FCED42C1E1DA8EFECD3EC1
:1001C000FF21D9FDCDC6FE21E1FDCDC6FE01FFFF19
:1001D000182777231518D0CDE1FECDBEFE7BA720D2
:1001E000B2CD3EFFC303FECD3EFF21D9FDCDC6FEFD
:1001F00021BBFDCDC6FE01FFFFCD3EFF6069C1D131
:10020000F1C9C54F7B915F79C1C9F5E57EFE002834
:1002100006CD69FF2318F5E1F1C9F5CDE1FE67CD03
:10022000E1FE6FF1C9C5CDF4FECB07CB07CB07CB01
:100230000747CDF4FEB0C1C9CD72FFCD1AFFCD0680
:10024000FF30F5CD23FFCD2EFFC9FE47D0FE303065
:10025000023FC9FE3AD8FE4130023FC937C9FE61AC
:10026000D8FE7BD0E65FC9FE3A3802D607D630E624
:100270000FC9F5E60FC630FE3A3802C607CD69FF52
:10028000F1C9F53E0DCD69FF3E0ACD69FFF1C9E523
:10029000F57CCD58FF7DCD58FFF1E1C9F5C5470F7D
:1002A0000F0F0FCD2EFF78CD2EFFC1F1C9F53E0106
:1002B000D301F1D300C9DB01FEFFCA72FFC9494F68
:1002C000533A20436865636B20534420616E642079
:1002D00070726573732061206B657920746F207272
:1002E00065706561740D0A00202D2046696C653AC1
:1002F0002000206F7065726174696F6E0052454115
:1003000044004F50454E004D4F554E5400206F6EE7
:100310002000554E4B4E4F574E004E4F5F46494CB6
:100320004553595354454D004E4F545F454E41423D
:100330004C4544004E4F545F4F50454E4544004E8F
:100340004F5F46494C45004E4F545F52454144591A
:10035000004449534B5F455252000D0A494F533AEE
:10036000205344206572726F7220003F3F3F534913
:100370004F3A2041637475616C20626175647261EB
:1003800074653A20003F3F3F53494F3A2043616C28
:1003900063756C617465642064697669736F723A21
:1003A00020003F3F3F53494F3A20446573697265CF
:1003B000642062617564726174653A20003F3F3F5A
:1003C00053494F3A20526563656976657220464904
:1003D000464F204C6576656C3A20003F3F3F5349BD
:1003E0004F3A204C696E65205374617475732052C6
:1003F000656769737465723A203078003F3F3F53F8
:10040000494F3A2054785370616365417661696C55
:1004100061626C653A200029207265733D30780076
:1004200020280020616464723D3078003F3F3F3FE8
:1004300053494F3A20526561645265676973746528
:100440007220636800292076616C3D307800202896
:100450000020616464723D3078003F3F3F3F534964
:100460004F3A205772697465526567697374657293
:1004700020636800494F533A2052544320736574F7
:1004800020617420636F6D70696C652074696D659F
:10049000202D204E6F773A2000293F205B592F4EA8
:1004A0005D203E000A446F20796F752077616E747D
:1004B000207365742052544320617420494F5320A7
:1004C000636F6D70696C652074696D6520280049E3
:1004D0004F533A2052544320636C6F636B20666124
:1004E000696C7572652100494F533A20525443207C
:1004F0004453333233312074656D706572617475A5
:1005000072652073656E736F723A2000494F533ADB
:1005100020466F756E642052544320445333323367
:1005200031204D6F64756C652028000D0A5072658E
:10053000737320435220746F206163636570742C61
:100540002045534320746F2065786974206F7220B2
:10055000616E79206F74686572206B657920746FA5
:10056000206368616E676500494F533A20525443D7
:1005700020646174652F74696D65207570646174A1
:100580006564202800202E2E2E646F6E65202020AA
:100590002020200A005365636F6E6473202D3E2077
:1005A000004D696E75746573202D3E2000486F758F
:1005B0007273202D3E200020446179202D3E2000C2
:1005C00020202020202020202020202020004D6FCF
:1005D0006E7468202D3E200059656172202D3E20EA
:1005E0000020000A507265737320542F5520746FD9
:1005F00020696E6372656D656E74202B31302F2B10
:1006000031206F7220435220746F206163636570E4
:1006100074000A494F533A20525443206D616E755D
:10062000616C2073657474696E673A00494F533A80
:10063000205A38302069732072756E6E696E67209B
:1006400066726F6D206E6F770020446F6E65004993
:100650004F533A204C6F6164696E6720626F6F740C
:100660002070726F6772616D2E2E2E00292E2E2E35
:1006700000494F533A204C6F6164696E6720626F86
:100680006F742070726F6772616D2028005400498A
:100690004F533A2043757272656E7420004368614F
:1006A0006E6765642073706565642077696C6C2083
:1006B0006265206566666563746976652061667447
:1006C0006572206E657874207265626F6F74210D9B
:1006D0000A0A002020200D000D202D3E00202020A1
:1006E00020202020202020202020202020200D003D
:1006F0000D202D3E003F566572626F73697479203C
:100700006C6576656C200020204F6B00456E74652B
:100710007220796F75722063686F696365203E206F
:100720000020393A20536574205254432074696D77
:10073000652F646174650020383A20536574207316
:10074000657269616C20706F727420737065656486
:100750002028004F46460020373A20546F67676CC8
:10076000652043502F4D204175746F657865632077
:10077000282D3E004D487A290020363A20436861F2
:100780006E6765205A383020636C6F636B2073701E
:1007900065656420282D3E0020353A20694C6F6144
:1007A00064000D0A20343A204175746F626F6F74D3
:1007B0000020333A204C6F61642F736574204F53CF
:1007C000200020323A20466F7274680020313A20AF
:1007D00042617369630020303A204E6F2063686184
:1007E0006E6765202800494F533A2053656C656356
:1007F0007420626F6F74206D6F6465206F72207358
:10080000797374656D20706172616D657465727362
:100810003A004F4646004F4E00494F533A2043504E
:100820002F4D204175746F657865632069732000D2
:10083000494F533A20466F756E642053494F204FFD
:100840007074696F6E00494F533A20466F756E643D
:1008500020475045204F7074696F6E004D487A00F4
:10086000494F533A205A383020636C6F636B2073C2
:1008700065742061742000494F533A20466F756EAD
:100880006420657874656E6465642073657269615F
:100890006C20527820627566666572000D0A0A5AED
:1008A00038302D4D424332202D2041303430363106
:1008B000380D0A494F53202D20492F4F2053756280
:1008C00073797374656D202D20533232303731388F
:1008D0002D52323930383233202D204445563031B4
:1008E00032350D0A003F3F53494F3A205772697421
:1008F0006542797465203078003F3F3F53494F3A55
:1009000020526561644279746520307800202D2082
:10091000696E76616C6964206261756420726174CD
:100920006520696E646578003F3F53494F42003F40
:100930003F53494F4100202D2062617564726174FC
:10094000653A20002073657420636F6E74726F6C5B
:100950003A2030780000003A0037003400310000BF
:10096000003B00380035003200000039003600330B
:100970000030000202020202020202040404040423
:10098000040404030303030303030301010101013E
:100990000101010102040810204080010204081036
:1009A0002040800102040810204080010204081049
:1009B0002040800000000200000000000000000550
:1009C000040007000000000000000000000000001C
:1009D0000000003F53494F3A204C43522052656774
:1009E00069737465723A3078000D0A0A494F533AB8
:1009F0002042617564207265636F76657279206448
:100A00006F6E65202D20506C656173652072656284
:100A10006F6F74206E6F77210000AA18842711244D
:100A20001FBECFE5D8E0DEBFCDBF24E0ACE2B2E030
:100A300001C01D92A83CB207E1F712E0A0E6B0E0C9
:100A4000E2ECF4E502C005900D92AC32B107D9F7A3
:100A500015E0CEE0D5E004C02197FE010E945C289D
:100A6000CD30D107C9F70E94FE180C94542A0C947B
:100A70000000282F9091FD0281E0913208F03FC0E4
:100A80008091D9028111FCCF8091FC0232E0309339
:100A9000D9022093D8022FEF2093D7022CED32E019
:100AA0003093D6022093D5021092D4029093D302B1
:100AB0001092D2029091D202880F892B8093D20299
:100AC0008091D102813011F51092D1028091D20231
:100AD00083B906B603FCFACF85EC86BF8091D902B4
:100AE0008230E1F38091D7028F3F91F08091D7025D
:100AF000803281F08091D702803371F084E01092CF
:100B0000DB021092FD021092DA02089585EEE5CF25
:100B100080E0F5CF82E0F3CF83E0F1CF81E00C9469
:100B2000390591E09093DA028093FC021092DB0287
:100B30001092FD0208959091CD028091CC022FEF8A
:100B40003FEF981748F4E92FF0E0E455FD4F20817E
:100B500030E09F5F9093CD02C90108959091CD023E
:100B60008091CC022FEF3FEF981748F4E92FF0E087
:100B7000E455FD4F208130E09F5F9093CD02C90185
:100B800008952091BC043091BD048217930760F44E
:100B90002091B8043091B9042115310529F0280FAE
:100BA000391FF9018081089580E008950000000058
:100BB00000000000000083E090E00197F1F7089545
:100BC000843059F028F4813099F0823089F008950A
:100BD000853039F0873041F008958FB58F778FBD1C
:100BE00008958FB58F7DFBCF85B58F7D85BD089529
:100BF00083B78F7D83BF0895CF93DF93282F30E095
:100C0000F901ED54F64F8491F901ED56F64FD49168
:100C1000F901ED58F64FC491CC23A1F081110E9447
:100C2000E005EC2FF0E0EE0FFF1FE759F64FA5911E
:100C3000B491EC91ED2381E090E009F480E0DF9144
:100C4000CF91089580E090E0FACF1F93CF93DF9388
:100C5000282F30E0F901ED54F64F8491F901ED565B
:100C6000F64FD491F901ED58F64FC491CC23A9F079
:100C7000162F81110E94E005EC2FF0E0EE0FFF1F10
:100C8000E15AF64FA591B4918FB7F894EC911111F8
:100C900008C0D095DE23DC938FBFDF91CF911F91E9
:100CA0000895DE2BF8CFCF93DF9390E0FC01ED5653
:100CB000F64F24918D58964FFC0184918823C9F0FA
:100CC00090E0880F991FFC01EB5AF64FA591B49163
:100CD000FC01E15AF64FC591D49161110DC09FB747
:100CE000F8948C91209582238C93888128232883E3
:100CF0009FBFDF91CF910895623051F49FB7F89470
:100D00003C91822F809583238C93E8812E2BEFCF0B
:100D10008FB7F894EC912E2B2C938FBFEACFCF9204
:100D2000DF92EF92FF926FB7F8948091A3029091B7
:100D3000A402A091A502B091A6025091A20222B7EE
:100D400038B7432F417030FF04C041E02F3F09F412
:100D500040E06FBF6C017D0137E0CC0CDD1CEE1C68
:100D6000FF1C3A95D1F7C50ED11CE11CF11CC81A25
:100D7000D90AEA0AFB0A880F991FAA1FBB1FC81AC3
:100D8000D90AEA0AFB0A63E0CC0CDD1CEE1CFF1C4E
:100D90006A95D1F730E0A3E3B3E00E941F28672FE4
:100DA000782F892F99276C0D7D1D8E1D9F1D442343
:100DB00021F06D5C7C4F8F4F9F4FFF90EF90DF9045
:100DC000CF9008958F929F92AF92BF92CF92DF9271
:100DD000EF92FF924B015C010E948F066B017C0138
:100DE0000E948F066C197D098E099F09683E734029
:100DF00081059105A8F321E0821A9108A108B108A4
:100E000088EEC80E83E0D81EE11CF11C8114910409
:100E1000A104B10429F7FF90EF90DF90CF90BF902D
:100E2000AF909F908F9008952FB7F8946091A30290
:100E30007091A4028091A5029091A6022FBF0895FF
:100E400008950895AF92BF92CF92DF92EF92FF92F2
:100E50000F931F93CF93DF936C017B018B01040FE2
:100E6000151FEB015E01AE18BF08C017D10759F07E
:100E70006991D601ED91FC910190F081E02DC601C0
:100E80000995892B79F7C501DF91CF911F910F91BA
:100E9000FF90EF90DF90CF90BF90AF900895FC014E
:100EA000538D448D252F30E0842F90E0821B930BCF
:100EB000541710F0CF96089501970895FC01918D75
:100EC000828D981759F0A28DAE0FBF2FB11D5D9680
:100ED0008C91928D9F5F928F90E008958FEF9FEF9E
:100EE0000895FC01918D828D981731F0828DE80F65
:100EF000F11D858D90E008958FEF9FEF0895FC011F
:100F0000918D828D981B892F90E008958FE493E056
:100F10000E947F0721E0892B09F420E0822F0895A9
:100F2000FC01A48DA80FB92FB11DA35EBE4F2C915B
:100F3000848D90E001968F739927848FA689B78955
:100F40002C93A089B1898C9182748C93938D848D1C
:100F5000981306C00288F389E02D80818F7D8083FD
:100F60000895EF92FF920F931F93CF93DF93EC01BD
:100F700081E0888F9B8D8C8D981319C0E889F98941
:100F8000808185FF14C09FB7F894EE89FF89608344
:100F9000E889F9898081827480839FBF81E090E035
:100FA000DF91CF911F910F91FF90EF900895F62E52
:100FB0000B8D10E00F5F1F4F0F731127E02E8C8DEC
:100FC0008E110CC00FB607FCFACFE889F989808131
:100FD00085FFF5CFCE010E949007F1CFEB8DEC0F8E
:100FE000FD2FF11DE35EFE4FF0829FB7F8940B8F4B
:100FF000EA89FB8980818062CFCF0F931F93CF93C3
:10100000DF938C01D0E0C0E0F801EC0FFD1F64918C
:10101000662341F08FE493E00E94B107892B11F021
:101020002196F2CFCE01DF91CF911F910F910895BC
:10103000CF93DF93EC01888D8823B9F0AA89BB890F
:10104000E889F9898C9185FD03C0808186FD0DC0FA
:101050000FB607FCF7CF8C9185FFF2CF808185FF1B
:10106000EDCFCE010E949007E9CFDF91CF91089597
:1010700085ED86BF06B604FCFDCF1092D902089517
:1010800020915202260F3327331F21323105ECF411
:101090002091D902FC0190E080E0243069F082E0E8
:1010A0000895A09152022191AC014E5C5D4FA40FB6
:1010B000B52FB11D2C930196861798F3809152029B
:1010C000680F6093520280E0089581E008950895CA
:1010D000E091CD028091CC02E81730F4F0E0E455C5
:1010E000FD4F808190E008958FEF9FEF08958091EC
:1010F000CC029091CD02891B990B0895CF92DF927B
:10110000EF92FF920F931F93CF93DF937C01CB015C
:101110008A012091DA02222389F0EB016B01C40ECF
:10112000D51ECC15DD0569F06991D701ED91FC91D3
:101130000190F081E02DC7010995F3CF642F0E9443
:101140004008C801DF91CF911F910F91FF90EF9060
:10115000DF90CF900895CF93DF931F92CDB7DEB786
:1011600069832091DA022223F9F02091FD022032D6
:1011700058F021E030E0FC013383228390E080E0EE
:101180000F90DF91CF9108958091DB02E82FF0E07E
:10119000E452FD4F998190838F5F8093DB028093AF
:1011A000FD0281E090E0ECCF61E0CE0101960E946B
:1011B0004008F7CF682F8CEA94E00C94AB080F93AB
:1011C0001F93CF93DF93082F162FD42F88E60E940A
:1011D000910590E080E00E94DA088091D002CAE098
:1011E0006C2F0E942E288295807F682F690F8CEAD1
:1011F00094E00E94AB088091CF026C2F0E942E28B1
:101200008295807F682F690F8CEA94E00E94AB087A
:101210008091CE026C2F0E942E288295807F682FAD
:10122000690F8CEA94E00E94AB0881E090E00E9494
:10123000DA08802F6C2F0E942E288295807F682FDD
:10124000690F8CEA94E00E94AB08812F6C2F0E94FA
:101250002E288295807F682F690F8CEA94E00E9487
:10126000AB088D2F6C2F0E942E288295807F682FCF
:10127000690F8CEA94E00E94AB08DF91CF911F9137
:101280000F910C948E0590E080E008950F931F93CA
:10129000E0914D03F0914E039B01AC0122503109C6
:1012A0004109510986819781A085B1850297A109DD
:1012B000B109281739074A075B0778F4A281B0E023
:1012C0000E94DD270289138924893589600F711FE7
:1012D000821F931F1F910F91089560E070E0CB0172
:1012E000F9CF0F931F93CF93DF93EC01E0914D0360
:1012F000F0914E03198218826C817D818E819F81CD
:10130000613071058105910581F106811781208584
:101310003185601771078207930738F561157105EC
:101320008105910539F42081233021F46685778584
:1013300080899189688779878A879B87611571057C
:101340008105910569F00E9446096C877D878E872B
:101350009F8790E080E0DF91CF911F910F910895DA
:101360006685778580899189F0CF81E090E0F3CF21
:101370008FB9779BFECF08958FEF0E94B8098FB188
:1013800008950F931F93CF93DF93C0918602D0915E
:1013900087022197CD3F8FEFD80721F080E00E9490
:1013A000B809F7CF0E94BC098F71853079F0D1E080
:1013B000C0E061E084E00E9425060E94BC098D2FF8
:1013C0009C2FDF91CF911F910F91089508E813E1B1
:1013D000C4EFD1E00E94BC098F3F49F0011511050F
:1013E00031F3CE010197F1F701501109F3CFD1E0AC
:1013F000C0E0012BF1F2D0E0DCCFFF920F931F93FE
:10140000CF93DF93C82FD42F152F062FF72E80915F
:10141000220381113FC083E58DB91EB8C7FF09C003
:1014200040E050E0BA0187E70E94FD09823060F594
:10143000CF7761E084E00E9425060E94BC0960E04D
:1014400084E00E9425060E94BC098C2F0E94B809E6
:101450008F2D0E94B809802F0E94B809812F0E9409
:10146000B8098D2F0E94B80985E9C03421F087E8BA
:10147000C83409F081E00E94B809CAE00E94BC09A2
:1014800087FF02C0C150D1F7DF91CF911F910F911B
:10149000FF90089580E58DB981E08EB9BFCFCF92DE
:1014A000DF92EF92FF920F931F93CF93DF937C0114
:1014B00069018091220383FD07C089E0440F551F15
:1014C000661F771F8A95D1F781E50E94FD0981117A
:1014D00008C0C0E4DCE90E94BC098F3F29F42197D1
:1014E000D1F7C1E0D0E022C08E3FD9F7C2E0D2E010
:1014F000C01BD10BCC19DD0981E0C81AD10818F046
:101500000E94BC09F9CFE114F10401F10E0D1F1D79
:101510000E94BC09F70181937F010E171F07C1F7D5
:101520000E94BC092197E1F7D0E0C0E061E084E0CF
:101530000E9425060E94BC09CE01DF91CF911F9128
:101540000F91FF90EF90DF90CF9008950E94BC091B
:1015500001501109D9F7E4CFCF92DF92EF92FF92B9
:101560000F931F93CF93DF93EC016A017B0102E09D
:1015700010E02EEF31E00E944F0A892B31F588816F
:10158000998185359A4A59F526E330E0B701A601DD
:10159000CE010E944F0A892B29F4888199818634D3
:1015A000914489F002E010E022E530E0B701A601A5
:1015B000CE010E944F0A892BA1F481E02881398154
:1015C0002634314419F480E001C083E0DF91CF91EB
:1015D0001F910F91FF90EF90DF90CF90089582E0E0
:1015E000F5CF81E0F3CF4F925F926F927F928F920F
:1015F0009F92AF92BF92CF92DF92EF92FF920F93A2
:101600001F93CF93DF93CDB7DEB7A4970FB6F894AF
:10161000DEBF0FBECDBF10924E0310924D038091DE
:101620002203882339F084E00E94FC05892B11F401
:101630000E94C10961E084E00E94250661E084E027
:101640000E94530661E085E00E94530661E087E056
:101650000E94530661E084E00E94530683E58DB941
:101660001EB861E084E00E9425061AE00E94BC09D1
:101670001150E1F740E050E0BA0180E40E94FD091A
:10168000182F813009F441C010E01093220361E06B
:1016900084E00E9425060E94BC0982E090E01123AC
:1016A000E9F040E050E0BA01CE0101960E94AC0A98
:1016B000C12CD12C7601813009F096C000E110E0F8
:1016C0002EEB31E040E050E0BA01CE0101960E94DD
:1016D0004F0A892B09F478C081E090E0A4960FB6F8
:1016E000F894DEBF0FBECDBFDF91CF911F910F9158
:1016F000FF90EF90DF90CF90BF90AF909F908F9032
:101700007F906F905F904F9008954AEA51E060E0BB
:1017100070E088E40E94FD09813091F5CE010196C8
:101720007C016E0195E0C90ED11C87010E94BC09A5
:10173000F80181938F01CE16DF06C1F78B818130CE
:1017400009F0A2CF8C818A3A09F09ECF80E1C82EA1
:1017500087E2D82E94EFA92EBB24B39440E050E04A
:1017600060E070E489EE0E94FD09882309F4C9C095
:10177000C5010197F1F7F1E0CF1AD10879F784CFCD
:1017800040E050E0BA0189EE0E94FD0901E4823098
:1017900010F412E009EEA0E1EA2EA7E2FA2EB4EF6F
:1017A000CB2EDD24D39440E050E0BA01802F0E947C
:1017B000FD09882309F4BBC0C6010197F1F7F1E0E8
:1017C000EF1AF10881F760CF8D81811103C086E0A7
:1017D00090E084CFC984DA84EB84FC84B701A6014D
:1017E000CE0101960E94AC0A833009F475CF8111B5
:1017F000EECF04E210E02DE030E0B701A601CE010B
:1018000001960E944F0A892B09F066CF2A853B85F5
:1018100050E040E0211531054105510521F4288DA6
:10182000398D4A8D5B8DAC81B0E00E94DD274B0184
:101830005C014A815B8170E060E0C40ED51EE61E4B
:10184000F71EC0922D03D0922E03E0922F03F09248
:101850003003E981E09325038D819E8190932803D5
:10186000809327030F81188530E020E001151105D2
:101870002105310521F40C891D892E893F89F4E069
:1018800096958795FA95E1F72C01712C612C041B34
:10189000150B260B370BC901B801681979098A099C
:1018A0009B0964197509860997092E2F30E050E0CD
:1018B00040E00E943A28DA01C9010296A11DB11D3B
:1018C0008093290390932A03A0932B03B0932C03B6
:1018D000265F3F40410951092F3F3F4E41055105C9
:1018E00088F1873F9F4FA105B10588F570CF82E051
:1018F00080932303D501C4018C0D9D1DAE1DBF1D1A
:101900002DC040E050E0BA018AE70E94FD09811134
:10191000BBCE0E94BC09F70181937F010E171F0700
:10192000C1F789811CE086FDB0CE14E0AECE40E068
:1019300052E060E070E080E50E94FD09882309F430
:10194000A4CEA2CE873F9F4FA105B10580F283E0D0
:101950008093230388A199A1AAA1BBA180933103FD
:1019600090933203A0933303B0933403C40CD51C7B
:10197000E61CF71C8C0C9D1CAE1CBF1C8092350312
:1019800090923603A0923703B0923803109224034A
:1019900083E293E090934E0380934D0390E080E0C8
:1019A0009DCE0F931F93CF93DF9300D000D0CDB780
:1019B000DEB7623071058105910528F461E070E0C1
:1019C00080E090E055C0E0914D03F0914E03068118
:1019D000178120853185601771078207930770F79B
:1019E000AB01BC018081823031F1833039F79A013B
:1019F0002F773327220F331F220F331F97E076955F
:101A00006795579547959A95D1F782859385A485D3
:101A1000B585480F591F6A1F7B1F04E010E0CE01F7
:101A200001960E944F0A892B49F669817A818B8140
:101A30009C819F701DC09A013327220F331F452FB1
:101A4000562F672F772782859385A485B585480F04
:101A5000591F6A1F7B1F02E010E0CE0101960E9411
:101A60004F0A892B09F0AACF69817A8190E080E042
:101A70000F900F900F900F90DF91CF911F910F91CA
:101A800008956F927F928F929F92AF92BF92CF9262
:101A9000DF92EF92FF920F931F93CF93DF93C0914A
:101AA0004D03D0914E03FC0111821082209709F45E
:101AB000AFC0298120FFAFC00A8D1B8D2C8D3D8DBD
:101AC0004E895F89688D798D68017901C41AD50ABC
:101AD000E60AF70AB701A601403251056105710512
:101AE00020F040E250E060E070E05C017A0132E01A
:101AF000832E33E0932E612C42E0742EE114F10426
:101B000009F48CC08E899F89A88DB98DAC01BD0167
:101B1000517066277727452B462B472B09F04AC083
:101B2000DA80DA94AC01BD0129E076956795579586
:101B300047952A95D1F7D42251F5892B8A2B8B2BE7
:101B4000D9F46E8D7F8D88A199A1623071058105D0
:101B50009105C8F4198281E090E0DF91CF911F9147
:101B60000F91FF90EF90DF90CF90BF90AF909F903C
:101B70008F907F906F9008956AA17BA18CA19DA109
:101B80000E94D10CE2CF6AA37BA38CA39DA36AA180
:101B90007BA18CA19DA10E9446096115710581055B
:101BA0009105C1F26D0D711D811D911D6EA37FA365
:101BB00088A799A72E893F893170C301821B930B97
:101BC00067018E159F0508F46C014EA15FA168A501
:101BD00079A58601C4010E944F0A892B09F0BACF6A
:101BE0008E899F89A88DB98D8C0D9D1DA11DB11D5C
:101BF0008E8B9F8BA88FB98F8C0C9D1CEC18FD08C9
:101C0000F50180819181C80ED91ED182C08276CF24
:101C100085E090E0A2CF84E090E09FCF90E080E06C
:101C20009CCF4F925F926F927F928F929F92AF92D2
:101C3000BF92CF92DF92EF92FF92CF93DF9300D0CB
:101C400000D000D0CDB7DEB720914D0330914E03C8
:101C50003E832D832115310509F40CC1D90111965C
:101C60002C91119720FF09C15A96CD90DD90ED90EF
:101C7000FC905D976C157D058E059F0510F46B013A
:101C80007C01ED81FE8146885788608C718C168AB4
:101C9000178A108E118EC114D104E104F10409F4E5
:101CA000E6C08280912CB12CA12C39E0880C991CC3
:101CB000AA1CBB1C3A95D1F741145104610471046C
:101CC00009F470C0B1E04B1A510861087108C701EE
:101CD000B6016150710981099109A50194010E9421
:101CE0003A2829833A834B835C83C301B201A5015F
:101CF00094010E943A2889819A81AB81BC81821724
:101D00009307A407B50708F44DC088279927DC017D
:101D100088199909AA09BB0984219521A621B7210F
:101D2000ED81FE81868B978BA08FB18FC81AD90A5F
:101D3000EA0AFB0A62A173A184A195A18C149D04F7
:101D4000AE04BF0408F058C00E94D10C6230710587
:101D50008105910568F0AD81BE8116964D905D902C
:101D60006D907C901997641575058605970540F16F
:101D7000ED81FE81118281E090E026960FB6F89405
:101D8000DEBF0FBECDBFDF91CF91FF90EF90DF9010
:101D9000CF90BF90AF909F908F907F906F905F900B
:101DA0004F900895AD81BE815E966D917D918D912C
:101DB0009C919197FD0162A373A384A395A3BECFC9
:101DC000AD81BE8192966D937D938D939C939597F3
:101DD00056964D905D906D907C905997480C591C8B
:101DE0006A1C7B1CFD01468A578A608E718EC8185A
:101DF000D908EA08FB08A2CFAD81BE8156968D9026
:101E00009D90AD90BC905997C80CD91CEA1CFB1C46
:101E1000FD01C68AD78AE08EF18E0E944609AB0189
:101E2000BC01411551056105710529F4AD81BE81E3
:101E300011961C92A0CFED81FE8182818150990B79
:101E4000092E000CAA0BBB0B29E0F694E794D7945B
:101E5000C7942A95D1F78C219D21AE21BF21480F2F
:101E6000591F6A1F7B1F46A357A360A771A790E065
:101E700080E083CF85E090E080CF84E090E07DCF6C
:101E80004F925F926F927F92BF92CF92DF92EF92CA
:101E9000FF920F931F93CF93DF93CDB7DEB7EC97ED
:101EA0000FB6F894DEBF0FBECDBFE0904D03F090AB
:101EB0004E03E114F10409F404C1F70111829E01FB
:101EC0002F5C3F4F3CA32BA39C016901F90180814A
:101ED0002F5F3F4F8032C9F38F3209F469011DA291
:101EE0001EA21FA218A6F6018081A0E2BA2E80329F
:101EF00008F0D4C0CE0181960E9471091982009722
:101F000009F407C1EC960FB6F894DEBF0FBECDBF43
:101F1000DF91CF911F910F91FF90EF90DF90CF90C5
:101F2000BF907F906F905F904F90089520E0E0E029
:101F300088E0D1C0C30ED11C81E0913208F080E06E
:101F40001B968C93CE0181960E9471090097D1F661
:101F500029A13AA12F703327F5E0220F331FFA95FC
:101F6000E1F74DA55EA56FA578A900E210E0CE01CE
:101F700001960E944F0A892B19F081E090E0C2CFB0
:101F80008981811103C083E090E0BCCF8C8583FD03
:101F900013C00BA11CA19E012F5F3F4FD801B801B8
:101FA000655F7F4F6A177B0709F4AEC0F901419165
:101FB0009F019D914917B1F309A11AA10F5F1F4F0E
:101FC00011F38DA59EA5AFA5B8A90097A105B105F0
:101FD000D1F298012F703327232BB9F40196A11D5C
:101FE000B11D8DA79EA7AFA7B8AB69A57AA58BA594
:101FF0009CA5F701611571058105910549F484815E
:1020000095810817190708F0BECF1AA309A3A0CF1E
:102010002281E22FE150FF0BAF019801E4E03695F9
:102020002795EA95E1F724233523232B71F70E94A6
:10203000D10C623071058105910508F49ECFF7013E
:102040004680578060847184641575058605970500
:1020500008F099CF69A77AA78BA79CA70E94460989
:102060006DA77EA78FA798ABD0CF84FF8CCFF70149
:1020700080818330F1F48D899E89B0E0A0E0DC019D
:10208000992788274B8D5C8D70E060E0842B952B21
:10209000A62BB72B8DA39EA3AFA3B8A7ABA1BCA1C2
:1020A000FD01CD010B968E179F0709F43FCFB1922A
:1020B000FACF80E090E0DC01E5CF80E090E0DC0149
:1020C0003DC085E090E01ECF883009F033CF9BE023
:1020D000282FE32F892F31E03E0FEC0DFD2DF11D50
:1020E0009081913208F426CF9F3209F423CF9E329B
:1020F00059F3281708F01ECFFD01E20FF11D908360
:10210000982F81E0820FE4CFF8019385992309F499
:10211000ACCF8981882309F436CF8C8584FD33CFF9
:10212000E0914D03F0914E038081833031F68D892B
:102130009E89B0E0A0E0DC01992788274B8D5C8D5B
:1021400070E060E0842B952BA62BB72BF701868FD0
:10215000978FA0A3B1A38D8D9E8DAF8DB8A1828FD7
:10216000938FA48FB58F168A178A108E118E81E0F7
:10217000818390E080E0C6CECF93DF93D82FC0E07C
:1021800061E08FE00E94250660E08FE00E94250656
:10219000CF5FDC13F5CFDF91CF9108951F93CF93DD
:1021A000DF93182FD92F81E00E94BC1060E082E0FD
:1021B0000E942506CFEFCABB81E28BBB82E00E9462
:1021C000BC101ABACBBB82E00E94BC10CABB1BBBBE
:1021D00083E00E94BC10DBBB82E00E94BC101ABAF4
:1021E000CBBB61E082E0DF91CF911F910C9425067B
:1021F000CF93DF93D82F81E00E94BC1060E082E093
:102200000E942506CFEFCABB86E38BBB82E00E940B
:10221000BC101ABACBBB82E00E94BC10CABBDBBBAD
:1022200082E00E94BC101ABACBBB61E082E00E943F
:10223000250683E00E94BC1081E00E94BC1060E093
:1022400082E00E942506CABB83E28BBB82E00E942B
:10225000BC101ABACBBB61E082E00E94250683E085
:10226000DF91CF910C94BC108FE493E00E947F0724
:10227000181619069CF480919602813079F48091A9
:102280006B00882359F060E081E00E942506809170
:102290008F02816080938F0210926B0008950E94DC
:1022A000860781110C9434110895AC018091D902F4
:1022B0008111FCCF962F81E08093D9028093D802C0
:1022C0002FEF2093D7022CEA32E03093D6022093EE
:1022D000D5021092D4022FEF260F2093D3028093C1
:1022E000D2022091D202440F551F822F842B80935B
:1022F000D2028091D1028130D1F41092D10280912A
:10230000D20283B906B603FCFACF85EC86BF809172
:10231000D9028130E1F38091D402861710F49091B4
:10232000D4021092CD029093CC02892F089585EEAD
:10233000EDCFCF9388E60E94910590E080E00E9467
:10234000DA080E948E0562E170E088E690E00E9463
:1023500055110E94AE05982F92959770CAE08F7024
:102360009C9F800D11248093D0020E94AE05982F6F
:1023700092959F708F709C9F800D11248093CF0247
:102380000E94AE05982F929593708F709C9F800D40
:1023900011248093CE020E94AE050E94AE05982FB4
:1023A00092959F708F709C9F800D11248093AB023B
:1023B0000E94AE05982F92959F708F709C9F800D04
:1023C00011248093AA020E94AE05982F92959F70C7
:1023D0008F709C9F800D11248093A9020E94AE05EE
:1023E000C150E1F70E94AE058093A802CF910895F5
:1023F000FC0101900020E9F73197AF01481B590B10
:10240000BC018FE493E00C9422078F929F92AF92CD
:10241000BF920F931F93CF93DF93CDB7DEB7A197F2
:102420000FB6F894DEBF0FBECDBF19A2423008F43C
:102430004AE08E010F5D1F4F842E912CB12CA12CF0
:10244000A50194010E943A28E62FB901CA01EA3099
:10245000F4F4E05DD801EE938D01232B242B252B82
:1024600079F790E080E0109719F0CD010E94F81103
:10247000A1960FB6F894DEBF0FBECDBFDF91CF910E
:102480001F910F91BF90AF909F908F900895E95C3E
:10249000E1CF462F682F70E090E080E00C940512A9
:1024A000CF92DF92EF92FF92CF93DF936B017C018B
:1024B0006DE28FE493E00E94B107EC016627772775
:1024C000CB016C197D098E099F094AE00E94051213
:1024D0008C0F9D1FDF91CF91FF90EF90DF90CF90F9
:1024E0000895BC01990F880B990B97FD0C9450121D
:1024F0004AE00C940512009711F00C94F81190E04A
:1025000080E008951F93CF93DF9300D0CDB7DEB75F
:10251000182F86E991E00E947B126AE070E0812F1B
:102520000E944912105D1093620080E690E00E94C4
:10253000400FCE0101960E94410D898180938C024B
:10254000882361F080EA91E00E947B1282E093E0B0
:102550000E947B1283EA91E00E947B120F900F9001
:10256000DF91CF911F910895CF93C82F8A3020F427
:1025700082EC91E00E947B126AE070E08C2FCF9198
:102580000C94491281110E9499118091AB020E9412
:10259000B41285EA91E00E947B128091AA020E9407
:1025A000B41285EA91E00E947B128091A9020E94F8
:1025B000B4128EE991E00E947B128091CE020E94BB
:1025C000B41287EA91E00E947B128091CF020E94B0
:1025D000B41287EA91E00E947B128091D0020C94A1
:1025E000B41289EA91E00C94F811CF93DF930E9422
:1025F000FD07EC010E94F1128C0F9D1FDF91CF911E
:1026000008958FE493E00E947F07181619062CF4B2
:102610008FE493E00E945E07F4CF8EEB92E00E947D
:10262000F5128FE493E00E947F0718161906CCF785
:102630000895CF93DF930E944912EC010E94F1129A
:102640008C0F9D1FDF91CF910895FF920F931F93E1
:10265000CF93DF93C82FF62ED42F062F10E0809152
:10266000A702843040F18AE594E00E94FD076AE009
:1026700070E08C2F0E94491281E594E00E94FD07D2
:1026800060E170E08F2D0E9449128EE494E00E9478
:10269000FD07C801880F991F880F991F80549F4F0D
:1026A0000E947B1285E494E00E94FD0760E170E0E7
:1026B0008D2F0E94191388E40E94910583E0000F7A
:1026C000111F8A95E1F78C2F90E0880F991F802BBE
:1026D000912B0E94DA086D2F8CEA94E00E94AB08DF
:1026E00081E0DF91CF911F910F91FF900C943905FC
:1026F000FF920F931F93CF93DF93F82E062F88E45A
:102700000E949105C02FD0E09E0143E0220F331FAD
:102710004A95E1F78F2D90E0880F991F822B932B1C
:102720000E94DA0880E00E94390561E070E088E4E8
:1027300090E00E9455110E94AE05182F8091A702CB
:10274000843040F18CE294E00E94FD076AE070E082
:102750008F2D0E94491283E294E00E94FD0760E100
:1027600070E0802F0E94491280E294E00E94FD07F1
:10277000CE01880F991F880F991F80589F4F0E9484
:102780007B1287E194E00E94FD0760E170E0812FF9
:102790000E941913812FDF91CF911F910F91FF900C
:1027A0000895CF93DF93D82F63E00E947813807C45
:1027B000C82FC3608091A702882349F083ED99E078
:1027C0000E94FD076AE070E08C2F0E9419134C2FC5
:1027D00063E08D2FDF91CF910C942513CF9368E0A8
:1027E0000E947813C82F8091A702833048F08CEFA5
:1027F00093E00E94FD076AE070E08C2F0E9419139D
:102800008C2FCF910895CF93DF93D82F65E00E944E
:102810007813C82F8091A7028330B8F08BED93E036
:102820000E94FD0769E08D2F0E947813D82F60E188
:1028300070E08C2F0E9419138DEB93E00E94FD072E
:102840006AE070E08D2F0E9419138C2F8170DF9148
:10285000CF9108954F925F926F927F928F929F9245
:10286000AF92BF92CF92DF92EF92FF92CF93DF931E
:10287000C82F4A015B0164E00E94781324E087FFBF
:1028800021E030E050E040E060E072EC81E090E078
:102890000E943A2829013A01CA01B901A50194010F
:1028A0000E943A2869017A0163E08C2F0E94781314
:1028B000D82F482F406863E08C2F0E9425134C2DA1
:1028C00060E08C2F0E9425134D2D552761E08C2F41
:1028D0000E9425134D2F4F7763E08C2F0E94251304
:1028E000EE24FF24C301B201A70196010E943A28F9
:1028F00029013A018091A702833008F182EA93E02E
:102900000E94FD074AE0C501B4010E9405120E9421
:10291000F11285E893E00E94FD074AE0C701B60185
:102920000E9405120E94F1128BE693E00E94FD07BF
:102930004AE0C301B2010E9405120E94F112C301D4
:10294000B201DF91CF91FF90EF90DF90CF90BF90D9
:10295000AF909F908F907F906F905F904F90089571
:10296000CF93DF930E94F811EC010E94F1128C0FBB
:102970009D1FDF91CF9108950F931F93CF93DF9306
:10298000D82FC62F8A018AE593E00E94FD076AE0EE
:1029900070E08C2F0E94491280EA91E00E947B1225
:1029A0008FE393E0C330C1F058F481E593E0C13088
:1029B00099F087E493E0C23079F082E193E00CC0B3
:1029C00088E293E0C53041F084E393E0C53020F025
:1029D0008AE193E0C63089F70E94FD078DE093E01D
:1029E0000E94FD0782E093E0D13031F087E093E070
:1029F000D23011F48DEF92E00E94FD0782EF92E059
:102A00000E94FD070115110539F088EE92E00E9441
:102A1000FD07C8010E947B1283EA91E0DF91CF910C
:102A20001F910F910C94B014FC018081918100974B
:102A300011F00C948C2760E070E0CB010895FC014C
:102A400080819181009711F00C94FE280895EF92F7
:102A5000FF920F931F93CF93DF93EC017B018A01C9
:102A600088819981009729F02A813B8124173507B5
:102A700088F4B8016F5F7F4F0E948729009791F01B
:102A8000998388831B830A832C813D81232B11F436
:102A9000FC0110821D830C83B701888199810E94FB
:102AA0004D2A0CC088819981009711F00E94FE2860
:102AB000198218821D821C821B821A82CE01DF912C
:102AC000CF911F910F91FF90EF900895AF92BF9219
:102AD000CF92DF92EF92FF920F931F93CF93DF93EA
:102AE000EC016B015A0179012417350720F48B2D75
:102AF0005901E42EF82E198218821B821A821D8237
:102B00001C8250E040E06BEA71E0CE010E94271584
:102B1000D60114960D911C91A016B10628F5E01669
:102B2000F10608F48701D601ED91FC911197E00FB1
:102B3000F11FF08010826D917C916A0D7B1D6115F3
:102B40007105F1F0FB0101900020E9F73197AF0129
:102B5000461B570BCE010E942715F60180819181FB
:102B6000080F191FD801FC92CE01DF91CF911F9160
:102B70000F91FF90EF90DF90CF90BF90AF900895AE
:102B800088819981009711F00E94FE28198218828D
:102B90001D821C821B821A82E0CF1F93CF93DF938A
:102BA000EC01162F0E94C827181739F0612FCE01AB
:102BB000DF91CF911F910C94D027DF91CF911F917E
:102BC00008950C94C827CF92DF92EF92FF920F9353
:102BD0001F93CF930E9414076B017C01C1E08FE427
:102BE00093E00E947F07892B09F09BC00E94140785
:102BF0006C197D098E099F09683B7B408105910511
:102C0000A0F462E08DE00E9453068DE00E94FC0576
:102C1000892B09F0C0E061E08DE00E9453066AE074
:102C200070E080E090E00E94E2060E9414070091AC
:102C3000FE021091FF022091000330910103601BFE
:102C4000710B820B930B6D32714081059105A0F0E1
:102C500080E00E94FC0561E0892B09F060E080E0E3
:102C60000E9425060E9414076093FE027093FF02E3
:102C700080930003909301030E9414076C197D094F
:102C80008E099F09693B7B408105910508F4A7CF18
:102C9000CC2309F4A4CF8FE090E00E94E1158930A5
:102CA00009F49DCF60E080E00E94250669E08FE096
:102CB00090E00E94CD1589EE99E00E94F5120E94E5
:102CC0001407C090FE02D090FF02E0900003F09045
:102CD00001036C197D098E099F096536710581050F
:102CE000910568F380E00E94FC0561E0892B09F002
:102CF00060E080E00E9425068DE00E94FC0561E016
:102D0000892B09F060E08DE00E9425060E941407DF
:102D10006093FE027093FF0280930003909301037F
:102D2000CECFCF911F910F91FF90EF90DF90CF907A
:102D300008951F920F920FB60F9211244F935F9335
:102D40006F937F938F939F934091A3025091A4021E
:102D50006091A5027091A6028091A2029091A102B9
:102D6000943019F51092A1029091A10290FD21C01A
:102D70008A598D3728F08D574F5F5F4F6F4F7F4FC8
:102D80008093A2024093A3025093A4026093A502F1
:102D90007093A6029F918F917F916F915F914F9158
:102DA0000F900FBE0F901F9018959F5F9093A102F8
:102DB000DBCF8959DECF1F920F920FB60F921124ED
:102DC0002F933F934F935F936F937F938F939F9333
:102DD000AF93BF93EF93FF938FE493E00E9490072C
:102DE000FF91EF91BF91AF919F918F917F916F91E3
:102DF0005F914F913F912F910F900FBE0F901F90B9
:102E000018951F920F920FB60F9211242F938F9344
:102E10009F93EF93FF93E0915F03F09160038081B4
:102E2000E0916503F091660382FD1AC09081809164
:102E300068038F5F20916903821741F0E091680376
:102E4000F0E0E15BFC4F958F80936803FF91EF9179
:102E50009F918F912F910F900FBE0F901F901895FB
:102E60008081F4CF1F920F920FB60F9211242F93EF
:102E70003F934F935F936F937F938F939F93AF9302
:102E8000BF93EF93FF9381B1887F803609F44AC0E6
:102E9000F0F5883209F4A3C018F5803109F499C01F
:102EA000B8F4882309F4FDC0883009F492C0FF917A
:102EB000EF91BF91AF919F918F917F916F915F91B2
:102EC0004F913F912F910F900FBE0F901F9018952B
:102ED000883109F484C0803251F78093D70214C03E
:102EE000803409F4A0C040F48033B9F38833F9F694
:102EF0008093D70285ECB6C0803509F485C088354B
:102F000009F499C0883499F60E943808D0CF8839DE
:102F100009F48FC030F5883729F050F4883611F065
:102F2000803729F683E08093D9021092740254C04E
:102F3000883809F47EC0803919F0803809F0B7CF9D
:102F400080917402803208F074C0E091740281E0D4
:102F50008E0F8093740283B1F0E0EC5AFD4F8083B2
:102F60003BC0803B39F0E0F4803A09F47FC0883AF6
:102F700009F09DCF84E08093D90210925302109201
:102F80005202E0917702F091780209958091520205
:102F900081110FC081E0809352021092320209C069
:102FA000803C09F4A7CF883C09F4A4CF883B09F002
:102FB0007ECFE091530281E08E0F80935302F0E0C8
:102FC000EE5CFD4F808183B9909153028091520253
:102FD0002EC08091D20283B985EC86BF68CF9091D4
:102FE000D4028091D3029817A8F58091D5029091D0
:102FF000D602E091D40221E02E0F2093D402E80FF4
:10300000F92FF11D8081E7CF2091D5023091D602B2
:10301000E091D40281E08E0F8093D40283B1E20F5D
:10302000F32FF11D80839091D4028091D3029817E1
:1030300098F285E8D2CF2091D5023091D602E09166
:10304000D40281E08E0F8093D40283B1E20FF32F7C
:10305000F11D80838091D802811156CF81E0809349
:10306000D10284EA86BF1092D90221CF85EC86BFB7
:103070001092D90280917402803230F4E09174028F
:10308000F0E0EC5AFD4F10826091740270E0E09124
:103090007502F091760284E592E00995109274022F
:1030A00006CF1092D70230CFEF92FF920F931F936B
:1030B000CF93DF930097C9F0EA018C012097B1F11B
:1030C000E0908602F0908702E114F10479F1F801B2
:1030D00081918F010E94B809F1E0EF1AF108F09296
:1030E0008702E09286022197E9CF411551056105DB
:1030F000710529F18091220383FD07C089E0440F07
:10310000551F661F771F8A95D1F788E50E94FD0934
:1031100081111DC08FEF0E94B8098EEF0E94B8097F
:1031200080E092E0909387028093860290E080E0B6
:10313000DF91CF911F910F91FF90EF900895DF9154
:10314000CF911F910F91FF90EF900C94C10981E0F6
:1031500090E0EECFEFE4F3E01382128288EE93E08A
:10316000A0E0B0E084839583A683B78326E731E0AF
:103170003183208320E430E03587248749E250E022
:10318000578746874BE250E0518B408B4AE250E034
:10319000538B428B358B248B2CE230E0378B268B84
:1031A000118E128E138E148EECEAF4E013821282CA
:1031B00084839583A683B78388E891E09183808395
:1031C000EEEBF4E0118210821382128215821482D7
:1031D00048E050E06CEA71E0CF010E942715E8EB6F
:1031E000F4E01182108213821282158214824BE065
:1031F00050E065EB71E0CF010C942715CF93DF937E
:1032000000D000D000D0CDB7DEB7789483B783600C
:1032100083BF83B7886483BF89B7816089BF82E039
:103220008EBD8EB581608EBD8FB581608FBD85B539
:10323000846085BD85B5806485BD87E886B91AB888
:1032400061E086E10E94530660E086E10E94250667
:1032500061E080E00E94530660E080E00E94250665
:1032600062E08DE00E9453068DE00E94FC058C0117
:1032700061E08DE00E94530661E08DE00E9425062A
:1032800062E081E00E94530661E081E00E94530603
:1032900061E081E00E94250661E082E00E94530621
:1032A00061E082E00E94250660E083E00E94530610
:1032B00062E08EE00E94530661E08EE00E945306B9
:1032C00061E08EE00E9425061ABA8FEF8BBB62E0A8
:1032D00085E10E94530662E084E10E94530662E0A9
:1032E00083E10E94530662E082E10E94530661E09E
:1032F0008CE00E94530661E08CE00E94250661E0AC
:103300008BE00E94530660E08BE00E94250661E09E
:103310008FE00E94530660E086E10E94250686E069
:103320000E94BC1061E086E10E94250682E00E94B6
:10333000BC1062E08AE00E94530661E087E10E94CF
:10334000530660E087E10E94250664E670E080E0B5
:1033500090E00E94E20661E087E10E94250664EFAA
:1033600071E080E090E00E94E2068DE090E00E9433
:10337000E115823028F061E08DE090E00E94CD15EB
:103380008DE090E00E94E115809385028EE090E050
:103390000E94E11580939C02863038F060E08EE058
:1033A00090E00E94CD1510929C021092CD021092D6
:1033B000CC021092DB021092FD021092D902FF247F
:1033C000F394F092D8021092D10261E081E10E9460
:1033D000250661E080E10E942506089809988CE5A1
:1033E00080B985E486BF80E297E09093780280936D
:1033F000770281E297E0909376028093750280E2F3
:103400000E9491050E948E0581110FC0F0929D02CD
:1034100080E20E9491058CE090E00E94DA0885E04D
:1034200090E00E94DA080E948E0588E40E949105CF
:103430000E948E05811180C045E567E00E9425133A
:1034400067E080E00E947813853509F075C04AEA8C
:1034500067E080E00E94251367E080E00E94781317
:103460008A3A09F069C045E567E081E00E942513CA
:1034700067E081E00E947813853509F05DC04AEA73
:1034800067E081E00E94251367E081E00E947813E5
:103490008A3A09F051C081E0809391026EE080E0A9
:1034A0000E947813482F48606EE080E00E94251348
:1034B00062E080E00E947813482F416062E080E083
:1034C0000E94251362E081E00E947813482F41603A
:1034D00062E081E00E94251340EB54E060E070E080
:1034E00080E00E942A1440EB54E060E070E081E04C
:1034F0000E942A1480E00E94D11381E00E94D1131F
:1035000062E080E00E947813482F426062E080E031
:103510000E94251362E081E00E947813482F4260E8
:1035200062E081E00E94251360E080E00E94781351
:1035300060E081E00E9478138FE090E00E94E11546
:103540008A3028F069E08FE090E00E94CD158FE08E
:1035500090E00E94E115C12C22ECD22EEE24E394DF
:10356000F12C893050F4E82FF0E0EE0FFF1FE45FFC
:10357000FE4FC080D180F12CE12C60E47BE48CE430
:1035800090E0A70196010E943A2821503109410993
:1035900051095695479537952795E0915F03F0912E
:1035A000600382E08083211540E13407A8F0E091B8
:1035B0005F03F0916003108260EA75E286E290E0BA
:1035C000A70196010E943A28215031094109510969
:1035D0005695479537952795E0915B03F0915C03ED
:1035E0003083E0915D03F0915E03208310926703C6
:1035F000E0916303F091640386E88083E0916103C6
:10360000F0916203808188698083E0916103F09189
:10361000620380818F7D80838CE998E00E94F5129F
:1036200087E798E00E94F51280E698E00E94FD0787
:1036300080918502882309F4AFC08FEB91E00E944E
:103640007B128CE598E00E94F51288E60E949105B5
:103650000E948E05811133C18CE095E00E94FD0728
:1036600081E00E94C21283EA91E00E94B01487EECA
:1036700094E00E94FD078091A802082E000C990B8F
:103680000E94711284EC91E00E94B01488E60E94BE
:1036900091058FE090E00E94DA080E948E0561E0BB
:1036A00070E088E690E00E9455110E94AE0587FF09
:1036B000E2C028E030E046E050E06EEB74E0CE017E
:1036C00001960E946615CE0101960E941415609322
:1036D000D002CE0101960E941F1525E030E043E0A4
:1036E00050E06EEB74E0CE0101960E946615CE01AB
:1036F00001960E9414156093CF02CE0101960E949C
:103700001F1522E030E050E040E06EEB74E0CE01A7
:1037100001960E946615CE0101960E9414156093D1
:10372000CE02CE0101960E941F1526E030E044E053
:1037300050E068EB74E0CE0101960E946615CE0160
:1037400001960E9414156093AB02CE0101960E946F
:103750001F1590E080E00E94C105EFEBE80FE33118
:1037600008F02EC00E2E000CFF0BE754F44E0C9404
:103770005C28431CE01BE01B5D1CE01B411CE01BA4
:10378000E01BE01BCF1BE01BE01B4D1C5B1C591C0E
:10379000E01BE01BE01B571C81EC91E050CF81E067
:1037A00090E00E94C105813609F467C082E090E094
:1037B0000E94C1058E3609F062C086E08093AA029D
:1037C0002BE030E049E050E068EB74E0CE01019678
:1037D0000E946615CE0101960E9414156093A902FD
:1037E000CE0101960E941F158FEC94E00E94F51205
:1037F00084EA94E00E94FD0780E00E94C21289E9F9
:1038000094E00E94FD070E94E3158FE493E00E947C
:103810005E0780938302982F9F7D993511F09E3427
:1038200091F7682F8FE493E00E94B1070E94F11294
:10383000809183028F7D893589F44091A90260913E
:10384000AA028091AB020E94DF0884E794E00E9404
:10385000FD0781E00E94C2120E94F11288E60E94D8
:1038600091058FE090E00E94DA0888E090E00E94E5
:10387000DA080E948E0581E023C081E09FCF87E0B7
:103880009DCF82E09BCF82E090E00E94C10582370D
:1038900011F484E093CF88E091CF82E090E00E9421
:1038A000C105823711F483E089CF85E087CF89E0B5
:1038B00085CF8AE083CF8BE081CF8CE07FCF80E023
:1038C00080938E0280919D02882321F086E498E007
:1038D0000E94F51280919102882321F080E398E004
:1038E0000E94F51289E198E00E94FD078CE090E0CB
:1038F0000E94E115823028F060E08CE090E00E94A8
:10390000CD158CE090E00E94E11580938D02882314
:10391000F9F086E198E00E94F5120E94F30A0E94F5
:10392000F30A8AE090E00E94E11580938402012B63
:1039300019F0853008F4E6C08FE493E00E947F0719
:103940001816190644F48FE493E00E945E07F4CF42
:1039500082E198E0E0CF0E94F11286EE97E00E94AB
:10396000F5120E94F11210918402153008F082C005
:1039700086ED97E00E94FD07812F90E001960E945E
:10398000711283EA91E00E94B01410E38CEC97E08E
:103990000E94F51282EC97E00E94F51281EB97E00D
:1039A0000E94FD0780919C020E94821282EA97E0A9
:1039B0000E94F51288E997E00E94F51289E797E0E6
:1039C0000E94FD0780918502882309F455C081EC8F
:1039D00091E00E947B1284E797E00E94F51287E550
:1039E00097E00E94FD0780918D02811148C086EC0E
:1039F00091E00E947B1283EA91E00E94B01487E379
:103A000097E00E94FD078FE090E00E94E115893069
:103A1000D8F5E82FF0E0EE0FFF1FE45FFE4F608166
:103A2000718190E080E04AE00E94051283EA91E013
:103A30000E94B01480918E0208E3882329F081E26D
:103A400097E00E94F51209E30E94F1128CE097E0E2
:103A50000E94FD070E94E3158FE493E00E945E0739
:103A6000809383028F33A9F48091A7028F5F8093A4
:103A7000A702F0CF11E38ACF8FEB91E0AACF83E5C5
:103A800097E00E94FD07B7CF60E072EC81E090E024
:103A9000CACF803219F41092A702DCCF8117D4F27A
:103AA0000817C4F2682F8FE493E00E94B10787E003
:103AB00097E00E94F5121091A702112349F085EFBB
:103AC00096E00E94FD076AE070E0812F0E941913C2
:103AD00080918302873309F413C10CF068C08333EB
:103AE00009F4AFC0863309F4FFC0609183026153CB
:103AF00060938402653010F00C9471278AE090E0A6
:103B00000E94CD1580918402823051F48FE896E0B6
:103B10000E94FD0780919C020E9482120E94F11275
:103B200010918402123009F4EDC208F0C6C21123CC
:103B300009F4DAC285ED91E0113009F41BC361E0AC
:103B400080E00E942506E0907E02F0907F02E11462
:103B5000F10469F090E080E00E94CE1083EC0E94B6
:103B6000F8108E2D0E94F8108F2D0E94F810C701BA
:103B70000E94CE10143008F0BEC30E94F30A8823BE
:103B800009F410C30E94F30A80937902882309F490
:103B900009C360917902662329F050E040E080E09B
:103BA0000E94BC140E9401130E94F30AEBCF8833D9
:103BB00009F4B0C0893309F098CF0E94991110928E
:103BC000980282E196E00E94F51283EE95E00E9451
:103BD000F5126AE0F62E76EFE72EDD24D39481EE1F
:103BE00095E00E94FD0780919802823009F41CC183
:103BF00008F0FDC0882309F407C1813009F40DC124
:103C00000E94E3158FE493E00E945E07082F8093E3
:103C10008302853709F426C1853509F423C1843729
:103C200011F40C947927843511F40C9479278D3094
:103C300039F7109198026DE08FE493E00E94B1078C
:103C400036C18BE295E00E94F51280919C02815072
:103C50008093820206E0809182028F5F602F0E9433
:103C60002E28192F9093820280EF96E00E94FD0784
:103C7000812F0E9482128DED96E00E94FD078FE455
:103C800093E00E947F07181619062CF48FE493E046
:103C90000E945E07F4CF8FE493E00E947F0718161E
:103CA00019061CF00E94E315F6CF8FE493E00E9402
:103CB0005E07809383028D3011F08B3161F60E9494
:103CC000F1120E94F112809183028D3009F00DCF24
:103CD0006091820260939C028EE090E00E94CD157C
:103CE00083E38093830201CF61E08091850281119B
:103CF00060E0609385028DE090E00E94CD15F5CEE6
:103D000061E080918D02811160E060938D028CE012
:103D100090E0F3CF8BE295E00E94F5128FE090E007
:103D20000E94E1158150809382020AE08091820214
:103D30008F5F602F0E942E28192F9093820288EDAA
:103D400096E00E94FD0760E072EC81E090E019309F
:103D500051F0E12FF0E0EE0FFF1FE45FFE4F6081B6
:103D6000718190E080E04AE00E94051283ED96E0C8
:103D70000E94FD078FE493E00E947F071816190642
:103D80002CF48FE493E00E945E07F4CF8FE493E07D
:103D90000E947F07181619061CF00E94E315F6CF43
:103DA0008FE493E00E945E07809383028D3019F0C8
:103DB0008B3109F0BBCF0E94F1120E94F112809169
:103DC00083028D3009F091CE8FE090E00E94E115E2
:103DD00060918202861711F40C946E278FE090E0B8
:103DE0000E94CD158DE996E00E94F5127ECE8430BA
:103DF00091F150F1853009F003CF85E995E00E94FB
:103E0000FD078091D00206C088ED95E00E94FD0775
:103E10008091A9020E94B412F3CE8EEC95E00E942C
:103E2000FD078091AA02F6CF80EC95E00E94FD0785
:103E30006DE08FE493E00E94B10787EB95E00E946C
:103E4000FD078091AB02E6CF8DEA95E00E94FD0769
:103E50008091CE02DFCF81EA95E00E94FD0780913C
:103E6000CF02D8CF10919802123009F466C0E8F55D
:103E7000112309F44CC0113009F454C0802F8F7DF8
:103E8000843511F00C947D27123009F4C7C008F076
:103E90008CC0112309F4A3C0113009F4B2C06DE045
:103EA0008FE493E00E94B1070D3009F098CE1F5FB8
:103EB00010939802163008F492CE4091A9026091B6
:103EC000AA028091AB020E94DF0885E895E00E947B
:103ED000F51288E695E00E94FD0781E00E94C2127B
:103EE00083EA91E00E94B01400CE143009F452C06D
:103EF00008F445C0153011F68091D0028F5F809391
:103F0000D0028C3308F4BACF1092D002B7CF809190
:103F1000A9028F5F8093A902843608F4AFCF109274
:103F2000A902ACCF8091AA028F5F8093AA028D3044
:103F300008F4A4CF1093AA02A1CF8091AB028F5FA7
:103F40008093AB02E091AA02E23089F490E02091E4
:103F5000A902237049F42DE130E0281739070CF04D
:103F60008DCFD092AB028ACF2CE130E0F6CFF0E0DB
:103F7000E150FF4F9081981708F080CFF2CF8091E9
:103F8000CE028F5F8093CE02883108F477CF1092F3
:103F9000CE0274CF8091CF028F5F8093CF028C339B
:103FA00008F46CCF1092CF0269CF143009F473C0BB
:103FB00008F45FC0153009F072CF2091D002265F5F
:103FC0002093D0022C3308F498C7822F6F2D0E94C3
:103FD0002E288E9D200D11242093D00260CF209199
:103FE000A902265F2093A902243608F486C7822FEF
:103FF0006F2D0E942E288E9D200D11242093A90242
:104000004ECF8091AA028B3020F08A508093AA0272
:1040100046CF833008F071C7865FF8CF2091AB029E
:10402000265F2093AB02422F50E0E091AA02F0E01D
:10403000E150FF4F808190E03091A902337061E040
:1040400070E011F070E060E0860F971F841795070D
:104050004CF4822F6F2D0E942E288E9D200D11244E
:104060002093AB028091AB02811147C7D092AB0283
:1040700016CF2091CE02265F2093CE02283108F47D
:104080003CC7822F6F2D0E942E288E9D200D11245B
:104090002093CE0204CF2091CF02265F2093CF023F
:1040A0002C3308F42AC7822F6F2D0E942E288E9D54
:1040B000200D11242093CF02F2CE133009F46FC0EB
:1040C000143009F03CCDEDE8F6E0859194919093A1
:1040D0007D0280937C028AE692E090937B0280933B
:1040E0007A0280E19DEF3FC089EC91E090938102DC
:1040F0008093800210927F0210927E0281E0809372
:1041000096021DCD80919C02823091F170F488233B
:1041100011F1813009F013CD8BEE91E09093810283
:104120008093800280E890E01EC08430A9F148F1BD
:10413000853009F004CD85E192E09093810280936F
:10414000800210927F0210927E0281E0809396029C
:1041500080939502F4CC81EE91E09093810280935C
:10416000800280EE91ED90937F0280937E02E7CCF7
:1041700086EF91E0909381028093800280E091E04D
:10418000F2CF81E092E090938102809380021092BE
:104190007F0210927E02D3CC8DE092E0F4CF8FE1CB
:1041A00092E0F1CF80918002909181020E94400FB5
:1041B00080937902882321F160917902662339F096
:1041C000409180025091810281E00E94BC140E94C3
:1041D00001130091800210918102C8010E94400FDA
:1041E00080937902833049F00E94F30A0E94F30A17
:1041F000C8010E94400F8093790280917902DACF42
:1042000081E796E00E94FD078091800290918102F3
:104210000E947B128CE696E00E94FD07CE0101967B
:104220000E94410D082F898180938C0200937902AE
:10423000109282021091820280918C02181758F419
:10424000E12FF0E0EE5FFC4F80810E94F8101F5FCD
:1042500010938202EFCF803291F40023F9F2409163
:10426000800250918102602F82E00E94BC140E9463
:10427000011360E070E0CB010E94110E02C0011139
:10428000EECF809179028111C9CF89E496E00E9436
:10429000F51260E086E10E94250682B5877F82BD27
:1042A00085B5816085BD85B5897F85BD85B588600B
:1042B00085BD85B58F7B85BD85B5806185BD85B59F
:1042C0008F7D85BD8091850283BD61E08FE00E9476
:1042D00053068CE296E00E94F5120E94F1128FE4E0
:1042E00093E00E947F0718161906FCF48FE493E010
:1042F0000E945E07F4CF8FE496E00E94FD0710E075
:1043000000E080917A0290917B020817190708F06B
:10431000BCCFE0917C02F0917D02E00FF11F84910F
:104320000E94F8100F5F1F4FECCF61E070E080E05B
:1043300090E00E94E20661E086E10E94250683E0AB
:104340000E94FC05892B09F0D9C383E10E94FC057A
:10435000892B09F08CC382E10E94FC0519B31093EC
:10436000A002882379F01093790010929F02109296
:104370009E0260E08EE00E94250660E080E00E94E0
:104380002506B4C3809179008C3009F48AC108F005
:104390004FC0863009F41FC118F5833009F4FCC002
:1043A00080F4882309F4EBC0813009F4EFC08091D8
:1043B00079008A30F1F28C30E1F24FEF40937900CE
:1043C000D8CF843009F4F3C0853089F780919D02FD
:1043D000882369F380E20E94910590E080E0F1C0BB
:1043E000893009F40EC178F4873009F4FFC08830B1
:1043F000F1F680919D028823D1F280E20E9491051E
:104400008DE090E0DEC08A3009F419C18B3079F676
:104410001093990280919A0290919B02811592408B
:1044200008F03AC1103208F03AC110926D00BFCFC7
:10443000823109F4A1C208F06FC08F3009F492C232
:1044400078F48D3009F479C28E3009F0B0CF812F25
:104450008170809396021695117010939502A7CFE4
:10446000803109F485C2813109F0A1CF80919D028C
:10447000882309F49CCF81E08093930201E011111D
:1044800000E00093920280E20E94910582E190E0B8
:104490000E94DA08000F102F1560812F90E00E9413
:1044A000DA080E948E0580E20E94910590E080E08B
:1044B0000E94DA0888EF90E00E94DA080E948E05D8
:1044C00080E20E94910581E090E00E94DA0890E08D
:1044D00080E00E94DA080E948E0580E20E94910529
:1044E0008CE090E00E94DA088FEF90E00E94DA08FA
:1044F0000E948E0580E20E94910582E190E00E9478
:10450000DA08602F61608CEA94E00E94AB080E9498
:104510008E051093980245C0823209F454C238F5D2
:10452000803209F450C2813209F041CF909191025A
:10453000992309F43CCF01E0813209F400E0802F97
:104540000E94EE138823D9F38091A702823048F0AD
:1045500085EE98E00E94FD0760E170E0812F0E94E7
:104560001913412F60E0802F0E94251320CF833242
:10457000E9F28E3709F01BCF1093A70218CF60E045
:1045800010FF61E08DE00E94250611CF612F8FE4BE
:1045900093E00E94B1070BCF80919D02882309F41C
:1045A00006CF80E20E94910582E190E00AC08091EE
:1045B0009D02882309F4FBCE80E20E94910583E1ED
:1045C00090E00E94DA08612F8CEA94E00E94AB0828
:1045D0000E948E05ECCE80919D02882309F4E7CEDF
:1045E00080E20E94910581E090E0EBCF80919D02F6
:1045F000882309F4DCCE80E20E9491058CE090E0F3
:10460000E0CF80E11436C0F480919C02805D8093FD
:104610007000812F6AE00E942E2890E3980F9093FB
:104620007200105D56EF859F100D112410937300DA
:104630008EE690E00E94400F80936D00B8CE80918E
:104640009E0290919F02412F50E0009751F45093A9
:104650009B0240939A02019690939F0280939E0240
:10466000A6CE20919A02312F30939B0220939A027A
:10467000409199022115324040F4403248F41092A2
:104680006D00FFEFF0937900E6CF21E1403208F0B2
:1046900022E120936D00F5CF81E1103268F282E1D2
:1046A000CBCFC0909E02D0909F02C114D10419F5C7
:1046B00060919A0270919B02611532E07307D8F401
:1046C000809199028032B8F490916D00911113C0DD
:1046D00045E0660F771F4A95E1F7682B90E080E090
:1046E00059E0660F771F881F991F5A95D1F70E94CE
:1046F000110E80936D0080916D00811181C08C2D11
:104700008F7180939802E82FF0E0EE5FFC4F1083EA
:104710008F3109F075C000914D0310914E03A12C0B
:1047200085E00115110509F458C0F801818180FF69
:10473000D9C086FD0AC086899789A08DB18D88274A
:104740009E7F868B978BA08FB18FF801828D938D82
:10475000A48DB58D46895789608D718D841B950B0D
:10476000A60BB70B80329105A105B10520F080E2C0
:1047700090E0A0E0B0E07C01B12CA12C32E0232E2F
:1047800033E0332EE114F10409F4AFC0F801868957
:104790009789A08DB18D9C013170232B09F067C0E2
:1047A00092809A94AC01BD0129E076956795579562
:1047B00047952A95D1F79422B1F5892B8A2B8B2B1B
:1047C00039F5668D778D80A191A1F8016230710570
:1047D0008105910520F5118281E0A09297028093D6
:1047E0006D00FFE1FA1508F482C083E180936D004B
:1047F0002FEFC21621E0D20618F0FFEFF0937900F8
:104800002FEFC21AD20AD0929F02C0929E02CFCD41
:1048100062A173A184A195A10E94D10CD6CF62A3FD
:1048200073A384A395A3F80162A173A184A195A1A8
:104830000E944609611571058105910511F4F80181
:10484000CACFAB01BC01490D511D611D711DF8019D
:1048500046A357A360A771A790E080E00E94541878
:10486000F801892B09F0B7CF818180648183F80139
:1048700086899789917020E032E0281B390B470127
:104880002E153F0508F449012401712C612CB30158
:10489000A401C1010E945418F801892B09F09BCF93
:1048A00086899789A08DB18D840D951DA61DB71D94
:1048B000868B978BA08FB18F280C391CE818F908CC
:1048C000A80CB91C2C01F1E05F22452809F05ACF51
:1048D0000E94C109F801892B09F07DCF81818F7B6E
:1048E000818350CFA12C84E078CF80E076CF3FEF5A
:1048F000C31631E0D30608F483CF81117ECF85E063
:104900000115110569F0F801818180FF14C086FF4F
:104910000CC00E94C109892B41F0F801118281E08D
:104920001092970280936D0068CFF80181818F7B90
:10493000818380E0F5CF84E0F3CF113069F028F077
:10494000123009F034CD60E008C061E08CE00E94D4
:10495000250660E08BE017CE61E08CE00E94250622
:1049600061E0F8CF112309F422CD10936C001FCD24
:104970001170109394021BCD80919302882309F447
:1049800016CD80E20E94910583E190E00E94DA0852
:10499000612F8CEA94E00E94AB080E948E05109172
:1049A0009202110F80E20E94910582E190E00E9444
:1049B000DA08612F6C6F8CEA94E00E94AB080E94C9
:1049C0008E051D6FA6CD90919102992309F4EFCC2D
:1049D000CC24CA94DC2C76011A3260F4E12FEF71FA
:1049E00034E0E39FF0011124E25EFE4FC080D180ED
:1049F000E280F3809091A702923090F1803241F5ED
:104A00008FE299E00E94FD0784E499E00E94FD078F
:104A100060E170E0812F0E94491286E399E00E94D4
:104A2000FD071C141D041E041F04ACF44AE0C7015A
:104A3000B6010E9405120E94F11281E09091790066
:104A4000903209F480E0B701A6010E942A14AFCC8D
:104A500088E299E0D7CF8DE099E00E94F512A7CCCB
:104A60001C141D041E041F040CF0A1CCE6CF84E12D
:104A70000E94FC05892B09F02CC282E10E94FC05F2
:104A80001092A002882309F478C05FEF5093A0022F
:104A90008FE493E00E947F07181619060CF069C096
:104AA0008FE493E00E945E078093A0021092900230
:104AB00061E081E00E94250680918F028E7F8093C5
:104AC0008F0281E080936B00FFEFFABB8091A00220
:104AD0008BBB60E08EE00E94250660E080E00E94D3
:104AE00025060E94D6051ABA2FEF2BBB61E080E0A5
:104AF0000E94250661E08EE00E94250680919502C5
:104B0000882379F10E948F06009188021091890212
:104B100020918A0230918B026B017C01C01AD10A6C
:104B2000E20AF30A20916C0030E0A8EEB3E00E94A4
:104B30001F286C157D058E059F0598F460E081E0C7
:104B40000E94250680918F02826080938F020E94CE
:104B50008F06609388027093890280938A029093F3
:104B60008B020E948607882309F4E9CB0E94341146
:104B7000E6CB81E0809390029BCF809179008738CB
:104B800009F450C108F070C0833809F4E6C090F40D
:104B9000813809F4BBC008F0D5C0803809F49AC048
:104BA000809179008D7F843809F48ECFEFEFE09308
:104BB00079008ACF853809F430C108F4F1C000913A
:104BC0009E0210919F020115110519F560919A023C
:104BD00070919B02611522E07207D8F480919902CE
:104BE0008032B8F490916D00911113C095E0660F7A
:104BF000771F9A95E1F7682B90E080E029E0660F37
:104C0000771F881F991F2A95D1F70E94110E809354
:104C10006D0080916D0081111EC0302F3F71F32E09
:104C200030939802311110C0CE0101960E94410DBF
:104C3000998190938C02903208F4F2C080936D00B9
:104C400080916D00811107C0EF2DF0E0EE5FFC4F09
:104C500080818093A0020F3F41E0140708F4B1C0A7
:104C60005FEF50937900ADC0803A09F4EAC020F5B7
:104C7000893809F4DFC008F4D8C08A3809F090CF29
:104C800080919302882309F491CF80E20E949105DC
:104C900082E190E00E94DA080E948E0580E20E9484
:104CA000910561E070E080E290E00E9455110E9461
:104CB000AE05887F816043C0823A09F4C2C008F41F
:104CC000E2C0833A09F4DFC08E3F09F069CF8091DA
:104CD000A70235C08DE00E94FC05182F8093980232
:104CE00062E08DE00E9453068DE00E94FC0521E009
:104CF000892B09F020E02093A00261E08DE00E9462
:104D00005306612F8DE00E9425064ACF80919D02B7
:104D1000882309F44BCF80E20E94910582E190E064
:104D20000E94DA080E948E0580E20E94910561E0EF
:104D300070E080E290E00E9455110E94AE058093E1
:104D4000A0022ECF80919D02882309F42FCF80E20C
:104D50000E94910583E190E0E3CF00918E0210E084
:104D6000000F111FF0908D028FE493E00E947F07E7
:104D700034E0181619060CF030E08091900228E01B
:104D8000811101C020E080919402E0E18E9FC0017A
:104D90001124082B0F29032B022B0093A00200CF14
:104DA00080918E028823A9F100919E0210919F02AA
:104DB0000115110569F40E9499118091D002809328
:104DC000A0020F5F1F4F10939F0200939E02E8CE38
:104DD00007301105F0F48091AA020430110579F32F
:104DE00068F48091CE020230110549F38091AB0244
:104DF0000330110521F38091CF02E1CF8091A90208
:104E000005301105E1F28091A80206301105B9F2D2
:104E1000F2CFFFEFF0937900C3CE80916D008FCF7A
:104E200083E10CCF0E94F30A8ACF8FE493E00E94C3
:104E30004F0785CF80918F028093A00210928F023E
:104E4000AFCE93E09093A00290919102992309F440
:104E5000A7CE1092A00211E0803A09F410E0812F51
:104E60000E940314882329F08091A002816080931E
:104E7000A002812F0E94EE13882309F491CE809125
:104E8000A00282605CCF9AE19093A002909191027F
:104E9000992309F485CE11E0813A09F410E0812FBD
:104EA0000E9403148823D9F360E0812F0E947813B5
:104EB000182F8091A702823048F089EF98E00E9475
:104EC000FD0760E170E0812F0E9419131093A0028A
:104ED00067CE61E081E00E9425064BCA8CED80938D
:104EE00084028AE090E00E94E115809384020C9491
:104EF000821D109198020C94441F6DE08FE493E0A2
:104F00000E94B1070C94EF1D88EB94E00E941F15DE
:104F10008EEB94E00C941F151F93FC0199278827B2
:104F2000BC01E89411911032E9F3193010F01E30F1
:104F3000C8F31B3251F01D3249F4689406C00E9438
:104F4000B327610F711D811D911D119110531A30EE
:104F5000B0F33EF490958095709561957F4F8F4F9B
:104F60009F4F1F910895592F482F372F262F660FD7
:104F7000771F881F991F660F771F881F991F620F61
:104F8000731F841F951F660F771F881F991F089531
:104F9000E199FECF9FBB8EBBE09A99278DB3089510
:104FA000262FE199FECF9FBB8EBB2DBB0FB6F89489
:104FB000E29AE19A0FBE019608950E941F28A59FCC
:104FC000900DB49F900DA49F800D911D1124089504
:104FD0002F923F924F925F926F927F928F929F9209
:104FE000AF92BF92CF92DF92EF92FF920F931F93F7
:104FF000CF93DF93CDB7DEB7CA1BDB0B0FB6F894A8
:10500000DEBF0FBECDBF09942A88398848885F84E7
:105010006E847D848C849B84AA84B984C884DF8058
:10502000EE80FD800C811B81AA81B981CE0FD11D3C
:105030000FB6F894DEBF0FBECDBFED010895A29F5D
:10504000B001B39FC001A39F700D811D1124911D5C
:10505000B29F700D811D1124911D0895991B79E057
:1050600004C0991F961708F0961B881F7A95C9F7F8
:1050700080950895A1E21A2EAA1BBB1BFD010DC04D
:10508000AA1FBB1FEE1FFF1FA217B307E407F507F8
:1050900020F0A21BB30BE40BF50B661F771F881FD4
:1050A000991F1A9469F760957095809590959B016A
:1050B000AC01BD01CF010895EE0FFF1F0590F491E3
:1050C000E02D09940F931F93CF93DF9382309105C6
:1050D00010F482E090E0E091C604F091C70430E063
:1050E00020E0B0E0A0E0309799F42115310509F4F3
:1050F0004AC0281B390B24303105D8F58A819B81A1
:105100006115710589F1FB0193838283FE0111C052
:10511000408151810281138148175907E0F04817F7
:10512000590799F4109761F012960C931297139601
:105130001C933296CF01DF91CF911F910F9108956B
:105140000093C6041093C704F4CF2115310551F024
:105150004217530738F0A901DB019A01BD01DF01B5
:10516000F801C1CFEF01F9CF9093C7048093C60433
:10517000CDCFFE01E20FF31F8193919322503109AD
:1051800039832883D7CF2091C4043091C504232BC1
:1051900041F420917C0030917D003093C504209330
:1051A000C40420917A0030917B002115310541F42F
:1051B0002DB73EB740917E0050917F00241B350BE8
:1051C000E091C404F091C504E217F307A0F42E1B8C
:1051D0003F0B2817390778F0AC014E5F5F4F24175B
:1051E000350748F04E0F5F1F5093C5044093C40429
:1051F000819391939FCFF0E0E0E09CCFCF93DF933A
:105200000097E9F0FC01329713821282A091C60444
:10521000B091C704ED0130E020E01097A1F42081A7
:105220003181820F931F2091C4043091C504281747
:10523000390709F061C0F093C504E093C404DF911D
:10524000CF910895EA01CE17DF07E8F54A815B8127
:105250009E0141155105B1F7E901FB83EA834991AC
:105260005991C40FD51FEC17FD0761F4808191811E
:105270000296840F951FE901998388838281938127
:105280009B838A83F0E0E0E012968D919C911397C6
:105290000097B9F52D913C911197CD010296820F9F
:1052A000931F2091C4043091C5042817390739F69B
:1052B000309751F51092C7041092C604B093C504FC
:1052C000A093C404BCCFD383C28340815181840F97
:1052D000951FC817D90761F44E5F5F4F8881998188
:1052E000480F591F518340838A819B819383828316
:1052F0002115310509F0B0CFF093C704E093C6043F
:105300009ECFFD01DC01C0CF13821282D7CFB0E067
:10531000A0E0EDE8F9E20C94EA278C01009751F443
:10532000CB010E9462288C01C801CDB7DEB7E0E155
:105330000C940628FC01E60FF71F9C01225031094E
:10534000E217F30708F49DC0D901CD91DC911197C4
:10535000C617D70798F0C530D10530F3CE010497B2
:105360008617970708F3C61BD70B2297C193D193D3
:105370006D937C93CF010E94FE28D6CF5B01AC1ABF
:10538000BD0A4C018C0E9D1EA091C604B091C704AD
:10539000512C412CF12CE12C109731F58091C40453
:1053A0009091C5048815990509F05CC0461657060A
:1053B00008F058C080917A0090917B00009741F4EA
:1053C0008DB79EB740917E0050917F00841B950B56
:1053D000E817F90708F055C0F093C504E093C4043A
:1053E000F90171836083A0CF8D919C9111971296E2
:1053F0006C90129713967C901397A815B90559F5E0
:105400006C0142E0C40ED11CCA14DB0420F1AC01D3
:105410004A195B09DA011296159780F0628273824D
:1054200051834083D9016D937C93E114F10471F0B1
:10543000D7011396FC93EE93129776CF22968C0F9A
:105440009D1FF90191838083F301EFCFF093C7048F
:10545000E093C60469CF4816590608F42C017D0173
:10546000D3019ACFCB010E9462287C01009749F0BA
:10547000AE01B8010E94442AC8010E94FE2887019B
:1054800053CF10E000E050CFFB01DC0102C00190DF
:105490000D9241505040D8F70895FB01DC01019076
:1054A0000D920020E1F7089515E0CEE0D5E004C0AC
:1054B000FE010E945C282196CF30D107C9F7F894ED
:1054C000FFCF4453784E414D2E44415400016413A4
:1054D0004453784E79792E44534B00FF0000C804A2
:1054E00080005248520049455200494952004C43FD
:1054F00052004D4352004C5352004D5352005350F2
:10550000520054584C0052584C00494F4400494FE7
:105510005300494F490072657300494F43004546A7
:1055200043005448520049455200464352004C4300
:1055300052004D4352002D2D2D0054435200535024
:1055400052002D2D2D002D2D2D00494F4400494F87
:105550005300494F490072657300494F4300454667
:1055600043001F1C1F1E1F1E1F1F1E1F1E1F580231
:10557000B0046009C0128025004B8070009600E1E5
:1055800000000000320000004B0000006E00000030
:1055900086000000960000002C0100005802000068
:1055A000B00400000807000060090000100E0000B1
:1055B000C0120000201C000080250000004B0000ED
:1055C00040380000807000000096000000E10000FC
:1055D00000C2010000000000B10722074F071808B1
:1055E0007F075E07710700000000AB087E084309D3
:1055F000670877089B0568084469736B20536574D6
:10560000200020280029002F003A000D0A00313721
:105610003A30313A3339004A616E20313520323028
:1056200032350031300043004F4E00424153494370
:1056300034372E42494E00464F52544831332E42A1
:10564000494E0043504D32322E42494E0051504D8A
:105650004C44522E42494E0043504D4C44522E432E
:105660004F4D00554353444C44522E42494E004343
:105670004F532E42494E0046555A49582E42494EE4
:0E568000004155544F424F4F542E42494E00A8
:107E800011248FE598E09EBF8DBF24B614BE80E01C
:107E90007AD021FEDDC08EE076D0AFE7BFEF8099CB
:107EA000FECF9096809BFDCFB9B91197F1F782E094
:107EB0008BB988E18AB957D0C82F823559F467D079
:107EC000E0E8FEE7E058F109A89583E085D0309717
:107ED000C9F742C08D7F09F551D0D82F182F80E601
:107EE000E82EF12C40D0D7018D937D011150D1F7B0
:107EF0004ED0C1110EC0A0E6B0E0E199FECFFFBBAD
:107F0000EEBB8D918DBBE29AE19A3196D150A9F7E3
:107F100023C0A0E6B0E045D01FC0C33041F42ED04E
:107F2000C82F35D085911BD0C150E1F715C0C130A5
:107F300071F424D0C82F2BD0E199FECFFFBBEEBB4C
:107F4000E09A8DB30CD03196C150B1F705C0C13560
:107F500011F488E018D01BD08AE301D0ACCF5D9B30
:107F6000FECF8CB90895C09AB89A8BB187FFFDCF28
:107F700084FD10C0A8958CB1C0980895F4DFE82F57
:107F8000F2DFF82FF0CF98E191BD81BD0895EBDFCE
:107F9000803219F088E0F7DFFFCF80EAE0CFFB0105
:107FA000DC0160E86A0F9F01E0388EE7F807C8F44B
:107FB00083E012D0309629F48FE38D938FEC8C936D
:107FC000119781E00D901D9007D03296A613FACF3D
:107FD000F90185E001D081E187BFE89507B600FC93
:067FE000FDCF11240895FD
:067FFA000314D0CFE73FA5
:00000001FF
