:020000040000FA
:100000000C94FC040C9424050C9424050C942405F5
:100010000C9424050C9424050C9424050C942405BC
:100020000C9424050C9424050C9424050C941816A7
:100030000C9424050C9488160C9462160C942405D8
:100040000C9424050C9424050C9424050C94B916E6
:100050000C9424053110FD2152FDCDC6FECD3EFF8E
:10006000CDF4FD3EFFBC2010BD200D21D9FDCDC635
:10007000FE2188FDCDC6FE76E521D9FDCDC6FE2147
:1000800075FDCDC6FEE1CD4BFFCD3EFFCD3EFFDB86
:1000900001FEFF20FAE9694C6F6164202D20496E52
:1000A00074656C2D486578204C6F61646572202DF5
:1000B0002053323030373138005374617274696EB6
:1000C0006720416464726573733A20004C6F616409
:1000D000206572726F72202D2053797374656D20C4
:1000E00068616C7465640057616974696E67206942
:1000F0006E7075742073747265616D2E2E2E0053B0
:10010000796E746178206572726F72210043686540
:10011000636B73756D206572726F722100694C6F2D
:1001200061643A2000416464726573732076696F7C
:100130006C6174696F6E2100F5D5C501FFFF21A3C5
:10014000FDCDC6FECD3EFFCD72FFFE0D28F9FE0AA5
:1001500028F5FE2028F1CD1AFFCD69FFFE3AC2A393
:10016000FECDE1FE571E00CDBEFECDD6FE3EFFB851
:100170002005B92002444D7CCDBEFE7DCDBEFECD16
:10018000E1FECDBEFEFE01201ECDE1FECDBEFE7B1A
:10019000A72866CD3EFF21D9FDCDC6FE21C9FDCDE4
:1001A000C6FE01FFFF18527AA7282CCDE1FECDBE76
:1001B000FEE5C5A701F0FCED42C1E1DA8EFECD3EC1
:1001C000FF21D9FDCDC6FE21E1FDCDC6FE01FFFF19
:1001D000182777231518D0CDE1FECDBEFE7BA720D2
:1001E000B2CD3EFFC303FECD3EFF21D9FDCDC6FEFD
:1001F00021BBFDCDC6FE01FFFFCD3EFF6069C1D131
:10020000F1C9C54F7B915F79C1C9F5E57EFE002834
:1002100006CD69FF2318F5E1F1C9F5CDE1FE67CD03
:10022000E1FE6FF1C9C5CDF4FECB07CB07CB07CB01
:100230000747CDF4FEB0C1C9CD72FFCD1AFFCD0680
:10024000FF30F5CD23FFCD2EFFC9FE47D0FE303065
:10025000023FC9FE3AD8FE4130023FC937C9FE61AC
:10026000D8FE7BD0E65FC9FE3A3802D607D630E624
:100270000FC9F5E60FC630FE3A3802C607CD69FF52
:10028000F1C9F53E0DCD69FF3E0ACD69FFF1C9E523
:10029000F57CCD58FF7DCD58FFF1E1C9F5C5470F7D
:1002A0000F0F0FCD2EFF78CD2EFFC1F1C9F53E0106
:1002B000D301F1D300C9DB01FEFFCA72FFC9494F68
:1002C000533A20436865636B20534420616E642079
:1002D00070726573732061206B657920746F207272
:1002E00065706561740D0A00202D2046696C653AC1
:1002F0002000206F7065726174696F6E0052454115
:1003000044004F50454E004D4F554E5400206F6EE7
:100310002000554E4B4E4F574E004E4F5F46494CB6
:100320004553595354454D004E4F545F454E41423D
:100330004C4544004E4F545F4F50454E4544004E8F
:100340004F5F46494C45004E4F545F52454144591A
:10035000004449534B5F455252000D0A494F533AEE
:10036000205344206572726F7220003F3F53494F03
:100370003A2041637475616C2062617564726174C6
:10038000653A20003F3F53494F3A2043616C637503
:100390006C617465642064697669736F723A2000D9
:1003A0003F3F53494F3A2044657369726564206248
:1003B000617564726174653A200029207265733D2D
:1003C00030780020280020616464723D3078003F5E
:1003D0003F3F3F53494F3A20526561645265676918
:1003E0007374657220636800292076616C3D3078F3
:1003F0000020280020616464723D3078003F3F3F58
:100400003F53494F3A205772697465526567697363
:1004100074657220636800494F533A205254432058
:1004200073657420617420636F6D70696C652074EE
:10043000696D65202D204E6F773A2000293F205BA3
:10044000592F4E5D203E000A446F20796F7520774A
:10045000616E742073657420525443206174204986
:100460004F5320636F6D70696C652074696D6520F2
:100470002800494F533A2052544320636C6F636BFA
:10048000206661696C7572652100494F533A2052AC
:100490005443204453333233312074656D70657298
:1004A00061747572652073656E736F723A200049CE
:1004B0004F533A20466F756E642052544320445384
:1004C00033323331204D6F64756C652028000D0A7E
:1004D000507265737320435220746F2061636365AB
:1004E00070742C2045534320746F20657869742004
:1004F0006F7220616E79206F74686572206B657908
:1005000020746F206368616E676500494F533A201D
:1005100052544320646174652F74696D6520757051
:100520006461746564202800202E2E2E646F6E6531
:100530002020202020200A005365636F6E64732002
:100540002D3E20004D696E75746573202D3E200090
:10055000486F757273202D3E200020446179202D54
:100560003E2000202020202020202020202020208D
:10057000004D6F6E7468202D3E2000596561722019
:100580002D3E200020000A507265737320542F55B1
:1005900020746F20696E6372656D656E74202B31F7
:1005A000302F2B31206F7220435220746F206163F3
:1005B00063657074000A494F533A20525443206DCA
:1005C000616E75616C2073657474696E673A004979
:1005D0004F533A205A38302069732072756E6E6915
:1005E0006E672066726F6D206E6F770020446F6EAD
:1005F0006500494F533A204C6F6164696E67206211
:100600006F6F742070726F6772616D2E2E2E0029CD
:100610002E2E2E00494F533A204C6F6164696E674D
:1006200020626F6F742070726F6772616D20280096
:100630005400494F533A2043757272656E7420001E
:100640004368616E676564207370656564207769CF
:100650006C6C2062652065666665637469766520EA
:100660006166746572206E657874207265626F6F62
:1006700074210D0A0A002020200D000D202D3E00BF
:10068000202020202020202020202020202020206A
:10069000200D000D202D3E003F566572626F73697C
:1006A0007479206C6576656C200020204F6B0045C6
:1006B0006E74657220796F75722063686F69636507
:1006C000203E200020393A205365742052544320A4
:1006D00074696D652F646174650020383A20536534
:1006E000742073657269616C20706F72742073700E
:1006F0006565642028004F46460020373A20546F35
:1007000067676C652043502F4D204175746F657885
:10071000656320282D3E004D487A290020363A2076
:100720004368616E6765205A383020636C6F636B75
:1007300020737065656420282D3E0020353A2069BD
:100740004C6F6164000D0A20343A204175746F6269
:100750006F6F740020333A204C6F61642F7365749F
:10076000204F53200020323A20466F7274680020D8
:10077000313A2042617369630020303A204E6F2085
:100780006368616E6765202800494F533A205365BE
:100790006C65637420626F6F74206D6F6465206F89
:1007A000722073797374656D20706172616D657408
:1007B0006572733A004F4646004F4E00494F533A18
:1007C0002043502F4D204175746F65786563206913
:1007D000732000494F533A20466F756E6420534989
:1007E0004F41202F2053494F42204F7074696F6E44
:1007F00000494F533A20466F756E6420475045209C
:100800004F7074696F6E004D487A00494F533A201B
:100810005A383020636C6F636B2073657420617489
:100820002000494F533A20466F756E6420657874F6
:10083000656E6465642073657269616C205278200E
:10084000627566666572000D0A0A5A38302D4D428F
:100850004332202D20413034303631380D0A494F93
:1008600053202D20492F4F2053756273797374657F
:100870006D202D20533232303731382D52323930FD
:100880003832332D443136303132350D0A003F3F96
:100890003F53494F3A205772697465427974652015
:1008A0003078003F3F3F53494F3A205265616442E0
:1008B000797465203078003F3F3F53494F3A2052CA
:1008C00078204649464F204C6576656C3A20003FBB
:1008D0003F3F53494F3A205478204649464F2053D2
:1008E000706163653A2000202D20696E76616C6925
:1008F000642062617564207261746520696E64654C
:1009000078003F3F53494F42003F3F53494F41001A
:10091000202D2062617564726174653A2000207335
:10092000657420636F6E74726F6C3A2030780000CB
:10093000003A0037003400310000003B0038003539
:10094000003200000039003600330030000202029D
:100950000202020202040404040404040403030364
:100960000303030303010101010101010101020469
:100970000810204080010204081020408001020479
:100980000810204080010204081020408000000070
:100990000200000000000000000504000700000045
:1009A000000000000000000000000000003F53496C
:1009B0004F3A204C43522052656769737465723A0E
:1009C0003078000D0A0A494F533A2042617564207D
:1009D0007265636F7665727920646F6E65202D2075
:1009E000506C65617365207265626F6F74206E6F05
:1009F0007721000031180D2711241FBECFE5D8E064
:100A0000DEBFCDBF24E0A0E3B2E001C01D92AF3C49
:100A1000B207E1F712E0A0E6B0E0E4EDF3E502C0D2
:100A200005900D92A033B107D9F714E0CBEFD4E0D5
:100A300004C02197FE010E94E527CA3FD107C9F7EC
:100A40000E9485180C94DD290C940000282F9091A9
:100A5000040381E0913208F03FC08091E0028111EF
:100A6000FCCF8091030332E03093E0022093DF0259
:100A70002FEF2093DE0223EE32E03093DD0220934D
:100A8000DC021092DB029093DA021092D90290916C
:100A9000D902880F892B8093D9028091D8028130A6
:100AA00011F51092D8028091D90283B906B603FCE1
:100AB000FACF85EC86BF8091E0028230E1F380912D
:100AC000DE028F3F91F08091DE02803281F08091D2
:100AD000DE02803371F084E01092E202109204038F
:100AE0001092E102089585EEE5CF80E0F5CF82E037
:100AF000F3CF83E0F1CF81E00C94260591E0909351
:100B0000E102809303031092E2021092040308951D
:100B10009091D4028091D3022FEF3FEF981748F4C1
:100B2000E92FF0E0ED54FD4F208130E09F5F90937E
:100B3000D402C90108959091D4028091D3022FEF7D
:100B40003FEF981748F4E92FF0E0ED54FD4F208176
:100B500030E09F5F9093D402C90108952091C304AF
:100B60003091C4048217930760F42091BF04309140
:100B7000C0042115310529F0280F391FF9018081A2
:100B8000089580E0089583E090E00197F1F70895DB
:100B9000843059F028F4813099F0823089F008953A
:100BA000853039F0873041F008958FB58F778FBD4C
:100BB00008958FB58F7DFBCF85B58F7D85BD089559
:100BC00083B78F7D83BF0895CF93DF93282F30E0C5
:100BD000F901E357F64F8491F901E359F64FD491A7
:100BE000F901E35BF64FC491CC23A1F081110E947F
:100BF000C805EC2FF0E0EE0FFF1FED5BF64FA5915F
:100C0000B491EC91ED2381E090E009F480E0DF9174
:100C1000CF91089580E090E0FACF1F93CF93DF93B8
:100C2000282F30E0F901E357F64F8491F901E35999
:100C3000F64FD491F901E35BF64FC491CC23A9F0B0
:100C4000162F81110E94C805EC2FF0E0EE0FFF1F58
:100C5000E75CF64FA591B4918FB7F894EC91111120
:100C600008C0D095DE23DC938FBFDF91CF911F9119
:100C70000895DE2BF8CFCF93DF9390E0FC01E3598A
:100C8000F64F2491835B964FFC0184918823C9F031
:100C900090E0880F991FFC01E15DF64FA591B4919A
:100CA000FC01E75CF64FC591D49161110DC09FB76F
:100CB000F8948C91209582238C9388812823288313
:100CC0009FBFDF91CF910895623051F49FB7F894A0
:100CD0003C91822F809583238C93E8812E2BEFCF3C
:100CE0008FB7F894EC912E2B2C938FBFEACF3FB7A0
:100CF000F8948091AA029091AB02A091AC02B091BD
:100D0000AD0222B708B600FE05C02F3F19F00196CC
:100D1000A11DB11D3FBFBA2FA92F982F8827BC0155
:100D2000CD01620F711D811D911D42E0660F771F7D
:100D3000881F991F4A95D1F708958F929F92AF927D
:100D4000BF92CF92DF92EF92FF924B015C010E9423
:100D500077066B017C010E9477066C197D098E096C
:100D60009F09683E734081059105A8F321E0821A2E
:100D70009108A108B10888EEC80E83E0D81EE11CD6
:100D8000F11C81149104A104B10429F7FF90EF90A4
:100D9000DF90CF90BF90AF909F908F9008952FB726
:100DA000F8946091A6027091A7028091A802909198
:100DB000A9022FBF089508950895AF92BF92CF92D0
:100DC000DF92EF92FF920F931F93CF93DF936C010B
:100DD0007B018B01040F151FEB015E01AE18BF08EC
:100DE000C017D10759F06991D601ED91FC9101909E
:100DF000F081E02DC6010995892B79F7C501DF91B6
:100E0000CF911F910F91FF90EF90DF90CF90BF9007
:100E1000AF900895FC01538D448D252F30E0842F31
:100E200090E0821B930B541710F0CF960895019712
:100E30000895FC01918D828D981759F0A28DAE0F07
:100E4000BF2FB11D5D968C91928D9F5F928F90E028
:100E500008958FEF9FEF0895FC01918D828D981773
:100E600031F0828DE80FF11D858D90E008958FEFB0
:100E70009FEF0895FC01918D828D981B892F90E042
:100E8000089586E593E00E943A0721E0892B09F452
:100E900020E0822F0895FC01A48DA80FB92FB11D69
:100EA000A35EBE4F2C91848D90E001968F7399279D
:100EB000848FA689B7892C93A089B1898C9182747B
:100EC0008C93938D848D981306C00288F389E02D4E
:100ED00080818F7D80830895EF92FF920F931F93FF
:100EE000CF93DF93EC0181E0888F9B8D8C8D9813DD
:100EF00019C0E889F989808185FF14C09FB7F894EB
:100F0000EE89FF896083E889F98980818274808312
:100F10009FBF81E090E0DF91CF911F910F91FF90F3
:100F2000EF900895F62E0B8D10E00F5F1F4F0F739B
:100F30001127E02E8C8D8E110CC00FB607FCFACF56
:100F4000E889F989808185FFF5CFCE010E944B07A2
:100F5000F1CFEB8DEC0FFD2FF11DE35EFE4FF08224
:100F60009FB7F8940B8FEA89FB8980818062CFCF8D
:100F70000F931F93CF93DF938C01D0E0C0E0F80173
:100F8000EC0FFD1F6491662341F086E593E00E941B
:100F90006C07892B11F02196F2CFCE01DF91CF9112
:100FA0001F910F910895CF93DF93EC01888D8823D3
:100FB000B9F0AA89BB89E889F9898C9185FD03C0BC
:100FC000808186FD0DC00FB607FCF7CF8C9185FFA1
:100FD000F2CF808185FFEDCFCE010E944B07E9CF94
:100FE000DF91CF91089585ED86BF06B604FCFDCF55
:100FF0001092E002089520915602260F3327331FE6
:1010000021323105ECF42091E002FC0190E080E017
:10101000243069F082E00895A09156022191AC013C
:101020004A5C5D4FA40FB52FB11D2C930196861716
:1010300098F380915602680F6093560280E00895FD
:1010400081E008950895E091D4028091D302E817D9
:1010500030F4F0E0ED54FD4F808190E008958FEF83
:101060009FEF08958091D3029091D402891B990B30
:101070000895CF92DF92EF92FF920F931F93CF9339
:10108000DF937C01CB018A012091E102222389F0C8
:10109000EB016B01C40ED51ECC15DD0569F069911D
:1010A000D701ED91FC910190F081E02DC7010995E8
:1010B000F3CF642F0E94FB07C801DF91CF911F91EE
:1010C0000F91FF90EF90DF90CF900895CF93DF9333
:1010D0001F92CDB7DEB769832091E1022223F9F098
:1010E00020910403203258F021E030E0FC013383EA
:1010F000228390E080E00F90DF91CF91089580915E
:10110000E202E82FF0E0ED51FD4F998190838F5F6F
:101110008093E2028093040381E090E0ECCF61E0F1
:10112000CE0101960E94FB07F7CF682F83EB94E076
:101130000C9466080F931F93CF93DF93082F162FFD
:10114000D42F88E60E947E0590E080E00E949508FA
:101150008091D702CAE06C2F0E94B7278295807FCA
:10116000682F690F83EB94E00E9466088091D60295
:101170006C2F0E94B7278295807F682F690F83EBC1
:1011800094E00E9466088091D5026C2F0E94B727D8
:101190008295807F682F690F83EB94E00E94660838
:1011A00081E090E00E949508802F6C2F0E94B72765
:1011B0008295807F682F690F83EB94E00E94660818
:1011C000812F6C2F0E94B7278295807F682F690F2F
:1011D00083EB94E00E9466088D2F6C2F0E94B72746
:1011E0008295807F682F690F83EB94E00E946608E8
:1011F000DF91CF911F910F910C947B0590E080E0DF
:1012000008950F931F93E0915403F09155039B01B0
:10121000AC01225031094109510986819781A0858D
:10122000B1850297A109B109281739074A075B0759
:1012300078F4A281B0E00E9466270289138924898C
:101240003589600F711F821F931F1F910F910895A1
:1012500060E070E0CB01F9CF0F931F93CF93DF9342
:10126000EC01E0915403F0915503198218826C81CE
:101270007D818E819F81613071058105910581F1AC
:1012800006811781208531856017710782079307D2
:1012900038F5611571058105910539F420812330F8
:1012A00021F46685778580899189688779878A871F
:1012B0009B87611571058105910569F00E940109FF
:1012C0006C877D878E879F8790E080E0DF91CF914C
:1012D0001F910F9108956685778580899189F0CF58
:1012E00081E090E0F3CF8FB9779BFECF08958FEF29
:1012F0000E9473098FB108950F931F93CF93DF93CB
:10130000C0918A02D0918B022197CD3F8FEFD807F1
:1013100021F080E00E947309F7CF0E9477098F7156
:10132000853079F0D1E0C0E061E084E00E940D06F4
:101330000E9477098D2F9C2FDF91CF911F910F91E4
:10134000089508E813E1C0E9D1E00E9477098F3FD2
:1013500049F00115110531F3CE010197F1F7015064
:101360001109F3CFD1E0C0E0012BF1F2D0E0DCCFE6
:10137000FF920F931F93CF93DF93C82FD42F152F76
:10138000062FF72E8091290381113FC083E58DB987
:101390001EB8C7FF09C040E050E0BA0187E70E94CD
:1013A000B809823060F5CF7761E084E00E940D06D5
:1013B0000E94770960E084E00E940D060E94770990
:1013C0008C2F0E9473098F2D0E947309802F0E9419
:1013D0007309812F0E9473098D2F0E94730985E97B
:1013E000C03421F087E8C83409F081E00E94730915
:1013F000CAE00E94770987FF02C0C150D1F7DF9190
:10140000CF911F910F91FF90089580E58DB981E0F4
:101410008EB9BFCFCF92DF92EF92FF920F931F93BF
:10142000CF93DF937C0169018091290383FD07C07D
:1014300089E0440F551F661F771F8A95D1F781E514
:101440000E94B809811108C0C0E4DCE90E94770954
:101450008F3F29F42197D1F7C1E0D0E022C08E3F21
:10146000D9F7C2E0D2E0C01BD10BCC19DD0981E075
:10147000C81AD10818F00E947709F9CFE114F104D5
:1014800001F10E0D1F1D0E947709F70181937F0165
:101490000E171F07C1F70E9477092197E1F7D0E0E7
:1014A000C0E061E084E00E940D060E947709CE0151
:1014B000DF91CF911F910F91FF90EF90DF90CF9030
:1014C00008950E94770901501109D9F7E4CFCF920E
:1014D000DF92EF92FF920F931F93CF93DF93EC0174
:1014E0006A017B0102E010E02EEF31E00E940A0A5F
:1014F000892B31F58881998185359A4A59F526E3FA
:1015000030E0B701A601CE010E940A0A892B29F416
:10151000888199818634914489F002E010E022E5C7
:1015200030E0B701A601CE010E940A0A892BA1F47E
:1015300081E0288139812634314419F480E001C0EA
:1015400083E0DF91CF911F910F91FF90EF90DF909B
:10155000CF90089582E0F5CF81E0F3CF4F925F9274
:101560006F927F928F929F92AF92BF92CF92DF92B3
:10157000EF92FF920F931F93CF93DF93CDB7DEB718
:10158000A4970FB6F894DEBF0FBECDBF10925503DF
:101590001092540380912903882339F084E00E943B
:1015A000E405892B11F40E947C0961E084E00E942B
:1015B0000D0661E084E00E943B0661E085E00E9448
:1015C0003B0661E087E00E943B0661E084E00E9408
:1015D0003B0683E58DB91EB861E084E00E940D06EC
:1015E0001AE00E9477091150E1F740E050E0BA019B
:1015F00080E40E94B809182F813009F441C010E03E
:101600001093290361E084E00E940D060E9477098F
:1016100082E090E01123E9F040E050E0BA01CE0111
:1016200001960E94670AC12CD12C7601813009F005
:1016300096C000E110E02EEB31E040E050E0BA014E
:10164000CE0101960E940A0A892B09F478C081E034
:1016500090E0A4960FB6F894DEBF0FBECDBFDF9129
:10166000CF911F910F91FF90EF90DF90CF90BF909F
:10167000AF909F908F907F906F905F904F90089564
:101680004AEA51E060E070E088E40E94B8098130E5
:1016900091F5CE0101967C016E0195E0C90ED11C39
:1016A00087010E947709F80181938F01CE16DF062A
:1016B000C1F78B81813009F0A2CF8C818A3A09F081
:1016C0009ECF80E1C82E87E2D82E90E9A92EBB24B8
:1016D000B39440E050E060E070E489EE0E94B80905
:1016E000882309F4C9C0C5010197F1F7F1E0CF1AC9
:1016F000D10879F784CF40E050E0BA0189EE0E942A
:10170000B80901E4823010F412E009EEA0E1EA2EFB
:10171000A7E2FA2EB0E9CB2EDD24D39440E050E0CE
:10172000BA01802F0E94B809882309F4BBC0C60102
:101730000197F1F7F1E0EF1AF10881F760CF8D81A1
:10174000811103C086E090E084CFC984DA84EB8401
:10175000FC84B701A601CE0101960E94670A83307E
:1017600009F475CF8111EECF04E210E02DE030E0F6
:10177000B701A601CE0101960E940A0A892B09F041
:1017800066CF2A853B8550E040E0211531054105B3
:10179000510521F4288D398D4A8D5B8DAC81B0E0E7
:1017A0000E9466274B015C014A815B8170E060E02A
:1017B000C40ED51EE61EF71EC0923403D092350328
:1017C000E0923603F0923703E981E0932C038D8198
:1017D0009E8190932F0380932E030F81188530E014
:1017E00020E0011511052105310521F40C891D8921
:1017F0002E893F89F4E096958795FA95E1F72C01BB
:10180000712C612C041B150B260B370BC901B80179
:10181000681979098A099B09641975098609970964
:101820002E2F30E050E040E00E94C327DA01C901CA
:101830000296A11DB11D8093300390933103A093B4
:101840003203B0933303265F3F40410951092F3FD4
:101850003F4E4105510588F1873F9F4FA105B105D6
:1018600088F570CF82E080932A03D501C4018C0DE6
:101870009D1DAE1DBF1D2DC040E050E0BA018AE79E
:101880000E94B8098111BBCE0E947709F7018193AC
:101890007F010E171F07C1F789811CE086FDB0CEBE
:1018A00014E0AECE40E052E060E070E080E50E94DF
:1018B000B809882309F4A4CEA2CE873F9F4FA10583
:1018C000B10580F283E080932A0388A199A1AAA19F
:1018D000BBA18093380390933903A0933A03B0934C
:1018E0003B03C40CD51CE61CF71C8C0C9D1CAE1CC9
:1018F000BF1C80923C0390923D03A0923E03B092A5
:101900003F0310922B038AE293E090935503809358
:10191000540390E080E09DCE0F931F93CF93DF930D
:1019200000D000D0CDB7DEB76230710581059105DA
:1019300028F461E070E080E090E055C0E09154034D
:10194000F091550306811781208531856017710755
:101950008207930770F7AB01BC018081823031F1BF
:10196000833039F79A012F773327220F331F220F45
:10197000331F97E076956795579547959A95D1F7D8
:1019800082859385A485B585480F591F6A1F7B1FE3
:1019900004E010E0CE0101960E940A0A892B49F664
:1019A00069817A818B819C819F701DC09A01332748
:1019B000220F331F452F562F672F77278285938558
:1019C000A485B585480F591F6A1F7B1F02E010E0F0
:1019D000CE0101960E940A0A892B09F0AACF6981DB
:1019E0007A8190E080E00F900F900F900F90DF9140
:1019F000CF911F910F9108956F927F928F929F9236
:101A0000AF92BF92CF92DF92EF92FF920F931F930C
:101A1000CF93DF93C0915403D0915503FC01118201
:101A20001082209709F4AFC0298120FFAFC00A8D32
:101A30001B8D2C8D3D8D4E895F89688D798D680158
:101A40007901C41AD50AE60AF70AB701A60140329D
:101A500051056105710520F040E250E060E070E062
:101A60005C017A0139E0832E33E0932E612C42E051
:101A7000742EE114F10409F48CC08E899F89A88D1D
:101A8000B98DAC01BD01517066277727452B462BD8
:101A9000472B09F04AC0DA80DA94AC01BD0129E095
:101AA00076956795579547952A95D1F7D42251F5A4
:101AB000892B8A2B8B2BD9F46E8D7F8D88A199A1D0
:101AC0006230710581059105C8F4198281E090E0CA
:101AD000DF91CF911F910F91FF90EF90DF90CF900A
:101AE000BF90AF909F908F907F906F9008956AA164
:101AF0007BA18CA19DA10E948C0CE2CF6AA37BA349
:101B00008CA39DA36AA17BA18CA19DA10E94010928
:101B10006115710581059105C1F26D0D711D811D64
:101B2000911D6EA37FA388A799A72E893F89317045
:101B3000C301821B930B67018E159F0508F46C018E
:101B40004EA15FA168A579A58601C4010E940A0A79
:101B5000892B09F0BACF8E899F89A88DB98D8C0DFC
:101B60009D1DA11DB11D8E8B9F8BA88FB98F8C0CD5
:101B70009D1CEC18FD08F50180819181C80ED91ECD
:101B8000D182C08276CF85E090E0A2CF84E090E061
:101B90009FCF90E080E09CCF4F925F926F927F92B8
:101BA0008F929F92AF92BF92CF92DF92EF92FF926D
:101BB000CF93DF9300D000D000D0CDB7DEB7209117
:101BC0005403309155033E832D832115310509F4CB
:101BD0000CC1D90111962C91119720FF09C15A9679
:101BE000CD90DD90ED90FC905D976C157D058E0598
:101BF0009F0510F46B017C01ED81FE8146885788BA
:101C0000608C718C168A178A108E118EC114D104C3
:101C1000E104F10409F4E6C08280912CB12CA12CDE
:101C200039E0880C991CAA1CBB1C3A95D1F74114C9
:101C300051046104710409F470C0B1E04B1A5108F9
:101C400061087108C701B6016150710981099109E4
:101C5000A50194010E94C32729833A834B835C83A7
:101C6000C301B201A50194010E94C32789819A8111
:101C7000AB81BC8182179307A407B50708F44DC058
:101C800088279927DC0188199909AA09BB098421A9
:101C90009521A621B721ED81FE81868B978BA08FA0
:101CA000B18FC81AD90AEA0AFB0A62A173A184A1FA
:101CB00095A18C149D04AE04BF0408F058C00E9486
:101CC0008C0C623071058105910568F0AD81BE8193
:101CD00016964D905D906D907C90199764157505E2
:101CE0008605970540F1ED81FE81118281E090E04B
:101CF00026960FB6F894DEBF0FBECDBFDF91CF9111
:101D0000FF90EF90DF90CF90BF90AF909F908F901B
:101D10007F906F905F904F900895AD81BE815E96E9
:101D20006D917D918D919C919197FD0162A373A31B
:101D300084A395A3BECFAD81BE8192966D937D9312
:101D40008D939C93959756964D905D906D907C9059
:101D50005997480C591C6A1C7B1CFD01468A578AFE
:101D6000608E718EC818D908EA08FB08A2CFAD8131
:101D7000BE8156968D909D90AD90BC905997C80CA1
:101D8000D91CEA1CFB1CFD01C68AD78AE08EF18EA5
:101D90000E940109AB01BC014115510561057105A6
:101DA00029F4AD81BE8111961C92A0CFED81FE81F8
:101DB00082818150990B092E000CAA0BBB0B29E0E4
:101DC000F694E794D794C7942A95D1F78C219D2156
:101DD000AE21BF21480F591F6A1F7B1F46A357A37F
:101DE00060A771A790E080E083CF85E090E080CF8E
:101DF00084E090E07DCF4F925F926F927F92BF928E
:101E0000CF92DF92EF92FF920F931F93CF93DF93C6
:101E1000CDB7DEB7EC970FB6F894DEBF0FBECDBFDF
:101E2000E0905403F0905503E114F10409F404C167
:101E3000F70111829E012F5C3F4F3CA32BA39C0115
:101E40006901F90180812F5F3F4F8032C9F38F32E2
:101E500009F469011DA21EA21FA218A6F601808125
:101E6000A0E2BA2E803208F0D4C0CE0181960E9442
:101E70002C091982009709F407C1EC960FB6F89463
:101E8000DEBF0FBECDBFDF91CF911F910F91FF90AD
:101E9000EF90DF90CF90BF907F906F905F904F90CA
:101EA000089520E0E0E088E0D1C0C30ED11C81E0BD
:101EB000913208F080E01B968C93CE0181960E94AF
:101EC0002C090097D1F629A13AA12F703327F5E00C
:101ED000220F331FFA95E1F74DA55EA56FA578A9EE
:101EE00000E210E0CE0101960E940A0A892B19F047
:101EF00081E090E0C2CF8981811103C083E090E04E
:101F0000BCCF8C8583FD13C00BA11CA19E012F5F4C
:101F10003F4FD801B801655F7F4F6A177B0709F40F
:101F2000AEC0F90141919F019D914917B1F309A1FB
:101F30001AA10F5F1F4F11F38DA59EA5AFA5B8A9DC
:101F40000097A105B105D1F298012F703327232BFB
:101F5000B9F40196A11DB11D8DA79EA7AFA7B8AB7F
:101F600069A57AA58BA59CA5F70161157105810569
:101F7000910549F4848195810817190708F0BECFAF
:101F80001AA309A3A0CF2281E22FE150FF0BAF01DA
:101F90009801E4E036952795EA95E1F72423352367
:101FA000232B71F70E948C0C62307105810591051D
:101FB00008F49ECFF70146805780608471846415D1
:101FC00075058605970508F099CF69A77AA78BA7AD
:101FD0009CA70E9401096DA77EA78FA798ABD0CFC1
:101FE00084FF8CCFF70180818330F1F48D899E8945
:101FF000B0E0A0E0DC01992788274B8D5C8D70E074
:1020000060E0842B952BA62BB72B8DA39EA3AFA3AB
:10201000B8A7ABA1BCA1FD01CD010B968E179F0700
:1020200009F43FCFB192FACF80E090E0DC01E5CF38
:1020300080E090E0DC013DC085E090E01ECF88307C
:1020400009F033CF9BE0282FE32F892F31E03E0F9B
:10205000EC0DFD2DF11D9081913208F426CF9F32B9
:1020600009F423CF9E3259F3281708F01ECFFD0143
:10207000E20FF11D9083982F81E0820FE4CFF801E9
:102080009385992309F4ACCF8981882309F436CF4D
:102090008C8584FD33CFE0915403F091550380810A
:1020A000833031F68D899E89B0E0A0E0DC0199276C
:1020B00088274B8D5C8D70E060E0842B952BA62BE0
:1020C000B72BF701868F978FA0A3B1A38D8D9E8D1F
:1020D000AF8DB8A1828F938FA48FB58F168A178A80
:1020E000108E118E81E0818390E080E0C6CECF9388
:1020F000DF93D82FC0E061E08FE00E940D0660E022
:102100008FE00E940D06CF5FDC13F5CFDF91CF91FA
:1021100008951F93CF93DF93182FD92F81E00E944A
:10212000771060E082E00E940D06CFEFCABB81E22B
:102130008BBB82E00E9477101ABACBBB82E00E9470
:102140007710CABB1BBB83E00E947710DBBB82E029
:102150000E9477101ABACBBB61E082E0DF91CF9189
:102160001F910C940D06CF93DF93D82F81E00E942E
:10217000771060E082E00E940D06CFEFCABB86E3D5
:102180008BBB82E00E9477101ABACBBB82E00E9420
:102190007710CABBDBBB82E00E9477101ABACBBBB8
:1021A00061E082E00E940D0683E00E94771081E0EA
:1021B0000E94771060E082E00E940D06CABB83E2B5
:1021C0008BBB82E00E9477101ABACBBB61E082E041
:1021D0000E940D0683E0DF91CF910C94771086E585
:1021E00093E00E943A07181619069CF480919A020F
:1021F000813079F480916B00882359F060E081E0B0
:102200000E940D0680919302816080939302109248
:102210006B0008950E94410781110C94EF100895FE
:10222000AC018091E0028111FCCF962F81E0809378
:10223000E0028093DF022FEF2093DE0223EB32E0F7
:102240003093DD022093DC021092DB022FEF260F89
:102250002093DA028093D9022091D902440F551FAE
:10226000822F842B8093D9028091D8028130D1F4BF
:102270001092D8028091D90283B906B603FCFACF36
:1022800085EC86BF8091E0028130E1F38091DB0232
:10229000861710F49091DB021092D4029093D3022F
:1022A000892F089585EEEDCFCF9388E60E947E05B5
:1022B00090E080E00E9495080E947B0562E170E05A
:1022C00088E690E00E9410110E949B05982F92953D
:1022D0009770CAE08F709C9F800D11248093D70265
:1022E0000E949B05982F92959F708F709C9F800DE8
:1022F00011248093D6020E949B05982F929593708B
:102300008F709C9F800D11248093D5020E949B05A5
:102310000E949B05982F92959F708F709C9F800DB7
:1023200011248093B2020E949B05982F92959F7072
:102330008F709C9F800D11248093B1020E949B0599
:10234000982F92959F708F709C9F800D1124809381
:10235000B0020E949B05C150E1F70E949B0580934B
:10236000AF02CF910895FC0101900020E9F7319769
:10237000AF01481B590BBC0186E593E00C94DD06C8
:102380008F929F92AF92BF920F931F93CF93DF9341
:10239000CDB7DEB7A1970FB6F894DEBF0FBECDBFA5
:1023A00019A2423008F44AE08E010F5D1F4F842EBF
:1023B000912CB12CA12CA50194010E94C327E62FDA
:1023C000B901CA01EA30F4F4E05DD801EE938D0161
:1023D000232B242B252B79F790E080E0109719F020
:1023E000CD010E94B311A1960FB6F894DEBF0FBEC7
:1023F000CDBFDF91CF911F910F91BF90AF909F9074
:102400008F900895E95CE1CF462F682F70E090E04F
:1024100080E00C94C011CF92DF92EF92FF92CF93A5
:10242000DF936B017C016DE286E593E00E946C070F
:10243000EC0166277727CB016C197D098E099F096E
:102440004AE00E94C0118C0F9D1FDF91CF91FF9039
:10245000EF90DF90CF900895BC01990F880B990BF6
:1024600097FD0C940B124AE00C94C011009711F0E8
:102470000C94B31190E080E008951F93CF93DF9305
:1024800000D0CDB7DEB7182F86E991E00E94361252
:102490006AE070E0812F0E940412105D10936200C8
:1024A00080E690E00E94FB0ECE0101960E94FC0C9B
:1024B000898180939002882361F080EA91E00E94F4
:1024C000361289E093E00E94361283EA91E00E947E
:1024D00036120F900F90DF91CF911F910895CF93F7
:1024E000C82F8A3020F485EA91E00E9436126AE013
:1024F00070E08C2FCF910C94041281110E94541122
:102500008091B2020E946F1287EA91E00E94361217
:102510008091B1020E946F1287EA91E00E94361208
:102520008091B0020E946F128EE991E00E943612F3
:102530008091D5020E946F1289EA91E00E943612C2
:102540008091D6020E946F1289EA91E00E943612B1
:102550008091D7020C946F128BEA91E00C94B31126
:10256000CF93DF930E94B807EC010E94AC128C0F4E
:102570009D1FDF91CF91089586E593E00E943A0771
:10258000181619062CF486E593E00E941907F4CF7B
:102590008EEB92E00E94B01286E593E00E943A072B
:1025A00018161906CCF70895CF93DF930E940412F2
:1025B000EC010E94AC128C0F9D1FDF91CF9108950A
:1025C000FF920F931F93CF93DF93C82FF62ED42F34
:1025D000062F10E08091AE02843040F18DEF93E041
:1025E0000E94B8076AE070E08C2F0E94041284EF0A
:1025F00093E00E94B80760E170E08F2D0E94041202
:1026000081EF93E00E94B807C801880F991F880FD7
:10261000991F80549F4F0E94361288EE93E00E94CB
:10262000B80760E170E08D2F0E94D41288E40E9408
:102630007E0583E0000F111F8A95E1F78C2F90E053
:10264000880F991F802B912B0E9495086D2F83EB8B
:1026500094E00E94660881E0DF91CF911F910F9175
:10266000FF900C942605FF920F931F93CF93DF9357
:10267000F82E062F88E40E947E05C02FD0E09E0130
:1026800043E0220F331F4A95E1F78F2D90E0880F2A
:10269000991F822B932B0E94950880E00E942605AB
:1026A00061E070E088E490E00E9410110E949B05B8
:1026B000182F8091AE02843040F18FEC93E00E949D
:1026C000B8076AE070E08F2D0E94041286EC93E058
:1026D0000E94B80760E170E0802F0E94041283EC32
:1026E00093E00E94B807CE01880F991F880F991FA9
:1026F00080589F4F0E9436128AEB93E00E94B807E1
:1027000060E170E0812F0E94D412812FDF91CF9180
:102710001F910F91FF900895CF93DF93D82F63E01F
:102720000E943313807CC82FC3608091AE0288233F
:1027300049F08DEA99E00E94B8076AE070E08C2FBA
:102740000E94D4124C2F63E08D2FDF91CF910C9417
:10275000E0124F925F926F927F928F929F92AF9210
:10276000BF92CF92DF92EF92FF92CF93DF93C82F69
:102770004A015B0164E00E94331324E087FF21E0FB
:1027800030E050E040E060E072EC81E090E00E94D8
:10279000C32729013A01CA01B901A50194010E9488
:1027A000C32769017A0163E08C2F0E943313D82F6D
:1027B000482F406863E08C2F0E94E0124C2D60E0AF
:1027C0008C2F0E94E0124D2D552761E08C2F0E9426
:1027D000E0124D2F4F7763E08C2F0E94E012EE2421
:1027E000FF24C301B201A70196010E94C32729015A
:1027F0003A018091AE02823008F180EA93E00E94B3
:10280000B8074AE0C501B4010E94C0110E94AC1291
:1028100084E893E00E94B8074AE0C701B6010E942D
:10282000C0110E94AC128BE693E00E94B8074AE008
:10283000C301B2010E94C0110E94AC12C301B201D7
:10284000DF91CF91FF90EF90DF90CF90BF90AF904E
:102850009F908F907F906F905F904F900895CF934F
:10286000DF930E94B311EC010E94AC128C0F9D1FEC
:10287000DF91CF9108950F931F93CF93DF93D82FBC
:10288000C62F8A018AE593E00E94B8076AE070E0EB
:102890008C2F0E94041280EA91E00E9436128FE38E
:1028A00093E0C330C1F058F481E593E0C13099F072
:1028B00087E493E0C23079F082E193E00CC088E2D3
:1028C00093E0C53041F084E393E0C53020F08AE125
:1028D00093E0C63089F70E94B8078DE093E00E942C
:1028E000B80782E093E0D13031F087E093E0D23056
:1028F00011F48DEF92E00E94B80782EF92E00E94FF
:10290000B8070115110539F088EE92E00E94B8076A
:10291000C8010E94361283EA91E0DF91CF911F91A6
:102920000F910C942F14FC0180819181009711F07C
:102930000C94152760E070E0CB010895FC018081C4
:102940009181009711F00C9487280895EF92FF92DF
:102950000F931F93CF93DF93EC017B018A01888152
:102960009981009729F02A813B812417350788F443
:10297000B8016F5F7F4F0E941029009791F09983F3
:1029800088831B830A832C813D81232B11F4FC0156
:1029900010821D830C83B701888199810E94D629FA
:1029A0000CC088819981009711F00E9487281982B4
:1029B00018821D821C821B821A82CE01DF91CF9168
:1029C0001F910F91FF90EF900895AF92BF92CF9219
:1029D000DF92EF92FF920F931F93CF93DF93EC015F
:1029E0006B015A0179012417350720F48B2D590109
:1029F000E42EF82E198218821B821A821D821C82F4
:102A000050E040E06DEA71E0CE010E94A614D601CC
:102A100014960D911C91A016B10628F5E016F1064A
:102A200008F48701D601ED91FC911197E00FF11F99
:102A3000F08010826D917C916A0D7B1D611571058E
:102A4000F1F0FB0101900020E9F73197AF01461B3F
:102A5000570BCE010E94A614F60180819181080FC8
:102A6000191FD801FC92CE01DF91CF911F910F91D8
:102A7000FF90EF90DF90CF90BF90AF900895888146
:102A80009981009711F00E948728198218821D826F
:102A90001C821B821A82E0CF1F93CF93DF93EC013D
:102AA000162F0E945127181739F0612FCE01DF91A0
:102AB000CF911F910C945927DF91CF911F910895C9
:102AC0000C945127CF92DF92EF92FF920F931F93B6
:102AD000CF930E94CF066B017C01C1E086E593E0B5
:102AE0000E943A07892B09F09BC00E94CF066C19FF
:102AF0007D098E099F09683B7B4081059105A0F403
:102B000062E08DE00E943B068DE00E94E405892B87
:102B100009F0C0E061E08DE00E943B066AE070E0F1
:102B200080E090E00E949D060E94CF060091050380
:102B3000109106032091070330910803601B710B6D
:102B4000820B930B6D32714081059105A0F080E0FE
:102B50000E94E40561E0892B09F060E080E00E94BA
:102B60000D060E94CF0660930503709306038093C1
:102B70000703909308030E94CF066C197D098E0904
:102B80009F09693B7B408105910508F4A7CFCC23C1
:102B900009F4A4CF8FE090E00E946015893009F419
:102BA0009DCF60E080E00E940D0669E08FE090E03C
:102BB0000E944C1583EC99E00E94B0120E94CF064F
:102BC000C0900503D0900603E0900703F09008033F
:102BD0006C197D098E099F0965367105810591057E
:102BE00068F380E00E94E40561E0892B09F060E071
:102BF00080E00E940D068DE00E94E40561E0892BD3
:102C000009F060E08DE00E940D060E94CF066093FF
:102C10000503709306038093070390930803CECFB8
:102C2000CF911F910F91FF90EF90DF90CF9008957B
:102C30001F920F920FB60F9211242F933F938F93F1
:102C40009F93AF93BF938091A6029091A702A0910A
:102C5000A802B091A9023091A50223E0230F2D37DD
:102C600068F126E8230F0296A11DB11D2093A5024D
:102C70008093A6029093A702A093A802B093A90202
:102C80008091AA029091AB02A091AC02B091AD02EA
:102C90000196A11DB11D8093AA029093AB02A0934F
:102CA000AC02B093AD02BF91AF919F918F913F91D4
:102CB0002F910F900FBE0F901F9018950196A11D98
:102CC000B11DD4CF1F920F920FB60F9211242F93E4
:102CD0003F934F935F936F937F938F939F93AF93A4
:102CE000BF93EF93FF9386E593E00E944B07FF911C
:102CF000EF91BF91AF919F918F917F916F915F9174
:102D00004F913F912F910F900FBE0F901F901895EC
:102D10001F920F920FB60F9211242F938F939F93B0
:102D2000EF93FF93E0916603F09167038081E09158
:102D30006C03F0916D0382FD1AC0908180916F0346
:102D40008F5F20917003821741F0E0916F03F0E0F4
:102D5000EA5AFC4F958F80936F03FF91EF919F91FB
:102D60008F912F910F900FBE0F901F90189580811B
:102D7000F4CF1F920F920FB60F9211242F933F930F
:102D80004F935F936F937F938F939F93AF93BF9373
:102D9000EF93FF9381B1887F803609F44AC0F0F544
:102DA000883209F4A3C018F5803109F499C0B8F449
:102DB000882309F4FDC0883009F492C0FF91EF9197
:102DC000BF91AF919F918F917F916F915F914F9143
:102DD0003F912F910F900FBE0F901F901895883143
:102DE00009F484C0803251F78093DE0214C080342D
:102DF00009F4A0C040F48033B9F38833F9F6809326
:102E0000DE0285ECB6C0803509F485C0883509F44A
:102E100099C0883499F60E94F307D0CF883909F415
:102E20008FC030F5883729F050F4883611F080379C
:102E300029F683E08093E0021092780254C088382B
:102E400009F47EC0803919F0803809F0B7CF80913D
:102E50007802803208F074C0E091780281E08E0F31
:102E60008093780283B1F0E0E85AFD4F80833BC045
:102E7000803B39F0E0F4803A09F47FC0883A09F0E9
:102E80009DCF84E08093E002109257021092560288
:102E9000E0917B02F0917C020995809156028111AC
:102EA0000FC081E0809356021092360209C0803C28
:102EB00009F4A7CF883C09F4A4CF883B09F07ECF62
:102EC000E091570281E08E0F80935702F0E0EA5CB8
:102ED000FD4F808183B990915702809156022EC098
:102EE0008091D90283B985EC86BF68CF9091DB02CF
:102EF0008091DA029817A8F58091DC029091DD02AA
:102F0000E091DB0221E02E0F2093DB02E80FF92F86
:102F1000F11D8081E7CF2091DC023091DD02E0914C
:102F2000DB0281E08E0F8093DB0283B1E20FF32F8F
:102F3000F11D80839091DB028091DA02981798F25C
:102F400085E8D2CF2091DC023091DD02E091DB02F6
:102F500081E08E0F8093DB0283B1E20FF32FF11D2E
:102F600080838091DF02811156CF81E08093D80267
:102F700084EA86BF1092E00221CF85EC86BF1092D2
:102F8000E00280917802803230F4E0917802F0E043
:102F9000E85AFD4F10826091780270E0E09179026A
:102FA000F0917A0288E592E009951092780206CFB6
:102FB0001092DE0230CFEF92FF920F931F93CF93C8
:102FC000DF930097C9F0EA018C012097B1F1E090FE
:102FD0008A02F0908B02E114F10479F1F8018191F9
:102FE0008F010E947309F1E0EF1AF108F0928B0251
:102FF000E0928A022197E9CF4115510561057105DB
:1030000029F18091290383FD07C089E0440F551FF2
:10301000661F771F8A95D1F788E50E94B80981114C
:103020001DC08FEF0E9473098EEF0E94730980E02C
:1030300092E090938B0280938A0290E080E0DF918F
:10304000CF911F910F91FF90EF900895DF91CF9155
:103050001F910F91FF90EF900C947C0981E090E01C
:10306000EECFE6E5F3E01382128288EE93E0A0E073
:10307000B0E084839583A683B78326E731E031836C
:10308000208320E430E03587248749E250E05787E9
:1030900046874BE250E0518B408B4AE250E0538B25
:1030A000428B358B248B2CE230E0378B268B118EB4
:1030B000128E138E148EE3EBF4E01382128284835B
:1030C0009583A683B78388E891E091838083E5ECBC
:1030D000F4E011821082138212821582148248E079
:1030E00050E06EEA71E0CF010E94A614EFEBF4E02D
:1030F0001182108213821282158214824BE050E0FA
:1031000067EB71E0CF010C94A614CF93DF9300D04E
:1031100000D000D0CDB7DEB7789483B7836083BF8B
:1031200083B7886483BF89B7816089BF82E08EBD21
:103130008EB581608EBD8FB581608FBD85B5846091
:1031400085BD85B5806485BD87E886B91AB861E01C
:1031500086E10E943B0660E086E10E940D0661E088
:1031600080E00E943B0660E080E00E940D0662E085
:103170008DE00E943B068DE00E94E4058C0161E039
:103180008DE00E943B0661E08DE00E940D0662E04A
:1031900081E00E943B0661E081E00E943B0661E025
:1031A00081E00E940D0661E082E00E943B0661E042
:1031B00082E00E940D0660E083E00E943B0662E030
:1031C0008EE00E943B0661E08EE00E943B0661E0DB
:1031D0008EE00E940D061ABA8FEF8BBB62E085E18C
:1031E0000E943B0662E084E10E943B0662E083E1CC
:1031F0000E943B0662E082E10E943B0661E08CE0B7
:103200000E943B0661E08CE00E940D0661E08BE0CD
:103210000E943B0660E08BE00E940D0661E08FE0BB
:103220000E943B0660E086E10E940D0686E00E9457
:10323000771061E086E10E940D0682E00E9477101F
:1032400062E08AE00E943B0661E087E10E943B0663
:1032500060E087E10E940D0664E670E080E090E0A7
:103260000E949D0661E087E10E940D0664EF71E017
:1032700080E090E00E949D068DE090E00E94601545
:10328000823028F061E08DE090E00E944C158DE0E6
:1032900090E00E946015809389028EE090E00E9489
:1032A00060158093A002863038F060E08EE090E0F8
:1032B0000E944C151092A0021092D4021092D302D8
:1032C0001092E202109204031092E002FF24F394A1
:1032D000F092DF021092D80261E081E10E940D06B7
:1032E00061E080E10E940D060898099888E480B9A1
:1032F00085E486BF8BED96E090937C0280937B0201
:103300008CED96E090937A02809379028CE080B9FC
:1033100080E20E947E050E947B0581110FC0F09221
:10332000A10280E20E947E058CE090E00E94950858
:1033300085E090E00E9495080E947B0588E40E9449
:103340007E050E947B05811180C045E567E00E94F3
:10335000E01267E080E00E943313853509F075C004
:103360004AEA67E080E00E94E01267E080E00E94A5
:1033700033138A3A09F069C045E567E081E00E94AD
:10338000E01267E081E00E943313853509F05DC0EB
:103390004AEA67E081E00E94E01267E081E00E9473
:1033A00033138A3A09F051C081E0809395026EE0B0
:1033B00080E00E943313482F48606EE080E00E9456
:1033C000E01262E080E00E943313482F416062E027
:1033D00080E00E94E01262E081E00E943313482FF7
:1033E000416062E081E00E94E01240EB54E060E066
:1033F00070E080E00E94A91340EB54E060E070E0D0
:1034000081E00E94A91380E00E948C1381E00E9459
:103410008C1362E080E00E943313482F426062E028
:1034200080E00E94E01262E081E00E943313482FA6
:10343000426062E081E00E94E01260E080E00E9471
:10344000331360E081E00E9433138FE090E00E942C
:1034500060158A3028F069E08FE090E00E944C15FA
:103460008FE090E00E946015C12C22ECD22EEE2459
:10347000E394F12C893050F4E82FF0E0EE0FFF1FB9
:10348000E45FFE4FC080D180F12CE12C60E079E058
:103490008DE390E0A70196010E94C32721503109D6
:1034A000410951095695479537952795E09166034F
:1034B000F091670382E08083C11441EED406E104F9
:1034C000F10421F0211550E13507A8F0E0916603E1
:1034D000F0916703108260E874E88EE190E0A70144
:1034E00096010E94C327215031094109510956957F
:1034F000479537952795E0916203F09163033083F8
:10350000E0916403F0916503208310926E03E091D3
:103510006A03F0916B0386E88083E0916803F09181
:103520006903808188698083E0916803F091690371
:1035300080818F7D808387E498E00E94B01282E2D0
:1035400098E00E94B0128BE098E00E94B80780914A
:103550008902882309F4AFC083EC91E00E943612FF
:1035600087E098E00E94B01288E60E947E050E94E3
:103570007B05811133C18FEA94E00E94B80781E096
:103580000E947D1283EA91E00E942F148AE894E061
:103590000E94B8078091AF02082E000C990B0E9480
:1035A0002C1287EC91E00E942F1488E60E947E0581
:1035B0008FE090E00E9495080E947B0561E070E03A
:1035C00088E690E00E9410110E949B0587FFE2C0F0
:1035D00028E030E046E050E065EC74E0CE01019672
:1035E0000E94E514CE0101960E9493146093D702C5
:1035F000CE0101960E949E1425E030E043E050E0A9
:1036000065EC74E0CE0101960E94E514CE010196AE
:103610000E9493146093D602CE0101960E949E14DC
:1036200022E030E050E040E065EC74E0CE0101962D
:103630000E94E514CE0101960E9493146093D50276
:10364000CE0101960E949E1426E030E044E050E056
:103650006FEB74E0CE0101960E94E514CE01019655
:103660000E9493146093B202CE0101960E949E14B0
:1036700090E080E00E94AE05EFEBE80FE33108F048
:103680002EC00E2E000CFF0BE85BF44E0C94E527C9
:10369000D21B6F1B6F1BEC1B6F1BD01B6F1B6F1B99
:1036A0006F1B5E1B6F1B6F1BDC1BEA1BE81B6F1B7A
:1036B0006F1B6F1BE61B85EC91E050CF81E090E023
:1036C0000E94AE05813609F467C082E090E00E9456
:1036D000AE058E3609F062C086E08093B1022BE021
:1036E00030E049E050E06FEB74E0CE0101960E94BB
:1036F000E514CE0101960E9493146093B002CE01AE
:1037000001960E949E1482E794E00E94B01287E422
:1037100094E00E94B80780E00E947D128CE394E060
:103720000E94B8070E94621586E593E00E9419077F
:1037300080938702982F9F7D993511F09E3491F7E1
:10374000682F86E593E00E946C070E94AC1280917E
:1037500087028F7D893589F44091B0026091B10272
:103760008091B2020E949A0887E194E00E94B80713
:1037700081E00E947D120E94AC1288E60E947E05C4
:103780008FE090E00E94950888E090E00E94950804
:103790000E947B0581E023C081E09FCF87E09DCF21
:1037A00082E09BCF82E090E00E94AE05823711F468
:1037B00084E093CF88E091CF82E090E00E94AE0554
:1037C000823711F483E089CF85E087CF89E085CF08
:1037D0008AE083CF8BE081CF8CE07FCF80E0809345
:1037E00092028091A102882321F081EF97E00E944C
:1037F000B01280919502882321F083ED97E00E941A
:10380000B0128CEB97E00E94B8078CE090E00E9429
:103810006015823028F060E08CE090E00E944C154A
:103820008CE090E00E946015809391028823F9F06B
:1038300089EB97E00E94B0120E94AE0A0E94AE0A85
:103840008AE090E00E94601580938802012B19F0B5
:10385000853008F4E6C086E593E00E943A07181622
:10386000190644F486E593E00E941907F4CF85EB2E
:1038700097E0E0CF0E94AC1289E897E00E94B01276
:103880000E94AC1210918802153008F082C089E7BE
:1038900097E00E94B807812F90E001960E942C12B9
:1038A00083EA91E00E942F1410E38FE697E00E94D4
:1038B000B01285E697E00E94B01284E597E00E947E
:1038C000B8078091A0020E943D1285E497E00E9413
:1038D000B0128BE397E00E94B0128CE197E00E9457
:1038E000B80780918902882309F455C085EC91E0DE
:1038F0000E94361287E197E00E94B0128AEF96E0AC
:103900000E94B80780919102811148C089EC91E032
:103910000E94361283EA91E00E942F148AED96E00D
:103920000E94B8078FE090E00E9460158930D8F5BA
:10393000E82FF0E0EE0FFF1FE45FFE4F6081718122
:1039400090E080E04AE00E94C01183EA91E00E948A
:103950002F148091920208E3882329F084EC96E0EA
:103960000E94B01209E30E94AC128FEA96E00E9416
:10397000B8070E94621586E593E00E9419078093BC
:1039800087028F33A9F48091AE028F5F8093AE02DD
:10399000F0CF11E38ACF83EC91E0AACF86EF96E0D7
:1039A0000E94B807B7CF60E072EC81E090E0CACF28
:1039B000803219F41092AE02DCCF8117D4F20817CE
:1039C000C4F2682F86E593E00E946C078AEA96E0CD
:1039D0000E94B0121091AE02112349F088E996E0DE
:1039E0000E94B8076AE070E0812F0E94D412809193
:1039F0008702873309F413C10CF068C0833309F4DC
:103A0000AFC0863309F4FFC06091870261536093B1
:103A10008802653010F00C94FA268AE090E00E944B
:103A20004C1580918802823051F482E396E00E9426
:103A3000B8078091A0020E943D120E94AC12109122
:103A40008802123009F4EDC208F0C6C2112309F44D
:103A5000DAC288ED91E0113009F41BC361E080E027
:103A60000E940D06E0908202F0908302E114F104BE
:103A700069F090E080E00E94891083EC0E94B3100E
:103A80008E2D0E94B3108F2D0E94B310C7010E948B
:103A90008910143008F0BEC30E94AE0A882309F4CE
:103AA00010C30E94AE0A80937D02882309F409C3E3
:103AB00060917D02662329F050E040E080E00E94A2
:103AC0003B140E94BC120E94AE0AEBCF883309F46B
:103AD000B0C0893309F098CF0E94541110929C0213
:103AE00085EB95E00E94B01286E895E00E94B01246
:103AF0006AE0F62E76EFE72EDD24D39484E895E095
:103B00000E94B80780919C02823009F41CC108F021
:103B1000FDC0882309F407C1813009F40DC10E945A
:103B2000621586E593E00E941907082F80938702AB
:103B3000853709F426C1853509F423C1843711F48A
:103B40000C940227843511F40C9402278D3039F738
:103B500010919C026DE086E593E00E946C0736C1EF
:103B60008EEC94E00E94B0128091A002815080936C
:103B7000860206E0809186028F5F602F0E94B72741
:103B8000192F9093860283E996E00E94B807812F4F
:103B90000E943D1280E896E00E94B80786E593E017
:103BA0000E943A07181619062CF486E593E00E9445
:103BB0001907F4CF86E593E00E943A071816190614
:103BC0001CF00E946215F6CF86E593E00E9419076B
:103BD000809387028D3011F08B3161F60E94AC1218
:103BE0000E94AC12809187028D3009F00DCF609158
:103BF00086026093A0028EE090E00E944C1583E361
:103C00008093870201CF61E080918902811160E099
:103C1000609389028DE090E00E944C15F5CE61E042
:103C200080919102811160E0609391028CE090E0BC
:103C3000F3CF8EEC94E00E94B0128FE090E00E94EF
:103C400060158150809386020AE0809186028F5F22
:103C5000602F0E94B727192F909386028BE796E07A
:103C60000E94B80760E072EC81E090E0193051F0FA
:103C7000E12FF0E0EE0FFF1FE45FFE4F60817181E6
:103C800090E080E04AE00E94C01186E796E00E9442
:103C9000B80786E593E00E943A07181619062CF437
:103CA00086E593E00E941907F4CF86E593E00E9431
:103CB0003A07181619061CF00E946215F6CF86E521
:103CC00093E00E941907809387028D3019F08B31A1
:103CD00009F0BBCF0E94AC120E94AC128091870207
:103CE0008D3009F091CE8FE090E00E9460156091D8
:103CF0008602861711F40C94F7268FE090E00E945C
:103D00004C1580E496E00E94B0127ECE843091F192
:103D100050F1853009F003CF88E395E00E94B807A1
:103D20008091D70206C08BE795E00E94B80780918A
:103D3000B0020E946F12F3CE81E795E00E94B807AF
:103D40008091B102F6CF83E695E00E94B8076DE05E
:103D500086E593E00E946C078AE595E00E94B8072B
:103D60008091B202E6CF80E595E00E94B80780918D
:103D7000D502DFCF84E495E00E94B8078091D60297
:103D8000D8CF10919C02123009F466C0E8F51123D7
:103D900009F44CC0113009F454C0802F8F7D843554
:103DA00011F00C940627123009F4C7C008F08CC03B
:103DB000112309F4A3C0113009F4B2C06DE086E507
:103DC00093E00E946C070D3009F098CE1F5F1093AE
:103DD0009C02163008F492CE4091B0026091B1027C
:103DE0008091B2020E949A0888E295E00E94B01287
:103DF0008BE095E00E94B80781E00E947D1283EA83
:103E000091E00E942F1400CE143009F452C008F43F
:103E100045C0153011F68091D7028F5F8093D7028D
:103E20008C3308F4BACF1092D702B7CF8091B0028A
:103E30008F5F8093B002843608F4AFCF1092B00247
:103E4000ACCF8091B1028F5F8093B1028D3008F4C6
:103E5000A4CF1093B102A1CF8091B2028F5F809363
:103E6000B202E091B102E23089F490E02091B00218
:103E7000237049F42DE130E0281739070CF08DCF7D
:103E8000D092B2028ACF2CE130E0F6CFF0E0E150E0
:103E9000FF4F9081981708F080CFF2CF8091D50224
:103EA0008F5F8093D502883108F477CF1092D502C6
:103EB00074CF8091D6028F5F8093D6028C3308F442
:103EC0006CCF1092D60269CF143009F473C008F495
:103ED0005FC0153009F072CF2091D702265F209382
:103EE000D7022C3308F492C7822F6F2D0E94B72778
:103EF0008E9D200D11242093D70260CF2091B00217
:103F0000265F2093B002243608F480C7822F6F2DDD
:103F10000E94B7278E9D200D11242093B0024ECF12
:103F20008091B1028B3020F08A508093B10246CF4D
:103F3000833008F06BC7865FF8CF2091B202265F0E
:103F40002093B202422F50E0E091B102F0E0E15044
:103F5000FF4F808190E03091B002337061E070E0FB
:103F600011F070E060E0860F971F841795074CF4FE
:103F7000822F6F2D0E94B7278E9D200D1124209334
:103F8000B2028091B202811141C7D092B20216CF23
:103F90002091D502265F2093D502283108F436C738
:103FA000822F6F2D0E94B7278E9D200D1124209304
:103FB000D50204CF2091D602265F2093D6022C335F
:103FC00008F424C7822F6F2D0E94B7278E9D200DE5
:103FD00011242093D602F2CE133009F46FC01430AE
:103FE00009F03CCDE0E3F6E0859194919093810255
:103FF000809380028AE692E090937F0280937E0213
:1040000080E19DEF3FC08CEC91E09093850280931E
:104010008402109283021092820281E080939A02BD
:104020001DCD8091A002823091F170F4882311F1AE
:10403000813009F013CD8EEE91E09093850280934C
:10404000840280E890E01EC08430A9F148F18530F8
:1040500009F004CD88E192E0909385028093840278
:10406000109283021092820281E080939A028093E0
:104070009902F4CC84EE91E09093850280938402BF
:1040800080EE91ED9093830280938202E7CC89EFDA
:1040900091E0909385028093840280E091E0F2CFDA
:1040A00084E092E0909385028093840210928302D0
:1040B00010928202D3CC80E192E0F4CF82E292E0CF
:1040C000F1CF80918402909185020E94FB0E809333
:1040D0007D02882321F160917D02662339F04091B1
:1040E00084025091850281E00E943B140E94BC1220
:1040F0000091840210918502C8010E94FB0E8093FA
:104100007D02833049F00E94AE0A0E94AE0AC801C7
:104110000E94FB0E80937D0280917D02DACF84E1C4
:1041200096E00E94B80780918402909185020E94D7
:1041300036128FE096E00E94B807CE0101960E94E9
:10414000FC0C082F89818093900200937D021092CD
:1041500086021091860280919002181758F4E12F80
:10416000F0E0E75FFC4F80810E94B3101F5F109367
:104170008602EFCF803291F40023F9F2409184025D
:1041800050918502602F82E00E943B140E94BC1275
:1041900060E070E0CB010E94CC0D02C00111EECFB7
:1041A00080917D028111C9CF8CEE95E00E94B01202
:1041B00060E086E10E940D0682B5877F82BD85B5ED
:1041C000816085BD85B5897F85BD85B5886085BDE4
:1041D00085B58F7B85BD85B5806185BD85B58F7DB6
:1041E00085BD8091890283BD61E08FE00E943B061E
:1041F0008FEC95E00E94B0120E94AC1286E593E02D
:104200000E943A0718161906FCF486E593E00E940E
:104210001907F4CF82EF95E00E94B80710E000E0A4
:1042200080917E0290917F020817190708F0BCCF99
:10423000E0918002F0918102E00FF11F84910E94D1
:10424000B3100F5F1F4FECCF61E070E080E090E0B3
:104250000E949D0661E086E10E940D0683E00E94B7
:10426000E405892B09F0D4C383E10E94E405892B7E
:1042700009F087C382E10E94E40519B31093A402F8
:10428000882379F0109379001092A3021092A20271
:1042900060E08EE00E940D0660E080E00E940D0666
:1042A000AFC3809179008C3009F485C108F04FC00C
:1042B000863009F416C118F5833009F4F3C080F490
:1042C000882309F4E2C0813009F4E6C080917900C6
:1042D0008A30F1F28C30E1F24FEF40937900D8CF81
:1042E000843009F4EAC0853089F78091A1028823DF
:1042F00069F380E20E947E0590E080E0E8C08930AA
:1043000009F405C178F4873009F4F6C08830F1F675
:104310008091A1028823D1F280E20E947E058DE087
:1043200090E0D5C08A3009F413C18B3079F6109330
:104330009D0280919E0290919F028115924008F00B
:1043400034C1103208F035C110926D00BFCF8231F8
:1043500009F49CC208F06FC08F3009F48DC278F464
:104360008D3009F474C28E3009F0B0CF812F817086
:1043700080939A021695117010939902A7CF8031FD
:1043800009F480C2813109F0A1CF8091A102882374
:1043900009F49CCF81E08093970201E0111100E0C5
:1043A0000093960280E20E947E0582E190E00E94E6
:1043B0009508000F102F1560812F90E00E9495083E
:1043C0000E947B0580E20E947E0590E080E00E94D2
:1043D000950888EF90E00E9495080E947B0580E296
:1043E0000E947E0581E090E00E94950890E080E0C8
:1043F0000E9495080E947B0580E20E947E058CE069
:1044000090E00E9495088FEF90E00E9495080E942E
:104410007B0580E20E947E0582E190E00E94950883
:10442000602F616083EB94E00E9466080E947B0528
:1044300010939C023CC0843210F5823208F04DC2C9
:10444000803208F443CF90919502992309F43ECF2E
:1044500001E0803209F400E08091AE02833048F040
:104460008EE898E00E94B80760E170E0812F0E941A
:10447000D412412F60E0802F0E94E01227CF8E37A8
:1044800009F024CF1093AE0221CF60E010FF61E06D
:104490008DE00E940D061ACF612F86E593E00E9401
:1044A0006C0714CF8091A102882309F40FCF80E21A
:1044B0000E947E0582E190E00AC08091A1028823DB
:1044C00009F404CF80E20E947E0583E190E00E941F
:1044D0009508612F83EB94E00E9466080E947B059B
:1044E000F5CE8091A102882309F4F0CE80E20E94EB
:1044F0007E0581E090E0EBCF8091A102882309F452
:10450000E5CE80E20E947E058CE090E0E0CF14369C
:10451000D8F48091A002805D80937000812F6AE0C2
:104520000E94B72790E3980F90937200105D96EF6A
:10453000899F100D1124109373008EE690E00E9465
:10454000FB0E80936D00C2CEE0E1E0936D00BECE25
:104550008091A2029091A302412F50E0009751F464
:1045600050939F0240939E0201969093A3028093E2
:10457000A202ACCE20919E02312F30939F02209355
:104580009E0240919D022115324040F4403248F491
:1045900010926D002FEF20937900E6CF21E1403299
:1045A00008F022E120936D00F5CF103210F481E184
:1045B000C8CF82E1C6CFC090A202D090A302C1149E
:1045C000D10419F560919E0270919F02611542E03D
:1045D0007407D8F480919D028032B8F490916D00F8
:1045E000911113C045E0660F771F4A95E1F7682BDC
:1045F00090E080E059E0660F771F881F991F5A9559
:10460000D1F70E94CC0D80936D0080916D008111D7
:1046100081C08C2D8F7180939C02E82FF0E0E75FC2
:10462000FC4F10838F3109F075C000915403109135
:104630005503A12C85E00115110509F458C0F801B6
:10464000818180FFD9C086FD0AC086899789A08DA7
:10465000B18D88279E7F868B978BA08FB18FF801B5
:10466000828D938DA48DB58D46895789608D718D0E
:10467000841B950BA60BB70B80329105A105B105E4
:1046800020F080E290E0A0E0B0E07C01B12CA12C11
:1046900039E0232E33E0332EE114F10409F4AFC0E6
:1046A000F80186899789A08DB18D9C013170232BEB
:1046B00009F067C092809A94AC01BD0129E076951B
:1046C0006795579547952A95D1F79422B1F5892B8F
:1046D0008A2B8B2B39F5668D778D80A191A1F801FE
:1046E000623071058105910520F5118281E0A0926B
:1046F0009B0280936D00FFE1FA1508F482C083E10C
:1047000080936D002FEFC21621E0D20618F0FFEF64
:10471000F09379002FEFC21AD20AD092A302C0926E
:10472000A202D4CD62A173A184A195A10E948C0C98
:10473000D6CF62A373A384A395A3F80162A173A14A
:1047400084A195A10E94010961157105810591055A
:1047500011F4F801CACFAB01BC01490D511D611D17
:10476000711DF80146A357A360A771A790E080E0F0
:104770000E94DB17F801892B09F0B7CF8181806493
:104780008183F80186899789917020E032E0281BA7
:10479000390B47012E153F0508F449012401712CFE
:1047A000612CB301A401C1010E94DB17F801892B20
:1047B00009F09BCF86899789A08DB18D840D951DB9
:1047C000A61DB71D868B978BA08FB18F280C391C27
:1047D000E818F908A80CB91C2C01F1E05F22452863
:1047E00009F05ACF0E947C09F801892B09F07DCF8E
:1047F00081818F7B818350CFA12C84E078CF80E0B2
:1048000076CF3FEFC31631E0D30608F483CF811192
:104810007ECF85E00115110569F0F801818180FFE7
:1048200014C086FF0CC00E947C09892B41F0F8015E
:10483000118281E010929B0280936D0068CFF80195
:1048400081818F7B818380E0F5CF84E0F3CF1130CD
:1048500069F028F0123009F039CD60E008C061E05D
:104860008CE00E940D0660E08BE013CE61E08CE0EE
:104870000E940D0661E0F8CF112309F427CD1093B3
:104880006C0024CD11701093980220CD8091970276
:10489000882309F41BCD80E20E947E0583E190E02D
:1048A0000E949508612F83EB94E00E9466080E94A5
:1048B0007B0510919602110F80E20E947E0582E135
:1048C00090E00E949508612F6C6F83EB94E00E944A
:1048D00066080E947B051D6FABCD909195029923D0
:1048E00009F4F4CCCC24CA94DC2C76011A3260F49E
:1048F000E12FEF7134E0E39FF0011124E25EFE4FFF
:10490000C080D180E280F3809091AE02923090F12D
:10491000823241F589E099E00E94B8078EE199E082
:104920000E94B80760E170E0812F0E94041280E1CC
:1049300099E00E94B8071C141D041E041F04ACF467
:104940004AE0C701B6010E94C0110E94AC1281E08A
:1049500090917900923209F480E0B701A6010E949B
:10496000A913B4CC82E099E0D7CF87EE98E00E94FB
:10497000B012ACCC1C141D041E041F040CF0A6CCF9
:10498000E6CF84E10E94E405892B09F02BC282E185
:104990000E94E4051092A402882309F478C05FEF16
:1049A0005093A40286E593E00E943A071816190670
:1049B0000CF069C086E593E00E9419078093A40279
:1049C0001092940261E081E00E940D0680919302B2
:1049D0008E7F8093930281E080936B00FFEFFABBA0
:1049E0008091A4028BBB60E08EE00E940D0660E027
:1049F00080E00E940D060E94C3051ABA2FEF2BBB60
:104A000061E080E00E940D0661E08EE00E940D06EC
:104A100080919902882379F10E94770600918C0297
:104A200010918D0220918E0230918F026B017C01DA
:104A3000C01AD10AE20AF30A20916C0030E0A8EE15
:104A4000B3E00E94A8276C157D058E059F0598F49C
:104A500060E081E00E940D06809193028260809365
:104A600093020E94770660938C0270938D0280936C
:104A70008E0290938F020E944107882309F4EECBA7
:104A80000E94EF10EBCB81E0809394029BCF90913A
:104A90007900983809F452C118F5933809F495C093
:104AA00090F4913809F46CC008F084C0903809F48F
:104AB0004BC0809179008D7F843809F48FCFEFEF60
:104AC000E09379008BCF953809F4DFC008F4A0C0DB
:104AD000963809F4DDC0973861F70E94AE0A31C0FC
:104AE000943A38F5923A08F053C19A3809F432C131
:104AF00008F429C1903AE8F280919502882309F4DC
:104B000045C181E0903A09F480E060E00E943313EF
:104B1000182F8091AE02833048F083EA98E00E941B
:104B2000B80760E170E0812F0E94D4121093A402B4
:104B3000C0CF963A08F445C18091AE029E3F09F07D
:104B4000B8CF8093A402B5CF8DE00E94E405182F62
:104B500080939C0262E08DE00E943B068DE00E9403
:104B6000E40521E0892B09F020E02093A40261E014
:104B70008DE00E943B06612F8DE00E940D0699CFCB
:104B80008091A102882309F494CF80E20E947E05DF
:104B900082E190E00E9495080E947B0580E20E94DD
:104BA0007E0561E070E080E290E00E9410110E94BA
:104BB0009B05C7CF8091A102882309F47ACF80E2B8
:104BC0000E947E0583E190E0E5CF0091920210E023
:104BD000000F111FF090910286E593E00E943A07C2
:104BE00034E0181619060CF030E08091940228E0A9
:104BF000811101C020E080919802E0E18E9FC00108
:104C00001124082B0F29032B022B0093A40251CF50
:104C1000809192028823A9F10091A2021091A3022F
:104C20000115110569F40E9454118091D7028093F7
:104C3000A4020F5F1F4F1093A3020093A20239CF6B
:104C400007301105F0F48091B1020430110579F3B9
:104C500068F48091D5020230110549F38091B202C7
:104C60000330110521F38091D602E1CF8091B0028B
:104C700005301105E1F28091AF0206301105B9F25D
:104C8000F2CFFFEFF093790014CF80916D0059CFF0
:104C90000091A2021091A3020115110519F560916E
:104CA0009E0270919F02611522E07207D8F48091F4
:104CB0009D028032B8F490916D00911113C095E07F
:104CC000660F771F9A95E1F7682B90E080E029E066
:104CD000660F771F881F991F2A95D1F70E94CC0D68
:104CE00080936D0080916D0081111DC0302F3F7148
:104CF000F32E30939C0231110FC0CE0101960E9419
:104D0000FC0C9981909390029032B0F080936D00EA
:104D100080916D00811107C0EF2DF0E0E75FFC4F3F
:104D200080818093A4020F3F41E0140708F481CFF3
:104D30005FEF509379007DCF83E1E8CF86E593E084
:104D40000E940A07FECE809193028093A4021092E3
:104D50009302AFCE80919702882309F4AACE80E215
:104D60000E947E0582E190E00E9495080E947B05EA
:104D700080E20E947E0561E070E080E290E00E94A7
:104D800010110E949B05887F8160DBCE8AE1D9CE1D
:104D900080919502882389F069E080E00E943313B6
:104DA000182F8091AE02833008F4C0CE87EB98E0D4
:104DB0000E94B8076AE070E0B6CE90E49093A40237
:104DC00078CE809195028823C1F368E080E00E944C
:104DD0003313182F8091AE02833008F4A7CE8FECE6
:104DE00098E0E6CF61E081E00E940D0651CA8CEDAB
:104DF000809388028AE090E00E9460158093880288
:104E00000C94111D10919C020C94D31E6DE086E54C
:104E100093E00E946C070C947E1D8FEB94E00E943F
:104E20009E1485EC94E00C949E141F93FC0199272A
:104E30008827BC01E89411911032E9F3193010F081
:104E40001E30C8F31B3251F01D3249F4689406C07D
:104E50000E943C27610F711D811D911D11911053FE
:104E60001A30B0F33EF490958095709561957F4F20
:104E70008F4F9F4F1F910895592F482F372F262F5F
:104E8000660F771F881F991F660F771F881F991F4E
:104E9000620F731F841F951F660F771F881F991F4E
:104EA0000895E199FECF9FBB8EBBE09A99278DB301
:104EB0000895262FE199FECF9FBB8EBB2DBB0FB669
:104EC000F894E29AE19A0FBE019608950E94A827ED
:104ED000A59F900DB49F900DA49F800D911D11244E
:104EE00008952F923F924F925F926F927F928F928E
:104EF0009F92AF92BF92CF92DF92EF92FF920F9369
:104F00001F93CF93DF93CDB7DEB7CA1BDB0B0FB672
:104F1000F894DEBF0FBECDBF09942A88398848882F
:104F20005F846E847D848C849B84AA84B984C884C5
:104F3000DF80EE80FD800C811B81AA81B981CE0FBC
:104F4000D11D0FB6F894DEBF0FBECDBFED010895A1
:104F5000A29FB001B39FC001A39F700D811D1124BA
:104F6000911DB29F700D811D1124911D0895991BF3
:104F700079E004C0991F961708F0961B881F7A9550
:104F8000C9F780950895A1E21A2EAA1BBB1BFD014B
:104F90000DC0AA1FBB1FEE1FFF1FA217B307E40718
:104FA000F50720F0A21BB30BE40BF50B661F771F70
:104FB000881F991F1A9469F7609570958095909550
:104FC0009B01AC01BD01CF010895EE0FFF1F0590BD
:104FD000F491E02D09940F931F93CF93DF938230C8
:104FE000910510F482E090E0E091CD04F091CE04C0
:104FF00030E020E0B0E0A0E0309799F421153105D1
:1050000009F44AC0281B390B24303105D8F58A81B0
:105010009B816115710589F1FB0193838283FE01F8
:1050200011C0408151810281138148175907E0F076
:105030004817590799F4109761F012960C9312973C
:1050400013961C933296CF01DF91CF911F910F9150
:1050500008950093CD041093CE04F4CF21153105AB
:1050600051F04217530738F0A901DB019A01BD0145
:10507000DF01F801C1CFEF01F9CF9093CE04809307
:10508000CD04CDCFFE01E20FF31F81939193225007
:10509000310939832883D7CF2091CB043091CC04B8
:1050A000232B41F420917C0030917D003093CC047F
:1050B0002093CB0420917A0030917B00211531059B
:1050C00041F42DB73EB740917E0050917F00241BE4
:1050D000350BE091CB04F091CC04E217F307A0F478
:1050E0002E1B3F0B2817390778F0AC014E5F5F4F3E
:1050F0002417350748F04E0F5F1F5093CC044093A0
:10510000CB04819391939FCFF0E0E0E09CCFCF93CD
:10511000DF930097E9F0FC01329713821282A0918D
:10512000CD04B091CE04ED0130E020E01097A1F461
:1051300020813181820F931F2091CB043091CC04C8
:105140002817390709F061C0F093CC04E093CB0431
:10515000DF91CF910895EA01CE17DF07E8F54A8184
:105160005B819E0141155105B1F7E901FB83EA839B
:1051700049915991C40FD51FEC17FD0761F4808147
:1051800091810296840F951FE9019983888382811A
:1051900093819B838A83F0E0E0E012968D919C914D
:1051A00013970097B9F52D913C911197CD01029677
:1051B000820F931F2091CB043091CC04281739071C
:1051C00039F6309751F51092CE041092CD04B09379
:1051D000CC04A093CB04BCCFD383C2834081518144
:1051E000840F951FC817D90761F44E5F5F4F888100
:1051F0009981480F591F518340838A819B819383F2
:1052000082832115310509F0B0CFF093CE04E093ED
:10521000CD049ECFFD01DC01C0CF13821282D7CF17
:10522000B0E0A0E0E6E1F9E20C9473278C0100976E
:1052300051F4CB010E94EB278C01C801CDB7DEB73A
:10524000E0E10C948F27FC01E60FF71F9C01225030
:105250003109E217F30708F49DC0D901CD91DC9123
:105260001197C617D70798F0C530D10530F3CE0196
:1052700004978617970708F3C61BD70B2297C1938D
:10528000D1936D937C93CF010E948728D6CF5B0189
:10529000AC1ABD0A4C018C0E9D1EA091CD04B0919C
:1052A000CE04512C412CF12CE12C109731F580913A
:1052B000CB049091CC048815990509F05CC0461682
:1052C000570608F058C080917A0090917B000097B3
:1052D00041F48DB79EB740917E0050917F00841BB2
:1052E000950BE817F90708F055C0F093CC04E0934C
:1052F000CB04F90171836083A0CF8D919C911197AC
:1053000012966C90129713967C901397A815B90576
:1053100059F56C0142E0C40ED11CCA14DB0420F123
:10532000AC014A195B09DA011296159780F0628286
:10533000738251834083D9016D937C93E114F1040E
:1053400071F0D7011396FC93EE93129776CF2296C5
:105350008C0F9D1FF90191838083F301EFCFF093B0
:10536000CE04E093CD0469CF4816590608F42C0109
:105370007D01D3019ACFCB010E94EB277C010097DE
:1053800049F0AE01B8010E94CD29C8010E948728CA
:10539000870153CF10E000E050CFFB01DC0102C0D9
:1053A00001900D9241505040D8F70895FB01DC0167
:1053B00001900D920020E1F7089514E0CBEFD4E0C6
:1053C00004C0FE010E94E5272196CC3FD107C9F712
:1053D000F894FFCF4453784E414D2E444154000180
:1053E00064134453784E79792E44534B00FF0000E8
:1053F000CF048000524852004945520049495200AA
:105400004C4352004D4352004C5352004D535200F6
:105410005350520054584C0052584C00494F4400CD
:10542000494F5300494F490072657300494F43008B
:1054300045464300544852004945520046435200F5
:105440004C4352004D4352002D2D2D005443520029
:10545000535052002D2D2D002D2D2D00494F44006D
:10546000494F5300494F490072657300494F43004B
:10547000454643001F1C1F1E1F1E1F1F1E1F1E1FF1
:105480005802B0046009C0128025004B807000965D
:1054900000E100000000320000004B0000006E0040
:1054A000000086000000960000002C010000580259
:1054B0000000B00400000807000060090000100EA2
:1054C0000000C0120000201C000080250000004BDE
:1054D000000040380000807000000096000000E1ED
:1054E000000000C20100000000006C07DD060A0792
:1054F000D3073A0719072C0700000000660839088F
:10550000FE0822083208880523084469736B20537B
:1055100065742000202800290030002F003A000D7B
:105520000A0031353A35353A3036004A616E20325C
:10553000332032303235003400380043004F4E0003
:10554000424153494334372E42494E00464F52544C
:105550004831332E42494E0043504D32322E42499B
:105560004E0051504D4C44522E42494E0043504D36
:105570004C44522E434F4D00554353444C44522EFD
:1055800042494E00434F532E42494E0046555A4918
:10559000582E42494E004155544F424F4F542E42CF
:0455A000494E000070
:107E800011248FE598E09EBF8DBF24B614BE80E01C
:107E90007AD021FEDDC08EE076D0AFE7BFEF8099CB
:107EA000FECF9096809BFDCFB9B91197F1F782E094
:107EB0008BB988E18AB957D0C82F823559F467D079
:107EC000E0E8FEE7E058F109A89583E085D0309717
:107ED000C9F742C08D7F09F551D0D82F182F80E601
:107EE000E82EF12C40D0D7018D937D011150D1F7B0
:107EF0004ED0C1110EC0A0E6B0E0E199FECFFFBBAD
:107F0000EEBB8D918DBBE29AE19A3196D150A9F7E3
:107F100023C0A0E6B0E045D01FC0C33041F42ED04E
:107F2000C82F35D085911BD0C150E1F715C0C130A5
:107F300071F424D0C82F2BD0E199FECFFFBBEEBB4C
:107F4000E09A8DB30CD03196C150B1F705C0C13560
:107F500011F488E018D01BD08AE301D0ACCF5D9B30
:107F6000FECF8CB90895C09AB89A8BB187FFFDCF28
:107F700084FD10C0A8958CB1C0980895F4DFE82F57
:107F8000F2DFF82FF0CF98E191BD81BD0895EBDFCE
:107F9000803219F088E0F7DFFFCF80EAE0CFFB0105
:107FA000DC0160E86A0F9F01E0388EE7F807C8F44B
:107FB00083E012D0309629F48FE38D938FEC8C936D
:107FC000119781E00D901D9007D03296A613FACF3D
:107FD000F90185E001D081E187BFE89507B600FC93
:067FE000FDCF11240895FD
:067FFA000314D0CFE73FA5
:00000001FF
