:020000040000FA
:100000000C9427050C944F050C944F050C944F0548
:100010000C944F050C944F050C944F050C944F0510
:100020000C944F050C944F050C944F050C947F16BF
:100030000C944F050C94EF160C94C9160C944F05B4
:100040000C944F050C944F050C944F050C942017FD
:100050000C944F053110FD2152FDCDC6FECD3EFF63
:10006000CDF4FD3EFFBC2010BD200D21D9FDCDC635
:10007000FE2188FDCDC6FE76E521D9FDCDC6FE2147
:1000800075FDCDC6FEE1CD4BFFCD3EFFCD3EFFDB86
:1000900001FEFF20FAE9694C6F6164202D20496E52
:1000A00074656C2D486578204C6F61646572202DF5
:1000B0002053323030373138005374617274696EB6
:1000C0006720416464726573733A20004C6F616409
:1000D000206572726F72202D2053797374656D20C4
:1000E00068616C7465640057616974696E67206942
:1000F0006E7075742073747265616D2E2E2E0053B0
:10010000796E746178206572726F72210043686540
:10011000636B73756D206572726F722100694C6F2D
:1001200061643A2000416464726573732076696F7C
:100130006C6174696F6E2100F5D5C501FFFF21A3C5
:10014000FDCDC6FECD3EFFCD72FFFE0D28F9FE0AA5
:1001500028F5FE2028F1CD1AFFCD69FFFE3AC2A393
:10016000FECDE1FE571E00CDBEFECDD6FE3EFFB851
:100170002005B92002444D7CCDBEFE7DCDBEFECD16
:10018000E1FECDBEFEFE01201ECDE1FECDBEFE7B1A
:10019000A72866CD3EFF21D9FDCDC6FE21C9FDCDE4
:1001A000C6FE01FFFF18527AA7282CCDE1FECDBE76
:1001B000FEE5C5A701F0FCED42C1E1DA8EFECD3EC1
:1001C000FF21D9FDCDC6FE21E1FDCDC6FE01FFFF19
:1001D000182777231518D0CDE1FECDBEFE7BA720D2
:1001E000B2CD3EFFC303FECD3EFF21D9FDCDC6FEFD
:1001F00021BBFDCDC6FE01FFFFCD3EFF6069C1D131
:10020000F1C9C54F7B915F79C1C9F5E57EFE002834
:1002100006CD69FF2318F5E1F1C9F5CDE1FE67CD03
:10022000E1FE6FF1C9C5CDF4FECB07CB07CB07CB01
:100230000747CDF4FEB0C1C9CD72FFCD1AFFCD0680
:10024000FF30F5CD23FFCD2EFFC9FE47D0FE303065
:10025000023FC9FE3AD8FE4130023FC937C9FE61AC
:10026000D8FE7BD0E65FC9FE3A3802D607D630E624
:100270000FC9F5E60FC630FE3A3802C607CD69FF52
:10028000F1C9F53E0DCD69FF3E0ACD69FFF1C9E523
:10029000F57CCD58FF7DCD58FFF1E1C9F5C5470F7D
:1002A0000F0F0FCD2EFF78CD2EFFC1F1C9F53E0106
:1002B000D301F1D300C9DB01FEFFCA72FFC9494F68
:1002C000533A20436865636B20534420616E642079
:1002D00070726573732061206B657920746F207272
:1002E00065706561740D0A00202D2046696C653AC1
:1002F0002000206F7065726174696F6E0052454115
:1003000044004F50454E004D4F554E5400206F6EE7
:100310002000554E4B4E4F574E004E4F5F46494CB6
:100320004553595354454D004E4F545F454E41423D
:100330004C4544004E4F545F4F50454E4544004E8F
:100340004F5F46494C45004E4F545F52454144591A
:10035000004449534B5F455252000D0A494F533AEE
:10036000205344206572726F7220003F3F53494F03
:100370003A2041637475616C2062617564726174C6
:10038000653A20003F3F53494F3A2043616C637503
:100390006C617465642064697669736F723A2000D9
:1003A0003F3F53494F3A2044657369726564206248
:1003B000617564726174653A200029207265733D2D
:1003C00030780020280020616464723D3078003F5E
:1003D0003F3F3F53494F3A20526561645265676918
:1003E0007374657220636800292076616C3D3078F3
:1003F0000020280020616464723D3078003F3F3F58
:100400003F53494F3A205772697465526567697363
:1004100074657220636800494F533A205254432058
:1004200073657420617420636F6D70696C652074EE
:10043000696D65202D204E6F773A2000293F205BA3
:10044000592F4E5D203E000A446F20796F7520774A
:10045000616E742073657420525443206174204986
:100460004F5320636F6D70696C652074696D6520F2
:100470002800494F533A2052544320636C6F636BFA
:10048000206661696C7572652100494F533A2052AC
:100490005443204453333233312074656D70657298
:1004A00061747572652073656E736F723A200049CE
:1004B0004F533A20466F756E642052544320445384
:1004C00033323331204D6F64756C652028000D0A7E
:1004D000507265737320435220746F2061636365AB
:1004E00070742C2045534320746F20657869742004
:1004F0006F7220616E79206F74686572206B657908
:1005000020746F206368616E676500494F533A201D
:1005100052544320646174652F74696D6520757051
:100520006461746564202800202E2E2E646F6E6531
:100530002020202020200A005365636F6E64732002
:100540002D3E20004D696E75746573202D3E200090
:10055000486F757273202D3E200020446179202D54
:100560003E2000202020202020202020202020208D
:10057000004D6F6E7468202D3E2000596561722019
:100580002D3E200020000A507265737320542F55B1
:1005900020746F20696E6372656D656E74202B31F7
:1005A000302F2B31206F7220435220746F206163F3
:1005B00063657074000A494F533A20525443206DCA
:1005C000616E75616C2073657474696E673A004979
:1005D0004F533A205A38302069732072756E6E6915
:1005E0006E672066726F6D206E6F770020446F6EAD
:1005F0006500494F533A204C6F6164696E67206211
:100600006F6F742070726F6772616D2E2E2E0029CD
:100610002E2E2E00494F533A204C6F6164696E674D
:1006200020626F6F742070726F6772616D20280096
:100630005400494F533A2043757272656E7420001E
:100640004368616E676564207370656564207769CF
:100650006C6C2062652065666665637469766520EA
:100660006166746572206E657874207265626F6F62
:1006700074210D0A0A002020200D000D202D3E00BF
:10068000202020202020202020202020202020206A
:10069000200D000D202D3E003F566572626F73697C
:1006A0007479206C6576656C200020204F6B0045C6
:1006B0006E74657220796F75722063686F69636507
:1006C000203E200020393A205365742052544320A4
:1006D00074696D652F646174650020383A20536534
:1006E000742073657269616C20706F72742073700E
:1006F0006565642028004F46460020373A20546F35
:1007000067676C652043502F4D204175746F657885
:10071000656320282D3E004D487A290020363A2076
:100720004368616E6765205A383020636C6F636B75
:1007300020737065656420282D3E0020353A2069BD
:100740004C6F6164000D0A20343A204175746F6269
:100750006F6F740020333A204C6F61642F7365749F
:10076000204F53200020323A20466F7274680020D8
:10077000313A2042617369630020303A204E6F2085
:100780006368616E6765202800494F533A205365BE
:100790006C65637420626F6F74206D6F6465206F89
:1007A000722073797374656D20706172616D657408
:1007B0006572733A004F4646004F4E00494F533A18
:1007C0002043502F4D204175746F65786563206913
:1007D000732000494F533A20466F756E6420534989
:1007E0004F41202F2053494F42204F7074696F6E44
:1007F00000494F533A20466F756E6420475045209C
:100800004F7074696F6E004D487A00494F533A201B
:100810005A383020636C6F636B2073657420617489
:100820002000494F533A20466F756E6420657874F6
:10083000656E6465642073657269616C205278200E
:100840006275666665722028256420627974657316
:10085000290D0A000D0A0A5A38302D4D4243322024
:100860002D20413034303631380D0A494F53202D78
:1008700020492F4F2053756273797374656D202D55
:1008800020533232303731382D523239303832330A
:100890002D4430363032350D0A003F3F3F53494F2B
:1008A0003A20577269746542797465203078003F48
:1008B0003F3F53494F3A2052656164427974652045
:1008C0003078003F3F3F53494F3A20527820464905
:1008D000464F204C6576656C3A20003F3F3F5349B8
:1008E0004F3A205478204649464F20537061636543
:1008F0003A20003F3F53494F3A2064697361626C6C
:1009000065206175746F2068616E647368616B65E2
:100910000D0A003F3F53494F3A206175746F2052D2
:1009200054532F4354530D0A003F3F53494F3A202D
:100930006175746F20586F6E2F586F66660D0A00D0
:10094000202D2068616E647368616B653A202564B0
:100950000D0A00202D2062617564726174653A2071
:100960002564003F3F53494F42003F3F53494F41A9
:10097000002073657420636F6E74726F6C3A203060
:1009800078253032580000003A003700340031003A
:1009900000003B003800350032000000390036000E
:1009A00033003000020202020202020204040404C4
:1009B000040404040303030303030303010101010B
:1009C0000101010101020408102040800102040815
:1009D0001020408001020408102040800102040819
:1009E0001020408000000002000000000000000015
:1009F00005040007000000000000000000000000E7
:100A0000000000003F53494F3A204C4352205265AA
:100A10006769737465723A3078000D0A0A494F535A
:100A20003A2042617564207265636F766572792041
:100A3000646F6E65202D20506C6561736520726552
:100A4000626F6F74206E6F7721009818DF27112472
:100A50001FBECFE5D8E0DEBFCDBF24E0A0E3B2E00B
:100A600001C01D92AF3CB207E1F712E0A0E6B0E092
:100A7000E2E9FAE502C005900D92A033B107D9F77B
:100A800015E0C6E2D5E004C02197FE010E94442B88
:100A9000C532D107C9F70E94EC180C943C2D0C9478
:100AA0000000282F9091040381E0913208F03FC0AC
:100AB0008091E0028111FCCF8091030332E03093FA
:100AC000E0022093DF022FEF2093DE0223EE32E0DC
:100AD0003093DD022093DC021092DB029093DA0265
:100AE0001092D9029091D902880F892B8093D90254
:100AF0008091D802813011F51092D8028091D902EC
:100B000083B906B603FCFACF85EC86BF8091E0027C
:100B10008230E1F38091DE028F3F91F08091DE021E
:100B2000803281F08091DE02803371F084E0109297
:100B3000E202109204031092E102089585EEE5CFDF
:100B400080E0F5CF82E0F3CF83E0F1CF81E00C9439
:100B5000510591E09093E102809303031092E20229
:100B60001092040308959091D4028091D3022FEF44
:100B70003FEF981748F4E92FF0E0ED54FD4F208146
:100B800030E09F5F9093D402C90108959091D40200
:100B90008091D3022FEF3FEF981748F4E92FF0E050
:100BA000ED54FD4F208130E09F5F9093D402C90146
:100BB00008952091C3043091C4048217930760F410
:100BC0002091BF043091C0042115310529F0280F70
:100BD000391FF9018081089580E00895FB01A48503
:100BE000B585ED91FC9111970190F081E02D682F72
:100BF000CD01099590E080E0089583E090E00197B1
:100C0000F1F70895843059F028F4813099F082305A
:100C100089F00895853039F0873041F008958FB517
:100C20008F778FBD08958FB58F7DFBCF85B58F7D75
:100C300085BD089583B78F7D83BF0895CF93DF93DC
:100C4000282F30E0F901EC51F64F8491F901EC5373
:100C5000F64FD491F901EC55F64FC491CC23A1F095
:100C600081110E940206EC2FF0E0EE0FFF1FE65606
:100C7000F64FA591B491EC91ED2381E090E009F459
:100C800080E0DF91CF91089580E090E0FACF1F934C
:100C9000CF93DF93282F30E0F901EC51F64F849188
:100CA000F901EC53F64FD491F901EC55F64FC4918C
:100CB000CC23A9F0162F81110E940206EC2FF0E040
:100CC000EE0FFF1FE057F64FA591B4918FB7F89440
:100CD000EC91111108C0D095DE23DC938FBFDF911A
:100CE000CF911F910895DE2BF8CFCF93DF9390E043
:100CF000FC01EC53F64F24918C55964FFC018491E6
:100D00008823C9F090E0880F991FFC01EA57F64F3D
:100D1000A591B491FC01E057F64FC591D4916111B2
:100D20000DC09FB7F8948C91209582238C93888175
:100D3000282328839FBFDF91CF910895623051F41B
:100D40009FB7F8943C91822F809583238C93E88100
:100D50002E2BEFCF8FB7F894EC912E2B2C938FBFC7
:100D6000EACF3FB7F8948091AA029091AB02A0918C
:100D7000AC02B091AD0222B708B600FE05C02F3F0D
:100D800019F00196A11DB11D3FBFBA2FA92F982FB1
:100D90008827BC01CD01620F711D811D911D42E0AC
:100DA000660F771F881F991F4A95D1F708958F9274
:100DB0009F92AF92BF92CF92DF92EF92FF924B0140
:100DC0005C010E94B1066B017C010E94B1066C19A6
:100DD0007D098E099F09683E734081059105A8F33E
:100DE00021E0821A9108A108B10888EEC80E83E0BC
:100DF000D81EE11CF11C81149104A104B10429F74F
:100E0000FF90EF90DF90CF90BF90AF909F908F902A
:100E100008952FB7F8946091A6027091A70280916F
:100E2000A8029091A9022FBF089508950895AF9246
:100E3000BF92CF92DF92EF92FF920F931F93CF93C7
:100E4000DF936C017B018B01040F151FEB015E0129
:100E5000AE18BF08C017D10759F06991D601ED91BE
:100E6000FC910190F081E02DC6010995892B79F75D
:100E7000C501DF91CF911F910F91FF90EF90DF900F
:100E8000CF90BF90AF900895FC01538D448D252FD6
:100E900030E0842F90E0821B930B541710F0CF9614
:100EA000089501970895FC01918D828D981759F04E
:100EB000A28DAE0FBF2FB11D5D968C91928D9F5F5D
:100EC000928F90E008958FEF9FEF0895FC01918D30
:100ED000828D981731F0828DE80FF11D858D90E09D
:100EE00008958FEF9FEF0895FC01918D828D981BDF
:100EF000892F90E0089586E593E00E94740721E031
:100F0000892B09F420E0822F0895FC01A48DA80FFD
:100F1000B92FB11DA35EBE4F2C91848D90E0019638
:100F20008F739927848FA689B7892C93A089B1895B
:100F30008C9182748C93938D848D981306C0028853
:100F4000F389E02D80818F7D80830895EF92FF9259
:100F50000F931F93CF93DF93EC0181E0888F9B8DDC
:100F60008C8D981319C0E889F989808185FF14C098
:100F70009FB7F894EE89FF896083E889F9898081B9
:100F8000827480839FBF81E090E0DF91CF911F91B9
:100F90000F91FF90EF900895F62E0B8D10E00F5FEC
:100FA0001F4F0F731127E02E8C8D8E110CC00FB6C2
:100FB00007FCFACFE889F989808185FFF5CFCE015A
:100FC0000E948507F1CFEB8DEC0FFD2FF11DE35E45
:100FD000FE4FF0829FB7F8940B8FEA89FB898081DE
:100FE0008062CFCF0F931F93CF93DF938C01D0E01C
:100FF000C0E0F801EC0FFD1F6491662341F086E527
:1010000093E00E94A607892B11F02196F2CFCE0122
:10101000DF91CF911F910F910895CF93DF93EC0152
:10102000888D8823B9F0AA89BB89E889F9898C91D0
:1010300085FD03C0808186FD0DC00FB607FCF7CF8C
:101040008C9185FFF2CF808185FFEDCFCE010E948C
:101050008507E9CFDF91CF91089585ED86BF06B66C
:1010600004FCFDCF1092E002089520915602260F55
:101070003327331F21323105ECF42091E002FC01CB
:1010800090E080E0243069F082E00895A09156025B
:101090002191AC014A5C5D4FA40FB52FB11D2C937B
:1010A0000196861798F380915602680F6093560256
:1010B00080E0089581E008950895E091D402809140
:1010C000D302E81730F4F0E0ED54FD4F808190E05A
:1010D00008958FEF9FEF08958091D3029091D402ED
:1010E000891B990B0895CF92DF92EF92FF920F9395
:1010F0001F93CF93DF937C01CB018A012091E10202
:10110000222389F0EB016B01C40ED51ECC15DD0541
:1011100069F06991D701ED91FC910190F081E02D8A
:10112000C7010995F3CF642F0E943508C801DF91EC
:10113000CF911F910F91FF90EF90DF90CF90089586
:10114000CF93DF931F92CDB7DEB769832091E10281
:101150002223F9F020910403203258F021E030E0FE
:10116000FC013383228390E080E00F90DF91CF91E8
:1011700008958091E202E82FF0E0ED51FD4F998152
:1011800090838F5F8093E2028093040381E090E07C
:10119000ECCF61E0CE0101960E943508F7CF682FB1
:1011A00083EB94E00C94A0080F931F93CF93DF93ED
:1011B000082F162FD42F88E60E94A90590E080E022
:1011C0000E94CF088091D702CAE06C2F0E94162B94
:1011D0008295807F682F690F83EB94E00E94A008BE
:1011E0008091D6026C2F0E94162B8295807F682FEB
:1011F000690F83EB94E00E94A0088091D5026C2FC8
:101200000E94162B8295807F682F690F83EB94E0F4
:101210000E94A00881E090E00E94CF08802F6C2FF0
:101220000E94162B8295807F682F690F83EB94E0D4
:101230000E94A008812F6C2F0E94162B8295807F20
:10124000682F690F83EB94E00E94A0088D2F6C2F0C
:101250000E94162B8295807F682F690F83EB94E0A4
:101260000E94A008DF91CF911F910F910C94A605C9
:1012700090E080E008950F931F93E0915403F09164
:1012800055039B01AC012250310941095109868166
:101290009781A085B1850297A109B109281739075F
:1012A0004A075B0778F4A281B0E00E94C52A028950
:1012B000138924893589600F711F821F931F1F9125
:1012C0000F91089560E070E0CB01F9CF0F931F9369
:1012D000CF93DF93EC01E0915403F0915503198211
:1012E00018826C817D818E819F81613071058105BD
:1012F000910581F10681178120853185601771077D
:101300008207930738F5611571058105910539F458
:101310002081233021F466857785808991896887CB
:1013200079878A879B87611571058105910569F029
:101330000E943B096C877D878E879F8790E080E0C5
:10134000DF91CF911F910F910895668577858089F0
:101350009189F0CF81E090E0F3CF8FB9779BFECFFA
:1013600008958FEF0E94AD098FB108950F931F93D9
:10137000CF93DF93C0918A02D0918B022197CD3F0A
:101380008FEFD80721F080E00E94AD09F7CF0E94CF
:10139000B1098F71853079F0D1E0C0E061E084E07F
:1013A0000E9447060E94B1098D2F9C2FDF91CF919B
:1013B0001F910F91089508E813E1C0E9D1E00E9460
:1013C000B1098F3F49F00115110531F3CE010197A5
:1013D000F1F701501109F3CFD1E0C0E0012BF1F298
:1013E000D0E0DCCFFF920F931F93CF93DF93C82FF2
:1013F000D42F152F062FF72E8091290381113FC07E
:1014000083E58DB91EB8C7FF09C040E050E0BA01BE
:1014100087E70E94F209823060F5CF7761E084E0CF
:101420000E9447060E94B10960E084E00E944706DE
:101430000E94B1098C2F0E94AD098F2D0E94AD0929
:10144000802F0E94AD09812F0E94AD098D2F0E942F
:10145000AD0985E9C03421F087E8C83409F081E09E
:101460000E94AD09CAE00E94B10987FF02C0C150C5
:10147000D1F7DF91CF911F910F91FF90089580E5F3
:101480008DB981E08EB9BFCFCF92DF92EF92FF92FC
:101490000F931F93CF93DF937C0169018091290300
:1014A00083FD07C089E0440F551F661F771F8A958B
:1014B000D1F781E50E94F209811108C0C0E4DCE99E
:1014C0000E94B1098F3F29F42197D1F7C1E0D0E004
:1014D00022C08E3FD9F7C2E0D2E0C01BD10BCC199D
:1014E000DD0981E0C81AD10818F00E94B109F9CFCE
:1014F000E114F10401F10E0D1F1D0E94B109F70165
:1015000081937F010E171F07C1F70E94B109219730
:10151000E1F7D0E0C0E061E084E00E9447060E946D
:10152000B109CE01DF91CF911F910F91FF90EF9004
:10153000DF90CF9008950E94B10901501109D9F7A9
:10154000E4CFCF92DF92EF92FF920F931F93CF934E
:10155000DF93EC016A017B0102E010E02EEF31E045
:101560000E94440A892B31F58881998185359A4AF0
:1015700059F526E330E0B701A601CE010E94440AE6
:10158000892B29F4888199818634914489F002E07D
:1015900010E022E530E0B701A601CE010E94440A26
:1015A000892BA1F481E0288139812634314419F452
:1015B00080E001C083E0DF91CF911F910F91FF90F8
:1015C000EF90DF90CF90089582E0F5CF81E0F3CFE8
:1015D0004F925F926F927F928F929F92AF92BF9243
:1015E000CF92DF92EF92FF920F931F93CF93DF93EF
:1015F000CDB7DEB7A4970FB6F894DEBF0FBECDBF50
:10160000109255031092540380912903882339F0D6
:1016100084E00E941E06892B11F40E94B60961E045
:1016200084E00E94470661E084E00E94750661E064
:1016300085E00E94750661E087E00E94750661E022
:1016400084E00E94750683E58DB91EB861E084E0F0
:101650000E9447061AE00E94B1091150E1F740E0EC
:1016600050E0BA0180E40E94F209182F813009F499
:1016700041C010E01093290361E084E00E94470616
:101680000E94B10982E090E01123E9F040E050E0CF
:10169000BA01CE0101960E94A10AC12CD12C76017B
:1016A000813009F096C000E110E02EEB31E040E01F
:1016B00050E0BA01CE0101960E94440A892B09F438
:1016C00078C081E090E0A4960FB6F894DEBF0FBE1C
:1016D000CDBFDF91CF911F910F91FF90EF90DF90E1
:1016E000CF90BF90AF909F908F907F906F905F90C2
:1016F0004F9008954AEA51E060E070E088E40E946B
:10170000F209813091F5CE0101967C016E0195E0E0
:10171000C90ED11C87010E94B109F80181938F0184
:10172000CE16DF06C1F78B81813009F0A2CF8C8104
:101730008A3A09F09ECF80E1C82E87E2D82E90E940
:10174000A92EBB24B39440E050E060E070E489EE41
:101750000E94F209882309F4C9C0C5010197F1F775
:10176000F1E0CF1AD10879F784CF40E050E0BA0118
:1017700089EE0E94F20901E4823010F412E009EED1
:10178000A0E1EA2EA7E2FA2EB0E9CB2EDD24D39415
:1017900040E050E0BA01802F0E94F209882309F44A
:1017A000BBC0C6010197F1F7F1E0EF1AF10881F72C
:1017B00060CF8D81811103C086E090E084CFC98421
:1017C000DA84EB84FC84B701A601CE0101960E9465
:1017D000A10A833009F475CF8111EECF04E210E045
:1017E0002DE030E0B701A601CE0101960E94440A27
:1017F000892B09F066CF2A853B8550E040E0211512
:1018000031054105510521F4288D398D4A8D5B8DB7
:10181000AC81B0E00E94C52A4B015C014A815B812A
:1018200070E060E0C40ED51EE61EF71EC0923403C1
:10183000D0923503E0923603F0923703E981E093CA
:101840002C038D819E8190932F0380932E030F8113
:10185000188530E020E0011511052105310521F43E
:101860000C891D892E893F89F4E096958795FA9514
:10187000E1F72C01712C612C041B150B260B370B87
:10188000C901B801681979098A099B0964197509A0
:10189000860997092E2F30E050E040E00E94222B6D
:1018A000DA01C9010296A11DB11D80933003909306
:1018B0003103A0933203B0933303265F3F404109C5
:1018C00051092F3F3F4E4105510588F1873F9F4FFA
:1018D000A105B10588F570CF82E080932A03D50178
:1018E000C4018C0D9D1DAE1DBF1D2DC040E050E0FC
:1018F000BA018AE70E94F2098111BBCE0E94B109A8
:10190000F70181937F010E171F07C1F789811CE042
:1019100086FDB0CE14E0AECE40E052E060E070E074
:1019200080E50E94F209882309F4A4CEA2CE873F65
:101930009F4FA105B10580F283E080932A0388A11F
:1019400099A1AAA1BBA18093380390933903A093D6
:101950003A03B0933B03C40CD51CE61CF71C8C0C5B
:101960009D1CAE1CBF1C80923C0390923D03A09234
:101970003E03B0923F0310922B038AE293E09093D0
:1019800055038093540390E080E09DCE0F931F9306
:10199000CF93DF9300D000D0CDB7DEB762307105B2
:1019A0008105910528F461E070E080E090E055C089
:1019B000E0915403F091550306811781208531850C
:1019C000601771078207930770F7AB01BC01808134
:1019D000823031F1833039F79A012F773327220F84
:1019E000331F220F331F97E07695679557954795DC
:1019F0009A95D1F782859385A485B585480F591F9F
:101A00006A1F7B1F04E010E0CE0101960E94440A89
:101A1000892B49F669817A818B819C819F701DC0D9
:101A20009A013327220F331F452F562F672F772711
:101A300082859385A485B585480F591F6A1F7B1F32
:101A400002E010E0CE0101960E94440A892B09F0C1
:101A5000AACF69817A8190E080E00F900F900F907B
:101A60000F90DF91CF911F910F9108956F927F9208
:101A70008F929F92AF92BF92CF92DF92EF92FF929E
:101A80000F931F93CF93DF93C0915403D0915503CD
:101A9000FC0111821082209709F4AFC0298120FF38
:101AA000AFC00A8D1B8D2C8D3D8D4E895F89688D51
:101AB000798D68017901C41AD50AE60AF70AB701D7
:101AC000A601403251056105710520F040E250E069
:101AD00060E070E05C017A0139E0832E33E0932E00
:101AE000612C42E0742EE114F10409F48CC08E895B
:101AF0009F89A88DB98DAC01BD01517066277727EC
:101B0000452B462B472B09F04AC0DA80DA94AC010A
:101B1000BD0129E076956795579547952A95D1F7A8
:101B2000D42251F5892B8A2B8B2BD9F46E8D7F8D86
:101B300088A199A16230710581059105C8F41982C7
:101B400081E090E0DF91CF911F910F91FF90EF9096
:101B5000DF90CF90BF90AF909F908F907F906F90CD
:101B600008956AA17BA18CA19DA10E94C60CE2CF21
:101B70006AA37BA38CA39DA36AA17BA18CA19DA139
:101B80000E943B096115710581059105C1F26D0D3A
:101B9000711D811D911D6EA37FA388A799A72E8912
:101BA0003F893170C301821B930B67018E159F051E
:101BB00008F46C014EA15FA168A579A58601C40156
:101BC0000E94440A892B09F0BACF8E899F89A88D7B
:101BD000B98D8C0D9D1DA11DB11D8E8B9F8BA88F66
:101BE000B98F8C0C9D1CEC18FD08F501808191814A
:101BF000C80ED91ED182C08276CF85E090E0A2CFF8
:101C000084E090E09FCF90E080E09CCF4F925F9285
:101C10006F927F928F929F92AF92BF92CF92DF92FC
:101C2000EF92FF92CF93DF9300D000D000D0CDB7DA
:101C3000DEB720915403309155033E832D83211547
:101C4000310509F40CC1D90111962C91119720FF8F
:101C500009C15A96CD90DD90ED90FC905D976C1582
:101C60007D058E059F0510F46B017C01ED81FE81E1
:101C700046885788608C718C168A178A108E118E50
:101C8000C114D104E104F10409F4E6C08280912C6E
:101C9000B12CA12C39E0880C991CAA1CBB1C3A95CC
:101CA000D1F7411451046104710409F470C0B1E02A
:101CB0004B1A510861087108C701B60161507109DA
:101CC00081099109A50194010E94222B29833A835D
:101CD0004B835C83C301B201A50194010E94222BB6
:101CE00089819A81AB81BC8182179307A407B507CC
:101CF00008F44DC088279927DC0188199909AA0999
:101D0000BB0984219521A621B721ED81FE81868B17
:101D1000978BA08FB18FC81AD90AEA0AFB0A62A171
:101D200073A184A195A18C149D04AE04BF0408F096
:101D300058C00E94C60C623071058105910568F09B
:101D4000AD81BE8116964D905D906D907C901997F7
:101D5000641575058605970540F1ED81FE811182B8
:101D600081E090E026960FB6F894DEBF0FBECDBF9F
:101D7000DF91CF91FF90EF90DF90CF90BF90AF9029
:101D80009F908F907F906F905F904F900895AD815E
:101D9000BE815E966D917D918D919C919197FD0193
:101DA00062A373A384A395A3BECFAD81BE81929697
:101DB0006D937D938D939C93959756964D905D90E2
:101DC0006D907C905997480C591C6A1C7B1CFD0136
:101DD000468A578A608E718EC818D908EA08FB08AF
:101DE000A2CFAD81BE8156968D909D90AD90BC9056
:101DF0005997C80CD91CEA1CFB1CFD01C68AD78A5E
:101E0000E08EF18E0E943B09AB01BC0141155105EA
:101E10006105710529F4AD81BE8111961C92A0CF98
:101E2000ED81FE8182818150990B092E000CAA0B55
:101E3000BB0B29E0F694E794D794C7942A95D1F781
:101E40008C219D21AE21BF21480F591F6A1F7B1F86
:101E500046A357A360A771A790E080E083CF85E0F9
:101E600090E080CF84E090E07DCF4F925F926F92C0
:101E70007F92BF92CF92DF92EF92FF920F931F93C8
:101E8000CF93DF93CDB7DEB7EC970FB6F894DEBFF4
:101E90000FBECDBFE0905403F0905503E114F10460
:101EA00009F404C1F70111829E012F5C3F4F3CA34E
:101EB0002BA39C016901F90180812F5F3F4F803284
:101EC000C9F38F3209F469011DA21EA21FA218A630
:101ED000F6018081A0E2BA2E803208F0D4C0CE0193
:101EE00081960E9466091982009709F407C1EC9651
:101EF0000FB6F894DEBF0FBECDBFDF91CF911F911B
:101F00000F91FF90EF90DF90CF90BF907F906F90F8
:101F10005F904F90089520E0E0E088E0D1C0C30ECC
:101F2000D11C81E0913208F080E01B968C93CE01A9
:101F300081960E9466090097D1F629A13AA12F70D7
:101F40003327F5E0220F331FFA95E1F74DA55EA583
:101F50006FA578A900E210E0CE0101960E94440A24
:101F6000892B19F081E090E0C2CF8981811103C0F3
:101F700083E090E0BCCF8C8583FD13C00BA11CA136
:101F80009E012F5F3F4FD801B801655F7F4F6A17F1
:101F90007B0709F4AEC0F90141919F019D9149175A
:101FA000B1F309A11AA10F5F1F4F11F38DA59EA5D3
:101FB000AFA5B8A90097A105B105D1F298012F707E
:101FC0003327232BB9F40196A11DB11D8DA79EA720
:101FD000AFA7B8AB69A57AA58BA59CA5F70161153C
:101FE00071058105910549F48481958108171907C8
:101FF00008F0BECF1AA309A3A0CF2281E22FE1509F
:10200000FF0BAF019801E4E036952795EA95E1F7DB
:1020100024233523232B71F70E94C60C62307105EF
:102020008105910508F49ECFF701468057806084B2
:102030007184641575058605970508F099CF69A721
:102040007AA78BA79CA70E943B096DA77EA78FA7A5
:1020500098ABD0CF84FF8CCFF70180818330F1F42F
:102060008D899E89B0E0A0E0DC01992788274B8DFF
:102070005C8D70E060E0842B952BA62BB72B8DA395
:102080009EA3AFA3B8A7ABA1BCA1FD01CD010B9648
:102090008E179F0709F43FCFB192FACF80E090E00E
:1020A000DC01E5CF80E090E0DC013DC085E090E020
:1020B0001ECF883009F033CF9BE0282FE32F892FE4
:1020C00031E03E0FEC0DFD2DF11D9081913208F4B1
:1020D00026CF9F3209F423CF9E3259F3281708F0F8
:1020E0001ECFFD01E20FF11D9083982F81E0820F3A
:1020F000E4CFF8019385992309F4ACCF8981882333
:1021000009F436CF8C8584FD33CFE0915403F091F0
:1021100055038081833031F68D899E89B0E0A0E03F
:10212000DC01992788274B8D5C8D70E060E0842B63
:10213000952BA62BB72BF701868F978FA0A3B1A362
:102140008D8D9E8DAF8DB8A1828F938FA48FB58F0B
:10215000168A178A108E118E81E0818390E080E0CC
:10216000C6CECF93DF93D82FC0E061E08FE00E940E
:10217000470660E08FE00E944706CF5FDC13F5CF93
:10218000DF91CF9108951F93CF93DF93182FD92F0D
:1021900081E00E94B11060E082E00E944706CFEF2C
:1021A000CABB81E28BBB82E00E94B1101ABACBBBE2
:1021B00082E00E94B110CABB1BBB83E00E94B11039
:1021C000DBBB82E00E94B1101ABACBBB61E082E0B7
:1021D000DF91CF911F910C944706CF93DF93D82FB7
:1021E00081E00E94B11060E082E00E944706CFEFDC
:1021F000CABB86E38BBB82E00E94B1101ABACBBB8C
:1022000082E00E94B110CABBDBBB82E00E94B11029
:102210001ABACBBB61E082E00E94470683E00E94CD
:10222000B11081E00E94B11060E082E00E94470698
:10223000CABB83E28BBB82E00E94B1101ABACBBB4F
:1022400061E082E00E94470683E0DF91CF910C9429
:10225000B11086E593E00E947407181619069CF4E5
:1022600080919A02813079F480916B00882359F033
:1022700060E081E00E944706809193028160809334
:10228000930210926B0008950E947B0781110C94B9
:1022900029110895AC018091E0028111FCCF962FA5
:1022A00081E08093E0028093DF022FEF2093DE0233
:1022B00023EB32E03093DD022093DC021092DB024C
:1022C0002FEF260F2093DA028093D9022091D902B2
:1022D000440F551F822F842B8093D9028091D802FE
:1022E0008130D1F41092D8028091D90283B906B618
:1022F00003FCFACF85EC86BF8091E0028130E1F3E8
:102300008091DB02861710F49091DB021092D402C8
:102310009093D302892F089585EEEDCFCF9388E671
:102320000E94A90590E080E00E94CF080E94A605C7
:1023300062E170E088E690E00E944A110E94C605C2
:10234000982F92959770CAE08F709C9F800D1124F2
:102350008093D7020E94C605982F92959F708F7028
:102360009C9F800D11248093D6020E94C605982F51
:10237000929593708F709C9F800D11248093D5024D
:102380000E94C6050E94C605982F92959F708F7077
:102390009C9F800D11248093B2020E94C605982F45
:1023A00092959F708F709C9F800D11248093B10235
:1023B0000E94C605982F92959F708F709C9F800DEC
:1023C00011248093B0020E94C605C150E1F70E941B
:1023D000C6058093AF02CF910895FC0101900020C3
:1023E000E9F73197AF01481B590BBC0186E593E033
:1023F0000C9417078F929F92AF92BF920F931F93E7
:10240000CF93DF93CDB7DEB7A1970FB6F894DEBFB9
:102410000FBECDBF19A2423008F44AE08E010F5D15
:102420001F4F842E912CB12CA12CA50194010E9448
:10243000222BE62FB901CA01EA30F4F4E05DD8019D
:10244000EE938D01232B242B252B79F790E080E050
:10245000109719F0CD010E94ED11A1960FB6F894D6
:10246000DEBF0FBECDBFDF91CF911F910F91BF9007
:10247000AF909F908F900895E95CE1CF462F682F31
:1024800070E090E080E00C94FA11CF92DF92EF922E
:10249000FF92CF93DF936C01990FEE08FF08F7FED0
:1024A00019C06DE286E593E00E94A607EC0166275D
:1024B0007727CB016C197D098E099F094AE00E949C
:1024C000FA118C0F9D1FDF91CF91FF90EF90DF905D
:1024D000CF9008954AE0C701B601DF91CF91FF90F8
:1024E000EF90DF90CF900C94FA11009711F00C94BC
:1024F000ED1190E080E008951F93CF93DF9300D01B
:10250000CDB7DEB7182F86E991E00E9475126AE018
:1025100070E0812F0E943E12105D1093620080E6F1
:1025200090E00E94350FCE0101960E94360D898100
:1025300080939002882361F080EA91E00E947512F6
:1025400089E093E00E94751283EA91E00E9475127F
:102550000F900F90DF91CF911F910895CF93C82FC7
:102560008A3020F485EA91E00E9475126AE070E0FA
:102570008C2FCF910C943E1281110E948E1180916C
:10258000B2020E94AE1287EA91E00E947512809119
:10259000B1020E94AE1287EA91E00E94751280910A
:1025A000B0020E94AE128EE991E00E9475128091F5
:1025B000D5020E94AE1289EA91E00E9475128091C4
:1025C000D6020E94AE1289EA91E00E9475128091B3
:1025D000D7020C94AE128BEA91E00C94ED11CF93DC
:1025E000DF930E94F207EC010E94EB128C0F9D1FFB
:1025F000DF91CF91089586E593E00E947407181645
:1026000019062CF486E593E00E945307F4CF8EEB75
:1026100092E00E94EF1286E593E00E94740718167C
:102620001906CCF70895CF93DF930E943E12EC0178
:102630000E94EB128C0F9D1FDF91CF910895FF92A6
:102640000F931F93CF93DF93C82FF62ED42F062F0F
:1026500010E08091AE02843040F18DEF93E00E9453
:10266000F2076AE070E08C2F0E943E1284EF93E044
:102670000E94F20760E170E08F2D0E943E1281EF10
:1026800093E00E94F207C801880F991F880F991FD5
:1026900080549F4F0E94751288EE93E00E94F207CB
:1026A00060E170E08D2F0E94131388E40E94A90559
:1026B00083E0000F111F8A95E1F78C2F90E0880FBF
:1026C000991F802B912B0E94CF086D2F83EB94E0F4
:1026D0000E94A00881E0DF91CF911F910F91FF90A0
:1026E0000C945105FF920F931F93CF93DF93F82E15
:1026F000062F88E40E94A905C02FD0E09E0143E088
:10270000220F331F4A95E1F78F2D90E0880F991F14
:10271000822B932B0E94CF0880E00E94510561E03C
:1027200070E088E490E00E944A110E94C605182FCC
:102730008091AE02843040F18FEC93E00E94F2076A
:102740006AE070E08F2D0E943E1286EC93E00E94BA
:10275000F20760E170E0802F0E943E1283EC93E06C
:102760000E94F207CE01880F991F880F991F805889
:102770009F4F0E9475128AEB93E00E94F20760E17E
:1027800070E0812F0E941313812FDF91CF911F9151
:102790000F91FF900895CF93DF93D82F63E00E94AD
:1027A0007213807CC82FC3608091AE02882349F0E9
:1027B00084E09AE00E94F2076AE070E08C2F0E94A9
:1027C00013134C2F63E08D2FDF91CF910C941F13C7
:1027D0004F925F926F927F928F929F92AF92BF9231
:1027E000CF92DF92EF92FF92CF93DF93C82F4A01EF
:1027F0005B0164E00E94721324E087FF21E030E077
:1028000050E040E060E072EC81E090E00E94222B1A
:1028100029013A01CA01B901A50194010E94222BA4
:1028200069017A0163E08C2F0E947213D82F482F20
:10283000406863E08C2F0E941F134C2D60E08C2FAA
:102840000E941F134D2D552761E08C2F0E941F13EE
:102850004D2F4F7763E08C2F0E941F13EE24FF242F
:10286000C301B201A70196010E94222B29013A015E
:102870008091AE02823008F180EA93E00E94F20774
:102880004AE0C501B4010E94FA110E94EB1284E8EB
:1028900093E00E94F2074AE0C701B6010E94FA11D4
:1028A0000E94EB128BE693E00E94F2074AE0C3011C
:1028B000B2010E94FA110E94EB12C301B201DF9132
:1028C000CF91FF90EF90DF90CF90BF90AF909F900F
:1028D0008F907F906F905F904F900895CF93DF938C
:1028E0000E94ED11EC010E94EB128C0F9D1FDF91F5
:1028F000CF9108950F931F93CF93DF93D82FC62FB7
:102900008A018AE593E00E94F2076AE070E08C2F6A
:102910000E943E1280EA91E00E9475128FE393E0DC
:10292000C330C1F058F481E593E0C13099F087E4F9
:1029300093E0C23079F082E193E00CC088E293E04A
:10294000C53041F084E393E0C53020F08AE193E0A4
:10295000C63089F70E94F2078DE093E00E94F207EB
:1029600082E093E0D13031F087E093E0D23011F48F
:102970008DEF92E00E94F20782EF92E00E94F20750
:102980000115110539F088EE92E00E94F207C801A6
:102990000E94751283EA91E0DF91CF911F910F9110
:1029A0000C946E14CF93DF93CDB7DEB72E970FB68E
:1029B000F894DEBF0FBECDBF8EEE95E09A87898773
:1029C0001C861B8682E08C8386E593E09E878D873C
:1029D000AE01495E5F4F6D897E89CE0101960E94EE
:1029E00023282E960FB6F894DEBF0FBECDBFDF9121
:1029F000CF910895FC0180819181009711F00C9492
:102A0000E72760E070E0CB010895FC0180819181AF
:102A1000009711F00C94E62B0895EF92FF920F931C
:102A20001F93CF93DF93EC017B018A018881998109
:102A3000009729F02A813B812417350788F4B801D3
:102A40006F5F7F4F0E946F2C009791F0998388836E
:102A50001B830A832C813D81232B11F4FC011082FE
:102A60001D830C83B701888199810E94352D0CC08C
:102A700088819981009711F00E94E62B19821882B3
:102A80001D821C821B821A82CE01DF91CF911F9181
:102A90000F91FF90EF900895AF92BF92CF92DF9287
:102AA000EF92FF920F931F93CF93DF93EC016B0193
:102AB0005A0179012417350720F48B2D5901E42E92
:102AC000F82E198218821B821A821D821C8250E005
:102AD00040E06DEA71E0CE010E940D15D60114961A
:102AE0000D911C91A016B10628F5E016F10608F428
:102AF0008701D601ED91FC911197E00FF11FF08055
:102B000010826D917C916A0D7B1D61157105F1F04C
:102B1000FB0101900020E9F73197AF01461B570BED
:102B2000CE010E940D15F60180819181080F191FB9
:102B3000D801FC92CE01DF91CF911F910F91FF90B0
:102B4000EF90DF90CF90BF90AF90089588819981EA
:102B5000009711F00E94E62B198218821D821C82B8
:102B60001B821A82E0CF1F93CF93DF93EC01162FC5
:102B70000E94B02A181739F0612FCE01DF91CF9152
:102B80001F910C94B82ADF91CF911F9108950C9456
:102B9000B02ACF92DF92EF92FF920F931F93CF93C1
:102BA0000E9409076B017C01C1E086E593E00E9469
:102BB0007407892B09F09BC00E9409076C197D09D5
:102BC0008E099F09683B7B4081059105A0F462E076
:102BD0008DE00E9475068DE00E941E06892B09F08B
:102BE000C0E061E08DE00E9475066AE070E080E080
:102BF00090E00E94D7060E940907009105031091FA
:102C000006032091070330910803601B710B820BB0
:102C1000930B6D32714081059105A0F080E00E9418
:102C20001E0661E0892B09F060E080E00E94470603
:102C30000E940907609305037093060380930703BE
:102C4000909308030E9409076C197D098E099F095A
:102C5000693B7B408105910508F4A7CFCC2309F49B
:102C6000A4CF8FE090E00E94C715893009F49DCF72
:102C700060E080E00E94470669E08FE090E00E94FB
:102C8000B3158AE19AE00E94EF120E940907C090F2
:102C90000503D0900603E0900703F09008036C1939
:102CA0007D098E099F09653671058105910568F3D7
:102CB00080E00E941E0661E0892B09F060E080E060
:102CC0000E9447068DE00E941E0661E0892B09F0F4
:102CD00060E08DE00E9447060E94090760930503AB
:102CE000709306038093070390930803CECFCF9190
:102CF0001F910F91FF90EF90DF90CF9008951F925A
:102D00000F920FB60F9211242F933F938F939F939F
:102D1000AF93BF938091A6029091A702A091A802C1
:102D2000B091A9023091A50223E0230F2D3768F15D
:102D300026E8230F0296A11DB11D2093A5028093C2
:102D4000A6029093A702A093A802B093A902809133
:102D5000AA029091AB02A091AC02B091AD02019693
:102D6000A11DB11D8093AA029093AB02A093AC0267
:102D7000B093AD02BF91AF919F918F913F912F91F1
:102D80000F900FBE0F901F9018950196A11DB11DB9
:102D9000D4CF1F920F920FB60F9211242F933F930F
:102DA0004F935F936F937F938F939F93AF93BF9353
:102DB000EF93FF9386E593E00E948507FF91EF91E3
:102DC000BF91AF919F918F917F916F915F914F9143
:102DD0003F912F910F900FBE0F901F9018951F924B
:102DE0000F920FB60F9211242F938F939F93EF930F
:102DF000FF93E0916603F09167038081E0916C039B
:102E0000F0916D0382FD1AC0908180916F038F5FF6
:102E100020917003821741F0E0916F03F0E0EA5ACD
:102E2000FC4F958F80936F03FF91EF919F918F914E
:102E30002F910F900FBE0F901F9018958081F4CFA7
:102E40001F920F920FB60F9211242F933F934F931F
:102E50005F936F937F938F939F93AF93BF93EF9302
:102E6000FF9381B1887F803609F44AC0F0F588323B
:102E700009F4A3C018F5803109F499C0B8F4882387
:102E800009F4FDC0883009F492C0FF91EF91BF9121
:102E9000AF919F918F917F916F915F914F913F91F2
:102EA0002F910F900FBE0F901F901895883109F445
:102EB00084C0803251F78093DE0214C0803409F45C
:102EC000A0C040F48033B9F38833F9F68093DE0272
:102ED00085ECB6C0803509F485C0883509F499C001
:102EE000883499F60E942D08D0CF883909F48FC014
:102EF00030F5883729F050F4883611F0803729F6FC
:102F000083E08093E0021092780254C0883809F47C
:102F10007EC0803919F0803809F0B7CF80917802EF
:102F2000803208F074C0E091780281E08E0F8093C7
:102F3000780283B1F0E0E85AFD4F80833BC0803BCC
:102F400039F0E0F4803A09F47FC0883A09F09DCF67
:102F500084E08093E0021092570210925602E091B2
:102F60007B02F0917C0209958091560281110FC07D
:102F700081E0809356021092360209C0803C09F429
:102F8000A7CF883C09F4A4CF883B09F07ECFE0911D
:102F9000570281E08E0F80935702F0E0EA5CFD4F0C
:102FA000808183B990915702809156022EC0809102
:102FB000D90283B985EC86BF68CF9091DB028091FE
:102FC000DA029817A8F58091DC029091DD02E09179
:102FD000DB0221E02E0F2093DB02E80FF92FF11D19
:102FE0008081E7CF2091DC023091DD02E091DB02AD
:102FF00081E08E0F8093DB0283B1E20FF32FF11D8E
:1030000080839091DB028091DA02981798F285E82C
:10301000D2CF2091DC023091DD02E091DB0281E031
:103020008E0F8093DB0283B1E20FF32FF11D8083BB
:103030008091DF02811156CF81E08093D80284EA2B
:1030400086BF1092E00221CF85EC86BF1092E0028D
:1030500080917802803230F4E0917802F0E0E85A12
:10306000FD4F10826091780270E0E0917902F0915A
:103070007A0288E592E009951092780206CF1092C4
:10308000DE0230CFEF92FF920F931F93CF93DF9327
:103090000097C9F0EA018C012097B1F1E0908A0213
:1030A000F0908B02E114F10479F1F80181918F0124
:1030B0000E94AD09F1E0EF1AF108F0928B02E09264
:1030C0008A022197E9CF411551056105710529F162
:1030D0008091290383FD07C089E0440F551F661FB7
:1030E000771F8A95D1F788E50E94F20981111DC0EA
:1030F0008FEF0E94AD098EEF0E94AD0980E092E053
:1031000090938B0280938A0290E080E0DF91CF91D0
:103110001F910F91FF90EF900895DF91CF911F9134
:103120000F91FF90EF900C94B60981E090E0EECF04
:10313000E6E5F3E01382128288EE93E0A0E0B0E0CF
:1031400084839583A683B78326E731E03183208388
:1031500020E430E03587248749E250E057874687EE
:103160004BE250E0518B408B4AE250E0538B428B54
:10317000358B248B2CE230E0378B268B118E128E10
:10318000138E148EE3EBF4E0138212828483958312
:10319000A683B78388E891E091838083E5ECF4E02F
:1031A00011821082138212821582148248E050E04C
:1031B0006EEA71E0CF010E940D15EFEBF4E0118291
:1031C000108213821282158214824BE050E067EB6A
:1031D00071E0CF010C940D15CF93DF93CDB7DEB71F
:1031E00028970FB6F894DEBF0FBECDBF789483B793
:1031F000836083BF83B7886483BF89B7816089BFD9
:1032000082E08EBD8EB581608EBD8FB581608FBD31
:1032100085B5846085BD85B5806485BD87E886B940
:103220001AB861E086E10E94750660E086E10E94BE
:10323000470661E080E00E94750660E080E00E9441
:10324000470662E08DE00E9475068DE00E941E0632
:103250008C0161E08DE00E94750661E08DE00E94C6
:10326000470662E081E00E94750661E081E00E940D
:10327000750661E081E00E94470661E082E00E94FD
:10328000750661E082E00E94470660E083E00E94EC
:10329000750662E08EE00E94750661E08EE00E9495
:1032A000750661E08EE00E9447061ABA8FEF8BBB6D
:1032B00062E085E10E94750662E084E10E94750685
:1032C00062E083E10E94750662E082E10E94750679
:1032D00061E08CE00E94750661E08CE00E94470688
:1032E00061E08BE00E94750660E08BE00E9447067B
:1032F00061E08FE00E94750660E086E10E9447066B
:1033000086E00E94B11061E086E10E94470682E0FB
:103310000E94B11062E08AE00E94750661E087E1D8
:103320000E94750660E087E10E94470664E670E04F
:1033300080E090E00E94D70661E087E10E944706A6
:1033400064EF71E080E090E00E94D7068DE090E0AD
:103350000E94C715823028F061E08DE090E00E9465
:10336000B3158DE090E00E94C715809389028EE02E
:1033700090E00E94C7158093A002863038F060E08C
:103380008EE090E00E94B3151092A0021092D40239
:103390001092D3021092E202109204031092E00203
:1033A000FF24F394F092DF021092D80261E081E1F1
:1033B0000E94470661E080E10E944706089809984C
:1033C00088E480B985E486BF85E197E090937C022C
:1033D00080937B0286E197E090937A028093790252
:1033E0008CE080B980E20E94A9050E94A6058111A7
:1033F0000FC0F092A10280E20E94A9058CE090E04B
:103400000E94CF0885E090E00E94CF080E94A605A8
:1034100088E40E94A9050E94A605811180C045E5A7
:1034200067E00E941F1367E080E00E9472138535F9
:1034300009F075C04AEA67E080E00E941F1367E068
:1034400080E00E9472138A3A09F069C045E567E09E
:1034500081E00E941F1367E081E00E9472138535AE
:1034600009F05DC04AEA67E081E00E941F1367E04F
:1034700081E00E9472138A3A09F051C081E0809382
:1034800095026EE080E00E947213482F48606EE063
:1034900080E00E941F1362E080E00E947213482FB8
:1034A000416062E080E00E941F1362E081E00E94C0
:1034B0007213482F416062E081E00E941F1340EBCD
:1034C00054E060E070E080E00E94E81340EB54E0DC
:1034D00060E070E081E00E94E81380E00E94CB137E
:1034E00081E00E94CB1362E080E00E947213482FBB
:1034F000426062E080E00E941F1362E081E00E946F
:103500007213482F426062E081E00E941F1360E066
:1035100080E00E94721360E081E00E9472138FE0ED
:1035200090E00E94C7158A3028F069E08FE090E0B3
:103530000E94B3158FE090E00E94C715812C22EC09
:10354000922EAA24A394B12C893050F4E82FF0E0F5
:10355000EE0FFF1FE45FFE4F80809180B12CA12C05
:1035600060E079E08DE390E0A50194010E94222BB8
:1035700021503109410951095695479537952795AD
:10358000E0916603F091670382E08083811441EE4D
:103590009406A104B10421F0211550E13507A8F0EB
:1035A000E0916603F0916703108260E874E88EE1B1
:1035B00090E0A50194010E94222B2150310941097C
:1035C00051095695479537952795B6E5EB2EB3E00B
:1035D000FB2EE0916203F09163033083E09164037A
:1035E000F0916503208310926E03E0916A03F091DD
:1035F0006B0386E88083E0916803F0916903808122
:1036000088698083E0916803F091690380818F7DF0
:10361000808384E598E00E94EF1281E08F931F92EF
:1036200082E298E09F938F93FF92EF920E94D214D0
:103630008BE098E00E94F2070F900F900F900F9090
:103640000F900F9080918902882309F4AFC083EC1A
:1036500091E00E94751287E098E00E94EF1288E6E0
:103660000E94A9050E94A605811133C18FEA94E04A
:103670000E94F20781E00E94BC1283EA91E00E945E
:103680006E148AE894E00E94F2078091AF02082E3F
:10369000000C990B0E94451287EC91E00E946E1479
:1036A00088E60E94A9058FE090E00E94CF080E9462
:1036B000A60561E070E088E690E00E944A110E9451
:1036C000C60587FFE2C028E030E046E050E065EC48
:1036D00074E0CE0101960E944C15CE0101960E9425
:1036E000FA146093D702CE0101960E94051525E0D9
:1036F00030E043E050E065EC74E0CE0101960E94BA
:103700004C15CE0101960E94FA146093D602CE01A8
:1037100001960E94051522E030E050E040E065ECA3
:1037200074E0CE0101960E944C15CE0101960E94D4
:10373000FA146093D502CE0101960E94051526E089
:1037400030E044E050E06FEB74E0CE0101960E945F
:103750004C15CE0101960E94FA146093B202CE017C
:1037600001960E94051590E080E00E94D905EFEBDC
:10377000E80FE33108F02EC00E2E000CFF0BED53C6
:10378000F44E0C94442B4D1CEA1BEA1B671CEA1BED
:103790004B1CEA1BEA1BEA1BD91BEA1BEA1B571C42
:1037A000651C631CEA1BEA1BEA1B611C85EC91E0AB
:1037B00050CF81E090E00E94D905813609F467C0BE
:1037C00082E090E00E94D9058E3609F062C086E062
:1037D0008093B1022BE030E049E050E06FEB74E001
:1037E000CE0101960E944C15CE0101960E94FA145A
:1037F0006093B002CE0101960E94051582E794E025
:103800000E94EF1287E494E00E94F20780E00E9499
:10381000BC128CE394E00E94F2070E94C91586E571
:1038200093E00E94530780938702982F9F7D9935DC
:1038300011F09E3491F7682F86E593E00E94A60769
:103840000E94EB12809187028F7D893589F4409127
:10385000B0026091B1028091B2020E94D40887E167
:1038600094E00E94F20781E00E94BC120E94EB12D9
:1038700088E60E94A9058FE090E00E94CF0888E0CA
:1038800090E00E94CF080E94A60581E023C081E05D
:103890009FCF87E09DCF82E09BCF82E090E00E94A7
:1038A000D905823711F484E093CF88E091CF82E08C
:1038B00090E00E94D905823711F483E089CF85E03A
:1038C00087CF89E085CF8AE083CF8BE081CF8CE002
:1038D0007FCF80E0809392028091A102882321F023
:1038E00081EF97E00E94EF1280919502882321F0EA
:1038F00083ED97E00E94EF128CEB97E00E94F207B5
:103900008CE090E00E94C715823028F060E08CE0E7
:1039100090E00E94B3158CE090E00E94C715809360
:1039200091028823F9F089EB97E00E94EF120E9440
:10393000E80A0E94E80A8AE090E00E94C715809396
:103940008802012B19F0853008F4E6C086E593E083
:103950000E9474071816190644F486E593E00E9445
:103960005307F4CF85EB97E0E0CF0E94EB1289E894
:1039700097E00E94EF120E94EB121091880215301E
:1039800008F082C089E797E00E94F207812F90E05B
:1039900001960E94451283EA91E00E946E1410E3A2
:1039A0008FE697E00E94EF1285E697E00E94EF1203
:1039B00084E597E00E94F2078091A0020E947C12A9
:1039C00085E497E00E94EF128BE397E00E94EF12EC
:1039D0008CE197E00E94F20780918902882309F424
:1039E00055C085EC91E00E94751287E197E00E9436
:1039F000EF128AEF96E00E94F20780919102811106
:103A000048C089EC91E00E94751283EA91E00E941F
:103A10006E148AED96E00E94F2078FE090E00E941B
:103A2000C7158930D8F5E82FF0E0EE0FFF1FE45FEF
:103A3000FE4F6081718190E080E04AE00E94FA11BF
:103A400083EA91E00E946E148091920208E3882339
:103A500029F084EC96E00E94EF1209E30E94EB1239
:103A60008FEA96E00E94F2070E94C91586E593E06E
:103A70000E945307809387028F33A9F48091AE028E
:103A80008F5F8093AE02F0CF11E38ACF83EC91E099
:103A9000AACF86EF96E00E94F207B7CF60E072EC03
:103AA00081E090E0CACF803219F41092AE02DCCFF0
:103AB0008117D4F20817C4F2682F86E593E00E94BC
:103AC000A6078AEA96E00E94EF121091AE02112337
:103AD00049F088E996E00E94F2076AE070E0812FE1
:103AE0000E94131380918702873309F413C10CF0ED
:103AF00068C0833309F4AFC0863309F4FFC0609116
:103B00008702615360938802653010F00C94CC27D3
:103B10008AE090E00E94B31580918802823051F4CF
:103B200082E396E00E94F2078091A0020E947C123C
:103B30000E94EB1210918802123009F4EEC208F0D4
:103B4000C7C2112309F4DBC288ED91E0113009F4FA
:103B50001CC361E080E00E944706E0908202F09082
:103B60008302E114F10469F090E080E00E94C31048
:103B700083EC0E94ED108E2D0E94ED108F2D0E947F
:103B8000ED10C7010E94C310143008F0BFC30E949B
:103B9000E80A882309F411C30E94E80A80937D0291
:103BA000882309F40AC360917D02662329F050E05E
:103BB00040E080E00E947A140E94FB120E94E80A12
:103BC000EBCF883309F4B0C0893309F098CF0E9455
:103BD0008E1110929C0285EB95E00E94EF1286E810
:103BE00095E00E94EF125AE0F52E66EFE62EDD24F6
:103BF000D39484E895E00E94F20780919C02823081
:103C000009F41CC108F0FDC0882309F407C1813004
:103C100009F40DC10E94C91586E593E00E9453077F
:103C2000082F80938702853709F426C1853509F46A
:103C300023C1843711F40C94D427843511F40C94E7
:103C4000D4278D3039F710919C026DE086E593E022
:103C50000E94A60736C18EEC94E00E94EF1280917C
:103C6000A00281508093860206E0809186028F5FD9
:103C7000602F0E94162B192F9093860283E996E0FD
:103C80000E94F207812F0E947C1280E896E00E9439
:103C9000F20786E593E00E947407181619062CF4C3
:103CA00086E593E00E945307F4CF86E593E00E94F7
:103CB0007407181619061CF00E94C915F6CF86E580
:103CC00093E00E945307809387028D3011F08B316F
:103CD00061F60E94EB120E94EB12809187028D30F8
:103CE00009F00DCF609186026093A0028EE090E013
:103CF0000E94B31583E38093870201CF61E0809136
:103D00008902811160E0609389028DE090E00E9459
:103D1000B315F5CE61E080919102811160E060936E
:103D200091028CE090E0F3CF8EEC94E00E94EF12D1
:103D30008FE090E00E94C7158150809386020AE0D0
:103D4000809186028F5F602F0E94162B192F90930F
:103D500086028BE796E00E94F20760E072EC81E059
:103D600090E0193051F0E12FF0E0EE0FFF1FE45F1B
:103D7000FE4F6081718190E080E04AE00E94FA117C
:103D800086E796E00E94F20786E593E00E947407BA
:103D9000181619062CF486E593E00E945307F4CF19
:103DA00086E593E00E947407181619061CF00E941D
:103DB000C915F6CF86E593E00E94530780938702EA
:103DC0008D3019F08B3109F0BBCF0E94EB120E94AD
:103DD000EB12809187028D3009F091CE8FE090E058
:103DE0000E94C71560918602861711F40C94C927AA
:103DF0008FE090E00E94B31580E496E00E94EF12FD
:103E00007ECE843091F150F1853009F003CF88E304
:103E100095E00E94F2078091D70206C08BE795E0FB
:103E20000E94F2078091B0020E94AE12F3CE81E7A9
:103E300095E00E94F2078091B102F6CF83E695E00B
:103E40000E94F2076DE086E593E00E94A6078AE5EE
:103E500095E00E94F2078091B202E6CF80E595E0FE
:103E60000E94F2078091D502DFCF84E495E00E94A2
:103E7000F2078091D602D8CF10919C02123009F43B
:103E800066C0E8F5112309F44CC0113009F454C0A0
:103E9000802F8F7D843511F00C94D827123009F4CF
:103EA000C8C008F08CC0112309F4A4C0113009F473
:103EB000B3C06DE086E593E00E94A6070D3009F0DF
:103EC00098CE1F5F10939C02163008F492CE40915A
:103ED000B0026091B1028091B2020E94D40888E2DF
:103EE00095E00E94EF128BE095E00E94F20781E0DE
:103EF0000E94BC1283EA91E00E946E1400CE14303E
:103F000009F452C008F445C0153011F68091D7026B
:103F10008F5F8093D7028C3308F4BACF1092D70208
:103F2000B7CF8091B0028F5F8093B002843608F4DF
:103F3000AFCF1092B002ACCF8091B1028F5F80936F
:103F4000B1028D3008F4A4CF1093B102A1CF8091BB
:103F5000B2028F5F8093B202E091B102E23089F445
:103F600090E02091B002237049F42DE130E0281751
:103F700039070CF08DCFD092B2028ACF2CE130E01D
:103F8000F6CFF0E0E150FF4F9081981708F080CF16
:103F9000F2CF8091D5028F5F8093D502883108F4EB
:103FA00077CF1092D50274CF8091D6028F5F809325
:103FB000D6028C3308F46CCF1092D60269CF14303D
:103FC00009F474C008F460C0153009F072CF209174
:103FD000D702265F2093D7022C3310F40C94D827F5
:103FE000822F6F2D0E94162B8E9D200D1124209361
:103FF000D7025FCF2091B002265F2093B002243613
:1040000008F4D6C7822F6F2D0E94162B8E9D200D8F
:1040100011242093B0024DCF8091B1028B3020F05B
:104020008A508093B10245CF833008F0C1C7865FC4
:10403000F8CF2091B202265F2093B202422F50E0C7
:10404000E091B102F0E0E150FF4F808190E03091CB
:10405000B002337061E070E011F070E060E0860F54
:10406000971F841795074CF4822F6F2D0E94162BF3
:104070008E9D200D11242093B2028091B2028111F5
:1040800097C7D092B20215CF2091D502265F209318
:10409000D502283108F48CC7822F6F2D0E94162B71
:1040A0008E9D200D11242093D50203CF2091D6029E
:1040B000265F2093D6022C3308F47AC7822F6F2D07
:1040C0000E94162B8E9D200D11242093D602F1CE36
:1040D000133009F46FC0143009F03BCDE0E3F6E093
:1040E0008591949190938102809380028AE692E078
:1040F00090937F0280937E0280E19DEF3FC08CEC25
:1041000091E0909385028093840210928302109232
:10411000820281E080939A021CCD8091A0028230BD
:1041200091F170F4882311F1813009F012CD8EEEF7
:1041300091E0909385028093840280E890E01EC015
:104140008430A9F148F1853009F003CD88E192E08F
:1041500090938502809384021092830210928202CF
:1041600081E080939A0280939902F3CC84EE91E0EF
:10417000909385028093840280EE91ED9093830268
:1041800080938202E6CC89EF91E090938502809340
:10419000840280E091E0F2CF84E092E09093850287
:1041A000809384021092830210928202D2CC80E12A
:1041B00092E0F4CF82E292E0F1CF8091840290917C
:1041C00085020E94350F80937D02882321F1609142
:1041D0007D02662339F0409184025091850281E08E
:1041E0000E947A140E94FB120091840210918502B1
:1041F000C8010E94350F80937D02833049F00E94F0
:10420000E80A0E94E80AC8010E94350F80937D02E7
:1042100080917D02DACF84E196E00E94F2078091DE
:104220008402909185020E9475128FE096E00E94B0
:10423000F207CE0101960E94360D082F89818093E6
:10424000900200937D021092860210918602809166
:104250009002181758F4E12FF0E0E75FFC4F8081DF
:104260000E94ED101F5F10938602EFCF803291F411
:104270000023F9F24091840250918502602F82E080
:104280000E947A140E94FB1260E070E0CB010E9451
:10429000060E02C00111EECF80917D028111C9CFBF
:1042A0008CEE95E00E94EF1260E086E10E944706E6
:1042B00082B5877F82BD85B5816085BD85B5897FE3
:1042C00085BD85B5886085BD85B58F7B85BD85B588
:1042D000806185BD85B58F7D85BD8091890283BD57
:1042E00061E08FE00E9475068FEC95E00E94EF126E
:1042F0000E94EB1286E593E00E94740718161906D7
:10430000FCF486E593E00E945307F4CF82EF95E03A
:104310000E94F20710E000E080917E0290917F02FF
:104320000817190708F0BCCFE0918002F0918102D4
:10433000E00FF11F84910E94ED100F5F1F4FECCF33
:1043400061E070E080E090E00E94D70661E086E1E5
:104350000E944706DD24DA9483E00E941E06892B22
:1043600009F02DC483E10E941E06892B09F0E3C3E6
:1043700082E10E941E06F9B2F092A402882379F02D
:10438000F09279001092A3021092A20260E08EE0F7
:104390000E94470660E080E00E94470608C48091C2
:1043A00079008C3009F48DC108F04FC0863009F4D3
:1043B0001FC110F5833009F4FCC078F4882309F498
:1043C000EBC0813009F4EFC0809179008A30F1F2BE
:1043D0008C30E1F2D0927900D9CF843009F4FDC05D
:1043E000853091F78091A1028823A1F380E20E9499
:1043F000A90590E080E0E7C0893009F40FC178F4A6
:10440000873009F400C18830F9F68091A102882331
:1044100009F380E20E94A9058DE090E0D4C08A30C3
:1044200009F41DC18B3081F6F0929D0280919E02AD
:1044300090919F028115924008F03DC13FE13F15E8
:1044400008F43DC110926D00BFCF823109F4ABC2B8
:1044500008F078C08F3009F49BC280F48D3009F4E5
:1044600080C28E3009F0B0CF8F2D817080939A0278
:10447000F1FAFF24F0F8F0929902A6CF803109F406
:104480008DC2813109F0A0CF8091A102882309F467
:10449000A1CF81E08093970211E0F11010E010931A
:1044A000960280E20E94A90582E190E00E94CF0876
:1044B000110F012F0560802F90E00E94CF080E940D
:1044C000A60580E20E94A90590E080E00E94CF0846
:1044D00088EF90E00E94CF080E94A60580E20E942B
:1044E000A90581E090E00E94CF0890E080E00E9462
:1044F000CF080E94A60580E20E94A9058CE090E00A
:104500000E94CF088FEF90E00E94CF080E94A6057E
:1045100080E20E94A90582E190E00E94CF08612F0D
:10452000616083EB94E00E94A0080E94A6050093BE
:104530009C0280E20E94A90582E190E00E94CF08DF
:10454000602F44C0843210F5823208F05DC28032A0
:1045500008F43ACF90919502992309F435CF11E0F0
:10456000803209F410E08091AE02833048F08AE98D
:1045700098E00E94F20760E170E08F2D0E94131313
:104580004F2D60E0812F0E941F131ECF8E3709F040
:104590001BCFF092AE0218CF60E0F0FE61E08DE03C
:1045A0000E94470611CF6F2D86E593E00E94A60773
:1045B0000BCF8091A102882309F40CCF80E20E94E6
:1045C000A90582E190E00E94CF086F2D83EB94E073
:1045D0000E94A0080E94A605F7CE8091A102882320
:1045E00009F4F8CE80E20E94A90583E190E0EBCFC8
:1045F0008091A102882309F4EDCE80E20E94A905F2
:1046000081E090E0E0CF8091A102882309F4E2CE1E
:1046100080E20E94A9058CE090E0D5CF83E68F155B
:10462000E0F08091A002805D809370008F2D6AE0A1
:104630000E94162B90E3980F9093720090E3F90E6E
:10464000E6EF8E9FF00C1124F09273008EE690E05E
:104650000E94350F80936D00B7CE80E1FBCF809133
:10466000A2029091A3024F2D50E0009751F4509375
:104670009F0240939E0201969093A3028093A20210
:10468000A3CE20919E023F2D30939F0220939E0245
:1046900040919D022115324038F4403240F410928E
:1046A0006D00D0927900E7CF21E1403208F022E19D
:1046B00020936D00F6CF4FE181E14F1558F682E16E
:1046C000C9CFA090A202B090A302A114B10419F521
:1046D00060919E0270919F02611552E07507D8F4B7
:1046E00080919D028032B8F490916D00911113C0B9
:1046F00035E0660F771F3A95E1F7682B90E080E090
:1047000049E0660F771F881F991F4A95D1F70E94CD
:10471000060E80936D0080916D00811180C08A2DFE
:104720008F7180939C02E82FF0E0E75FFC4FF082EE
:104730008F3109F074C00091540310915503812CFE
:1047400085E00115110509F458C0F801818180FF49
:10475000DDC086FD0AC086899789A08DB18D882726
:104760009E7F868B978BA08FB18FF801828D938D62
:10477000A48DB58D46895789608D718D841B950BED
:10478000A60BB70B80329105A105B10520F080E2A0
:1047900090E0A0E0B0E07C01912C812C29E033E096
:1047A00038872F83E114F10409F4B3C0F801868936
:1047B0009789A08DB18D9C013170232B09F066C0C3
:1047C00072807A94AC01BD0129E076956795579582
:1047D00047952A95D1F77422A9F5892B8A2B8B2B23
:1047E00031F5668D778D80A191A1F8016230710558
:1047F0008105910518F5118281E080929B028093DA
:104800006D00FFE1F81508F486C083E180936D0028
:104810002FEFA21621E0B20610F0D0927900FFEF40
:10482000AF1ABF0AB092A302A092A202CDCD62A19C
:1048300073A184A195A10E94C60CD7CF62A373A3D4
:1048400084A395A3F80162A173A184A195A10E94FC
:104850003B09611571058105910511F4F801CBCF74
:10486000AB01BC01470D511D611D711DF80146A32F
:1048700057A360A771A790E080E00E944218F8015A
:10488000892B09F0B8CF818180648183F801868902
:104890009789917020E032E0281B390B37012E15E3
:1048A0003F0508F439011301512C412CB201A30139
:1048B0008F8198850E944218F801892B09F09BCFBF
:1048C00086899789A08DB18D820D931DA41DB51D7C
:1048D000868B978BA08FB18F2F813885260D371D42
:1048E00038872F83E618F708860C971C1C0131E0E7
:1048F0003322232809F056CF0E94B609F801892BEC
:1049000009F079CF81818F7B81834CCF812C84E02A
:1049100074CF80E072CF3FEFA31631E0B30608F406
:104920007ECF81117ACF85E00115110569F0F8017C
:10493000818180FF14C086FF0CC00E94B609892BBC
:1049400041F0F801118281E010929B0280936D008A
:1049500064CFF80181818F7B818380E0F5CF84E093
:10496000F3CF21E0F21671F0F21628F032E0F312E4
:104970002BCD60E008C061E08CE00E94470660E05B
:104980008BE00ECE61E08CE00E94470661E0F8CF3C
:10499000FF2009F41FCDF0926C0016CD8F2D817091
:1049A0008093980211CD80919702882309F412CD4B
:1049B00080E20E94A90583E190E00E94CF086F2D5C
:1049C00083EB94E00E94A0080E94A6051091960235
:1049D000110F80E20E94A90582E190E00E94CF08B9
:1049E000612F6C6F83EB94E00E94A0080E94A605E3
:1049F0001D6F10939C0280E20E94A90582E190E065
:104A00000E94CF08612FE2CD90919502992309F47D
:104A1000DBCC0F2D10E056E0159507955A95E1F780
:104A2000702EEF2DEF7144E0E49FF0011124E25E5F
:104A3000FE4F80809180A280B3809091AE02923030
:104A400008F443C0823209F064C08AE699E00E940B
:104A5000F2071F92FF9281E799E09F938F9346E5BB
:104A6000E42E43E0F42EFF92EF920E94D2140F90B6
:104A70000F900F900F900F900F90181419041A04B4
:104A80001B048CF4BF92AF929F928F9223E539E082
:104A90003F932F93FF92EF920E94D2140FB6F89497
:104AA000DEBF0FBECDBF1F930F93E0E4F9E0FF938D
:104AB000EF9386E593E09F938F930E94D2140F901B
:104AC0000F900F900F900F900F90181419041A0464
:104AD0001B0454F481E090917900923209F480E053
:104AE000B501A4010E94E813772009F46DCC8091F0
:104AF000AE02823008F468CC0230110569F049E258
:104B000059E00330110511F443EF58E05F934F93E0
:104B100007C083E699E09BCFE3E1F9E0FF93EF93D1
:104B200086E593E09F938F930E94D2140F900F908D
:104B30000F900F9049CC84E10E941E06892B09F04A
:104B400023C282E10E941E061092A402882309F467
:104B500075C0D092A40286E593E00E9474071816EF
:104B600019060CF067C086E593E00E945307809316
:104B7000A4021092940261E081E00E9447068091B5
:104B800093028E7F8093930281E080936B00DABA68
:104B90008091A4028BBB60E08EE00E94470660E03B
:104BA00080E00E9447060E94FD051ABADBBA61E068
:104BB00080E00E94470661E08EE00E9447068091F7
:104BC0009902882379F10E94B10600918C0210911C
:104BD0008D0220918E0230918F024B015C01801A70
:104BE000910AA20AB30A20916C0030E0A8EEB3E06B
:104BF0000E94072B681579058A059B0598F460E0EB
:104C000081E00E9447068091930282608093930224
:104C10000E94B10660938C0270938D0280938E0285
:104C200090938F020E947B07882309F495CB0E9402
:104C3000291190CB81E0809394029DCF90917900CF
:104C4000983809F44FC110F5933809F494C088F4EA
:104C5000913809F46BC008F083C0903809F44AC059
:104C6000809179008D7F843809F491CFD0927900BA
:104C70008ECF953809F4DEC008F4A0C0963809F448
:104C8000DCC0973869F70E94E80A31C0943A38F5D9
:104C9000923A08F051C19A3809F430C108F427C19A
:104CA000903AF0F280919502882309F443C181E0A3
:104CB000903A09F480E060E00E947213182F80910E
:104CC000AE02833048F08FEA98E00E94F20760E17C
:104CD00070E0812F0E9413131093A402C1CF963A63
:104CE00008F441C18091AE029E3F09F0B9CF809394
:104CF000A402B6CF8DE00E941E06182F80939C025E
:104D000062E08DE00E9475068DE00E941E0621E0A3
:104D1000892B09F020E02093A40261E08DE00E943D
:104D20007506612F8DE00E9447069ACF8091A102FF
:104D3000882309F495CF80E20E94A90582E190E0E2
:104D40000E94CF080E94A60580E20E94A90561E0AA
:104D500070E080E290E00E944A110E94C605C7CF31
:104D60008091A102882309F47BCF80E20E94A905EB
:104D700083E190E0E5CF0091920210E0000F111F57
:104D8000F090910286E593E00E94740734E01816D3
:104D900019060CF030E08091940228E0811101C0E6
:104DA00020E080919802E0E18E9FC0011124082B41
:104DB000F02AF32AF22AF092A40252CF80919202B2
:104DC0008823A9F10091A2021091A30201151105F7
:104DD00069F40E948E118091D7028093A4020F5F24
:104DE0001F4F1093A3020093A2023ACF0730110580
:104DF000F0F48091B1020430110579F368F48091E8
:104E0000D5020230110549F38091B2020330110539
:104E100021F38091D602E1CF8091B00205301105D7
:104E2000E1F28091AF0206301105B9F2F2CFD092D3
:104E3000790016CF80916D005ACF0091A202109197
:104E4000A3020115110519F560919E0270919F0250
:104E50006115F2E07F07D8F480919D028032B8F4AA
:104E600090916D00911113C095E0660F771F9A9590
:104E7000E1F7682B90E080E029E0660F771F881F3C
:104E8000991F2A95D1F70E94060E80936D0080919C
:104E90006D0081111DC0202F2F71F22E20939C02D6
:104EA00021110FC0CE0101960E94360D9981909379
:104EB00090029032A8F080936D0080916D00811176
:104EC00007C0EF2DF0E0E75FFC4F80818093A402E4
:104ED0000F3F31E0130708F482CFD09279007FCFE3
:104EE00083E1E9CF86E593E00E94440700CF8091FB
:104EF00093028093A40210929302B2CE8091970203
:104F0000882309F4ADCE80E20E94A90582E190E0F9
:104F10000E94CF080E94A60580E20E94A90561E0D8
:104F200070E080E290E00E944A110E94C605887FEE
:104F30008160DDCE8AE1DBCE80919502882389F005
:104F400069E080E00E947213182F8091AE028330D6
:104F500008F4C2CE83EC98E00E94F2076AE070E0A9
:104F6000B8CE80E4C4CE809195028823D1F368E066
:104F700080E00E947213182F8091AE02833008F4F3
:104F8000ABCE8BED98E0E8CF61E081E00E94470670
:104F9000FDC98CED809388028AE090E00E94C715DD
:104FA000809388020C948C1D10919C020C944E1FCF
:104FB0006DE086E593E00E94A6070C94F91D8FEB47
:104FC00094E00E94051585EC94E00C9405151F9360
:104FD000FC0199278827BC01E89411911032E9F36C
:104FE000193010F01E30C8F31B3251F01D3249F455
:104FF000689406C00E940E28610F711D811D911DCD
:10500000119110531A30B0F33EF49095809570953D
:1050100061957F4F8F4F9F4F1F910895592F482FB4
:10502000372F262F660F771F881F991F660F771F50
:10503000881F991F620F731F841F951F660F771FAC
:10504000881F991F0895CF93DF93EC018B818860AF
:105050008B83CE010E9432282B81277F2B83DF9107
:10506000CF910895ABE0B0E0E8E3F8E20C94D02AE9
:105070007C013B018A01FC0117821682838181FF3A
:10508000C8C1CE0101965C01F7019381F30193FD44
:10509000859193FF81913F01882309F453C18532A3
:1050A00039F493FD859193FF81913F01853229F475
:1050B000B70190E00E94222AE7CF912C212C312CBD
:1050C000FFE1F31538F08B3211F190F4803209F1E1
:1050D000833229F137FC3CC020ED280F2A3050F5EF
:1050E00036FE20C08AE0989E200D1124922E06C024
:1050F0008D3291F0803371F7689430F8F30193FDAD
:10510000859193FF81913F018111DACF21C068948D
:1051100031F8689432F8F2CF689433F8EFCF68949E
:1051200034F8ECCFEAE02E9E200D1124222E689454
:1051300035F8E4CF8E3229F436FC04C1689436F891
:10514000DDCF8C3619F4689437F8D8CF8836B1F2B1
:10515000982F9F7D95549330E0F08336A1F18337EB
:10516000C1F1833509F063C02801F2E04F0E511CF4
:10517000F801C080D180692D70E036FC02C06FEF6D
:105180007FEFC6010E940C2A4C01689437F8820117
:105190000AC00C5F1F4FFFE3F98388248394912C8E
:1051A0006501E89437F833FE2DC0522C8114910428
:1051B00071F5552009F468CFB70180E290E00E94B4
:1051C000222A5A94F6CFF801808189830E5F1F4FFF
:1051D000E4CF2801F2E04F0E511CF801C080D180CD
:1051E000692D70E036FC02C06FEF7FEFC6010E94B0
:1051F000172A4C018201D5CFB70180E290E00E94CE
:10520000222A2A942814190409F0B0F7CECFF60107
:1052100037FC859137FE81916F01B70190E00E94C4
:10522000222A51105A94F1E08F1A9108BFCF843688
:1052300019F0893609F077C0F80137FE6BC060813C
:105240007181828193810C5F1F4FF32DFF763F2E7A
:1052500097FF09C090958095709561957F4F8F4F0E
:105260009F4F689437F82AE030E0A5010E94522A47
:10527000C82ECA188C2C432C36FE0CC0E89440F87B
:10528000C91440F434FE05C032FC03C0F32DFE7E89
:105290004F2E892C44FE95C0FE01EC0DF11D80813E
:1052A000803309F087C0242D297E422E842D8870FA
:1052B000582E43FC95C040FE8FC09C2C821418F4DD
:1052C0002C0C922C981844FE91C0B70180E390E01A
:1052D0000E94222A42FE09C088E790E041FE02C0F7
:1052E00088E590E0B7010E94222AC91408F48AC018
:1052F000CA94D12C9FEFC91AD90ACA0CDB1CF6013B
:1053000082916F01B70190E00E94222AAC14BD0483
:10531000B1F74FCF60817181072E000C880B990B7C
:105320000E5F1F4F92CFD32CE894D4F82AE030E0E0
:10533000853739F1232D297FD22E8F3601F148F49C
:105340008835A9F0F701868197812B96E2E10C94CC
:10535000EC2A803749F08837A9F7D4FE02C0689458
:10536000D2F820E130E00DC06894D4F8F6CF34FED6
:1053700003C0822F8660D82E20E132E002C028E0F0
:1053800030E0F801D7FE0FC0608171818281938186
:105390000C5F1F4FA5010E94522AC82ECA183D2C2F
:1053A000E89437F867CF6081718190E080E00E5F0C
:1053B0001F4FF0CF42FC02C0839478CF8394839434
:1053C00075CF842D867809F471CFF6CFB70180E2CE
:1053D00090E00E94222A83948214C0F3512C73CF50
:1053E000522C5818821408F46ECFF8CF842D86788A
:1053F00009F47BCF8BE241FE80E247FC8DE2B701EE
:1054000090E071CFB70180E390E00E94222A9A9445
:105410006CCF8FEF9FEF99CFFC01059061507040EA
:105420000110D8F7809590958E0F9F1F0895FC016D
:105430006150704001900110D8F7809590958E0FC3
:105440009F1F08950F931F93CF93DF93182F092F5A
:10545000EB018B8181FD09C01FEF0FEF812F902F92
:10546000DF91CF911F910F91089582FF14C02E817B
:105470003F818C819D81281739073CF4E881F981AF
:10548000CF0101969983888310838E819F81019635
:105490009F838E83E3CFE885F985812F0995892B3A
:1054A000A1F3DACFFA01AA27283051F1203181F196
:1054B000E8946F936E7F6E5F7F4F8F4F9F4FAF4F1C
:1054C000B1E03ED0B4E03CD0670F781F891F9A1F2F
:1054D000A11D680F791F8A1F911DA11D6A0F711DE3
:1054E000811D911DA11D20D009F468943F912AE0EF
:1054F000269F11243019305D3193DEF6CF010895D7
:10550000462F4770405D4193B3E00FD0C9F7F6CF07
:10551000462F4F70405D4A3318F0495D31FD4052CF
:10552000419302D0A9F7EACFB4E0A6959795879565
:1055300077956795BA95C9F7009761057105089544
:105540009B01AC010A2E06945795479537952795F0
:10555000BA95C9F7620F731F841F951FA01D089588
:10556000E199FECF9FBB8EBBE09A99278DB308953A
:10557000262FE199FECF9FBB8EBB2DBB0FB6F894B3
:10558000E29AE19A0FBE019608950E94072BA59F0B
:10559000900DB49F900DA49F800D911D112408952E
:1055A0002F923F924F925F926F927F928F929F9233
:1055B000AF92BF92CF92DF92EF92FF920F931F9321
:1055C000CF93DF93CDB7DEB7CA1BDB0B0FB6F894D2
:1055D000DEBF0FBECDBF09942A88398848885F8412
:1055E0006E847D848C849B84AA84B984C884DF8083
:1055F000EE80FD800C811B81AA81B981CE0FD11D67
:105600000FB6F894DEBF0FBECDBFED010895A29F87
:10561000B001B39FC001A39F700D811D1124911D86
:10562000B29F700D811D1124911D0895991B79E081
:1056300004C0991F961708F0961B881F7A95C9F722
:1056400080950895A1E21A2EAA1BBB1BFD010DC077
:10565000AA1FBB1FEE1FFF1FA217B307E407F50722
:1056600020F0A21BB30BE40BF50B661F771F881FFE
:10567000991F1A9469F760957095809590959B0194
:10568000AC01BD01CF010895EE0FFF1F0590F4910D
:10569000E02D09940F931F93CF93DF9382309105F0
:1056A00010F482E090E0E091CD04F091CE0430E07F
:1056B00020E0B0E0A0E0309799F42115310509F41D
:1056C0004AC0281B390B24303105D8F58A819B81CB
:1056D0006115710589F1FB0193838283FE0111C07D
:1056E000408151810281138148175907E0F0481722
:1056F000590799F4109761F012960C93129713962C
:105700001C933296CF01DF91CF911F910F91089595
:105710000093CD041093CE04F4CF2115310551F040
:105720004217530738F0A901DB019A01BD01DF01DF
:10573000F801C1CFEF01F9CF9093CE048093CD044F
:10574000CDCFFE01E20FF31F8193919322503109D7
:1057500039832883D7CF2091CB043091CC04232BDD
:1057600041F420917C0030917D003093CC04209353
:10577000CB0420917A0030917B002115310541F452
:105780002DB73EB740917E0050917F00241B350B12
:10579000E091CB04F091CC04E217F307A0F42E1BA8
:1057A0003F0B2817390778F0AC014E5F5F4F241785
:1057B000350748F04E0F5F1F5093CC044093CB0445
:1057C000819391939FCFF0E0E0E09CCFCF93DF9364
:1057D0000097E9F0FC01329713821282A091CD0468
:1057E000B091CE04ED0130E020E01097A1F42081CB
:1057F0003181820F931F2091CB043091CC04281764
:10580000390709F061C0F093CC04E093CB04DF9139
:10581000CF910895EA01CE17DF07E8F54A815B8151
:105820009E0141155105B1F7E901FB83EA834991D6
:105830005991C40FD51FEC17FD0761F48081918148
:105840000296840F951FE901998388838281938151
:105850009B838A83F0E0E0E012968D919C911397F0
:105860000097B9F52D913C911197CD010296820FC9
:10587000931F2091CB043091CC042817390739F6B7
:10588000309751F51092CE041092CD04B093CC0411
:10589000A093CB04BCCFD383C28340815181840FBA
:1058A000951FC817D90761F44E5F5F4F88819981B2
:1058B000480F591F518340838A819B819383828340
:1058C0002115310509F0B0CFF093CE04E093CD045B
:1058D0009ECFFD01DC01C0CF13821282D7CFB0E092
:1058E000A0E0E5E7FCE20C94D22A8C01009751F489
:1058F000CB010E944A2B8C01C801CDB7DEB7E0E195
:105900000C94EE2AFC01E60FF71F9C01225031098E
:10591000E217F30708F49DC0D901CD91DC911197EE
:10592000C617D70798F0C530D10530F3CE010497DC
:105930008617970708F3C61BD70B2297C193D193FD
:105940006D937C93CF010E94E62BD6CF5B01AC1AFE
:10595000BD0A4C018C0E9D1EA091CD04B091CE04C9
:10596000512C412CF12CE12C109731F58091CB0476
:105970009091CC048815990509F05CC0461657062D
:1059800008F058C080917A0090917B00009741F414
:105990008DB79EB740917E0050917F00841B950B80
:1059A000E817F90708F055C0F093CC04E093CB0456
:1059B000F90171836083A0CF8D919C91119712960C
:1059C0006C90129713967C901397A815B90559F50A
:1059D0006C0142E0C40ED11CCA14DB0420F1AC01FE
:1059E0004A195B09DA011296159780F06282738278
:1059F00051834083D9016D937C93E114F10471F0DC
:105A0000D7011396FC93EE93129776CF22968C0FC4
:105A10009D1FF90191838083F301EFCFF093CE04B2
:105A2000E093CD0469CF4816590608F42C017D0196
:105A3000D3019ACFCB010E944A2B7C01009749F0F9
:105A4000AE01B8010E942C2DC8010E94E62B8701EF
:105A500053CF10E000E050CFFB01DC0102C0019009
:105A60000D9241505040D8F70895FB01DC010190A0
:105A70000D920020E1F7089515E0C6E2D5E004C0DC
:105A8000FE010E94442B2196C732D107C9F7F89432
:105A9000FFCF4453784E414D2E44415400016413CE
:105AA0004453784E79792E44534B00FF0000CF04C5
:105AB00080005248520049455200494952004C4327
:105AC00052004D4352004C5352004D53520053501C
:105AD000520054584C0052584C00494F4400494F12
