:100000000C947C050C94A4050C94A4050C94A405F4
:100010000C94A4050C94A4050C94A4050C94A405BC
:100020000C94A4050C94A4050C94A4050C943521FF
:100030000C94A4050C949D210C9477210C94A40598
:100040000C94A4050C94A4050C94A4050C94CE2146
:100050000C94A4053110FD2152FDCDC6FECD3EFF0E
:10006000CDF4FD3EFFBC2010BD200D21D9FDCDC635
:10007000FE2188FDCDC6FE76E521D9FDCDC6FE2147
:1000800075FDCDC6FEE1CD4BFFCD3EFFCD3EFFDB86
:1000900001FEFF20FAE9694C6F6164202D20496E52
:1000A00074656C2D486578204C6F61646572202DF5
:1000B0002053323030373138005374617274696EB6
:1000C0006720416464726573733A20004C6F616409
:1000D000206572726F72202D2053797374656D20C4
:1000E00068616C7465640057616974696E67206942
:1000F0006E7075742073747265616D2E2E2E0053B0
:10010000796E746178206572726F72210043686540
:10011000636B73756D206572726F722100694C6F2D
:1001200061643A2000416464726573732076696F7C
:100130006C6174696F6E2100F5D5C501FFFF21A3C5
:10014000FDCDC6FECD3EFFCD72FFFE0D28F9FE0AA5
:1001500028F5FE2028F1CD1AFFCD69FFFE3AC2A393
:10016000FECDE1FE571E00CDBEFECDD6FE3EFFB851
:100170002005B92002444D7CCDBEFE7DCDBEFECD16
:10018000E1FECDBEFEFE01201ECDE1FECDBEFE7B1A
:10019000A72866CD3EFF21D9FDCDC6FE21C9FDCDE4
:1001A000C6FE01FFFF18527AA7282CCDE1FECDBE76
:1001B000FEE5C5A701F0FCED42C1E1DA8EFECD3EC1
:1001C000FF21D9FDCDC6FE21E1FDCDC6FE01FFFF19
:1001D000182777231518D0CDE1FECDBEFE7BA720D2
:1001E000B2CD3EFFC303FECD3EFF21D9FDCDC6FEFD
:1001F00021BBFDCDC6FE01FFFFCD3EFF6069C1D131
:10020000F1C9C54F7B915F79C1C9F5E57EFE002834
:1002100006CD69FF2318F5E1F1C9F5CDE1FE67CD03
:10022000E1FE6FF1C9C5CDF4FECB07CB07CB07CB01
:100230000747CDF4FEB0C1C9CD72FFCD1AFFCD0680
:10024000FF30F5CD23FFCD2EFFC9FE47D0FE303065
:10025000023FC9FE3AD8FE4130023FC937C9FE61AC
:10026000D8FE7BD0E65FC9FE3A3802D607D630E624
:100270000FC9F5E60FC630FE3A3802C607CD69FF52
:10028000F1C9F53E0DCD69FF3E0ACD69FFF1C9E523
:10029000F57CCD58FF7DCD58FFF1E1C9F5C5470F7D
:1002A0000F0F0FCD2EFF78CD2EFFC1F1C9F53E0106
:1002B000D301F1D300C9DB01FEFFCA72FFC9494F68
:1002C000533A205254432073657420617420636F45
:1002D0006D70696C652074696D65202D204E6F7797
:1002E0003A2000293F205B592F4E5D203E000A44F2
:1002F0006F20796F752077616E742073657420525A
:10030000544320617420494F5320636F6D70696CB2
:10031000652074696D65202800494F533A20525476
:100320004320636C6F636B206661696C7572652135
:1003300000494F533A20525443204453333233310F
:100340002074656D70657261747572652073656E79
:10035000736F723A2000494F533A20466F756E64AE
:100360002052544320445333323331204D6F64754F
:100370006C65202800494F533A2052544320646151
:1003800074652F74696D652075706461746564208F
:100390002800202E2E2E646F6E6520202020202025
:1003A0000A005365636F6E6473202D3E20004D6913
:1003B0006E75746573202D3E2000486F7572732032
:1003C0002D3E200020446179202D3E200020202059
:1003D00020202020202020202020004D6F6E7468D7
:1003E000202D3E200059656172202D3E2000200006
:1003F0000A507265737320542F5520746F20696EF4
:100400006372656D656E74202B31302F2B31206F38
:100410007220435220746F20616363657074000A18
:10042000494F533A20525443206D616E75616C20E0
:1004300073657474696E673A000D0A507265737360
:1004400020435220746F206163636570742C2045D3
:10045000534320746F2065786974206F7220616E39
:1004600079206F74686572206B657920746F2063E2
:1004700068616E676500494F533A205A38302069E9
:10048000732072756E6E696E672066726F6D206E76
:100490006F770020446F6E6500494F533A204C6FD0
:1004A0006164696E6720626F6F742070726F67722B
:1004B000616D2E2E2E00292E2E2E00494F533A20EC
:1004C0004C6F6164696E6720626F6F742070726F29
:1004D0006772616D2028005400494F533A204375DC
:1004E0007272656E7420002564206B4279746573A6
:1004F0000D000D202D3E004368616E67656420731A
:10050000706565642077696C6C206265206566663D
:10051000656374697665206166746572206E6578BE
:1005200074207265626F6F74210D0A0A002020200A
:100530000D000D202D3E00202020202020202020F6
:1005400020202020202020200D000D202D3E003FC7
:10055000566572626F73697479206C6576656C207C
:100560000020204F6B00456E74657220796F7572A4
:100570002063686F696365203E200025646B4279C3
:100580007465730020413A205365742052414D2D0B
:1005900073697A6520280020393A20536574205207
:1005A00054432074696D652F646174650020383A86
:1005B000205365742073657269616C20706F72746A
:1005C0002073706565642028004F46460020373A46
:1005D00020546F67676C652043502F4D2041757420
:1005E0006F6578656320282D3E004D487A290020EC
:1005F000363A204368616E6765205A383020636C54
:100600006F636B20737065656420282D3E00203574
:100610003A20694C6F6164000D0A20343A2041751C
:10062000746F626F6F740020333A204C6F61642FD7
:10063000736574204F53200020323A20466F727445
:10064000680020313A2042617369630020303A200B
:100650004E6F206368616E6765202800494F533AEA
:100660002053656C65637420626F6F74206D6F64D6
:1006700065206F722073797374656D20706172618B
:100680006D65746572733A004F4646004F4E0049DF
:100690004F533A2043502F4D204175746F65786554
:1006A000632069732000494F533A20466F756E648A
:1006B0002053494F41202F2053494F42204F7074FF
:1006C000696F6E00494F533A20466F756E6420473C
:1006D0005045204F7074696F6E00494F533A202582
:1006E000646B42797465732052414D004D487A0025
:1006F000494F533A205A383020636C6F636B207334
:1007000065742061742000494F533A20466F756E1E
:100710006420657874656E646564207365726961D0
:100720006C205278206275666665722028256420E8
:100730006279746573290D0A000D0A0A5A38302D42
:100740004D424332202D20413034303631380D0AAD
:10075000494F53202D20492F4F20537562737973D1
:1007600074656D202D20533232303731382D52329E
:1007700039303832332D443039303232350D0A00B9
:10078000494F533A20436865636B20534420616EA0
:10079000642070726573732061206B657920746FBB
:1007A000207265706561740D0A00202D2046696C09
:1007B000653A2000206F7065726174696F6E005237
:1007C000454144004F50454E004D4F554E5400207A
:1007D0006F6E2000554E4B4E4F574E004E4F5F46AA
:1007E000494C4553595354454D004E4F545F454E67
:1007F00041424C4544004E4F545F4F50454E454496
:10080000004E4F5F46494C45004E4F545F524541A4
:100810004459004449534B5F455252000D0A494F19
:10082000533A205344206572726F7220003F3F5349
:10083000494F3A2041637475616C2062617564723E
:100840006174653A20003F3F53494F3A2043616C41
:1008500063756C617465642064697669736F723A5C
:1008600020003F3F53494F3A2044657369726564E5
:100870002062617564726174653A20003F3F3F53A6
:10088000494F3A205365744175746F48616E6473C3
:1008900068616B6520636825642C2025642C202505
:1008A000640D0A003F3F3F3F53494F3A2052656174
:1008B000645265676973746572206368256420619A
:1008C0006464723D30782530325820282573292001
:1008D0007265733D3078253032580D0A003F3F3F36
:1008E0003F53494F3A20577269746552656769737F
:1008F000746572206368256420616464723D307899
:100900002530325820282573292076616C3D3078B7
:10091000253032580D0A003F3F3F53494F3A205788
:1009200072697465427974652030782530325820B8
:1009300025630D0A003F3F3F53494F3A20526561FE
:100940006442797465203078253032582025630D53
:100950000A003F3F3F53494F3A20527820464946CC
:100960004F204C6576656C3A20003F3F3F53494F1E
:100970003A205478204649464F2053706163653AC7
:10098000200020726573657276656400206175745D
:100990006F205254532F435453006175746F205885
:1009A0006F6E2F586F666620284E594929002064C3
:1009B000697361626C6500202D2068616E647368E4
:1009C000616B653A20256400202D20626175647298
:1009D0006174653A20256C64003F3F53494F4200E3
:1009E0003F3F53494F41002073657420636F6E741D
:1009F000726F6C3A203078253032580000003A008F
:100A000037003400310000003B0038003500320070
:100A100000003900360033003000020202020202F8
:100A20000202040404040404040403030303030390
:100A30000303010101010101010101020408102069
:100A400040800102040810204080010204081020A8
:100A500040800102040810204080000000020000D5
:100A60000000000000000504000700000000000076
:100A7000000000000000000000003F3F3F53494FCE
:100A80003A204649464F53657454726967676572E8
:100A90004C6576656C28636825642C2025732C20B2
:100AA0006C656E6774683A2026640D0A003F5349EE
:100AB0004F3A204C43522052656769737465723A0D
:100AC0003078000D0A0A494F533A2042617564207C
:100AD0007265636F7665727920646F6E65202D2074
:100AE000506C65617365207265626F6F74206E6F04
:100AF000772100008A23372B11241FBECFE5D8E0D1
:100B0000DEBFCDBF25E0A4E8B2E001C01D92A13256
:100B1000B207E1F712E0A0E6B0E0E2E9F1E602C0D8
:100B200005900D92A438B107D9F715E0CBE7D5E0D1
:100B300004C02197FE010E94B02ECA37D107C9F721
:100B40000E94DE230C94BC300C940000282F90915E
:100B5000560381E0913208F03FC080913203811149
:100B6000FCCF8091550332E0309332032093310360
:100B70002FEF2093300325E333E030932F032093AE
:100B80002E0310922D0390932C0310922B0390911F
:100B90002B03880F892B80932B0380912A038130AC
:100BA00011F510922A0380912B0383B906B603FC3A
:100BB000FACF85EC86BF809132038230E1F38091D9
:100BC00030038F3F91F080913003803281F080912B
:100BD0003003803371F084E0109234031092560396
:100BE00010923303089585EEE5CF80E0F5CF82E0E3
:100BF000F3CF83E0F1CF81E00C94A60591E09093D0
:100C000033038093550310923403109256030895D2
:100C100090912603809125032FEF3FEF981748F41A
:100C2000E92FF0E0EB5FFC4F208130E09F5F909375
:100C30002603C901089590912603809125032FEF83
:100C40003FEF981748F4E92FF0E0EB5FFC4F20816D
:100C500030E09F5F90932603C90108952091150508
:100C6000309116058217930760F420911105309199
:100C700012052115310529F0280F391FF90180814E
:100C8000089580E00895FB01A485B585ED91FC9160
:100C900011970190F081E02D682FCD01099590E02A
:100CA00080E008950000000000000000000083E0E4
:100CB00090E00197F1F70895843059F028F48130DD
:100CC00099F0823089F00895853039F0873041F00D
:100CD00008958FB58F778FBD08958FB58F7DFBCF2A
:100CE00085B58F7D85BD089583B78F7D83BF0895BA
:100CF000CF93DF93282F30E0F901E65AF54F849126
:100D0000F901E65CF54FD491F901E65EF54FC49127
:100D1000CC23A1F081110E945C06EC2FF0E0EE0FD5
:100D2000FF1FE05FF54FA591B491EC91ED2381E0B9
:100D300090E009F480E0DF91CF91089580E090E0A9
:100D4000FACF1F93CF93DF93282F30E0F901E65AB3
:100D5000F54F8491F901E65CF54FD491F901E65E17
:100D6000F54FC491CC23A9F0162F81110E945C0687
:100D7000EC2FF0E0EE0FFF1FEA5FF54FA591B49165
:100D80008FB7F894EC91111108C0D095DE23DC9355
:100D90008FBFDF91CF911F910895DE2BF8CFCF93B6
:100DA000DF9390E0FC01E65CF54F2491865E954F61
:100DB000FC0184918823C9F090E0880F991FFC0101
:100DC000E450F64FA591B491FC01EA5FF54FC5914F
:100DD000D49161110DC09FB7F8948C912095822316
:100DE0008C938881282328839FBFDF91CF9108951A
:100DF000623051F49FB7F8943C91822F8095832301
:100E00008C93E8812E2BEFCF8FB7F894EC912E2B9B
:100E10002C938FBFEACFCF92DF92EF92FF926FB702
:100E2000F8948091FC029091FD02A091FE02B09195
:100E3000FF025091FB0222B738B7432F417030FFB9
:100E400004C041E02F3F09F440E06FBF6C017D0119
:100E500037E0CC0CDD1CEE1CFF1C3A95D1F7C50E1B
:100E6000D11CE11CF11CC81AD90AEA0AFB0A880F36
:100E7000991FAA1FBB1FC81AD90AEA0AFB0A63E016
:100E8000CC0CDD1CEE1CFF1C6A95D1F730E0A3E30F
:100E9000B3E00E945F2E672F782F892F99276C0D62
:100EA0007D1D8E1D9F1D442321F06D5C7C4F8F4F57
:100EB0009F4FFF90EF90DF90CF9008958F929F9279
:100EC000AF92BF92CF92DF92EF92FF924B015C0103
:100ED0000E940B076B017C010E940B076C197D09B6
:100EE0008E099F09683E734081059105A8F321E0B2
:100EF000821A9108A108B10888EEC80E83E0D81EB6
:100F0000E11CF11C81149104A104B10429F7FF90A4
:100F1000EF90DF90CF90BF90AF909F908F9008950B
:100F20002FB7F8946091FC027091FD028091FE024F
:100F30009091FF022FBF0895AF92BF92CF92DF92A0
:100F4000EF92FF920F931F93CF93DF936C017B017E
:100F50008B01040F151FEB015E01AE18BF08C0170F
:100F6000D10759F06991D601ED91FC910190F08182
:100F7000E02DC6010995892B79F7C501DF91CF9145
:100F80001F910F91FF90EF90DF90CF90BF90AF90A7
:100F90000895FC01538D448D252F30E0842F90E07F
:100FA000821B930B541710F0CF9608950197089564
:100FB000FC01918D828D981759F0A28DAE0FBF2F35
:100FC000B11D5D968C91928D9F5F928F90E00895F8
:100FD0008FEF9FEF0895FC01918D828D981731F06E
:100FE000828DE80FF11D858D90E008958FEF9FEFC2
:100FF0000895FC01918D828D981B892F90E00895B2
:1010000088EA93E00E94F90721E0892B09F420E0A7
:10101000822F0895FC01A48DA80FB92FB11DA35EE6
:10102000BE4F2C91848D90E001968F739927848F09
:10103000A689B7892C93A089B1898C9182748C93ED
:10104000938D848D981306C00288F389E02D8081EA
:101050008F7D80830895EF92FF920F931F93CF931C
:10106000DF93EC0181E0888F9B8D8C8D981319C0E4
:10107000E889F989808185FF14C09FB7F894EE89CB
:10108000FF896083E889F9898081827480839FBFAA
:1010900081E090E0DF91CF911F910F91FF90EF9051
:1010A0000895F62E0B8D10E00F5F1F4F0F73112761
:1010B000E02E8C8D8E110CC00FB607FCFACFE8899C
:1010C000F989808185FFF5CFCE010E940A08F1CF12
:1010D000EB8DEC0FFD2FF11DE35EFE4FF0829FB70D
:1010E000F8940B8FEA89FB8980818062CFCF0F93C0
:1010F0001F93CF93DF938C01D0E0C0E0F801EC0F99
:10110000FD1F6491662341F088EA93E00E942B085A
:10111000892B11F02196F2CFCE01DF91CF911F9153
:101120000F910895CF93DF93EC01888D8823B9F058
:10113000AA89BB89E889F9898C9185FD03C08081E2
:1011400086FD0DC00FB607FCF7CF8C9185FFF2CF5F
:10115000808185FFEDCFCE010E940A08E9CFDF91A3
:10116000CF91089585ED86BF06B604FCFDCF1092A1
:10117000320308952091B902260F3327331F2132FD
:101180003105ECF420913203FC0190E080E0243042
:1011900069F082E00895A091B9022191AC0149560D
:1011A0005D4FA40FB52FB11D2C930196861798F3B0
:1011B0008091B902680F6093B90280E0089581E0E0
:1011C0000895089508950895E091260380912503D8
:1011D000E81730F4F0E0EB5FFC4F808190E0089579
:1011E0008FEF9FEF08958091250390912603891B2F
:1011F000990B0895CF92DF92EF92FF920F931F9376
:10120000CF93DF937C01CB018A012091330322230A
:1012100089F0EB016B01C40ED51ECC15DD0569F01C
:101220006991D701ED91FC910190F081E02DC7010A
:101230000995F3CF642F0E94BA08C801DF91CF91BE
:101240001F910F91FF90EF90DF90CF900895CF9373
:10125000DF931F92CDB7DEB769832091330322233A
:10126000F9F020915603203258F021E030E0FC01E3
:101270003383228390E080E00F90DF91CF91089537
:1012800080913403E82FF0E0EB5CFC4F9981908370
:101290008F5F809334038093560381E090E0ECCF1E
:1012A00061E0CE0101960E94BA08F7CF682F85E071
:1012B00095E00C9427090F931F93CF93DF93082F8A
:1012C000162FD42F88E60E94FE0590E080E00E9451
:1012D000560980912903CAE06C2F0E946E2E8295D8
:1012E000807F682F690F85E095E00E942709809133
:1012F00028036C2F0E946E2E8295807F682F690FC5
:1013000085E095E00E942709809127036C2F0E94B9
:101310006E2E8295807F682F690F85E095E00E9490
:10132000270981E090E00E945609802F6C2F0E94CF
:101330006E2E8295807F682F690F85E095E00E9470
:101340002709812F6C2F0E946E2E8295807F682F37
:10135000690F85E095E00E9427098D2F6C2F0E9470
:101360006E2E8295807F682F690F85E095E00E9440
:101370002709DF91CF911F910F910C94FB0590E00D
:1013800080E008950F931F93E091A603F091A703C7
:101390009B01AC0122503109410951098681978195
:1013A000A085B1850297A109B109281739074A0715
:1013B0005B0778F4A281B0E00E941D2E0289138998
:1013C00024893589600F711F821F931F1F910F9110
:1013D000089560E070E0CB01F9CF0F931F93CF9396
:1013E000DF93EC01E091A603F091A7031982188224
:1013F0006C817D818E819F816130710581059105B0
:1014000081F1068117812085318560177107820778
:10141000930738F5611571058105910539F420812F
:10142000233021F46685778580899189688779875B
:101430008A879B87611571058105910569F00E9476
:10144000C2096C877D878E879F8790E080E0DF915F
:10145000CF911F910F910895668577858089918935
:10146000F0CF81E090E0F3CF8FB9779BFECF089566
:101470008FEF0E94340A8FB108950F931F93CF937B
:10148000DF93C091DE02D091DF022197CD3F8FEF35
:10149000D80721F080E00E94340AF7CF0E94380A72
:1014A0008F71853079F0D1E0C0E061E084E00E9486
:1014B000A1060E94380A8D2F9C2FDF91CF911F919A
:1014C0000F91089508E813E1C4EFD1E00E94380AB3
:1014D0008F3F49F00115110531F3CE010197F1F766
:1014E00001501109F3CFD1E0C0E0012BF1F2D0E0BF
:1014F000DCCFFF920F931F93CF93DF93C82FD42F8E
:10150000152F062FF72E80917B0381113FC083E5B5
:101510008DB91EB8C7FF09C040E050E0BA0187E7A7
:101520000E94790A823060F5CF7761E084E00E9402
:10153000A1060E94380A60E084E00E94A1060E9491
:10154000380A8C2F0E94340A8F2D0E94340A802F73
:101550000E94340A812F0E94340A8D2F0E94340A7F
:1015600085E9C03421F087E8C83409F081E00E94A1
:10157000340ACAE00E94380A87FF02C0C150D1F77E
:10158000DF91CF911F910F91FF90089580E58DB964
:1015900081E08EB9BFCFCF92DF92EF92FF920F938F
:1015A0001F93CF93DF937C01690180917B0383FDBF
:1015B00007C089E0440F551F661F771F8A95D1F732
:1015C00081E50E94790A811108C0C0E4DCE90E942B
:1015D000380A8F3F29F42197D1F7C1E0D0E022C02B
:1015E0008E3FD9F7C2E0D2E0C01BD10BCC19DD0988
:1015F00081E0C81AD10818F00E94380AF9CFE11426
:10160000F10401F10E0D1F1D0E94380AF7018193AC
:101610007F010E171F07C1F70E94380A2197E1F7D3
:10162000D0E0C0E061E084E00E94A1060E94380A98
:10163000CE01DF91CF911F910F91FF90EF90DF903E
:10164000CF9008950E94380A01501109D9F7E4CFCC
:10165000CF92DF92EF92FF920F931F93CF93DF937E
:10166000EC016A017B0102E010E02EEF31E00E9404
:10167000CB0A892B31F58881998185359A4A59F5AC
:1016800026E330E0B701A601CE010E94CB0A892BE8
:1016900029F4888199818634914489F002E010E030
:1016A00022E530E0B701A601CE010E94CB0A892BCA
:1016B000A1F481E0288139812634314419F480E095
:1016C00001C083E0DF91CF911F910F91FF90EF90C8
:1016D000DF90CF90089582E0F5CF81E0F3CF4F9275
:1016E0005F926F927F928F929F92AF92BF92CF92B2
:1016F000DF92EF92FF920F931F93CF93DF93CDB7BB
:10170000DEB7A4970FB6F894DEBF0FBECDBF109220
:10171000A7031092A60380917B03882339F084E00D
:101720000E947806892B11F40E943D0A61E084E052
:101730000E94A10661E084E00E94CF0661E085E09E
:101740000E94CF0661E087E00E94CF0661E084E05E
:101750000E94CF0683E58DB91EB861E084E00E9447
:10176000A1061AE00E94380A1150E1F740E050E06B
:10177000BA0180E40E94790A182F813009F441C02F
:1017800010E010937B0361E084E00E94A1060E94B8
:10179000380A82E090E01123E9F040E050E0BA011D
:1017A000CE0101960E94280BC12CD12C76018130EC
:1017B00009F096C000E110E02EEB31E040E050E08F
:1017C000BA01CE0101960E94CB0A892B09F478C098
:1017D00081E090E0A4960FB6F894DEBF0FBECDBFB7
:1017E000DF91CF911F910F91FF90EF90DF90CF90FD
:1017F000BF90AF909F908F907F906F905F904F9031
:1018000008954AEA51E060E070E088E40E94790AB5
:10181000813091F5CE0101967C016E0195E0C90EF3
:10182000D11C87010E94380AF80181938F01CE16DE
:10183000DF06C1F78B81813009F0A2CF8C818A3A13
:1018400009F09ECF80E1C82E87E2D82E94EFA92E12
:10185000BB24B39440E050E060E070E489EE0E9465
:10186000790A882309F4C9C0C5010197F1F7F1E0AD
:10187000CF1AD10879F784CF40E050E0BA0189EE61
:101880000E94790A01E4823010F412E009EEA0E12E
:10189000EA2EA7E2FA2EB4EFCB2EDD24D39440E05B
:1018A00050E0BA01802F0E94790A882309F4BBC056
:1018B000C6010197F1F7F1E0EF1AF10881F760CF67
:1018C0008D81811103C086E090E084CFC984DA84E1
:1018D000EB84FC84B701A601CE0101960E94280B7F
:1018E000833009F475CF8111EECF04E210E02DE0D2
:1018F00030E0B701A601CE0101960E94CB0A892BE8
:1019000009F066CF2A853B8550E040E0211531057E
:101910004105510521F4288D398D4A8D5B8DAC81AF
:10192000B0E00E941D2E4B015C014A815B8170E09A
:1019300060E0C40ED51EE61EF71EC0928603D0924C
:101940008703E0928803F0928903E981E0937E03A4
:101950008D819E8190938103809380030F811885F0
:1019600030E020E0011511052105310521F40C8935
:101970001D892E893F89F4E096958795FA95E1F7C0
:101980002C01712C612C041B150B260B370BC90184
:10199000B801681979098A099B09641975098609CA
:1019A00097092E2F30E050E040E00E948E2EDA01A1
:1019B000C9010296A11DB11D8093820390938303F8
:1019C000A0938403B0938503265F3F4041095109EA
:1019D0002F3F3F4E4105510588F1873F9F4FA1059D
:1019E000B10588F570CF82E080937C03D501C401F6
:1019F0008C0D9D1DAE1DBF1D2DC040E050E0BA01F5
:101A00008AE70E94790A8111BBCE0E94380AF70149
:101A100081937F010E171F07C1F789811CE086FDA6
:101A2000B0CE14E0AECE40E052E060E070E080E581
:101A30000E94790A882309F4A4CEA2CE873F9F4F43
:101A4000A105B10580F283E080937C0388A199A170
:101A5000AAA1BBA180938A0390938B03A0938C03CC
:101A6000B0938D03C40CD51CE61CF71C8C0C9D1C7C
:101A7000AE1CBF1C80928E0390928F03A0929003A5
:101A8000B092910310927D038CE793E09093A703AB
:101A90008093A60390E080E09DCE0F931F93CF9399
:101AA000DF9300D000D0CDB7DEB76230710581057D
:101AB000910528F461E070E080E090E055C0E0918D
:101AC000A603F091A7030681178120853185601751
:101AD00071078207930770F7AB01BC0180818230E8
:101AE00031F1833039F79A012F773327220F331FD3
:101AF000220F331F97E076956795579547959A95EE
:101B0000D1F782859385A485B585480F591F6A1F33
:101B10007B1F04E010E0CE0101960E94CB0A892BC6
:101B200049F669817A818B819C819F701DC09A01E1
:101B30003327220F331F452F562F672F7727828594
:101B40009385A485B585480F591F6A1F7B1F02E046
:101B500010E0CE0101960E94CB0A892B09F0AACF92
:101B600069817A8190E080E00F900F900F900F9044
:101B7000DF91CF911F910F9108956F927F928F9275
:101B80009F92AF92BF92CF92DF92EF92FF920F930C
:101B90001F93CF93DF93C091A603D091A703FC01BD
:101BA00011821082209709F4AFC0298120FFAFC0B5
:101BB0000A8D1B8D2C8D3D8D4E895F89688D798DA9
:101BC00068017901C41AD50AE60AF70AB701A60125
:101BD000403251056105710520F040E250E060E0BF
:101BE00070E05C017A013BE5832E33E0932E612C9B
:101BF00042E0742EE114F10409F48CC08E899F89AF
:101C0000A88DB98DAC01BD01517066277727452B92
:101C1000462B472B09F04AC0DA80DA94AC01BD01AB
:101C200029E076956795579547952A95D1F7D4225F
:101C300051F5892B8A2B8B2BD9F46E8D7F8D88A142
:101C400099A16230710581059105C8F4198281E07E
:101C500090E0DF91CF911F910F91FF90EF90DF9077
:101C6000CF90BF90AF909F908F907F906F9008958E
:101C70006AA17BA18CA19DA10E944D0DE2CF6AA318
:101C80007BA38CA39DA36AA17BA18CA19DA10E9493
:101C9000C2096115710581059105C1F26D0D711DB6
:101CA000811D911D6EA37FA388A799A72E893F89C7
:101CB0003170C301821B930B67018E159F0508F4D9
:101CC0006C014EA15FA168A579A58601C4010E949F
:101CD000CB0A892B09F0BACF8E899F89A88DB98D3F
:101CE0008C0D9D1DA11DB11D8E8B9F8BA88FB98F53
:101CF0008C0C9D1CEC18FD08F50180819181C80EAB
:101D0000D91ED182C08276CF85E090E0A2CF84E058
:101D100090E09FCF90E080E09CCF4F925F926F92D7
:101D20007F928F929F92AF92BF92CF92DF92EF926B
:101D3000FF92CF93DF9300D000D000D0CDB7DEB7B5
:101D40002091A6033091A7033E832D8321153105F1
:101D500009F40CC1D90111962C91119720FF09C1EA
:101D60005A96CD90DD90ED90FC905D976C157D05B9
:101D70008E059F0510F46B017C01ED81FE81468884
:101D80005788608C718C168A178A108E118EC11438
:101D9000D104E104F10409F4E6C08280912CB12C55
:101DA000A12C39E0880C991CAA1CBB1C3A95D1F7D0
:101DB000411451046104710409F470C0B1E04B1A7C
:101DC000510861087108C701B601615071098109A4
:101DD0009109A50194010E948E2E29833A834B8399
:101DE0005C83C301B201A50194010E948E2E8981FA
:101DF0009A81AB81BC8182179307A407B50708F4C9
:101E00004DC088279927DC0188199909AA09BB09BF
:101E100084219521A621B721ED81FE81868B978BA8
:101E2000A08FB18FC81AD90AEA0AFB0A62A173A16E
:101E300084A195A18C149D04AE04BF0408F058C081
:101E40000E944D0D623071058105910568F0AD81EC
:101E5000BE8116964D905D906D907C90199764159B
:101E600075058605970540F1ED81FE81118281E0BF
:101E700090E026960FB6F894DEBF0FBECDBFDF917F
:101E8000CF91FF90EF90DF90CF90BF90AF909F9059
:101E90008F907F906F905F904F900895AD81BE813D
:101EA0005E966D917D918D919C919197FD0162A3BC
:101EB00073A384A395A3BECFAD81BE8192966D938B
:101EC0007D938D939C93959756964D905D906D90D4
:101ED0007C905997480C591C6A1C7B1CFD01468A52
:101EE000578A608E718EC818D908EA08FB08A2CFFD
:101EF000AD81BE8156968D909D90AD90BC905997C6
:101F0000C80CD91CEA1CFB1CFD01C68AD78AE08ECE
:101F1000F18E0E94C209AB01BC014115510561055A
:101F2000710529F4AD81BE8111961C92A0CFED817F
:101F3000FE8182818150990B092E000CAA0BBB0BEC
:101F400029E0F694E794D794C7942A95D1F78C2189
:101F50009D21AE21BF21480F591F6A1F7B1F46A339
:101F600057A360A771A790E080E083CF85E090E061
:101F700080CF84E090E07DCF4F925F926F927F920E
:101F8000BF92CF92DF92EF92FF920F931F93CF9366
:101F9000DF93CDB7DEB7EC970FB6F894DEBF0FBE78
:101FA000CDBFE090A603F090A703E114F10409F47B
:101FB00004C1F70111829E012F5C3F4F3CA32BA36C
:101FC0009C016901F90180812F5F3F4F8032C9F385
:101FD0008F3209F469011DA21EA21FA218A6F601E4
:101FE0008081A0E2BA2E803208F0D4C0CE01819662
:101FF0000E94ED091982009709F407C1EC960FB60B
:10200000F894DEBF0FBECDBFDF91CF911F910F912E
:10201000FF90EF90DF90CF90BF907F906F905F9098
:102020004F90089520E0E0E088E0D1C0C30ED11CBD
:1020300081E0913208F080E01B968C93CE0181966E
:102040000E94ED090097D1F629A13AA12F703327FC
:10205000F5E0220F331FFA95E1F74DA55EA56FA5B8
:1020600078A900E210E0CE0101960E94CB0A892BEC
:1020700019F081E090E0C2CF8981811103C083E033
:1020800090E0BCCF8C8583FD13C00BA11CA19E01E9
:102090002F5F3F4FD801B801655F7F4F6A177B07FD
:1020A00009F4AEC0F90141919F019D914917B1F327
:1020B00009A11AA10F5F1F4F11F38DA59EA5AFA512
:1020C000B8A90097A105B105D1F298012F70332767
:1020D000232BB9F40196A11DB11D8DA79EA7AFA713
:1020E000B8AB69A57AA58BA59CA5F701611571050B
:1020F0008105910549F4848195810817190708F035
:10210000BECF1AA309A3A0CF2281E22FE150FF0B7B
:10211000AF019801E4E036952795EA95E1F724238D
:102120003523232B71F70E944D0D62307105810517
:10213000910508F49ECFF701468057806084718432
:10214000641575058605970508F099CF69A77AA7E4
:102150008BA79CA70E94C2096DA77EA78FA798ABEB
:10216000D0CF84FF8CCFF70180818330F1F48D894B
:102170009E89B0E0A0E0DC01992788274B8D5C8D1B
:1021800070E060E0842B952BA62BB72B8DA39EA32C
:10219000AFA3B8A7ABA1BCA1FD01CD010B968E17D3
:1021A0009F0709F43FCFB192FACF80E090E0DC01C5
:1021B000E5CF80E090E0DC013DC085E090E01ECFFF
:1021C000883009F033CF9BE0282FE32F892F31E0AF
:1021D0003E0FEC0DFD2DF11D9081913208F426CFBC
:1021E0009F3209F423CF9E3259F3281708F01ECFEF
:1021F000FD01E20FF11D9083982F81E0820FE4CF63
:10220000F8019385992309F4ACCF8981882309F4D7
:1022100036CF8C8584FD33CFE091A603F091A703E0
:102220008081833031F68D899E89B0E0A0E0DC01A9
:10223000992788274B8D5C8D70E060E0842B952B6F
:10224000A62BB72BF701868F978FA0A3B1A38D8DF7
:102250009E8DAF8DB8A1828F938FA48FB58F168A74
:10226000178A108E118E81E0818390E080E0C6CEC7
:10227000CF93DF93D82FC0E061E08FE00E94A106EA
:1022800060E08FE00E94A106CF5FDC13F5CFDF9105
:10229000CF9108951F93CF93DF93182FD92F81E00B
:1022A0000E94381161E08091EF02823009F060E015
:1022B00082E00E94A106CFEFCABB81E28BBB82E025
:1022C0000E9438111ABACBBB82E00E943811CABBF7
:1022D0001BBB83E00E943811DBBB82E00E943811F7
:1022E0001ABACBBB61E08091EF02823009F460E062
:1022F00082E0DF91CF911F910C94A106CF93DF93E1
:10230000D82F81E00E94381161E08091EF02823085
:1023100009F060E082E00E94A106CFEFCABB86E32D
:102320008BBB82E00E9438111ABACBBB82E00E94BC
:102330003811CABBDBBB82E00E9438111ABACBBB92
:10234000C091EF0261E0C23009F460E082E00E94D7
:10235000A10683E00E94381181E00E94381161E0FB
:10236000C23009F060E082E00E94A106CFEFCABB54
:1023700083E28BBB82E00E9438111ABACBBB61E0CA
:102380008091EF02823009F460E082E00E94A106B1
:1023900083E0DF91CF910C94381188EA93E00E949A
:1023A000F907181619069CF48091EE02813079F431
:1023B00080916B00882359F060E081E00E94A106C3
:1023C0008091E70281608093E70210926B0008958C
:1023D0000E94000881110C94CD110895AC018091E8
:1023E00032038111FCCF962F81E0809332038093DA
:1023F00031032FEF2093300325E033E030932F0398
:1024000020932E0310922D032FEF260F20932C03E1
:1024100080932B0320912B03440F551F822F842B75
:1024200080932B0380912A038130D1F410922A03E8
:1024300080912B0383B906B603FCFACF85EC86BFE7
:10244000809132038130E1F380912D03861710F4DF
:1024500090912D031092260390932503892F0895C0
:1024600085EEEDCFCF9388E60E94FE0590E080E0F8
:102470000E9456090E94FB0562E170E088E690E048
:102480000E94EE110E941B06982F92959770CAE049
:102490008F709C9F800D1124809329030E941B063E
:1024A000982F92959F708F709C9F800D1124809320
:1024B00028030E941B06982F929593708F709C9F03
:1024C000800D1124809327030E941B060E941B0687
:1024D000982F92959F708F709C9F800D11248093F0
:1024E00004030E941B06982F92959F708F709C9FEB
:1024F000800D1124809303030E941B06982F929550
:102500009F708F709C9F800D1124809302030E9406
:102510001B06C150E1F70E941B0680930103CF9177
:102520000895FC0101900020E9F73197AF01481BA5
:10253000590BBC0188EA93E00C949C078F929F9200
:10254000AF92BF920F931F93CF93DF93CDB7DEB7B8
:10255000A1970FB6F894DEBF0FBECDBF19A24230CF
:1025600008F44AE08E010F5D1F4F842E912CB12C90
:10257000A12CA50194010E948E2EE62FB901CA015B
:10258000EA30F4F4E05DD801EE938D01232B242B87
:10259000252B79F790E080E0109719F0CD010E948B
:1025A0009112A1960FB6F894DEBF0FBECDBFDF919A
:1025B000CF911F910F91BF90AF909F908F900895F2
:1025C000E95CE1CFCF92DF92EF92FF92CF93DF935E
:1025D0006C01990FEE08FF08F7FE19C06DE288EA5A
:1025E00093E00E942B08EC0166277727CB016C193A
:1025F0007D098E099F094AE00E949E128C0F9D1F43
:10260000DF91CF91FF90EF90DF90CF9008954AE057
:10261000C701B601DF91CF91FF90EF90DF90CF908F
:102620000C949E12009711F00C94911290E080E0AF
:1026300008951F93CF93DF9300D0CDB7DEB7182F47
:1026400088E991E00E941213612F70E090E080E031
:102650004AE00E949E12105D1093620080E690E0B6
:102660000E94BC0FCE0101960E94BD0D898180930E
:10267000E402882361F082EA91E00E9412138BE564
:1026800093E00E94121385E092E00E9412130F90D3
:102690000F90DF91CF911F910895CF93C82F8A306B
:1026A00020F483EB91E00E9412136C2F70E090E015
:1026B00080E04AE0CF910C949E1281110E94321268
:1026C000809104030E944D1385EA91E00E94121349
:1026D000809103030E944D1385EA91E00E9412133A
:1026E000809102030E944D1380EA91E00E94121330
:1026F000809127030E944D1387EA91E00E941213F4
:10270000809128030E944D1387EA91E00E941213E2
:10271000809129030C944D1389EA91E00C94911255
:10272000CF93DF930E947708EC010E948C138C0FEB
:102730009D1FDF91CF91089588EA93E00E94F907E9
:10274000181619062CF488EA93E00E94D807F4CFF3
:1027500080E897E00E94901388EA93E00E94F907CE
:1027600018161906CCF70895CF93DF93682F70E001
:1027700090E080E04AE00E949E12EC010E948C13DF
:102780008C0F9D1FDF91CF910895CF93DF930E940F
:102790009112EC010E948C138C0F9D1FDF91CF9141
:1027A00008950F931F93CF93DF93D82FC62F8A01DD
:1027B0008CE198E00E9477086C2F70E090E080E058
:1027C0004AE00E949E1282EA91E00E94121381E088
:1027D00098E0C330C1F058F483E198E0C13099F03B
:1027E00089E098E0C23079F084ED97E00CC08AEE81
:1027F00097E0C53041F086EF97E0C53020F08CEDD2
:1028000097E0C63089F70E9477088FEC97E00E9426
:10281000770884EC97E0D13031F089EC97E0D23042
:1028200011F48FEB97E00E94770884EB97E00E9409
:1028300077080115110539F08AEA97E00E947708B8
:10284000C8010E94121385E092E0DF91CF911F91A1
:102850000F910C94C513CF93DF93CDB7DEB72E97AE
:102860000FB6F894DEBF0FBECDBF83E496E09A8723
:1028700089871C861B8682E08C8388EA93E09E878A
:102880008D87AE01495E5F4F6D897E89CE010196CD
:102890000E947B2B2E960FB6F894DEBF0FBECDBFE5
:1028A000DF91CF910895FF920F931F93CF93DF9302
:1028B000F42EC62FD0E0082F10E090910003943042
:1028C00008F11F924F939E01220F331F220F331FD7
:1028D00020523F4F3F932F931F926F931F928F93DE
:1028E0008DED98E09F938F9388EA93E09F938F9369
:1028F0000E942B148DB79EB70C960FB6F8949EBF0E
:102900000FBE8DBF88E40E94FE0583E0CC0FDD1F63
:102910008A95E1F7C801880F991F8C2B9D2B0E9487
:1029200056096F2D85E095E00E94270981E0DF912F
:10293000CF911F910F91FF900C94A605EF92FF92FB
:102940000F931F93CF93DF93F82EE62E88E40E9417
:10295000FE05CE2DD0E08F2D90E09E0143E0220FAA
:10296000331F4A95E1F7880F991F822B932B0E9402
:10297000560980E00E94A60561E070E088E490E0DE
:102980000E94EE110E941B068C018091000384308E
:1029900010F1C80199279F938F93CC0FDD1FCC0FA7
:1029A000DD1FC056DF4FDF93CF931F92EF921F9230
:1029B000FF9284EA98E09F938F9388EA93E09F9335
:1029C0008F930E942B148DB79EB70C960FB6F89478
:1029D0009EBF0FBE8DBF802FDF91CF911F910F91B2
:1029E000FF90EF900895CF93DF93D82F63E00E947C
:1029F0009E14807CC82FC36080910003882339F027
:102A00008DEA9AE00E9477088C2F0E94B4134C2F15
:102A100063E08D2FDF91CF910C9453140F931F938C
:102A2000CF93DF93C82F162F809100038330F8F0E7
:102A30008FEA91E0662311F08CEA91E01F922CE37B
:102A40002F939F938F931F92CF938AE79AE09F9340
:102A50008F9388EA93E09F938F930E942B148DB7F6
:102A60009EB70A960FB6F8949EBF0FBE8DBF64E066
:102A70008C2F0E949E14482F446064E08C2F0E948B
:102A8000531463E08C2F0E949E14082F4FEB63E0D9
:102A90008C2F0E94531462E08C2F0E949E14D82F1A
:102AA000482F406162E08C2F0E94531440EF1111B7
:102AB0004FE067E08C2F0E9453144D2F62E08C2F63
:102AC0000E945314402F63E08C2FDF91CF911F9110
:102AD0000F910C9453144F925F926F927F928F924A
:102AE0009F92AF92BF92CF92DF92EF92FF92CF93DD
:102AF000DF93C82F4A015B0164E00E949E1424E02A
:102B000087FF21E030E050E040E060E072EC81E0DF
:102B100090E00E948E2E29013A01CA01B901A50157
:102B200094010E948E2E69017A0163E08C2F0E942D
:102B30009E14D82F482F406863E08C2F0E945314B6
:102B40004C2D60E08C2F0E9453144D2D552761E0D1
:102B50008C2F0E9453144D2F4F7763E08C2F0E94CF
:102B60005314EE24FF24C301B201A70196010E9471
:102B70008E2E29013A0180910003823008F182E60D
:102B800098E00E9477084AE0C501B4010E949E12B5
:102B90000E948C1386E498E00E9477084AE0C701FF
:102BA000B6010E949E120E948C138DE298E00E9452
:102BB00077084AE0C301B2010E949E120E948C1362
:102BC000C301B201DF91CF91FF90EF90DF90CF90E2
:102BD000BF90AF909F908F907F906F905F904F903D
:102BE0000895FC0180819181009711F00C943F2B96
:102BF00060E070E0CB010895FC0180819181009735
:102C000011F00C94662F0895EF92FF920F931F938B
:102C1000CF93DF93EC017B018A0188819981009732
:102C200029F02A813B812417350788F4B8016F5FAA
:102C30007F4F0E94EF2F009791F0998388831B8329
:102C40000A832C813D81232B11F4FC0110821D830A
:102C50000C83B701888199810E94B5300CC08881AE
:102C60009981009711F00E94662F198218821D82A7
:102C70001C821B821A82CE01DF91CF911F910F918E
:102C8000FF90EF900895AF92BF92CF92DF92EF92B4
:102C9000FF920F931F93CF93DF93EC016B015A01C7
:102CA00079012417350720F48B2D5901E42EF82ED5
:102CB000198218821B821A821D821C8250E040E019
:102CC0006BEA71E0CE010E940416D60114960D91B4
:102CD0001C91A016B10628F5E016F10608F487014C
:102CE000D601ED91FC911197E00FF11FF080108259
:102CF0006D917C916A0D7B1D61157105F1F0FB01F1
:102D000001900020E9F73197AF01461B570BCE0128
:102D10000E940416F60180819181080F191FD801C5
:102D2000FC92CE01DF91CF911F910F91FF90EF9018
:102D3000DF90CF90BF90AF900895888199810097E0
:102D400011F00E94662F198218821D821C821B823C
:102D50001A82E0CF1F93CF93DF93EC01162F0E94CE
:102D6000082E181739F0612FCE01DF91CF911F91F6
:102D70000C94102EDF91CF911F9108950C94082E82
:102D8000CF92DF92EF92FF920F931F93CF930E9407
:102D900090076B017C01C1E088EA93E00E94F9078B
:102DA000892B09F09BC00E9490076C197D098E0940
:102DB0009F09683B7B4081059105A0F462E08DE0AE
:102DC0000E94CF068DE00E947806892B09F0C0E0B2
:102DD00061E08DE00E94CF066AE070E080E090E064
:102DE0000E945E070E9490070091570310915803BC
:102DF0002091590330915A03601B710B820B930B86
:102E00006D32714081059105A0F080E00E94780646
:102E100061E0892B09F060E080E00E94A1060E9439
:102E200090076093570370935803809359039093CE
:102E30005A030E9490076C197D098E099F09693B0E
:102E40007B408105910508F4A7CFCC2309F4A4CFDA
:102E50008FE090E00E94BE16893009F49DCF60E0BB
:102E600080E00E94A10669E08FE090E00E94AA162F
:102E700083EC9AE00E9490130E949007C090570341
:102E8000D0905803E0905903F0905A036C197D09D3
:102E90008E099F09653671058105910568F380E00B
:102EA0000E94780661E0892B09F060E080E00E94D2
:102EB000A1068DE00E94780661E0892B09F060E0B0
:102EC0008DE00E94A1060E949007609357037093C3
:102ED00058038093590390935A03CECFCF911F91FB
:102EE0000F91FF90EF90DF90CF9008959F92AF9257
:102EF000BF92CF92DF92EF92FF920F931F93CF93E7
:102F0000DF9300D000D000D0CDB7DEB761E086E11E
:102F10000E94CF0660E086E10E94A10661E080E0A9
:102F20000E94CF0660E080E00E94A10662E08DE092
:102F30000E94CF068DE00E9478068C0161E08DE052
:102F40000E94CF0661E08DE00E94A10662E081E070
:102F50000E94CF0661E081E00E94CF0661E081E03F
:102F60000E94A10661E082E00E94CF0660E083E05B
:102F70000E94CF0662E08EE00E94CF0661E08EE004
:102F80000E94CF0661E08EE00E94A1061ABA8FEF80
:102F90008BBB62E085E10E94CF0662E084E10E9483
:102FA000CF0662E083E10E94CF0662E082E10E94E8
:102FB000CF0680E190E00E94BE168093EF0283303E
:102FC00038F060E080E190E00E94AA161092EF02D3
:102FD0008FE090E00E94BE16C12CA2ECDA2EEE2407
:102FE000E394F12C893050F4E82FF0E0EE0FFF1F4E
:102FF000E257FF4FC080D180F12CE12C60E47BE4EC
:103000008CE490E0A70196010E948E2E2150310998
:10301000410951095695479537952795E091B80391
:10302000F091B90382E08083211580E13807A8F090
:10303000E091B803F091B903108260EA75E286E28C
:1030400090E0A70196010E948E2E2150310941097E
:103050005109569547953795279578EAE72E73E0FD
:10306000F72EE091B403F091B5033083E091B603FD
:10307000F091B70320831092C003E091BC03F0915C
:10308000BD0386E88083E091BA03F091BB038081A1
:1030900088698083E091BA03F091BB0380818F7DC2
:1030A000808389E397E00E94901381E08F931F92C1
:1030B00087E097E09F938F93FF92EF920E942B14EB
:1030C00061E08CE00E94CF0661E08CE00E94A106E6
:1030D00061E08BE00E94CF0660E08BE00E94A106D9
:1030E00061E08FE00E94CF0660E086E10E94A106C9
:1030F00086E00E94381161E086E10E94A10682E02C
:103100000E943811F090EF020F900F900F900F90E7
:103110000F900F90F11002C262E08AE00E94CF0689
:1031200061E082E00E94A10661E087E10E94CF0693
:1031300060E087E10E94A10664E670E080E090E034
:103140000E945E0761E087E10E94A10664EF71E0E2
:1031500080E090E00E945E078DE090E00E94BE1645
:10316000823028F061E08DE090E00E94AA168DE0A8
:1031700090E00E94BE16809396028EE090E00E943E
:10318000BE168093F502863038F060E08EE090E065
:103190000E94AA161092F50210922603109225039F
:1031A000109234031092560310923203FF24F394CA
:1031B000F092310310922A0361E081E10E94A1069E
:1031C00061E080E10E94A106089809988CE580B929
:1031D00085E486BF81EE98E09093B8028093B702B1
:1031E00082EE98E09093BC028093BB0281E180B9AB
:1031F00080E20E94FE050E94FB0581110FC0F09243
:10320000F60280E20E94FE058CE090E00E945609E2
:1032100085E090E00E9456090E94FB0588E40E9428
:10322000FE050E94FB05811190C045E567E00E9404
:10323000531467E080E00E949E14853509F085C034
:103240004AEA67E080E00E94531467E080E00E9451
:103250009E148A3A09F079C045E567E081E00E9452
:10326000531467E081E00E949E14853509F06DC01B
:103270004AEA67E081E00E94531467E081E00E941F
:103280009E148A3A09F061C081E08093E9026EE001
:1032900080E00E949E14482F48606EE080E00E940B
:1032A000531462E080E00E949E14482F416062E067
:1032B00080E00E94531462E081E00E949E14482F37
:1032C000416062E081E00E94531460E080E00E946F
:1032D0000E1561E080E00E940E1560E081E00E9422
:1032E0000E1561E081E00E940E1540EB54E060E0B5
:1032F00070E080E00E946B1540EB54E060E070E00D
:1033000081E00E946B1580E00E94F31481E00E942E
:10331000F31462E080E00E949E14482F426062E055
:1033200080E00E94531462E081E00E949E14482FC6
:10333000426062E081E00E94531460E080E00E94FD
:103340009E1460E081E00E949E148FE090E00E9455
:10335000BE168A3028F069E08FE090E00E94AA163D
:1033600080EF96E00E94770880919602882309F406
:10337000EEC082E892E00E9412138CEE96E00E946A
:1033800090132091EF0280E890E002C0880F991F0F
:103390002A95E2F79F938F938AED96E09F938F9300
:1033A00088EA93E09F938F930E942B148091EF0201
:1033B0000F900F900F900F900F900F90813009F0A9
:1033C000C9C085EB91E00E9412130E948C1388E61D
:1033D0000E94FE050E94FB05811152C186E593E023
:1033E0000E94770881E00E945D1385E092E00E94D0
:1033F000C51381E393E00E94770880910103082EB2
:10340000000C990B0E94E21287E092E00E94C51323
:1034100088E60E94FE058FE090E00E9456090E9417
:10342000FB0561E070E088E690E00E94EE110E94EA
:103430001B0687FF01C128E030E046E050E067E16D
:1034400075E0CE0101960E944316CE0101960E94BE
:10345000F11560932903CE0101960E94FC1525E029
:1034600030E043E050E067E175E0CE0101960E9454
:103470004316CE0101960E94F11560932803CE01F8
:1034800001960E94FC1522E030E050E040E067E148
:1034900075E0CE0101960E944316CE0101960E946E
:1034A000F11560932703CE0101960E94FC1526E0DA
:1034B00030E044E050E061E175E0CE0101960E9409
:1034C0004316CE0101960E94F11560930403CE01CC
:1034D00001960E94FC1590E080E00E942E06EFEB22
:1034E000E80FE33108F04DC00E2E000CFF0BE5583D
:1034F000F54E0C94B02E241BC11AC11A3E1BC11AE2
:10350000221BC11AC11AC11AB01AC11AC11A2E1B24
:103510003C1B3A1BC11AC11AC11A381B61E08AE070
:103520000E94CF0660E08AE00E94A10681E08F152C
:1035300008F0F6CD60E082E00E94A10661E087E13C
:103540000E94CF0660E087E10E94A10605CE82EBD3
:1035500091E011CF823009F038CF81ED91E033CF87
:1035600081E090E00E942E06813609F467C082E077
:1035700090E00E942E068E3609F062C086E08093AD
:1035800003032BE030E049E050E061E175E0CE015B
:1035900001960E944316CE0101960E94F115609398
:1035A0000203CE0101960E94FC1589E193E00E947E
:1035B00090138EEE92E00E94770880E00E945D13E7
:1035C00083EE92E00E9477080E94C01688EA93E09A
:1035D0000E94D80780939402982F9F7D993511F00F
:1035E0009E3491F7682F88EA93E00E942B080E948E
:1035F0008C13809194028F7D893589F44091020368
:1036000060910303809104030E945B098EEB92E0BA
:103610000E94770881E00E945D130E948C1388E667
:103620000E94FE058FE090E00E94560988E090E03D
:103630000E9456090E94FB0581E023C081E09FCFD4
:1036400087E09DCF82E09BCF82E090E00E942E0633
:10365000823711F484E093CF88E091CF82E090E04C
:103660000E942E06823711F483E089CF85E087CF50
:1036700089E085CF8AE083CF8BE081CF8CE07FCF5C
:1036800080E08093E6028091F602882321F084ECAA
:1036900096E00E9490138091E902882321F086EA47
:1036A00096E00E9490138FE896E00E9477088CE0E5
:1036B00090E00E94BE16823028F060E08CE090E03E
:1036C0000E94AA168CE090E00E94BE168093E5024C
:1036D0008823F9F08CE896E00E9490130E946F0B0B
:1036E0000E946F0B8AE090E00E94BE1680939502C4
:1036F000012B19F0853008F4F1C088EA93E00E94AC
:10370000F9071816190644F488EA93E00E94D807CE
:10371000F4CF88E896E0E0CF0E948C138CE596E029
:103720000E9490130E948C1310919502153008F09E
:103730002AC18CE496E00E947708812F90E00196E0
:103740000E94E21285E092E00E94C51310E382E439
:1037500096E00E94901388E396E00E94901387E21F
:1037600096E00E9477088091F5020E94191388E183
:1037700096E00E9490138EE096E00E9490138FEEE8
:1037800095E00E94770880919602882309F4FDC095
:1037900082EB91E00E9412138AEE95E00E94901352
:1037A0008DEC95E00E9477088091E5028111F0C0D0
:1037B00089E092E00E94121385E092E00E94C51316
:1037C0008DEA95E00E9477088FE090E00E94BE1697
:1037D000893008F0E2C0E82FF0E0EE0FFF1FE2575B
:1037E000FF4F6081718190E080E04AE00E949E126C
:1037F00085E092E00E94C5138091E602882321F0C3
:1038000087E995E00E94901384E895E00E9477088C
:1038100080E190E00E94BE1620E830E002C0220F56
:10382000331F8A95E2F73F932F938BE795E09F93A1
:103830008F9388EA93E09F938F930E942B1485E0E7
:1038400092E00E94C5130E948C1386E695E00E94C8
:1038500077080F900F900F900F900F900F900E948D
:10386000C01688EA93E00E94D807809394028F33B1
:1038700009F098C0909100039F5F90930003682F18
:1038800088EA93E00E942B0881E695E00E9490135D
:1038900010910003112339F08FE495E00E9477081E
:1038A000812F0E94B41380919402883309F43AC1A5
:1038B0000CF084C0863309F41FC10CF029C1833396
:1038C00009F4C7C06091940261536093950265301A
:1038D00008F0C1C48AE090E00E94AA168091950287
:1038E000823051F489ED94E00E9477088091F502CE
:1038F0000E9419130E948C1310919502123009F442
:1039000078C308F051C3112309F465C388E192E03C
:10391000113009F4A6C361E080E00E94A106E090A6
:103920008F02F0909002E114F10469F090E080E0E1
:103930000E944A1183EC0E947E118E2D0E947E11FE
:103940008F2D0E947E11C7010E944A11143008F089
:1039500049C40E946F0B882309F49BC30E946F0B1C
:1039600080938A02882309F494C360918A026623B3
:1039700029F050E040E080E00E94D1130E949C13A7
:103980000E946F0BEBCF11E3E2CE82E892E002CF10
:1039900089EC95E00E9477080FCF60E072EC81E03F
:1039A00090E023CF803219F41092000358CF811792
:1039B0000CF455CF82360CF052CF61CF813409F42C
:1039C00088C2813609F485C2893309F07BCF0E9411
:1039D00032121092F1028FE194E00E94901380EF76
:1039E00093E00E9490133AE0F32E46EFE42EDD249C
:1039F000D3948EEE93E00E9477088091F10282309A
:103A000009F419C108F0FAC0882309F404C181300F
:103A100009F40AC10E94C01688EA93E00E94D80700
:103A2000082F80939402853709F423C1853509F462
:103A300020C1843709F416C4843509F413C48D30C9
:103A400049F71091F1026DE088EA93E00E942B089B
:103A500034C189E394E00E9490138091F502815073
:103A60008093930206E0809193028F5F602F0E9403
:103A70006E2E192F909393028AE495E00E947708A6
:103A8000812F0E94191387E395E00E94770888EA46
:103A900093E00E94F907181619062CF488EA93E0BF
:103AA0000E94D807F4CF88EA93E00E94F90718161D
:103AB00019061CF00E94C016F6CF88EA93E00E9417
:103AC000D807809394028D3011F08B3161F60E94FB
:103AD0008C130E948C13809194028D3009F0F2CEE9
:103AE000609193026093F5028EE090E00E94AA1626
:103AF00083E380939402E6CE61E080919602811187
:103B000060E0609396028DE090E00E94AA16DACE03
:103B100061E08091E502811160E06093E5028CE054
:103B200090E0F3CF89E394E00E9490138FE090E05F
:103B30000E94BE168150809393020AE08091930206
:103B40008F5F602F0E946E2E192F9093930282E355
:103B500095E00E94770860E072EC81E090E0193017
:103B600051F0E12FF0E0EE0FFF1FE257FF4F6081B1
:103B7000718190E080E04AE00E949E128DE295E023
:103B80000E94770888EA93E00E94F9071816190640
:103B90002CF488EA93E00E94D807F4CF88EA93E0F7
:103BA0000E94F907181619061CF00E94C016F6CFDD
:103BB00088EA93E00E94D807809394028D3019F030
:103BC0008B3109F0BBCF0E948C130E948C13809123
:103BD00094028D3009F076CE8FE090E00E94BE1600
:103BE00060919302861709F433C38FE090E00E943E
:103BF000AA1687EF94E00E94901364CE843091F16E
:103C000050F1853009F006CF82EA93E00E947708F0
:103C10008091290306C085EE93E00E947708809189
:103C200002030E944D13F6CE8BED93E00E947708BD
:103C300080910303F6CF8DEC93E00E9477086DE04E
:103C400088EA93E00E942B0884EC93E00E947708B6
:103C500080910403E6CF8AEB93E00E94770880917D
:103C60002703DFCF8EEA93E00E9477088091280334
:103C7000D8CF1091F102123009F463C0E0F511239E
:103C800009F449C0113009F451C0802F8F7D84356B
:103C900009F0AAC0123009F4C3C008F08DC0112386
:103CA00009F49BC0113009F4AFC06DE088EA93E0DD
:103CB0000E942B080D3009F09CCE1F5F1093F1027B
:103CC000163008F496CE4091020360910303809170
:103CD00004030E945B0982E993E00E94901385E748
:103CE00093E00E94770881E00E945D1385E092E0F6
:103CF0000E94C513E7CD143009F450C008F443C046
:103D0000153019F6809129038F5F8C3308F051C06C
:103D100080932903BACF809102038F5F843618F411
:103D200080930203B2CF10920203AFCF80910303BE
:103D30008F5F8D3018F480930303A7CF1093030394
:103D4000A4CF809104038F5F80930403E091030369
:103D5000E23089F490E020910203237049F42DE1D0
:103D600030E0281739070CF090CFD09204038DCFA4
:103D70002CE130E0F6CFF0E0EF57FF4F908198173D
:103D800008F083CFF2CF809127038F5F883118F43A
:103D9000809327037ACF1092270377CF809128034F
:103DA0008F5F8C3318F4809328036FCF1092280311
:103DB0006CCF1092290369CF143009F46EC008F457
:103DC0005AC0153009F071CF20912903265F2C339A
:103DD00008F075C02093290307C020910203265FD5
:103DE000243640F4209302036DE088EA93E00E94B9
:103DF0002B08FFCD822F6F2D0E946E2E8E9D200DE1
:103E000011242093020351CF809103038B3020F0C3
:103E10008A508093030349CF833030F7865FF9CF10
:103E200020910403265F20930403422F50E0E09189
:103E30000303F0E0EF57FF4F808190E030910203E1
:103E4000337061E070E011F070E060E0860F971F62
:103E5000841795074CF4822F6F2D0E946E2E8E9D35
:103E6000200D112420930403809104038111BCCF01
:103E7000D09204031ACF20912703265F283118F42B
:103E800020932703B1CF822F6F2D0E946E2E8E9D1F
:103E9000200D11242093270308CF20912803265FAB
:103EA0002C3318F4209328039FCF822F6F2D0E946C
:103EB0006E2E8E9D200D112420932803F6CE822F86
:103EC0006F2D0E946E2E8E9D200D112420932903AC
:103ED000ECCE89E394E00E9490138091EF02815030
:103EE0008093930283E0C82ED12C90E8A92EB12CA8
:103EF00007EE14E028EAE22E23E0F22E80919302EE
:103F00008F5F90E0B6010E947A2E982E80939302E4
:103F100082EF94E00E947708C50102C0880F991FC4
:103F20009A94E2F79F938F931F930F93FF92EF92D0
:103F30000E942B140F900F900F900F900F900F90E6
:103F400088EA93E00E94F907181619062CF488EA0B
:103F500093E00E94D807F4CF88EA93E00E94F90723
:103F6000181619061CF00E94C016F6CF88EA93E0D6
:103F70000E94D807809394028D3019F08B3109F09C
:103F8000BDCF0E948C130E948C13809194028D30BF
:103F900009F098CC609193026093EF0280E190E089
:103FA0000E94AA1680E3A5CD133009F46FC0143027
:103FB00009F0B1CCE7EDF4E08591949190938E02F5
:103FC00080938D028AE692E090938C0280938B021C
:103FD00080E19DEF3FC08CE092E09093920280934D
:103FE00091021092900210928F0281E08093EE0273
:103FF00092CC8091F502823091F170F4882311F116
:10400000813009F088CC8EE292E090939202809306
:10401000910280E890E01EC08430A9F148F185301B
:1040200009F079CC88E592E0909392028093910216
:104030001092900210928F0281E08093EE028093A2
:10404000ED0269CC84E292E0909392028093910217
:1040500080EE91ED9093900280938F025CCC89E387
:1040600092E0909392028093910280E091E0F2CFEF
:1040700084E492E0909392028093910210929002D5
:1040800010928F0248CC80E592E0F4CF82E692E075
:10409000F1CF80919102909192020E94BC0F809387
:1040A0008A02882321F160918A02662339F04091C7
:1040B00091025091920281E00E94D1130E949C13C0
:1040C0000091910210919202C8010E94BC0F80934E
:1040D0008A02833049F00E946F0B0E946F0BC80167
:1040E0000E94BC0F80938A0280918A02DACF8BEB08
:1040F00094E00E94770880919102909192020E9430
:10410000121386EB94E00E947708CE0101960E947C
:10411000BD0D082F89818093E40200938A021092DA
:104120009302109193028091E402181758F4E12F42
:10413000F0E0E55AFC4F80810E947E111F5F1093D2
:104140009302EFCF803291F40023F9F24091910273
:1041500050919202602F82E00E94D1130E949C1322
:1041600060E070E0CB010E948D0E02C00111EECF25
:1041700080918A028111C9CF83E994E00E94901353
:1041800060E086E10E94A10682B5877F82BD85B589
:10419000816085BD85B5897F85BD85B5886085BD14
:1041A00085B58F7B85BD85B5806185BD85B58F7DE6
:1041B00085BD8091960283BD61E08FE00E94CF06AD
:1041C00086E794E00E9490130E948C1388EA93E0A3
:1041D0000E94F90718161906FCF488EA93E00E9479
:1041E000D807F4CF89E994E00E94770810E000E056
:1041F00080918B0290918C020817190708F0BCCFB0
:10420000E0918D02F0918E02E00FF11F84910E94E7
:104210007E110F5F1F4FECCF61E070E080E090E017
:104220000E945E0761E086E10E94A10626960FB615
:10423000F894DEBF0FBECDBFDF91CF911F910F91DC
:10424000FF90EF90DF90CF90BF90AF909F90089538
:104250008CED809395028AE090E00E94BE168093D8
:1042600095023CCB1091F10215CD1F920F920FB623
:104270000F9211244F935F936F937F938F939F932C
:104280004091FC025091FD026091FE027091FF028C
:104290008091FB029091FA02943019F51092FA0283
:1042A0009091FA0290FD21C08A598D3728F08D57E0
:1042B0004F5F5F4F6F4F7F4F8093FB024093FC0235
:1042C0005093FD026093FE027093FF029F918F91C5
:1042D0007F916F915F914F910F900FBE0F901F9044
:1042E00018959F5F9093FA02DBCF8959DECF1F921A
:1042F0000F920FB60F9211242F933F934F935F931A
:104300006F937F938F939F93AF93BF93EF93FF939D
:1043100088EA93E00E940A08FF91EF91BF91AF9164
:104320009F918F917F916F915F914F913F912F91CD
:104330000F900FBE0F901F9018951F920F920FB6FF
:104340000F9211242F938F939F93EF93FF93E091FC
:10435000B803F091B9038081E091BE03F091BF03EF
:1043600082FD1AC090818091C1038F5F2091C203AA
:10437000821741F0E091C103F0E0E855FC4F958FC2
:104380008093C103FF91EF919F918F912F910F9097
:104390000FBE0F901F9018958081F4CF1F920F923F
:1043A0000FB60F9211242F933F934F935F936F9308
:1043B0007F938F939F93AF93BF93EF93FF9381B1BD
:1043C000887F803609F44AC0F0F5883209F4A3C02A
:1043D00018F5803109F499C0B8F4882309F4FDC0B8
:1043E000883009F492C0FF91EF91BF91AF919F91F6
:1043F0008F917F916F915F914F913F912F910F908E
:104400000FBE0F901F901895883109F484C0803238
:1044100051F78093300314C0803409F4A0C040F4F5
:104420008033B9F38833F9F68093300385ECB6C056
:10443000803509F485C0883509F499C0883499F627
:104440000E94B208D0CF883909F48FC030F5883780
:1044500029F050F4883611F0803729F683E08093F4
:1044600032031092DD0254C0883809F47EC08039CE
:1044700019F0803809F0B7CF8091DD02803208F062
:1044800074C0E091DD0281E08E0F8093DD0283B184
:10449000F0E0E354FD4F80833BC0803B39F0E0F413
:1044A000803A09F47FC0883A09F09DCF84E0809378
:1044B00032031092BA021092B902E091B702F09161
:1044C000B80209958091B90281110FC081E08093F3
:1044D000B9021092970209C0803C09F4A7CF883C2A
:1044E00009F4A4CF883B09F07ECFE091BA0281E0C5
:1044F0008E0F8093BA02F0E0E956FD4F808183B9B8
:104500009091BA028091B9022EC080912B0383B999
:1045100085EC86BF68CF90912D0380912C0398176E
:10452000A8F580912E0390912F03E0912D0321E0B7
:104530002E0F20932D03E80FF92FF11D8081E7CF77
:1045400020912E0330912F03E0912D0381E08E0FF7
:1045500080932D0383B1E20FF32FF11D808390919F
:104560002D0380912C03981798F285E8D2CF2091E3
:104570002E0330912F03E0912D0381E08E0F809365
:104580002D0383B1E20FF32FF11D8083809131035E
:10459000811156CF81E080932A0384EA86BF10926E
:1045A000320321CF85EC86BF109232038091DD0269
:1045B000803230F4E091DD02F0E0E354FD4F1082F0
:1045C0006091DD0270E0E091BB02F091BC028DEBE6
:1045D00092E009951092DD0206CF1092300330CFA1
:1045E000EF92FF920F931F93CF93DF930097C9F041
:1045F000EA018C012097B1F1E090DE02F090DF0239
:10460000E114F10479F1F80181918F010E94340ADB
:10461000F1E0EF1AF108F092DF02E092DE0221975A
:10462000E9CF411551056105710529F180917B03A1
:1046300083FD07C089E0440F551F661F771F8A95C9
:10464000D1F788E50E94790A81111DC08FEF0E9481
:10465000340A8EEF0E94340A80E092E09093DF02E9
:104660008093DE0290E080E0DF91CF911F910F9167
:10467000FF90EF900895DF91CF911F910F91FF90E0
:10468000EF900C943D0A81E090E0EECF0F931F93E2
:10469000CF93DF93C82F162FD42F80910003833040
:1046A000C0F01F924F931F926F931F92CF938CE78E
:1046B00098E09F938F9388EA93E09F938F930E9453
:1046C0002B148DB79EB70A960FB6F8949EBF0FBEF7
:1046D0008DBF63E08C2F0E949E14082F4FEB63E088
:1046E0008C2F0E94531462E08C2F0E949E14482F3E
:1046F0004F7311114064D111406862E08C2F0E9409
:104700005314402F63E08C2FDF91CF911F910F91B5
:104710000C945314E8EAF3E01382128288EE93E0DB
:10472000A0E0B0E084839583A683B78328E731E0D7
:104730003183208320E430E03587248749E250E04C
:10474000578746874BE250E0518B408B4AE250E05E
:10475000538B428B358B248B2CE230E0378B268BAE
:10476000118E128E138E148EE5E0F5E01382128204
:1047700084839583A683B7838AE891E091838083BD
:10478000E7E1F5E011821082138212821582148211
:1047900048E050E06FE672E0CF010E940416E1E1CC
:1047A000F5E01182108213821282158214824BE08E
:1047B00050E068E772E0CF010C940416CF93DF93CA
:1047C00000D0CDB7DEB7789483B7836083BF83B75B
:1047D000886483BF89B7816089BF82E08EBD8EB552
:1047E00081608EBD8FB581608FBD85B5846085BDCC
:1047F00085B5806485BD87E886B91AB80E947617AA
:1048000083E00E947806892B09F008C583E10E94A5
:104810007806892B09F0BCC482E10E947806F9B2BF
:10482000F092F902882379F0F0927B001092F8025E
:104830001092F70260E08EE00E94A10660E080E046
:104840000E94A106E3C480917B008C3009F49EC1D4
:1048500008F04FC0863009F42FC108F5833009F401
:104860000CC168F4882309F4FBC0813009F4FFC04F
:1048700080917B008A30F1F28C30E1F216C38430F3
:1048800009F40FC18530A1F78091F602882309F45D
:104890000CC380E20E94FE0590E080E0F8C0893001
:1048A00009F420C180F4873009F411C1883001F780
:1048B0008091F602882309F4F8C280E20E94FE0586
:1048C0008DE090E0E4C08A3009F42DC18B3081F690
:1048D000F092F2028091F3029091F40281159240DD
:1048E00008F04EC1FFE1FF1508F44EC110926F00B1
:1048F000BFCF823109F43CC308F078C08F3009F48F
:104900002CC380F48D3009F48DC28E3009F0B0CF05
:104910008F2D81708093EE02F1FACC24C0F8C09202
:10492000ED02A6CF803109F41EC3813109F0A0CF7A
:104930008091F602882309F4B8C281E08093EB02EB
:1049400011E0F11010E01093EA0280E20E94FE05EF
:1049500082E190E00E945609110F012F0560802F1F
:1049600090E00E9456090E94FB0580E20E94FE052D
:1049700090E080E00E94560988EF90E00E9456097E
:104980000E94FB0580E20E94FE0581E090E00E940B
:10499000560990E080E00E9456090E94FB0580E2E3
:1049A0000E94FE058CE090E00E9456098FEF90E097
:1049B0000E9456090E94FB0580E20E94FE0582E1EA
:1049C00090E00E945609612F616085E095E00E94A9
:1049D00027090E94FB050093F10280E20E94FE0578
:1049E00082E190E00E945609602F54C0843290F515
:1049F000823208F0F0C2803208F43ACF9091E90296
:104A0000992309F435CF11E0803209F410E0809148
:104A100000038330C8F080EE8F0D8F3508F0D9C2C7
:104A20008F2D1F928F931F92FF9287E199E09F93A2
:104A30008F9388EA93E09F938F930E942B140FB675
:104A4000F894DEBF0FBECDBF4F2D60E0812F0E94D6
:104A500053140ECF8E3709F00BCFF092000308CF1E
:104A600060E0F0FE61E08DE00E94A10601CF6F2DB5
:104A700088EA93E00E942B08FBCE8091F6028823FF
:104A800009F413C280E20E94FE0582E190E00E94D8
:104A900056096F2D85E095E00E9427090E94FB05CD
:104AA000E7CE8091F602882309F4FFC180E20E94DC
:104AB000FE0583E190E0EBCF8091F602882309F4B4
:104AC000F4C180E20E94FE0581E090E0E0CF809199
:104AD000F602882309F4E9C180E20E94FE058CE019
:104AE00090E0D5CF23E680E12F15D0F08091F5023C
:104AF000805D809372008F2D6AE00E946E2E90E39D
:104B0000980F9093740060E3C62ECF0C36EF839F0E
:104B1000C00C1124C092750080E790E00E94BC0F89
:104B200080936F00A5CE8091F7029091F802CF2C70
:104B3000D12C009751F4D092F402C092F302019666
:104B40009093F8028093F70293CE2091F3023F2DC9
:104B50003093F4022093F3024091F2022115324087
:104B600040F4403248F410926F002FEF20937B0006
:104B7000E6CF21E1403208F022E120936F00F5CF2B
:104B80002FE181E12F1560F682E1CACFC090F702D4
:104B9000D090F802C114D10419F56091F30270911C
:104BA000F402611532E07307D8F48091F20280328A
:104BB000B8F490916F00911113C045E0660F771F14
:104BC0004A95E1F7682B90E080E059E0660F771F87
:104BD000881F991F5A95D1F70E948D0E80936F0000
:104BE00080916F00811181C08C2D8F718093F102B3
:104BF000E82FF0E0E55AFC4FF0828F3109F075C0E4
:104C00000091A6031091A703A12C85E001151105C1
:104C100009F458C0F801818180FFD9C086FD0AC01F
:104C200086899789A08DB18D88279E7F868B978BEB
:104C3000A08FB18FF801828D938DA48DB58D46899B
:104C40005789608D718D841B950BA60BB70B803235
:104C50009105A105B10520F080E290E0A0E0B0E070
:104C60007C01B12CA12C3BE5232E33E0332EE11443
:104C7000F10409F4AFC0F80186899789A08DB18D40
:104C80009C013170232B09F067C092809A94AC018B
:104C9000BD0129E076956795579547952A95D1F7F7
:104CA0009422B1F5892B8A2B8B2B39F5668D778D64
:104CB00080A191A1F801623071058105910520F56F
:104CC000118281E0A092F00280936F00FFE1FA155B
:104CD00008F482C083E180936F002FEFC21621E0B9
:104CE000D20618F08FEF80937B00FFEFCF1ADF0A18
:104CF000D092F802C092F702BBCD62A173A184A149
:104D000095A10E944D0DD6CF62A373A384A395A352
:104D1000F80162A173A184A195A10E94C209611545
:104D200071058105910511F4F801CACFAB01BC01F1
:104D3000490D511D611D711DF80146A357A360A7C0
:104D400071A790E080E00E94F022F801892B09F021
:104D5000B7CF818180648183F801868997899170BA
:104D600020E032E0281B390B47012E153F0508F4DF
:104D700049012401712C612CB301A401C1010E94DD
:104D8000F022F801892B09F09BCF86899789A08DA5
:104D9000B18D840D951DA61DB71D868B978BA08F99
:104DA000B18F280C391CE818F908A80CB91C2C0183
:104DB000F1E05F22452809F05ACF0E943D0AF80130
:104DC000892B09F07DCF81818F7B818350CFA12CEE
:104DD00084E078CF80E076CF3FEFC31631E0D30692
:104DE00008F483CF81117ECF85E00115110569F0AC
:104DF000F801818180FF14C086FF0CC00E943D0A2B
:104E0000892B41F0F801118281E01092F002809329
:104E10006F0068CFF80181818F7B818380E0F5CFBF
:104E200084E0F3CF2EE02F1508F422CDEF2DF0E033
:104E3000E45EF84D0C94B02E2B27402746274827D8
:104E400059275F2776278A2790279F27A127A327FF
:104E5000A527AB27762761E08CE00E94A10660E0E1
:104E60008BE00E94A1061091EF021123F1F060E0A7
:104E70008AE00E94A1061230C0F060E087E1F4CD24
:104E800061E08CE00E94A10661E0EACF60E0F9CF2A
:104E900061E08CE00E94A10660E08BE00E94A10628
:104EA0001091EF0261E01111E3CF8FEF80937B004F
:104EB000C1CC61E08CE00E94A10661E0EECF60E031
:104EC0008CE00E94A10661E08BE00E94A106109197
:104ED000EF02112351F361E08AE00E94A106123033
:104EE00020F360E087E10E94A106C7CF60E08CE07C
:104EF0000E94A10660E08BE00E94A1061091EF02E3
:104F0000112399F261E08AE00E94A106123068F252
:104F100061E0B4CF61E08CE00E94A10660E005C0D2
:104F200061E08CE00E94A10661E08BE00E94A10696
:104F30001091EF0260E0112309F4B7CFE4CF60E0F5
:104F4000F0CF60E0E8CF61E0D2CF61E08CE00E947A
:104F5000A10661E0D0CF60E0F9CFFF2009F4A5CF32
:104F6000F0926E0085CC8F2D81708093EC0280CC06
:104F70008091EB02882309F498CF80E20E94FE051D
:104F800083E190E00E9456096F2D85E095E00E9434
:104F900027090E94FB051091EA02110F80E20E948E
:104FA000FE0582E190E00E945609612F6C6F85E05A
:104FB00095E00E9427090E94FB051D6F1093F102E6
:104FC00080E20E94FE0582E190E00E945609612F76
:104FD00061CD8EE226CD9091E902992309F448CC67
:104FE000DD24D394823209F4D12C0F2D10E066E039
:104FF000159507956A95E1F75F2D5F71C52E909124
:105000000003923000F1823209F087C080EE99E00F
:105010009F938F9358EAE52E53E0F52EFF92EF927F
:105020000E942B148091F9021F928F9387EE99E0D2
:105030009F938F93FF92EF920E942B140FB6F894D8
:10504000DEBF0FBECDBF8D2D90E0AC0144595F4F48
:105050007A01FA0180818F71C81659F1E091F90245
:10506000EF7124E0E29FF0011124E05EFE4F90809A
:10507000A180B280C38080910003823098F0CF92EB
:10508000BF92AF929F9248EC59E05F934F9388EAAA
:1050900093E09F938F930E942B140FB6F894DEBF7A
:1050A0000FBECDBF492D5A2D6B2D7C2D8D2D0E940D
:1050B0006B15F701808190E046E0959587954A95BC
:1050C000E1F708171907F1F080910003823008F426
:1050D000A5C21F930F9327EB39E03F932F9388EAE4
:1050E00093E09F938F930E942B140F900F900F903B
:1050F0000F900F900F900130110559F18CF4012B96
:1051000009F494C280910003823010F00E948C1345
:105110008091F902F7018083ABCB89ED99E078CFDC
:105120000230110501F10330110561F78091000390
:10513000823070F322E839E03F932F9388EA93E0BE
:105140009F938F930E942B140F900F900F900F90AE
:10515000D9CF80910003823008F47AC22AE939E07D
:105160003F932F936BC280910003823070F08CE8E4
:1051700099E09F938F9388EA93E09F938F930E9487
:105180002B140F900F900F900F9041E061E062C2DE
:1051900084E10E947806892B09F03BC282E10E94DB
:1051A00078061092F902882309F477C08FEF809374
:1051B000F90288EA93E00E94F907181619060CF024
:1051C00068C088EA93E00E94D8078093F9021092A1
:1051D000E80261E081E00E94A1068091E7028E7FF3
:1051E0008093E70281E080936B001FEF1ABB8091F0
:1051F000F9028BBB60E08EE00E94A10660E080E0D7
:105200000E94A1060E9452061ABA1BBB61E080E010
:105210000E94A10661E08EE00E94A1068091ED024D
:10522000882379F10E940B070091E0021091E102BE
:105230002091E2023091E3026B017C01C01AD10A95
:10524000E20AF30A20916E0030E0A8EEB3E00E947B
:105250005F2E6C157D058E059F0598F460E081E05A
:105260000E94A1068091E70282608093E7020E947B
:105270000B076093E0027093E1028093E202909347
:10528000E3020E940008882309F4BACA0E94CD11E3
:10529000B7CA81E08093E8029CCF90917B00983858
:1052A00009F462C118F5933809F4A5C090F4913857
:1052B00009F47CC008F094C0903809F45BC0809178
:1052C0007B008D7F843809F490CF8FEF80937B0033
:1052D0008CCF953809F4EFC008F4B0C0963809F4C3
:1052E000EDC0973861F70E946F0B41C0943AB8F552
:1052F000923A08F065C19A3809F442C108F439C1FC
:10530000903AE8F28091E902882309F457C181E0DC
:10531000903A09F480E060E00E949E14182F80917A
:1053200000038330C8F080EE810F8F3508F044C150
:10533000812F1F928F931F921F9385E399E09F9374
:105340008F9388EA93E09F938F930E942B140FB65C
:10535000F894DEBF0FBECDBF1093F902B0CF963ADE
:1053600008F446C1809100039E3F09F0A8CF8093C6
:10537000F902A5CF8DE00E947806182F8093F102E4
:1053800062E08DE00E94CF068DE00E94780621E069
:10539000892B09F020E02093F90261E08DE00E9462
:1053A000CF06612F8DE00E94A10689CF8091F60281
:1053B000882309F484CF80E20E94FE0582E190E018
:1053C0000E9456090E94FB0580E20E94FE0561E0F2
:1053D00070E080E290E00E94EE110E941B06C7CFB1
:1053E0008091F602882309F46ACF80E20E94FE05CC
:1053F00083E190E0E5CF0091E60210E0000F111F7D
:10540000F090E50288EA93E00E94F90734E018166C
:1054100019060CF030E08091E80228E0811101C00B
:1054200020E08091EC02F0E18F9FC0011124082B55
:10543000F02AF32AF22AF092F90241CF8091E60293
:105440008823A9F10091F7021091F80201151105C6
:1054500069F40E943212809129038093F9020F5F50
:105460001F4F1093F8020093F70229CF0730110560
:10547000F0F4809103030430110579F368F480910E
:1054800027030230110549F380910403033011050D
:1054900021F380912803E1CF8091020305301105AB
:1054A000E1F28091010306301105B9F2F2CF8FEFDE
:1054B00080937B0004CF80916F0059CF0091F70259
:1054C0001091F8020115110519F56091F302709120
:1054D000F402611522E07207D8F48091F202803262
:1054E000B8F490916F00911113C095E0660F771F8B
:1054F0009A95E1F7682B90E080E029E0660F771F2E
:10550000881F991F2A95D1F70E948D0E80936F00F6
:1055100080916F0081111DC0302F3F71F32E3093A9
:10552000F10231110FC0CE0101960E94BD0D99818B
:105530009093E4029032B0F080936F0080916F00FE
:10554000811107C0EF2DF0E0E55AFC4F8081809378
:10555000F9020F3F41E0140708F481CF8FEF8093E9
:105560007B007DCF83E1E8CF88EA93E00E94C90702
:10557000FECE8091E7028093F9021092E7029FCE5F
:105580008091EB02882309F49ACE80E20E94FE0506
:1055900082E190E00E9456090E94FB0580E20E9491
:1055A000FE0561E070E080E290E00E94EE110E9452
:1055B0001B06887F8160DBCE8EE2BBCE8AE1D7CE30
:1055C0008091E902882391F069E080E00E949E14B6
:1055D000182F80910003833008F4BECE82E599E055
:1055E0000E947708812F0E94B413B6CE80E4BFCE0C
:1055F0008091E9028823D1F368E080E00E949E1444
:10560000182F80910003833008F4A6CE8AE699E033
:10561000E7CF61E081E00E94A1060CC901301105CD
:1056200009F497CDDCF4012B09F072CD80910003D1
:10563000823070F08EEA99E09F938F9388EA93E02E
:105640009F938F930E942B140F900F900F900F90A9
:1056500040E060E08D2D0E94462354CD02301105BC
:1056600009F481CD0330110509F460CD51CD81E1FC
:1056700095E00E94FC1587E195E00C94FC151F93C2
:10568000FC0199278827BC01E89411911032E9F3B5
:10569000193010F01E30C8F31B3251F01D3249F49E
:1056A000689406C00E94662B610F711D811D911DBB
:1056B000119110531A30B0F33EF490958095709587
:1056C00061957F4F8F4F9F4F1F910895592F482FFE
:1056D000372F262F660F771F881F991F660F771F9A
:1056E000881F991F620F731F841F951F660F771FF6
:1056F000881F991F0895CF93DF93EC018B818860F9
:105700008B83CE010E948A2B2B81277F2B83DF91F5
:10571000CF910895ABE0B0E0E0E9FBE20C94282ED5
:105720007C013B018A01FC0117821682838181FF83
:10573000C8C1CE0101965C01F7019381F30193FD8D
:10574000859193FF81913F01882309F453C18532EC
:1057500039F493FD859193FF81913F01853229F4BE
:10576000B70190E00E947A2DE7CF912C212C312CAB
:10577000FFE1F31538F08B3211F190F4803209F12A
:10578000833229F137FC3CC020ED280F2A3050F538
:1057900036FE20C08AE0989E200D1124922E06C06D
:1057A0008D3291F0803371F7689430F8F30193FDF6
:1057B000859193FF81913F018111DACF21C06894D7
:1057C00031F8689432F8F2CF689433F8EFCF6894E8
:1057D00034F8ECCFEAE02E9E200D1124222E68949E
:1057E00035F8E4CF8E3229F436FC04C1689436F8DB
:1057F000DDCF8C3619F4689437F8D8CF8836B1F2FB
:10580000982F9F7D95549330E0F08336A1F1833734
:10581000C1F1833509F063C02801F2E04F0E511C3D
:10582000F801C080D180692D70E036FC02C06FEFB6
:105830007FEFC6010E94642D4C01689437F8820105
:105840000AC00C5F1F4FFFE3F98388248394912CD7
:105850006501E89437F833FE2DC0522C8114910471
:1058600071F5552009F468CFB70180E290E00E94FD
:105870007A2D5A94F6CFF801808189830E5F1F4FED
:10588000E4CF2801F2E04F0E511CF801C080D18016
:10589000692D70E036FC02C06FEF7FEFC6010E94F9
:1058A0006F2D4C018201D5CFB70180E290E00E94BC
:1058B0007A2D2A942814190409F0B0F7CECFF601F6
:1058C00037FC859137FE81916F01B70190E00E940E
:1058D0007A2D51105A94F1E08F1A9108BFCF843677
:1058E00019F0893609F077C0F80137FE6BC0608186
:1058F0007181828193810C5F1F4FF32DFF763F2EC4
:1059000097FF09C090958095709561957F4F8F4F57
:105910009F4F689437F82AE030E0A5010E94AA2D35
:10592000C82ECA188C2C432C36FE0CC0E89440F8C4
:10593000C91440F434FE05C032FC03C0F32DFE7ED2
:105940004F2E892C44FE95C0FE01EC0DF11D808187
:10595000803309F087C0242D297E422E842D887043
:10596000582E43FC95C040FE8FC09C2C821418F426
:105970002C0C922C981844FE91C0B70180E390E063
:105980000E947A2D42FE09C088E790E041FE02C0E5
:1059900088E590E0B7010E947A2DC91408F48AC006
:1059A000CA94D12C9FEFC91AD90ACA0CDB1CF60184
:1059B00082916F01B70190E00E947A2DAC14BD0472
:1059C000B1F74FCF60817181072E000C880B990BC6
:1059D0000E5F1F4F92CFD32CE894D4F82AE030E02A
:1059E000853739F1232D297FD22E8F3601F148F4E6
:1059F0008835A9F0F701868197812B96E2E10C9416
:105A0000442E803749F08837A9F7D4FE02C0689445
:105A1000D2F820E130E00DC06894D4F8F6CF34FE1F
:105A200003C0822F8660D82E20E132E002C028E039
:105A300030E0F801D7FE0FC06081718182819381CF
:105A40000C5F1F4FA5010E94AA2DC82ECA183D2C1D
:105A5000E89437F867CF6081718190E080E00E5F55
:105A60001F4FF0CF42FC02C0839478CF839483947D
:105A700075CF842D867809F471CFF6CFB70180E217
:105A800090E00E947A2D83948214C0F3512C73CF3E
:105A9000522C5818821408F46ECFF8CF842D8678D3
:105AA00009F47BCF8BE241FE80E247FC8DE2B70137
:105AB00090E071CFB70180E390E00E947A2D9A9434
:105AC0006CCF8FEF9FEF99CFFC0105906150704034
:105AD0000110D8F7809590958E0F9F1F0895FC01B7
