:100000000C9447060C946F060C946F060C946F06C4
:100010000C946F060C946F060C946F060C946F068C
:100020000C946F060C946F060C946F060C945A2374
:100030000C946F060C94BD230C9497230C946F06BC
:100040000C946F060C946F060C946F060C94EF23BF
:100050000C946F063110FD2152FDCDC6FECD3EFF42
:10006000CDF4FD3EFFBC2010BD200D21D9FDCDC635
:10007000FE2188FDCDC6FE76E521D9FDCDC6FE2147
:1000800075FDCDC6FEE1CD4BFFCD3EFFCD3EFFDB86
:1000900001FEFF20FAE9694C6F6164202D20496E52
:1000A00074656C2D486578204C6F61646572202DF5
:1000B0002053323030373138005374617274696EB6
:1000C0006720416464726573733A20004C6F616409
:1000D000206572726F72202D2053797374656D20C4
:1000E00068616C7465640057616974696E67206942
:1000F0006E7075742073747265616D2E2E2E0053B0
:10010000796E746178206572726F72210043686540
:10011000636B73756D206572726F722100694C6F2D
:1001200061643A2000416464726573732076696F7C
:100130006C6174696F6E2100F5D5C501FFFF21A3C5
:10014000FDCDC6FECD3EFFCD72FFFE0D28F9FE0AA5
:1001500028F5FE2028F1CD1AFFCD69FFFE3AC2A393
:10016000FECDE1FE571E00CDBEFECDD6FE3EFFB851
:100170002005B92002444D7CCDBEFE7DCDBEFECD16
:10018000E1FECDBEFEFE01201ECDE1FECDBEFE7B1A
:10019000A72866CD3EFF21D9FDCDC6FE21C9FDCDE4
:1001A000C6FE01FFFF18527AA7282CCDE1FECDBE76
:1001B000FEE5C5A701F0FCED42C1E1DA8EFECD3EC1
:1001C000FF21D9FDCDC6FE21E1FDCDC6FE01FFFF19
:1001D000182777231518D0CDE1FECDBEFE7BA720D2
:1001E000B2CD3EFFC303FECD3EFF21D9FDCDC6FEFD
:1001F00021BBFDCDC6FE01FFFFCD3EFF6069C1D131
:10020000F1C9C54F7B915F79C1C9F5E57EFE002834
:1002100006CD69FF2318F5E1F1C9F5CDE1FE67CD03
:10022000E1FE6FF1C9C5CDF4FECB07CB07CB07CB01
:100230000747CDF4FEB0C1C9CD72FFCD1AFFCD0680
:10024000FF30F5CD23FFCD2EFFC9FE47D0FE303065
:10025000023FC9FE3AD8FE4130023FC937C9FE61AC
:10026000D8FE7BD0E65FC9FE3A3802D607D630E624
:100270000FC9F5E60FC630FE3A3802C607CD69FF52
:10028000F1C9F53E0DCD69FF3E0ACD69FFF1C9E523
:10029000F57CCD58FF7DCD58FFF1E1C9F5C5470F7D
:1002A0000F0F0FCD2EFF78CD2EFFC1F1C9F53E0106
:1002B000D301F1D300C9DB01FEFFCA72FFC9494F68
:1002C000533A205254432073657420617420636F45
:1002D0006D70696C652074696D65202D204E6F7797
:1002E0003A2000293F205B592F4E5D203E000A44F2
:1002F0006F20796F752077616E742073657420525A
:10030000544320617420494F5320636F6D70696CB2
:10031000652074696D65202800494F533A20525476
:100320004320636C6F636B206661696C7572652135
:1003300000494F533A20525443204453333233310F
:100340002074656D70657261747572652073656E79
:10035000736F723A202564C2B0430D0A00494F53AF
:100360003A20466F756E6420525443204453333212
:100370003331204D6F64756C65202800494F533A26
:100380002052544320646174652F74696D65207533
:10039000706461746564202800202E2E2E646F6EB8
:1003A000652020202020200A005365636F6E64734F
:1003B000202D3E20004D696E75746573202D3E2002
:1003C00000486F757273202D3E2000204461792013
:1003D0002D3E200020202020202020202020202012
:1003E00020004D6F6E7468202D3E200059656172AB
:1003F000202D3E200020000A507265737320542F78
:100400005520746F20696E6372656D656E74202B64
:1004100031302F2B31206F7220435220746F2061B6
:100420006363657074000A494F533A205254432065
:100430006D616E75616C2073657474696E673A00E6
:100440000D0A507265737320435220746F206163EC
:10045000636570742C2045534320746F2065786960
:1004600074206F7220616E79206F74686572206BE2
:10047000657920746F206368616E676500494F532A
:100480003A205A38302069732072756E6E696E6733
:100490002066726F6D206E6F770020446F6E65006E
:1004A000494F533A204C6F6164696E6720626F6FE9
:1004B000742070726F6772616D2E2E2E00494F533B
:1004C0003A204C6F6164696E6720626F6F742070B0
:1004D000726F6772616D20282573292E2E2E0044BD
:1004E000454255473A20426F6F74537472416464B9
:1004F00072203D200044454255473A20466C6173C6
:100500006820426F6F74496D61676553697A652031
:100510003D200044454255473A20496E6A65637460
:100520006564204A50203078253034580D0A005434
:1005300000494F533A2043757272656E742000442F
:10054000454255473A20626F6F744D6F64653A209B
:1005500025640D0A002564204B42797465730D00F3
:100560000D202D3E004368616E67656420737065E1
:1005700065642077696C6C206265206566666563DA
:1005800074697665206166746572206E6578742082
:100590007265626F6F74210D0A0A000D0A0A000D60
:1005A000202D3E256C642020200D000D0A0A00201D
:1005B000202020202020202020202020202020203B
:1005C0000D000D202D3E003F566572626F736974F9
:1005D00079206C6576656C2025640D0A000D0A454E
:1005E0006E74657220796F75722063686F696365D8
:1005F000203E2000202025633A2052414D2073697F
:100600007A6520282564204B4279746573290D0A88
:1006100000202025633A205365742052544320540F
:10062000696D652F446174650D0A00202025633AC9
:10063000205365742053657269616C20506F727429
:100640002053706565642028256C64290D0A0020FC
:100650002025633A20546F67676C652043502F4D07
:10066000204175746F6578656320282D3E202573C1
:10067000290D0A00202025633A204368616E6765D2
:10068000205A383020436C6F636B2053706565646B
:1006900020282D3E202564204D487A290D0A00206F
:1006A0002025633A20694C6F61640D0A0A000D0A27
:1006B000202025633A204175746F626F6F740D0AB4
:1006C00000202025633A204C6F61642F536574200D
:1006D0004F532000202025633A20466F7274680D26
:1006E0000A00202025633A2042617369630D0A00E5
:1006F000202025633A204578697420776974686FF3
:100700007574206368616E67652028272563272933
:100710000D0A0A000D0A494F533A2053656C656370
:100720007420426F6F74204D6F6465206F72205388
:10073000797374656D20506172616D657465727353
:100740003A0D0A0A00494F533A2043502F4D204199
:1007500075746F657865632069732025730D0A00D1
:10076000494F533A20466F756E642053494F4120DC
:100770002F2053494F42204F7074696F6E00494FCC
:10078000533A20466F756E6420475045204F707471
:10079000696F6E0020284354532C20525453207507
:1007A0007365642061732042414E4B322C204241DC
:1007B0004E4B33207369676E616C2C2043453220A9
:1007C000696E76657274656429002028435453204D
:1007D000757365642061732042414E4B322073690A
:1007E000676E616C2900494F533A202564204B42C3
:1007F000797465732052414D00494F533A205A385D
:100800003020636C6F636B207365742061742025E6
:1008100064204D487A0D0A00494F533A20466F75BF
:100820006E6420657874656E6465642073657269B2
:10083000616C205278206275666665722028256496
:10084000206279746573290D0A00322E302E3236FB
:1008500030313131202D204A616E20313320323049
:1008600032362031373A33373A3138000D0A0A5AD6
:1008700038302D4D4243322D4E47202D204130340B
:1008800030363138202D2041546D65676133322078
:100890002D202564204D487A0D0A00494F533A20F7
:1008A000436865636B20534420616E6420707265F9
:1008B00073732061206B657920746F207265706599
:1008C00061740D0A00202D2046696C653A200020D5
:1008D0006F7065726174696F6E0052454144004FDC
:1008E00050454E004D4F554E5400206F6E20005520
:1008F0004E4B4E4F574E004E4F5F46494C45535955
:100900005354454D004E4F545F454E41424C454473
:10091000004E4F545F4F50454E4544004E4F5F468A
:10092000494C45004E4F545F52454144590044499B
:10093000534B5F455252000D0A494F533A205344DE
:10094000206572726F7220003F3F53494F25633A12
:100950002041637475616C206261756472617465B5
:100960003A2025640D0A003F3F53494F25633A2042
:1009700043616C63756C6174656420646976697346
:100980006F723A2025640D0A003F3F53494F25639B
:100990003A204465736972656420626175647261AE
:1009A00074653A2025640D0A003F3F3F53494F25A7
:1009B000633A205365744175746F48616E6473685F
:1009C000616B652025642C2025640D0A003F3F3FA4
:1009D0003F3F53494F25633A205265616452656732
:1009E0006973746572203078253032582028257359
:1009F00029207265733D3078253032580D0A003F4A
:100A00003F3F3F3F53494F25633A20577269746512
:100A100052656769737465722030782530325820CA
:100A2000282573292076616C3D3078253032580DA9
:100A30000A003F3F3F53494F25633A20577269747C
:100A40006542797465203078253032582025630D51
:100A50000A003F3F3F53494F25633A205265616486
:100A600042797465203078253032582025630D0A8C
:100A7000003F3F3F3F53494F25633A20527820467D
:100A800049464F204C6576656C3A2025640D0A0076
:100A90003F3F3F3F53494F25633A20547820464912
:100AA000464F2053706163653A2025640D0A00208B
:100AB0002D20697271537461747573203D20004458
:100AC000454255473A20494E542041434B206379D3
:100AD000636C6500202D20696F44617461203D20A6
:100AE0000044454255473A2053595349525100203A
:100AF0002D20697271537461747573203D20004418
:100B0000454255473A20534552205258007265736A
:100B100065727665640D0A006175746F20525453D6
:100B20002F4354530D0A006175746F20586F6E2F58
:100B3000586F666620284E5949290D0A006469736A
:100B400061626C650D0A00202D2068616E64736817
:100B5000616B653A2025642000202D206261756458
:100B6000726174653A20256C640D0A003F3F534959
:100B70004F423A003F3F53494F413A00207365745A
:100B800020636F6E74726F6C3A2030782530325863
:100B90000000003A0037003400310000003B00380C
:100BA000003500320000003900360033003000020A
:100BB0000202020202020204040404040404040304
:100BC0000303030303030301010101010101010107
:100BD0000204081020408001020408102040800117
:100BE0000204081020408001020408102040800008
:100BF00000000200000000000000000504000700E3
:100C00000000000000000000000000000000003FA5
:100C10003F3F53494F25633A204649464F53657439
:100C2000547269676765724C6576656C2825735FD9
:100C30004649464F3A2026640D0A003F53494F2546
:100C4000633A204C43522052656769737465723A67
:100C5000203078253032780D0A000D0A0A494F53AA
:100C60003A2042617564207265636F7665727920FF
:100C7000646F6E65202D20506C6561736520726510
:100C8000626F6F74206E6F772100AF25AA2D11243B
:100C90001FBECFE5D8E0DEBFCDBF24E0A0E5B2E0C7
:100CA00001C01D92A037B207E1F712E0A0E6B0E064
:100CB000EAEAF6E602C005900D92A035B107D9F731
:100CC00016E0C6E4D6E004C02197FE010E9423315D
:100CD000C534D107C9F70E9403260C9448330C94FD
:100CE0000000282F9091250381E0913208F03FC049
:100CF000809101038111FCCF8091240332E0309375
:100D00000103209300032FEF2093FF0224E033E040
:100D10003093FE022093FD021092FC029093FB029E
:100D20001092FA029091FA02880F892B8093FA02AE
:100D30008091F902813011F51092F9028091FA0246
:100D400083B906B603FCFACF85EC86BF8091010318
:100D50008230E1F38091FF028F3F91F08091FF029A
:100D6000803281F08091FF02803371F084E0109234
:100D700003031092250310920203089585EEE5CF38
:100D800080E0F5CF82E0F3CF83E0F1CF81E00C94F7
:100D9000710691E090930203809324031092030361
:100DA0001092250308959091F5028091F4022FEF9F
:100DB0003FEF981748F4E92FF0E0EC52FD4F208107
:100DC00030E09F5F9093F502C90108959091F5027C
:100DD0008091F4022FEF3FEF981748F4E92FF0E0ED
:100DE000EC52FD4F208130E09F5F9093F502C901E6
:100DF0000895FB01A485B585ED91FC9111970190B3
:100E0000F081E02D682FCD01099590E080E00895F4
:100E100020916404309165048217930760F4209157
:100E20006004309161042115310529F0280F391F24
:100E3000F9018081089580E0089587E090E00197AE
:100E4000F1F70895843059F028F4813099F0823018
:100E500089F00895853039F0873041F008958FB5D5
:100E60008F778FBD08958FB58F7DFBCF85B58F7D33
:100E700085BD089583B78F7D83BF0895CF93DF939A
:100E8000282F30E0F901E151F44F8491F901E15349
:100E9000F44FD491F901E155F44FC491CC23A1F062
:100EA00081110E942207EC2FF0E0EE0FFF1FEB559F
:100EB000F44FA591B491EC91ED2381E090E009F419
:100EC00080E0DF91CF91089580E090E0FACF1F930A
:100ED000CF93DF93282F30E0F901E151F44F849153
:100EE000F901E153F44FD491F901E155F44FC49164
:100EF000CC23A9F0162F81110E942207EC2FF0E0DD
:100F0000EE0FFF1FE556F44FA591B4918FB7F894FB
:100F1000EC91111108C0D095DE23DC938FBFDF91D7
:100F2000CF911F910895DE2BF8CFCF93DF9390E000
:100F3000FC01E153F44F24918155944FFC018491BD
:100F40008823C9F090E0880F991FFC01EF56F44FF9
:100F5000A591B491FC01E556F44FC591D49161116E
:100F60000DC09FB7F8948C91209582238C93888133
:100F7000282328839FBFDF91CF910895623051F4D9
:100F80009FB7F8943C91822F809583238C93E881BE
:100F90002E2BEFCF8FB7F894EC912E2B2C938FBF85
:100FA000EACFCF92DF92EF92FF926FB7F8948091E1
:100FB000CB029091CC02A091CD02B091CE02509183
:100FC000CA0222B738B7432F417030FF04C041E056
:100FD0002F3F09F440E06FBF6C017D0137E0CC0C7E
:100FE000DD1CEE1CFF1C3A95D1F7C50ED11CE11C8F
:100FF000F11CC81AD90AEA0AFB0A880F991FAA1F0E
:10100000BB1FC81AD90AEA0AFB0A63E0CC0CDD1C34
:10101000EE1CFF1C6A95D1F730E0AAEAB2E00E940C
:10102000D230672F782F892F99276C0D7D1D8E1D4B
:101030009F1D442321F066557D4F8F4F9F4FFF909A
:10104000EF90DF90CF9008958F929F92AF92BF92D2
:10105000CF92DF92EF92FF924B015C010E94D10789
:101060006B017C010E94D1076C197D098E099F09D3
:10107000683E734081059105A8F321E0821A91082A
:10108000A108B10888EEC80E83E0D81EE11CF11C4F
:1010900081149104A104B10429F7FF90EF90DF902F
:1010A000CF90BF90AF909F908F9008952FB7F894F6
:1010B0006091CB027091CC028091CD029091CE02D2
:1010C0002FBF089581E08093C8020895AF92BF9228
:1010D000CF92DF92EF92FF920F931F93CF93DF9304
:1010E0006C017B018B01040F151FEB015E01AE1833
:1010F000BF08C017D10759F06991D601ED91FC9155
:101100000190F081E02DC6010995892B79F7C50181
:10111000DF91CF911F910F91FF90EF90DF90CF90D3
:10112000BF90AF900895FC01538D448D252F30E082
:10113000842F90E0821B930B541710F0CF960895E4
:1011400001970895FC01918D828D981761F0A28D11
:10115000AE0FBF2FB11D5D968C91928D9F5F9F77D3
:10116000928F90E008958FEF9FEF0895FC01918D8D
:10117000828D981731F0828DE80FF11D858D90E0FA
:1011800008958FEF9FEF0895FC01918D228D892F97
:1011900090E080589F4F821B91098F77992708957F
:1011A00087E793E00E94C40821E0892B09F420E03E
:1011B000822F08950E94D008882319F081E080933F
:1011C000C8020895FC01A48DA80FB92FB11DA35624
:1011D000BF4F2C91848D90E001968F739927848F57
:1011E000A689B7892C93A089B1898C9182748C933C
:1011F000938D848D981306C00288F389E02D808139
:101200008F7D80830895EF92FF920F931F93CF936A
:10121000DF93EC0181E0888F9B8D8C8D981319C032
:10122000E889F989808185FF14C09FB7F894EE8919
:10123000FF896083E889F9898081827480839FBFF8
:1012400081E090E0DF91CF911F910F91FF90EF909F
:101250000895F62E0B8D10E00F5F1F4F0F731127AF
:10126000E02E8C8D8E110CC00FB607FCFACFE889EA
:10127000F989808185FFF5CFCE010E94E208F1CF88
:10128000EB8DEC0FFD2FF11DE356FF4FF0829FB762
:10129000F8940B8FEA89FB8980818062CFCF0F930E
:1012A0001F93CF93DF938C01D0E0C0E0F801EC0FE7
:1012B000FD1F6491662341F087E793E00E940309D4
:1012C000892B11F02196F2CFCE01DF91CF911F91A2
:1012D0000F910895CF93DF93EC01888D8823B9F0A7
:1012E000AA89BB89E889F9898C9185FD03C0808131
:1012F00086FD0DC00FB607FCF7CF8C9185FFF2CFAE
:10130000808185FFEDCFCE010E94E208E9CFDF9119
:10131000CF91089585ED86BF06B604FCFDCF1092EF
:101320000103089520918502260F3327331F2132B0
:101330003105ECF420910103FC0190E080E02430C1
:1013400069F082E00895A09185022191AC014D5988
:101350005D4FA40FB52FB11D2C930196861798F3FE
:1013600080918502680F6093850280E0089581E096
:101370000895089508950895E091F5028091F4028A
:10138000E81730F4F0E0EC52FD4F808190E00895D2
:101390008FEF9FEF08958091F4029091F502891BE1
:1013A000990B0895CF92DF92EF92FF920F931F93C4
:1013B000CF93DF937C01CB018A012091020322238A
:1013C00089F0EB016B01C40ED51ECC15DD0569F06B
:1013D0006991D701ED91FC910190F081E02DC70159
:1013E0000995F3CF642F0E949209C801DF91CF9134
:1013F0001F910F91FF90EF90DF90CF900895CF93C2
:10140000DF931F92CDB7DEB76983209102032223B9
:10141000F9F020912503203258F021E030E0FC0162
:101420003383228390E080E00F90DF91CF91089585
:1014300080910303E82FF0E0EC5FFC4F99819083EB
:101440008F5F809303038093250381E090E0ECCFCE
:1014500061E0CE0101960E949209F7CF682F84E5E2
:1014600094E00C94FF090F931F93CF93DF93082F01
:10147000162FD42F88E60E94C90690E080E00E94D3
:101480002E0A8091F802CAE06C2F0E94E13082950A
:10149000807F682F690F84E594E00E94FF098091A6
:1014A000F7026C2F0E94E1308295807F682F690FD0
:1014B00084E594E00E94FF098091F6026C2F0E945F
:1014C000E1308295807F682F690F84E594E00E9467
:1014D000FF0981E090E00E942E0A802F6C2F0E946D
:1014E000E1308295807F682F690F84E594E00E9447
:1014F000FF09812F6C2F0E94E1308295807F682F39
:10150000690F84E594E00E94FF098D2F6C2F0E94E3
:10151000E1308295807F682F690F84E594E00E9416
:10152000FF09DF91CF911F910F910C94C60690E0B7
:1015300080E008950F931F93E0917503F091760377
:101540009B01AC01225031094109510986819781E3
:10155000A085B1850297A109B109281739074A0763
:101560005B0778F4A281B0E00E9490300289138971
:1015700024893589600F711F821F931F1F910F915E
:10158000089560E070E0CB01F9CF0F931F93CF93E4
:10159000DF93EC01E0917503F091760319821882D4
:1015A0006C817D818E819F816130710581059105FE
:1015B00081F10681178120853185601771078207C7
:1015C000930738F5611571058105910539F420817E
:1015D000233021F4668577858089918968877987AA
:1015E0008A879B87611571058105910569F00E94C5
:1015F0009A0A6C877D878E879F8790E080E0DF91D5
:10160000CF911F910F910895668577858089918983
:10161000F0CF81E090E0F3CF8FB9779BFECF0895B4
:101620008FEF0E940C0B8FB108950F931F93CF93F0
:10163000DF93C091AA02D091AB022197CD3F8FEFEB
:10164000D80721F080E00E940C0BF7CF0E94100B0E
:101650008F71853079F0D1E0C0E061E084E00E94D4
:1016600067070E94100B8D2F9C2FDF91CF911F9148
:101670000F91089508E813E1C8E5D2E00E94100B2D
:101680008F3F49F00115110531F3CE010197F1F7B4
:1016900001501109F3CFD1E0C0E0012BF1F2D0E00D
:1016A000DCCFFF920F931F93CF93DF93C82FD42FDC
:1016B000152F062FF72E80914A0381113FC083E535
:1016C0008DB91EB8C7FF09C040E050E0BA0187E7F6
:1016D0000E94510B823060F5CF7761E084E00E9478
:1016E00067070E94100B60E084E00E9467070E9479
:1016F000100B8C2F0E940C0B8F2D0E940C0B802F37
:101700000E940C0B812F0E940C0B8D2F0E940C0B42
:1017100085E9C03421F087E8C83409F081E00E94EF
:101720000C0BCAE00E94100B87FF02C0C150D1F71A
:10173000DF91CF911F910F91FF90089580E58DB9B2
:1017400081E08EB9BFCFCF92DF92EF92FF920F93DD
:101750001F93CF93DF937C01690180914A0383FD3E
:1017600007C089E0440F551F661F771F8A95D1F780
:1017700081E50E94510B811108C0C0E4DCE90E94A0
:10178000100B8F3F29F42197D1F7C1E0D0E022C0A0
:101790008E3FD9F7C2E0D2E0C01BD10BCC19DD09D6
:1017A00081E0C81AD10818F00E94100BF9CFE1149B
:1017B000F10401F10E0D1F1D0E94100BF701819322
:1017C0007F010E171F07C1F70E94100B2197E1F749
:1017D000D0E0C0E061E084E00E9467070E94100B47
:1017E000CE01DF91CF911F910F91FF90EF90DF908D
:1017F000CF9008950E94100B01501109D9F7E4CF42
:10180000CF92DF92EF92FF920F931F93CF93DF93CC
:10181000EC016A017B0102E010E02EEF31E00E9452
:10182000A30B892B31F58881998185359A4A59F521
:1018300026E330E0B701A601CE010E94A30B892B5D
:1018400029F4888199818634914489F002E010E07E
:1018500022E530E0B701A601CE010E94A30B892B3F
:10186000A1F481E0288139812634314419F480E0E3
:1018700001C083E0DF91CF911F910F91FF90EF9016
:10188000DF90CF90089582E0F5CF81E0F3CF4F92C3
:101890005F926F927F928F929F92AF92BF92CF9200
:1018A000DF92EF92FF920F931F93CF93DF93CDB709
:1018B000DEB7A4970FB6F894DEBF0FBECDBF10926F
:1018C00076031092750380914A03882339F084E0EF
:1018D0000E943E07892B11F40E94150B61E084E001
:1018E0000E94670761E084E00E94950761E085E05F
:1018F0000E94950761E087E00E94950761E084E01F
:101900000E94950783E58DB91EB861E084E00E94CE
:1019100067071AE00E94100B1150E1F740E050E019
:10192000BA0180E40E94510B182F813009F441C0A4
:1019300010E010934A0361E084E00E9467070E9470
:10194000100B82E090E01123E9F040E050E0BA0192
:10195000CE0101960E94000CC12CD12C7601813061
:1019600009F096C000E110E02EEB31E040E050E0DD
:10197000BA01CE0101960E94A30B892B09F478C00D
:1019800081E090E0A4960FB6F894DEBF0FBECDBF05
:10199000DF91CF911F910F91FF90EF90DF90CF904B
:1019A000BF90AF909F908F907F906F905F904F907F
:1019B00008954AEA51E060E070E088E40E94510B2B
:1019C000813091F5CE0101967C016E0195E0C90E42
:1019D000D11C87010E94100BF80181938F01CE1654
:1019E000DF06C1F78B81813009F0A2CF8C818A3A62
:1019F00009F09ECF80E1C82E87E2D82E98E5A92E67
:101A000092E0B92E40E050E060E070E489EE0E9480
:101A1000510B882309F4C9C0C5010197F1F7F1E022
:101A2000CF1AD10879F784CF40E050E0BA0189EEAF
:101A30000E94510B01E4823010F412E009EEA0E1A3
:101A4000EA2EA7E2FA2EB8E5CB2EB2E0DB2E40E07C
:101A500050E0BA01802F0E94510B882309F4BBC0CB
:101A6000C6010197F1F7F1E0EF1AF10881F760CFB5
:101A70008D81811103C086E090E084CFC984DA842F
:101A8000EB84FC84B701A601CE0101960E94000CF4
:101A9000833009F475CF8111EECF04E210E02DE020
:101AA00030E0B701A601CE0101960E94A30B892B5D
:101AB00009F066CF2A853B8550E040E021153105CD
:101AC0004105510521F4288D398D4A8D5B8DAC81FE
:101AD000B0E00E9490304B015C014A815B8170E074
:101AE00060E0C40ED51EE61EF71EC0925503D092CC
:101AF0005603E0925703F0925803E981E0934D03B7
:101B00008D819E819093500380934F030F811885A0
:101B100030E020E0011511052105310521F40C8983
:101B20001D892E893F89F4E096958795FA95E1F70E
:101B30002C01712C612C041B150B260B370BC901D2
:101B4000B801681979098A099B0964197509860918
:101B500097092E2F30E050E040E00E940131DA0179
:101B6000C9010296A11DB11D8093510390935203A8
:101B7000A0935303B0935403265F3F40410951099A
:101B80002F3F3F4E4105510588F1873F9F4FA105EB
:101B9000B10588F570CF82E080934B03D501C40175
:101BA0008C0D9D1DAE1DBF1D2DC040E050E0BA0143
:101BB0008AE70E94510B8111BBCE0E94100BF701E6
:101BC00081937F010E171F07C1F789811CE086FDF5
:101BD000B0CE14E0AECE40E052E060E070E080E5D0
:101BE0000E94510B882309F4A4CEA2CE873F9F4FB9
:101BF000A105B10580F283E080934B0388A199A1F0
:101C0000AAA1BBA18093590390935A03A0935B03AD
:101C1000B0935C03C40CD51CE61CF71C8C0C9D1CFB
:101C2000AE1CBF1C80925D0390925E03A0925F0386
:101C3000B092600310924C038BE493E09093760390
:101C40008093750390E080E09DCE0F931F93CF9318
:101C5000DF9300D000D0CDB7DEB7623071058105CB
:101C6000910528F461E070E080E090E055C0E091DB
:101C70007503F09176030681178120853185601701
:101C800071078207930770F7AB01BC018081823036
:101C900031F1833039F79A012F773327220F331F21
:101CA000220F331F97E076956795579547959A953C
:101CB000D1F782859385A485B585480F591F6A1F82
:101CC0007B1F04E010E0CE0101960E94A30B892B3C
:101CD00049F669817A818B819C819F701DC09A0130
:101CE0003327220F331F452F562F672F77278285E3
:101CF0009385A485B585480F591F6A1F7B1F02E095
:101D000010E0CE0101960E94A30B892B09F0AACF07
:101D100069817A8190E080E00F900F900F900F9092
:101D2000DF91CF911F910F9108956F927F928F92C3
:101D30009F92AF92BF92CF92DF92EF92FF920F935A
:101D40001F93CF93DF93C0917503D0917603FC016D
:101D500011821082209709F4AFC0298120FFAFC003
:101D60000A8D1B8D2C8D3D8D4E895F89688D798DF7
:101D700068017901C41AD50AE60AF70AB701A60173
:101D8000403251056105710520F040E250E060E00D
:101D900070E05C017A013AE2832E33E0932E612CED
:101DA00042E0742EE114F10409F48CC08E899F89FD
:101DB000A88DB98DAC01BD01517066277727452BE1
:101DC000462B472B09F04AC0DA80DA94AC01BD01FA
:101DD00029E076956795579547952A95D1F7D422AE
:101DE00051F5892B8A2B8B2BD9F46E8D7F8D88A191
:101DF00099A16230710581059105C8F4198281E0CD
:101E000090E0DF91CF911F910F91FF90EF90DF90C5
:101E1000CF90BF90AF909F908F907F906F900895DC
:101E20006AA17BA18CA19DA10E94250EE2CF6AA38D
:101E30007BA38CA39DA36AA17BA18CA19DA10E94E1
:101E40009A0A6115710581059105C1F26D0D711D2B
:101E5000811D911D6EA37FA388A799A72E893F8915
:101E60003170C301821B930B67018E159F0508F427
:101E70006C014EA15FA168A579A58601C4010E94ED
:101E8000A30B892B09F0BACF8E899F89A88DB98DB4
:101E90008C0D9D1DA11DB11D8E8B9F8BA88FB98FA1
:101EA0008C0C9D1CEC18FD08F50180819181C80EF9
:101EB000D91ED182C08276CF85E090E0A2CF84E0A7
:101EC00090E09FCF90E080E09CCF4F925F926F9226
:101ED0007F928F929F92AF92BF92CF92DF92EF92BA
:101EE000FF92CF93DF9300D000D000D0CDB7DEB704
:101EF00020917503309176033E832D8321153105A2
:101F000009F40CC1D90111962C91119720FF09C138
:101F10005A96CD90DD90ED90FC905D976C157D0507
:101F20008E059F0510F46B017C01ED81FE814688D2
:101F30005788608C718C168A178A108E118EC11486
:101F4000D104E104F10409F4E6C08280912CB12CA3
:101F5000A12C39E0880C991CAA1CBB1C3A95D1F71E
:101F6000411451046104710409F470C0B1E04B1ACA
:101F7000510861087108C701B601615071098109F2
:101F80009109A50194010E94013129833A834B8371
:101F90005C83C301B201A50194010E9401318981D2
:101FA0009A81AB81BC8182179307A407B50708F417
:101FB0004DC088279927DC0188199909AA09BB090E
:101FC00084219521A621B721ED81FE81868B978BF7
:101FD000A08FB18FC81AD90AEA0AFB0A62A173A1BD
:101FE00084A195A18C149D04AE04BF0408F058C0D0
:101FF0000E94250E623071058105910568F0AD8162
:10200000BE8116964D905D906D907C9019976415E9
:1020100075058605970540F1ED81FE81118281E00D
:1020200090E026960FB6F894DEBF0FBECDBFDF91CD
:10203000CF91FF90EF90DF90CF90BF90AF909F90A7
:102040008F907F906F905F904F900895AD81BE818B
:102050005E966D917D918D919C919197FD0162A30A
:1020600073A384A395A3BECFAD81BE8192966D93D9
:102070007D938D939C93959756964D905D906D9022
:102080007C905997480C591C6A1C7B1CFD01468AA0
:10209000578A608E718EC818D908EA08FB08A2CF4B
:1020A000AD81BE8156968D909D90AD90BC90599714
:1020B000C80CD91CEA1CFB1CFD01C68AD78AE08E1D
:1020C000F18E0E949A0AAB01BC01411551056105D0
:1020D000710529F4AD81BE8111961C92A0CFED81CE
:1020E000FE8182818150990B092E000CAA0BBB0B3B
:1020F00029E0F694E794D794C7942A95D1F78C21D8
:102100009D21AE21BF21480F591F6A1F7B1F46A387
:1021100057A360A771A790E080E083CF85E090E0AF
:1021200080CF84E090E07DCF4F925F926F927F925C
:10213000BF92CF92DF92EF92FF920F931F93CF93B4
:10214000DF93CDB7DEB7EC970FB6F894DEBF0FBEC6
:10215000CDBFE0907503F0907603E114F10409F42B
:1021600004C1F70111829E012F5C3F4F3CA32BA3BA
:102170009C016901F90180812F5F3F4F8032C9F3D3
:102180008F3209F469011DA21EA21FA218A6F60132
:102190008081A0E2BA2E803208F0D4C0CE018196B0
:1021A0000E94C50A1982009709F407C1EC960FB680
:1021B000F894DEBF0FBECDBFDF91CF911F910F917D
:1021C000FF90EF90DF90CF90BF907F906F905F90E7
:1021D0004F90089520E0E0E088E0D1C0C30ED11C0C
:1021E00081E0913208F080E01B968C93CE018196BD
:1021F0000E94C50A0097D1F629A13AA12F70332772
:10220000F5E0220F331FFA95E1F74DA55EA56FA506
:1022100078A900E210E0CE0101960E94A30B892B61
:1022200019F081E090E0C2CF8981811103C083E081
:1022300090E0BCCF8C8583FD13C00BA11CA19E0137
:102240002F5F3F4FD801B801655F7F4F6A177B074B
:1022500009F4AEC0F90141919F019D914917B1F375
:1022600009A11AA10F5F1F4F11F38DA59EA5AFA560
:10227000B8A90097A105B105D1F298012F703327B5
:10228000232BB9F40196A11DB11D8DA79EA7AFA761
:10229000B8AB69A57AA58BA59CA5F7016115710559
:1022A0008105910549F4848195810817190708F083
:1022B000BECF1AA309A3A0CF2281E22FE150FF0BCA
:1022C000AF019801E4E036952795EA95E1F72423DC
:1022D0003523232B71F70E94250E6230710581058D
:1022E000910508F49ECFF701468057806084718481
:1022F000641575058605970508F099CF69A77AA733
:102300008BA79CA70E949A0A6DA77EA78FA798AB60
:10231000D0CF84FF8CCFF70180818330F1F48D8999
:102320009E89B0E0A0E0DC01992788274B8D5C8D69
:1023300070E060E0842B952BA62BB72B8DA39EA37A
:10234000AFA3B8A7ABA1BCA1FD01CD010B968E1721
:102350009F0709F43FCFB192FACF80E090E0DC0113
:10236000E5CF80E090E0DC013DC085E090E01ECF4D
:10237000883009F033CF9BE0282FE32F892F31E0FD
:102380003E0FEC0DFD2DF11D9081913208F426CF0A
:102390009F3209F423CF9E3259F3281708F01ECF3D
:1023A000FD01E20FF11D9083982F81E0820FE4CFB1
:1023B000F8019385992309F4ACCF8981882309F426
:1023C00036CF8C8584FD33CFE0917503F091760391
:1023D0008081833031F68D899E89B0E0A0E0DC01F8
:1023E000992788274B8D5C8D70E060E0842B952BBE
:1023F000A62BB72BF701868F978FA0A3B1A38D8D46
:102400009E8DAF8DB8A1828F938FA48FB58F168AC2
:10241000178A108E118E81E0818390E080E0C6CE15
:10242000CF93DF93D82FC0E061E08FE00E94670771
:1024300060E08FE00E946707CF5FDC13F5CFDF918C
:10244000CF9108951F93CF93DF93182FD92F81E059
:102450000E94101261E08091BB02823009F060E0BE
:1024600082E00E946707CFEFCABB81E28BBB82E0AC
:102470000E9410121ABACBBB82E00E941012CABB93
:102480001BBB83E00E941012DBBB82E00E94101293
:102490001ABACBBB61E08091BB02823009F460E0E4
:1024A00082E0DF91CF911F910C946707CF93DF9368
:1024B000D82F81E00E94101261E08091BB0282302F
:1024C00009F060E082E00E946707CFEFCABB86E3B5
:1024D0008BBB82E00E9410121ABACBBB82E00E9432
:1024E0001012CABBDBBB82E00E9410121ABACBBB2F
:1024F000C091BB0261E0C23009F460E082E00E945A
:10250000670783E00E94101281E00E94101261E0D0
:10251000C23009F060E082E00E946707CFEFCABBDB
:1025200083E28BBB82E00E9410121ABACBBB61E03F
:102530008091BB02823009F460E082E00E9467076C
:1025400083E0DF91CF910C941012282F81E0FB01E2
:102550009191BF01992321F0921719F08F5FF7CF66
:1025600080E00895AC01809101038111FCCF962F8A
:1025700081E080930103809300032FEF2093FF02FB
:1025800024ED32E03093FE022093FD021092FC0213
:102590002FEF260F2093FB028093FA022091FA027C
:1025A000440F551F822F842B8093FA028091F902E9
:1025B0008130D1F41092F9028091FA0283B906B603
:1025C00003FCFACF85EC86BF809101038130E1F3F3
:1025D0008091FC02861710F49091FC021092F50293
:1025E0009093F402892F089585EEEDCFCF9388E67E
:1025F0000E94C90690E080E00E942E0A0E94C60652
:1026000062E170E088E690E00E94B2120E94E60665
:10261000982F92959770CAE08F709C9F800D11241F
:102620008093F8020E94E606982F92959F708F7013
:102630009C9F800D11248093F7020E94E606982F3C
:10264000929593708F709C9F800D11248093F60259
:102650000E94E6060E94E606982F92959F708F7062
:102660009C9F800D11248093D3020E94E606982F30
:1026700092959F708F709C9F800D11248093D20241
:102680000E94E606982F92959F708F709C9F800DF8
:1026900011248093D1020E94E606C150E1F70E9406
:1026A000E6068093D002CF910895FC0101900020AE
:1026B000E9F73197AF01481B590BBC0187E793E05D
:1026C0000C9466088F929F92AF92BF920F931F93C4
:1026D000CF93DF93CDB7DEB7A1970FB6F894DEBFE7
:1026E0000FBECDBF19A2423008F44AE08E010F5D43
:1026F0001F4F842E912CB12CA12CA50194010E9476
:102700000131E62FB901CA01EA30F4F4E05DD801E5
:10271000EE938D01232B242B252B79F790E080E07D
:10272000109719F0CD010E945513A1960FB6F89499
:10273000DEBF0FBECDBFDF91CF911F910F91BF9034
:10274000AF909F908F900895E95CE1CF009711F0D2
:102750000C94551390E080E008951F93CF93DF937E
:1027600000D0CDB7DEB7182F85EA91E00E94A613FE
:10277000612F70E090E080E04AE00E946213105DFB
:102780001093620080E690E00E949410CE010196C2
:102790000E94950E89818093B002882361F08FEAB0
:1027A00091E00E94A6138AE293E00E94A61382EBB6
:1027B00091E00E94A6130F900F90DF91CF911F918F
:1027C0000895CF93C82F8A3020F485EB91E00E94C2
:1027D000A6136C2F70E090E080E04AE0CF910C945B
:1027E000621381110E94F61284EB91E00E94A613FD
:1027F0008091D1020E94E11387EB91E00E94A61321
:102800008091D2020E94E11387EB91E00E94A6130F
:102810008091D3020E94E1138DEA91E00E94A613F9
:102820008091F6020E94E11389EB91E00E94A613C9
:102830008091F7020E94E11389EB91E00E94A613B8
:102840008091F8020C94E1138BEB91E00C945513FA
:10285000CF93DF930E944F09EC010E9424148C0F48
:102860009D1FDF91CF91089587E793E00E94C408F0
:10287000181619062CF487E793E00E94A208F4CFFB
:102880008BE998E00E94281487E793E00E94C4082F
:1028900018161906CCF70895CF93DF93682F87E7B2
:1028A00093E00E940309EC010E9424148C0F9D1FE9
:1028B000DF91CF910895CF93DF93682F70E090E080
:1028C00080E04AE00E946213EC010E9424148C0F05
:1028D0009D1FDF91CF910895CF93DF9382EB91E01D
:1028E0000E945513EC010E9424148C0F9D1FDF9150
:1028F000CF9108950F931F93CF93DF93D82FC62FB7
:102900008A0187E399E00E944F096C2F70E090E004
:1029100080E04AE00E9462138FEA91E00E94A613D1
:102920008CE199E0C330C1F058F48EE299E0C130F7
:1029300099F084E299E0C23079F08FEE98E00CC013
:1029400085E099E0C53041F081E199E0C53020F0A3
:1029500087EF98E0C63089F70E944F098AEE98E029
:102960000E944F098FED98E0D13031F084EE98E06D
:10297000D23011F48AED98E00E944F098FEC98E074
:102980000E944F090115110539F085EC98E00E946D
:102990004F09C8010E94A613DF91CF911F910F919B
:1029A0000C946C14CF93DF93CDB7DEB72E970FB690
:1029B000F894DEBF0FBECDBF89EF96E09A87898776
:1029C0001C861B8682E08C8387E793E09E878D8739
:1029D000AE01495E5F4F6D897E89CE0101960E94EE
:1029E000EE2D2E960FB6F894DEBF0FBECDBFDF9151
:1029F000CF910895FF920F931F93CF93DF93F42EFF
:102A0000062F10E0C82FD0E08091CF02853020F152
:102A10001F924F93C801880F991F880F991F8351E8
:102A20009F4F9F938F931F926F93CE018F5B9F4F0A
:102A30009F938F938FEF99E09F938F9387E793E016
:102A40009F938F930E94D2148DB79EB70C960FB6AA
:102A5000F8949EBF0FBE8DBF88E40E94C906C801CE
:102A600023E0880F991F2A95E1F7CC0FDD1F8C2BEF
:102A70009D2B0E942E0A6F2D84E594E00E94FF0991
:102A800081E0DF91CF911F910F91FF900C9471061F
:102A9000DF92EF92FF920F931F93CF93DF93C82F94
:102AA000D62E88E40E94C9060D2D10E0D0E09801D2
:102AB00093E0220F331F9A95E1F7CE01880F991FFB
:102AC000822B932B0E942E0A80E00E94710661E007
:102AD00070E088E490E00E94B2120E94E6067C0159
:102AE0008091CF02853020F1C70199279F938F9362
:102AF000000F111F000F111F03551F4F1F930F933E
:102B00001F92DF92CF5BDF4FDF93CF938DEC99E085
:102B10009F938F9387E793E09F938F930E94D214A4
:102B20008DB79EB70C960FB6F8949EBF0FBE8DBFA3
:102B30008E2DDF91CF911F910F91FF90EF90DF903D
:102B40000895CF93DF93D82F63E00E944815807CCF
:102B5000C82FC3608091CF028823B1F01F92CF931A
:102B60001F92DF938BE39CE09F938F9387E793E023
:102B70009F938F930E94D2148DB79EB708960FB67D
:102B8000F8949EBF0FBE8DBF4C2F63E08D2FDF9159
:102B9000CF910C94FA140F931F93CF93DF93C82F08
:102BA000162F8091CF02833018F181EC91E06623DB
:102BB00011F08EEB91E01F9220E32F939F938F9360
:102BC0008C2F90E08F5B9F4F9F938F938FE09CE0C3
:102BD0009F938F9387E793E09F938F930E94D214E4
:102BE0008DB79EB70A960FB6F8949EBF0FBE8DBFE5
:102BF00064E08C2F0E944815482F446064E08C2FBD
:102C00000E94FA1463E08C2F0E944815082F4FEBA6
:102C100063E08C2F0E94FA1462E08C2F0E9448150A
:102C2000D82F482F406162E08C2F0E94FA1440ECAC
:102C300011114CE067E08C2F0E94FA144D2F62E0D6
:102C40008C2F0E94FA14402F63E08C2FDF91CF91DC
:102C50001F910F910C94FA144F925F926F927F9292
:102C60008F929F92AF92BF92CF92DF92EF92FF929C
:102C70000F931F93CF93DF93C82F042FB52EA62E4B
:102C8000972E64E00E94481524E087FF21E030E0A1
:102C900050E040E060E072EC81E090E00E940131A1
:102CA00029013A01CA01B901202F3B2D4A2D592D86
:102CB0000E94013169017A0163E08C2F0E9448155E
:102CC000182F482F406863E08C2F0E94FA144C2D77
:102CD00060E08C2F0E94FA144D2D61E08C2F0E9431
:102CE000FA14412F4F7763E08C2F0E94FA14A7014A
:102CF000960144275527C301B2010E9401313901D1
:102D0000842ED52F8091CF02823098F1CF5B9F9295
:102D1000AF92BF920F931F92CF9389E899E09F9350
:102D20008F9307E713E01F930F930E94D214DF9253
:102D3000CF921F92CF9387E699E09F938F931F9333
:102D40000F930E94D214DF938F927F926F921F9203
:102D5000CF9388E499E09F938F931F930F930E94E2
:102D6000D2148DB79EB74C960FB6F8949EBF0FBE87
:102D70008DBFB301882D9D2FDF91CF911F910F91B2
:102D8000FF90EF90DF90CF90BF90AF909F908F908B
:102D90007F906F905F904F900895FC0180819181AA
:102DA000009711F00C94B22D60E070E0CB01089513
:102DB000FC0180819181009711F00C94D931089524
:102DC000EF92FF920F931F93CF93DF93EC017B0160
:102DD0008A0188819981009729F02A813B812417F3
:102DE000350788F4B8016F5F7F4F0E946232009709
:102DF00091F0998388831B830A832C813D81232B47
:102E000011F4FC0110821D830C83B7018881998124
:102E10000E9441330CC088819981009711F00E9473
:102E2000D931198218821D821C821B821A82CE011E
:102E3000DF91CF911F910F91FF90EF900895AF9286
:102E4000BF92CF92DF92EF92FF920F931F93CF9397
:102E5000DF93EC016B015A0179012417350720F447
:102E60008B2D5901E42EF82E198218821B821A82AA
:102E70001D821C8250E040E06DEB71E0CE010E94AB
:102E8000E016D60114960D911C91A016B10628F5F6
:102E9000E016F10608F48701D601ED91FC91119737
:102EA000E00FF11FF08010826D917C916A0D7B1D07
:102EB00061157105F1F0FB0101900020E9F73197F0
:102EC000AF01461B570BCE010E94E016F601808130
:102ED0009181080F191FD801FC92CE01DF91CF918B
:102EE0001F910F91FF90EF90DF90CF90BF90AF9028
:102EF000089588819981009711F00E94D931198233
:102F000018821D821C821B821A82E0CF1F93CF93EE
:102F1000DF93EC01162F0E947B30181739F0612FD8
:102F2000CE01DF91CF911F910C948330DF91CF912F
:102F30001F9108950C947B30CF92DF92EF92FF9215
:102F40000F931F93CF930E9456086B017C01C1E041
:102F500087E793E00E94C408892B09F09BC00E9478
:102F600056086C197D098E099F09683B7B408105D5
:102F70009105A0F462E08DE00E9495078DE00E942B
:102F80003E07892B09F0C0E061E08DE00E949507C3
:102F90006AE070E080E090E00E9424080E945608F9
:102FA00000912603109127032091280330912903D3
:102FB000601B710B820B930B6D3271408105910583
:102FC000A0F080E00E943E0761E0892B09F060E0FC
:102FD00080E00E9467070E94560860932603709362
:102FE000270380932803909329030E9456086C19A5
:102FF0007D098E099F09693B7B408105910508F495
:10300000A7CFCC2309F4A4CF8FE090E00E949A17B9
:10301000893009F49DCF60E080E00E94670769E095
:103020008FE090E00E9486178AE59CE00E942814B9
:103030000E945608C0902603D0902703E0902803F2
:10304000F09029036C197D098E099F096536710579
:103050008105910568F380E00E943E0761E0892BBD
:1030600009F060E080E00E9467078DE00E943E0763
:1030700061E0892B09F060E08DE00E9467070E9403
:103080005608609326037093270380932803909338
:103090002903CECFCF911F910F91FF90EF90DF903A
:1030A000CF9008959F92AF92BF92CF92DF92EF920E
:1030B000FF920F931F93CF93DF93CDB7DEB72D977A
:1030C0000FB6F894DEBF0FBECDBF61E086E10E946F
:1030D000950760E086E10E94670761E080E00E945A
:1030E000950760E080E00E94670762E08DE00E9443
:1030F00095078DE00E943E078C0161E08DE00E9403
:10310000950761E08DE00E94670762E081E00E9420
:10311000950761E081E00E94950761E081E00E94EF
:10312000670761E082E00E94950760E083E00E940B
:10313000950762E08EE00E94950761E08EE00E94B4
:10314000950761E08EE00E9467071ABA8FEF8BBB8C
:1031500062E085E10E94950762E084E10E949507A4
:1031600062E083E10E94950762E082E10E94950798
:1031700080E190E00E949A178093BB02833038F080
:1031800060E080E190E00E9486171092BB028FE021
:1031900090E00E949A17C12C72ECD72EEE24E39493
:1031A000F12C893050F4E82FF0E0EE0FFF1FE556C8
:1031B000FF4FC080D180F12CE12C60E87DE88BE5E9
:1031C00090E0A70196010E94013121503109410987
:1031D00051095695479537952795E0918703F091CA
:1031E000880382E08083211580E13807A8F0E09110
:1031F0008703F0918803108260EC76EC8DE290E01A
:10320000A70196010E94013121503109410951095C
:10321000569547953795279587E7E82E83E0F82E52
:10322000E0918303F09184033083E0918503F09172
:103230008603208310928F03E0918B03F0918C031F
:1032400086E88083E0918903F0918A038081886910
:103250008083E0918903F0918A0380818F7D808350
:103260001F9288E18F938CE698E09F938F93FF9253
:10327000EF920E94D2148AE498E00E9428140E94DF
:1032800024141F9280E88F9388E198E09F938F9396
:10329000FF92EF920E94D21461E08CE00E949507A9
:1032A00061E08CE00E94670761E08BE00E94950777
:1032B00060E08BE00E94670761E08FE00E94950765
:1032C00060E086E10E94670786E00E94101261E0DC
:1032D00086E10E94670782E00E941012F090BB0214
:1032E0000FB6F894DEBF0FBECDBFF11009C262E089
:1032F0008AE00E94950761E082E00E94670761E032
:1033000087E10E94950760E087E10E94670764E615
:1033100070E080E090E00E94240861E087E10E9474
:10332000670764EF71E080E090E00E9424088DE080
:1033300090E00E949A17823028F061E08DE090E0E2
:103340000E9486178DE090E00E949A178093620297
:103350008EE090E00E949A178093C102863038F088
:1033600060E08EE090E00E9486171092C1021092F9
:10337000F5021092F40210920303109225031092AA
:103380000103FF24F394F09200031092F90261E02C
:1033900081E10E94670761E080E10E946707089869
:1033A000099880E780B985E486BF89EB99E090931E
:1033B0008402809383028AEB99E090938802809341
:1033C000870286E180B980E20E94C9060E94C60693
:1033D00081110FC0F092C20280E20E94C9068CE007
:1033E00090E00E942E0A85E090E00E942E0A0E9442
:1033F000C60688E40E94C9060E94C606811190C0D4
:1034000045E567E00E94FA1467E080E00E944815F5
:10341000853509F085C04AEA67E080E00E94FA1429
:1034200067E080E00E9448158A3A09F079C045E5D6
:1034300067E081E00E94FA1467E081E00E9448158D
:10344000853509F06DC04AEA67E081E00E94FA1410
:1034500067E081E00E9448158A3A09F061C081E086
:103460008093B5026EE080E00E944815482F4860C6
:103470006EE080E00E94FA1462E080E00E9448154D
:10348000482F416062E080E00E94FA1462E081E02F
:103490000E944815482F416062E081E00E94FA14C2
:1034A00060E080E00E94CB1561E080E00E94CB15D7
:1034B00060E081E00E94CB1561E081E00E94CB15C5
:1034C00040EB54E060E070E080E00E942C1640EB9E
:1034D00054E060E070E081E00E942C1680E00E94E1
:1034E000A11581E00E94A11562E080E00E944815CC
:1034F000482F426062E080E00E94FA1462E081E0BE
:103500000E944815482F426062E081E00E94FA1450
:1035100060E080E00E94481560E081E00E9448156C
:103520008FE090E00E949A178A3028F069E08FE0DF
:1035300090E00E94861780916202882309F4F9C006
:1035400086E01F928F9389EF97E09F938F93B7E761
:10355000EB2EB3E0FB2EFF92EF920E94D21420914B
:10356000BB0280E890E002C0880F991F2A95E2F71D
:103570009F938F9386EE97E09F938F93FF92EF92A6
:103580000E94D2148091BB020FB6F894DEBF0FBE2A
:10359000CDBF813009F0CFC08AEC97E00E944F097F
:1035A0000E94241488E60E94C9060E94C606811162
:1035B00055C18DE593E00E944F0981E00E94F1130F
:1035C0000E946C148091D002282F082E000C330B1F
:1035D0003F938F9381E393E09F938F9387E793E0EB
:1035E0009F938F930E94D21488E60E94C9068FE0B1
:1035F00090E00E942E0A0E94C60661E070E088E614
:1036000090E00E94B2120E94E6060F900F900F9079
:103610000F900F900F9087FFFDC028E030E046E04C
:1036200050E066E674E0CE0101960E941F17CE01BD
:1036300001960E94CD166093F802CE0101960E9479
:10364000D81625E030E043E050E066E674E0CE01B5
:1036500001960E941F17CE0101960E94CD1660931D
:10366000F702CE0101960E94D81622E030E050E029
:1036700040E066E674E0CE0101960E941F17CE017D
:1036800001960E94CD166093F602CE0101960E942B
:10369000D81626E030E044E050E060E674E0CE0169
:1036A00001960E941F17CE0101960E94CD166093CD
:1036B000D302CE0101960E94D81690E080E00E94CD
:1036C0000807EFEBE80FE33108F04CC00E2E000CBA
:1036D000FF0BE359F44E0C942331121CB21BB21BA6
:1036E0002C1CB21B101CB21BB21BB21BA11BB21BA9
:1036F000B21B1C1C2A1C281CB21BB21BB21B261C92
:1037000061E08AE00E94950760E08AE00E94670716
:1037100031E03F1508F0EFCD60E082E00E946707DE
:1037200061E087E10E94950760E087E10E946707FA
:10373000FECD8CE006CF823009F032CF84E997E0ED
:103740002DCF81E090E00E940807813609F464C023
:1037500082E090E00E9408078E3609F05FC086E0A4
:103760008093D2022BE030E049E050E060E674E064
:10377000CE0101960E941F17CE0101960E94CD1620
:103780006093D102CE0101960E94D81689E193E0A0
:103790000E9428148EEE92E00E944F0980E00E9461
:1037A000F11383EE92E00E944F090E949C1787E775
:1037B00093E00E94A20880936002893731F0893536
:1037C00021F08E3611F08E3481F70E944C148091D6
:1037D00060028F7D893589F44091D1026091D202D7
:1037E0008091D3020E94330A8EEB92E00E944F092F
:1037F00081E00E94F1130E94241488E60E94C90609
:103800008FE090E00E942E0A88E090E00E942E0A4D
:103810000E94C60681E023C081E0A2CF87E0A0CF4E
:1038200082E09ECF82E090E00E940807823711F488
:1038300084E096CF88E094CF82E090E00E94080771
:10384000823711F483E08CCF85E08ACF89E088CF7E
:103850008AE086CF8BE084CF8CE082CF80E08093BB
:10386000B2028091C202882321F08EE797E00E9485
:1038700028148091B502882321F080E697E00E9409
:1038800028148CE090E00E949A17823028F060E0C3
:103890008CE090E00E9486178CE090E00E949A17DE
:1038A0008093B1028823C1F184EC91E09F938F93C0
:1038B00085E497E09F938F9387E793E09F938F939F
:1038C0000E94D2148BE0E4E8F0E0DE011196019052
:1038D0000D928A95E1F70E94470C0E94470C8AE0FE
:1038E00090E00E949A17809361020F900F900F90C2
:1038F0000F900F900F90012B19F0853008F481C1C3
:1039000087E793E00E94C4081816190644F487E775
:1039100093E00E94A208F4CF87EC91E0C7CF84E146
:1039200097E09F938F9307E713E01F930F930E94F5
:10393000D214E09161020F900F900F900F90E5303C
:1039400008F0EFC1EC0FFD2FF11D8281282F082E0A
:10395000000C330B3F938F931F9288E58F9380EF7A
:1039600096E09F938F931F930F930E94D2140FB6EC
:10397000F894DEBF0FBECDBF1F9282E48F9382EE1C
:1039800096E09F938F9307E713E01F930F930E9496
:10399000D2141F9286E48F9384ED96E09F938F93C9
:1039A0001F930F930E94D2141F9284E48F9381EC93
:1039B00096E09F938F931F930F930E94D214809150
:1039C000C1020E94AD131F9281E48F938EEA96E0AC
:1039D0009F938F931F930F930E94D2141F928CE496
:1039E0008F938FE996E09F938F931F930F930E947D
:1039F000D2140FB6F894DEBF0FBECDBF8091620225
:103A0000882309F4A1C18CE01F928F931F9283E455
:103A10008F9384E796E09F938F9387E793E09F933C
:103A20008F930E94D2140FB6F894DEBF0FBECDBFA5
:103A30008091B102882309F489C187EC91E09F93BA
:103A40008F931F9285E48F938FE496E09F938F93DB
:103A500087E793E09F938F930E94D2148FE090E0CA
:103A60000E949A170FB6F894DEBF0FBECDBF893003
:103A700008F06FC1E82FF0E0EE0FFF1FE556FF4F93
:103A800080819181B0E0A0E0BF93AF939F938F932B
:103A90001F9283E58F938BE296E09F938F9307E7C6
:103AA00013E01F930F930E94D2140FB6F894DEBF59
:103AB0000FBECDBF8091B202882309F44FC11F927F
:103AC00084E58F9381E196E09F938F931F930F93EB
:103AD0000E94D2140F900F900F900F900F900F90A4
:103AE00080E190E00E949A1720E830E002C0220FA7
:103AF000331F8A95E2F73F932F931F9282E58F93AE
:103B000084EF95E09F938F9307E713E01F930F9344
:103B10000E94D2148DED95E09F938F931F930F9386
:103B20000E94D2140FB6F894DEBF0FBECDBF0E9424
:103B30009C1787E793E00E94A2080E942733182F62
:103B4000809360028F3309F01CC18091CF028F5F98
:103B50008093CF02BE016F5F7F4F812F0E94A5121D
:103B6000882329F3812F0E944C148091CF0288234F
:103B700091F01F928F9387EC95E09F938F9387E747
:103B800093E09F938F930E94D2140F900F900F9009
:103B90000F900F900F9080916002853409F4ADC1B1
:103BA0000CF0F5C0833409F49CC1843409F43CC1A1
:103BB000BE016F5F7F4F809160020E94A51282500C
:103BC000809361029091CF02992391F01F928F937D
:103BD0008FE395E09F938F9387E793E09F938F9375
:103BE0000E94D2140F900F900F900F900F900F9093
:103BF000609161028AE090E0653008F0E0C30E94C5
:103C0000861780916102823051F481E395E00E9431
:103C10004F098091C1020E94AD130E94241480912B
:103C20006102823009F4FEC308F0CEC3882309F490
:103C3000E2C3813009F4EDC361E080E00E946707D0
:103C400000915B0210915C020115110519F1F090D1
:103C5000CF0290E080E00E94221283EC0E94561274
:103C6000802F0E945612812F0E945612FF2091F041
:103C70001F930F9383E195E09F938F9387E793E0E2
:103C80009F938F930E94D2140F900F900F900F90DC
:103C90000F900F9080915B0290915C020E94221223
:103CA0008091CF028823F1F085EF94E00E944F09C4
:103CB000609157027091580290E080E04AE00E94C3
:103CC00062130E9424148FED94E00E944F096091CA
:103CD0005B0270915C0290E080E040E10E94621320
:103CE0000E94241480916102843008F0AAC40E94CA
:103CF000470C882309F4E0C30E94470C80935602C6
:103D0000882309F4D9C360915602662329F050E054
:103D100040E080E00E947A140E9434140E94470C14
:103D2000EBCFBE016F5F7F4F88E50E94A512182F71
:103D3000882309F421CE88E590E00E941F33FE011C
:103D4000E10FF11D808318CE86E05ECE84EC91E019
:103D500076CE80E092ECA1E0B0E096CEBE016F5F3F
:103D60007F4F84E50E94A512182F882309F4B8CE4E
:103D700084E590E00E941F33FE01E10FF11D808376
:103D8000AFCE803209F0E6CE1092CF02E3CE83357B
:103D900009F4BDC0843509F443C1823509F008CF68
:103DA00080E494E00E9428148091BB0281508093AB
:103DB0005F0283E0C82ED12C90E8A92EB12C05E536
:103DC00015E027E7E22E23E0F22E80915F028F5F5D
:103DD00090E0B6010E94ED30982E80935F0280E65D
:103DE00095E00E944F09C50102C0880F991F9A945F
:103DF000E2F79F938F931F930F93FF92EF920E948E
:103E0000D2140F900F900F900F900F900F9087E7A4
:103E100093E00E94C408181619060CF0A8C287E7A0
:103E200093E00E94A208F3CF80E494E00E9428145B
:103E30008091C102815080935F0206E080915F0211
:103E40008F5F602F0E94E130192F90935F0282EC08
:103E500095E00E944F09812F0E94AD138FEA95E0F3
:103E60000E944F0987E793E00E94C40818161906BC
:103E70002CF487E793E00E94A208F4CF87E793E051
:103E80000E94C408181619061CF00E949C17F6CF51
:103E900087E793E00E94A208809360028D3011F0C2
:103EA0008B3161F68BEA95E09F938F9387E793E0E0
:103EB0009F938F930E94D2140F900F900F900F90AA
:103EC000809160028D3009F073CE60915F02609343
:103ED000C1028EE090E00E94861784E48093600225
:103EE00067CE61E080916202811160E060936202BE
:103EF0008DE090E00E9486175BCE61E08091B10278
:103F0000811160E06093B1028CE090E0F3CF80E437
:103F100094E00E9428148FE090E00E949A1781504C
:103F200080935F026AE0D62E0FE915E077E7E72E6F
:103F300073E0F72E80915F028F5F6D2D0E94E1305C
:103F400090935F02993029F1E92FF0E0EE0FFF1F07
:103F5000E556FF4F80819181B0E0A0E0BF93AF9321
:103F60009F938F931F930F93FF92EF920E94D2140F
:103F70000FB6F894DEBF0FBECDBF87E793E00E9477
:103F8000C4081816190654F487E793E00E94A208A3
:103F9000F4CF80E092ECA1E0B0E0E0CF87E793E0DF
:103FA0000E94C408181619061CF00E949C17F6CF30
:103FB00087E793E00E94A208809360028D3019F099
:103FC0008B3109F0B7CF8BE995E09F938F9307E78B
:103FD00013E01F930F930E94D2140F900F900F9035
:103FE0000F90809160028D3009F0E2CD8FE090E07B
:103FF0000E949A1760915F02861709F4D9CD8FE06D
:1040000090E00E94861785E695E09F938F931F931B
:104010000F930E94D2140F900F900F900F90C8CD65
:104020000E94F6121092BD0286E294E00E942814CB
:1040300087EF93E00E9428143AE0F32E46EFE42E37
:10404000DD24D39485EF93E00E944F098091BD0257
:10405000823009F440C018F5882369F18130A1F15C
:104060000E949C1787E793E00E94A208082F809384
:104070006002853709F44DC0853509F44AC084379C
:1040800009F415C3843509F412C38D3049F7109132
:10409000BD026DE087E793E00E9403095EC08430B3
:1040A00089F148F18530E1F689EA93E00E944F09F1
:1040B0008091F80206C08CEE93E00E944F09809137
:1040C000D1020E94E113CCCF82EE93E00E944F090F
:1040D0008091D202F6CF84ED93E00E944F096DE00B
:1040E00087E793E00E9403098BEC93E00E944F095D
:1040F0008091D302E6CF81EC93E00E944F0980913A
:10410000F602DFCF85EB93E00E944F098091F70222
:10411000D8CF1091BD02123009F461C0D0F511233F
:1041200009F447C0113009F44FC0802F8F7D8435CA
:1041300009F0A8C0123009F4C1C008F08BC01123E7
:1041400009F499C0113009F4ADC06DE087E793E040
:104150000E9403090D3009F075CF1F5F1093BD0257
:10416000163008F46FCF4091D1026091D202809155
:10417000D3020E94330A89E993E00E9428148CE755
:1041800093E00E944F0981E00E94F1130E946C1499
:104190000FCD143009F450C008F443C0153029F68F
:1041A0008091F8028F5F8C3308F051C08093F80241
:1041B000BCCF8091D1028F5F843618F48093D102F6
:1041C000B4CF1092D102B1CF8091D2028F5F8D30E7
:1041D00018F48093D202A9CF1093D202A6CF809177
:1041E000D3028F5F8093D302E091D202E23089F450
:1041F00090E02091D102237049F42DE130E028179E
:1042000039070CF092CFD092D3028FCF2CE130E05F
:10421000F6CFF0E0E257FF4F9081981708F085CF76
:10422000F2CF8091F6028F5F883118F48093F60206
:104230007CCF1092F60279CF8091F7028F5F8C339A
:1042400018F48093F70271CF1092F7026ECF10929C
:10425000F8026BCF143009F46EC008F45AC0153060
:1042600009F073CF2091F802265F2C3308F075C057
:104270002093F80207C02091D102265F243640F433
:104280002093D1026DE087E793E00E940309DACE24
:10429000822F6F2D0E94E1308E9D200D11242093DE
:1042A000D10253CF8091D2028B3020F08A5080937C
:1042B000D2024BCF833030F7865FF9CF2091D30203
:1042C000265F2093D302422F50E0E091D202F0E02B
:1042D000E257FF4F808190E03091D102337061E06E
:1042E00070E011F070E060E0860F971F841795076B
:1042F0004CF4822F6F2D0E94E1308E9D200D1124F1
:104300002093D3028091D3028111BCCFD092D302EB
:104310001CCF2091F602265F283118F42093F60274
:10432000B1CF822F6F2D0E94E1308E9D200D112480
:104330002093F6020ACF2091F702265F2C3318F45F
:104340002093F7029FCF822F6F2D0E94E1308E9D28
:10435000200D11242093F702F8CE822F6F2D0E949A
:10436000E1308E9D200D11242093F802EECE87E7D8
:1043700093E00E94C408181619061CF00E949C17AE
:10438000F6CF87E793E00E94A208809360028D3009
:1043900019F08B3109F019CD0E9424140E942414C5
:1043A000809160028D3009F003CC60915F026093D0
:1043B000BB0280E190E00E94861788E58FCD0E94C5
:1043C0009A17809361021DCC833009F472C0843047
:1043D00009F032CCEFE2F5E08591949190935A0286
:1043E000809359028AE692E0909358028093570294
:1043F00080E19DEF48C08BEC91E090935E0280934A
:104400005D0210925C0210925B0281E08093BA021E
:1044100013CC87ED91E090935E0280935D0280E083
:1044200091E031C08091C102823091F170F4882313
:1044300011F1813009F000CC8DEE91E090935E0295
:1044400080935D0280E890E01EC0843079F118F11D
:10445000853009F0F1CB87E192E090935E02809382
:104460005D0210925C0210925B0281E08093BA02BE
:104470008093B902E1CB83EE91E090935E0280934A
:104480005D0280EE91ED90935C0280935B02D4CB51
:1044900088EF91E0C0CF83E092E090935E0280933A
:1044A0005D0210925C0210925B02C6CB8FE092E03C
:1044B000F4CF81E292E0F1CF00915D0210915E02B3
:1044C00068EF71E0C8010E943833892B31F0C801D0
:1044D0000E9494108093560210C08EE292E00E94D7
:1044E00094108111F4CF8EE292E090935E0280935B
:1044F0005D0260E08DE00E9467078091560288238C
:10450000E9F060915602662339F040915D025091C6
:104510005E0281E00E947A140E94341400915D02D0
:1045200010915E02C8010E9494108093560283305D
:1045300021F30E94470C0E94470CC9CF80915E0274
:104540008F9380915D028F938DEB94E09F938F9377
:1045500087E793E09F938F930E94D2140F900F9060
:104560000F900F900F900F90CE010C960E94950E19
:10457000082F8C858093B0020093560210925F0240
:1045800010915F028091B002181758F4E12FF0E00B
:10459000E65DFC4F80810E9456121F5F10935F0200
:1045A000EFCF803291F40023F9F240915D025091F7
:1045B0005E02602F82E00E947A140E94341460E050
:1045C00070E0CB010E94650F02C00111EECF809117
:1045D00056028111C9CF8AE994E00E94281460E054
:1045E00086E10E94670782B5877F82BD85B58160BD
:1045F00085BD85B5897F85BD85B5886085BD85B557
:104600008F7B85BD85B5806185BD85B58F7D85BD79
:104610008091620283BD61E08FE00E9495078DE783
:1046200094E00E9428140E94241487E793E00E94DB
:10463000C40818161906FCF487E793E00E94A20844
:10464000F4CF80EA94E00E944F0910E000E08091EE
:104650005702909158020817190708F0BCCFE09153
:104660005902F0915A02E00FF11F84910E945612F4
:104670000F5F1F4FECCF61E070E080E090E00E94A0
:10468000240861E086E10E9467072D960FB6F89432
:10469000DEBF0FBECDBFDF91CF911F910F91FF9075
:1046A000EF90DF90CF90BF90AF909F9008951091C2
:1046B000BD0240CD1F920F920FB60F9211244F935F
:1046C0005F936F937F938F939F934091CB02509111
:1046D000CC026091CD027091CE028091CA0290917D
:1046E000C9029230F9F41092C9028A5A8D3728F023
:1046F0008D574F5F5F4F6F4F7F4F8093CA0240933C
:10470000CB025093CC026093CD027093CE029F9166
:104710008F917F916F915F914F910F900FBE0F908E
:104720001F9018958B5A9F5F9093C902DFCF1F92FD
:104730000F920FB60F9211242F933F934F935F93D5
:104740006F937F938F939F93AF93BF93EF93FF9359
:1047500087E793E00E94E208FF91EF91BF91AF914C
:104760009F918F917F916F915F914F913F912F9189
:104770000F900FBE0F901F9018951F920F920FB6BB
:104780000F9211242F938F939F93EF93FF93E091B8
:104790008703F09188038081E0918D03F0918E036F
:1047A00082FD1BC09081809190038F5F8F77209155
:1047B0009103821741F0E0919003F0E0E958FC4F3B
:1047C000958F80939003FF91EF919F918F912F91FF
:1047D0000F900FBE0F901F9018958081F4CF1F92FD
:1047E0000F920FB60F9211242F933F934F935F9325
:1047F0006F937F938F939F93AF93BF93EF93FF93A9
:1048000081B1887F803609F44AC0F0F5883209F416
:10481000A3C018F5803109F499C0B8F4882309F4CD
:10482000FDC0883009F492C0FF91EF91BF91AF9124
:104830009F918F917F916F915F914F913F912F91B8
:104840000F900FBE0F901F901895883109F484C007
:10485000803251F78093FF0214C0803409F4A0C065
:1048600040F48033B9F38833F9F68093FF0285EC86
:10487000B6C0803509F485C0883509F499C08834FC
:1048800099F60E948A09D0CF883909F48FC030F593
:10489000883729F050F4883611F0803729F683E004
:1048A000809301031092A90254C0883809F47EC095
:1048B000803919F0803809F0B7CF8091A902803291
:1048C00008F074C0E091A90281E08E0F8093A902E4
:1048D00083B1F0E0E757FD4F80833BC0803B39F068
:1048E000E0F4803A09F47FC0883A09F09DCF84E073
:1048F000809301031092860210928502E091830258
:10490000F091840209958091850281110FC081E0A8
:10491000809385021092630209C0803C09F4A7CFFE
:10492000883C09F4A4CF883B09F07ECFE091860251
:1049300081E08E0F80938602F0E0ED59FD4F80817B
:1049400083B990918602809185022EC08091FA02EF
:1049500083B985EC86BF68CF9091FC028091FB0201
:104960009817A8F58091FD029091FE02E091FC025B
:1049700021E02E0F2093FC02E80FF92FF11D80811A
:10498000E7CF2091FD023091FE02E091FC0281E030
:104990008E0F8093FC0283B1E20FF32FF11D808311
:1049A0009091FC028091FB02981798F285E8D2CF93
:1049B0002091FD023091FE02E091FC0281E08E0F19
:1049C0008093FC0283B1E20FF32FF11D808380916D
:1049D0000003811156CF81E08093F90284EA86BFFB
:1049E0001092010321CF85EC86BF109201038091C4
:1049F000A902803230F4E091A902F0E0E757FD4FC0
:104A000010826091A90270E0E0918702F091880223
:104A100089E892E009951092A90206CF1092FF0250
:104A200030CFEF92FF920F931F93CF93DF930097B6
:104A3000C9F0EA018C012097B1F1E090AA02F09050
:104A4000AB02E114F10479F1F80181918F010E9428
:104A50000C0BF1E0EF1AF108F092AB02E092AA021F
:104A60002197E9CF411551056105710529F1809123
:104A70004A0383FD07C089E0440F551F661F771F57
:104A80008A95D1F788E50E94510B81111DC08FEFE7
:104A90000E940C0B8EEF0E940C0B80E092E0909332
:104AA000AB028093AA0290E080E0DF91CF911F914A
:104AB0000F91FF90EF900895DF91CF911F910F918B
:104AC000FF90EF900C94150B81E090E0EECF0F93E8
:104AD0001F93CF93DF93C82F162FD42F8091CF022F
:104AE0008330E0F01F924F931F926F938C2F90E0D2
:104AF0008F5B9F4F9F938F9389EA99E09F938F934A
:104B000087E793E09F938F930E94D2148DB79EB74F
:104B10000A960FB6F8949EBF0FBE8DBF63E08C2F30
:104B20000E944815082F4FEB63E08C2F0E94FA1467
:104B300062E08C2F0E944815482F4F73111140647A
:104B4000D111406862E08C2F0E94FA14402F63E07C
:104B50008C2FDF91CF911F910F910C94FA14E7E7FE
:104B6000F3E01382128288EE93E0A0E0B0E0848349
:104B70009583A683B78325E831E03183208320E441
:104B800030E03587248749E250E0578746874BE27B
:104B900050E0518B408B4AE250E0538B428B358B77
:104BA000248B2CE230E0378B268B118E128E138EE5
:104BB000148EE4E5F4E01382128284839583A68345
:104BC000B78387E991E091838083E6E6F4E0118280
:104BD0001082138212821582148248E050E06AE348
:104BE00072E0CF010E94E016E0E6F4E0118210824C
:104BF00013821282158214824BE050E063E472E06B
:104C0000CF010C94E016CF93DF9300D000D0CDB746
:104C1000DEB7789483B7836083BF83B7886483BF2C
:104C200089B7816089BF82E08EBD8EB581608EBDFF
:104C30008FB581608FBD85B5846085BD85B5806485
:104C400085BD87E886B91AB80E94521857E7E52E45
:104C500053E0F52E83E00E943E07892B99F583E10E
:104C60000E943E07892B09F0BEC482E10E943E07E4
:104C7000D9B2D092C70290917D00882309F483C0F5
:104C80009F3F51F090937C008091C5029091C602A5
:104C90009093C4028093C302D0927D001092C6020A
:104CA0001092C50260E08EE00E94670760E080E03D
:104CB0000E94670761E080E00E94670761E08EE084
:104CC0000E94670780917D008F3F09F053C080915B
:104CD000BA028823E1F08091C8028823C1F0809154
:104CE0006B008823A1F087E793E00E94C4081816A0
:104CF00019066CF460E081E00E9467078091B402BD
:104D000081608093B40210926B001092C80280916F
:104D1000B902882379F10E94D1070091AC02109169
:104D2000AD022091AE023091AF024B015C01801ABE
:104D3000910AA20AB30A20916F0030E0A8EEB3E016
:104D40000E94D230681579058A059B0598F460E0C9
:104D500081E00E9467078091B40282608093B40270
:104D60000E94D1076093AC027093AD028093AE02B3
:104D70009093AF020E94D008882309F46BCF81E0A2
:104D80008093C80267CF9C3009F487C108F051C0F6
:104D9000963009F40BC118F5933009F4E8C078F4A3
:104DA000992309F4D7C0913009F4DBC080917D00CC
:104DB0008A3009F477CF8C3009F474CFD5C294309F
:104DC00009F4E9C0953091F78091C202882309F473
:104DD000CBC280E20E94C90690E080E0D2C0993048
:104DE00009F4FAC080F4973009F4EBC09830F1F67A
:104DF0008091C202882309F4B7C280E20E94C906EA
:104E00008DE090E0BEC09A3009F406C19B3071F687
:104E1000D092BE028091BF029091C0028115924053
:104E200008F034C12FE12D1508F435C1109270003F
:104E3000BDCF923109F4AFC208F078C09F3009F4B9
:104E4000A0C280F49D3009F46DC29E3009F0AECF4F
:104E50008D2D81708093BA02D1FADD24D0F8D092E2
:104E6000B902A4CF903109F491C2913109F09ECFDB
:104E70008091C202882309F477C281E08093B7024F
:104E800011E0D11010E01093B60280E20E94C90632
:104E900082E190E00E942E0A110F012F0560802F01
:104EA00090E00E942E0A0E94C60680E20E94C90677
:104EB00090E080E00E942E0A88EF90E00E942E0A87
:104EC0000E94C60680E20E94C90681E090E00E942E
:104ED0002E0A90E080E00E942E0A0E94C60680E220
:104EE0000E94C9068CE090E00E942E0A8FEF90E0AD
:104EF0000E942E0A0E94C60680E20E94C90682E134
:104F000090E00E942E0A612F616084E594E00E9487
:104F1000FF090E94C6060093BD0280E20E94C906F6
:104F200082E190E00E942E0A602F2EC0923248F457
:104F3000903208F060C2933109F038CFD0926E0001
:104F400035CF943208F488C29E3709F02FCFD09223
:104F5000CF022CCF60E0D0FE61E08DE00E946707B9
:104F600025CF6D2D87E793E00E9403091FCF809125
:104F7000C202882309F4F8C180E20E94C90682E1D6
:104F800090E00E942E0A6D2D84E594E00E94FF09B6
:104F90000E94C6060BCF8091C202882309F4E4C1A7
:104FA00080E20E94C90683E190E0EBCF8091C202CB
:104FB000882309F4D9C180E20E94C90681E090E00B
:104FC000E0CF8091C202882309F4CEC180E20E9422
:104FD000C9068CE090E0D5CF23E680E12D15C8F01E
:104FE0008091C102805D809373008D2D6AE00E94E4
:104FF000E13090E3980F9093750030E3D30E46EFC5
:10500000849FD00C1124D092760081E790E00E941A
:10501000941080937000CACE6D2D70E08091C5020F
:105020009091C602892B71F47093C0026093BF0205
:105030008091C5029091C60201969093C60280931A
:10504000C502B4CE8091BF029D2D9093C002809383
:10505000BF022091BE028115924088F4203290F464
:105060001092700080917C0080937D008091C3023B
:105070009091C4029093C6028093C502D9CF81E17A
:10508000203208F082E180937000ECCF3FE181E1B3
:105090003D1508F0BECF82E1BCCF2090C502309014
:1050A000C6022114310419F56091BF027091C0024B
:1050B000611542E07407D8F48091BE028032B8F4E2
:1050C00090917000911113C035E0660F771F3A95EB
:1050D000E1F7682B90E080E049E0660F771F881FBA
:1050E000991F4A95D1F70E94650F809370008091B7
:1050F000700081119DCF822D8F718093BD02E82FAA
:10510000F0E0E65DFC4FD0828F3109F091CF009145
:10511000750310917603A12C85E00115110509F4A2
:1051200058C0F801818180FFD4C086FD0AC08689FD
:105130009789A08DB18D88279E7F868B978BA08FB6
:10514000B18FF801828D938DA48DB58D46895789D5
:10515000608D718D841B950BA60BB70B803291056A
:10516000A105B10520F080E290E0A0E0B0E06C0184
:10517000B12CA12C2AE233E03C832B83C114D1044F
:1051800009F4AAC0F80186899789A08DB18D9C0188
:105190003170232B09F05DC092809A94AC01BD015F
:1051A00029E076956795579547952A95D1F79422EA
:1051B00069F5892B8A2B8B2BF1F4668D778D80A175
:1051C00091A1F8016230710581059105D8F4118231
:1051D00081E0A092BC0280937000FFE1FA1508F410
:1051E0007DC083E1809370002FEF221621E032060C
:1051F00008F41ECF37CF62A173A184A195A10E94AC
:10520000250EDFCF62A373A384A395A3F80162A147
:1052100073A184A195A10E949A0A61157105810567
:10522000910511F4F801D3CFAB01BC01490D511D1B
:10523000611D711DF80146A357A360A771A790E0F7
:1052400080E00E941125F801892B09F68181806494
:105250008183F80186899789917020E032E0281BCC
:10526000390B46012C153D0508F449012401712C28
:10527000612CB301A4018B819C810E941125F8014E
:10528000892B09F0A4CF86899789A08DB18D840DD3
:10529000951DA61DB71D868B978BA08FB18F2B8177
:1052A0003C81280D391D3C832B83C818D908A80CD4
:1052B000B91C2C0131E05322452809F05FCF0E9430
:1052C000150BF801892B09F082CF81818F7B8183B7
:1052D00055CFA12C84E07DCF80E07BCF3FEF23161C
:1052E00031E0330608F4A4CE8111BCCE85E001156F
:1052F000110569F0F801818180FF12C086FF0AC0A4
:105300000E94150B892B31F0F801118281E0109277
:10531000BC02B9CEF80181818F7B818380E0F7CF19
:1053200084E0F5CFFEE0FD15F8F011E01D0DD11081
:1053300001C010E0612F609561708CE00E946707EA
:10534000612F62708BE00E9467070091BB0200230F
:1053500059F0612F64708AE00E946707612F6870BE
:1053600087E1023008F0FACD80917C0080937D00C7
:105370008091C3029091C4029093C6028093C502AB
:1053800091CCDD2089F3D0926F0010CD6D2D61702E
:105390006093B8020BCD8091B702882329F380E295
:1053A0000E94C90683E190E00E942E0A6D2D84E5DB
:1053B00094E00E94FF090E94C6061091B602110FE8
:1053C00080E20E94C90682E190E00E942E0A612FCD
:1053D0006C6F84E594E00E94FF090E94C6061D6F71
:1053E0001093BD0280E20E94C90682E190E00E9413
:1053F0002E0A612FC9CD8091B502882309F4D6CC3D
:1054000011E0903209F410E08091CF028330E0F097
:1054100080EE8D0D8F35F0F48D2D1F928F931F929E
:10542000DF92812F90E08F5B9F4F9F938F9382E35A
:105430009AE09F938F93FF92EF920E94D2140FB63F
:10544000F894DEBF0FBECDBF4D2D60E0812F0E94CE
:10545000FA14ACCC8EE2E1CF8091B502882309F436
:10546000A5CCBB24B394923209F4B12C0D2D10E0DD
:1054700056E0159507955A95E1F73D2D3F71A32EFE
:105480008091CF028230E0F0923209F078C084E758
:105490009BE09F938F93FF92EF920E94D214809192
:1054A000C7021F928F938CE79BE09F938F93FF928D
:1054B000EF920E94D2140FB6F894DEBF0FBECDBF9C
:1054C0008B2D90E0FC01E459FF4F6F0180818F71BB
:1054D000A81649F1E091C702EF7124E0E29FF001C4
:1054E0001124E35DFE4F708081809280A3808091C3
:1054F000CF02823088F0AF929F928F927F9289E59F
:105500009BE09F938F93FF92EF920E94D2140FB66D
:10551000F894DEBF0FBECDBF472D582D692D7A2DD3
:105520008B2D0E942C16F601808190E046E0959527
:1055300087954A95E1F708171907E1F08091CF02A6
:10554000823008F4E4C21F930F9327E43BE03F93BB
:105550002F93FF92EF920E94D2140F900F900F9012
:105560000F900F900F900130110511F10CF0D8C27F
:10557000012B41F08091C702F601808317CC8CE6A5
:105580009BE087CF8091CF02823060F08DE39BE07B
:105590009F938F93FF92EF920E94D2140F900F90DF
:1055A0000F900F9040E060E08B2D0E946725E2CFC6
:1055B0008091CF028230B0F387E29BE09F93E9CFE6
:1055C0008091CF02823060F028E13BE03F932F933F
:1055D000FF92EF920E94D2140F900F900F900F90B5
:1055E00041E061E0E1CF84E10E943E07892B09F0B0
:1055F00073C282E10E943E071092C702882309F419
:1056000046C08091CF02823070F00E9424148FEF48
:105610009AE00E944F098FEE9AE00E944F09809114
:10562000B4020E945B148FEF8093C70287E793E078
:105630000E94C4081816190634F587E793E00E9403
:10564000A2088093C7021092B30261E081E00E9439
:1056500067078091B4028E7F8093B40281E08093CB
:105660006B001FEF1ABB8091C7028BBB60E08EE01E
:105670000E94670760E080E00E9467070E941D07A4
:105680001ABA1BBB17CB81E08093B302DECF8091A7
:105690007D00893809F49FC108F064C0843809F49A
:1056A000ECC008F048C0813809F4C0C0A8F48038C4
:1056B00009F4A0C080917D008D7F843891F28091A3
:1056C0007C0080937D008091C3029091C4029093EE
:1056D000C6028093C502C5CF823809F4C3C083389F
:1056E00049F70091B20210E0000F111FD090B102F3
:1056F00087E793E00E94C40834E0181619060CF0FE
:1057000030E08091B30228E0811101C020E0809157
:10571000B802F0E18F9FC0011124082BD02A00911C
:10572000BB0240E4049F80011124D02AD32AD22A4C
:10573000D092C702BFCF863809F4E8C008F4E3C0AE
:10574000873809F445C1883809F0B4CF87E793E07A
:105750000E9493088F3F910509F008F480C08FEFF5
:1057600090E07DC0843AE8F5823A08F073C18B3846
:1057700009F467C108F449C1803A08F49BCF9091BD
:10578000B502992309F464C111E0803A09F410E0EC
:1057900060E0812F0E944815082F8091CF0283304E
:1057A000E8F080EE800F8F3508F050C1802F1F92F7
:1057B0008F931F920F93812F90E08F5B9F4F9F934A
:1057C0008F9322E53AE03F932F93FF92EF920E944E
:1057D000D2140FB6F894DEBF0FBECDBF0093C70240
:1057E00069CF863A08F45BC18E3F09F063CF8091A0
:1057F000CF0235C08DE00E943E07182F8093BD0276
:1058000062E08DE00E9495078DE00E943E0721E056
:10581000892B09F020E02093C70261E08DE00E940F
:105820009507612F8DE00E94670744CF8091C202E7
:10583000882309F444CF80E20E94C90682E190E007
:105840000E942E0A0E94C60680E20E94C90661E0FC
:1058500070E080E290E00E94B2120E94E60680931F
:10586000C70228CF8091C202882309F428CF80E2A2
:105870000E94C90683E190E0E3CF8091B2028823C1
:10588000A9F10091C5021091C6020115110569F434
:105890000E94F6128091F8028093C7020F5F1F4F9B
:1058A0001093C6020093C50205CF07301105F0F42E
:1058B0008091D2020430110579F368F48091F602E8
:1058C0000230110549F38091D3020330110521F311
:1058D0008091F702E1CF8091D10205301105E1F20C
:1058E0008091D00206301105B9F2F2CF80917C0090
:1058F00080937D008091C3029091C4029093C60270
:105900008093C502D7CE80917000A9CF0091C502C7
:105910001091C6020115110519F56091BF02709131
:10592000C002611582E07807D8F48091BE0280320F
:10593000B8F490917000911113C095E0660F771F35
:105940009A95E1F7682B90E080E029E0660F771FD9
:10595000881F991F2A95D1F70E94650F80937000C8
:105960008091700081111DC0902F9F71D92E90934E
:10597000BD0291110FC0CE0101960E94950E998132
:105980009093B002903210F180937000809170007B
:10599000811107C0ED2DF0E0E65DFC4F8081809322
:1059A000C7020F3F114060F080917C0080937D0022
:1059B0008091C3029091C4029093C6028093C50265
:1059C0008091C5029091C602019698CF83E1DCCF09
:1059D0000E94470C44CF8091B4028093C70210927A
:1059E000B4028091CF02823008F469CE0E94241460
:1059F00081EE9AE00E944F0984ED9AE00E944F09DF
:105A00008091C7020E945B1455CE8091B702882313
:105A100009F455CE80E20E94C90682E190E00E941E
:105A20002E0A0E94C60680E20E94C90661E070E06C
:105A300080E290E00E94B2120E94E606887F8160B8
:105A40000ECF87E793E00E94C40884CE8EE2AFCEEB
:105A50008AE105CF9091B5029923F9F011E0823ADD
:105A600009F410E069E0812F0E944815082F809109
:105A7000CF02843008F4B2CE1F920F93812F90E0B2
:105A80008F5B9F4F9F938F93E1E7FAE0FF93EF9334
:105A9000FF92EF920E94D2149CCE80E4E0CE9091CF
:105AA000B5029923D1F311E0843A09F410E068E0DB
:105AB000812F0E944815082F8091CF02843008F46E
:105AC0008DCE1F920F93812F90E08F5B9F4F9F93FE
:105AD0008F93E0E9FAE0DACF61E081E00E946707A6
