:100000000C94240A0C944C0A0C944C0A0C944C0A40
:100010000C944C0A0C944C0A0C944C0A0C944C0A08
:100020000C944C0A0C944C0A0C944C0A0C942A28FC
:100030000C944C0A0C9492280C946C280C944C0A46
:100040000C944C0A0C944C0A0C944C0A0C94C42842
:100050000C944C0A494F533A205254432073657410
:1000600020617420636F6D70696C652074696D65C3
:10007000202D204E6F773A2000293F205B592F4ECC
:100080005D203E000A446F20796F752077616E74A1
:10009000207365742052544320617420494F5320CB
:1000A000636F6D70696C652074696D652028004907
:1000B0004F533A2052544320636C6F636B20666148
:1000C000696C7572652100494F533A2052544320A0
:1000D0004453333233312074656D706572617475C9
:1000E00072652073656E736F723A202564C2B043E7
:1000F0000D0A00494F533A20466F756E64205254E2
:100100004320445333323331204D6F64756C652086
:100110002800494F533A2052544320646174652F9C
:1001200074696D65207570646174656420280020B1
:100130002E2E2E646F6E652020202020200A005372
:1001400065636F6E6473202D3E20004D696E75747B
:100150006573202D3E2000486F757273202D3E2060
:100160000020446179202D3E2000202020202020E6
:1001700020202020202020004D6F6E7468202D3E0E
:10018000200059656172202D3E200020000A507227
:1001900065737320542F5520746F20696E637265E8
:1001A0006D656E74202B31302F2B31206F72204300
:1001B0005220746F20616363657074000A494F5365
:1001C0003A20525443206D616E75616C20736574E2
:1001D00074696E673A000D0A50726573732043525A
:1001E00020746F206163636570742C204553432035
:1001F000746F2065786974206F7220616E79206F4A
:1002000074686572206B657920746F206368616E15
:10021000676500436865636B73756D206572726F07
:10022000723A2063616C633D3078253032582C205F
:10023000676F743D3078253032580D0A005265637F
:100240006F726420747970653A20307825303258A6
:100250000D0A005374617274206164647265737373
:100260003A203078253034580D0A00576169746996
:100270006E672048455820696E70757420737472DB
:1002800065616D2E2E2E0D0A00494F533A205A38C3
:10029000302069732072756E6E696E672066726FAA
:1002A0006D206E6F770020446F6E65004865782082
:1002B0004C6F616400494F533A204C6F6164696E22
:1002C0006720626F6F742070726F6772616D2E2E7F
:1002D0002E000D0A494F533A204C6F6164696E67D6
:1002E00020626F6F742070726F6772616D202825B5
:1002F00073292E2E2E0044454255473A20426F6FF7
:100300007453747241646472203D20004445425528
:10031000473A20466C61736820426F6F74496D6183
:10032000676553697A65203D200044454255473A48
:1003300020496E6A6563746564204A5020307825D0
:100340003034580D0A00496E74656C2D486578206C
:100350004C6F616465720D0A00C396FEC346FFC30D
:10036000AEFFC397FF3E0DCDAEFF3E0AC3AEFF31D9
:100370000000FD2100FE180EFE082819FE032806C5
:10038000FD45CB78281ACD8CFE3E5CCDAEFFCD8CE2
:10039000FEFD2101FEFD2BFD45CB7820F1CD4FFF69
:1003A000CD46FFFE08CC4DFFFD23FD7700CDAEFF0F
:1003B000FE0D20C4FD2100FEAFDD6FDD67CB27CB36
:1003C0002732B9FFFD23FD7E00FE0D28C1FE2E3829
:1003D000F328EAFE3A28E8FE522002DDE921000077
:1003E000FD22B7FFFD7E00EE30FE0A3808F620CE73
:1003F00089FEF93815CB27CB27CB27CB2706041747
:10040000CB15CB1410F9FD2318DAFD453AB7FFB828
:10041000CAADFE3AB9FFCB7728187D121318A7DBB7
:1004200001FEFF28FAC9FD2B3E20CDAEFF3E08C3DA
:10043000AEFFCB7F2026545DE5DDE1BFC278FFCD66
:100440008CFEDD7CCD97FFDD7DCD97FF3E3ACDAEB6
:10045000FF3E20CDAEFFDD7E00CD97FFAF32B9FF6E
:10046000DD7DBDDD7C9C30B5DD23DD7DE60718CC70
:10047000F5CB3FCB3FCB3FCB3FCDA4FFF1E60FF613
:1004800030FE3A3802CE07F53E01D301F1D300C960
:100490000000003100093EC9C31901E3EFBE231873
:1004A000613E0DF53E01D301C30101CDDE03E5C37D
:1004B0009A03577CBAC07DBBC900411AFE20C01305
:1004C00018F94EF1CD6105C3740547EFD640D82029
:1004D0001B13CDA20429DADB002323D5EBCDE404E2
:1004E000E7DAA2052100FFCD2E05D1C9FE21380291
:1004F000D620FE1B3FD81321FE0707856F3E008CD8
:1005000067C92807C54E060009C11B1323E3C9218B
:10051000000044CF270B1A6F131AFE27206A13041A
:10052000C9FE242822FE30D8FE3AD03EF0A4203E58
:1005300004C5444D292909291A13E60F856F3E0089
:100540008C67C11AF29200131AFE30D8FE3A380AAC
:10055000FE41D8E65FFE47D0D607E60FC5473EF01E
:10056000A478C120090429292929B56F18D9D511E2
:10057000ED00C3780554696E794241534943320D09
:10058000484F573F0D4F4B0D574841543F0D534F68
:100590005252590DF1D300FE0DC03E0AD73E0DC98F
:1005A000DB013CC83DE67FFE03C018153200FF1199
:1005B000E200CD0C06210000224A08210009223663
:1005C00008310009CD0E0011F20097CD0C06214232
:1005D00001223808210000224008223A083E3ECD80
:1005E000A705D51180FFCD7C00EF7CB5C1CA1607E9
:1005F0001B7C121B7D12C5D57993F5CDE705D5205F
:1006000010D5CD0206C12A3608CDC1066069223652
:1006100008C12A3608F1E5FE0328A6856F3E008C46
:10062000671100FFE7D2A105223608D1CDC906D156
:10063000E1CDC10618A7CD7005210009223608CDED
:100640007005C32E01CD7005110009210000CDEF0A
:1006500005DA2E01ED5338081313CD0D01215A0789
:10066000C31907DFD5CD7005CDE705C2DC00F11851
:10067000E3CD7C00CD7005CDE705DA2E01CDAA06CD
:10068000CD0D01CDEF0518F2AF3235080E08CF3B86
:1006900005CD0E0018C4CF0D03D718AFCF2304DF4C
:1006A0004D1819CF2511DF7DFE01CADB00FE11D2E6
:1006B000DB003235081805CD17061810CF2C05CDF4
:1006C000610518D8AF323508CD0E00F7DFC5CD4A29
:1006D00006C118E8CDF106DFD5CDE705C2DC002A5A
:1006E0003808E52A3A08E5ED62224008ED733A0839
:1006F000C3C101CD70052A3A087CB5CA7405F9E179
:10070000223A08E1223808D1CDD606F7CDF106CD40
:1007100052052B22400821D307C31907DF224408C2
:1007200021D907C31907DF18032101002242082A33
:100730003808224608EB224808010A002A4008EB44
:100740006068393E097E23B628177E2BBA20F57ED5
:10075000BB20F1EBED6239444D210A0019CDC906E9
:10076000F92A4808EBF7FFDA7405223C08D5EB2A92
:1007700040087CB5CA7505E72809D1CDD6062A3CC4
:100780000818EA5E23562A4208E57CAA7A19FA027A
:1007900003ACFA2303EB2A40087323722A4408F1BE
:1007A000B7F21203EBCD4A05D1380D2A460822389C
:1007B000082A4808EBF7E1D1CDD606F72100003E24
:1007C000DF7CB5C2C701CD0406D2C101C32E01ED45
:1007D0007B3E08E1223808D1D1D5CD17061805FF98
:1007E00038361810D5FFDA74051A4F9712D1CD0C90
:1007F00006791B12D5EB2A3808E521460322380872
:10080000ED733E08D53E3ACDA7051180FFDFD1EB51
:10081000732372E1223808D1F1CF2C0218BBF71AEA
:10082000FE0D2808CD5205CF2C0218F8F721E1075C
:10083000C31907CDC903C06FC9CDC903C86FC9CDDE
:10084000C9036FC8D86CC9CDC903D06FC9CDC9035E
:10085000D86FC9CDC903C8D86FC9E1C979E1C1E56D
:10086000C54FCDDE03EBE3CD4A05D12100003E01AB
:10087000C9CF2D04ED621821CF2B00CD2104CF2B41
:1008800015E5CD2104EBE37CAA7A19D1FAEB03AC90
:10089000F2EB03C3DB00CF2D09E5CD2104CD3505F7
:1008A00018E3CF7C97E5CD2104EBE37CB2677DB301
:1008B0006FD118CACD8E04CF2A29E5CD8E0406004B
:1008C000CD3205E3CD3205EBE37CB728067AB2EBF7
:1008D000C2DC007D210000B7282819DADC003D20A9
:1008E000F9181FCF2F29E5CD8E040600CD3205E380
:1008F000CD3205EBE3EB7AB3CADC00C5CD19056058
:1009000069C1D17CB7FADB0078B7FC350518A8CFF0
:10091000262AE5CD8E04EBE37CA2677DA36FD11878
:100920009621AC07C31907FF38057E23666FC9CD32
:100930007C0078B7C0CF2805DFCF2901C9C3740573
:10094000CDA2047CB7FADB00B5CADB00D5E52A4AA4
:100950000811FD07E73803210000ED5FAE5F23AE0D
:1009600057224A08E1EBC5CD1905C1D123C9CDA253
:10097000041BCD320513C92A3608D5EB2100FFCD63
:100980002E05D1C9CDA2046E2600C9CDA204C30094
:10099000FFCDA204E92100FFC9DFCF2C0DE5DF7DEB
:1009A000E177CF2C0423E518F5F7185BE56C2600FA
:1009B000CD2405417DE1670EFF0CCD2E0530FA19DF
:1009C000C9B7ED52C97CB7F07CB5C87CF52F677DFF
:1009D0002F6F23F1ACF2DB0078EE8047C97CAAF2DE
:1009E0005005EBE7C9FF381FE5CF3D1BDF444DE164
:1009F000712370C9CF3B04F1C3C701CF0D04F1C30C
:100A0000B801C9EFFE0DC8D511F50097CD0C06D180
:100A10001AF597122A3808E57E23B6D1CA2E017E30
:100A2000B7FA3C03CDAA061BF1123E3FD797CD0C77
:100A300006C32E01D511FB0018D1D71180FFCD0DB3
:100A40000128FBFE0D2810FE082817FE7F2813FE44
:100A5000182820FE2038E7D71213FE0DC87BFEFFB2
:100A600020DC7BFE8028D71B3E08D73E20D73E08DF
:100A7000D718CBCD0E003E5E18C07CB7FADB001154
:100A80000009E52A36082BE7E1D81A9547131A9C86
:100A900038041BB0C913131AFE0D20FA1318E347CC
:100AA0001A13B8C8D7FE0D20F7C9CF220CCD0C06FB
:100AB000FE0DE1CAB8012323E9CF5F063E8DD7E1E1
:100AC00018F4CF5E081AEE40D71A1318E3CF5C0C67
:100AD000E51ACD3900DA74057EE118E2C93A350825
:100AE000B72809FE10201006240D180B0600CD3281
:100AF00005F26406062D0DD53A3508B720023E0AE8
:100B00005FAF57D50DC5CD190578B12807E32DE5A1
:100B1000606918F2C10D79B7FA8D063E20D718F535
:100B200078B7C410005D3A3508B720023E0ABB7B97
:100B3000D1C8FE0A3802C607C630D718E9AF323529
:100B4000081A6F131A67130E04CD4A063E20D79772
:100B5000CD0C06C9E7C81A02130318F878922003CF
:100B60007993C81B2B1A7718F3C1E12240087CB592
:100B70002810E1224208E1224408E1224608E1224D
:100B80004808C5C9C121A2F739D2A1052A40087C6D
:100B9000B528132A4808E52A4608E52A4408E52A24
:100BA0004208E52A4008E5C5C9214A07EFD51A13CE
:100BB000FE2E281CFE613806FE7B3002E65F23BE57
:100BC00028EC3E7F1BBE380E23BE30FC23D118DC40
:100BD0003E7F23BE30FC7E236EE67F67F1E94C4901
:100BE000535481DE52554E81B24E455781A34E4536
:100BF000585482D34C455483914946832D474F54D2
:100C00004F81D0474F535542824152455455524E21
:100C1000826052454D8329464F528279494E505544
:100C20005483465052494E5481F53F81F5505554F6
:100C3000850653544F5081AC48414C5487FC838CFB
:100C4000524E4484AD41425384DB47455484F155B0
:100C5000535284F843414C4C84FE53495A4584E432
:100C6000544F5085028494544F828985745354455F
:100C700050829382963D83A02383A63C3E83A63C6C
:100C80003D83AC3C83B43E3D83BA3E83C083C7768C
:100C9000767676494F533A2043757272656E7420AA
:100CA00000494F533A2053797374656D2068616C25
:100CB0007465642C207072657373205245534554DB
:100CC0000044454255473A20626F6F744D6F64652A
:100CD0003A2025640D0A002564204B42797465731F
:100CE0000D000D202D3E004368616E676564207322
:100CF000706565642077696C6C2062652065666646
:100D0000656374697665206166746572206E6578C6
:100D100074207265626F6F74210D0A0A000D0A0A51
:100D2000000D202D3E256C642020200D000D0A0AA8
:100D300000202020202020202020202020202020D3
:100D400020200D000D202D3E003F566572626F730E
:100D5000697479206C6576656C2025640D0A000D38
:100D60000A456E74657220796F75722063686F69C9
:100D70006365203E2000202025633A2052414D200B
:100D800073697A6520282564204B4279746573293C
:100D90000D0A00202025633A2053657420525443E5
:100DA00020446174652F54696D650D0A002020256B
:100DB000633A205365742053657269616C20506FEB
:100DC00072742053706565642028256C64290D0AAF
:100DD00000202025633A20546F67676C65204350DC
:100DE0002F4D204175746F6578656320282D3E2056
:100DF0002573290D0A00202025633A204368616E7F
:100E00006765205A383020436C6F636B20537065E0
:100E1000656420282D3E202564204D487A290D0A3E
:100E200000202025633A204865784C6F61640D0AE4
:100E300000202025633A20576F7A4D6F6E0D0A000F
:100E4000202025633A2054696E7942415349433248
:100E50000D0A00202025633A204175746F626F6F80
:100E6000740D0A00202025633A204C6F61642F53D3
:100E70006574204F532000202025633A20466F726E
:100E800074680D0A00202025633A2042617369636B
:100E90000D0A00202025633A20457869742077697F
:100EA00074686F7574206368616E676520282D3ED5
:100EB00027256327290D0A0A000D0A494F533A20B6
:100EC00053656C65637420426F6F74204D6F646569
:100ED000206F722053797374656D20506172616D5B
:100EE00065746572733A0D0A0A000D0A494F533A48
:100EF0002053442063617264206D6F756E74656465
:100F000000494F533A2043502F4D204175746F656F
:100F100078656320697320257300494F533A204652
:100F20006F756E642053494F41202F2053494F4223
:100F3000204F7074696F6E00494F533A20466F75A9
:100F40006E6420475045204F7074696F6E002028F2
:100F50004354532C2052545320757365642061739D
:100F60002042414E4B322C2042414E4B332073697C
:100F7000676E616C2C2043453220696E7665727411
:100F800065642900202843545320757365642061EB
:100F9000732042414E4B32207369676E616C2900A9
:100FA000494F533A202564204B427974657320528F
:100FB000414D00494F533A205A383020636C6F63DB
:100FC0006B20736574206174202564204D487A0D70
:100FD0000A00494F533A20466F756E642065787455
:100FE000656E6465642073657269616C2052782057
:100FF000627566666572202825642062797465735F
:10100000290D0A00322E302E323630323036202D65
:101010002046656220203920323032362031323A83
:1010200031333A3230000D0A0A5A38302D4D4243DE
:10103000322D4E47202D2041303430363138202D8E
:101040002041546D6567613332202D202564204D89
:10105000487A0D0A00494F533A20436865636B2074
:10106000534420616E642070726573732061206B3D
:10107000657920746F207265706561740D0A0020B7
:101080002D2046696C653A2000206F70657261748E
:10109000696F6E0052454144004F50454E004D4F20
:1010A000554E5400206F6E2000554E4B4E4F574EFC
:1010B000004E4F5F46494C4553595354454D004EE1
:1010C0004F545F454E41424C4544004E4F545F4F94
:1010D00050454E4544004E4F5F46494C45004E4FEB
:1010E000545F5245414459004449534B5F45525265
:1010F000000D0A494F533A205344206572726F72B3
:1011000020003F3F53494F25633A20416374756186
:101110006C2062617564726174653A2025640D0A01
:10112000003F3F53494F25633A2043616C63756C20
:10113000617465642064697669736F723A2025640E
:101140000D0A003F3F53494F25633A2044657369B8
:101150007265642062617564726174653A20256409
:101160000D0A003F3F3F53494F25633A20536574B2
:101170004175746F48616E647368616B65202564A6
:101180002C2025640D0A003F3F3F3F3F53494F2528
:10119000633A2052656164526567697374657220B1
:1011A0003078253032582028257329207265733D08
:1011B0003078253032580D0A003F3F3F3F3F5349BA
:1011C0004F25633A20577269746552656769737475
:1011D00065722030782530325820282573292076F2
:1011E000616C3D3078253032580D0A003F3F3F5347
:1011F000494F25633A2057726974654279746520B6
:101200003078253032582025630D0A003F3F3F5388
:10121000494F25633A2052656164427974652030F4
:1012200078253032582025630D0A003F3F3F3F5359
:10123000494F25633A205278204649464F204C6555
:1012400076656C3A2025640D0A003F3F3F3F5349C5
:101250004F25633A205478204649464F2053706109
:1012600063653A2025640D0A00202D2069727153B0
:101270007461747573203D200044454255473A20FF
:10128000494E542041434B206379636C6500202D07
:1012900020696F44617461203D20004445425547F8
:1012A0003A2053595349525100202D2069727153ED
:1012B0007461747573203D200044454255473A20BF
:1012C0005345522052580072657365727665640DFD
:1012D0000A006175746F205254532F4354530D0A02
:1012E000006175746F20586F6E2F586F66662028E6
:1012F0004E5949290D0A0064697361626C650D0AD3
:1013000000202D2068616E647368616B653A20254A
:10131000642000202D2062617564726174653A203A
:10132000256C640D0A003F3F53494F423A003F3F4E
:1013300053494F413A002073657420636F6E747295
:101340006F6C3A203078253032580000003A003770
:10135000003400310000003B00380035003200004E
:10136000003900360033003000020202020202029D
:101370000204040404040404040303030303030336
:1013800003010101010101010101020408102040D3
:10139000800102040810204080010204081020404F
:1013A00080010204081020408000000002000000BC
:1013B000000000000005040007000000000000001D
:1013C0000000000000000000003F3F3F53494F2550
:1013D000633A204649464F5365745472696767659E
:1013E000724C6576656C2825735F4649464F3A20F6
:1013F00026640D0A003F53494F25633A204C43525F
:101400002052656769737465723A203078253032EE
:10141000780D0A000D0A0A494F533A20426175645B
:10142000207265636F7665727920646F6E65202D1A
:1014300020506C65617365207265626F6F74206EF9
:101440006F7721003B2B363311241FBECFE5D8E048
:10145000DEBFCDBF24E0A0E5B2E001C01D92A03701
:10146000B207E1F712E0A0E6B0E0E2ECF1E702C07B
:1014700005900D92A035B107D9F71AE0C3E2DAE082
:1014800004C02197FE010E94AF36C232D107C9F7CE
:101490000E948F2B0C94D4380C940000FB01A4857F
:1014A000B585ED91FC9111970190F081E02D682FA9
:1014B000CD01099590E080E00895282F90912503B3
:1014C00081E0913208F03FC0809101038111FCCF8F
:1014D0008091240332E030930103209300032FEF27
:1014E0002093FF0224E033E03093FE022093FD02BC
:1014F0001092FC029093FB021092FA029091FA0271
:10150000880F892B8093FA028091F902813011F5BE
:101510001092F9028091FA0283B906B603FCFACF61
:1015200085EC86BF809101038230E1F38091FF0258
:101530008F3F91F08091FF02803281F08091FF0215
:10154000803371F084E0109203031092250310920F
:101550000203089585EEE5CF80E0F5CF82E0F3CF7A
:1015600083E0F1CF81E00C945D0A91E09093020357
:101570008093240310920303109225030895909101
:10158000F5028091F4022FEF3FEF981748F4E92F0E
:10159000F0E0EC52FD4F208130E09F5F9093F50228
:1015A000C90108959091F5028091F4022FEF3FEF69
:1015B000981748F4E92FF0E0EC52FD4F208130E01D
:1015C0009F5F9093F502C9010895209164043091C2
:1015D00065048217930760F42091600430916104E0
:1015E0002115310529F0280F391FF901808108954F
:1015F00080E008950000000000000000000083E08B
:1016000090E00197F1F70895843059F028F4813083
:1016100099F0823089F00895853039F0873041F0B3
:1016200008958FB58F778FBD08958FB58F7DFBCFD0
:1016300085B58F7D85BD089583B78F7D83BF089560
:10164000CF93DF93282F30E0F901E755FC4E8491CA
:10165000F901E757FC4ED491F901E759FC4EC491CA
:10166000CC23A1F081110E94040BEC2FF0E0EE0FCF
:10167000FF1FE15AFC4EA591B491EC91ED2381E05E
:1016800090E009F480E0DF91CF91089580E090E050
:10169000FACF1F93CF93DF93282F30E0F901E7555E
:1016A000FC4E8491F901E757FC4ED491F901E759BA
:1016B000FC4EC491CC23A9F0162F81110E94040B7B
:1016C000EC2FF0E0EE0FFF1FEB5AFC4EA591B4910A
:1016D0008FB7F894EC91111108C0D095DE23DC93FC
:1016E0008FBFDF91CF911F910895DE2BF8CFCF935D
:1016F000DF9390E0FC01E757FC4E249187599C4E04
:10170000FC0184918823C9F090E0880F991FFC01A7
:10171000E55BFC4EA591B491FC01EB5AFC4EC591E2
:10172000D49161110DC09FB7F8948C9120958223BC
:101730008C938881282328839FBFDF91CF910895C0
:10174000623051F49FB7F8943C91822F80958323A7
:101750008C93E8812E2BEFCF8FB7F894EC912E2B42
:101760002C938FBFEACFCF92DF92EF92FF926FB7A9
:10177000F8948091CB029091CC02A091CD02B091CF
:10178000CE025091CA0222B738B7432F417030FFC2
:1017900004C041E02F3F09F440E06FBF6C017D01C0
:1017A00037E0CC0CDD1CEE1CFF1C3A95D1F7C50EC2
:1017B000D11CE11CF11CC81AD90AEA0AFB0A880FDD
:1017C000991FAA1FBB1FC81AD90AEA0AFB0A63E0BD
:1017D000CC0CDD1CEE1CFF1C6A95D1F730E0A3E3B6
:1017E000B3E00E945E36672F782F892F99276C0D02
:1017F0007D1D8E1D9F1D442321F06D5C7C4F8F4FFE
:101800009F4FFF90EF90DF90CF9008958F929F921F
:10181000AF92BF92CF92DF92EF92FF924B015C01A9
:101820000E94B30B6B017C010E94B30B6C197D0904
:101830008E099F09683E734081059105A8F321E058
:10184000821A9108A108B10888EEC80E83E0D81E5C
:10185000E11CF11C81149104A104B10429F7FF904B
:10186000EF90DF90CF90BF90AF909F908F900895B2
:101870002FB7F8946091CB027091CC028091CD0289
:101880009091CE022FBF089581E08093C802089501
:10189000AF92BF92CF92DF92EF92FF920F931F937E
:1018A000CF93DF936C017B018B01040F151FEB01BC
:1018B0005E01AE18BF08C017D10759F06991D60173
:1018C000ED91FC910190F081E02DC6010995892BE5
:1018D00079F7C501DF91CF911F910F91FF90EF90A4
:1018E000DF90CF90BF90AF900895FC01538D448D51
:1018F000252F30E0842F90E0821B930B541710F0BB
:10190000CF96089501970895FC01918D828D9817C7
:1019100061F0A28DAE0FBF2FB11D5D968C91928D9F
:101920009F5F9F77928F90E008958FEF9FEF0895CC
:10193000FC01918D828D981731F0828DE80FF11D99
:10194000858D90E008958FEF9FEF0895FC01918DB4
:10195000228D892F90E080589F4F821B91098F77AD
:101960009927089587E793E00E94A60C21E0892B30
:1019700009F420E0822F08950E94B20C882319F008
:1019800081E08093C8020895FC01A48DA80FB92FAF
:10199000B11DA356BF4F2C91848D90E001968F739B
:1019A0009927848FA689B7892C93A089B1898C91B6
:1019B00082748C93938D848D981306C00288F3896A
:1019C000E02D80818F7D80830895EF92FF920F93A9
:1019D0001F93CF93DF93EC0181E0888F9B8D8C8DDB
:1019E000981319C0E889F989808185FF14C09FB7D1
:1019F000F894EE89FF896083E889F989808182748F
:101A000080839FBF81E090E0DF91CF911F910F9184
:101A1000FF90EF900895F62E0B8D10E00F5F1F4F93
:101A20000F731127E02E8C8D8E110CC00FB607FCA2
:101A3000FACFE889F989808185FFF5CFCE010E9430
:101A4000C40CF1CFEB8DEC0FFD2FF11DE356FF4FD2
:101A5000F0829FB7F8940B8FEA89FB8980818062BE
:101A6000CFCF0F931F93CF93DF938C01D0E0C0E0D3
:101A7000F801EC0FFD1F6491662341F087E793E0C6
:101A80000E94E50C892B11F02196F2CFCE01DF9157
:101A9000CF911F910F910895CF93DF93EC01888D23
:101AA0008823B9F0AA89BB89E889F9898C9185FDD9
:101AB00003C0808186FD0DC00FB607FCF7CF8C9167
:101AC00085FFF2CF808185FFEDCFCE010E94C40C4F
:101AD000E9CFDF91CF91089585ED86BF06B604FC6E
:101AE000FDCF10920103089520918502260F332720
:101AF000331F21323105ECF420910103FC0190E009
:101B000080E0243069F082E00895A091850221915F
:101B1000AC014D595D4FA40FB52FB11D2C9301960B
:101B2000861798F380918502680F6093850280E0A4
:101B3000089581E00895089508950895E091F502CB
:101B40008091F402E81730F4F0E0EC52FD4F808110
:101B500090E008958FEF9FEF08958091F4029091A7
:101B6000F502891B990B0895CF92DF92EF92FF92B5
:101B70000F931F93CF93DF937C01CB018A012091B8
:101B80000203222389F0EB016B01C40ED51ECC1594
:101B9000DD0569F06991D701ED91FC910190F0812B
:101BA000E02DC7010995F3CF642F0E94740DC80181
:101BB000DF91CF911F910F91FF90EF90DF90CF9029
:101BC0000895CF93DF931F92CDB7DEB7698320913D
:101BD00002032223F9F020912503203258F021E05E
:101BE00030E0FC013383228390E080E00F90DF91AE
:101BF000CF91089580910303E82FF0E0EC5FFC4F54
:101C0000998190838F5F809303038093250381E004
:101C100090E0ECCF61E0CE0101960E94740DF7CF09
:101C2000682F84E594E00C94E10D0F931F93CF93FC
:101C3000DF93082F162FD42F88E60E94B50A90E074
:101C400080E00E94100E8091F802CAE06C2F0E9482
:101C50006D368295807F682F690F84E594E00E943D
:101C6000E10D8091F7026C2F0E946D368295807F86
:101C7000682F690F84E594E00E94E10D8091F602DF
:101C80006C2F0E946D368295807F682F690F84E5E6
:101C900094E00E94E10D81E090E00E94100E802F00
:101CA0006C2F0E946D368295807F682F690F84E5C6
:101CB00094E00E94E10D812F6C2F0E946D36829579
:101CC000807F682F690F84E594E00E94E10D8D2FDD
:101CD0006C2F0E946D368295807F682F690F84E596
:101CE00094E00E94E10DDF91CF911F910F910C9430
:101CF000B20A90E080E008950F931F93E09175037E
:101D0000F09176039B01AC01225031094109510940
:101D100086819781A085B1850297A109B10928170D
:101D200039074A075B0778F4A281B0E00E941C36AD
:101D30000289138924893589600F711F821F931FBF
:101D40001F910F91089560E070E0CB01F9CF0F93E0
:101D50001F93CF93DF93EC01E0917503F09176032D
:101D6000198218826C817D818E819F81613071051D
:101D70008105910581F106811781208531856017E4
:101D800071078207930738F5611571058105910583
:101D900039F42081233021F4668577858089918903
:101DA000688779878A879B87611571058105910509
:101DB00069F00E947C0E6C877D878E879F8790E0FC
:101DC00080E0DF91CF911F910F910895668577850F
:101DD00080899189F0CF81E090E0F3CF8FB9779B34
:101DE000FECF08958FEF0E94EE0E8FB108950F93EE
:101DF0001F93CF93DF93C091AA02D091AB0221979A
:101E0000CD3F8FEFD80721F080E00E94EE0EF7CF94
:101E10000E94F20E8F71853079F0D1E0C0E061E070
:101E200084E00E94490B0E94F20E8D2F9C2FDF91BF
:101E3000CF911F910F91089508E813E1C4EFD1E00D
:101E40000E94F20E8F3F49F00115110531F3CE01CA
:101E50000197F1F701501109F3CFD1E0C0E0012B58
:101E6000F1F2D0E0DCCFFF920F931F93CF93DF937B
:101E7000C82FD42F152F062FF72E80914A038111DA
:101E80003FC083E58DB91EB8C7FF09C040E050E0F0
:101E9000BA0187E70E94330F823060F5CF7761E0A7
:101EA00084E00E94490B0E94F20E60E084E00E94F0
:101EB000490B0E94F20E8C2F0E94EE0E8F2D0E9475
:101EC000EE0E802F0E94EE0E812F0E94EE0E8D2FBF
:101ED0000E94EE0E85E9C03421F087E8C83409F08D
:101EE00081E00E94EE0ECAE00E94F20E87FF02C05F
:101EF000C150D1F7DF91CF911F910F91FF900895BD
:101F000080E58DB981E08EB9BFCFCF92DF92EF929D
:101F1000FF920F931F93CF93DF937C016901809110
:101F20004A0383FD07C089E0440F551F661F771FD2
:101F30008A95D1F781E50E94330F811108C0C0E472
:101F4000DCE90E94F20E8F3F29F42197D1F7C1E01E
:101F5000D0E022C08E3FD9F7C2E0D2E0C01BD10B47
:101F6000CC19DD0981E0C81AD10818F00E94F20EE0
:101F7000F9CFE114F10401F10E0D1F1D0E94F20EC4
:101F8000F70181937F010E171F07C1F70E94F20E20
:101F90002197E1F7D0E0C0E061E084E00E94490BC6
:101FA0000E94F20ECE01DF91CF911F910F91FF9011
:101FB000EF90DF90CF9008950E94F20E015011092A
:101FC000D9F7E4CFCF92DF92EF92FF920F931F9356
:101FD000CF93DF93EC016A017B0102E010E02EEF6A
:101FE00031E00E94850F892B31F5888199818535F3
:101FF0009A4A59F526E330E0B701A601CE010E94C6
:10200000850F892B29F4888199818634914489F040
:1020100002E010E022E530E0B701A601CE010E9407
:10202000850F892BA1F481E0288139812634314440
:1020300019F480E001C083E0DF91CF911F910F91EF
:10204000FF90EF90DF90CF90089582E0F5CF81E090
:10205000F3CF4F925F926F927F928F929F92AF9247
:10206000BF92CF92DF92EF92FF920F931F93CF9385
:10207000DF93CDB7DEB7A4970FB6F894DEBF0FBEDF
:10208000CDBF109276031092750380914A03882386
:1020900039F084E00E94200B892B11F40E94F70E86
:1020A00061E084E00E94490B61E084E00E94770BCC
:1020B00061E085E00E94770B61E087E00E94770B8A
:1020C00061E084E00E94770B83E58DB91EB861E082
:1020D00084E00E94490B1AE00E94F20E1150E1F7D1
:1020E00040E050E0BA0180E40E94330F182F8130A5
:1020F00009F441C010E010934A0361E084E00E94BB
:10210000490B0E94F20E82E090E01123E9F040E0DA
:1021100050E0BA01CE0101960E94E20FC12CD12CF1
:102120007601813009F096C000E110E02EEB31E03D
:1021300040E050E0BA01CE0101960E94850F892B44
:1021400009F478C081E090E0A4960FB6F894DEBF61
:102150000FBECDBFDF91CF911F910F91FF90EF90F8
:10216000DF90CF90BF90AF909F908F907F906F90B7
:102170005F904F9008954AEA51E060E070E088E493
:102180000E94330F813091F5CE0101967C016E01E2
:1021900095E0C90ED11C87010E94F20EF8018193CF
:1021A0008F01CE16DF06C1F78B81813009F0A2CFF7
:1021B0008C818A3A09F09ECF80E1C82E87E2D82E22
:1021C00094EFA92EBB24B39440E050E060E070E4AB
:1021D00089EE0E94330F882309F4C9C0C501019715
:1021E000F1F7F1E0CF1AD10879F784CF40E050E061
:1021F000BA0189EE0E94330F01E4823010F412E03C
:1022000009EEA0E1EA2EA7E2FA2EB4EFCB2EDD24F0
:10221000D39440E050E0BA01802F0E94330F88230E
:1022200009F4BBC0C6010197F1F7F1E0EF1AF1081C
:1022300081F760CF8D81811103C086E090E084CF6B
:10224000C984DA84EB84FC84B701A601CE0101962F
:102250000E94E20F833009F475CF8111EECF04E2C2
:1022600010E02DE030E0B701A601CE0101960E94FA
:10227000850F892B09F066CF2A853B8550E040E029
:10228000211531054105510521F4288D398D4A8DDF
:102290005B8DAC81B0E00E941C364B015C014A8131
:1022A0005B8170E060E0C40ED51EE61EF71EC09292
:1022B0005503D0925603E0925703F0925803E981F8
:1022C000E0934D038D819E819093500380934F0343
:1022D0000F81188530E020E0011511052105310539
:1022E00021F40C891D892E893F89F4E09695879504
:1022F000FA95E1F72C01712C612C041B150B260BB0
:10230000370BC901B801681979098A099B09641951
:102310007509860997092E2F30E050E040E00E94B1
:102320008D36DA01C9010296A11DB11D80935103BA
:1023300090935203A0935303B0935403265F3F40FE
:10234000410951092F3F3F4E4105510588F1873F13
:102350009F4FA105B10588F570CF82E080934B03B4
:10236000D501C4018C0D9D1DAE1DBF1D2DC040E0CB
:1023700050E0BA018AE70E94330F8111BBCE0E9460
:10238000F20EF70181937F010E171F07C1F78981B4
:102390001CE086FDB0CE14E0AECE40E052E060E03E
:1023A00070E080E50E94330F882309F4A4CEA2CE0A
:1023B000873F9F4FA105B10580F283E080934B03D7
:1023C00088A199A1AAA1BBA18093590390935A0314
:1023D000A0935B03B0935C03C40CD51CE61CF71CF4
:1023E0008C0C9D1CAE1CBF1C80925D0390925E0302
:1023F000A0925F03B092600310924C038BE493E0D1
:10240000909376038093750390E080E09DCE0F93C8
:102410001F93CF93DF9300D000D0CDB7DEB76230EB
:1024200071058105910528F461E070E080E090E09D
:1024300055C0E0917503F0917603068117812085E0
:102440003185601771078207930770F7AB01BC01F4
:102450008081823031F1833039F79A012F77332729
:10246000220F331F220F331F97E0769567955795FC
:1024700047959A95D1F782859385A485B585480FB0
:10248000591F6A1F7B1F04E010E0CE0101960E94D5
:10249000850F892B49F669817A818B819C819F7098
:1024A0001DC09A013327220F331F452F562F672F48
:1024B000772782859385A485B585480F591F6A1FA4
:1024C0007B1F02E010E0CE0101960E94850F892B50
:1024D00009F0AACF69817A8190E080E00F900F9097
:1024E0000F900F90DF91CF911F910F9108956F92F0
:1024F0007F928F929F92AF92BF92CF92DF92EF9294
:10250000FF920F931F93CF93DF93C0917503D091E8
:102510007603FC0111821082209709F4AFC0298153
:1025200020FFAFC00A8D1B8D2C8D3D8D4E895F899C
:10253000688D798D68017901C41AD50AE60AF70A0F
:10254000B701A601403251056105710520F040E256
:1025500050E060E070E05C017A013AE2832E33E003
:10256000932E612C42E0742EE114F10409F48CC026
:102570008E899F89A88DB98DAC01BD0151706627E8
:102580007727452B462B472B09F04AC0DA80DA948F
:10259000AC01BD0129E076956795579547952A9539
:1025A000D1F7D42251F5892B8A2B8B2BD9F46E8D40
:1025B0007F8D88A199A16230710581059105C8F4CC
:1025C000198281E090E0DF91CF911F910F91FF90F0
:1025D000EF90DF90CF90BF90AF909F908F907F90C3
:1025E0006F9008956AA17BA18CA19DA10E94071202
:1025F000E2CF6AA37BA38CA39DA36AA17BA18CA13C
:102600009DA10E947C0E6115710581059105C1F2A5
:102610006D0D711D811D911D6EA37FA388A799A7C4
:102620002E893F893170C301821B930B67018E1580
:102630009F0508F46C014EA15FA168A579A58601EC
:10264000C4010E94850F892B09F0BACF8E899F891A
:10265000A88DB98D8C0D9D1DA11DB11D8E8B9F8BDD
:10266000A88FB98F8C0C9D1CEC18FD08F50180819A
:102670009181C80ED91ED182C08276CF85E090E0CC
:10268000A2CF84E090E09FCF90E080E09CCF4F927B
:102690005F926F927F928F929F92AF92BF92CF92F2
:1026A000DF92EF92FF92CF93DF9300D000D000D063
:1026B000CDB7DEB720917503309176033E832D832D
:1026C0002115310509F40CC1D90111962C911197EE
:1026D00020FF09C15A96CD90DD90ED90FC905D975A
:1026E0006C157D058E059F0510F46B017C01ED8155
:1026F000FE8146885788608C718C168A178A108EE6
:10270000118EC114D104E104F10409F4E6C0828001
:10271000912CB12CA12C39E0880C991CAA1CBB1C53
:102720003A95D1F7411451046104710409F470C061
:10273000B1E04B1A510861087108C701B601615038
:10274000710981099109A50194010E948D3629839F
:102750003A834B835C83C301B201A50194010E94BB
:102760008D3689819A81AB81BC8182179307A4073A
:10277000B50708F44DC088279927DC018819990905
:10278000AA09BB0984219521A621B721ED81FE81EB
:10279000868B978BA08FB18FC81AD90AEA0AFB0AD9
:1027A00062A173A184A195A18C149D04AE04BF0401
:1027B00008F058C00E94071262307105810591052A
:1027C00068F0AD81BE8116964D905D906D907C90C5
:1027D0001997641575058605970540F1ED81FE8111
:1027E000118281E090E026960FB6F894DEBF0FBE0E
:1027F000CDBFDF91CF91FF90EF90DF90CF90BF9052
:10280000AF909F908F907F906F905F904F900895C2
:10281000AD81BE815E966D917D918D919C919197D8
:10282000FD0162A373A384A395A3BECFAD81BE8136
:1028300092966D937D938D939C93959756964D901C
:102840005D906D907C905997480C591C6A1C7B1CBC
:10285000FD01468A578A608E718EC818D908EA0829
:10286000FB08A2CFAD81BE8156968D909D90AD9014
:10287000BC905997C80CD91CEA1CFB1CFD01C68AE8
:10288000D78AE08EF18E0E947C0EAB01BC0141150F
:1028900051056105710529F4AD81BE8111961C9227
:1028A000A0CFED81FE8182818150990B092E000C11
:1028B000AA0BBB0B29E0F694E794D794C7942A950A
:1028C000D1F78C219D21AE21BF21480F591F6A1FCE
:1028D0007B1F46A357A360A771A790E080E083CF3A
:1028E00085E090E080CF84E090E07DCF4F925F92D2
:1028F0006F927F92BF92CF92DF92EF92FF920F93EF
:102900001F93CF93DF93CDB7DEB7EC970FB6F89454
:10291000DEBF0FBECDBFE0907503F0907603E114EB
:10292000F10409F404C1F70111829E012F5C3F4FAD
:102930003CA32BA39C016901F90180812F5F3F4FCC
:102940008032C9F38F3209F469011DA21EA21FA2B1
:1029500018A6F6018081A0E2BA2E803208F0D4C019
:10296000CE0181960E94A70E1982009709F407C133
:10297000EC960FB6F894DEBF0FBECDBFDF91CF91BE
:102980001F910F91FF90EF90DF90CF90BF907F90BD
:102990006F905F904F90089520E0E0E088E0D1C014
:1029A000C30ED11C81E0913208F080E01B968C931D
:1029B000CE0181960E94A70E0097D1F629A13AA1D7
:1029C0002F703327F5E0220F331FFA95E1F74DA55D
:1029D0005EA56FA578A900E210E0CE0101960E94E5
:1029E000850F892B19F081E090E0C2CF8981811198
:1029F00003C083E090E0BCCF8C8583FD13C00BA1A6
:102A00001CA19E012F5F3F4FD801B801655F7F4F2A
:102A10006A177B0709F4AEC0F90141919F019D91AE
:102A20004917B1F309A11AA10F5F1F4F11F38DA52B
:102A30009EA5AFA5B8A90097A105B105D1F298014F
:102A40002F703327232BB9F40196A11DB11D8DA73B
:102A50009EA7AFA7B8AB69A57AA58BA59CA5F701E2
:102A6000611571058105910549F4848195810817E7
:102A7000190708F0BECF1AA309A3A0CF2281E22F25
:102A8000E150FF0BAF019801E4E036952795EA95F8
:102A9000E1F724233523232B71F70E9407126230BC
:102AA00071058105910508F49ECFF7014680578096
:102AB00060847184641575058605970508F099CFC3
:102AC00069A77AA78BA79CA70E947C0E6DA77EA7FB
:102AD0008FA798ABD0CF84FF8CCFF7018081833054
:102AE000F1F48D899E89B0E0A0E0DC019927882768
:102AF0004B8D5C8D70E060E0842B952BA62BB72B63
:102B00008DA39EA3AFA3B8A7ABA1BCA1FD01CD012E
:102B10000B968E179F0709F43FCFB192FACF80E052
:102B200090E0DC01E5CF80E090E0DC013DC085E095
:102B300090E01ECF883009F033CF9BE0282FE32FA1
:102B4000892F31E03E0FEC0DFD2DF11D908191326A
:102B500008F426CF9F3209F423CF9E3259F3281769
:102B600008F01ECFFD01E20FF11D9083982F81E048
:102B7000820FE4CFF8019385992309F4ACCF8981C2
:102B8000882309F436CF8C8584FD33CFE09175031B
:102B9000F09176038081833031F68D899E89B0E093
:102BA000A0E0DC01992788274B8D5C8D70E060E008
:102BB000842B952BA62BB72BF701868F978FA0A37D
:102BC000B1A38D8D9E8DAF8DB8A1828F938FA48F71
:102BD000B58F168A178A108E118E81E0818390E05E
:102BE00080E0C6CECF93DF93D82FC0E061E08FE0C6
:102BF0000E94490B60E08FE00E94490BCF5FDC131D
:102C0000F5CFDF91CF9108951F93CF93DF93182FC6
:102C1000D92F81E00E94F21561E08091BB028230E1
:102C200009F060E082E00E94490BCFEFCABB81E26D
:102C30008BBB82E00E94F2151ABACBBB82E00E94E5
:102C4000F215CABB1BBB83E00E94F215DBBB82E01E
:102C50000E94F2151ABACBBB61E08091BB028230B0
:102C600009F460E082E0DF91CF911F910C94490B51
:102C7000CF93DF93D82F81E00E94F21561E080911D
:102C8000BB02823009F060E082E00E94490BCFEF86
:102C9000CABB86E38BBB82E00E94F2151ABACBBB9B
:102CA00082E00E94F215CABBDBBB82E00E94F215F3
:102CB0001ABACBBBC091BB0261E0C23009F460E03C
:102CC00082E00E94490B83E00E94F21581E00E949D
:102CD000F21561E0C23009F060E082E00E94490B29
:102CE000CFEFCABB83E28BBB82E00E94F2151ABA17
:102CF000CBBB61E08091BB02823009F460E082E0EE
:102D00000E94490B83E0DF91CF910C94F215282F9C
:102D100081E0FB019191BF01992321F0921719F0F5
:102D20008F5FF7CF80E00895AC018091010381119E
:102D3000FCCF962F81E080930103809300032FEF57
:102D40002093FF0224ED32E03093FE022093FD0237
:102D50001092FC022FEF260F2093FB028093FA02C1
:102D60002091FA02440F551F822F842B8093FA0280
:102D70008091F9028130D1F41092F9028091FA0227
:102D800083B906B603FCFACF85EC86BF80910103B8
:102D90008130E1F38091FC02861710F49091FC02DF
:102DA0001092F5029093F402892F089585EEEDCFED
:102DB000CF9388E60E94B50A90E080E00E94100E52
:102DC0000E94B20A62E170E088E690E00E949416E8
:102DD0000E94D20A982F92959770CAE08F709C9F9C
:102DE000800D11248093F8020E94D20A982F9295A8
:102DF0009F708F709C9F800D11248093F7020E941A
:102E0000D20A982F929593708F709C9F800D1124F9
:102E10008093F6020E94D20A0E94D20A982F9295BD
:102E20009F708F709C9F800D11248093D3020E940D
:102E3000D20A982F92959F708F709C9F800D1124BD
:102E40008093D2020E94D20A982F92959F708F7021
:102E50009C9F800D11248093D1020E94D20AC15000
:102E6000E1F70E94D20A8093D002CF910895FC012D
:102E700001900020E9F73197AF01481B590BBC01C5
:102E800087E793E00C94480C8F929F92AF92BF9289
:102E90000F931F93CF93DF93CDB7DEB7A1970FB6F4
:102EA000F894DEBF0FBECDBF19A2423008F44AE04D
:102EB0008E010F5D1F4F842E912CB12CA12CA501EA
:102EC00094010E948D36E62FB901CA01EA30F4F46C
:102ED000E05DD801EE938D01232B242B252B79F770
:102EE00090E080E0109719F0CD010E943717A1966D
:102EF0000FB6F894DEBF0FBECDBFDF91CF911F910B
:102F00000F91BF90AF909F908F900895E95CE1CFB3
:102F1000009711F00C94371790E080E008951F930C
:102F2000CF93DF9300D0CDB7DEB7182F89EA91E0B9
:102F30000E948817612F70E090E080E04AE00E94D4
:102F40004417105D1093640082E690E00E947614AE
:102F5000CE0101960E94771289818093B002882366
:102F600061F083EB91E00E9488178AE293E00E946F
:102F7000881786EB91E00E9488170F900F90DF91E1
:102F8000CF911F910895CF93C82F8A3020F482E407
:102F900092E00E9488176C2F70E090E080E04AE099
:102FA000CF910C94441781110E94D81681E492E0CD
:102FB0000E9488178091D1020E94C31788EB91E08C
:102FC0000E9488178091D2020E94C31788EB91E07B
:102FD0000E9488178091D3020E94C31781EB91E071
:102FE0000E9488178091F6020E94C3178AEB91E035
:102FF0000E9488178091F7020E94C3178AEB91E024
:103000000E9488178091F8020C94C3178CEB91E012
:103010000C943717CF93DF930E94310DEC010E947F
:1030200006188C0F9D1FDF91CF91089587E793E0DD
:103030000E94A60C181619062CF487E793E00E944C
:10304000840CF4CF85E590E10E940A1887E793E0AD
:103050000E94A60C18161906CCF70895CF93DF939B
:10306000682F87E793E00E94E50CEC010E940618A8
:103070008C0F9D1FDF91CF910895CF93DF93682F21
:1030800070E090E080E04AE00E944417EC010E946A
:1030900006188C0F9D1FDF91CF910895CF93DF937A
:1030A0000E943717EC010E9406188C0F9D1FDF91BC
:1030B000CF9108950F931F93CF93DF93D82FC62FEF
:1030C0008A0181EF90E10E94310D6C2F70E090E059
:1030D00080E04AE00E94441783EB91E00E94881749
:1030E00086ED90E1C330C1F058F488EE90E1C13034
:1030F00099F08EED90E1C23079F089EA90E10CC050
:103100008FEB90E1C53041F08BEC90E1C53020F0C1
:1031100081EB90E1C63089F70E94310D84EA90E19D
:103120000E94310D89E990E1D13031F08EE990E1D2
:10313000D23011F484E990E10E94310D89E890E1E8
:103140000E94310D0115110539F08FE790E10E94C1
:10315000310DC8010E94881786EB91E0DF91CF9175
:103160001F910F910C944E18CF93DF93CDB7DEB71C
:103170002E970FB6F894DEBF0FBECDBF8EE49AE057
:103180009A8789871C861B8682E08C8387E793E079
:103190009E878D87AE01495E5F4F6D897E89CE0126
:1031A00001960E947A332E960FB6F894DEBF0FBEBA
:1031B000CDBFDF91CF910895FF920F931F93CF93CF
:1031C000DF93F42E062F10E0C82FD0E08091CF02BD
:1031D000853020F11F924F93C801880F991F880FE7
:1031E000991F8F509F4F9F938F931F926F93CE0184
:1031F0008F5B9F4F9F938F9389EB91E19F938F9369
:1032000087E793E09F938F930E94B4188DB79EB782
:103210000C960FB6F8949EBF0FBE8DBF88E40E9437
:10322000B50AC80123E0880F991F2A95E1F7CC0F52
:10323000DD1F8C2B9D2B0E94100E6F2D84E594E0DA
:103240000E94E10D81E0DF91CF911F910F91FF90DE
:103250000C945D0ADF92EF92FF920F931F93CF932E
:10326000DF93C82FD62E88E40E94B50A0D2D10E0FA
:10327000D0E0980193E0220F331F9A95E1F7CE0139
:10328000880F991F822B932B0E94100E80E00E94C2
:103290005D0A61E070E088E490E00E9494160E946C
:1032A000D20A7C018091CF02853020F1C701992795
:1032B0009F938F93000F111F000F111F0F541F4F6B
:1032C0001F930F931F92DF92CF5BDF4FDF93CF935C
:1032D00087E891E19F938F9387E793E09F938F9384
:1032E0000E94B4188DB79EB70C960FB6F8949EBF87
:1032F0000FBE8DBF8E2DDF91CF911F910F91FF904B
:10330000EF90DF9008954F925F926F927F928F922D
:103310009F92AF92BF92CF92DF92EF92FF920F9364
:103320001F93CF93DF93C82F042FB52EA62E972E71
:1033300064E00E942A1924E087FF21E030E050E099
:1033400040E060E072EC81E090E00E948D3629015F
:103350003A01CA01B901202F3B2D4A2D592D0E9457
:103360008D3669017A0163E08C2F0E942A19182F8B
:10337000482F406863E08C2F0E94DC184C2D60E0E1
:103380008C2F0E94DC184D2D61E08C2F0E94DC18E0
:10339000412F4F7763E08C2F0E94DC18A701960124
:1033A00044275527C301B2010E948D363901842E6E
:1033B000D52F8091CF02823098F1CF5B9F92AF9250
:1033C000BF920F931F92CF9383E491E19F938F93CA
:1033D00007E713E01F930F930E94B418DF92CF9278
:1033E0001F92CF9381E291E19F938F931F930F934D
:1033F0000E94B418DF938F927F926F921F92CF93A7
:1034000082E091E19F938F931F930F930E94B418D2
:103410008DB79EB74C960FB6F8949EBF0FBE8DBF6A
:10342000B301882D9D2FDF91CF911F910F91FF90B8
:10343000EF90DF90CF90BF90AF909F908F907F9054
:103440006F905F904F900895FC018081918100976B
:1034500011F00C943E3360E070E0CB010895FC0164
:1034600080819181009711F00C9465370895EF9257
:10347000FF920F931F93CF93DF93EC017B018A019F
:1034800088819981009729F02A813B81241735078B
:1034900088F4B8016F5F7F4F0E94EE37009791F07C
:1034A000998388831B830A832C813D81232B11F40C
:1034B000FC0110821D830C83B701888199810E94D1
:1034C000CD380CC088819981009711F00E94653732
:1034D000198218821D821C821B821A82CE01DF9102
:1034E000CF911F910F91FF90EF900895AF92BF92EF
:1034F000CF92DF92EF92FF920F931F93CF93DF93C0
:10350000EC016B015A0179012417350720F48B2D4A
:103510005901E42EF82E198218821B821A821D820C
:103520001C8250E040E06EEB71E0CE010E94371A41
:10353000D60114960D911C91A016B10628F5E0163F
:10354000F10608F48701D601ED91FC911197E00F87
:10355000F11FF08010826D917C916A0D7B1D6115C9
:103560007105F1F0FB0101900020E9F73197AF01FF
:10357000461B570BCE010E94371AF60180819181BC
:10358000080F191FD801FC92CE01DF91CF911F9136
:103590000F91FF90EF90DF90CF90BF90AF90089584
:1035A00088819981009711F00E94653719821882ED
:1035B0001D821C821B821A82E0CF1F93CF93DF9360
:1035C000EC01162F0E940736181739F0612FCE0133
:1035D000DF91CF911F910C940F36DF91CF911F9106
:1035E00008950C940736CF92DF92EF92FF920F93DB
:1035F0001F93CF930E94380C6B017C01C1E087E7D9
:1036000093E00E94A60C892B09F09BC00E94380C05
:103610006C197D098E099F09683B7B4081059105E6
:10362000A0F462E08DE00E94770B8DE00E94200BF9
:10363000892B09F0C0E061E08DE00E94770B6AE021
:1036400070E080E090E00E94060C0E94380C00912F
:103650002603109127032091280330912903601B32
:10366000710B820B930B6D32714081059105A0F0B7
:1036700080E00E94200B61E0892B09F060E080E08F
:103680000E94490B0E94380C609326037093270315
:1036900080932803909329030E94380C6C197D09AC
:1036A0008E099F09693B7B408105910508F4A7CFEE
:1036B000CC2309F4A4CF8FE090E00E94F11A893066
:1036C00009F49DCF60E080E00E94490B69E08FE043
:1036D00090E00E94DD1A84E194E10E940A180E94A1
:1036E000380CC0902603D0902703E0902803F09078
:1036F00029036C197D098E099F09653671058105BD
:10370000910568F380E00E94200B61E0892B09F0AD
:1037100060E080E00E94490B8DE00E94200B61E098
:10372000892B09F060E08DE00E94490B0E94380C63
:1037300060932603709327038093280390932903B3
:10374000CECFCF911F910F91FF90EF90DF90CF9050
:1037500008958F929F92AF92BF92CF92DF92EF9295
:10376000FF920F931F93CF93DF93CDB7DEB7C1576F
:10377000D1090FB6F894DEBF0FBECDBF61E086E180
:103780000E94770B60E086E10E94490B61E080E0D7
:103790000E94770B60E080E00E94490B62E08DE0C0
:1037A0000E94770B8DE00E94200B8C0161E08DE080
:1037B0000E94770B61E08DE00E94490B62E081E09E
:1037C0000E94770B61E081E00E94770B61E081E06D
:1037D0000E94490B61E082E00E94770B60E083E089
:1037E0000E94770B62E08EE00E94770B61E08EE032
:1037F0000E94770B61E08EE00E94490B1ABA8FEFAE
:103800008BBB62E085E10E94770B62E084E10E945D
:10381000770B62E083E10E94770B62E082E10E9415
:10382000770B80E190E00E94F11A8093BB02833015
:1038300038F060E080E190E00E94DD1A1092BB0257
:103840008FE090E00E94F11AC12CE2ECDE2EEE2413
:10385000E394F12C893050F4E82FF0E0EE0FFF1FD5
:10386000E156FF4FC080D180F12CE12C60E47BE475
:103870008CE490E0A70196010E948D362150310919
:10388000410951095695479537952795E09187034A
:10389000F091880382E08083211580E13807A8F049
:1038A000E0918703F0918803108260EA75E286E276
:1038B00090E0A70196010E948D36215031094109FF
:1038C0005109569547953795279547E7E42E43E0EC
:1038D000F42EE0918303F09184033083E09185031B
:1038E000F0918603208310928F03E0918B03F09177
:1038F0008C0386E88083E0918903F0918A038081BC
:1039000088698083E0918903F0918A0380818F7DAB
:1039100080831F9284E18F9386E290E19F938F933F
:10392000FF92EF920E94B41884E090E10E940A187E
:103930000E9406181F9280E88F9382ED9FE09F936C
:103940008F93FF92EF920E94B41861E08CE00E9486
:10395000770B61E08CE00E94490B61E08BE00E94F4
:10396000770B60E08BE00E94490B61E08FE00E94E2
:10397000770B60E086E10E94490B86E00E94F21519
:1039800061E086E10E94490B82E00E94F215F0900E
:10399000BB020FB6F894DEBF0FBECDBFF1100BC255
:1039A00062E08AE00E94770B61E082E00E94490BAE
:1039B00061E087E10E94770B60E087E10E94490B9C
:1039C00064E670E080E090E00E94060C61E087E130
:1039D0000E94490B64EF71E080E090E00E94060CC9
:1039E0008DE090E00E94F11A823028F061E08DE0D5
:1039F00090E00E94DD1A8DE090E00E94F11A809321
:103A000062028EE090E00E94F11A8093C10286303B
:103A100038F060E08EE090E00E94DD1A1092C10262
:103A20001092F5021092F4021092030310922503F3
:103A300010920103FF24F394F09200031092F90214
:103A400061E081E10E94490B61E080E10E94490B45
:103A5000089809988CE580B985E486BF8BE99DE0DC
:103A600090938402809383028CE99DE09093880276
:103A70008093870281E180B980E20E94B50A0E94AA
:103A8000B20A81110FC0F092C20280E20E94B50A10
:103A90008CE090E00E94100E85E090E00E94100EF5
:103AA0000E94B20A88E40E94B50A0E94B20A8111FB
:103AB00090C045E567E00E94DC1867E080E00E9466
:103AC0002A19853509F085C04AEA67E080E00E943E
:103AD000DC1867E080E00E942A198A3A09F079C070
:103AE00045E567E081E00E94DC1867E081E00E9424
:103AF0002A19853509F06DC04AEA67E081E00E9425
:103B0000DC1867E081E00E942A198A3A09F061C056
:103B100081E08093B5026EE080E00E942A19482F70
:103B200048606EE080E00E94DC1862E080E00E9465
:103B30002A19482F416062E080E00E94DC1862E0B0
:103B400081E00E942A19482F416062E081E00E94D2
:103B5000DC1860E080E00E94922A61E080E00E9430
:103B6000922A60E081E00E94922A61E081E00E9456
:103B7000922A40EB54E060E070E080E00E948319FC
:103B800040EB54E060E070E081E00E94831980E047
:103B90000E94682A81E00E94682A62E080E00E9418
:103BA0002A19482F426062E080E00E94DC1862E03F
:103BB00081E00E942A19482F426062E081E00E9461
:103BC000DC1860E080E00E942A1960E081E00E9439
:103BD0002A198FE090E00E94F11A8A3028F069E0FB
:103BE0008FE090E00E94DD1A80916202882309F440
:103BF000FBC085E01F928F9383EB9FE09F938F9391
:103C000027E7E22E23E0F22EFF92EF920E94B418F3
:103C10002091BB0280E890E002C0880F991F2A958E
:103C2000E2F79F938F9380EA9FE09F938F93FF9299
:103C3000EF920E94B4188091BB020FB6F894DEBFD9
:103C40000FBECDBF813009F0D1C084E89FE00E9453
:103C5000310D0E94061888E60E94B50A0E94B20A39
:103C6000811157C183EF90E00E94310D81E00E94E5
:103C7000D31786EB91E00E944E188091D002282F36
:103C8000082E000C330B3F938F9387EC90E09F93AB
:103C90008F9387E793E09F938F930E94B41888E6F1
:103CA0000E94B50A8FE090E00E94100E0E94B20AB6
:103CB00061E070E088E690E00E9494160E94D20ACB
:103CC0000F900F900F900F900F900F9087FFFDC0F7
:103CD00028E030E046E050E066E674E0CE01019670
:103CE0000E94761ACE0101960E94241A6093F8026F
:103CF000CE0101960E942F1A25E030E043E050E00B
:103D000066E674E0CE0101960E94761ACE01019615
:103D10000E94241A6093F702CE0101960E942F1A86
:103D200022E030E050E040E066E674E0CE0101962B
:103D30000E94761ACE0101960E94241A6093F60220
:103D4000CE0101960E942F1A26E030E044E050E0B8
:103D500060E674E0CE0101960E94761ACE010196CB
:103D60000E94241A6093D302CE0101960E942F1A5A
:103D700090E080E00E94E50AEFEBE80FE33108F005
:103D80004CC00E2E000CFF0BE853F14E0C94AF36D6
:103D90006D1F0D1F0D1F871F0D1F6B1F0D1F0D1F8B
:103DA0000D1FFC1E0D1F0D1F771F851F831F0D1F6D
:103DB0000D1F0D1F811F61E08AE00E94770B60E0FC
:103DC0008AE00E94490BF1E0FF1508F0EDCD60E0BC
:103DD00082E00E94490B61E087E10E94770B60E07E
:103DE00087E10E94490BFCCD8AE004CF823009F0C4
:103DF00030CF8EE49FE02BCF81E090E00E94E50A77
:103E0000813609F464C082E090E00E94E50A8E36B3
:103E100009F05FC086E08093D2022BE030E049E0F9
:103E200050E060E674E0CE0101960E94761ACE0161
:103E300001960E94241A6093D102CE0101960E943D
:103E40002F1A8FEA90E00E940A1884E890E00E94FE
:103E5000310D80E00E94D31789E790E00E94310D78
:103E60000E94F31A87E793E00E94840C80935F021C
:103E7000893731F0893521F08E3611F08E3481F793
:103E80000E942E1880915F028F7D893589F44091C0
:103E9000D1026091D2028091D3020E94150E84E576
:103EA00090E00E94310D81E00E94D3170E94061815
:103EB00088E60E94B50A8FE090E00E94100E88E02C
:103EC00090E00E94100E0E94B20A81E023C081E0BF
:103ED000A2CF87E0A0CF82E09ECF82E090E00E9458
:103EE000E50A823711F484E096CF88E094CF82E02F
:103EF00090E00E94E50A823711F483E08CCF85E0E0
:103F00008ACF89E088CF8AE086CF8BE084CF8CE0AF
:103F100082CF80E08093B2028091C202882321F098
:103F200088E39FE00E940A188091B502882321F05F
:103F30008AE19FE00E940A188CE090E00E94F11A4A
:103F4000823028F060E08CE090E00E94DD1A8CE086
:103F500090E00E94F11A8093B102882309F446C0D0
:103F600085EC91E09F938F9381E09FE09F938F93E7
:103F700087E793E09F938F930E94B4188DE0E6E863
:103F8000F0E0DE01AB59BF4F01900D928A95E1F749
:103F90000E942910809361020F900F900F900F9054
:103FA0000F900F90811125C08AEE9EE00E940A18A2
:103FB0008AE090E00E94F11A80936002012B51F098
:103FC000873040F4843008F0DDC18091610288239D
:103FD00009F4D8C187E793E00E94A60C18161906C9
:103FE00034F587E793E00E94840CF4CF88EC91E0ED
:103FF000B9CF50E040E0682F80E00E945A18CE010F
:104000008B599F4F7C016C0194E0C90ED11CF701C4
:104010008181082E000C990B0E94AB38F701818337
:10402000FFEFEF1AFF0ACE14DF0489F7C1CF89EB47
:104030009EE09F938F9387E793E09F938F930E94D7
:10404000B418E09160020F900F900F900F90E7303E
:1040500008F0B7C1E43020F4809161028111B1C150
:1040600025E630E02C0F3D1F2E0F311DF901818117
:10407000282F082E000C330B3F938F931F9288E557
:104080008F9383E99EE09F938F9387E793E09F93BD
:104090008F930E94B4180FB6F894DEBF0FBECDBF49
:1040A0008091610281113BC01F9282E48F9385E869
:1040B0009EE09F938F9307E713E01F930F930E9457
:1040C000B4181F9286E48F9387E79EE09F938F93A7
:1040D0001F930F930E94B4181F928FE48F9384E66E
:1040E0009EE09F938F931F930F930E94B41880912B
:1040F000C1020E948F170E9406181F9281E48F93BD
:1041000083E59EE09F938F931F930F930E94B418B3
:104110000E9406180FB6F894DEBF0FBECDBF1F92E7
:1041200084E58F9380E49EE09F938F9307E713E0ED
:104130001F930F930E94B4181F9287E58F9381E31A
:104140009EE09F938F931F930F930E94B4181F922A
:1041500088E48F9381E29EE09F938F931F930F9348
:104160000E94B4180E9406180FB6F894DEBF0FBE66
:10417000CDBF80916202882309F43AC18AE01F9280
:104180008F931F9283E48F9386EF9DE09F938F938D
:1041900087E793E09F938F930E94B4180FB6F8942B
:1041A000DEBF0FBECDBF8091B102882309F422C1CA
:1041B00088EC91E09F938F931F9285E48F9381ED1C
:1041C0009DE09F938F9387E793E09F938F930E9447
:1041D000B4188FE090E00E94F11A0FB6F894DEBF99
:1041E0000FBECDBF893008F008C1E82FF0E0EE0F18
:1041F000FF1FE156FF4F80819181B0E0A0E0BF93A7
:10420000AF939F938F931F9283E58F938DEA9DE0E9
:104210009F938F9307E713E01F930F930E94B418A7
:104220000FB6F894DEBF0FBECDBF8091B2028823D7
:1042300009F4E8C01F9284E48F9383E99DE09F9383
:104240008F931F930F930E94B4180F900F900F90AD
:104250000F900F900F9080E190E00E94F11A20E8FB
:1042600030E002C0220F331F8A95E2F73F932F936D
:104270001F9282E58F9386E79DE09F938F9307E7D8
:1042800013E01F930F930E94B4188FE59DE09F9356
:104290008F931F930F930E94B4180FB6F894DEBF4C
:1042A0000FBECDBF0E94F31A87E793E00E94840CF3
:1042B0000E94B338182F80935F028F3309F0B9C082
:1042C0008091CF028F5F8093CF02BE016B597F4FE9
:1042D000812F0E948716882329F3812F0E942E1890
:1042E0008091CF02882391F01F928F9389E49DE003
:1042F0009F938F9387E793E09F938F930E94B418C7
:104300000F900F900F900F900F900F9080915F0281
:10431000853409F406C10CF092C0833409F4F5C069
:10432000843409F491C1BE016B597F4F80915F02C3
:104330000E9487168250809360029091CF02992349
:1043400091F01F928F9381EC9CE09F938F9387E76E
:1043500093E09F938F930E94B4180F900F900F904B
:104360000F900F900F9060916002673008F080C34B
:10437000643020F48091610281117AC38AE090E078
:104380000E94DD1A80916002823051F483E99CE042
:104390000E94310D8091C1020E948F170E94061861
:1043A000E0916002E73008F080C3F0E0E652FE4D95
:1043B0000C94AF364825CA25D3251A261D262A2651
:1043C0003926BE016B597F4F88E50E948716182F4A
:1043D000882309F465CE88E590E00E94AB38E5E6D5
:1043E000F0E0EC0FFD1FE10FF11D3197808358CEF7
:1043F00085E0C5CE85EC91E0DDCE80E092ECA1E0D9
:10440000B0E0FDCEBE016B597F4F84E40E94871659
:10441000182F882309F41FCF84E490E00E94AB3862
:10442000E5E6F0E0EC0FFD1FE10FF11D3197808311
:1044300012CF803209F049CF1092CF0246CF823599
:1044400009F4ABC2833509F476C08F3409F06BCF21
:1044500086ED91E00E940A188091C10281508093FC
:104460005E0206E080915E028F5F602F0E946D36D3
:10447000192F90935E0284E49DE00E94310D812FFC
:104480000E948F1781E39DE00E94310D87E793E042
:104490000E94A60C181619062CF487E793E00E94D8
:1044A000840CF4CF87E793E00E94A60C1816190637
:1044B0001CF00E94F31AF6CF87E793E00E94840C69
:1044C00080935F028D3011F08B3161F68DE29DE0BB
:1044D0009F938F9387E793E09F938F930E94B418E5
:1044E0000F900F900F900F9080915F028D3009F028
:1044F0001ACF60915E026093C1028EE090E00E944C
:10450000DD1A8FE480935F020ECF61E0809162023A
:10451000811160E0609362028DE090E00E94DD1AFC
:1045200002CF61E08091B102811160E06093B1023D
:104530008CE090E0F3CF86ED91E00E940A188FE0C6
:1045400090E00E94F11A815080935E02BAE0DB2E67
:1045500001E21DE087E7E82E83E0F82E80915E02FD
:104560008F5F6D2D0E946D3690935E02993029F118
:10457000E92FF0E0EE0FFF1FE156FF4F80819181A0
:10458000B0E0A0E0BF93AF939F938F931F930F93DF
:10459000FF92EF920E94B4180FB6F894DEBF0FBEE0
:1045A000CDBF87E793E00E94A60C1816190654F4B5
:1045B00087E793E00E94840CF4CF80E092ECA1E0C6
:1045C000B0E0E0CF87E793E00E94A60C181619062A
:1045D0001CF00E94F31AF6CF87E793E00E94840C48
:1045E00080935F028D3019F08B3109F0B7CF8DE1E8
:1045F0009DE09F938F9307E713E01F930F930E9413
:10460000B4180F900F900F900F9080915F028D3033
:1046100009F089CE8FE090E00E94F11A60915E026D
:10462000861709F480CE8FE090E00E94DD1A87EEB5
:104630009CE09F938F931F930F930E94B4180F9049
:104640000F900F900F906FCE0E94D8161092BD025F
:104650008CEB91E00E940A188DE891E00E940A1804
:10466000EAE0FE2EF6EFEF2EDD24D3948BE891E006
:104670000E94310D8091BD02823009F440C018F5CE
:10468000882369F18130A1F10E94F31A87E793E052
:104690000E94840C082F80935F02853709F44DC077
:1046A000853509F44AC0843709F4D1C4843509F446
:1046B000CEC48D3049F71091BD026DE087E793E0DD
:1046C0000E94E50C5EC0843089F148F18530E1F646
:1046D0008FE391E00E94310D8091F80206C082E8DC
:1046E00091E00E94310D8091D1020E94C317CCCF7E
:1046F00088E791E00E94310D8091D202F6CF8AE6E0
:1047000091E00E94310D6DE087E793E00E94E50C97
:1047100081E691E00E94310D8091D302E6CF87E5DA
:1047200091E00E94310D8091F602DFCF8BE491E0A1
:104730000E94310D8091F702D8CF1091BD02123046
:1047400009F463C0E0F5112309F449C0113009F4FC
:1047500051C0802F8F7D843509F0AAC0123009F432
:10476000C3C008F08DC0112309F49BC0113009F4B7
:10477000AFC06DE087E793E00E94E50C0D3009F0D3
:1047800075CF1F5F1093BD02163008F46FCF4091B4
:10479000D1026091D2028091D3020E94150E8FE265
:1047A00091E00E940A1882E191E00E94310D81E0BF
:1047B0000E94D31786EB91E00E944E18B4CD1430BE
:1047C00009F450C008F443C0153019F68091F8027E
:1047D0008F5F8C3308F051C08093F802BACF80917C
:1047E000D1028F5F843618F48093D102B2CF109239
:1047F000D102AFCF8091D2028F5F8D3018F48093B9
:10480000D202A7CF1093D202A4CF8091D3028F5FA0
:104810008093D302E091D202E23089F490E02091BB
:10482000D102237049F42DE130E0281739070CF04C
:1048300090CFD092D3028DCF2CE130E0F6CFF0E0D4
:10484000EE56FF4F9081981708F083CFF2CF8091FA
:10485000F6028F5F883118F48093F6027ACF1092B7
:10486000F60277CF8091F7028F5F8C3318F4809334
:10487000F7026FCF1092F7026CCF1092F80269CF57
:10488000143009F46EC008F45AC0153009F071CF25
:104890002091F802265F2C3308F075C02093F802AF
:1048A00007C02091D102265F243640F42093D10224
:1048B0006DE087E793E00E94E50CD8CE822F6F2D44
:1048C0000E946D368E9D200D11242093D10251CF70
:1048D0008091D2028B3020F08A508093D20249CF4F
:1048E000833030F7865FF9CF2091D302265F209383
:1048F000D302422F50E0E091D202F0E0EE56FF4F9B
:10490000808190E03091D102337061E070E011F06D
:1049100070E060E0860F971F841795074CF4822F94
:104920006F2D0E946D368E9D200D11242093D30291
:104930008091D3028111BCCFD092D3021ACF2091A3
:10494000F602265F283118F42093F602B1CF822FA9
:104950006F2D0E946D368E9D200D11242093F6023E
:1049600008CF2091F702265F2C3318F42093F7022A
:104970009FCF822F6F2D0E946D368E9D200D1124AA
:104980002093F702F6CE822F6F2D0E946D368E9DFA
:10499000200D11242093F802ECCE86ED91E00E94C8
:1049A0000A188091BB02815080935E0253E0C52EAD
:1049B000D12C60E8A62EB12C07ED1CE077E7E72E9E
:1049C00073E0F72E80915E028F5F90E0B6010E9447
:1049D0007936982E80935E0282EE9CE00E94310D23
:1049E000C50102C0880F991F9A94E2F79F938F9395
:1049F0001F930F93FF92EF920E94B4180F900F90A5
:104A00000F900F900F900F9087E793E00E94A60CF5
:104A1000181619062CF487E793E00E94840CF4CF53
:104A200087E793E00E94A60C181619061CF00E9456
:104A3000F31AF6CF87E793E00E94840C80935F021D
:104A40008D3019F08B3109F0BDCF0E9406180E94FD
:104A5000061880915F028D3009F065CC60915E028E
:104A60006093BB0280E190E00E94DD1A88E54ACDA8
:104A700080916102811107C08AE090E00E94F11AE2
:104A8000809360027FCC81EA9CE00E940A18FFCFED
:104A90008CEC91E090935D0280935C0210925B023B
:104AA00010925A0281E08093BA0261E080E00E9495
:104AB000490B00915A0210915B020115110519F181
:104AC000F090CF0290E080E00E94041683EC0E94F8
:104AD0003816802F0E943816812F0E943816FF202A
:104AE00091F01F930F938AE293E09F938F9387E750
:104AF00093E09F938F930E94B4180F900F900F90A4
:104B00000F900F900F9080915A0290915B020E943B
:104B100004168091CF028823F1F08CE093E00E948C
:104B2000310D609156027091570290E080E04AE0AA
:104B30000E9444170E94061886EF92E00E94310DF1
:104B400060915A0270915B0290E080E040E10E9427
:104B500044170E94061880916002843008F038C221
:104B60000E942910882309F470C10E9429108093A3
:104B70006102882309F469C160916102662329F00A
:104B800050E040E080E00E945A180E9416180E94EF
:104B90002910EBCF88ED91E090935D0280935C0249
:104BA00080E091E031C08091C102823091F170F4D7
:104BB000882311F1813009F078CF8EEE91E0909347
:104BC0005D0280935C0280E890E01EC0843079F141
:104BD00018F1853009F069CF88E192E090935D0289
:104BE00080935C0210925B0210925A0281E08093E3
:104BF000BA028093B90259CF84EE91E090935D029E
:104C000080935C0280EE91ED90935B0280935A0258
:104C10004CCF89EF91E0C0CF84E092E090935D02A9
:104C200080935C0210925B0210925A023ECF80E1A8
:104C300092E0F4CF82E292E0F1CF83E994E09093A6
:104C400059028093580280E098E090935702809335
:104C50005602E8CF89E593E0909359028093580279
:104C60008AE391E0909357028093560280E89EEF8A
:104C7000CBCF86E493E09F938F9307E713E01F93D6
:104C80000F930E94B4188BE692E09F938F931F932B
:104C90000F930E94B4180FB6F894DEBF0FBECDBFBD
:104CA00000E010E033E1E32E32E0F32E4DE3C42EBA
:104CB00042E0D42E87E793E00E94A60C892B51F4A2
:104CC00061E070E080E090E00E94060CF3CF01E02C
:104CD00010E0F0CF87E793E00E94840C8A33B9F3A9
:104CE0008A3019F08D3009F0A1C0011102C000E036
:104CF000EFCF1123E1F3E1E0F0E0EC0FFD1FE10F56
:104D0000F11D1082CE0101960E944E18CE0101962F
:104D10000E94502A082FCE0103960E94502AA82EE6
:104D2000CE0105960E94502ABA2CA82ECE010796D5
:104D30000E94502A982E102F180F1A0D1B0D81114A
:104D400020C08091600090916100A816B90620F4FF
:104D5000B0926100A0926000C5010E9404165E013D
:104D600039E0A30EB11C0915F1F1C5010E94502ACA
:104D7000882E0E943816180D939482E0A80EB11C5C
:104D8000F2CF91E089131FC0809161008F938091D1
:104D900060008F9383E592E09F938F9387E793E082
:104DA0009F938F930E94B41880916000909161004E
:104DB00090935B0280935A020F900F900F900F9088
:104DC0000F900F9072CE1F928F93DF92CF9287E752
:104DD00093E09F938F930E94B4180F900F900F90C1
:104DE0000F900F900F901195802F90E0880F991FD2
:104DF0000896E1E0F0E0EC0FFD1F8E0F9F1F0E9470
:104E0000502A181709F473CF1F928F931F921F9384
:104E1000FF92EF9287E793E09F938F930E94B418DD
:104E20000FB6F894DEBF0FBECDBF61CF002309F4EB
:104E300041CF133608F03ECFE1E0F0E0EC0FFD1F6C
:104E4000E10FF11D80831F5F35CF00915C0210914F
:104E50005D0269EF71E0C8010E94C438892B31F00E
:104E6000C8010E9476148093610210C08FE292E024
:104E70000E9476148111F4CF8FE292E090935D024C
:104E800080935C0260E08DE00E94490B809161029A
:104E90008823E9F060916102662339F040915C0259
:104EA00050915D0281E00E945A180E9416180091EC
:104EB0005C0210915D02C8010E9476148093610229
:104EC000833021F30E9429100E942910C9CF8091BC
:104ED0005D028F9380915C028F9382ED92E09F93AD
:104EE0008F9387E793E09F938F930E94B4180F905E
:104EF0000F900F900F900F900F90CE0101960E948F
:104F00007712082F89818093B0020093610210927A
:104F10005E0210915E028091B002181758F4E12FE2
:104F2000F0E0E65DFC4F80810E9438161F5F109311
:104F30005E02EFCF803291F40023F9F240915C02DF
:104F400050915D02602F82E00E945A180E9416184C
:104F500060E070E0CB010E94471302C00111EECF68
:104F6000809161028111C9CF86EA92E00E940A18FD
:104F700060E086E10E94490B82B5877F82BD85B5DE
:104F8000816085BD85B5897F85BD85B5886085BD16
:104F900085B58F7B85BD85B5806185BD85B58F7DE8
:104FA00085BD8091620283BD61E08FE00E94770B36
:104FB00089E892E00E940A1887E793E00E94A60C15
:104FC0001816190634F587E793E00E94840CF4CF95
:104FD0008630D0F485EB92E00E94310D10E000E0C5
:104FE00080915602909157020817190708F0BCCF1C
:104FF000E0915802F0915902E00FF11F84910E9454
:1050000038160F5F1F4FECCF8CEA92E00E94310DF3
:10501000ABCF61E070E080E090E00E94060C61E0C0
:1050200086E10E94490BCF58DF4F0FB6F894DEBFE0
:105030000FBECDBFDF91CF911F910F91FF90EF90E9
:10504000DF90CF90BF90AF909F908F900895109178
:10505000BD0284CB1F920F920FB60F9211244F9373
:105060005F936F937F938F939F934091CB02509167
:10507000CC026091CD027091CE028091CA029091D3
:10508000C902943019F51092C9029091C90290FD9D
:1050900021C08A598D3728F08D574F5F5F4F6F4F72
:1050A0007F4F8093CA024093CB025093CC0260930F
:1050B000CD027093CE029F918F917F916F915F91FE
:1050C0004F910F900FBE0F901F9018959F5F909378
:1050D000C902DBCF8959DECF1F920F920FB60F9214
:1050E00011242F933F934F935F936F937F938F93ED
:1050F0009F93AF93BF93EF93FF9387E793E00E9453
:10510000C40CFF91EF91BF91AF919F918F917F91CF
:105110006F915F914F913F912F910F900FBE0F9024
:105120001F9018951F920F920FB60F9211242F9374
:105130008F939F93EF93FF93E0918703F091880300
:105140008081E0918D03F0918E0382FD1BC09081E0
:10515000809190038F5F8F7720919103821741F0A8
:10516000E0919003F0E0E958FC4F958F8093900315
:10517000FF91EF919F918F912F910F900FBE0F9004
:105180001F9018958081F4CF1F920F920FB60F9247
:1051900011242F933F934F935F936F937F938F933C
:1051A0009F93AF93BF93EF93FF9381B1887F803636
:1051B00009F44AC0F0F5883209F4A3C018F580312B
:1051C00009F499C0B8F4882309F4FDC0883009F4C3
:1051D00092C0FF91EF91BF91AF919F918F917F917D
:1051E0006F915F914F913F912F910F900FBE0F9054
:1051F0001F901895883109F484C0803251F780934C
:10520000FF0214C0803409F4A0C040F48033B9F325
:105210008833F9F68093FF0285ECB6C0803509F437
:1052200085C0883509F499C0883499F60E946C0DC0
:10523000D0CF883909F48FC030F5883729F050F481
:10524000883611F0803729F683E0809301031092AD
:10525000A90254C0883809F47EC0803919F080381A
:1052600009F0B7CF8091A902803208F074C0E091B4
:10527000A90281E08E0F8093A90283B1F0E0E75785
:10528000FD4F80833BC0803B39F0E0F4803A09F465
:105290007FC0883A09F09DCF84E08093010310928B
:1052A000860210928502E0918302F09184020995B2
:1052B0008091850281110FC081E080938502109258
:1052C000630209C0803C09F4A7CF883C09F4A4CF4D
:1052D000883B09F07ECFE091860281E08E0F8093BB
:1052E0008602F0E0ED59FD4F808183B990918602EE
:1052F000809185022EC08091FA0283B985EC86BF29
:1053000068CF9091FC028091FB029817A8F58091DC
:10531000FD029091FE02E091FC0221E02E0F20930D
:10532000FC02E80FF92FF11D8081E7CF2091FD02EB
:105330003091FE02E091FC0281E08E0F8093FC022E
:1053400083B1E20FF32FF11D80839091FC028091D5
:10535000FB02981798F285E8D2CF2091FD02309198
:10536000FE02E091FC0281E08E0F8093FC0283B18B
:10537000E20FF32FF11D808380910003811156CF3E
:1053800081E08093F90284EA86BF1092010321CF65
:1053900085EC86BF109201038091A902803230F41F
:1053A000E091A902F0E0E757FD4F10826091A90259
:1053B00070E0E0918702F091880289E892E0099517
:1053C0001092A90206CF1092FF0230CFEF92FF9207
:1053D0000F931F93CF93DF930097C9F0EA018C01DD
:1053E0002097B1F1E090AA02F090AB02E114F10431
:1053F00079F1F80181918F010E94EE0EF1E0EF1A30
:10540000F108F092AB02E092AA022197E9CF411590
:1054100051056105710529F180914A0383FD07C09B
:1054200089E0440F551F661F771F8A95D1F788E5DD
:105430000E94330F81111DC08FEF0E94EE0E8EEF80
:105440000E94EE0E80E092E09093AB028093AA025D
:1054500090E080E0DF91CF911F910F91FF90EF904E
:105460000895DF91CF911F910F91FF90EF900C94D1
:10547000F70E81E090E0EECF982F80ED890F8A3013
:1054800070F08FEB890F863018F489EC890F08953E
:105490008FE9890F863010F489EAF8CF80E008950B
:1054A0000F931F93CF93DF938C01FC0180810E94A7
:1054B0003C2AC82FF80181810E943C2AF0E1CF9F4D
:1054C000E00111248C2BDF91CF911F910F91089552
:1054D000CF93DF93D82F63E00E942A19807CC82FD6
:1054E000C3608091CF028823B1F01F92CF931F92A7
:1054F000DF9385EF93E19F938F9387E793E09F93EB
:105500008F930E94B4188DB79EB708960FB6F89483
:105510009EBF0FBE8DBF4C2F63E08D2FDF91CF91CB
:105520000C94DC180F931F93CF93DF93C82F162F83
:105530008091CF02833018F182EC91E0662311F064
:105540008FEB91E01F9220E32F939F938F938C2FEB
:1055500090E08F5B9F4F9F938F9389EC93E19F9394
:105560008F9387E793E09F938F930E94B4188DB732
:105570009EB70A960FB6F8949EBF0FBE8DBF64E02B
:105580008C2F0E942A19482F446064E08C2F0E94BF
:10559000DC1863E08C2F0E942A19082F4FEB63E080
:1055A0008C2F0E94DC1862E08C2F0E942A19D82FC1
:1055B000482F406162E08C2F0E94DC1840EC1111F2
:1055C0004CE067E08C2F0E94DC184D2F62E08C2F9E
:1055D0000E94DC18402F63E08C2FDF91CF911F9148
:1055E0000F910C94DC180F931F93CF93DF93C82F68
:1055F000162FD42F8091CF028330E0F01F924F936B
:105600001F926F938C2F90E08F5B9F4F9F938F9390
:1056100083E691E19F938F9387E793E09F938F9326
:105620000E94B4188DB79EB70A960FB6F8949EBF25
:105630000FBE8DBF63E08C2F0E942A19082F4FEBFD
:1056400063E08C2F0E94DC1862E08C2F0E942A19E4
:10565000482F4F7311114064D111406862E08C2FC4
:105660000E94DC18402F63E08C2FDF91CF911F91B7
:105670000F910C94DC18E7E7F3E01382128288EEB6
:1056800093E0A0E0B0E084839583A683B78329E804
:1056900031E03183208320E430E03587248749E2FC
:1056A00050E0578746874BE250E0518B408B4AE2EF
:1056B00050E0538B428B358B248B2CE230E0378BC0
:1056C000268B118E128E138E148EE4E5F4E0138275
:1056D000128284839583A683B7838BE991E09183BB
:1056E0008083E6E6F4E01182108213821282158232
:1056F000148248E050E06BE372E0CF010E94371A59
:10570000E0E6F4E011821082138212821582148284
:105710004BE050E064E472E0CF010C94371ACF9371
:10572000DF9300D000D0CDB7DEB7789483B7836025
:1057300083BF83B7886483BF89B7816089BF82E0F4
:105740008EBD8EB581608EBD8FB581608FBD85B5F4
:10575000846085BD85B5806485BD87E886B91AB843
:105760000E94A91B57E7E52E53E0F52E83E00E9427
:10577000200B892B99F583E10E94200B892B09F0DE
:10578000BEC482E10E94200BD9B2D092C702909190
:105790007F00882309F483C09F3F51F090937E00DF
:1057A0008091C5029091C6029093C4028093C30277
:1057B000D0927F001092C6021092C50260E08EE087
:1057C0000E94490B60E080E00E94490B61E080E0AC
:1057D0000E94490B61E08EE00E94490B80917F009E
:1057E0008F3F09F053C08091BA028823E1F0809185
:1057F000C8028823C1F080916D008823A1F087E75B
:1058000093E00E94A60C181619066CF460E081E083
:105810000E94490B8091B40281608093B40210927F
:105820006D001092C8028091B902882379F10E941C
:10583000B30B0091AC021091AD022091AE023091F9
:10584000AF024B015C01801A910AA20AB30A2091AF
:10585000710030E0A8EEB3E00E945E36681579056D
:105860008A059B0598F460E081E00E94490B8091D5
:10587000B40282608093B4020E94B30B6093AC02C6
:105880007093AD028093AE029093AF020E94B20C6F
:10589000882309F46BCF81E08093C80267CF9C30E6
:1058A00009F487C108F051C0963009F40BC118F50E
:1058B000933009F4E8C078F4992309F4D7C0913003
:1058C00009F4DBC080917F008A3009F477CF8C30F7
:1058D00009F474CFD5C2943009F4E9C0953091F73A
:1058E0008091C202882309F4CBC280E20E94B50AEB
:1058F00090E080E0D2C0993009F4FAC080F497308B
:1059000009F4EBC09830F1F68091C202882309F4C3
:10591000B7C280E20E94B50A8DE090E0BEC09A3026
:1059200009F406C19B3071F6D092BE028091BF028D
:105930009091C0028115924008F034C12FE12D15DD
:1059400008F435C110927200BDCF923109F4AFC294
:1059500008F078C09F3009F4A0C280F49D3009F4AB
:105960006DC29E3009F0AECF8D2D81708093BA024A
:10597000D1FADD24D0F8D092B902A4CF903109F445
:1059800091C2913109F09ECF8091C202882309F41F
:1059900077C281E08093B70211E0D11010E010933C
:1059A000B60280E20E94B50A82E190E00E94100EE9
:1059B000110F012F0560802F90E00E94100E0E94B1
:1059C000B20A80E20E94B50A90E080E00E94100EC8
:1059D00088EF90E00E94100E0E94B20A80E20E94BE
:1059E000B50A81E090E00E94100E90E080E00E94F5
:1059F000100E0E94B20A80E20E94B50A8CE090E08C
:105A00000E94100E8FEF90E00E94100E0E94B20ACA
:105A100080E20E94B50A82E190E00E94100E612FA0
:105A2000616084E594E00E94E10D0E94B20A009357
:105A3000BD0280E20E94B50A82E190E00E94100E51
:105A4000602F2EC0923248F4903208F060C2933139
:105A500009F038CFD092700035CF943208F488C264
:105A60009E3709F02FCFD092CF022CCF60E0D0FE2E
:105A700061E08DE00E94490B25CF6D2D87E793E013
:105A80000E94E50C1FCF8091C202882309F4F8C15F
:105A900080E20E94B50A82E190E00E94100E6D2D16
:105AA00084E594E00E94E10D0E94B20A0BCF809140
:105AB000C202882309F4E4C180E20E94B50A83E1AE
:105AC00090E0EBCF8091C202882309F4D9C180E233
:105AD0000E94B50A81E090E0E0CF8091C202882365
