:100000000C94240A0C944E0A0C944E0A0C944E0A3A
:100010000C944E0A0C944E0A0C944E0A0C944E0A00
:100020000C944E0A0C944E0A0C944E0A0C944E0AF0
:100030000C944E0A0C944E0A0C944E0A0C944E0AE0
:100040000C944E0A0C944E0A0C94DA280C944E0A26
:100050000C9441290C9417290C944E0A0C944E0AC6
:100060000C944E0A0C944E0A0C9476290C944E0A69
:100070000C944E0A0C944E0A0C944E0A0C944E0AA0
:100080000C944E0A0C944E0A0C944E0A494F533A63
:10009000205254432073657420617420636F6D7027
:1000A000696C652074696D65202D204E6F773A204C
:1000B00000293F205B592F4E5D203E000A446F20EF
:1000C000796F752077616E74207365742052544384
:1000D00020617420494F5320636F6D70696C6520F7
:1000E00074696D65202800494F533A2052544320CB
:1000F000636C6F636B206661696C75726521004982
:100100004F533A20525443204453333233312074F6
:10011000656D70657261747572652073656E736F5D
:10012000723A202564C2B0430D0A00494F533A2069
:10013000466F756E6420525443204453333233313A
:10014000204D6F64756C65202800494F533A20524A
:10015000544320646174652F74696D652075706403
:1001600061746564202800202E2E2E646F6E652039
:1001700020202020200A005365636F6E6473202DB9
:100180003E20004D696E75746573202D3E20004839
:100190006F757273202D3E200020446179202D3E22
:1001A000200020202020202020202020202020008F
:1001B0004D6F6E7468202D3E200059656172202DB0
:1001C0003E200020000A507265737320542F552082
:1001D000746F20696E6372656D656E74202B3130AB
:1001E0002F2B31206F7220435220746F2061636384
:1001F000657074000A494F533A20525443206D6190
:100200006E75616C2073657474696E673A000D0ACF
:10021000507265737320435220746F20616363656D
:1002200070742C2045534320746F206578697420C6
:100230006F7220616E79206F74686572206B6579CA
:1002400020746F206368616E676500436865636B47
:1002500073756D206572726F723A2063616C633DD5
:100260003078253032582C20676F743D3078253037
:1002700032580D0A005265636F726420747970659C
:100280003A203078253032580D0A00537461727468
:1002900020616464726573733A2030782530345875
:1002A0000D0A0057616974696E67204845582069D6
:1002B0006E7075742073747265616D2E2E2E0D0A2A
:1002C00000494F533A205A38302069732072756EB6
:1002D0006E696E672066726F6D206E6F77002044C6
:1002E0006F6E6500486578204C6F616400494F531C
:1002F0003A204C6F6164696E6720626F6F74207082
:10030000726F6772616D2E2E2E00494F533A204C4A
:100310006F6164696E6720626F6F742070726F67BF
:1003200072616D20282573292E2E2E0044454255DA
:10033000473A20426F6F7453747241646472203D77
:10034000200044454255473A20466C61736820427C
:100350006F6F74496D61676553697A65203D200050
:1003600044454255473A20496E6A65637465642086
:100370004A50203078253034580D0A00496E746593
:100380006C2D486578204C6F616465720D0A00C35E
:1003900089FEC3ACFFDB01C9310000FD2100FE185E
:1003A0000EFE082819FE032806FD45CB78281ACD35
:1003B00042FF3E5CCDACFFCD42FFFD2101FEFD2B97
:1003C000FD45CB7820F1CD4DFFCD86FEFEFF28F90F
:1003D000FE08CC4BFFFD23FD7700CDACFFFE0D20CA
:1003E000C0FD2100FE3E00DD6FCB27CB2732B7FFDB
:1003F000FD23FD7E00FE0D28BEFE2E38F328EAFE0A
:100400003A28E8FE522847FE51CA41FF210000FD6C
:1004100022B5FFFD7E00EE30FE0A3808F620CE89B8
:10042000FEF93815CB27CB27CB27CB27060417CBD4
:1004300015CB1410F9FD2318DAFD453AB5FFB8CAFB
:10044000A0FE3AB7FFCB77281D7D121318A4DDE973
:10045000763E0DCDACFF3E0A1861FD2B3E20CDACA3
:10046000FF3E08C3ACFFCB7F2026545DE5DDE1BF36
:10047000C276FFCD42FFDD7CCD95FFDD7DCD95FFC2
:100480003E3ACDACFF3E20CDACFFDD7E00CD95FFEA
:10049000AF32B7FFDD7DBDDD7C9C30B0DD23DD7D7F
:1004A000E60718CCF5CB3FCB3FCB3FCB3FCDA2FFF0
:1004B000F1E60FF630FE3A3802CE07F53E01D301E1
:1004C000F1D300C9FFFFFF3100093EC9C31901E3A1
:1004D000EFBE2318613E0DF53E01D301C30101CDEE
:1004E000DE03E5C39A03577CBAC07DBBC900411A3D
:1004F000FE20C01318F94EF1CD6105C3740547EF16
:10050000D640D8201B13CDA20429DADB002323D543
:10051000EBCDE404E7DAA2052100FFCD2E05D1C919
:10052000FE213802D620FE1B3FD81321FE07078587
:100530006F3E008C67C92807C54E060009C11B1312
:1005400023E3C921000044CF270B1A6F131AFE279B
:10055000206A1304C9FE242822FE30D8FE3AD03E79
:10056000F0A4203E04C5444D292909291A13E60F99
:10057000856F3E008C67C11AF29200131AFE30D8C4
:10058000FE3A380AFE41D8E65FFE47D0D607E60FAE
:10059000C5473EF0A478C120090429292929B56F4F
:1005A00018D9D511ED00C3780554696E79424153CD
:1005B0004943320D484F573F0D4F4B0D574841545B
:1005C0003F0D534F5252590DF1D300FE0DC03E0A5C
:1005D000D73E0DC9DB013CC83DE67FFE03C01815C0
:1005E0003200FF11E200CD0C06210000224A082152
:1005F0000009223608310009CD0E0011F20097CD16
:100600000C06214201223808210000224008223A2B
:10061000083E3ECDA705D51180FFCD7C00EF7CB50F
:10062000C1CA16071B7C121B7D12C5D57993F5CD67
:10063000E705D52010D5CD0206C12A3608CDC10662
:100640006069223608C12A3608F1E5FE0328A6852E
:100650006F3E008C671100FFE7D2A105223608D15A
:10066000CDC906D1E1CDC10618A7CD70052100097D
:10067000223608CD7005C32E01CD70051100092169
:100680000000CDEF05DA2E01ED5338081313CD0D20
:1006900001215A07C31907DFD5CD7005CDE705C283
:1006A000DC00F118E3CD7C00CD7005CDE705DA2E36
:1006B00001CDAA06CD0D01CDEF0518F2AF323508F8
:1006C0000E08CF3B05CD0E0018C4CF0D03D718AFD1
:1006D000CF2304DF4D1819CF2511DF7DFE01CADBC2
:1006E00000FE11D2DB003235081805CD17061810B0
:1006F000CF2C05CD610518D8AF323508CD0E00F7E7
:10070000DFC5CD4A06C118E8CDF106DFD5CDE70536
:10071000C2DC002A3808E52A3A08E5ED62224008E2
:10072000ED733A08C3C101CD70052A3A087CB5CAF9
:100730007405F9E1223A08E1223808D1CDD606F74E
:10074000CDF106CD52052B22400821D307C319074E
:10075000DF22440821D907C31907DF18032101004C
:100760002242082A3808224608EB224808010A00DB
:100770002A4008EB6068393E097E23B628177E2B95
:10078000BA20F57EBB20F1EBED6239444D210A0021
:1007900019CDC906F92A4808EBF7FFDA7405223C9F
:1007A00008D5EB2A40087CB5CA7505E72809D1CDE4
:1007B000D6062A3C0818EA5E23562A4208E57CAA97
:1007C0007A19FA0203ACFA2303EB2A400873237266
:1007D0002A4408F1B7F21203EBCD4A05D1380D2AAD
:1007E00046082238082A4808EBF7E1D1CDD606F7AB
:1007F0002100003EDF7CB5C2C701CD0406D2C10195
:10080000C32E01ED7B3E08E1223808D1D1D5CD17AA
:10081000061805FF38361810D5FFDA74051A4F97F9
:1008200012D1CD0C06791B12D5EB2A3808E52146EA
:1008300003223808ED733E08D53E3ACDA705118056
:10084000FFDFD1EB732372E1223808D1F1CF2C0204
:1008500018BBF71AFE0D2808CD5205CF2C0218F848
:10086000F721E107C31907CDC903C06FC9CDC9037B
:10087000C86FC9CDC9036FC8D86CC9CDC903D06FC3
:10088000C9CDC903D86FC9CDC903C8D86FC9E1C9DB
:1008900079E1C1E5C54FCDDE03EBE3CD4A05D121BA
:1008A00000003E01C9CF2D04ED621821CF2B00CDF1
:1008B0002104CF2B15E5CD2104EBE37CAA7A19D1D5
:1008C000FAEB03ACF2EB03C3DB00CF2D09E5CD213E
:1008D00004CD350518E3CF7C97E5CD2104EBE37C0F
:1008E000B2677DB36FD118CACD8E04CF2A29E5CD6A
:1008F0008E040600CD3205E3CD3205EBE37CB7284C
:10090000067AB2EBC2DC007D210000B7282819DA94
:10091000DC003D20F9181FCF2F29E5CD8E040600FD
:10092000CD3205E3CD3205EBE3EB7AB3CADC00C58B
:10093000CD19056069C1D17CB7FADB0078B7FC3509
:100940000518A8CF262AE5CD8E04EBE37CA2677DAF
:10095000A36FD1189621AC07C31907FF38057E2372
:10096000666FC9CD7C0078B7C0CF2805DFCF2901DD
:10097000C9C37405CDA2047CB7FADB00B5CADB009D
:10098000D5E52A4A0811FD07E73803210000ED5F8D
:10099000AE5F23AE57224A08E1EBC5CD1905C1D1A0
:1009A00023C9CDA2041BCD320513C92A3608D5EBC5
:1009B0002100FFCD2E05D1C9CDA2046E2600C9CDE0
:1009C000A204C300FFCDA204E92100FFC9DFCF2CA0
:1009D0000DE5DF7DE177CF2C0423E518F5F7185BF3
:1009E000E56C2600CD2405417DE1670EFF0CCD2E80
:1009F0000530FA19C9B7ED52C97CB7F07CB5C87C8F
:100A0000F52F677D2F6F23F1ACF2DB0078EE804786
:100A1000C97CAAF25005EBE7C9FF381FE5CF3D1BA3
:100A2000DF444DE1712370C9CF3B04F1C3C701CF4F
:100A30000D04F1C3B801C9EFFE0DC8D511F500973B
:100A4000CD0C06D11AF597122A3808E57E23B6D1C7
:100A5000CA2E017EB7FA3C03CDAA061BF1123E3F17
:100A6000D797CD0C06C32E01D511FB0018D1D71195
:100A700080FFCD0D0128FBFE0D2810FE082817FE73
:100A80007F2813FE182820FE2038E7D71213FE0D0A
:100A9000C87BFEFF20DC7BFE8028D71B3E08D73EAC
:100AA00020D73E08D718CBCD0E003E5E18C07CB7CD
:100AB000FADB00110009E52A36082BE7E1D81A9580
:100AC00047131A9C38041BB0C913131AFE0D20FAE1
:100AD0001318E3471A13B8C8D7FE0D20F7C9CF2261
:100AE0000CCD0C06FE0DE1CAB8012323E9CF5F0649
:100AF0003E8DD7E118F4CF5E081AEE40D71A1318CE
:100B0000E3CF5C0CE51ACD3900DA74057EE118E21A
:100B1000C93A3508B72809FE10201006240D180B15
:100B20000600CD3205F26406062D0DD53A3508B71C
:100B300020023E0A5FAF57D50DC5CD190578B12803
:100B400007E32DE5606918F2C10D79B7FA8D063E0D
:100B500020D718F578B7C410005D3A3508B72002E1
:100B60003E0ABB7BD1C8FE0A3802C607C630D7187A
:100B7000E9AF3235081A6F131A67130E04CD4A060F
:100B80003E20D797CD0C06C9E7C81A02130318F800
:100B9000789220037993C81B2B1A7718F3C1E122AE
:100BA00040087CB52810E1224208E1224408E122F5
:100BB0004608E1224808C5C9C121A2F739D2A105DA
:100BC0002A40087CB528132A4808E52A4608E52A61
:100BD0004408E52A4208E52A4008E5C5C9214A0734
:100BE000EFD51A13FE2E281CFE613806FE7B30025C
:100BF000E65F23BE28EC3E7F1BBE380E23BE30FCD2
:100C000023D118DC3E7F23BE30FC7E236EE67F6757
:100C1000F1E94C49535481DE52554E81B24E45574D
:100C200081A34E45585482D34C4554839149468301
:100C30002D474F544F81D0474F5355428241524523
:100C40005455524E826052454D8329464F52827907
:100C5000494E50555483465052494E5481F53F8178
:100C6000F5505554850653544F5081AC48414C546F
:100C700087FC838C524E4484AD41425384DB47450C
:100C80005484F155535284F843414C4C84FE5349EB
:100C90005A4584E4544F5085028494544F82898588
:100CA0007453544550829382963D83A02383A63C7F
:100CB0003E83A63C3D83AC3C83B43E3D83BA3E8339
:100CC000C083C776767676494F533A204375727261
:100CD000656E74200044454255473A20626F6F7438
:100CE0004D6F64653A2025640D0A002564204B424F
:100CF000797465730D000D202D3E004368616E67A9
:100D000065642073706565642077696C6C2062652A
:100D100020656666656374697665206166746572D0
:100D2000206E657874207265626F6F74210D0A0AF7
:100D3000000D0A0A000D202D3E256C642020200D98
:100D4000000D0A0A00202020202020202020202022
:100D50002020202020200D000D202D3E003F566534
:100D600072626F73697479206C6576656C20256496
:100D70000D0A000D0A456E74657220796F75722038
:100D800063686F696365203E2000202025633A2058
:100D900052414D2073697A6520282564204B4279A1
:100DA000746573290D0A00202025633A2053657469
:100DB0002052544320446174652F54696D650D0AB7
:100DC00000202025633A20536574205365726961C1
:100DD0006C20506F72742053706565642028256CF8
:100DE00064290D0A00202025633A20546F67676C40
:100DF000652043502F4D204175746F6578656320E1
:100E0000282D3E202573290D0A00202025633A2035
:100E10004368616E6765205A383020436C6F636B9E
:100E200020537065656420282D3E202564204D48A0
:100E30007A290D0A00202025633A204865784C6FF6
:100E400061640D0A00202025633A20576F7A4D6FA8
:100E50006E0D0A00202025633A2054696E794261A4
:100E6000736963320D0A00202025633A20417574AE
:100E70006F626F6F740D0A00202025633A204C6F5B
:100E800061642F536574204F532000202025633A5E
:100E900020466F7274680D0A00202025633A2042B4
:100EA000617369630D0A00202025633A2045786943
:100EB0007420776974686F7574206368616E676504
:100EC000202827256327290D0A0A000D0A494F53B8
:100ED0003A2053656C65637420426F6F74204D6FC8
:100EE0006465206F722053797374656D2050617250
:100EF000616D65746572733A0D0A0A00494F533A81
:100F00002043502F4D204175746F657865632069CB
:100F1000732025730D0A00494F533A20466F756EB2
:100F2000642053494F41202F2053494F42204F7096
:100F300074696F6E00494F533A20466F756E642096
:100F4000475045204F7074696F6E002028435453FA
:100F50002C205254532075736564206173204241E4
:100F60004E4B322C2042414E4B33207369676E61E9
:100F70006C2C2043453220696E7665727465642955
:100F80000020284354532075736564206173204208
:100F9000414E4B32207369676E616C2900494F5393
:100FA0003A202564204B42797465732052414D00EC
:100FB000494F533A205A383020636C6F636B20736B
:100FC0006574206174202564204D487A0D0A00491B
:100FD0004F533A20466F756E6420657874656E6471
:100FE00065642073657269616C2052782062756651
:100FF00066657220282564206279746573290D0A5C
:1010000000322E302E323630323035202D204665DB
:101010006220203520323032362031393A35383AA4
:101020003438000D0A0A5A38302D4D4243322D4EC5
:1010300047202D2041303430363138202D20415486
:101040006D6567613132383470202D202564204D64
:10105000487A0D0A00494F533A20436865636B2074
:10106000534420616E642070726573732061206B3D
:10107000657920746F207265706561740D0A0020B7
:101080002D2046696C653A2000206F70657261748E
:10109000696F6E0052454144004F50454E004D4F20
:1010A000554E5400206F6E2000554E4B4E4F574EFC
:1010B000004E4F5F46494C4553595354454D004EE1
:1010C0004F545F454E41424C4544004E4F545F4F94
:1010D00050454E4544004E4F5F46494C45004E4FEB
:1010E000545F5245414459004449534B5F45525265
:1010F000000D0A494F533A205344206572726F72B3
:1011000020003F3F53494F25633A20416374756186
:101110006C2062617564726174653A2025640D0A01
:10112000003F3F53494F25633A2043616C63756C20
:10113000617465642064697669736F723A2025640E
:101140000D0A003F3F53494F25633A2044657369B8
:101150007265642062617564726174653A20256409
:101160000D0A003F3F3F53494F25633A20536574B2
:101170004175746F48616E647368616B65202564A6
:101180002C2025640D0A003F3F3F3F3F53494F2528
:10119000633A2052656164526567697374657220B1
:1011A0003078253032582028257329207265733D08
:1011B0003078253032580D0A003F3F3F3F3F5349BA
:1011C0004F25633A20577269746552656769737475
:1011D00065722030782530325820282573292076F2
:1011E000616C3D3078253032580D0A003F3F3F5347
:1011F000494F25633A2057726974654279746520B6
:101200003078253032582025630D0A003F3F3F5388
:10121000494F25633A2052656164427974652030F4
:1012200078253032582025630D0A003F3F3F3F5359
:10123000494F25633A205278204649464F204C6555
:1012400076656C3A2025640D0A003F3F3F3F5349C5
:101250004F25633A205478204649464F2053706109
:1012600063653A2025640D0A00202D2069727153B0
:101270007461747573203D200044454255473A20FF
:10128000494E542041434B206379636C6500202D07
:1012900020696F44617461203D20004445425547F8
:1012A0003A2053595349525100202D2069727153ED
:1012B0007461747573203D200044454255473A20BF
:1012C0005345522052580072657365727665640DFD
:1012D0000A006175746F205254532F4354530D0A02
:1012E000006175746F20586F6E2F586F66662028E6
:1012F0004E5949290D0A0064697361626C650D0AD3
:1013000000202D2068616E647368616B653A20254A
:10131000642000202D2062617564726174653A203A
:10132000256C640D0A003F3F53494F423A003F3F4E
:1013300053494F413A002073657420636F6E747295
:101340006F6C3A203078253032580000002100249C
:101350000027002A0000002200250028002B0000A2
:1013600000200023002600290002020202020202DD
:101370000204040404040404040303030303030336
:1013800003010101010101010101020408102040D3
:10139000800102040810204080010204081020404F
:1013A0008001020408102040800000000203000AAF
:1013B0000B00000000050409080000000000000008
:1013C0000000000000000000003F3F3F53494F2550
:1013D000633A204649464F5365745472696767659E
:1013E000724C6576656C2825735F4649464F3A20F6
:1013F00026640D0A003F53494F25633A204C43525F
:101400002052656769737465723A203078253032EE
:10141000780D0A000D0A0A494F533A20426175645B
:10142000207265636F7665727920646F6E65202D1A
:1014300020506C65617365207265626F6F74206EF9
:101440006F772100442B523311241FBECFEFD0E41D
:10145000DEBFCDBF25E0A4EFB2E001C01D92A439EC
:10146000B207E1F712E0A0E0B1E0EEE2F2E700E05F
:101470000BBF02C007900D92A43FB107D9F71AE045
:10148000C3E2DAE004C02197FE010E94BE36C232F8
:10149000D107C9F70E949A2B0C940A390C940000CA
:1014A000FB01A485B585ED91FC9111970190F08128
:1014B000E02D682FCD01099590E080E00895282F58
:1014C0009091C90381E0913208F042C08091A50358
:1014D0008111FCCF8091C80332E03093A5032093A3
:1014E000A4032FEF2093A30328EA33E03093A20351
:1014F0002093A1031092A00390939F0310929E0348
:1015000090919E03880F892B80939E0380919D0369
:10151000813029F510929D0380919E038093BB003A
:101520008091BC0083FDF8CF85EC8093BC00809156
:10153000A5038230E1F38091A3038F3F91F0809166
:10154000A303803281F08091A303803371F084E0A3
:101550001092A7031092C9031092A603089585EE76
:10156000E4CF80E0F5CF82E0F3CF83E0F1CF81E0FC
:101570000C945F0A91E09093A6038093C8031092A5
:10158000A7031092C903089590919903809198033D
:101590002FEF3FEF981748F4E92FF0E0E858FC4FA1
:1015A000208130E09F5F90939903C9010895909145
:1015B0009903809198032FEF3FEF981748F4E92F94
:1015C000F0E0E858FC4F208130E09F5F9093990352
:1015D000C9010895209188053091890582179307E4
:1015E00060F420918405309185052115310529F09D
:1015F000280F391FF9018081089580E0089587E060
:1016000090E00197F1F7089582508A3088F5E82F2D
:10161000F0E0E35FF44F0C94BE36350B390B170B3B
:101620001D0B380B380B210B270B2B0B310B80912B
:1016300080008F77809380000895809180008F7D57
:10164000F9CF8091B0008F778093B000089580919A
:10165000B0008F7DF9CF809190008F7780939000BC
:101660000895809190008F7DF9CF84B58F7784BDE8
:10167000089584B58F7DFBCFCF93DF93282F30E083
:10168000F901E755FC4E8491F901E757FC4ED491DE
:10169000F901E759FC4EC491CC23A1F081110E94BD
:1016A000040BEC2FF0E0EE0FFF1FE15AFC4EA5916A
:1016B000B491EC91ED2381E090E009F480E0DF91BA
:1016C000CF91089580E090E0FACF1F93CF93DF93FE
:1016D000282F30E0F901E755FC4E8491F901E757D6
:1016E000FC4ED491F901E759FC4EC491CC23A9F0EA
:1016F000162F81110E94040BEC2FF0E0EE0FFF1F5C
:10170000EB5AFC4EA591B4918FB7F894EC9111115E
:1017100008C0D095DE23DC938FBFDF91CF911F915E
:101720000895DE2BF8CFCF93DF9390E0FC01E757CD
:10173000FC4E249187599C4EFC0184918823C9F06A
:1017400090E0880F991FFC01E55BFC4EA591B491D8
:10175000FC01EB5AFC4EC591D49161110DC09FB7AD
:10176000F8948C91209582238C9388812823288358
:101770009FBFDF91CF910895623051F49FB7F894E5
:101780003C91822F809583238C93E8812E2BEFCF81
:101790008FB7F894EC912E2B2C938FBFEACFCF927A
:1017A000DF92EF92FF926FB7F89480916F03909160
:1017B0007003A0917103B091720350916E0326B52E
:1017C00035B3432F417030FF04C041E02F3F09F48F
:1017D00040E06FBF6C017D0137E0CC0CDD1CEE1CDE
:1017E000FF1C3A95D1F7C50ED11CE11CF11CC81A9B
:1017F000D90AEA0AFB0A880F991FAA1FBB1FC81A39
:10180000D90AEA0AFB0A63E0CC0CDD1CEE1CFF1CC3
:101810006A95D1F730E0AAEAB2E00E946D36672FF0
:10182000782F892F99276C0D7D1D8E1D9F1D4423B8
:1018300021F066557D4F8F4F9F4FFF90EF90DF90C7
:10184000CF9008958F929F92AF92BF92CF92DF92E6
:10185000EF92FF924B015C010E94CF0B6B017C0168
:101860000E94CF0B6C197D098E099F09683E734059
:1018700081059105A8F321E0821A9108A108B10819
:1018800088EEC80E83E0D81EE11CF11C811491047F
:10189000A104B10429F7FF90EF90DF90CF90BF90A3
:1018A000AF909F908F9008952FB7F89460916F0339
:1018B0007091700380917103909172032FBF08950E
:1018C000AF92BF92CF92DF92EF92FF920F931F934E
:1018D000CF93DF936C017B018B01040F151FEB018C
:1018E0005E01AE18BF08C017D10759F06991D60143
:1018F000ED91FC910190F081E02DC6010995892BB5
:1019000079F7C501DF91CF911F910F91FF90EF9073
:10191000DF90CF90BF90AF900895FC01538D448D20
:10192000252F30E0842F90E0821B930B541710F08A
:10193000CF96089501970895FC01918D828D981797
:1019400059F0A28DAE0FBF2FB11D5D968C91928D77
:101950009F5F928F90E008958FEF9FEF0895FC01B5
:10196000918D828D981731F0828DE80FF11D858D54
:1019700090E008958FEF9FEF0895FC01918D828D87
:10198000981B892F90E008958BE194E00E94BD0C94
:1019900021E0892B09F420E0822F0895FC01A48D19
:1019A000A80FB92FB11DA35EBE4F2C91848D90E07E
:1019B00001968F739927848FA689B7892C93A08964
:1019C000B1898C91837080648C93938D848D9813EE
:1019D00006C00288F389E02D80818F7D8083089581
:1019E000EF92FF920F931F93CF93DF93EC0181E06F
:1019F000888F9B8D8C8D98131AC0E889F989808116
:101A000085FF15C09FB7F894EE89FF896083E88948
:101A1000F98980818370806480839FBF81E090E03A
:101A2000DF91CF911F910F91FF90EF900895F62EC7
:101A30000B8D10E00F5F1F4F0F731127E02E8C8D61
:101A40008E110CC00FB607FCFACFE889F9898081A6
:101A500085FFF5CFCE010E94CE0CF1CFEB8DEC0FC0
:101A6000FD2FF11DE35EFE4FF0829FB7F8940B8FC0
:101A7000EA89FB8980818062CFCF0F931F93CF9338
:101A8000DF938C01D0E0C0E0F801EC0FFD1F649102
:101A9000662341F08BE194E00E94F00C892B11F059
:101AA0002196F2CFCE01DF91CF911F910F91089532
:101AB000CF93DF93EC01888D8823B9F0AA89BB8985
:101AC000E889F9898C9185FD03C0808186FD0DC070
:101AD0000FB607FCF7CF8C9185FFF2CF808185FF91
:101AE000EDCFCE010E94CE0CE9CFDF91CF910895CA
:101AF00081E08093540308950E94C40C882319F058
:101B000081E08093540380E090E0892B49F080E0ED
:101B100090E0892B29F00E94000081110C940000B4
:101B2000089585ED8093BC008091BC0084FDFCCFBE
:101B30001092A503089520912903260F3327331F00
:101B400021323105ECF42091A503FC0190E080E006
:101B5000243069F082E00895A09129032191AC011D
:101B6000495F5C4FA40FB52FB11D2C9301968617CA
:101B700098F380912903680F6093290380E008950A
:101B800081E00895089508950895E0919903809162
:101B90009803E81730F4F0E0E858FC4F808190E0BB
:101BA00008958FEF9FEF0895809198039091990386
:101BB000891B990B0895CF92DF92EF92FF920F93BA
:101BC0001F93CF93DF937C01CB018A012091A60361
:101BD000222389F0EB016B01C40ED51ECC15DD0567
:101BE00069F06991D701ED91FC910190F081E02DB0
:101BF000C7010995F3CF642F0E949B0DC801DF91A7
:101C0000CF911F910F91FF90EF90DF90CF900895AB
:101C1000CF93DF931F92CDB7DEB769832091A603E0
:101C20002223F9F02091C903203258F021E030E05E
:101C3000FC013383228390E080E00F90DF91CF910D
:101C400008958091A703E82FF0E0E855FC4F9981B3
:101C500090838F5F8093A7038093C90381E090E016
:101C6000ECCF61E0CE0101960E949B0DF7CF682F6B
:101C700088E795E00C94080E0F931F93CF93DF93A2
:101C8000082F162FD42F88E60E94BA0A90E080E031
:101C90000E94370E80919C03CAE06C2F0E947C3614
:101CA0008295807F682F690F88E795E00E94080E73
:101CB00080919B036C2F0E947C368295807F682FD9
:101CC000690F88E795E00E94080E80919A036C2FB7
:101CD0000E947C368295807F682F690F88E795E0A7
:101CE0000E94080E81E090E00E94370E802F6C2F3A
:101CF0000E947C368295807F682F690F88E795E087
:101D00000E94080E812F6C2F0E947C368295807F66
:101D1000682F690F88E795E00E94080E8D2F6C2FC1
:101D20000E947C368295807F682F690F88E795E056
:101D30000E94080EDF91CF911F910F910C94B70A6A
:101D400090E080E008950F931F93E0911904F091C3
:101D50001A049B01AC0122503109410951098681C5
:101D60009781A085B1850297A109B1092817390784
:101D70004A075B0778F4A281B0E00E9462360289CC
:101D8000138924893589600F711F821F931F1F914A
:101D90000F91089560E070E0CB01F9CF0F931F938E
:101DA000CF93DF93EC01E0911904F0911A041982AA
:101DB00018826C817D818E819F81613071058105E2
:101DC000910581F1068117812085318560177107A2
:101DD0008207930738F5611571058105910539F47E
:101DE0002081233021F466857785808991896887F1
:101DF00079878A879B87611571058105910569F04F
:101E00000E94A30E6C877D878E879F8790E080E07D
:101E1000DF91CF911F910F91089566857785808915
:101E20009189F0CF81E090E0F3CF8EBD0DB407FE35
:101E3000FDCF08958FEF0E94150F8EB508950F9373
:101E40001F93CF93DF93C0914E03D0914F032197FF
:101E5000CD3F8FEFD80721F080E00E94150FF7CF1C
:101E60000E941A0F8F71853079F0D1E0C0E061E0F7
:101E700084E00E94650B0E941A0F8D2F9C2FDF912A
:101E8000CF911F910F91089508E813E1C8E5D2E0C2
:101E90000E941A0F8F3F49F00115110531F3CE0151
:101EA0000197F1F701501109F3CFD1E0C0E0012B08
:101EB000F1F2D0E0DCCFFF920F931F93CF93DF932B
:101EC000C82FD42F152F062FF72E8091EE038111E6
:101ED0003FC083E58CBD1DBCC7FF09C040E050E09A
:101EE000BA0187E70E945B0F823060F5CF7761E02F
:101EF00084E00E94650B0E941A0F60E084E00E945B
:101F0000650B0E941A0F8C2F0E94150F8F2D0E94B7
:101F1000150F802F0E94150F812F0E94150F8D2FF6
:101F20000E94150F85E9C03421F087E8C83409F014
:101F300081E00E94150FCAE00E941A0F87FF02C0BD
:101F4000C150D1F7DF91CF911F910F91FF9008956C
:101F500080E58CBD81E08DBDBFCFCF92DF92EF9247
:101F6000FF920F931F93CF93DF937C0169018091C0
:101F7000EE0383FD07C089E0440F551F661F771FDE
:101F80008A95D1F781E50E945B0F811108C0C0E4FA
:101F9000DCE90E941A0F8F3F29F42197D1F7C1E0A5
:101FA000D0E022C08E3FD9F7C2E0D2E0C01BD10BF7
:101FB000CC19DD0981E0C81AD10818F00E941A0F67
:101FC000F9CFE114F10401F10E0D1F1D0E941A0F4B
:101FD000F70181937F010E171F07C1F70E941A0FA7
:101FE0002197E1F7D0E0C0E061E084E00E94650B5A
:101FF0000E941A0FCE01DF91CF911F910F91FF9098
:10200000EF90DF90CF9008950E941A0F01501109B0
:10201000D9F7E4CFCF92DF92EF92FF920F931F9305
:10202000CF93DF93EC016A017B0102E010E02EEF19
:1020300031E00E94AD0F892B31F58881998185357A
:102040009A4A59F526E330E0B701A601CE010E9475
:10205000AD0F892B29F4888199818634914489F0C8
:1020600002E010E022E530E0B701A601CE010E94B7
:10207000AD0F892BA1F481E02881398126343144C8
:1020800019F480E001C083E0DF91CF911F910F919F
:10209000FF90EF90DF90CF90089582E0F5CF81E040
:1020A000F3CF4F925F926F927F928F929F92AF92F7
:1020B000BF92CF92DF92EF92FF920F931F93CF9335
:1020C000DF93CDB7DEB7A4970FB6F894DEBF0FBE8F
:1020D000CDBF10921A04109219048091EE03882348
:1020E00039F084E00E943C0B892B11F40E941F0FF1
:1020F00061E084E00E94650B61E084E00E94930B44
:1021000061E085E00E94930B61E087E00E94930B01
:1021100061E084E00E94930B83E58CBD1DBC61E00F
:1021200084E00E94650B1AE00E941A0F1150E1F73B
:1021300040E050E0BA0180E40E945B0F182F81302C
:1021400009F441C010E01093EE0361E084E00E94C6
:10215000650B0E941A0F82E090E01123E9F040E045
:1021600050E0BA01CE0101960E940A10C12CD12C78
:102170007601813009F096C000E110E02EEB31E0ED
:1021800040E050E0BA01CE0101960E94AD0F892BCC
:1021900009F478C081E090E0A4960FB6F894DEBF11
:1021A0000FBECDBFDF91CF911F910F91FF90EF90A8
:1021B000DF90CF90BF90AF909F908F907F906F9067
:1021C0005F904F9008954AEA51E060E070E088E443
:1021D0000E945B0F813091F5CE0101967C016E016A
:1021E00095E0C90ED11C87010E941A0FF801819356
:1021F0008F01CE16DF06C1F78B81813009F0A2CFA7
:102200008C818A3A09F09ECF80E1C82E87E2D82ED1
:1022100098E5A92E92E0B92E40E050E060E070E42D
:1022200089EE0E945B0F882309F4C9C0C50101979C
:10223000F1F7F1E0CF1AD10879F784CF40E050E010
:10224000BA0189EE0E945B0F01E4823010F412E0C3
:1022500009EEA0E1EA2EA7E2FA2EB8E5CB2EB2E015
:10226000DB2E40E050E0BA01802F0E945B0F8823F4
:1022700009F4BBC0C6010197F1F7F1E0EF1AF108CC
:1022800081F760CF8D81811103C086E090E084CF1B
:10229000C984DA84EB84FC84B701A601CE010196DF
:1022A0000E940A10833009F475CF8111EECF04E249
:1022B00010E02DE030E0B701A601CE0101960E94AA
:1022C000AD0F892B09F066CF2A853B8550E040E0B1
:1022D000211531054105510521F4288D398D4A8D8F
:1022E0005B8DAC81B0E00E9462364B015C014A819B
:1022F0005B8170E060E0C40ED51EE61EF71EC09242
:10230000F903D092FA03E092FB03F092FC03E98117
:10231000E093F1038D819E819093F4038093F30306
:102320000F81188530E020E00115110521053105E8
:1023300021F40C891D892E893F89F4E096958795B3
:10234000FA95E1F72C01712C612C041B150B260B5F
:10235000370BC901B801681979098A099B09641901
:102360007509860997092E2F30E050E040E00E9461
:102370009C36DA01C9010296A11DB11D8093F503B7
:102380009093F603A093F703B093F803265F3F40C2
:10239000410951092F3F3F4E4105510588F1873FC3
:1023A0009F4FA105B10588F570CF82E08093EF03C0
:1023B000D501C4018C0D9D1DAE1DBF1D2DC040E07B
:1023C00050E0BA018AE70E945B0F8111BBCE0E94E8
:1023D0001A0FF70181937F010E171F07C1F789813B
:1023E0001CE086FDB0CE14E0AECE40E052E060E0EE
:1023F00070E080E50E945B0F882309F4A4CEA2CE92
:10240000873F9F4FA105B10580F283E08093EF03E2
:1024100088A199A1AAA1BBA18093FD039093FE037B
:10242000A093FF03B0930004C40CD51CE61CF71C5A
:102430008C0C9D1CAE1CBF1C809201049092020467
:10244000A0920304B09204041092F0038FEE93E084
:1024500090931A048093190490E080E09DCE0F932E
:102460001F93CF93DF9300D000D0CDB7DEB762309B
:1024700071058105910528F461E070E080E090E04D
:1024800055C0E0911904F0911A0406811781208546
:102490003185601771078207930770F7AB01BC01A4
:1024A0008081823031F1833039F79A012F773327D9
:1024B000220F331F220F331F97E0769567955795AC
:1024C00047959A95D1F782859385A485B585480F60
:1024D000591F6A1F7B1F04E010E0CE0101960E9485
:1024E000AD0F892B49F669817A818B819C819F7020
:1024F0001DC09A013327220F331F452F562F672FF8
:10250000772782859385A485B585480F591F6A1F53
:102510007B1F02E010E0CE0101960E94AD0F892BD7
:1025200009F0AACF69817A8190E080E00F900F9046
:102530000F900F90DF91CF911F910F9108956F929F
:102540007F928F929F92AF92BF92CF92DF92EF9243
:10255000FF920F931F93CF93DF93C0911904D091F3
:102560001A04FC0111821082209709F4AFC029815E
:1025700020FFAFC00A8D1B8D2C8D3D8D4E895F894C
:10258000688D798D68017901C41AD50AE60AF70ABF
:10259000B701A601403251056105710520F040E206
:1025A00050E060E070E05C017A013EEC832E33E0A5
:1025B000932E612C42E0742EE114F10409F48CC0D6
:1025C0008E899F89A88DB98DAC01BD015170662798
:1025D0007727452B462B472B09F04AC0DA80DA943F
:1025E000AC01BD0129E076956795579547952A95E9
:1025F000D1F7D42251F5892B8A2B8B2BD9F46E8DF0
:102600007F8D88A199A16230710581059105C8F47B
:10261000198281E090E0DF91CF911F910F91FF909F
:10262000EF90DF90CF90BF90AF909F908F907F9072
:102630006F9008956AA17BA18CA19DA10E942F1289
:10264000E2CF6AA37BA38CA39DA36AA17BA18CA1EB
:102650009DA10E94A30E6115710581059105C1F22E
:102660006D0D711D811D911D6EA37FA388A799A774
:102670002E893F893170C301821B930B67018E1530
:102680009F0508F46C014EA15FA168A579A586019C
:10269000C4010E94AD0F892B09F0BACF8E899F89A2
:1026A000A88DB98D8C0D9D1DA11DB11D8E8B9F8B8D
:1026B000A88FB98F8C0C9D1CEC18FD08F50180814A
:1026C0009181C80ED91ED182C08276CF85E090E07C
:1026D000A2CF84E090E09FCF90E080E09CCF4F922B
:1026E0005F926F927F928F929F92AF92BF92CF92A2
:1026F000DF92EF92FF92CF93DF9300D000D000D013
:10270000CDB7DEB72091190430911A043E832D8392
:102710002115310509F40CC1D90111962C9111979D
:1027200020FF09C15A96CD90DD90ED90FC905D9709
:102730006C157D058E059F0510F46B017C01ED8104
:10274000FE8146885788608C718C168A178A108E95
:10275000118EC114D104E104F10409F4E6C08280B1
:10276000912CB12CA12C39E0880C991CAA1CBB1C03
:102770003A95D1F7411451046104710409F470C011
:10278000B1E04B1A510861087108C701B6016150E8
:10279000710981099109A50194010E949C36298340
:1027A0003A834B835C83C301B201A50194010E946B
:1027B0009C3689819A81AB81BC8182179307A407DB
:1027C000B50708F44DC088279927DC0188199909B5
:1027D000AA09BB0984219521A621B721ED81FE819B
:1027E000868B978BA08FB18FC81AD90AEA0AFB0A89
:1027F00062A173A184A195A18C149D04AE04BF04B1
:1028000008F058C00E942F126230710581059105B1
:1028100068F0AD81BE8116964D905D906D907C9074
:102820001997641575058605970540F1ED81FE81C0
:10283000118281E090E026960FB6F894DEBF0FBEBD
:10284000CDBFDF91CF91FF90EF90DF90CF90BF9001
:10285000AF909F908F907F906F905F904F90089572
:10286000AD81BE815E966D917D918D919C91919788
:10287000FD0162A373A384A395A3BECFAD81BE81E6
:1028800092966D937D938D939C93959756964D90CC
:102890005D906D907C905997480C591C6A1C7B1C6C
:1028A000FD01468A578A608E718EC818D908EA08D9
:1028B000FB08A2CFAD81BE8156968D909D90AD90C4
:1028C000BC905997C80CD91CEA1CFB1CFD01C68A98
:1028D000D78AE08EF18E0E94A30EAB01BC01411598
:1028E00051056105710529F4AD81BE8111961C92D7
:1028F000A0CFED81FE8182818150990B092E000CC1
:10290000AA0BBB0B29E0F694E794D794C7942A95B9
:10291000D1F78C219D21AE21BF21480F591F6A1F7D
:102920007B1F46A357A360A771A790E080E083CFE9
:1029300085E090E080CF84E090E07DCF4F925F9281
:102940006F927F92BF92CF92DF92EF92FF920F939E
:102950001F93CF93DF93CDB7DEB7EC970FB6F89404
:10296000DEBF0FBECDBFE0901904F0901A04E11451
:10297000F10409F404C1F70111829E012F5C3F4F5D
:102980003CA32BA39C016901F90180812F5F3F4F7C
:102990008032C9F38F3209F469011DA21EA21FA261
:1029A00018A6F6018081A0E2BA2E803208F0D4C0C9
:1029B000CE0181960E94CE0E1982009709F407C1BC
:1029C000EC960FB6F894DEBF0FBECDBFDF91CF916E
:1029D0001F910F91FF90EF90DF90CF90BF907F906D
:1029E0006F905F904F90089520E0E0E088E0D1C0C4
:1029F000C30ED11C81E0913208F080E01B968C93CD
:102A0000CE0181960E94CE0E0097D1F629A13AA15F
:102A10002F703327F5E0220F331FFA95E1F74DA50C
:102A20005EA56FA578A900E210E0CE0101960E9494
:102A3000AD0F892B19F081E090E0C2CF898181111F
:102A400003C083E090E0BCCF8C8583FD13C00BA155
:102A50001CA19E012F5F3F4FD801B801655F7F4FDA
:102A60006A177B0709F4AEC0F90141919F019D915E
:102A70004917B1F309A11AA10F5F1F4F11F38DA5DB
:102A80009EA5AFA5B8A90097A105B105D1F29801FF
:102A90002F703327232BB9F40196A11DB11D8DA7EB
:102AA0009EA7AFA7B8AB69A57AA58BA59CA5F70192
:102AB000611571058105910549F484819581081797
:102AC000190708F0BECF1AA309A3A0CF2281E22FD5
:102AD000E150FF0BAF019801E4E036952795EA95A8
:102AE000E1F724233523232B71F70E942F12623044
:102AF00071058105910508F49ECFF7014680578046
:102B000060847184641575058605970508F099CF72
:102B100069A77AA78BA79CA70E94A30E6DA77EA783
:102B20008FA798ABD0CF84FF8CCFF7018081833003
:102B3000F1F48D899E89B0E0A0E0DC019927882717
:102B40004B8D5C8D70E060E0842B952BA62BB72B12
:102B50008DA39EA3AFA3B8A7ABA1BCA1FD01CD01DE
:102B60000B968E179F0709F43FCFB192FACF80E002
:102B700090E0DC01E5CF80E090E0DC013DC085E045
:102B800090E01ECF883009F033CF9BE0282FE32F51
:102B9000892F31E03E0FEC0DFD2DF11D908191321A
:102BA00008F426CF9F3209F423CF9E3259F3281719
:102BB00008F01ECFFD01E20FF11D9083982F81E0F8
:102BC000820FE4CFF8019385992309F4ACCF898172
:102BD000882309F436CF8C8584FD33CFE091190426
:102BE000F0911A048081833031F68D899E89B0E09E
:102BF000A0E0DC01992788274B8D5C8D70E060E0B8
:102C0000842B952BA62BB72BF701868F978FA0A32C
:102C1000B1A38D8D9E8DAF8DB8A1828F938FA48F20
:102C2000B58F168A178A108E118E81E0818390E00D
:102C300080E0C6CE982F80ED890F8A3070F08FEB40
:102C4000890F863018F489EC890F08958FE9890F70
:102C5000863010F489EAF8CF80E008950F931F932F
:102C6000CF93DF938C01FC0180810E941A16C82F3C
:102C7000F80181810E941A16F0E1CF9FE001112432
:102C80008C2BDF91CF911F910F910895CF93DF93FC
:102C9000D82FC0E061E08FE00E94650B60E08FE01C
:102CA0000E94650BCF5FDC13F5CFDF91CF910895C4
:102CB0001F93CF93DF93182FD92F81E00E944616E0
:102CC00061E080916003823009F060E082E00E9460
:102CD000650BCFEFC1B981E282B982E00E9446164E
:102CE00011B8C2B982E00E944616C1B912B983E098
:102CF0000E944616D2B982E00E94461611B8C2B9A7
:102D000061E080916003823009F460E082E0DF914D
:102D1000CF911F910C94650BCF93DF93D82F81E057
:102D20000E94461661E080916003823009F060E005
:102D300082E00E94650BCFEFC1B986E382B982E0E1
:102D40000E94461611B8C2B982E00E944616C1B967
:102D5000D2B982E00E94461611B8C2B9C091600390
:102D600061E0C23009F460E082E00E94650B83E01C
:102D70000E94461681E00E94461661E0C23009F0CA
:102D800060E082E00E94650BCFEFC1B983E282B9B7
:102D900082E00E94461611B8C2B961E080916003DA
:102DA000823009F460E082E00E94650B83E0DF91ED
:102DB000CF910C944616282F81E0FB019191BF0121
:102DC000992321F0921719F08F5FF7CF80E00895D3
:102DD000AC018091A5038111FCCF962F81E08093F7
:102DE000A5038093A4032FEF2093A30328E733E0E8
:102DF0003093A2032093A1031092A0032FEF260F7C
:102E000020939F0380939E0320919E03440F551FA0
:102E1000822F842B80939E0380919D038130E9F45F
:102E200010929D0380919E038093BB008091BC0013
:102E300083FDF8CF85EC8093BC008091A5038130A1
:102E4000E1F38091A003861710F49091A0031092F3
:102E5000990390939803892F089585EEECCFCF9333
:102E600088E60E94BA0A90E080E00E94370E0E9435
:102E7000B70A62E170E088E690E00E94E8160E94DE
:102E8000D70A982F92959770CAE08F709C9F800DFB
:102E9000112480939C030E94D70A982F92959F70CB
:102EA0008F709C9F800D112480939B030E94D70AF2
:102EB000982F929593708F709C9F800D1124809312
:102EC0009A030E94D70A0E94D70A982F92959F7062
:102ED0008F709C9F800D1124809377030E94D70AE6
:102EE000982F92959F708F709C9F800D11248093D6
:102EF00076030E94D70A982F92959F708F709C9F9F
:102F0000800D1124809375030E94D70AC150E1F708
:102F10000E94D70A80937403CF910895FC01019019
:102F20000020E9F73197AF01481B590BBC018BE139
:102F300094E00C94600C8F929F92AF92BF920F938B
:102F40001F93CF93DF93CDB7DEB7A1970FB6F89459
:102F5000DEBF0FBECDBF19A2423008F44AE08E0199
:102F60000F5D1F4F842E912CB12CA12CA501940133
:102F70000E949C36E62FB901CA01EA30F4F4E05D04
:102F8000D801EE938D01232B242B252B79F790E08C
:102F900080E0109719F0CD010E948E17A1960FB610
:102FA000F894DEBF0FBECDBFDF91CF911F910F917F
:102FB000BF90AF909F908F900895E95CE1CF00970C
:102FC00011F00C948E1790E080E008951F93CF933A
:102FD000DF9300D0CDB7DEB7182F89E492E00E94CE
:102FE000DF17612F70E090E080E04AE00E949B17BD
:102FF000105D1093040182E091E00E949E14CE01C6
:1030000001960E949F12898180935503882361F065
:1030100083E592E00E94DF178EEC93E00E94DF17B9
:1030200086E592E00E94DF170F900F90DF91CF911D
:103030001F910895CF93C82F8A3020F489E592E03C
:103040000E94DF176C2F70E090E080E04AE0CF91A3
:103050000C949B1781110E942F1788E592E00E9423
:10306000DF17809175030E941A188BE592E00E9489
:10307000DF17809176030E941A188BE592E00E9478
:10308000DF17809177030E941A1881E592E00E9471
:10309000DF1780919A030E941A188DE592E00E9432
:1030A000DF1780919B030E941A188DE592E00E9421
:1030B000DF1780919C030C941A188FE592E00C9412
:1030C0008E17CF93DF930E943D0DEC010E945D1897
:1030D0008C0F9D1FDF91CF9108958BE194E00E94AA
:1030E000BD0C181619062CF48BE194E00E949C0C80
:1030F000F4CF85E590E10E9461188BE194E00E9495
:10310000BD0C18161906CCF70895CF93DF93682FDE
:103110008BE194E00E94F00CEC010E945D188C0F92
:103120009D1FDF91CF910895CF93DF93682F70E0BB
:1031300090E080E04AE00E949B17EC010E945D183D
:103140008C0F9D1FDF91CF910895CF93DF930E9445
:103150008E17EC010E945D188C0F9D1FDF91CF919F
:1031600008950F931F93CF93DF93D82FC62F8A0113
:1031700081EF90E10E943D0D6C2F70E090E080E0C7
:103180004AE00E949B1783E592E00E94DF1786EDDC
:1031900090E1C330C1F058F488EE90E1C13099F06D
:1031A0008EED90E1C23079F089EA90E10CC08FEBAE
:1031B00090E1C53041F08BEC90E1C53020F081EB1F
:1031C00090E1C63089F70E943D0D84EA90E10E94AB
:1031D0003D0D89E990E1D13031F08EE990E1D230B6
:1031E00011F484E990E10E943D0D89E890E10E948C
:1031F0003D0D0115110539F08FE790E10E943D0D5D
:10320000C8010E94DF1786E592E0DF91CF911F9100
:103210000F910C94A518CF93DF93CDB7DEB72E97FF
:103220000FB6F894DEBF0FBECDBF80E59AE09A8757
:1032300089871C861B8682E08C838BE194E09E87C5
:103240008D87AE01495E5F4F6D897E89CE01019603
:103250000E9496332E960FB6F894DEBF0FBECDBFF8
:10326000DF91CF910895FF920F931F93CF93DF9338
:10327000F42E062F10E0C82FD0E080917303853024
:1032800020F11F924F93C801880F991F880F991F33
:103290008F569E4F9F938F931F926F93CE018F5B9C
:1032A0009F4F9F938F9389EB91E19F938F938BE136
:1032B00094E09F938F930E940B198DB79EB70C9645
:1032C0000FB6F8949EBF0FBE8DBF88E40E94BA0A65
:1032D000C80123E0880F991F2A95E1F7CC0FDD1F65
:1032E0008C2B9D2B0E94370E6F2D88E795E00E9456
:1032F000080E81E0DF91CF911F910F91FF900C9408
:103300005F0ADF92EF92FF920F931F93CF93DF93A9
:10331000C82FD62E88E40E94BA0A0D2D10E0D0E006
:10332000980193E0220F331F9A95E1F7CE01880FA1
:10333000991F822B932B0E94370E80E00E945F0A18
:1033400061E070E088E490E00E94E8160E94D70AED
:103350007C0180917303853020F1C70199279F93E9
:103360008F93000F111F000F111F0F5A1E4F1F9335
:103370000F931F92DF92CF5BDF4FDF93CF9387E8EE
:1033800091E19F938F938BE194E09F938F930E94A1
:103390000B198DB79EB70C960FB6F8949EBF0FBE53
:1033A0008DBF8E2DDF91CF911F910F91FF90EF90E8
:1033B000DF900895CF93DF93D82F63E00E948119A7
:1033C000807CC82FC360809173038823B1F01F9263
:1033D000CF931F92DF9385EF93E19F938F938BE1C0
:1033E00094E09F938F930E940B198DB79EB7089618
:1033F0000FB6F8949EBF0FBE8DBF4C2F63E08D2F8C
:10340000DF91CF910C9433190F931F93CF93DF93D8
:10341000C82F162F80917303833018F185E692E050
:10342000662311F082E692E01F9220E32F939F9390
:103430008F938C2F90E08F5B9F4F9F938F9389EC9E
:1034400093E19F938F938BE194E09F938F930E94DE
:103450000B198DB79EB70A960FB6F8949EBF0FBE94
:103460008DBF64E08C2F0E948119482F446064E076
:103470008C2F0E94331963E08C2F0E948119082F32
:103480004FEB63E08C2F0E94331962E08C2F0E9477
:103490008119D82F482F406162E08C2F0E94331988
:1034A00040EC11114CE067E08C2F0E9433194D2F36
:1034B00062E08C2F0E943319402F63E08C2FDF9144
:1034C000CF911F910F910C9433194F925F926F928D
:1034D0007F928F929F92AF92BF92CF92DF92EF92A4
:1034E000FF920F931F93CF93DF93C82F042FB52E16
:1034F000A62E972E64E00E94811924E087FF21E028
:1035000030E050E040E060E072EC81E090E00E944A
:103510009C3629013A01CA01B901202F3B2D4A2DC1
:10352000592D0E949C3669017A0163E08C2F0E941C
:103530008119182F482F406863E08C2F0E9433199F
:103540004C2D60E08C2F0E9433194D2D61E08C2FA3
:103550000E943319412F4F7763E08C2F0E9433195B
:10356000A701960144275527C301B2010E949C364A
:103570003901842ED52F80917303823098F1CF5B6F
:103580009F92AF92BF920F931F92CF9383E491E1EA
:103590009F938F930BE114E01F930F930E940B19DD
:1035A000DF92CF921F92CF9381E291E19F938F930D
:1035B0001F930F930E940B19DF938F927F926F924C
:1035C0001F92CF9382E091E19F938F931F930F936C
:1035D0000E940B198DB79EB74C960FB6F8949EBFFC
:1035E0000FBE8DBFB301882D9D2FDF91CF911F910D
:1035F0000F91FF90EF90DF90CF90BF90AF909F9092
:103600008F907F906F905F904F900895FC01808124
:103610009181009711F00C945A3360E070E0CB0177
:103620000895FC0180819181009711F00C94773707
:103630000895EF92FF920F931F93CF93DF93EC01C6
:103640007B018A0188819981009729F02A813B8139
:103650002417350788F4B8016F5F7F4F0E94003848
:10366000009791F0998388831B830A832C813D8185
:10367000232B11F4FC0110821D830C83B701888178
:1036800099810E9403390CC088819981009711F0BB
:103690000E947737198218821D821C821B821A822F
:1036A000CE01DF91CF911F910F91FF90EF90089580
:1036B000AF92BF92CF92DF92EF92FF920F931F9340
:1036C000CF93DF93EC016B015A0179012417350781
:1036D00020F48B2D5901E42EF82E198218821B82BA
:1036E0001A821D821C8250E040E061E672E0CE0149
:1036F0000E94191BD60114960D911C91A016B106BB
:1037000028F5E016F10608F48701D601ED91FC9149
:103710001197E00FF11FF08010826D917C916A0D7E
:103720007B1D61157105F1F0FB0101900020E9F7A7
:103730003197AF01461B570BCE010E94191BF601B2
:1037400080819181080F191FD801FC92CE01DF9171
:10375000CF911F910F91FF90EF90DF90CF90BF908E
:10376000AF90089588819981009711F00E94773772
:10377000198218821D821C821B821A82E0CF1F933D
:10378000CF93DF93EC01162F0E944C36181739F0B7
:10379000612FCE01DF91CF911F910C945436DF91B0
:1037A000CF911F9108950C944C36CF92DF92EF92F7
:1037B000FF920F931F93CF930E94540C6B017C01D7
:1037C000C1E08BE194E00E94BD0C892B09F09BC005
:1037D0000E94540C6C197D098E099F09683B7B403F
:1037E00081059105A0F462E08DE00E94930B8DE0CD
:1037F0000E943C0B892B09F0C0E061E08DE00E9443
:10380000930B6AE070E080E090E00E94220C0E943E
:10381000540C0091CA031091CB032091CC0330913A
:10382000CD03601B710B820B930B6D3271408105D0
:103830009105A0F080E00E943C0B61E0892B09F02B
:1038400060E080E00E94650B0E94540C6093CA0304
:103850007093CB038093CC039093CD030E94540CC0
:103860006C197D098E099F09693B7B408105910593
:1038700008F4A7CFCC2309F4A4CF8FE090E00E94F6
:10388000D31B893009F49DCF60E080E00E94650B76
:1038900069E08FE090E00E94BF1B84E194E10E9408
:1038A00061180E94540CC090CA03D090CB03E090E2
:1038B000CC03F090CD036C197D098E099F09653604
:1038C00071058105910568F380E00E943C0B61E081
:1038D000892B09F060E080E00E94650B8DE00E947A
:1038E0003C0B61E0892B09F060E08DE00E94650BE4
:1038F0000E94540C6093CA037093CB038093CC0353
:103900009093CD03CECFCF911F910F91FF90EF9069
:10391000DF90CF9008958F929F92AF92BF92CF92F7
:10392000DF92EF92FF920F931F93CF93DF93CDB768
:10393000DEB7C157D1090FB6F894DEBF0FBECDBFB9
:1039400061E086E10E94930B60E086E10E94650BD6
:1039500061E080E00E94930B60E080E00E94650BD4
:1039600062E08DE00E94930B8DE00E943C0B8C0185
:1039700061E08DE00E94930B61E08DE00E94650B99
:1039800062E081E00E94930B61E081E00E94930B72
:1039900061E081E00E94650B61E082E00E94930B90
:1039A00060E083E00E94930B62E08EE00E94930B44
:1039B00061E08EE00E94930B61E08EE00E94650B57
:1039C00011B88FEF82B962E085E10E94930B62E04B
:1039D00084E10E94930B62E083E10E94930B62E01A
:1039E00082E10E94930B80E190E00E94D31B8093C0
:1039F0006003833038F060E080E190E00E94BF1BFC
:103A0000109260038FE090E00E94D31BC12CE2EC87
:103A1000DE2EEE24E394F12C893050F4E82FF0E010
:103A2000EE0FFF1FE15CFE4FC080D180F12CE12C36
:103A300060E87DE88BE590E0A70196010E949C3646
:103A400021503109410951095695479537952795D8
:103A5000E0912B04F0912C0482E08083211580E119
:103A60003807A8F0E0912B04F0912C04108260EC50
:103A700076EC8DE290E0A70196010E949C362150E1
:103A800031094109510956954795379527954BE1DD
:103A9000E42E44E0F42EE0912704F09128043083D2
:103AA000E0912904F0912A04208310923304E091DC
:103AB0002F04F091300486E08083E0912D04F09192
:103AC0002E04808188698083E0912D04F0912E047A
:103AD00080818F7D80831F9288E18F9383E290E1C4
:103AE0009F938F93FF92EF920E940B1981E090E1D8
:103AF0000E9461180E945D1881E08F931F928FECE5
:103B00009FE09F938F93FF92EF920E940B1961E0C9
:103B10008CE00E94930B61E08CE00E94650B61E0F9
:103B20008BE00E94930B60E08BE00E94650B61E0EC
:103B30008FE00E94930B60E086E10E94650B86E0B7
:103B40000E94461661E086E10E94650B82E00E94B9
:103B50004616F09060030FB6F894DEBF0FBECDBFDF
:103B6000F11016C262E08AE00E94930B61E082E0ED
:103B70000E94650B61E087E10E94930B60E087E1A2
:103B80000E94650B64E670E080E090E00E94220CE9
:103B900061E087E10E94650B64EF71E080E090E0F6
:103BA0000E94220C8DE090E00E94D31B823028F00E
:103BB00061E08DE090E00E94BF1B8DE090E00E94EC
:103BC000D31B809306038EE090E00E94D31B80936A
:103BD0006603863038F060E08EE090E00E94BF1B04
:103BE0001092660310929903109298031092A70303
:103BF0001092C9031092A503FF24F394F092A4033A
:103C000010929D0361E081E10E94650B61E080E11B
:103C10000E94650B8091B9008E7F8093B9008091DE
:103C2000B9008D7F8093B90080E78093B80085E468
:103C30008093BC0082EC9DE090932803809327033F
:103C400083EC9DE090932C0380932B0386E180937B
:103C5000B80080E20E94BA0A0E94B70A81110FC020
:103C6000F092670380E20E94BA0A8CE090E00E9422
:103C7000370E85E090E00E94370E0E94B70A88E474
:103C80000E94BA0A0E94B70A811190C045E567E018
:103C90000E94331967E080E00E948119853509F0A0
:103CA00085C04AEA67E080E00E94331967E080E05F
:103CB0000E9481198A3A09F079C045E567E081E000
:103CC0000E94331967E081E00E948119853509F06F
:103CD0006DC04AEA67E081E00E94331967E081E045
:103CE0000E9481198A3A09F061C081E080935A03E9
:103CF0006EE080E00E948119482F48606EE080E00D
:103D00000E94331962E080E00E948119482F4160CF
:103D100062E080E00E94331962E081E00E94811934
:103D2000482F416062E081E00E94331960E080E04A
:103D30000E94041A61E080E00E94041A60E081E0C1
:103D40000E94041A61E081E00E94041A40EB54E0F2
:103D500060E070E080E00E94651A40EB54E060E0B3
:103D600070E081E00E94651A80E00E94DA1981E02B
:103D70000E94DA1962E080E00E948119482F4260B7
:103D800062E080E00E94331962E081E00E948119C4
:103D9000482F426062E081E00E94331960E080E0D9
:103DA0000E94811960E081E00E9481198FE090E01B
:103DB0000E94D31B8A3028F069E08FE090E00E94D7
:103DC000BF1B80910603882309F4FBC086E01F9285
:103DD0008F9380EB9FE09F938F932BE1E22E24E063
:103DE000F22EFF92EF920E940B192091600380E85F
:103DF00090E002C0880F991F2A95E2F79F938F9356
:103E00008DE99FE09F938F93FF92EF920E940B1991
:103E1000809160030FB6F894DEBF0FBECDBF813036
:103E200009F0D1C081E89FE00E943D0D0E945D181D
:103E300088E60E94BA0A0E94B70A811157C18BE234
:103E400091E00E943D0D81E00E942A1886E592E0F3
:103E50000E94A51880917403282F082E000C330BA4
:103E60003F938F938FEF90E09F938F938BE194E03C
:103E70009F938F930E940B1988E60E94BA0A8FE0E5
:103E800090E00E94370E0E94B70A61E070E088E679
:103E900090E00E94E8160E94D70A0F900F900F90B2
:103EA0000F900F900F9087FFFDC028E030E046E0B4
:103EB00050E06AE875E0CE0101960E94581BCE01E1
:103EC00001960E94061B60939C03CE0101960E94FE
:103ED000111B25E030E043E050E06AE875E0CE01D8
:103EE00001960E94581BCE0101960E94061B60930A
:103EF0009B03CE0101960E94111B22E030E050E0AE
:103F000040E06AE875E0CE0101960E94581BCE01A0
:103F100001960E94061B60939A03CE0101960E94AF
:103F2000111B26E030E044E050E064E875E0CE018B
:103F300001960E94581BCE0101960E94061B6093B9
:103F40007703CE0101960E94111B90E080E00E9451
:103F5000EA0AEFEBE80FE33108F04CC00E2E000C3C
:103F6000FF0BEB54F04E0C94BE365A20FA1FFA1F8A
:103F70007420FA1F5820FA1FFA1FFA1FE91FFA1FB0
:103F8000FA1F642072207020FA1FFA1FFA1F6E2099
:103F900061E08AE00E94930B60E08AE00E94650B7A
:103FA00031E03F1508F0E2CD60E082E00E94650B51
:103FB00061E087E10E94930B60E087E10E94650B5E
:103FC000F1CD8CE004CF823009F030CF8BE49FE05C
:103FD0002BCF81E090E00E94EA0A813609F464C0A8
:103FE00082E090E00E94EA0A8E3609F05FC086E027
:103FF000809376032BE030E049E050E064E875E020
:10400000CE0101960E94581BCE0101960E94061B0C
:1040100060937503CE0101960E94111B87EE90E01C
:104020000E9461188CEB90E00E943D0D80E00E94A0
:104030002A1881EB90E00E943D0D0E94D51B8BE178
:1040400094E00E949C0C80930403893731F08935F9
:1040500021F08E3611F08E3481F70E948518809100
:1040600004038F7D893589F440917503609176034F
:10407000809177030E943C0E8CE890E00E943D0DF9
:1040800081E00E942A180E945D1888E60E94BA0A00
:104090008FE090E00E94370E88E090E00E94370E9B
:1040A0000E94B70A81E023C081E0A2CF87E0A0CFC1
:1040B00082E09ECF82E090E00E94EA0A823711F40B
:1040C00084E096CF88E094CF82E090E00E94EA0AF4
:1040D000823711F483E08CCF85E08ACF89E088CFE6
:1040E0008AE086CF8BE084CF8CE082CF80E0809323
:1040F000570380916703882321F085E39FE00E94A6
:10410000611880915A03882321F087E19FE00E9483
:1041100061188CE090E00E94D31B823028F060E0B0
:104120008CE090E00E94BF1B8CE090E00E94D31BCB
:10413000809356038823C9F188E692E09F938F937A
:104140008CEF9EE09F938F938BE194E09F938F93EE
:104150000E940B198DE0E6E2F1E0DE01AB59BF4FA2
:1041600001900D928A95E1F70E9451100E94511022
:104170008AE090E00E94D31B809305030F900F907C
:104180000F900F900F900F90012B19F0873008F4CB
:10419000A5C18BE194E00E94BD0C1816190644F4E9
:1041A0008BE194E00E949C0CF4CF8BE692E0C6CFAA
:1041B0008BEC9EE09F938F930BE114E01F930F9382
:1041C0000E940B19E09105030F900F900F900F9034
:1041D000E73008F0A2C185E690E08C0F9D1F8E0F9E
:1041E000911DFC018181282F082E000C330B3F9379
:1041F0008F931F9288E58F9387EA9EE09F938F931A
:104200001F930F930E940B190FB6F894DEBF0FBED9
:10421000CDBF1F9282E48F9389E99EE09F938F9395
:104220000BE114E01F930F930E940B191F9286E479
:104230008F938BE89EE09F938F931F930F930E9421
:104240000B191F928FE48F9388E79EE09F938F93C3
:104250001F930F930E940B19809166030E94E6172B
:104260000E945D181F9281E48F9387E69EE09F93E2
:104270008F931F930F930E940B191F9284E58F93C6
:1042800084E59EE09F938F931F930F930E940B19D9
:104290001F9287E58F9385E49EE09F938F931F93F2
:1042A0000F930E940B190FB6F894DEBF0FBECDBF5F
:1042B0001F9288E48F9385E39EE09F938F931F93D3
:1042C0000F930E940B190E945D180F900F900F9092
:1042D0000F900F900F9080910603882309F434C14A
:1042E0008CE01F928F931F9283E48F938AE09EE06D
:1042F0009F938F938BE194E09F938F930E940B1970
:104300000FB6F894DEBF0FBECDBF80915603882351
:1043100009F41CC18BE692E09F938F931F9285E472
:104320008F9385EE9DE09F938F938BE194E09F9315
:104330008F930E940B198FE090E00E94D31B0FB661
:10434000F894DEBF0FBECDBF893008F002C1E82F60
:10435000F0E0EE0FFF1FE15CFE4F80819181B0E045
:10436000A0E0BF93AF939F938F931F9283E58F93AA
:1043700081EC9DE09F938F930BE114E01F930F93CB
:104380000E940B190FB6F894DEBF0FBECDBF80910F
:104390005703882309F4E2C01F9284E48F9387EACD
:1043A0009DE09F938F931F930F930E940B190F9083
:1043B0000F900F900F900F900F9080E190E00E946F
:1043C000D31B20E830E002C0220F331F8A95E2F7AA
:1043D0003F932F931F9282E58F938AE89DE09F93EE
:1043E0008F930BE114E01F930F930E940B1983E747
:1043F0009DE09F938F931F930F930E940B190FB60D
:10440000F894DEBF0FBECDBF0E94D51B8BE194E0B8
:104410000E949C0C0E94E938182F809304038F336C
:1044200009F0B3C0809173038F5F80937303BE0163
:104430006B597F4F812F0E94DB16882329F3812F30
:104440000E94851880917303882391F01F928F93A7
:104450008DE59DE09F938F938BE194E09F938F93E5
:104460000E940B190F900F900F900F900F900F90CC
:1044700080910403853409F400C10CF08CC08334AE
:1044800009F4EFC0843409F48BC1BE016B597F4F2E
:10449000809104030E94DB16825080930503909163
:1044A0007303992391F01F928F9385ED9CE09F9366
:1044B0008F938BE194E09F938F930E940B190F9041
:1044C0000F900F900F900F900F90609105038AE06E
:1044D00090E0673008F078C30E94BF1B809105030D
:1044E000823051F487EC9CE00E943D0D8091660380
:1044F0000E94E6170E945D18E0910503E73008F07E
:1045000075C3F0E0EA57FD4D0C94BE36E9256B26E5
:104510007426BB26BE26CB26DA26BE016B597F4FFA
:1045200088E50E94DB16182F882309F472CE88E5EF
:1045300090E00E94E138E5E6F0E0EC0FFD1FE10FAE
:10454000F11D3197808365CE86E0CBCE88E692E080
:10455000E3CE80E092ECA1E0B0E003CFBE016B5966
:104560007F4F84E40E94DB16182F882309F425CF9F
:1045700084E490E00E94E138E5E6F0E0EC0FFD1FF6
:10458000E10FF11D3197808318CF803209F04FCFB2
:10459000109273034CCF823509F4ABC2833509F412
:1045A00076C08F3409F071CF8EE092E00E946118DE
:1045B0008091660381508093030306E0809103039A
:1045C0008F5F602F0E947C36192F9093030388E53C
:1045D0009DE00E943D0D812F0E94E61785E49DE03D
:1045E0000E943D0D8BE194E00E94BD0C1816190647
:1045F0002CF48BE194E00E949C0CF4CF8BE194E0CE
:104600000E94BD0C181619061CF00E94D51BF6CF8F
:104610008BE194E00E949C0C809304038D3011F098
:104620008B3161F681E49DE09F938F938BE194E061
:104630009F938F930E940B190F900F900F900F90E4
:10464000809104038D3009F020CF609103036093C3
:1046500066038EE090E00E94BF1B8FE4809304030A
:1046600014CF61E080910603811160E0609306033E
:104670008DE090E00E94BF1B08CF61E0809156035F
:10468000811160E0609356038CE090E0F3CF8EE000
:1046900092E00E9461188FE090E00E94D31B81504D
:1046A00080930303BAE0DB2E05E31DE08BE1E82EE7
:1046B00084E0F82E809103038F5F6D2D0E947C367D
:1046C00090930303993029F1E92FF0E0EE0FFF1FDB
:1046D000E15CFE4F80819181B0E0A0E0BF93AF9399
:1046E0009F938F931F930F93FF92EF920E940B194A
:1046F0000FB6F894DEBF0FBECDBF8BE194E00E94F1
:10470000BD0C1816190654F48BE194E00E949C0C21
:10471000F4CF80E092ECA1E0B0E0E0CF8BE194E058
:104720000E94BD0C181619061CF00E94D51BF6CF6E
:104730008BE194E00E949C0C809304038D3019F06F
:104740008B3109F0B7CF81E39DE09F938F930BE10D
:1047500014E01F930F930E940B190F900F900F906E
:104760000F90809104038D3009F08FCE8FE090E0A0
:104770000E94D31B60910303861709F486CE8FE055
:1047800090E00E94BF1B8BEF9CE09F938F931F9341
:104790000F930E940B190F900F900F900F9075CEF2
:1047A0000E942F171092620384EF91E00E9461181B
:1047B00085EC91E00E946118EAE0FE2EF6EFEF2E04
:1047C000DD24D39483EC91E00E943D0D809162033F
:1047D000823009F440C018F5882369F18130A1F1D5
:1047E0000E94D51B8BE194E00E949C0C082F8093C3
:1047F0000403853709F44DC0853509F44AC0843770
:1048000009F4D5C4843509F4D2C48D3049F7109128
:1048100062036DE08BE194E00E94F00C5EC0843096
:1048200089F148F18530E1F687E791E00E943D0D7E
:1048300080919C0306C08AEB91E00E943D0D80911F
:1048400075030E941A18CCCF80EB91E00E943D0DB9
:1048500080917603F6CF82EA91E00E943D0D6DE0F3
:104860008BE194E00E94F00C89E991E00E943D0DFB
:1048700080917703E6CF8FE891E00E943D0D809113
:104880009A03DFCF83E891E00E943D0D80919B0366
:10489000D8CF10916203123009F463C0E0F5112300
:1048A00009F449C0113009F451C0802F8F7D84353F
:1048B00009F0AAC0123009F4C3C008F08DC011235A
:1048C00009F49BC0113009F4AFC06DE08BE194E0B6
:1048D0000E94F00C0D3009F075CF1F5F109362033A
:1048E000163008F46FCF4091750360917603809184
:1048F00077030E943C0E87E691E00E9461188AE4EB
:1049000091E00E943D0D81E00E942A1886E592E028
:104910000E94A518BACD143009F450C008F443C061
:10492000153019F680919C038F5F8C3308F051C0CD
:1049300080939C03BACF809175038F5F843618F4FF
:1049400080937503B2CF10927503AFCF8091760339
:104950008F5F8D3018F480937603A7CF1093760382
:10496000A4CF809177038F5F80937703E0917603E4
:10497000E23089F490E020917503237049F42DE131
:1049800030E0281739070CF090CFD09277038DCF05
:104990002CE130E0F6CFF0E0EE5CFE4F908198170E
:1049A00008F083CFF2CF80919A038F5F883118F49B
:1049B00080939A037ACF10929A0377CF80919B03CA
:1049C0008F5F8C3318F480939B036FCF10929B03FF
:1049D0006CCF10929C0369CF143009F46EC008F4B8
:1049E0005AC0153009F071CF20919C03265F2C33FB
:1049F00008F075C020939C0307C020917503265FC3
:104A0000243640F4209375036DE08BE194E00E941E
:104A1000F00CD8CE822F6F2D0E947C368E9D200DFB
:104A200011242093750351CF809176038B3020F0B1
:104A30008A508093760349CF833030F7865FF9CF71
:104A400020917703265F20937703422F50E0E09177
:104A50007603F0E0EE5CFE4F808190E030917503CC
:104A6000337061E070E011F070E060E0860F971F36
:104A7000841795074CF4822F6F2D0E947C368E9DF3
:104A8000200D112420937703809177038111BCCFEF
:104A9000D09277031ACF20919A03265F283118F419
:104AA00020939A03B1CF822F6F2D0E947C368E9D6A
:104AB000200D112420939A0308CF20919B03265F99
:104AC0002C3318F420939B039FCF822F6F2D0E94CD
:104AD0007C368E9D200D112420939B03F6CE822FD1
:104AE0006F2D0E947C368E9D200D112420939C03F7
:104AF000ECCE8EE092E00E946118809160038150BC
:104B00008093030353E0C52ED12C60E8A62EB12C70
:104B10000BEE1CE07BE1E72E74E0F72E809103039F
:104B20008F5F90E0B6010E948836982E8093030331
:104B300086EF9CE00E943D0DC50102C0880F991FC1
:104B40009A94E2F79F938F931F930F93FF92EF92A4
:104B50000E940B190F900F900F900F900F900F90D5
:104B60008BE194E00E94BD0C181619062CF48BE121
:104B700094E00E949C0CF4CF8BE194E00E94BD0C69
:104B8000181619061CF00E94D51BF6CF8BE194E095
:104B90000E949C0C809304038D3019F08B3109F036
:104BA000BDCF0E945D180E945D18809104038D3076
:104BB00009F06BCC609103036093600380E190E0A7
:104BC0000E94BF1B88E54ACD0E94D31B809305033A
:104BD00085CC8FE692E090930203809301031092BC
:104BE00000031092FF0281E080935F0361E080E0A8
:104BF0000E94650B0091FF02109100030115110541
:104C000019F1F090730390E080E00E94581683EC55
:104C10000E948C16802F0E948C16812F0E948C1669
:104C2000FF2091F01F930F9380E693E09F938F9363
:104C30008BE194E09F938F930E940B190F900F903C
:104C40000F900F900F900F908091FF0290910003B2
:104C50000E945816809173038823F1F082E493E058
:104C60000E943D0D6091FB027091FC0290E080E09B
:104C70004AE00E949B170E945D188CE293E00E941C
:104C80003D0D6091FF027091000390E080E040E1F3
:104C90000E949B170E945D1880910503843008F0E4
:104CA00047C20E945110882309F470C10E9451101C
:104CB0008093FA02882309F469C16091FA0266239D
:104CC00029F050E040E080E00E94B1180E946D1889
:104CD0000E945110EBCF8BE792E0909302038093F8
:104CE000010380E091E031C080916603823091F150
:104CF00070F4882311F1813009F078CF81E992E0D6
:104D0000909302038093010380E890E01EC08430FA
:104D100079F118F1853009F069CF8BEB92E090932F
:104D2000020380930103109200031092FF0281E0BE
:104D300080935F0380935E0359CF87E892E090935E
:104D400002038093010380EE91ED90930003809322
:104D5000FF024CCF8CE992E0C0CF87EA92E09093BB
:104D6000020380930103109200031092FF023ECFD2
:104D700083EB92E0F4CF85EC92E0F1CF87EC94E006
:104D80009093FE028093FD0280E098E09093FC02F5
:104D90008093FB02E8CF8FE893E09093FE0280932C
:104DA000FD0288E391E09093FC028093FB0280E88F
:104DB0009EEFCBCF8CE793E09F938F930BE114E0B2
:104DC0001F930F930E940B1983EA92E09F938F9396
:104DD0001F930F930E940B190FB6F894DEBF0FBEFE
:104DE000CDBF00E010E03BE4E32E32E0F32E45E7D8
:104DF000C42E42E0D42E8BE194E00E94BD0C892B9E
:104E000051F461E070E080E090E00E94220CF3CF6A
:104E100001E010E0F0CF8BE194E00E949C0C8A331B
:104E2000B9F38A3019F08D3009F0A1C0011102C028
:104E300000E0EFCF1123E1F3E1E0F0E0EC0FFD1F24
:104E4000E10FF11D1082CE0101960E94A518CE013E
:104E500001960E942E16082FCE0103960E942E1650
:104E6000A82ECE0105960E942E16BA2CA82ECE0191
:104E700007960E942E16982E102F180F1A0D1B0D34
:104E8000811120C08091000190910101A816B906FE
:104E900020F4B0920101A0920001C5010E945816B1
:104EA000CE0101965C0132E0A30EB11C0915E1F1BF
:104EB00008960E942E16882E0E948C16180D939428
:104EC000C501F0CF81E098121FC0809101018F933E
:104ED000809100018F938BE892E09F938F938BE1F9
:104EE00094E09F938F930E940B1980910001909101
:104EF0000101909300038093FF020F900F900F9099
:104F00000F900F900F9072CE1F929F92DF92CF92D0
:104F10008BE194E09F938F930E940B190F900F9059
:104F20000F900F900F900F901195802F90E0880FA9
:104F3000991F089621E030E02C0F3D1F820F931F30
:104F40000E942E16181709F473CF1F928F931F9289
:104F50001F93FF92EF928BE194E09F938F930E94B7
:104F60000B190FB6F894DEBF0FBECDBF61CF002383
:104F700009F441CF133608F03ECFE1E0F0E0EC0F4A
:104F8000FD1FE10FF11D80831F5F35CF00910103ED
:104F9000109102036CE972E0C8010E94FA38892B73
:104FA00031F0C8010E949E148093FA0210C082ED75
:104FB00092E00E949E148111F4CF82ED92E09093D2
:104FC00002038093010360E08DE00E94650B8091F5
:104FD000FA028823E9F06091FA02662339F04091E1
:104FE00001035091020381E00E94B1180E946D18E4
:104FF0000091010310910203C8010E949E14809346
:10500000FA02833021F30E9451100E945110C9CF3F
:10501000809102038F93809101038F938AE093E044
:105020009F938F938BE194E09F938F930E940B1932
:105030000F900F900F900F900F900F90CE01019650
:105040000E949F12082F8981809355030093FA02D2
:10505000109203031091030380915503181758F41D
:10506000E12FF0E0E253FC4F80810E948C161F5F1D
:1050700010930303EFCF803291F40023F9F24091B3
:10508000010350910203602F82E00E94B1180E9438
:105090006D1860E070E0CB010E946F1302C0011137
:1050A000EECF8091FA028111C9CF8EED92E00E947D
:1050B000611860E086E10E94650B8091B6008F7DEB
:1050C0008093B6008091B10081608093B10080919F
:1050D000B100897F8093B1008091B000826080939D
:1050E000B0008091B0008E7F8093B0008091B000BE
:1050F00080648093B0008091B0008F778093B0007F
:10510000809106038093B30061E08FE00E94930BCF
:1051100081EC92E00E9461188BE194E00E94BD0C4A
:105120001816190634F58BE194E00E949C0CF4CF1C
:105130008630D0F48DEE92E00E943D0D10E000E04C
:105140008091FB029091FC020817190708F0ADCF7F
:10515000E091FD02F091FE02E00FF11F84910E94A8
:105160008C160F5F1F4FECCF84EE92E00E943D0D36
:105170009CCF61E070E080E090E00E94220C61E052
:1051800086E10E94650BCF58DF4F0FB6F894DEBF63
:105190000FBECDBFDF91CF911F910F91FF90EF9088
:1051A000DF90CF90BF90AF909F908F900895109117
:1051B000620380CB1F920F920FB60F9211244F9370
:1051C0005F936F937F938F939F9340916F03509161
:1051D0007003609171037091720380916E039091DE
:1051E0006D039230F9F410926D038A5A8D3728F0CE
:1051F0008D574F5F5F4F6F4F7F4F80936E0340938C
:105200006F035093700360937103709372039F91C7
:105210008F917F916F915F914F910F900FBE0F9083
:105220001F9018958B5A9F5F90936D03DFCF1F924D
:105230000F920FB60F9211240BB60F922F933F933C
:105240004F935F936F937F938F939F93AF93BF938E
:10525000EF93FF938BE194E00E94CE0CFF91EF91CE
:10526000BF91AF919F918F917F916F915F914F917E
:105270003F912F910F900BBE0F900FBE0F901F907C
:1052800018951F920F920FB60F9211240BB60F9222
:105290002F938F939F93EF93FF93E0912B04F091C3
:1052A0002C048081E0913104F091320482FD1CC015
:1052B0009081809134048F5F20913504821741F0F2
:1052C000E0913404F0E0E55EFB4F958F8093340469
:1052D000FF91EF919F918F912F910F900BBE0F90A7
:1052E0000FBE0F901F9018958081F2CF1F920F92E2
:1052F0000FB60F9211240BB60F922F933F934F933B
:105300005F936F937F938F939F93AF93BF93EF932D
:10531000FF938091B900887F803609F44DC008F072
:1053200040C0883209F4A9C028F5803109F49DC035
:10533000C8F4882309F407C1883009F496C0FF91A6
:10534000EF91BF91AF919F918F917F916F915F91FD
:105350004F913F912F910F900BBE0F900FBE0F906A
:105360001F901895883109F488C0803241F78093E6
:10537000A30314C0803409F4A5C040F48033B9F30A
:105380008833E9F68093A30385ECBCC0803509F42B
:1053900089C0883509F49EC0883489F60E94910D31
:1053A000CECF883909F494C038F5883729F050F405
:1053B000883611F0803719F683E08093A5031092A8
:1053C0004D0357C0883809F483C0803919F08038FC
:1053D00009F0B5CF80914D03803208F079C0E0919B
:1053E0004D0381E08E0F80934D038091BB00F0E070
:1053F000E35DFC4F80833DC0803B39F0E0F4803AB0
:1054000009F485C0883A09F09ACF84E08093A50317
:1054100010922A0310922903E0912703F0912803A8
:1054200009958091290381110FC081E080932903A0
:105430001092070309C0803C09F4A6CF883C09F408
:10544000A3CF883B09F07BCFE0912A0381E08E0F48
:1054500080932A03F0E0E95FFC4F80818093BB00DA
:1054600090912A038091290331C080919E038093FB
:10547000BB0085EC8093BC0062CF9091A00380912B
:105480009F039817B8F58091A1039091A203E09132
:10549000A00321E02E0F2093A003E80FF92FF11DA8
:1054A0008081E5CF2091A1033091A203E091A00378
:1054B00081E08E0F8093A0038091BB00E20FF32F59
:1054C000F11D80839091A00380919F03981788F22B
:1054D00085E8D0CF2091A1033091A203E091A003F1
:1054E00081E08E0F8093A0038091BB00E20FF32F29
:1054F000F11D80838091A403811150CF81E08093BE
:105500009D0384EA8093BC001092A50318CF85EC1C
:105510008093BC001092A50380914D03803230F43B
:10552000E0914D03F0E0E35DFC4F108260914D038C
:1055300070E0E0912B03F0912C038DE293E009954C
:1055400010924D03FCCE1092A30328CFEF92FF924E
:105550000F931F93CF93DF930097C9F0EA018C015B
:105560002097B1F1E0904E03F0904F03E114F10465
:1055700079F1F80181918F010E94150FF1E0EF1A86
:10558000F108F0924F03E0924E032197E9CF4115C5
:1055900051056105710529F18091EE0383FD07C076
:1055A00089E0440F551F661F771F8A95D1F788E55C
:1055B0000E945B0F81111DC08FEF0E94150F8EEFAF
:1055C0000E94150F80E092E090934F0380934E036A
:1055D00090E080E0DF91CF911F910F91FF90EF90CD
:1055E0000895DF91CF911F910F91FF90EF900C9450
:1055F0001F0F81E090E0EECF0F931F93CF93DF93C7
:10560000C82F162FD42F809173038330E0F01F92A0
:105610004F931F926F938C2F90E08F5B9F4F9F93C0
:105620008F9383E691E19F938F938BE194E09F9317
:105630008F930E940B198DB79EB70A960FB6F894F8
:105640009EBF0FBE8DBF63E08C2F0E948119082F73
:105650004FEB63E08C2F0E94331962E08C2F0E9485
:105660008119482F4F7311114064D111406862E0D5
:105670008C2F0E943319402F63E08C2FDF91CF9144
:105680001F910F910C943319EBE1F4E01382128215
:1056900088EE93E0A0E0B0E084839583A683B7838F
:1056A00029E232E03183208325EC30E035872487FE
:1056B00024EC30E03787268720EC30E0318B208BDC
:1056C00021EC30E0338B228B22EC30E0358B248BC5
:1056D00026EC30E0378B268B118E128E138E148EB3
:1056E000E8E7F5E01382128284839583A683B7836B
:1056F0008BE392E091838083EAE8F5E011821082E7
:10570000138212821582148248E050E06EED72E03E
:10571000CF010E94191BE4E8F5E011821082138288
:105720001282158214824BE050E067EE72E0CF01E6
:105730000C94191BCF93DF9300D000D0CDB7DEB708
:10574000789484B5836084BD85B5836085BD809180
:105750006E00816080936E0082E080938100809172
:1057600081008160809381008091800081608093BE
:1057700080008091B10084608093B1008091B0007E
:1057800081608093B000809191008360809391004C
:105790008091900081608093900087E880937A00E8
:1057A0001092C1000E948B1C5BE1E52E54E0F52EA7
:1057B00083E00E943C0B892B99F583E10E943C0B0E
:1057C000892B09F0B8C482E10E943C0BD0B0D09282
:1057D0006C0390911F01882309F47DC09F3F51F015
:1057E00090931E0180916A0390916B0390936903DB
:1057F00080936803D0921F0110926B0310926A038A
:1058000060E08EE00E94650B60E080E00E94650B26
:1058100061E080E00E94650B61E08EE00E94650B14
:1058200080911F018F3F09F053C080915F0388234F
:10583000E1F0809154038823C1F080910D01882309
:10584000A1F08BE194E00E94BD0C181619066CF4CF
:1058500060E081E00E94650B809159038160809334
:10586000590310920D011092540380915E03882316
:1058700079F10E94CF0B00915003109151032091B8
:105880005203309153034B015C01801A910AA20A22
:10589000B30A2091110130E0A8EEB3E00E946D360A
:1058A000681579058A059B0598F460E081E00E94FF
:1058B000650B809159038260809359030E94CF0B3E
:1058C000609350037093510380935203909353035A
:1058D0000E947C0D6DCF9C3009F487C108F051C047
:1058E000963009F40BC118F5933009F4E8C078F448
:1058F000992309F4D7C0913009F4DBC080911F01CE
:105900008A3009F47DCF8C3009F47ACFD5C2943037
:1059100009F4E9C0953091F780916703882309F471
:10592000CBC280E20E94BA0A90E080E0D2C09930F7
:1059300009F4FAC080F4973009F4EBC09830F1F61E
:1059400080916703882309F4B7C280E20E94BA0AF3
:105950008DE090E0BEC09A3009F406C19B3071F62C
:10596000D092630380916403909165038115924006
:1059700008F034C12FE12D1508F435C11092120141
:10598000BDCF923109F4AFC208F078C09F3009F45E
:10599000A0C280F49D3009F46DC29E3009F0AECFF4
:1059A0008D2D817080935F03D1FADD24D0F8D092E1
:1059B0005E03A4CF903109F491C2913109F09ECFDA
:1059C00080916703882309F477C281E080935C03A8
:1059D00011E0D11010E010935B0380E20E94BA0A3C
:1059E00082E190E00E94370E110F012F0560802F99
:1059F00090E00E94370E0E94B70A80E20E94BA0A25
:105A000090E080E00E94370E88EF90E00E94370E11
:105A10000E94B70A80E20E94BA0A81E090E00E94E8
:105A2000370E90E080E00E94370E0E94B70A80E2B5
:105A30000E94BA0A8CE090E00E94370E8FEF90E04F
:105A40000E94370E0E94B70A80E20E94BA0A82E1E1
:105A500090E00E94370E612F616088E795E00E9418
:105A6000080E0E94B70A0093620380E20E94BA0AFD
:105A700082E190E00E94370E602F2EC0923248F4EF
:105A8000903208F060C2933109F038CFD092100103
:105A900035CF943208F488C29E3709F02FCFD092C8
:105AA00073032CCF60E0D0FE61E08DE00E94650BB7
:105AB00025CF6D2D8BE194E00E94F00C1FCF8091DB
:105AC0006703882309F4F8C180E20E94BA0A82E1E0
:105AD00090E00E94370E6D2D88E795E00E94080E39
