:100000000C94500A0C94780A0C94780A0C94780A90
:100010000C94780A0C94780A0C94780A0C94780A58
:100020000C94780A0C94780A0C94780A0C947A2729
:100030000C94780A0C94DD270C94B7270C94780A5A
:100040000C94780A0C94780A0C94780A0C940F2873
:100050000C94780A494F533A2052544320736574E4
:1000600020617420636F6D70696C652074696D65C3
:10007000202D204E6F773A2000293F205B592F4ECC
:100080005D203E000A446F20796F752077616E74A1
:10009000207365742052544320617420494F5320CB
:1000A000636F6D70696C652074696D652028004907
:1000B0004F533A2052544320636C6F636B20666148
:1000C000696C7572652100494F533A2052544320A0
:1000D0004453333233312074656D706572617475C9
:1000E00072652073656E736F723A202564C2B043E7
:1000F0000D0A00494F533A20466F756E64205254E2
:100100004320445333323331204D6F64756C652086
:100110002800494F533A2052544320646174652F9C
:1001200074696D65207570646174656420280020B1
:100130002E2E2E646F6E652020202020200A005372
:1001400065636F6E6473202D3E20004D696E75747B
:100150006573202D3E2000486F757273202D3E2060
:100160000020446179202D3E2000202020202020E6
:1001700020202020202020004D6F6E7468202D3E0E
:10018000200059656172202D3E200020000A507227
:1001900065737320542F5520746F20696E637265E8
:1001A0006D656E74202B31302F2B31206F72204300
:1001B0005220746F20616363657074000A494F5365
:1001C0003A20525443206D616E75616C20736574E2
:1001D00074696E673A000D0A50726573732043525A
:1001E00020746F206163636570742C204553432035
:1001F000746F2065786974206F7220616E79206F4A
:1002000074686572206B657920746F206368616E15
:10021000676500494F533A205A383020697320727D
:10022000756E6E696E672066726F6D206E6F7700F7
:1002300020446F6E6500494F533A204C6F616469EA
:100240006E6720626F6F742070726F6772616D2EBF
:100250002E2E00494F533A204C6F6164696E67201F
:10026000626F6F742070726F6772616D20282573E2
:10027000292E2E2E0044454255473A20426F6F7476
:1002800053747241646472203D20004445425547D6
:100290003A20466C61736820426F6F74496D6167E4
:1002A0006553697A65203D200044454255473A2010
:1002B000496E6A6563746564204A50203078253041
:1002C00034580D0A003100093EC9C31901E3EFBEDD
:1002D0002318613E0DF53E01D301C30101CDDE03BC
:1002E000E5C39A03577CBAC07DBBC900411AFE2002
:1002F000C01318F94EF1CD6105C3740547EFD64020
:10030000D8201B13CDA20429DADB002323D5EBCDA3
:10031000E404E7DAA2052100FFCD2E05D1C9FE21B4
:100320003802D620FE1B3FD81321FE0707856F3EFB
:10033000008C67C92807C54E060009C11B1323E3BB
:10034000C921000044CF270B1A6F131AFE27206A19
:100350001304C9FE242822FE30D8FE3AD03EF0A471
:10036000203E04C5444D292909291A13E60F856F3B
:100370003E008C67C11AF29200131AFE30D8FE3A82
:10038000380AFE41D8E65FFE47D0D607E60FC547DC
:100390003EF0A478C120090429292929B56F18D96C
:1003A000D511ED00C3780554696E79424153494334
:1003B000320D484F573F0D4F4B0D574841543F0D9D
:1003C000534F5252590DF1D300FE0DC03E0AD73E95
:1003D0000DC9DB013CC83DE67FFE03C018153200A5
:1003E000FF11E200CD0C06210000224A082100097D
:1003F000223608310009CD0E0011F20097CD0C060F
:10040000214201223808210000224008223A083EF9
:100410003ECDA705D51180FFCD7C00EF7CB5C1CACC
:1004200016071B7C121B7D12C5D57993F5CDE70508
:10043000D52010D5CD0206C12A3608CDC106606987
:10044000223608C12A3608F1E5FE0328A6856F3E4C
:10045000008C671100FFE7D2A105223608D1CDC973
:1004600006D1E1CDC10618A7CD70052100092236BD
:1004700008CD7005C32E01CD7005110009210000C3
:10048000CDEF05DA2E01ED5338081313CD0D012100
:100490005A07C31907DFD5CD7005CDE705C2DC00CB
:1004A000F118E3CD7C00CD7005CDE705DA2E01CD46
:1004B000AA06CD0D01CDEF0518F2AF3235080E08B2
:1004C000CF3B05CD0E0018C4CF0D03D718AFCF23F7
:1004D00004DF4D1819CF2511DF7DFE01CADB00FEB8
:1004E00011D2DB003235081805CD17061810CF2CB5
:1004F00005CD610518D8AF323508CD0E00F7DFC540
:10050000CD4A06C118E8CDF106DFD5CDE705C2DC3E
:10051000002A3808E52A3A08E5ED62224008ED7322
:100520003A08C3C101CD70052A3A087CB5CA7405E2
:10053000F9E1223A08E1223808D1CDD606F7CDF10B
:1005400006CD52052B22400821D307C31907DF220D
:10055000440821D907C31907DF18032101002242EB
:10056000082A3808224608EB224808010A002A40D7
:1005700008EB6068393E097E23B628177E2BBA2027
:10058000F57EBB20F1EBED6239444D210A0019CD17
:10059000C906F92A4808EBF7FFDA7405223C08D5AA
:1005A000EB2A40087CB5CA7505E72809D1CDD606E7
:1005B0002A3C0818EA5E23562A4208E57CAA7A19E2
:1005C000FA0203ACFA2303EB2A40087323722A448D
:1005D00008F1B7F21203EBCD4A05D1380D2A4608CF
:1005E0002238082A4808EBF7E1D1CDD606F72100DA
:1005F000003EDF7CB5C2C701CD0406D2C101C32EC7
:1006000001ED7B3E08E1223808D1D1D5CD1706187F
:1006100005FF38361810D5FFDA74051A4F9712D136
:10062000CD0C06791B12D5EB2A3808E521460322AA
:100630003808ED733E08D53E3ACDA7051180FFDF9F
:10064000D1EB732372E1223808D1F1CF2C0218BB11
:10065000F71AFE0D2808CD5205CF2C0218F8F72105
:10066000E107C31907CDC903C06FC9CDC903C86F5E
:10067000C9CDC9036FC8D86CC9CDC903D06FC9CD66
:10068000C903D86FC9CDC903C8D86FC9E1C979E119
:10069000C1E5C54FCDDE03EBE3CD4A05D121000016
:1006A0003E01C9CF2D04ED621821CF2B00CD2104CE
:1006B000CF2B15E5CD2104EBE37CAA7A19D1FAEB17
:1006C00003ACF2EB03C3DB00CF2D09E5CD2104CD54
:1006D000350518E3CF7C97E5CD2104EBE37CB267C9
:1006E0007DB36FD118CACD8E04CF2A29E5CD8E04F3
:1006F0000600CD3205E3CD3205EBE37CB728067A60
:10070000B2EBC2DC007D210000B7282819DADC003A
:100710003D20F9181FCF2F29E5CD8E040600CD32DC
:1007200005E3CD3205EBE3EB7AB3CADC00C5CD19A6
:10073000056069C1D17CB7FADB0078B7FC350518D4
:10074000A8CF262AE5CD8E04EBE37CA2677DA36FBC
:10075000D1189621AC07C31907FF38057E23666FB1
:10076000C9CD7C0078B7C0CF2805DFCF2901C9C328
:100770007405CDA2047CB7FADB00B5CADB00D5E571
:100780002A4A0811FD07E73803210000ED5FAE5F3C
:1007900023AE57224A08E1EBC5CD1905C1D123C9C3
:1007A000CDA2041BCD320513C92A3608D5EB210092
:1007B000FFCD2E05D1C9CDA2046E2600C9CDA2045D
:1007C000C300FFCDA204E92100FFC9DFCF2C0DE556
:1007D000DF7DE177CF2C0423E518F5F7185BE56C96
:1007E0002600CD2405417DE1670EFF0CCD2E05309E
:1007F000FA19C9B7ED52C97CB7F07CB5C87CF52FA2
:10080000677D2F6F23F1ACF2DB0078EE8047C97C67
:10081000AAF25005EBE7C9FF381FE5CF3D1BDF44C7
:100820004DE1712370C9CF3B04F1C3C701CF0D0463
:10083000F1C3B801C9EFFE0DC8D511F50097CD0C75
:1008400006D11AF597122A3808E57E23B6D1CA2EAA
:10085000017EB7FA3C03CDAA061BF1123E3FD797A3
:10086000CD0C06C32E01D511FB0018D1D71180FF86
:10087000CD0D0128FBFE0D2810FE082817FE7F284D
:1008800013FE182820FE2038E7D71213FE0DC87B70
:10089000FEFF20DC7BFE8028D71B3E08D73E20D7FA
:1008A0003E08D718CBCD0E003E5E18C07CB7FADBF1
:1008B00000110009E52A36082BE7E1D81A954713FD
:1008C0001A9C38041BB0C913131AFE0D20FA131812
:1008D000E3471A13B8C8D7FE0D20F7C9CF220CCDB5
:1008E0000C06FE0DE1CAB8012323E9CF5F063E8D59
:1008F000D7E118F4CF5E081AEE40D71A1318E3CFE9
:100900005C0CE51ACD3900DA74057EE118E2C93ACB
:100910003508B72809FE10201006240D180B060014
:10092000CD3205F26406062D0DD53A3508B7200202
:100930003E0A5FAF57D50DC5CD190578B12807E33D
:100940002DE5606918F2C10D79B7FA8D063E20D702
:1009500018F578B7C410005D3A3508B720023E0A92
:10096000BB7BD1C8FE0A3802C607C630D718E9AF2C
:100970003235081A6F131A67130E04CD4A063E204B
:10098000D797CD0C06C9E7C81A02130318F8789256
:1009900020037993C81B2B1A7718F3C1E122400872
:1009A0007CB52810E1224208E1224408E1224608F1
:1009B000E1224808C5C9C121A2F739D2A1052A40C0
:1009C000087CB528132A4808E52A4608E52A440881
:1009D000E52A4208E52A4008E5C5C9214A07EFD5BE
:1009E0001A13FE2E281CFE613806FE7B3002E65FDD
:1009F00023BE28EC3E7F1BBE380E23BE30FC23D125
:100A000018DC3E7F23BE30FC7E236EE67F67F1E973
:100A10004C49535481DE52554E81B24E455781A305
:100A20004E45585482D34C455483914946832D47B3
:100A30004F544F81D0474F535542824152455455F0
:100A4000524E826052454D8329464F528279494E1B
:100A500050555483465052494E5481F53F81F550CC
:100A60005554850653544F5081AC48414C5487FC33
:100A7000838C524E4484AD41425384DB47455484B9
:100A8000F155535284F843414C4C84FE53495A4526
:100A900084E4544F5085028494544F828985745362
:100AA000544550829382963D83A02383A63C3E8387
:100AB000A63C3D83AC3C83B43E3D83BA3E83C083B9
:100AC000C7767676763110FD2152FDCDC6FECD3E3D
:100AD000FFCDF4FD3EFFBC2010BD200D21D9FDCD82
:100AE000C6FE2188FDCDC6FE76E521D9FDCDC6FE28
:100AF0002175FDCDC6FEE1CD4BFFCD3EFFCD3EFFC6
:100B0000DB01FEFF20FAE9694C6F6164202D20496A
:100B10006E74656C2D486578204C6F616465722039
:100B20002D2053323030373138005374617274697C
:100B30006E6720416464726573733A20004C6F6184
:100B400064206572726F72202D2053797374656D05
:100B50002068616C7465640057616974696E672010
:100B6000696E7075742073747265616D2E2E2E001F
:100B700053796E746178206572726F7221004368D8
:100B800065636B73756D206572726F722100694CBD
:100B90006F61643A20004164647265737320766902
:100BA0006F6C6174696F6E2100F5D5C501FFFF217F
:100BB000A3FDCDC6FECD3EFFCD72FFFE0D28F9FE92
:100BC0000A28F5FE2028F1CD1AFFCD69FFFE3AC2B2
:100BD000A3FECDE1FE571E00CDBEFECDD6FE3EFFEC
:100BE000B82005B92002444D7CCDBEFE7DCDBEFEB1
:100BF000CDE1FECDBEFEFE01201ECDE1FECDBEFE4E
:100C00007BA72866CD3EFF21D9FDCDC6FE21C9FDBB
:100C1000CDC6FE01FFFF18527AA7282CCDE1FECDEC
:100C2000BEFEE5C5A701F0FCED42C1E1DA8EFECDC6
:100C30003EFF21D9FDCDC6FE21E1FDCDC6FE01FF5F
:100C4000FF182777231518D0CDE1FECDBEFE7BA778
:100C500020B2CD3EFFC303FECD3EFF21D9FDCDC660
:100C6000FE21BBFDCDC6FE01FFFFCD3EFF6069C189
:100C7000D1F1C9C54F7B915F79C1C9F5E57EFE0011
:100C80002806CD69FF2318F5E1F1C9F5CDE1FE672E
:100C9000CDE1FE6FF1C9C5CDF4FECB07CB07CB0785
:100CA000CB0747CDF4FEB0C1C9CD72FFCD1AFFCD41
:100CB00006FF30F5CD23FFCD2EFFC9FE47D0FE3015
:100CC00030023FC9FE3AD8FE4130023FC937C9FE63
:100CD00061D8FE7BD0E65FC9FE3A3802D607D6302F
:100CE000E60FC9F5E60FC630FE3A3802C607CD69F1
:100CF000FFF1C9F53E0DCD69FF3E0ACD69FFF1C98F
:100D0000E5F57CCD58FF7DCD58FFF1E1C9F5C5472C
:100D10000F0F0F0FCD2EFF78CD2EFFC1F1C9F53E7D
:100D200001D301F1D300C9DB01FEFFCA72FFC9493B
:100D30004F533A2043757272656E742000444542E9
:100D400055473A20626F6F744D6F64653A20256491
:100D50000D0A002564204B42797465730D000D2047
:100D60002D3E004368616E6765642073706565643D
:100D70002077696C6C2062652065666665637469BE
:100D80007665206166746572206E65787420726580
:100D9000626F6F74210D0A0A000D0A0A000D202DE2
:100DA0003E256C642020200D000D0A0A0020202022
:100DB00020202020202020202020202020200D0066
:100DC0000D202D3E003F566572626F736974792065
:100DD0006C6576656C2025640D0A000D0A456E74FD
:100DE000657220796F75722063686F696365203E54
:100DF0002000202025633A2052414D2073697A65F6
:100E000020282564204B4279746573290D0A00203F
:100E10002025633A20536574205254432044617462
:100E2000652F54696D650D0A00202025633A205313
:100E300065742053657269616C20506F7274205321
:100E4000706565642028256C64290D0A0020202522
:100E5000633A20546F67676C652043502F4D2041E3
:100E600075746F6578656320282D3E202573290DE4
:100E70000A00202025633A204368616E6765205A86
:100E8000383020436C6F636B205370656564202895
:100E90002D3E202564204D487A290D0A002020256A
:100EA000633A2054696E794261736963320D0A0AAC
:100EB00000202025633A20694C6F61640D0A000D03
:100EC0000A202025633A204175746F626F6F740D9C
:100ED0000A00202025633A204C6F61642F5365740B
:100EE000204F532000202025633A20466F727468FB
:100EF0000D0A00202025633A2042617369630D0AC0
:100F000000202025633A2045786974207769746849
:100F10006F7574206368616E6765202827256327D5
:100F2000290D0A0A000D0A494F533A2053656C6592
:100F3000637420426F6F74204D6F6465206F722060
:100F400053797374656D20506172616D657465725B
:100F5000733A0D0A0A00494F533A2043502F4D204F
:100F60004175746F657865632069732025730D0A78
:100F700000494F533A20466F756E642053494F41E4
:100F8000202F2053494F42204F7074696F6E0049E3
:100F90004F533A20466F756E6420475045204F707E
:100FA00074696F6E0020284354532C2052545320F0
:100FB000757365642061732042414E4B322C204290
:100FC000414E4B33207369676E616C2C2043453270
:100FD00020696E7665727465642900202843545335
:100FE00020757365642061732042414E4B3220733B
:100FF00069676E616C2900494F533A202564204B84
:1010000042797465732052414D00494F533A205A3A
:10101000383020636C6F636B2073657420617420BB
:101020002564204D487A0D0A00494F533A20466FF7
:10103000756E6420657874656E646564207365728E
:1010400069616C2052782062756666657220282579
:1010500064206279746573290D0A00322E302E32B5
:101060003630313232202D204A616E203236203225
:101070003032362031393A32303A3132000D0A0AF4
:101080005A38302D4D4243322D4E47202D204130CD
:101090003430363138202D2041546D65676133324C
:1010A000202D202564204D487A0D0A00494F533ADF
:1010B00020436865636B20534420616E6420707226
:1010C0006573732061206B657920746F2072657081
:1010D0006561740D0A00202D2046696C653A200078
:1010E000206F7065726174696F6E005245414400F3
:1010F0004F50454E004D4F554E5400206F6E20000E
:10110000554E4B4E4F574E004E4F5F46494C455340
:10111000595354454D004E4F545F454E41424C4546
:1011200044004E4F545F4F50454E4544004E4F5F74
:1011300046494C45004E4F545F5245414459004486
:1011400049534B5F455252000D0A494F533A2053C1
:1011500044206572726F7220003F3F53494F2563F0
:101160003A2041637475616C2062617564726174C8
:10117000653A2025640D0A003F3F53494F25633AE5
:101180002043616C63756C61746564206469766981
:10119000736F723A2025640D0A003F3F53494F2573
:1011A000633A204465736972656420626175647294
:1011B0006174653A2025640D0A003F3F3F53494F53
:1011C00025633A205365744175746F48616E64738A
:1011D00068616B652025642C2025640D0A003F3F63
:1011E0003F3F3F53494F25633A2052656164526542
:1011F000676973746572203078253032582028254D
:101200007329207265733D3078253032580D0A00FD
:101210003F3F3F3F3F53494F25633A205772697420
:10122000655265676973746572203078253032586D
:1012300020282573292076616C3D3078253032587E
:101240000D0A003F3F3F53494F25633A20577269CB
:1012500074654279746520307825303258202563D2
:101260000D0A003F3F3F53494F25633A20526561C5
:101270006442797465203078253032582025630D1A
:101280000A003F3F3F3F53494F25633A20527820A1
:101290004649464F204C6576656C3A2025640D0A18
:1012A000003F3F3F3F53494F25633A205478204643
:1012B00049464F2053706163653A2025640D0A004A
:1012C000202D20697271537461747573203D200064
:1012D00044454255473A20494E542041434B2063F0
:1012E00079636C6500202D20696F44617461203D35
:1012F000200044454255473A205359534952510022
:10130000202D20697271537461747573203D200023
:1013100044454255473A2053455220525800726581
:101320007365727665640D0A006175746F2052549E
:10133000532F4354530D0A006175746F20586F6E1C
:101340002F586F666620284E5949290D0A00646996
:101350007361626C650D0A00202D2068616E6473F4
:1013600068616B653A2025642000202D206261753C
:1013700064726174653A20256C640D0A003F3F5326
:10138000494F423A003F3F53494F413A002073656D
:101390007420636F6E74726F6C3A2030782530322F
:1013A000580000003A0037003400310000003B00D4
:1013B00038003500320000003900360033003000BC
:1013C00002020202020202020404040404040404ED
:1013D00003030303030303030101010101010101ED
:1013E00001020408102040800102040810204080FF
:1013F00001020408102040800102040810204080EF
:1014000000000002000000000000000005040007CA
:1014100000000000000000000000000000000000CC
:101420003F3F3F53494F25633A204649464F536556
:1014300074547269676765724C6576656C282573AC
:101440005F4649464F3A2026640D0A003F53494FF4
:1014500025633A204C435220526567697374657264
:101460003A203078253032780D0A000D0A0A494FAB
:10147000533A2042617564207265636F76657279B4
:1014800020646F6E65202D20506C6561736520723D
:1014900065626F6F74206E6F77210000CF29CA31AB
:1014A00011241FBECFE5D8E0DEBFCDBF24E0A0E50C
:1014B000B2E001C01D92A037B207E1F712E0A0E64A
:1014C000B0E0EAEEFEE602C005900D92A035B1074D
:1014D000D9F71AE0CFE4DAE004C02197FE010E94B8
:1014E0004335CE34D107C9F70E94232A0C946837BC
:1014F0000C940000282F9091250381E0913208F090
:101500003FC0809101038111FCCF8091240332E020
:1015100030930103209300032FEF2093FF0224E078
:1015200033E03093FE022093FD021092FC02909370
:10153000FB021092FA029091FA02880F892B809395
:10154000FA028091F902813011F51092F90280912E
:10155000FA0283B906B603FCFACF85EC86BF809108
:1015600001038230E1F38091FF028F3F91F080917F
:10157000FF02803281F08091FF02803371F084E0BD
:10158000109203031092250310920203089585EE32
:10159000E5CF80E0F5CF82E0F3CF83E0F1CF81E0CB
:1015A0000C947A0A91E090930203809324031092A2
:1015B00003031092250308959091F5028091F4029F
:1015C0002FEF3FEF981748F4E92FF0E0EC52FD4F72
:1015D000208130E09F5F9093F502C90108959091BA
:1015E000F5028091F4022FEF3FEF981748F4E92FAE
:1015F000F0E0EC52FD4F208130E09F5F9093F502C8
:10160000C9010895FB01A485B585ED91FC91119761
:101610000190F081E02D682FCD01099590E080E0E8
:10162000089520916404309165048217930760F453
:1016300020916004309161042115310529F0280FB3
:10164000391FF9018081089580E0089587E090E0D6
:101650000197F1F70895843059F028F4813099F01A
:10166000823089F00895853039F0873041F008954F
:101670008FB58F778FBD08958FB58F7DFBCF85B5E3
:101680008F7D85BD089583B78F7D83BF0895CF93E8
:10169000DF93282F30E0F901E050FC4E8491F901EE
:1016A000E052FC4ED491F901E054FC4EC491CC239D
:1016B000A1F081110E942B0BEC2FF0E0EE0FFF1F29
:1016C000EA54FC4EA591B491EC91ED2381E090E0B9
:1016D00009F480E0DF91CF91089580E090E0FACFA7
:1016E0001F93CF93DF93282F30E0F901E050FC4E99
:1016F0008491F901E052FC4ED491F901E054FC4E82
:10170000C491CC23A9F0162F81110E942B0BEC2F32
:10171000F0E0EE0FFF1FE455FC4EA591B4918FB79A
:10172000F894EC91111108C0D095DE23DC938FBFA3
:10173000DF91CF911F910895DE2BF8CFCF93DF93E8
:1017400090E0FC01E052FC4E249180549C4EFC0140
:1017500084918823C9F090E0880F991FFC01EE5511
:10176000FC4EA591B491FC01E455FC4EC591D49179
:1017700061110DC09FB7F8948C91209582238C93B2
:101780008881282328839FBFDF91CF9108956230FD
:1017900051F49FB7F8943C91822F809583238C93CA
:1017A000E8812E2BEFCF8FB7F894EC912E2B2C9352
:1017B0008FBFEACFCF92DF92EF92FF926FB7F8948C
:1017C0008091CB029091CC02A091CD02B091CE023B
:1017D0005091CA0222B738B7432F417030FF04C07E
:1017E00041E02F3F09F440E06FBF6C017D0137E01D
:1017F000CC0CDD1CEE1CFF1C3A95D1F7C50ED11C9C
:10180000E11CF11CC81AD90AEA0AFB0A880F991FC1
:10181000AA1FBB1FC81AD90AEA0AFB0A63E0CC0C4C
:10182000DD1CEE1CFF1C6A95D1F730E0AAEAB2E09D
:101830000E94F234672F782F892F99276C0D7D1D18
:101840008E1D9F1D442321F066557D4F8F4F9F4F66
:10185000FF90EF90DF90CF9008958F929F92AF927C
:10186000BF92CF92DF92EF92FF924B015C010E94F8
:10187000DA0B6B017C010E94DA0B6C197D098E0971
:101880009F09683E734081059105A8F321E0821A03
:101890009108A108B10888EEC80E83E0D81EE11CAB
:1018A000F11C81149104A104B10429F7FF90EF9079
:1018B000DF90CF90BF90AF909F908F9008952FB7FB
:1018C000F8946091CB027091CC028091CD029091FE
:1018D000CE022FBF089581E08093C8020895AF9291
:1018E000BF92CF92DF92EF92FF920F931F93CF930D
:1018F000DF936C017B018B01040F151FEB015E016F
:10190000AE18BF08C017D10759F06991D601ED9103
:10191000FC910190F081E02DC6010995892B79F7A2
:10192000C501DF91CF911F910F91FF90EF90DF9054
:10193000CF90BF90AF900895FC01538D448D252F1B
:1019400030E0842F90E0821B930B541710F0CF9659
:10195000089501970895FC01918D828D981761F08B
:10196000A28DAE0FBF2FB11D5D968C91928D9F5FA2
:101970009F77928F90E008958FEF9FEF0895FC017D
:10198000918D828D981731F0828DE80FF11D858D34
:1019900090E008958FEF9FEF0895FC01918D228DC7
:1019A000892F90E080589F4F821B91098F7799274C
:1019B000089587E793E00E94CD0C21E0892B09F47C
:1019C00020E0822F08950E94D90C882319F081E02D
:1019D0008093C8020895FC01A48DA80FB92FB11DF2
:1019E000A356BF4F2C91848D90E001968F73992759
:1019F000848FA689B7892C93A089B1898C91827430
:101A00008C93938D848D981306C00288F389E02D02
:101A100080818F7D80830895EF92FF920F931F93B3
:101A2000CF93DF93EC0181E0888F9B8D8C8D981391
:101A300019C0E889F989808185FF14C09FB7F8949F
:101A4000EE89FF896083E889F989808182748083C7
:101A50009FBF81E090E0DF91CF911F910F91FF90A8
:101A6000EF900895F62E0B8D10E00F5F1F4F0F7350
:101A70001127E02E8C8D8E110CC00FB607FCFACF0B
:101A8000E889F989808185FFF5CFCE010E94EB0CB2
:101A9000F1CFEB8DEC0FFD2FF11DE356FF4FF082E0
:101AA0009FB7F8940B8FEA89FB8980818062CFCF42
:101AB0000F931F93CF93DF938C01D0E0C0E0F80128
:101AC000EC0FFD1F6491662341F087E793E00E94CD
:101AD0000C0D892B11F02196F2CFCE01DF91CF9121
:101AE0001F910F910895CF93DF93EC01888D882388
:101AF000B9F0AA89BB89E889F9898C9185FD03C071
:101B0000808186FD0DC00FB607FCF7CF8C9185FF55
:101B1000F2CF808185FFEDCFCE010E94EB0CE9CFA3
:101B2000DF91CF91089585ED86BF06B604FCFDCF09
:101B300010920103089520918502260F3327331F49
:101B400021323105ECF420910103FC0190E080E0AA
:101B5000243069F082E00895A09185022191AC01C2
:101B60004D595D4FA40FB52FB11D2C9301968617CB
:101B700098F380918502680F6093850280E0089554
:101B800081E00895089508950895E091F502809107
:101B9000F402E81730F4F0E0EC52FD4F808190E061
:101BA00008958FEF9FEF08958091F4029091F502D0
:101BB000891B990B0895CF92DF92EF92FF920F93BA
:101BC0001F93CF93DF937C01CB018A012091020305
:101BD000222389F0EB016B01C40ED51ECC15DD0567
:101BE00069F06991D701ED91FC910190F081E02DB0
:101BF000C7010995F3CF642F0E949B0DC801DF91A7
:101C0000CF911F910F91FF90EF90DF90CF900895AB
:101C1000CF93DF931F92CDB7DEB769832091020384
:101C20002223F9F020912503203258F021E030E002
:101C3000FC013383228390E080E00F90DF91CF910D
:101C4000089580910303E82FF0E0EC5FFC4F998149
:101C500090838F5F809303038093250381E090E05E
:101C6000ECCF61E0CE0101960E949B0DF7CF682F6B
:101C700084E594E00C94080E0F931F93CF93DF93A9
:101C8000082F162FD42F88E60E94D20A90E080E019
:101C90000E94370E8091F802CAE06C2F0E94013535
:101CA0008295807F682F690F84E594E00E94080E7A
:101CB0008091F7026C2F0E9401358295807F682FFA
:101CC000690F84E594E00E94080E8091F6026C2F63
:101CD0000E9401358295807F682F690F84E594E02A
:101CE0000E94080E81E090E00E94370E802F6C2F3A
:101CF0000E9401358295807F682F690F84E594E00A
:101D00000E94080E812F6C2F0E9401358295807FE2
:101D1000682F690F84E594E00E94080E8D2F6C2FC8
:101D20000E9401358295807F682F690F84E594E0D9
:101D30000E94080EDF91CF911F910F910C94CF0A52
:101D400090E080E008950F931F93E0917503F09168
:101D500076039B01AC01225031094109510986816A
:101D60009781A085B1850297A109B1092817390784
:101D70004A075B0778F4A281B0E00E94B034028980
:101D8000138924893589600F711F821F931F1F914A
:101D90000F91089560E070E0CB01F9CF0F931F938E
:101DA000CF93DF93EC01E0917503F09176031982F4
:101DB00018826C817D818E819F81613071058105E2
:101DC000910581F1068117812085318560177107A2
:101DD0008207930738F5611571058105910539F47E
:101DE0002081233021F466857785808991896887F1
:101DF00079878A879B87611571058105910569F04F
:101E00000E94A30E6C877D878E879F8790E080E07D
:101E1000DF91CF911F910F91089566857785808915
:101E20009189F0CF81E090E0F3CF8FB9779BFECF1F
:101E300008958FEF0E94150F8FB108950F931F9390
:101E4000CF93DF93C091AA02D091AB022197CD3FEF
:101E50008FEFD80721F080E00E94150FF7CF0E9486
:101E6000190F8F71853079F0D1E0C0E061E084E036
:101E70000E94700B0E94190F8D2F9C2FDF91CF9124
:101E80001F910F91089508E813E1C8E5D2E00E9480
:101E9000190F8F3F49F00115110531F3CE0101975C
:101EA000F1F701501109F3CFD1E0C0E0012BF1F2BD
:101EB000D0E0DCCFFF920F931F93CF93DF93C82F17
:101EC000D42F152F062FF72E80914A0381113FC082
:101ED00083E58DB91EB8C7FF09C040E050E0BA01E4
:101EE00087E70E945A0F823060F5CF7761E084E087
:101EF0000E94700B0E94190F60E084E00E94700B3A
:101F00000E94190F8C2F0E94150F8F2D0E94150F04
:101F1000802F0E94150F812F0E94150F8D2F0E9478
:101F2000150F85E9C03421F087E8C83409F081E055
:101F30000E94150FCAE00E94190F87FF02C0C1500E
:101F4000D1F7DF91CF911F910F91FF90089580E518
:101F50008DB981E08EB9BFCFCF92DF92EF92FF9221
:101F60000F931F93CF93DF937C01690180914A0304
:101F700083FD07C089E0440F551F661F771F8A95B0
:101F8000D1F781E50E945A0F811108C0C0E4DCE955
:101F90000E94190F8F3F29F42197D1F7C1E0D0E0BB
:101FA00022C08E3FD9F7C2E0D2E0C01BD10BCC19C2
:101FB000DD0981E0C81AD10818F00E94190FF9CF85
:101FC000E114F10401F10E0D1F1D0E94190FF7011C
:101FD00081937F010E171F07C1F70E94190F2197E8
:101FE000E1F7D0E0C0E061E084E00E94700B0E9465
:101FF000190FCE01DF91CF911F910F91FF90EF90BC
:10200000DF90CF9008950E94190F01501109D9F760
:10201000E4CFCF92DF92EF92FF920F931F93CF9373
:10202000DF93EC016A017B0102E010E02EEF31E06A
:102030000E94AC0F892B31F58881998185359A4AA8
:1020400059F526E330E0B701A601CE010E94AC0F9E
:10205000892B29F4888199818634914489F002E0A2
:1020600010E022E530E0B701A601CE010E94AC0FDE
:10207000892BA1F481E0288139812634314419F477
:1020800080E001C083E0DF91CF911F910F91FF901D
:10209000EF90DF90CF90089582E0F5CF81E0F3CF0D
:1020A0004F925F926F927F928F929F92AF92BF9268
:1020B000CF92DF92EF92FF920F931F93CF93DF9314
:1020C000CDB7DEB7A4970FB6F894DEBF0FBECDBF75
:1020D000109276031092750380914A03882339F099
:1020E00084E00E94470B892B11F40E941E0F61E0CF
:1020F00084E00E94700B61E084E00E949E0B61E02E
:1021000085E00E949E0B61E087E00E949E0B61E0EB
:1021100084E00E949E0B83E58DB91EB861E084E0E7
:102120000E94700B1AE00E94190F1150E1F740E075
:1021300050E0BA0180E40E945A0F182F813009F450
:1021400041C010E010934A0361E084E00E94700BEC
:102150000E94190F82E090E01123E9F040E050E086
:10216000BA01CE0101960E940910C12CD12C760132
:10217000813009F096C000E110E02EEB31E040E044
:1021800050E0BA01CE0101960E94AC0F892B09F4F0
:1021900078C081E090E0A4960FB6F894DEBF0FBE41
:1021A000CDBFDF91CF911F910F91FF90EF90DF9006
:1021B000CF90BF90AF909F908F907F906F905F90E7
:1021C0004F9008954AEA51E060E070E088E40E9490
:1021D0005A0F813091F5CE0101967C016E0195E098
:1021E000C90ED11C87010E94190FF80181938F013C
:1021F000CE16DF06C1F78B81813009F0A2CF8C812A
:102200008A3A09F09ECF80E1C82E87E2D82E98E561
:10221000A92E92E0B92E40E050E060E070E489EE33
:102220000E945A0F882309F4C9C0C5010197F1F72C
:10223000F1E0CF1AD10879F784CF40E050E0BA013D
:1022400089EE0E945A0F01E4823010F412E009EE88
:10225000A0E1EA2EA7E2FA2EB8E5CB2EB2E0DB2E03
:1022600040E050E0BA01802F0E945A0F882309F401
:10227000BBC0C6010197F1F7F1E0EF1AF10881F751
:1022800060CF8D81811103C086E090E084CFC98446
:10229000DA84EB84FC84B701A601CE0101960E948A
:1022A0000910833009F475CF8111EECF04E210E0FC
:1022B0002DE030E0B701A601CE0101960E94AC0FDF
:1022C000892B09F066CF2A853B8550E040E0211537
:1022D00031054105510521F4288D398D4A8D5B8DDD
:1022E000AC81B0E00E94B0344B015C014A815B815B
:1022F00070E060E0C40ED51EE61EF71EC0925503C6
:10230000D0925603E0925703F0925803E981E0938C
:102310004D038D819E819093500380934F030F81D5
:10232000188530E020E0011511052105310521F463
:102330000C891D892E893F89F4E096958795FA9539
:10234000E1F72C01712C612C041B150B260B370BAC
:10235000C901B801681979098A099B0964197509C5
:10236000860997092E2F30E050E040E00E94213589
:10237000DA01C9010296A11DB11D8093510390930A
:102380005203A0935303B0935403265F3F40410987
:1023900051092F3F3F4E4105510588F1873F9F4F1F
:1023A000A105B10588F570CF82E080934B03D5017C
:1023B000C4018C0D9D1DAE1DBF1D2DC040E050E021
:1023C000BA018AE70E945A0F8111BBCE0E94190FF1
:1023D000F70181937F010E171F07C1F789811CE068
:1023E00086FDB0CE14E0AECE40E052E060E070E09A
:1023F00080E50E945A0F882309F4A4CEA2CE873F1D
:102400009F4FA105B10580F283E080934B0388A123
:1024100099A1AAA1BBA18093590390935A03A093B9
:102420005B03B0935C03C40CD51CE61CF71C8C0C3E
:102430009D1CAE1CBF1C80925D0390925E03A09217
:102440005F03B092600310924C038BE493E090938F
:1024500076038093750390E080E09DCE0F931F93E9
:10246000CF93DF9300D000D0CDB7DEB762307105D7
:102470008105910528F461E070E080E090E055C0AE
:10248000E0917503F09176030681178120853185EF
:10249000601771078207930770F7AB01BC01808159
:1024A000823031F1833039F79A012F773327220FA9
:1024B000331F220F331F97E0769567955795479501
:1024C0009A95D1F782859385A485B585480F591FC4
:1024D0006A1F7B1F04E010E0CE0101960E94AC0F42
:1024E000892B49F669817A818B819C819F701DC0FF
:1024F0009A013327220F331F452F562F672F772737
:1025000082859385A485B585480F591F6A1F7B1F57
:1025100002E010E0CE0101960E94AC0F892B09F079
:10252000AACF69817A8190E080E00F900F900F90A0
:102530000F90DF91CF911F910F9108956F927F922D
:102540008F929F92AF92BF92CF92DF92EF92FF92C3
:102550000F931F93CF93DF93C0917503D0917603B0
:10256000FC0111821082209709F4AFC0298120FF5D
:10257000AFC00A8D1B8D2C8D3D8D4E895F89688D76
:10258000798D68017901C41AD50AE60AF70AB701FC
:10259000A601403251056105710520F040E250E08E
:1025A00060E070E05C017A013AE2832E33E0932E22
:1025B000612C42E0742EE114F10409F48CC08E8980
:1025C0009F89A88DB98DAC01BD0151706627772711
:1025D000452B462B472B09F04AC0DA80DA94AC0130
:1025E000BD0129E076956795579547952A95D1F7CE
:1025F000D42251F5892B8A2B8B2BD9F46E8D7F8DAC
:1026000088A199A16230710581059105C8F41982EC
:1026100081E090E0DF91CF911F910F91FF90EF90BB
:10262000DF90CF90BF90AF909F908F907F906F90F2
:1026300008956AA17BA18CA19DA10E942E12E2CFD8
:102640006AA37BA38CA39DA36AA17BA18CA19DA15E
:102650000E94A30E6115710581059105C1F26D0DF2
:10266000711D811D911D6EA37FA388A799A72E8937
:102670003F893170C301821B930B67018E159F0543
:1026800008F46C014EA15FA168A579A58601C4017B
:102690000E94AC0F892B09F0BACF8E899F89A88D33
:1026A000B98D8C0D9D1DA11DB11D8E8B9F8BA88F8B
:1026B000B98F8C0C9D1CEC18FD08F501808191816F
:1026C000C80ED91ED182C08276CF85E090E0A2CF1D
:1026D00084E090E09FCF90E080E09CCF4F925F92AB
:1026E0006F927F928F929F92AF92BF92CF92DF9222
:1026F000EF92FF92CF93DF9300D000D000D0CDB700
:10270000DEB720917503309176033E832D8321152A
:10271000310509F40CC1D90111962C91119720FFB4
:1027200009C15A96CD90DD90ED90FC905D976C15A7
:102730007D058E059F0510F46B017C01ED81FE8106
:1027400046885788608C718C168A178A108E118E75
:10275000C114D104E104F10409F4E6C08280912C93
:10276000B12CA12C39E0880C991CAA1CBB1C3A95F1
:10277000D1F7411451046104710409F470C0B1E04F
:102780004B1A510861087108C701B60161507109FF
:1027900081099109A50194010E94213529833A8379
:1027A0004B835C83C301B201A50194010E942135D2
:1027B00089819A81AB81BC8182179307A407B507F1
:1027C00008F44DC088279927DC0188199909AA09BE
:1027D000BB0984219521A621B721ED81FE81868B3D
:1027E000978BA08FB18FC81AD90AEA0AFB0A62A197
:1027F00073A184A195A18C149D04AE04BF0408F0BC
:1028000058C00E942E12623071058105910568F052
:10281000AD81BE8116964D905D906D907C9019971C
:10282000641575058605970540F1ED81FE811182DD
:1028300081E090E026960FB6F894DEBF0FBECDBFC4
:10284000DF91CF91FF90EF90DF90CF90BF90AF904E
:102850009F908F907F906F905F904F900895AD8183
:10286000BE815E966D917D918D919C919197FD01B8
:1028700062A373A384A395A3BECFAD81BE819296BC
:102880006D937D938D939C93959756964D905D9007
:102890006D907C905997480C591C6A1C7B1CFD015B
:1028A000468A578A608E718EC818D908EA08FB08D4
:1028B000A2CFAD81BE8156968D909D90AD90BC907B
:1028C0005997C80CD91CEA1CFB1CFD01C68AD78A83
:1028D000E08EF18E0E94A30EAB01BC0141155105A3
:1028E0006105710529F4AD81BE8111961C92A0CFBE
:1028F000ED81FE8182818150990B092E000CAA0B7B
:10290000BB0B29E0F694E794D794C7942A95D1F7A6
:102910008C219D21AE21BF21480F591F6A1F7B1FAB
:1029200046A357A360A771A790E080E083CF85E01E
:1029300090E080CF84E090E07DCF4F925F926F92E5
:102940007F92BF92CF92DF92EF92FF920F931F93ED
:10295000CF93DF93CDB7DEB7EC970FB6F894DEBF19
:102960000FBECDBFE0907503F0907603E114F10443
:1029700009F404C1F70111829E012F5C3F4F3CA373
:102980002BA39C016901F90180812F5F3F4F8032A9
:10299000C9F38F3209F469011DA21EA21FA218A655
:1029A000F6018081A0E2BA2E803208F0D4C0CE01B8
:1029B00081960E94CE0E1982009709F407C1EC9609
:1029C0000FB6F894DEBF0FBECDBFDF91CF911F9140
:1029D0000F91FF90EF90DF90CF90BF907F906F901E
:1029E0005F904F90089520E0E0E088E0D1C0C30EF2
:1029F000D11C81E0913208F080E01B968C93CE01CF
:102A000081960E94CE0E0097D1F629A13AA12F708F
:102A10003327F5E0220F331FFA95E1F74DA55EA5A8
:102A20006FA578A900E210E0CE0101960E94AC0FDC
:102A3000892B19F081E090E0C2CF8981811103C018
:102A400083E090E0BCCF8C8583FD13C00BA11CA15B
:102A50009E012F5F3F4FD801B801655F7F4F6A1716
:102A60007B0709F4AEC0F90141919F019D9149177F
:102A7000B1F309A11AA10F5F1F4F11F38DA59EA5F8
:102A8000AFA5B8A90097A105B105D1F298012F70A3
:102A90003327232BB9F40196A11DB11D8DA79EA745
:102AA000AFA7B8AB69A57AA58BA59CA5F701611561
:102AB00071058105910549F48481958108171907ED
:102AC00008F0BECF1AA309A3A0CF2281E22FE150C4
:102AD000FF0BAF019801E4E036952795EA95E1F701
:102AE00024233523232B71F70E942E1262307105A7
:102AF0008105910508F49ECFF701468057806084D8
:102B00007184641575058605970508F099CF69A746
:102B10007AA78BA79CA70E94A30E6DA77EA78FA75D
:102B200098ABD0CF84FF8CCFF70180818330F1F454
:102B30008D899E89B0E0A0E0DC01992788274B8D24
:102B40005C8D70E060E0842B952BA62BB72B8DA3BA
:102B50009EA3AFA3B8A7ABA1BCA1FD01CD010B966D
:102B60008E179F0709F43FCFB192FACF80E090E033
:102B7000DC01E5CF80E090E0DC013DC085E090E045
:102B80001ECF883009F033CF9BE0282FE32F892F09
:102B900031E03E0FEC0DFD2DF11D9081913208F4D6
:102BA00026CF9F3209F423CF9E3259F3281708F01D
:102BB0001ECFFD01E20FF11D9083982F81E0820F5F
:102BC000E4CFF8019385992309F4ACCF8981882358
:102BD00009F436CF8C8584FD33CFE0917503F091F5
:102BE00076038081833031F68D899E89B0E0A0E044
:102BF000DC01992788274B8D5C8D70E060E0842B89
:102C0000952BA62BB72BF701868F978FA0A3B1A387
:102C10008D8D9E8DAF8DB8A1828F938FA48FB58F30
:102C2000168A178A108E118E81E0818390E080E0F1
:102C3000C6CECF93DF93D82FC0E061E08FE00E9433
:102C4000700B60E08FE00E94700BCF5FDC13F5CF5C
:102C5000DF91CF9108951F93CF93DF93182FD92F32
:102C600081E00E94191661E08091BB02823009F078
:102C700060E082E00E94700BCFEFCABB81E28BBBA9
:102C800082E00E9419161ABACBBB82E00E94191684
:102C9000CABB1BBB83E00E941916DBBB82E00E940B
:102CA00019161ABACBBB61E08091BB02823009F4DD
:102CB00060E082E0DF91CF911F910C94700BCF9375
:102CC000DF93D82F81E00E94191661E08091BB024A
:102CD000823009F060E082E00E94700BCFEFCABB47
:102CE00086E38BBB82E00E9419161ABACBBB82E046
:102CF0000E941916CABBDBBB82E00E9419161ABAE1
:102D0000CBBBC091BB0261E0C23009F460E082E05D
:102D10000E94700B83E00E94191681E00E94191630
:102D200061E0C23009F060E082E00E94700BCFEFFA
:102D3000CABB83E28BBB82E00E9419161ABACBBBD6
:102D400061E08091BB02823009F460E082E00E9481
:102D5000700B83E0DF91CF910C941916282F81E03E
:102D6000FB019191BF01992321F0921719F08F5F18
:102D7000F7CF80E00895AC01809101038111FCCF71
:102D8000962F81E080930103809300032FEF20931F
:102D9000FF0224ED32E03093FE022093FD021092F8
:102DA000FC022FEF260F2093FB028093FA02209162
:102DB000FA02440F551F822F842B8093FA028091D0
:102DC000F9028130D1F41092F9028091FA0283B9AC
:102DD00006B603FCFACF85EC86BF809101038130F3
:102DE000E1F38091FC02861710F49091FC0210929E
:102DF000F5029093F402892F089585EEEDCFCF93DD
:102E000088E60E94D20A90E080E00E94370E0E947D
:102E1000CF0A62E170E088E690E00E94BB160E9453
:102E2000EF0A982F92959770CAE08F709C9F800D43
:102E300011248093F8020E94EF0A982F92959F70B8
:102E40008F709C9F800D11248093F7020E94EF0ADF
:102E5000982F929593708F709C9F800D1124809372
:102E6000F6020E94EF0A0E94EF0A982F92959F7037
:102E70008F709C9F800D11248093D3020E94EF0AD3
:102E8000982F92959F708F709C9F800D1124809336
:102E9000D2020E94EF0A982F92959F708F709C9F8C
:102EA000800D11248093D1020E94EF0AC150E1F7F6
:102EB0000E94EF0A8093D002CF910895FC01019007
:102EC0000020E9F73197AF01481B590BBC0187E798
:102ED00093E00C946F0C8F929F92AF92BF920F93DE
:102EE0001F93CF93DF93CDB7DEB7A1970FB6F894BA
:102EF000DEBF0FBECDBF19A2423008F44AE08E01FA
:102F00000F5D1F4F842E912CB12CA12CA501940193
:102F10000E942135E62FB901CA01EA30F4F4E05DE0
:102F2000D801EE938D01232B242B252B79F790E0EC
:102F300080E0109719F0CD010E945E17A1960FB6A0
:102F4000F894DEBF0FBECDBFDF91CF911F910F91DF
:102F5000BF90AF909F908F900895E95CE1CF00976C
:102F600011F00C945E1790E080E008951F93CF93CA
:102F7000DF9300D0CDB7DEB7182F86EA91E00E942C
:102F8000AF17612F70E090E080E04AE00E946B177D
:102F9000105D1093620080E690E00E949D14CE01C7
:102FA00001960E949E1289818093B002882361F06D
:102FB00080EB91E00E94AF178AE293E00E94AF1786
:102FC00083EB91E00E94AF170F900F90DF91CF91AC
:102FD0001F910895CF93C82F8A3020F486EB91E09B
:102FE0000E94AF176C2F70E090E080E04AE0CF9134
:102FF0000C946B1781110E94FF1685EB91E00E94E3
:10300000AF178091D1020E94EA1788EB91E00E94ED
:10301000AF178091D2020E94EA1788EB91E00E94DC
:10302000AF178091D3020E94EA178EEA91E00E94C6
:10303000AF178091F6020E94EA178AEB91E00E9496
:10304000AF178091F7020E94EA178AEB91E00E9485
:10305000AF178091F8020C94EA178CEB91E00C9476
:103060005E17CF93DF930E94580DEC010E942D183C
:103070008C0F9D1FDF91CF91089587E793E00E9409
:10308000CD0C181619062CF487E793E00E94AB0CC0
:10309000F4CF8CEA90E10E94311887E793E00E9418
:1030A000CD0C18161906CCF70895CF93DF93682F2F
:1030B00087E793E00E940C0DEC010E942D188C0F05
:1030C0009D1FDF91CF910895CF93DF93682F70E01C
:1030D00090E080E04AE00E946B17EC010E942D18FE
:1030E0008C0F9D1FDF91CF910895CF93DF9383EBDA
:1030F00091E00E945E17EC010E942D188C0F9D1F1D
:10310000DF91CF9108950F931F93CF93DF93D82F23
:10311000C62F8A0188E491E10E94580D6C2F70E05F
:1031200090E080E04AE00E946B1780EB91E00E9403
:10313000AF178DE291E1C330C1F058F48FE391E114
:10314000C13099F085E391E1C23079F080E091E1FE
:103150000CC086E191E1C53041F082E291E1C530D9
:1031600020F088E091E1C63089F70E94580D8BEF7E
:1031700090E10E94580D80EF90E1D13031F085EF61
:1031800090E1D23011F48BEE90E10E94580D80EE68
:1031900090E10E94580D0115110539F086ED90E17E
:1031A0000E94580DC8010E94AF17DF91CF911F9167
:1031B0000F910C947518CF93DF93CDB7DEB72E9790
:1031C0000FB6F894DEBF0FBECDBF82E09BE09A87BA
:1031D00089871C861B8682E08C8387E793E09E8725
:1031E0008D87AE01495E5F4F6D897E89CE01019664
:1031F0000E940E322E960FB6F894DEBF0FBECDBFE2
:10320000DF91CF910895FF920F931F93CF93DF9398
:10321000F42E062F10E0C82FD0E08091CF02853029
:1032200020F11F924F93C801880F991F880F991F93
:1032300082519F4F9F938F931F926F93CE018F5B0D
:103240009F4F9F938F9380E192E19F938F9387E7A6
:1032500093E09F938F930E94DB188DB79EB70C96D7
:103260000FB6F8949EBF0FBE8DBF88E40E94D20AAD
:10327000C80123E0880F991F2A95E1F7CC0FDD1FC5
:103280008C2B9D2B0E94370E6F2D84E594E00E94BD
:10329000080E81E0DF91CF911F910F91FF900C9468
:1032A0007A0ADF92EF92FF920F931F93CF93DF93EF
:1032B000C82FD62E88E40E94D20A0D2D10E0D0E04F
:1032C000980193E0220F331F9A95E1F7CE01880F02
:1032D000991F822B932B0E94370E80E00E947A0A5E
:1032E00061E070E088E490E00E94BB160E94EF0A63
:1032F0007C018091CF02853020F1C70199279F93EF
:103300008F93000F111F000F111F02551F4F1F93A6
:103310000F931F92DF92CF5BDF4FDF93CF938EED42
:1033200091E19F938F9387E793E09F938F930E9400
:10333000DB188DB79EB70C960FB6F8949EBF0FBEE4
:103340008DBF8E2DDF91CF911F910F91FF90EF9048
:10335000DF900895CF93DF93D82F63E00E94511937
:10336000807CC82FC3608091CF028823B1F01F9268
:10337000CF931F92DF938CE494E19F938F9387E721
:1033800093E09F938F930E94DB188DB79EB70896AA
:103390000FB6F8949EBF0FBE8DBF4C2F63E08D2FEC
:1033A000DF91CF910C9403190F931F93CF93DF9369
:1033B000C82F162F8091CF02833018F182EC91E054
:1033C000662311F08FEB91E01F9220E32F939F93E0
:1033D0008F938C2F90E08F5B9F4F9F938F9380E212
:1033E00094E19F938F9387E793E09F938F930E943D
:1033F000DB188DB79EB70A960FB6F8949EBF0FBE26
:103400008DBF64E08C2F0E945119482F446064E006
:103410008C2F0E94031963E08C2F0E945119082FF2
:103420004FEB63E08C2F0E94031962E08C2F0E9407
:103430005119D82F482F406162E08C2F0E94031948
:1034400040EC11114CE067E08C2F0E9403194D2FC6
:1034500062E08C2F0E940319402F63E08C2FDF91D4
:10346000CF911F910F910C9403194F925F926F921D
:103470007F928F929F92AF92BF92CF92DF92EF9204
:10348000FF920F931F93CF93DF93C82F042FB52E76
:10349000A62E972E64E00E94511924E087FF21E0B8
:1034A00030E050E040E060E072EC81E090E00E94AB
:1034B000213529013A01CA01B901202F3B2D4A2D9E
:1034C000592D0E94213569017A0163E08C2F0E94F9
:1034D0005119182F482F406863E08C2F0E94031960
:1034E0004C2D60E08C2F0E9403194D2D61E08C2F34
:1034F0000E940319412F4F7763E08C2F0E9403191C
:10350000A701960144275527C301B2010E94213526
:103510003901842ED52F8091CF02823098F1CF5B74
:103520009F92AF92BF920F931F92CF938AE991E13E
:103530009F938F9307E713E01F930F930E94DB186D
:10354000DF92CF921F92CF9388E791E19F938F9361
:103550001F930F930E94DB18DF938F927F926F92DD
:103560001F92CF9389E591E19F938F931F930F93C0
:103570000E94DB188DB79EB74C960FB6F8949EBF8D
:103580000FBE8DBFB301882D9D2FDF91CF911F916D
:103590000F91FF90EF90DF90CF90BF90AF909F90F2
:1035A0008F907F906F905F904F900895FC01808185
:1035B0009181009711F00C94D23160E070E0CB0162
:1035C0000895FC0180819181009711F00C94F935E8
:1035D0000895EF92FF920F931F93CF93DF93EC0127
:1035E0007B018A0188819981009729F02A813B819A
:1035F0002417350788F4B8016F5F7F4F0E94823629
:10360000009791F0998388831B830A832C813D81E5
:10361000232B11F4FC0110821D830C83B7018881D8
:1036200099810E9461370CC088819981009711F0BF
:103630000E94F935198218821D821C821B821A820F
:10364000CE01DF91CF911F910F91FF90EF900895E0
:10365000AF92BF92CF92DF92EF92FF920F931F93A0
:10366000CF93DF93EC016B015A01790124173507E1
:1036700020F48B2D5901E42EF82E198218821B821A
:103680001A821D821C8250E040E06EEB71E0CE0198
:103690000E94E91AD60114960D911C91A016B1064C
:1036A00028F5E016F10608F48701D601ED91FC91AA
:1036B0001197E00FF11FF08010826D917C916A0DDF
:1036C0007B1D61157105F1F0FB0101900020E9F708
:1036D0003197AF01461B570BCE010E94E91AF60144
:1036E00080819181080F191FD801FC92CE01DF91D2
:1036F000CF911F910F91FF90EF90DF90CF90BF90EF
:10370000AF90089588819981009711F00E94F93552
:10371000198218821D821C821B821A82E0CF1F939D
:10372000CF93DF93EC01162F0E949B34181739F0CA
:10373000612FCE01DF91CF911F910C94A334DF91C3
:10374000CF911F9108950C949B34CF92DF92EF920A
:10375000FF920F931F93CF930E945F0C6B017C012C
:10376000C1E087E793E00E94CD0C892B09F09BC054
:103770000E945F0C6C197D098E099F09683B7B4094
:1037800081059105A0F462E08DE00E949E0B8DE022
:103790000E94470B892B09F0C0E061E08DE00E9498
:1037A0009E0B6AE070E080E090E00E942D0C0E9489
:1037B0005F0C00912603109127032091280330917C
:1037C0002903601B710B820B930B6D3271408105D5
:1037D0009105A0F080E00E94470B61E0892B09F081
:1037E00060E080E00E94700B0E945F0C60932603F3
:1037F0007093270380932803909329030E945F0C02
:103800006C197D098E099F09693B7B4081059105F3
:1038100008F4A7CFCC2309F4A4CF8FE090E00E9456
:10382000A31B893009F49DCF60E080E00E94700BFB
:1038300069E08FE090E00E948F1B8BE694E10E948C
:1038400031180E945F0CC0902603D0902703E090AF
:103850002803F09029036C197D098E099F096536AC
:1038600071058105910568F380E00E94470B61E0D6
:10387000892B09F060E080E00E94700B8DE00E94CF
:10388000470B61E0892B09F060E08DE00E94700B2E
:103890000E945F0C60932603709327038093280394
:1038A00090932903CECFCF911F910F91FF90EF906E
:1038B000DF90CF9008959F92AF92BF92CF92DF9208
:1038C000EF92FF920F931F93CF93DF93CDB7DEB7A5
:1038D0002E970FB6F894DEBF0FBECDBF61E086E134
:1038E0000E949E0B60E086E10E94700B61E080E028
:1038F0000E949E0B60E080E00E94700B62E08DE011
:103900000E949E0B8DE00E94470B8C0161E08DE0D0
:103910000E949E0B61E08DE00E94700B62E081E0EE
:103920000E949E0B61E081E00E949E0B61E081E0BD
:103930000E94700B61E082E00E949E0B60E083E0D9
:103940000E949E0B62E08EE00E949E0B61E08EE082
:103950000E949E0B61E08EE00E94700B1ABA8FEFFE
:103960008BBB62E085E10E949E0B62E084E10E94D5
:103970009E0B62E083E10E949E0B62E082E10E9466
:103980009E0B80E190E00E94A31B8093BB028330DA
:1039900038F060E080E190E00E948F1B1092BB0243
:1039A0008FE090E00E94A31BC12C72ECD72EEE2476
:1039B000E394F12C893050F4E82FF0E0EE0FFF1F74
:1039C000E456FF4FC080D180F12CE12C60E87DE807
:1039D0008BE590E0A70196010E9421352150310925
:1039E000410951095695479537952795E0918703E9
:1039F000F091880382E08083211580E13807A8F0E8
:103A0000E0918703F0918803108260EC76EC8DE200
:103A100090E0A70196010E9421352150310941090A
:103A20005109569547953795279587E7E82E83E006
:103A3000F82EE0918303F09184033083E0918503B5
:103A4000F0918603208310928F03E0918B03F09115
:103A50008C0386E88083E0918903F0918A0380815A
:103A600088698083E0918903F0918A0380818F7D4A
:103A700080831F9288E18F938DE790E19F938F93CE
:103A8000FF92EF920E94DB188BE590E10E943118C3
:103A90000E942D181F9280E88F9389E290E19F93F6
:103AA0008F93FF92EF920E94DB1861E08CE00E94FE
:103AB0009E0B61E08CE00E94700B61E08BE00E9445
:103AC0009E0B60E08BE00E94700B61E08FE00E9433
:103AD0009E0B60E086E10E94700B86E00E94191642
:103AE00061E086E10E94700B82E00E941916F0905E
:103AF000BB020FB6F894DEBF0FBECDBFF11009C2F6
:103B000062E08AE00E949E0B61E082E00E94700BFE
:103B100061E087E10E949E0B60E087E10E94700BEC
:103B200064E670E080E090E00E942D0C61E087E1A7
:103B30000E94700B64EF71E080E090E00E942D0C19
:103B40008DE090E00E94A31B823028F061E08DE0C0
:103B500090E00E948F1B8DE090E00E94A31B809359
:103B600062028EE090E00E94A31B8093C102863027
:103B700038F060E08EE090E00E948F1B1092C1024E
:103B80001092F5021092F402109203031092250392
:103B900010920103FF24F394F09200031092F902B3
:103BA00061E081E10E94700B61E080E10E94700B96
:103BB0000898099880E780B985E486BF82EC9DE08B
:103BC000909384028093830283EC9DE0909388021B
:103BD0008093870286E180B980E20E94D20A0E9427
:103BE000CF0A81110FC0F092C20280E20E94D20A75
:103BF0008CE090E00E94370E85E090E00E94370E46
:103C00000E94CF0A88E40E94D20A0E94CF0A811142
:103C100090C045E567E00E94031967E080E00E94DC
:103C20005119853509F085C04AEA67E080E00E94B5
:103C3000031967E080E00E9451198A3A09F079C0BF
:103C400045E567E081E00E94031967E081E00E949A
:103C50005119853509F06DC04AEA67E081E00E949C
:103C6000031967E081E00E9451198A3A09F061C0A6
:103C700081E08093B5026EE080E00E945119482FE8
:103C800048606EE080E00E94031962E080E00E94DC
:103C90005119482F416062E080E00E94031962E000
:103CA00081E00E945119482F416062E081E00E944A
:103CB000031960E080E00E94D41961E080E00E9476
:103CC000D41960E081E00E94D41961E081E00E9493
:103CD000D41940EB54E060E070E080E00E94351AB7
:103CE00040EB54E060E070E081E00E94351A80E033
:103CF0000E94AA1981E00E94AA1962E080E00E9455
:103D00005119482F426062E080E00E94031962E08E
:103D100081E00E945119482F426062E081E00E94D8
:103D2000031960E080E00E94511960E081E00E9488
:103D300051198FE090E00E94A31B8A3028F069E0BF
:103D40008FE090E00E948F1B80916202882309F42B
:103D5000F9C086E01F928F938AE090E19F938F9342
:103D6000B7E7EB2EB3E0FB2EFF92EF920E94DB1839
:103D70002091BB0280E890E002C0880F991F2A952D
:103D8000E2F79F938F9387EF9FE09F938F93FF922C
:103D9000EF920E94DB188091BB020FB6F894DEBF51
:103DA0000FBECDBF813009F0CFC08BED9FE00E94E8
:103DB000580D0E942D1888E60E94D20A0E94CF0A50
:103DC000811155C183EF90E00E94580D81E00E945F
:103DD000FA170E9475188091D002282F082E000C27
:103DE000330B3F938F9387EC90E09F938F9387E7FC
:103DF00093E09F938F930E94DB1888E60E94D20A7B
:103E00008FE090E00E94370E0E94CF0A61E070E0E0
:103E100088E690E00E94BB160E94EF0A0F900F9078
:103E20000F900F900F900F9087FFFDC028E030E0BB
:103E300046E050E066E674E0CE0101960E94281B41
:103E4000CE0101960E94D61A6093F802CE01019627
:103E50000E94E11A25E030E043E050E066E674E0BD
:103E6000CE0101960E94281BCE0101960E94D61A0F
:103E70006093F702CE0101960E94E11A22E030E041
:103E800050E040E066E674E0CE0101960E94281BF7
:103E9000CE0101960E94D61A6093F602CE010196D9
:103EA0000E94E11A26E030E044E050E060E674E071
:103EB000CE0101960E94281BCE0101960E94D61ABF
:103EC0006093D302CE0101960E94E11A90E080E057
:103ED0000E94110BEFEBE80FE33108F04CC00E2EFF
:103EE000000CFF0BEA58F04E0C9443351B20BB1F0F
:103EF000BB1F3520BB1F1920BB1FBB1FBB1FAA1F29
:103F0000BB1FBB1F252033203120BB1FBB1FBB1F86
:103F10002F2061E08AE00E949E0B60E08AE00E9410
:103F2000700B31E03F1508F0EFCD60E082E00E94B9
:103F3000700B61E087E10E949E0B60E087E10E94C8
:103F4000700BFECD8CE006CF823009F032CF85EACF
:103F50009FE02DCF81E090E00E94110B813609F4A3
:103F600064C082E090E00E94110B8E3609F05FC0C1
:103F700086E08093D2022BE030E049E050E060E63A
:103F800074E0CE0101960E94281BCE0101960E948A
:103F9000D61A6093D102CE0101960E94E11A8FEAEF
:103FA00090E00E94311884E890E00E94580D80E073
:103FB0000E94FA1789E790E00E94580D0E94A51B05
:103FC00087E793E00E94AB0C80936002893731F061
:103FD000893521F08E3611F08E3481F70E94551804
:103FE000809160028F7D893589F44091D102609182
:103FF000D2028091D3020E943C0E84E590E00E94A0
:10400000580D81E00E94FA170E942D1888E60E9440
:10401000D20A8FE090E00E94370E88E090E00E9484
:10402000370E0E94CF0A81E023C081E0A2CF87E053
:10403000A0CF82E09ECF82E090E00E94110B8237F9
:1040400011F484E096CF88E094CF82E090E00E9463
:10405000110B823711F483E08CCF85E08ACF89E0A1
:1040600088CF8AE086CF8BE084CF8CE082CF80E05F
:104070008093B2028091C202882321F08FE89FE0F2
:104080000E9431188091B502882321F081E79FE0DA
:104090000E9431188CE090E00E94A31B823028F02F
:1040A00060E08CE090E00E948F1B8CE090E00E942A
:1040B000A31B8093B1028823C1F185EC91E09F930B
:1040C0008F9386E59FE09F938F9387E793E09F937D
:1040D0008F930E94DB188CE0E4E8F0E0DE0111969B
:1040E00001900D928A95E1F70E9450100E945010A5
:1040F0008AE090E00E94A31B809361020F900F90D2
:104100000F900F900F900F90012B19F0863008F44C
:104110008CC187E793E00E94CD0C1816190644F471
:1041200087E793E00E94AB0CF4CF88EC91E0C7CF17
:1041300085E29FE09F938F9307E713E01F930F9310
:104140000E94DB18E09161020F900F900F900F908A
:10415000E63008F0FAC1EC0FFD2FF11D8281282F07
:10416000082E000C330B3F938F931F9288E58F939B
:1041700081E09FE09F938F931F930F930E94DB1822
:104180000FB6F894DEBF0FBECDBF1F9282E48F93AF
:1041900083EF9EE09F938F9307E713E01F930F93A6
:1041A0000E94DB181F9286E48F9385EE9EE09F931A
:1041B0008F931F930F930E94DB181F928FE48F93AE
:1041C00082ED9EE09F938F931F930F930E94DB18C5
:1041D0008091C1020E94B6171F9281E48F938FEBEA
:1041E0009EE09F938F931F930F930E94DB181F9263
:1041F0008CE48F9381EB9EE09F938F931F930F939B
:104200000E94DB181F9284E58F938DE99EE09F93B7
:104210008F931F930F930E94DB180FB6F894DEBFA5
:104220000FBECDBF80916202882309F4A1C18CE04A
:104230001F928F931F9283E48F9382E79EE09F9358
:104240008F9387E793E09F938F930E94DB180FB6BD
:10425000F894DEBF0FBECDBF8091B102882309F470
:1042600089C188EC91E09F938F931F9285E48F938F
:104270008DE49EE09F938F9387E793E09F938F93C6
:104280000E94DB188FE090E00E94A31B0FB6F89409
:10429000DEBF0FBECDBF893008F06FC1E82FF0E060
:1042A000EE0FFF1FE456FF4F80819181B0E0A0E048
:1042B000BF93AF939F938F931F9283E58F9389E270
:1042C0009EE09F938F9307E713E01F930F930E9445
:1042D000DB180FB6F894DEBF0FBECDBF8091B202DF
:1042E000882309F44FC11F9284E48F938FE09EE0EE
:1042F0009F938F931F930F930E94DB180F900F9043
:104300000F900F900F900F9080E190E00E94A31B00
:1043100020E830E002C0220F331F8A95E2F73F9376
:104320002F931F9282E58F9382EF9DE09F938F934F
:1043300007E713E01F930F930E94DB188BED9DE0BE
:104340009F938F931F930F930E94DB180FB6F894DF
:10435000DEBF0FBECDBF0E94A51B87E793E00E9482
:10436000AB0C0E944737182F809360028F3309F0FF
:104370001CC18091CF028F5F8093CF02BE016F5F1F
:104380007F4F812F0E94AE16882329F3812F0E9430
:1043900055188091CF02882391F01F928F9385EC5E
:1043A0009DE09F938F9387E793E09F938F930E9465
:1043B000DB180F900F900F900F900F900F9080913F
:1043C0006002853409F469C10CF0F5C0833409F446
:1043D00058C1843409F4F4C1BE016F5F7F4F8091EE
:1043E00060020E94AE168250809361029091CF02CB
:1043F000992391F01F928F938DE39DE09F938F936C
:1044000087E793E09F938F930E94DB180F900F90A4
:104410000F900F900F900F90609161028AE090E0F2
:10442000663008F0DFC30E948F1B809161028230EA
:1044300051F48FE29DE00E94580D8091C1020E94CC
:10444000B6170E942D1880916102823009F4FBC3D7
:1044500008F0CDC3882309F4DFC3813009F4EAC32F
:1044600061E080E00E94700B00915B0210915C02A1
:104470000115110519F1F090CF0290E080E00E9443
:104480002B1683EC0E945F16802F0E945F16812FEF
:104490000E945F16FF2091F01F930F9389EA92E02C
:1044A0009F938F9387E793E09F938F930E94DB18EE
:1044B0000F900F900F900F900F900F9080915B02D4
:1044C00090915C020E942B168091CF028823F1F01C
:1044D0008BE892E00E94580D60915702709158024B
:1044E00090E080E04AE00E946B170E942D1885E75B
:1044F00092E00E94580D60915B0270915C0290E026
:1045000080E040E10E946B170E942D1880916102AB
:10451000843008F0B6C40E945010882309F4ECC31C
:104520000E94501080935602882309F4E5C36091DD
:104530005602662329F050E040E080E00E94831894
:104540000E943D180E945010EBCFBE016F5F7F4F5D
:1045500088E50E94AE16182F882309F416CE88E548
:1045600090E00E943F37FE01E10FF11D80830DCEE8
:1045700086E05ECE85EC91E076CE80E092ECA1E024
:10458000B0E096CEBE016F5F7F4F84E40E94AE160E
:10459000182F882309F4B8CE84E490E00E943F37B6
:1045A000FE01E10FF11D8083AFCE803209F0E6CE2F
:1045B0001092CF02E3CE823509F4A9C2833509F403
:1045C00076C08F3409F008CF86ED91E00E94311853
:1045D0008091C102815080935F0206E080915F026A
:1045E0008F5F602F0E940135192F90935F0280EC3E
:1045F0009DE00E94580D812F0E94B6178DEA9DE024
:104600000E94580D87E793E00E94CD0C18161906FA
:104610002CF487E793E00E94AB0CF4CF87E793E09C
:104620000E94CD0C181619061CF00E94A51BF6CF8F
:1046300087E793E00E94AB0C809360028D3011F00D
:104640008B3161F689EA9DE09F938F9387E793E032
:104650009F938F930E94DB180F900F900F900F90F5
:10466000809160028D3009F0B7CE60915F02609357
:10467000C1028EE090E00E948F1B8FE48093600265
:10468000ABCE61E080916202811160E060936202D2
:104690008DE090E00E948F1B9FCE61E08091B1027F
:1046A000811160E06093B1028CE090E0F3CF86ED81
:1046B00091E00E9431188FE090E00E94A31B81508E
:1046C00080935F026AE0D62E0DE91DE077E7E72EC2
:1046D00073E0F72E80915F028F5F6D2D0E94013590
:1046E00090935F02993029F1E92FF0E0EE0FFF1F60
:1046F000E456FF4F80819181B0E0A0E0BF93AF937B
:104700009F938F931F930F93FF92EF920E94DB185A
:104710000FB6F894DEBF0FBECDBF87E793E00E94CF
:10472000CD0C1816190654F487E793E00E94AB0CE1
:10473000F4CF80E092ECA1E0B0E0E0CF87E793E037
:104740000E94CD0C181619061CF00E94A51BF6CF6E
:1047500087E793E00E94AB0C809360028D3019F0E4
:104760008B3109F0B7CF89E99DE09F938F9307E7DD
:1047700013E01F930F930E94DB180F900F900F9080
:104780000F90809160028D3009F026CE8FE090E08E
:104790000E94A31B60915F02861709F41DCE8FE073
:1047A00090E00E948F1B83E69DE09F938F931F9361
:1047B0000F930E94DB180F900F900F900F900CCE6C
:1047C0000E94FF161092BD028CEB91E00E943118FE
:1047D0008DE891E00E9431183AE0F32E46EFE42E86
:1047E000DD24D3948BE891E00E94580D8091BD02A6
:1047F000823009F440C018F5882369F18130A1F1B5
:104800000E94A51B87E793E00E94AB0C082F8093C2
:104810006002853709F44DC0853509F44AC08437F4
:1048200009F465C3843509F462C38D3049F71091EA
:10483000BD026DE087E793E00E940C0D5EC08430FE
:1048400089F148F18530E1F68FE391E00E94580D3F
:104850008091F80206C082E891E00E94580D809194
:10486000D1020E94EA17CCCF88E791E00E94580D50
:104870008091D202F6CF8AE691E00E94580D6DE059
:1048800087E793E00E940C0D81E691E00E94580DAD
:104890008091D302E6CF87E591E00E94580D809188
:1048A000F602DFCF8BE491E00E94580D8091F70271
:1048B000D8CF1091BD02123009F461C0D0F5112398
:1048C00009F447C0113009F44FC0802F8F7D843523
:1048D00009F0A8C0123009F4C1C008F08BC0112340
:1048E00009F499C0113009F4ADC06DE087E793E099
:1048F0000E940C0D0D3009F075CF1F5F1093BD02A3
:10490000163008F46FCF4091D1026091D2028091AD
:10491000D3020E943C0E8FE291E00E94311882E1A6
:1049200091E00E94580D81E00E94FA170E947518CC
:1049300053CD143009F450C008F443C0153029F6A3
:104940008091F8028F5F8C3308F051C08093F80299
:10495000BCCF8091D1028F5F843618F48093D1024E
:10496000B4CF1092D102B1CF8091D2028F5F8D303F
:1049700018F48093D202A9CF1093D202A6CF8091CF
:10498000D3028F5F8093D302E091D202E23089F4A8
:1049900090E02091D102237049F42DE130E02817F6
:1049A00039070CF092CFD092D3028FCF2CE130E0B8
:1049B000F6CFF0E0E157FF4F9081981708F085CFD0
:1049C000F2CF8091F6028F5F883118F48093F6025F
:1049D0007CCF1092F60279CF8091F7028F5F8C33F3
:1049E00018F48093F70271CF1092F7026ECF1092F5
:1049F000F8026BCF143009F46EC008F45AC01530B9
:104A000009F073CF2091F802265F2C3308F075C0AF
:104A10002093F80207C02091D102265F243640F48B
:104A20002093D1026DE087E793E00E940C0DDACE6F
:104A3000822F6F2D0E9401358E9D200D1124209311
:104A4000D10253CF8091D2028B3020F08A508093D4
:104A5000D2024BCF833030F7865FF9CF2091D3025B
:104A6000265F2093D302422F50E0E091D202F0E083
:104A7000E157FF4F808190E03091D102337061E0C7
:104A800070E011F070E060E0860F971F84179507C3
:104A90004CF4822F6F2D0E9401358E9D200D112424
:104AA0002093D3028091D3028111BCCFD092D30244
:104AB0001CCF2091F602265F283118F42093F602CD
:104AC000B1CF822F6F2D0E9401358E9D200D1124B4
:104AD0002093F6020ACF2091F702265F2C3318F4B8
:104AE0002093F7029FCF822F6F2D0E9401358E9D5C
:104AF000200D11242093F702F8CE822F6F2D0E94F3
:104B000001358E9D200D11242093F802EECE86ED06
:104B100091E00E9431188091BB02815080935F0226
:104B200083E0C82ED12C90E8A92EB12C03E51DE01E
:104B300027E7E22E23E0F22E80915F028F5F90E064
:104B4000B6010E940D35982E80935F028EE59DE0A0
:104B50000E94580DC50102C0880F991F9A94E2F770
:104B60009F938F931F930F93FF92EF920E94DB18F6
:104B70000F900F900F900F900F900F9087E793E09A
:104B80000E94CD0C181619062CF487E793E00E94BA
:104B9000AB0CF4CF87E793E00E94CD0C18161906F2
:104BA0001CF00E94A51BF6CF87E793E00E94AB0C98
:104BB000809360028D3019F08B3109F0BDCF0E94D7
:104BC0002D180E942D18809160028D3009F004CCC0
:104BD00060915F026093BB0280E190E00E948F1BB6
:104BE00088E54CCD0E94A31B809361021ECC8430CB
:104BF00009F473C008F46EC0853009F031CC85EC3F
:104C000092E090935A028093590280E098E090934A
:104C100058028093570256C08CEC91E090935E024C
:104C200080935D0210925C0210925B0281E080939F
:104C3000BA0216CC88ED91E090935E0280935D02FB
:104C400080E091E031C08091C102823091F170F436
:104C5000882311F1813009F003CC8EEE91E090931E
:104C60005E0280935D0280E890E01EC0843079F19E
:104C700018F1853009F0F4CB88E192E090935E0260
:104C800080935D0210925C0210925B0281E080933F
:104C9000BA028093B902E4CB84EE91E090935E0275
:104CA00080935D0280EE91ED90935C0280935B02B5
:104CB000D7CB89EF91E0C0CF84E092E090935E0281
:104CC00080935D0210925C0210925B02C9CB80E17E
:104CD00092E0F4CF82E292E0F1CF85EC9AE09093FB
:104CE0005A02809359028AE692E090935802809388
:104CF000570280E19DEFD8CF00915D0210915E02D6
:104D000069EF71E0C8010E945837892B31F0C80162
:104D10000E949D148093560210C08FE292E00E9480
:104D20009D148111F4CF8FE292E090935E02809304
:104D30005D0260E08DE00E94700B80915602882336
:104D4000E9F060915602662339F040915D0250917E
:104D50005E0281E00E9483180E943D1800915D026E
:104D600010915E02C8010E949D1480935602833008
:104D700021F30E9450100E945010C9CF80915E0212
:104D80008F9380915D028F9383E592E09F938F9341
:104D900087E793E09F938F930E94DB180F900F900B
:104DA0000F900F900F900F90CE010D960E949E12C3
:104DB000082F8D858093B0020093560210925F02F7
:104DC00010915F028091B002181758F4E12FF0E0C3
:104DD000E65DFC4F80810E945F161F5F10935F02AB
:104DE000EFCF803291F40023F9F240915D025091AF
:104DF0005E02602F82E00E9483180E943D1860E0EE
:104E000070E0CB010E946E1302C00111EECF8091C1
:104E100056028111C9CF80E392E00E94311860E010
:104E200086E10E94700B82B5877F82BD85B5816067
:104E300085BD85B5897F85BD85B5886085BD85B50E
:104E40008F7B85BD85B5806185BD85B58F7D85BD31
:104E50008091620283BD61E08FE00E949E0B83E13E
:104E600092E00E9431180E942D1887E793E00E947B
:104E7000CD0C18161906FCF487E793E00E94AB0CE2
:104E8000F4CF86E392E00E94580D10E000E080919C
:104E90005702909158020817190708F0BCCFE0910B
:104EA0005902F0915A02E00FF11F84910E945F169F
:104EB0000F5F1F4FECCF61E070E080E090E00E9458
:104EC0002D0C61E086E10E94700B2E960FB6F894CF
:104ED000DEBF0FBECDBFDF91CF911F910F91FF902D
:104EE000EF90DF90CF90BF90AF909F90089510917A
:104EF000BD02F0CC1F920F920FB60F9211244F9368
:104F00005F936F937F938F939F934091CB025091C8
:104F1000CC026091CD027091CE028091CA02909134
:104F2000C9029230F9F41092C9028A5A8D3728F0DA
:104F30008D574F5F5F4F6F4F7F4F8093CA024093F3
:104F4000CB025093CC026093CD027093CE029F911E
:104F50008F917F916F915F914F910F900FBE0F9046
:104F60001F9018958B5A9F5F9093C902DFCF1F92B5
:104F70000F920FB60F9211242F933F934F935F938D
:104F80006F937F938F939F93AF93BF93EF93FF9311
:104F900087E793E00E94EB0CFF91EF91BF91AF91F7
:104FA0009F918F917F916F915F914F913F912F9141
:104FB0000F900FBE0F901F9018951F920F920FB673
:104FC0000F9211242F938F939F93EF93FF93E09170
:104FD0008703F09188038081E0918D03F0918E0327
:104FE00082FD1BC09081809190038F5F8F7720910D
:104FF0009103821741F0E0919003F0E0E958FC4FF3
:10500000958F80939003FF91EF919F918F912F91B6
:105010000F900FBE0F901F9018958081F4CF1F92B4
:105020000F920FB60F9211242F933F934F935F93DC
:105030006F937F938F939F93AF93BF93EF93FF9360
:1050400081B1887F803609F44AC0F0F5883209F4CE
:10505000A3C018F5803109F499C0B8F4882309F485
:10506000FDC0883009F492C0FF91EF91BF91AF91DC
:105070009F918F917F916F915F914F913F912F9170
:105080000F900FBE0F901F901895883109F484C0BF
:10509000803251F78093FF0214C0803409F4A0C01D
:1050A00040F48033B9F38833F9F68093FF0285EC3E
:1050B000B6C0803509F485C0883509F499C08834B4
:1050C00099F60E94930DD0CF883909F48FC030F53E
:1050D000883729F050F4883611F0803729F683E0BC
:1050E000809301031092A90254C0883809F47EC04D
:1050F000803919F0803809F0B7CF8091A902803249
:1051000008F074C0E091A90281E08E0F8093A9029B
:1051100083B1F0E0E757FD4F80833BC0803B39F01F
:10512000E0F4803A09F47FC0883A09F09DCF84E02A
:10513000809301031092860210928502E09183020F
:10514000F091840209958091850281110FC081E060
:10515000809385021092630209C0803C09F4A7CFB6
:10516000883C09F4A4CF883B09F07ECFE091860209
:1051700081E08E0F80938602F0E0ED59FD4F808133
:1051800083B990918602809185022EC08091FA02A7
:1051900083B985EC86BF68CF9091FC028091FB02B9
:1051A0009817A8F58091FD029091FE02E091FC0213
:1051B00021E02E0F2093FC02E80FF92FF11D8081D2
:1051C000E7CF2091FD023091FE02E091FC0281E0E8
:1051D0008E0F8093FC0283B1E20FF32FF11D8083C9
:1051E0009091FC028091FB02981798F285E8D2CF4B
:1051F0002091FD023091FE02E091FC0281E08E0FD1
:105200008093FC0283B1E20FF32FF11D8083809124
:105210000003811156CF81E08093F90284EA86BFB2
:105220001092010321CF85EC86BF1092010380917B
:10523000A902803230F4E091A902F0E0E757FD4F77
:1052400010826091A90270E0E0918702F0918802DB
:1052500089E892E009951092A90206CF1092FF0208
:1052600030CFEF92FF920F931F93CF93DF9300976E
:10527000C9F0EA018C012097B1F1E090AA02F09008
:10528000AB02E114F10479F1F80181918F010E94E0
:10529000150FF1E0EF1AF108F092AB02E092AA02CA
:1052A0002197E9CF411551056105710529F18091DB
:1052B0004A0383FD07C089E0440F551F661F771F0F
:1052C0008A95D1F788E50E945A0F81111DC08FEF92
:1052D0000E94150F8EEF0E94150F80E092E09093D0
:1052E000AB028093AA0290E080E0DF91CF911F9102
:1052F0000F91FF90EF900895DF91CF911F910F9143
:10530000FF90EF900C941E0F81E090E0EECF0F9392
:105310001F93CF93DF93C82F162FD42F8091CF02E6
:105320008330E0F01F924F931F926F938C2F90E089
:105330008F5B9F4F9F938F938AEB91E19F938F9306
:1053400087E793E09F938F930E94DB188DB79EB7FA
:105350000A960FB6F8949EBF0FBE8DBF63E08C2FE8
:105360000E945119082F4FEB63E08C2F0E94031904
:1053700062E08C2F0E945119482F4F731111406425
:10538000D111406862E08C2F0E940319402F63E026
:105390008C2FDF91CF911F910F910C940319E7E7A8
:1053A000F3E01382128288EE93E0A0E0B0E0848301
:1053B0009583A683B78326E831E03183208320E4F8
:1053C00030E03587248749E250E0578746874BE233
:1053D00050E0518B408B4AE250E0538B428B358B2F
:1053E000248B2CE230E0378B268B118E128E138E9D
:1053F000148EE4E5F4E01382128284839583A683FD
:10540000B78388E991E091838083E6E6F4E0118236
:105410001082138212821582148248E050E06BE3FE
:1054200072E0CF010E94E91AE0E6F4E011821082F6
:1054300013821282158214824BE050E064E472E021
:10544000CF010C94E91ACF93DF9300D000D0CDB7F1
:10545000DEB7789483B7836083BF83B7886483BFE4
:1054600089B7816089BF82E08EBD8EB581608EBDB7
:105470008FB581608FBD85B5846085BD85B580643D
:1054800085BD87E886B91AB80E945B1C57E7E52EF0
:1054900053E0F52E83E00E94470B892B99F583E1B9
:1054A0000E94470B892B09F0BEC482E10E94470B82
:1054B000D9B2D092C70290917D00882309F483C0AD
:1054C0009F3F51F090937C008091C5029091C6025D
:1054D0009093C4028093C302D0927D001092C602C2
:1054E0001092C50260E08EE00E94700B60E080E0E8
:1054F0000E94700B61E080E00E94700B61E08EE022
:105500000E94700B80917D008F3F09F053C0809105
:10551000BA028823E1F08091C8028823C1F080910B
:105520006B008823A1F087E793E00E94CD0C18164A
:1055300019066CF460E081E00E94700B8091B40267
:1055400081608093B40210926B001092C802809127
:10555000B902882379F10E94DA0B0091AC02109114
:10556000AD022091AE023091AF024B015C01801A76
:10557000910AA20AB30A20916F0030E0A8EEB3E0CE
:105580000E94F234681579058A059B0598F460E05D
:1055900081E00E94700B8091B40282608093B4021B
:1055A0000E94DA0B6093AC027093AD028093AE025E
:1055B0009093AF020E94D90C882309F46BCF81E04D
:1055C0008093C80267CF9C3009F487C108F051C0AE
:1055D000963009F40BC118F5933009F4E8C078F45B
:1055E000992309F4D7C0913009F4DBC080917D0084
:1055F0008A3009F477CF8C3009F474CFD5C2943057
:1056000009F4E9C0953091F78091C202882309F42A
:10561000CBC280E20E94D20A90E080E0D2C09930F2
:1056200009F4FAC080F4973009F4EBC09830F1F631
:105630008091C202882309F4B7C280E20E94D20A94
:105640008DE090E0BEC09A3009F406C19B3071F63F
:10565000D092BE028091BF029091C002811592400B
:1056600008F034C12FE12D1508F435C110927000F7
:10567000BDCF923109F4AFC208F078C09F3009F471
:10568000A0C280F49D3009F46DC29E3009F0AECF07
:105690008D2D81708093BA02D1FADD24D0F8D0929A
:1056A000B902A4CF903109F491C2913109F09ECF93
:1056B0008091C202882309F477C281E08093B70207
:1056C00011E0D11010E01093B60280E20E94D20ADD
:1056D00082E190E00E94370E110F012F0560802FAC
:1056E00090E00E94370E0E94CF0A80E20E94D20A08
:1056F00090E080E00E94370E88EF90E00E94370E25
:105700000E94CF0A80E20E94D20A81E090E00E94CB
:10571000370E90E080E00E94370E0E94CF0A80E2B0
:105720000E94D20A8CE090E00E94370E8FEF90E04A
:105730000E94370E0E94CF0A80E20E94D20A82E1C4
:1057400090E00E94370E612F616084E594E00E9432
:10575000080E0E94CF0A0093BD0280E20E94D20A86
:1057600082E190E00E94370E602F2EC0923248F402
:10577000903208F060C2933109F038CFD0926E00B9
:1057800035CF943208F488C29E3709F02FCFD092DB
:10579000CF022CCF60E0D0FE61E08DE00E94700B64
:1057A00025CF6D2D87E793E00E940C0D1FCF8091D0
:1057B000C202882309F4F8C180E20E94D20A82E181
:1057C00090E00E94370E6D2D84E594E00E94080E53
:1057D0000E94CF0A0BCF8091C202882309F4E4C152
:1057E00080E20E94D20A83E190E0EBCF8091C20276
:1057F000882309F4D9C180E20E94D20A81E090E0B6
:10580000E0CF8091C202882309F4CEC180E20E94D9
:10581000D20A8CE090E0D5CF23E680E12D15C8F0C8
:105820008091C102805D809373008D2D6AE00E949B
:10583000013590E3980F9093750030E3D30E46EF57
:10584000849FD00C1124D092760081E790E00E94D2
:105850009D1480937000CACE6D2D70E08091C502BA
:105860009091C602892B71F47093C0026093BF02BD
:105870008091C5029091C60201969093C6028093D2
:10588000C502B4CE8091BF029D2D9093C00280933B
:10589000BF022091BE028115924088F4203290F41C
:1058A0001092700080917C0080937D008091C302F3
:1058B0009091C4029093C6028093C502D9CF81E132
:1058C000203208F082E180937000ECCF3FE181E16B
:1058D0003D1508F0BECF82E1BCCF2090C5023090CC
:1058E000C6022114310419F56091BF027091C00203
:1058F000611542E07407D8F48091BE028032B8F49A
:1059000090917000911113C035E0660F771F3A95A2
:10591000E1F7682B90E080E049E0660F771F881F71
:10592000991F4A95D1F70E946E1380937000809161
:10593000700081119DCF822D8F718093BD02E82F61
:10594000F0E0E65DFC4FD0828F3109F091CF0091FD
:10595000750310917603A12C85E00115110509F45A
:1059600058C0F801818180FFD4C086FD0AC08689B5
:105970009789A08DB18D88279E7F868B978BA08F6E
:10598000B18FF801828D938DA48DB58D468957898D
:10599000608D718D841B950BA60BB70B8032910522
:1059A000A105B10520F080E290E0A0E0B0E06C013C
:1059B000B12CA12C2AE233E03C832B83C114D10407
:1059C00009F4AAC0F80186899789A08DB18D9C0140
:1059D0003170232B09F05DC092809A94AC01BD0117
:1059E00029E076956795579547952A95D1F79422A2
:1059F00069F5892B8A2B8B2BF1F4668D778D80A12D
:105A000091A1F8016230710581059105D8F41182E8
:105A100081E0A092BC0280937000FFE1FA1508F4C7
:105A20007DC083E1809370002FEF221621E03206C3
:105A300008F41ECF37CF62A173A184A195A10E9463
:105A40002E12DFCF62A373A384A395A3F80162A1F2
:105A500073A184A195A10E94A30E61157105810512
:105A6000910511F4F801D3CFAB01BC01490D511DD3
:105A7000611D711DF80146A357A360A771A790E0AF
:105A800080E00E943129F801892B09F68181806428
:105A90008183F80186899789917020E032E0281B84
:105AA000390B46012C153D0508F449012401712CE0
:105AB000612CB301A4018B819C810E943129F801E2
:105AC000892B09F0A4CF86899789A08DB18D840D8B
:105AD000951DA61DB71D868B978BA08FB18F2B812F
