:100000000C94410A0C946B0A0C946B0A0C946B0AC6
:100010000C946B0A0C946B0A0C946B0A0C946B0A8C
:100020000C946B0A0C946B0A0C946B0A0C946B0A7C
:100030000C946B0A0C946B0A0C946B0A0C946B0A6C
:100040000C946B0A0C946B0A0C9491280C946B0A18
:100050000C94FD280C94D3280C946B0A0C946B0A16
:100060000C946B0A0C946B0A0C9432290C946B0A56
:100070000C946B0A0C946B0A0C946B0A0C946B0A2C
:100080000C946B0A0C946B0A0C946B0A494F533A0C
:10009000205254432073657420617420636F6D7027
:1000A000696C652074696D65202D204E6F773A204C
:1000B00000293F205B592F4E5D203E000A446F20EF
:1000C000796F752077616E74207365742052544384
:1000D00020617420494F5320636F6D70696C6520F7
:1000E00074696D65202800494F533A2052544320CB
:1000F000636C6F636B206661696C75726521004982
:100100004F533A20525443204453333233312074F6
:10011000656D70657261747572652073656E736F5D
:10012000723A202564C2B0430D0A00494F533A2069
:10013000466F756E6420525443204453333233313A
:10014000204D6F64756C65202800494F533A20524A
:10015000544320646174652F74696D652075706403
:1001600061746564202800202E2E2E646F6E652039
:1001700020202020200A005365636F6E6473202DB9
:100180003E20004D696E75746573202D3E20004839
:100190006F757273202D3E200020446179202D3E22
:1001A000200020202020202020202020202020008F
:1001B0004D6F6E7468202D3E200059656172202DB0
:1001C0003E200020000A507265737320542F552082
:1001D000746F20696E6372656D656E74202B3130AB
:1001E0002F2B31206F7220435220746F2061636384
:1001F000657074000A494F533A20525443206D6190
:100200006E75616C2073657474696E673A000D0ACF
:10021000507265737320435220746F20616363656D
:1002200070742C2045534320746F206578697420C6
:100230006F7220616E79206F74686572206B6579CA
:1002400020746F206368616E676500436865636B47
:1002500073756D206572726F723A2063616C633DD5
:100260003078253032582C20676F743D3078253037
:1002700032580D0A005265636F726420747970659C
:100280003A203078253032580D0A00537461727468
:1002900020616464726573733A2030782530345875
:1002A0000D0A0057616974696E67204845582069D6
:1002B0006E7075742073747265616D2E2E2E0D0A2A
:1002C00000494F533A205A38302069732072756EB6
:1002D0006E696E672066726F6D206E6F77002044C6
:1002E0006F6E6500486578204C6F616400494F531C
:1002F0003A204C6F6164696E6720626F6F74207082
:10030000726F6772616D2E2E2E000D0A494F533A9F
:10031000204C6F6164696E6720626F6F7420707229
:100320006F6772616D20282573292E2E2E0044459B
:100330004255473A20426F6F74537472416464723D
:10034000203D200044454255473A20466C61736881
:1003500020426F6F74496D61676553697A65203D0E
:10036000200044454255473A20496E6A65637465EA
:1003700064204A50203078253034580D0A00496EE8
:1003800074656C2D486578204C6F616465720D0A48
:1003900000C389FEC3ACFFDB01C9310000FD2100B1
:1003A000FE180EFE082819FE032806FD45CB782806
:1003B0001ACD42FF3E5CCDACFFCD42FFFD2101FED8
:1003C000FD2BFD45CB7820F1CD4DFFCD86FEFEFF08
:1003D00028F9FE08CC4BFFFD23FD7700CDACFFFED6
:1003E0000D20C0FD2100FE3E00DD6FCB27CB273264
:1003F000B7FFFD23FD7E00FE0D28BEFE2E38F3283C
:10040000EAFE3A28E8FE522847FE51CA41FF210081
:1004100000FD22B5FFFD7E00EE30FE0A3808F62012
:10042000CE89FEF93815CB27CB27CB27CB2706045F
:1004300017CB15CB1410F9FD2318DAFD453AB5FF9B
:10044000B8CAA0FE3AB7FFCB77281D7D121318A4B7
:10045000DDE9763E0DCDACFF3E0A1861FD2B3E2056
:10046000CDACFF3E08C3ACFFCB7F2026545DE5DD5D
:10047000E1BFC276FFCD42FFDD7CCD95FFDD7DCDB6
:1004800095FF3E3ACDACFF3E20CDACFFDD7E00CDEA
:1004900095FFAF32B7FFDD7DBDDD7C9C30B0DD2345
:1004A000DD7DE60718CCF5CB3FCB3FCB3FCB3FCD37
:1004B000A2FFF1E60FF630FE3A3802CE07F53E0114
:1004C000D301F1D300C9FFFFFF3100093EC9C319B1
:1004D00001E3EFBE2318613E0DF53E01D301C301D8
:1004E00001CDDE03E5C39A03577CBAC07DBBC900CA
:1004F000411AFE20C01318F94EF1CD6105C37405F1
:1005000047EFD640D8201B13CDA20429DADB002305
:1005100023D5EBCDE404E7DAA2052100FFCD2E05BB
:10052000D1C9FE213802D620FE1B3FD81321FE0779
:1005300007856F3E008C67C92807C54E060009C1B4
:100540001B1323E3C921000044CF270B1A6F131A92
:10055000FE27206A1304C9FE242822FE30D8FE3A62
:10056000D03EF0A4203E04C5444D292909291A1380
:10057000E60F856F3E008C67C11AF29200131AFED7
:1005800030D8FE3A380AFE41D8E65FFE47D0D6079B
:10059000E60FC5473EF0A478C1200904292929297E
:1005A000B56F18D9D511ED00C3780554696E79423D
:1005B00041534943320D484F573F0D4F4B0D57485C
:1005C00041543F0D534F5252590DF1D300FE0DC00F
:1005D0003E0AD73E0DC9DB013CC83DE67FFE03C0A5
:1005E00018153200FF11E200CD0C06210000224A4E
:1005F00008210009223608310009CD0E0011F20051
:1006000097CD0C0621420122380821000022400823
:10061000223A083E3ECDA705D51180FFCD7C00EFE4
:100620007CB5C1CA16071B7C121B7D12C5D57993F8
:10063000F5CDE705D52010D5CD0206C12A3608CD67
:10064000C1066069223608C12A3608F1E5FE032892
:10065000A6856F3E008C671100FFE7D2A105223608
:1006600008D1CDC906D1E1CDC10618A7CD700521AD
:100670000009223608CD7005C32E01CD700511008A
:1006800009210000CDEF05DA2E01ED5338081313D0
:10069000CD0D01215A07C31907DFD5CD7005CDE770
:1006A00005C2DC00F118E3CD7C00CD7005CDE70577
:1006B000DA2E01CDAA06CD0D01CDEF0518F2AF322D
:1006C00035080E08CF3B05CD0E0018C4CF0D03D75B
:1006D00018AFCF2304DF4D1819CF2511DF7DFE01A0
:1006E000CADB00FE11D2DB003235081805CD170633
:1006F0001810CF2C05CD610518D8AF323508CD0EB6
:1007000000F7DFC5CD4A06C118E8CDF106DFD5CD2B
:10071000E705C2DC002A3808E52A3A08E5ED62223E
:100720004008ED733A08C3C101CD70052A3A087C30
:10073000B5CA7405F9E1223A08E1223808D1CDD6CC
:1007400006F7CDF106CD52052B22400821D307C371
:100750001907DF22440821D907C31907DF1803212D
:1007600001002242082A3808224608EB22480801E4
:100770000A002A4008EB6068393E097E23B6281734
:100780007E2BBA20F57EBB20F1EBED6239444D2182
:100790000A0019CDC906F92A4808EBF7FFDA7405F3
:1007A000223C08D5EB2A40087CB5CA7505E7280924
:1007B000D1CDD6062A3C0818EA5E23562A4208E51F
:1007C0007CAA7A19FA0203ACFA2303EB2A400873D5
:1007D00023722A4408F1B7F21203EBCD4A05D1384F
:1007E0000D2A46082238082A4808EBF7E1D1CDD671
:1007F00006F72100003EDF7CB5C2C701CD0406D25A
:10080000C101C32E01ED7B3E08E1223808D1D1D5CC
:10081000CD17061805FF38361810D5FFDA74051AFB
:100820004F9712D1CD0C06791B12D5EB2A3808E56B
:10083000214603223808ED733E08D53E3ACDA70580
:100840001180FFDFD1EB732372E1223808D1F1CFA1
:100850002C0218BBF71AFE0D2808CD5205CF2C022A
:1008600018F8F721E107C31907CDC903C06FC9CD37
:10087000C903C86FC9CDC9036FC8D86CC9CDC90336
:10088000D06FC9CDC903D86FC9CDC903C8D86FC946
:10089000E1C979E1C1E5C54FCDDE03EBE3CD4A0502
:1008A000D12100003E01C9CF2D04ED621821CF2BCC
:1008B00000CD2104CF2B15E5CD2104EBE37CAA7AF2
:1008C00019D1FAEB03ACF2EB03C3DB00CF2D09E542
:1008D000CD2104CD350518E3CF7C97E5CD2104EB80
:1008E000E37CB2677DB36FD118CACD8E04CF2A29BD
:1008F000E5CD8E040600CD3205E3CD3205EBE37C79
:10090000B728067AB2EBC2DC007D210000B72828A8
:1009100019DADC003D20F9181FCF2F29E5CD8E0410
:100920000600CD3205E3CD3205EBE3EB7AB3CADC4A
:1009300000C5CD19056069C1D17CB7FADB0078B775
:10094000FC350518A8CF262AE5CD8E04EBE37CA262
:10095000677DA36FD1189621AC07C31907FF38052F
:100960007E23666FC9CD7C0078B7C0CF2805DFCF66
:100970002901C9C37405CDA2047CB7FADB00B5CA4E
:10098000DB00D5E52A4A0811FD07E73803210000FE
:10099000ED5FAE5F23AE57224A08E1EBC5CD1905E6
:1009A000C1D123C9CDA2041BCD320513C92A3608F3
:1009B000D5EB2100FFCD2E05D1C9CDA2046E2600B6
:1009C000C9CDA204C300FFCDA204E92100FFC9DF05
:1009D000CF2C0DE5DF7DE177CF2C0423E518F5F76B
:1009E000185BE56C2600CD2405417DE1670EFF0C08
:1009F000CD2E0530FA19C9B7ED52C97CB7F07CB5D8
:100A0000C87CF52F677D2F6F23F1ACF2DB0078EE09
:100A10008047C97CAAF25005EBE7C9FF381FE5CF34
:100A20003D1BDF444DE1712370C9CF3B04F1C3C7C7
:100A300001CF0D04F1C3B801C9EFFE0DC8D511F502
:100A40000097CD0C06D11AF597122A3808E57E23B7
:100A5000B6D1CA2E017EB7FA3C03CDAA061BF1120D
:100A60003E3FD797CD0C06C32E01D511FB0018D100
:100A7000D71180FFCD0D0128FBFE0D2810FE0828A0
:100A800017FE7F2813FE182820FE2038E7D7121300
:100A9000FE0DC87BFEFF20DC7BFE8028D71B3E08B6
:100AA000D73E20D73E08D718CBCD0E003E5E18C0EB
:100AB0007CB7FADB00110009E52A36082BE7E1D8FC
:100AC0001A9547131A9C38041BB0C913131AFE0D4C
:100AD00020FA1318E3471A13B8C8D7FE0D20F7C938
:100AE000CF220CCD0C06FE0DE1CAB8012323E9CFBD
:100AF0005F063E8DD7E118F4CF5E081AEE40D71A94
:100B00001318E3CF5C0CE51ACD3900DA74057EE1E9
:100B100018E2C93A3508B72809FE10201006240D3E
:100B2000180B0600CD3205F26406062D0DD53A35B8
:100B300008B720023E0A5FAF57D50DC5CD1905781D
:100B4000B12807E32DE5606918F2C10D79B7FA8D78
:100B5000063E20D718F578B7C410005D3A3508B7BF
:100B600020023E0ABB7BD1C8FE0A3802C607C63047
:100B7000D718E9AF3235081A6F131A67130E04CD70
:100B80004A063E20D797CD0C06C9E7C81A021303C0
:100B900018F8789220037993C81B2B1A7718F3C1A1
:100BA000E12240087CB52810E1224208E1224408F5
:100BB000E1224608E1224808C5C9C121A2F739D27D
:100BC000A1052A40087CB528132A4808E52A4608CA
:100BD000E52A4408E52A4208E52A4008E5C5C92176
:100BE0004A07EFD51A13FE2E281CFE613806FE7B3D
:100BF0003002E65F23BE28EC3E7F1BBE380E23BECC
:100C000030FC23D118DC3E7F23BE30FC7E236EE611
:100C10007F67F1E94C49535481DE52554E81B24E03
:100C2000455781A34E45585482D34C45548391492E
:100C300046832D474F544F81D0474F5355428241F1
:100C400052455455524E826052454D8329464F526B
:100C50008279494E50555483465052494E5481F53D
:100C60003F81F5505554850653544F5081AC48414F
:100C70004C5487FC838C524E4484AD41425384DBF8
:100C800047455484F155535284F843414C4C84FEFB
:100C900053495A4584E4544F5085028494544F82FA
:100CA00089857453544550829382963D83A0238353
:100CB000A63C3E83A63C3D83AC3C83B43E3D83BA18
:100CC0003E83C083C776767676494F533A20437584
:100CD0007272656E742000494F533A2053797374D1
:100CE000656D2068616C7465642C20707265737327
:100CF0002052455345540044454255473A20626FBF
:100D00006F744D6F64653A2025640D0A00256420D8
:100D10004B42797465730D000D202D3E00436861D0
:100D20006E6765642073706565642077696C6C20FC
:100D300062652065666665637469766520616674C0
:100D40006572206E657874207265626F6F74210D14
:100D50000A0A000D0A0A000D202D3E256C64202091
:100D6000200D000D0A0A0020202020202020202015
:100D700020202020202020200D000D202D3E003F8F
:100D8000566572626F73697479206C6576656C2044
:100D900025640D0A000D0A456E74657220796F7521
:100DA000722063686F696365203E20002020256300
:100DB0003A2052414D2073697A6520282564204BE2
:100DC0004279746573290D0A00202025633A205367
:100DD00065742052544320446174652F54696D65D5
:100DE0000D0A00202025633A205365742053657254
:100DF00069616C20506F727420537065656420289F
:100E0000256C64290D0A00202025633A20546F6761
:100E1000676C652043502F4D204175746F65786570
:100E20006320282D3E202573290D0A0020202563EC
:100E30003A204368616E6765205A383020436C6FF2
:100E4000636B20537065656420282D3E2025642047
:100E50004D487A290D0A00202025633A20486578FC
:100E60004C6F61640D0A00202025633A20576F7A89
:100E70004D6F6E0D0A00202025633A2054696E796B
:100E80004241534943320D0A00202025633A204154
:100E900075746F626F6F740D0A00202025633A200D
:100EA0004C6F61642F536574204F53200020202520
:100EB000633A20466F7274680D0A00202025633A59
:100EC0002042617369630D0A00202025633A2045A2
:100ED00078697420776974686F7574206368616ECF
:100EE000676520282D3E27256327290D0A0A000D56
:100EF0000A494F533A2053656C65637420426F6F03
:100F000074204D6F6465206F722053797374656D22
:100F100020506172616D65746572733A0D0A0A0042
:100F20000D0A494F533A2053442063617264206D87
:100F30006F756E74656400494F533A2043502F4DCE
:100F4000204175746F65786563206973202573008F
:100F5000494F533A20466F756E642053494F4120E4
:100F60002F2053494F42204F7074696F6E00494FD4
:100F7000533A20466F756E6420475045204F707479
:100F8000696F6E0020284354532C2052545320750F
:100F90007365642061732042414E4B322C204241E4
:100FA0004E4B33207369676E616C2C2043453220B1
:100FB000696E766572746564290020284354532055
:100FC000757365642061732042414E4B3220736912
:100FD000676E616C2900494F533A202564204B42CB
:100FE000797465732052414D00494F533A205A3865
:100FF0003020636C6F636B207365742061742025EF
:1010000064204D487A0D0A00494F533A20466F75C7
:101010006E6420657874656E6465642073657269BA
:10102000616C20527820627566666572202825649E
:10103000206279746573290D0A00322E302E323603
:1010400030323036202D2046656220203620323066
:1010500032362031363A32303A3132000D0A0A5AED
:1010600038302D4D4243322D4E47202D2041303413
:1010700030363138202D2041546D6567613132386A
:101080003470202D202564204D487A0D0A00494FE8
:10109000533A20436865636B20534420616E64209B
:1010A00070726573732061206B657920746F207294
:1010B00065706561740D0A00202D2046696C653AE3
:1010C0002000206F7065726174696F6E0052454137
:1010D00044004F50454E004D4F554E5400206F6E0A
:1010E0002000554E4B4E4F574E004E4F5F46494CD9
:1010F0004553595354454D004E4F545F454E414260
:101100004C4544004E4F545F4F50454E4544004EB1
:101110004F5F46494C45004E4F545F52454144593C
:10112000004449534B5F455252000D0A494F533A10
:10113000205344206572726F7220003F3F53494F25
:1011400025633A2041637475616C20626175647235
:101150006174653A2025640D0A003F3F53494F25CD
:10116000633A2043616C63756C61746564206469E3
:101170007669736F723A2025640D0A003F3F534928
:101180004F25633A20446573697265642062617516
:1011900064726174653A2025640D0A003F3F3F5335
:1011A000494F25633A205365744175746F48616EE9
:1011B000647368616B652025642C2025640D0A002A
:1011C0003F3F3F3F3F53494F25633A20526561649B
:1011D0005265676973746572203078253032582003
:1011E00028257329207265733D3078253032580DDB
:1011F0000A003F3F3F3F3F53494F25633A20577214
:10120000697465526567697374657220307825303A
:10121000325820282573292076616C3D307825309E
:1012200032580D0A003F3F3F53494F25633A20573C
:10123000726974654279746520307825303258209F
:1012400025630D0A003F3F3F53494F25633A205223
:1012500065616442797465203078253032582025E4
:10126000630D0A003F3F3F3F53494F25633A2052E9
:1012700078204649464F204C6576656C3A202564B7
:101280000D0A003F3F3F3F53494F25633A205478B2
:10129000204649464F2053706163653A2025640D0E
:1012A0000A00202D20697271537461747573203D9A
:1012B000200044454255473A20494E542041434B73
:1012C000206379636C6500202D20696F446174612F
:1012D000203D200044454255473A20535953495236
:1012E0005100202D20697271537461747573203D13
:1012F000200044454255473A205345522052580059
:1013000072657365727665640D0A006175746F208D
:101310005254532F4354530D0A006175746F205873
:101320006F6E2F586F666620284E5949290D0A00A6
:1013300064697361626C650D0A00202D2068616E1E
:10134000647368616B653A2025642000202D20625B
:10135000617564726174653A20256C640D0A003F02
:101360003F53494F423A003F3F53494F413A0020D3
:1013700073657420636F6E74726F6C3A20307825D9
:101380003032580000002100240027002A0000000D
:101390002200250028002B0000002000230026004A
:1013A00029000202020202020202040404040404EC
:1013B0000404030303030303030301010101010107
:1013C00001010102040810204080010204081020DD
:1013D000408001020408102040800102040810200F
:1013E00040800000000203000A0B0000000005041A
:1013F00009080000000000000000000000000000DC
:1014000000003F3F3F53494F25633A204649464F2E
:10141000536574547269676765724C6576656C28AC
:1014200025735F4649464F3A2026640D0A003F5314
:10143000494F25633A204C435220526567697374C3
:1014400065723A203078253032780D0A000D0A0A8C
:10145000494F533A2042617564207265636F766527
:10146000727920646F6E65202D20506C6561736504
:10147000207265626F6F74206E6F77210000B72B4A
:10148000C53311241FBECFEFD0E4DEBFCDBF25E0B2
:10149000A4EFB2E001C01D92A439B207E1F712E057
:1014A000A0E0B1E0E4E1F3E700E00BBF02C0079089
:1014B0000D92A43FB107D9F71AE0C0E4DAE004C006
:1014C0002197FE010E943137CF33D107C9F70E941F
:1014D0000D2C0C947D390C940000FB01A485B5857E
:1014E000ED91FC9111970190F081E02D682FCD01D5
:1014F000099590E080E00895282F9091C90381E03C
:10150000913208F042C08091A5038111FCCF8091F7
:10151000C80332E03093A5032093A4032FEF209358
:10152000A30328EA33E03093A2032093A10310928F
:10153000A00390939F0310929E0390919E03880FA7
:10154000892B80939E0380919D03813029F5109211
:101550009D0380919E038093BB008091BC0083FD1E
:10156000F8CF85EC8093BC008091A5038230E1F335
:101570008091A3038F3F91F08091A303803281F08B
:101580008091A303803371F084E01092A70310923E
:10159000C9031092A603089585EEE4CF80E0F5CF4D
:1015A00082E0F3CF83E0F1CF81E00C947C0A91E0FC
:1015B0009093A6038093C8031092A7031092C903C7
:1015C000089590919903809198032FEF3FEF98171A
:1015D00048F4E92FF0E0E858FC4F208130E09F5FAD
:1015E00090939903C901089590919903809198036C
:1015F0002FEF3FEF981748F4E92FF0E0E858FC4F41
:10160000208130E09F5F90939903C9010895209154
:101610008805309189058217930760F4209184052D
:10162000309185052115310529F0280F391FF90161
:101630008081089580E0089500000000000000000F
:10164000000083E090E00197F1F7089582508A301E
:1016500088F5E82FF0E0E15DF44F0C943137570B3B
:101660005B0B390B3F0B5A0B5A0B430B490B4D0BC2
:10167000530B809180008F77809380000895809134
:1016800080008F7DF9CF8091B0008F778093B0007C
:1016900008958091B0008F7DF9CF809190008F7771
:1016A000809390000895809190008F7DF9CF84B54C
:1016B0008F7784BD089584B58F7DFBCFCF93DF9363
:1016C000282F30E0F901EE51FC4E8491F901EE53E0
:1016D000FC4ED491F901EE55FC4EC491CC23A1F0FF
:1016E00081110E94260BEC2FF0E0EE0FFF1FE85651
:1016F000FC4EA591B491EC91ED2381E090E009F4CA
:1017000080E0DF91CF91089580E090E0FACF1F93C1
:10171000CF93DF93282F30E0F901EE51FC4E8491F6
:10172000F901EE53FC4ED491F901EE55FC4EC491F3
:10173000CC23A9F0162F81110E94260BEC2FF0E08C
:10174000EE0FFF1FE257FC4EA591B4918FB7F894AE
:10175000EC91111108C0D095DE23DC938FBFDF918F
:10176000CF911F910895DE2BF8CFCF93DF9390E0B8
:10177000FC01EE53FC4E24918E559C4EFC0184914D
:101780008823C9F090E0880F991FFC01EC57FC4EAC
:10179000A591B491FC01E257FC4EC591D491611121
:1017A0000DC09FB7F8948C91209582238C938881EB
:1017B000282328839FBFDF91CF910895623051F491
:1017C0009FB7F8943C91822F809583238C93E88176
:1017D0002E2BEFCF8FB7F894EC912E2B2C938FBF3D
:1017E000EACFCF92DF92EF92FF926FB7F894809199
:1017F0006F0390917003A0917103B09172035091A7
:101800006E0326B535B3432F417030FF04C041E06D
:101810002F3F09F440E06FBF6C017D0137E0CC0C35
:10182000DD1CEE1CFF1C3A95D1F7C50ED11CE11C46
:10183000F11CC81AD90AEA0AFB0A880F991FAA1FC5
:10184000BB1FC81AD90AEA0AFB0A63E0CC0CDD1CEC
:10185000EE1CFF1C6A95D1F730E0A3E3B3E00E94D1
:10186000E036672F782F892F99276C0D7D1D8E1DEF
:101870009F1D442321F06D5C7C4F8F4F9F4FFF9045
:10188000EF90DF90CF9008958F929F92AF92BF928A
:10189000CF92DF92EF92FF924B015C010E94F10B1D
:1018A0006B017C010E94F10B6C197D098E099F0967
:1018B000683E734081059105A8F321E0821A9108E2
:1018C000A108B10888EEC80E83E0D81EE11CF11C07
:1018D00081149104A104B10429F7FF90EF90DF90E7
:1018E000CF90BF90AF909F908F9008952FB7F894AE
:1018F00060916F03709170038091710390917203F6
:101900002FBF0895AF92BF92CF92DF92EF92FF92D6
:101910000F931F93CF93DF936C017B018B01040F17
:10192000151FEB015E01AE18BF08C017D10759F0B3
:101930006991D601ED91FC910190F081E02DC601F5
:101940000995892B79F7C501DF91CF911F910F91EF
:10195000FF90EF90DF90CF90BF90AF900895FC0183
:10196000538D448D252F30E0842F90E0821B930B04
:10197000541710F0CF96089501970895FC01918DAA
:10198000828D981759F0A28DAE0FBF2FB11D5D96B5
:101990008C91928D9F5F928F90E008958FEF9FEFD3
:1019A0000895FC01918D828D981731F0828DE80F9A
:1019B000F11D858D90E008958FEF9FEF0895FC0154
:1019C000918D828D981B892F90E008958BE194E092
:1019D0000E94DF0C21E0892B09F420E0822F08957A
:1019E000FC01A48DA80FB92FB11DA35EBE4F2C9191
:1019F000848D90E001968F739927848FA689B7898B
:101A00002C93A089B1898C91837080648C93938D81
:101A1000848D981306C00288F389E02D80818F7D24
:101A200080830895EF92FF920F931F93CF93DF93DC
:101A3000EC0181E0888F9B8D8C8D98131AC0E8890A
:101A4000F989808185FF15C09FB7F894EE89FF89D9
:101A50006083E889F98980818370806480839FBF77
:101A600081E090E0DF91CF911F910F91FF90EF9077
:101A70000895F62E0B8D10E00F5F1F4F0F73112787
:101A8000E02E8C8D8E110CC00FB607FCFACFE889C2
:101A9000F989808185FFF5CFCE010E94F00CF1CF4E
:101AA000EB8DEC0FFD2FF11DE35EFE4FF0829FB733
:101AB000F8940B8FEA89FB8980818062CFCF0F93E6
:101AC0001F93CF93DF938C01D0E0C0E0F801EC0FBF
:101AD000FD1F6491662341F08BE194E00E94120D9A
:101AE000892B11F02196F2CFCE01DF91CF911F917A
:101AF0000F910895CF93DF93EC01888D8823B9F07F
:101B0000AA89BB89E889F9898C9185FD03C0808108
:101B100086FD0DC00FB607FCF7CF8C9185FFF2CF85
:101B2000808185FFEDCFCE010E94F00CE9CFDF91DF
:101B3000CF91089581E08093540308950E94E60CAC
:101B4000882319F081E08093540380E090E0892B92
:101B500049F080E090E0892B29F00E94000081117B
:101B60000C940000089585ED8093BC008091BC002A
:101B700084FDFCCF1092A503089520912903260F20
:101B80003327331F21323105ECF42091A503FC01EA
:101B900090E080E0243069F082E00895A09129036C
:101BA0002191AC01495F5C4FA40FB52FB11D2C935F
:101BB0000196861798F380912903680F6093290393
:101BC00080E0089581E00895089508950895E091D2
:101BD000990380919803E81730F4F0E0E858FC4F3F
:101BE000808190E008958FEF9FEF08958091980392
:101BF00090919903891B990B0895CF92DF92EF92F0
:101C0000FF920F931F93CF93DF937C01CB018A0147
:101C10002091A603222389F0EB016B01C40ED51E8F
:101C2000CC15DD0569F06991D701ED91FC9101902A
:101C3000F081E02DC7010995F3CF642F0E94BD0DFF
:101C4000C801DF91CF911F910F91FF90EF90DF902E
:101C5000CF900895CF93DF931F92CDB7DEB76983FE
:101C60002091A6032223F9F02091C903203258F0D5
:101C700021E030E0FC013383228390E080E00F908C
:101C8000DF91CF9108958091A703E82FF0E0E85508
:101C9000FC4F998190838F5F8093A7038093C90342
:101CA00081E090E0ECCF61E0CE0101960E94BD0D95
:101CB000F7CF682F88E795E00C942A0E0F931F93B7
:101CC000CF93DF93082F162FD42F88E60E94D70AD0
:101CD00090E080E00E94590E80919C03CAE06C2F36
:101CE0000E94EF368295807F682F690F88E795E024
:101CF0000E942A0E80919B036C2F0E94EF368295E2
:101D0000807F682F690F88E795E00E942A0E8091F6
:101D10009A036C2F0E94EF368295807F682F690F9F
:101D200088E795E00E942A0E81E090E00E94590E1B
:101D3000802F6C2F0E94EF368295807F682F690F6D
:101D400088E795E00E942A0E812F6C2F0E94EF36C3
:101D50008295807F682F690F88E795E00E942A0EA0
:101D60008D2F6C2F0E94EF368295807F682F690F30
:101D700088E795E00E942A0EDF91CF911F910F9185
:101D80000C94D40A90E080E008950F931F93E091A3
:101D90001904F0911A049B01AC0122503109410948
:101DA000510986819781A085B1850297A109B10962
:101DB000281739074A075B0778F4A281B0E00E9430
:101DC000D5360289138924893589600F711F821FD6
:101DD000931F1F910F91089560E070E0CB01F9CF40
:101DE0000F931F93CF93DF93EC01E0911904F091CF
:101DF0001A04198218826C817D818E819F816130E5
:101E000071058105910581F1068117812085318554
:101E1000601771078207930738F561157105810511
:101E2000910539F42081233021F4668577858089F6
:101E30009189688779878A879B87611571058105F4
:101E4000910569F00E94C50E6C877D878E879F87FC
:101E500090E080E0DF91CF911F910F91089566850A
:101E6000778580899189F0CF81E090E0F3CF8EBDB6
:101E70000DB407FEFDCF08958FEF0E94370F8EB58A
:101E800008950F931F93CF93DF93C0914E03D0918A
:101E90004F032197CD3F8FEFD80721F080E00E94BC
:101EA000370FF7CF0E943C0F8F71853079F0D1E06A
:101EB000C0E061E084E00E94870B0E943C0F8D2F00
:101EC0009C2FDF91CF911F910F91089508E813E1A6
:101ED000C4EFD1E00E943C0F8F3F49F0011511057E
:101EE00031F3CE010197F1F701501109F3CFD1E0A1
:101EF000C0E0012BF1F2D0E0DCCFFF920F931F93F3
:101F0000CF93DF93C82FD42F152F062FF72E809154
:101F1000EE0381113FC083E58CBD1DBCC7FF09C026
:101F200040E050E0BA0187E70E947D0F823060F503
:101F3000CF7761E084E00E94870B0E943C0F60E055
:101F400084E00E94870B0E943C0F8C2F0E94370F69
:101F50008F2D0E94370F802F0E94370F812F0E94F4
:101F6000370F8D2F0E94370F85E9C03421F087E8A5
:101F7000C83409F081E00E94370FCAE00E943C0F8C
:101F800087FF02C0C150D1F7DF91CF911F910F9110
:101F9000FF90089580E58CBD81E08DBDBFCFCF92CD
:101FA000DF92EF92FF920F931F93CF93DF937C0109
:101FB00069018091EE0383FD07C089E0440F551F3E
:101FC000661F771F8A95D1F781E50E947D0F8111E9
:101FD00008C0C0E4DCE90E943C0F8F3F29F4219740
:101FE000D1F7C1E0D0E022C08E3FD9F7C2E0D2E005
:101FF000C01BD10BCC19DD0981E0C81AD10818F03B
:102000000E943C0FF9CFE114F10401F10E0D1F1DE8
:102010000E943C0FF70181937F010E171F07C1F744
:102020000E943C0F2197E1F7D0E0C0E061E084E03E
:102030000E94870B0E943C0FCE01DF91CF911F9130
:102040000F91FF90EF90DF90CF9008950E943C0F8A
:1020500001501109D9F7E4CFCF92DF92EF92FF92AE
:102060000F931F93CF93DF93EC016A017B0102E092
:1020700010E02EEF31E00E94CF0F892B31F58881DF
:10208000998185359A4A59F526E330E0B701A601D2
:10209000CE010E94CF0F892B29F488819981863443
:1020A000914489F002E010E022E530E0B701A6019A
:1020B000CE010E94CF0F892BA1F481E028813981C4
:1020C0002634314419F480E001C083E0DF91CF91E0
:1020D0001F910F91FF90EF90DF90CF90089582E0D5
:1020E000F5CF81E0F3CF4F925F926F927F928F9204
:1020F0009F92AF92BF92CF92DF92EF92FF920F9397
:102100001F93CF93DF93CDB7DEB7A4970FB6F894A4
:10211000DEBF0FBECDBF10921A0410921904809139
:10212000EE03882339F084E00E945E0B892B11F4C2
:102130000E94410F61E084E00E94870B61E084E02F
:102140000E94B50B61E085E00E94B50B61E087E07D
:102150000E94B50B61E084E00E94B50B83E58CBD65
:102160001DBC61E084E00E94870B1AE00E943C0FD6
:102170001150E1F740E050E0BA0180E40E947D0F89
:10218000182F813009F441C010E01093EE0361E094
:1021900084E00E94870B0E943C0F82E090E01123B4
:1021A000E9F040E050E0BA01CE0101960E942C1007
:1021B000C12CD12C7601813009F096C000E110E0ED
:1021C0002EEB31E040E050E0BA01CE0101960E94D2
:1021D000CF0F892B09F478C081E090E0A4960FB668
:1021E000F894DEBF0FBECDBFDF91CF911F910F914D
:1021F000FF90EF90DF90CF90BF90AF909F908F9027
:102200007F906F905F904F9008954AEA51E060E0B0
:1022100070E088E40E947D0F813091F5CE01019637
:102220007C016E0195E0C90ED11C87010E943C0F14
:10223000F80181938F01CE16DF06C1F78B818130C3
:1022400009F0A2CF8C818A3A09F09ECF80E1C82E96
:1022500087E2D82E94EFA92EBB24B39440E050E03F
:1022600060E070E489EE0E947D0F882309F4C9C004
:10227000C5010197F1F7F1E0CF1AD10879F784CFC2
:1022800040E050E0BA0189EE0E947D0F01E4823007
:1022900010F412E009EEA0E1EA2EA7E2FA2EB4EF64
:1022A000CB2EDD24D39440E050E0BA01802F0E9471
:1022B0007D0F882309F4BBC0C6010197F1F7F1E057
:1022C000EF1AF10881F760CF8D81811103C086E09C
:1022D00090E084CFC984DA84EB84FC84B701A60142
:1022E000CE0101960E942C10833009F475CF811124
:1022F000EECF04E210E02DE030E0B701A601CE0100
:1023000001960E94CF0F892B09F066CF2A853B8565
:1023100050E040E0211531054105510521F4288D9B
:10232000398D4A8D5B8DAC81B0E00E94D5364B0172
:102330005C014A815B8170E060E0C40ED51EE61E40
:10234000F71EC092F903D092FA03E092FB03F092D9
:10235000FC03E981E093F1038D819E819093F40366
:102360008093F3030F81188530E020E001151105FB
:102370002105310521F40C891D892E893F89F4E05E
:1023800096958795FA95E1F72C01712C612C041B29
:10239000150B260B370BC901B801681979098A0991
:1023A0009B0964197509860997092E2F30E050E0C2
:1023B00040E00E940F37DA01C9010296A11DB11D4C
:1023C0008093F5039093F603A093F703B093F8037B
:1023D000265F3F40410951092F3F3F4E41055105BE
:1023E00088F1873F9F4FA105B10588F570CF82E046
:1023F0008093EF03D501C4018C0D9D1DAE1DBF1D43
:102400002DC040E050E0BA018AE70E947D0F8111A3
:10241000BBCE0E943C0FF70181937F010E171F076F
:10242000C1F789811CE086FDB0CE14E0AECE40E05D
:1024300052E060E070E080E50E947D0F882309F49F
:10244000A4CEA2CE873F9F4FA105B10580F283E0C5
:102450008093EF0388A199A1AAA1BBA18093FD035A
:102460009093FE03A093FF03B0930004C40CD51C0B
:10247000E61CF71C8C0C9D1CAE1CBF1C809201043A
:1024800090920204A0920304B09204041092F0030C
:102490008FEE93E090931A048093190490E080E00B
:1024A0009DCE0F931F93CF93DF9300D000D0CDB775
:1024B000DEB7623071058105910528F461E070E0B6
:1024C00080E090E055C0E0911904F0911A04068173
:1024D000178120853185601771078207930770F790
:1024E000AB01BC018081823031F1833039F79A0130
:1024F0002F773327220F331F220F331F97E0769554
:102500006795579547959A95D1F782859385A485C8
:10251000B585480F591F6A1F7B1F04E010E0CE01EC
:1025200001960E94CF0F892B49F669817A818B81B0
:102530009C819F701DC09A013327220F331F452FA6
:10254000562F672F772782859385A485B585480FF9
:10255000591F6A1F7B1F02E010E0CE0101960E9406
:10256000CF0F892B09F0AACF69817A8190E080E0B2
:102570000F900F900F900F90DF91CF911F910F91BF
:1025800008956F927F928F929F92AF92BF92CF9257
:10259000DF92EF92FF920F931F93CF93DF93C0913F
:1025A0001904D0911A04FC0111821082209709F4B9
:1025B000AFC0298120FFAFC00A8D1B8D2C8D3D8DB2
:1025C0004E895F89688D798D68017901C41AD50AB1
:1025D000E60AF70AB701A601403251056105710507
:1025E00020F040E250E060E070E05C017A013EECF7
:1025F000832E33E0932E612C42E0742EE114F1041B
:1026000009F48CC08E899F89A88DB98DAC01BD015C
:10261000517066277727452B462B472B09F04AC078
:10262000DA80DA94AC01BD0129E07695679557957B
:1026300047952A95D1F7D42251F5892B8A2B8B2BDC
:10264000D9F46E8D7F8D88A199A1623071058105C5
:102650009105C8F4198281E090E0DF91CF911F913C
:102660000F91FF90EF90DF90CF90BF90AF909F9031
:102670008F907F906F9008956AA17BA18CA19DA1FE
:102680000E945112E2CF6AA37BA38CA39DA36AA1EF
:102690007BA18CA19DA10E94C50E611571058105CC
:1026A0009105C1F26D0D711D811D911D6EA37FA35A
:1026B00088A799A72E893F893170C301821B930B8C
:1026C00067018E159F0508F46C014EA15FA168A5F6
:1026D00079A58601C4010E94CF0F892B09F0BACFDA
:1026E0008E899F89A88DB98D8C0D9D1DA11DB11D51
:1026F0008E8B9F8BA88FB98F8C0C9D1CEC18FD08BE
:10270000F50180819181C80ED91ED182C08276CF19
:1027100085E090E0A2CF84E090E09FCF90E080E061
:102720009CCF4F925F926F927F928F929F92AF92C7
:10273000BF92CF92DF92EF92FF92CF93DF9300D0C0
:1027400000D000D0CDB7DEB72091190430911A0423
:102750003E832D832115310509F40CC1D901119651
:102760002C91119720FF09C15A96CD90DD90ED90E4
:10277000FC905D976C157D058E059F0510F46B012F
:102780007C01ED81FE8146885788608C718C168AA9
:10279000178A108E118EC114D104E104F10409F4DA
:1027A000E6C08280912CB12CA12C39E0880C991CB8
:1027B000AA1CBB1C3A95D1F7411451046104710461
:1027C00009F470C0B1E04B1A510861087108C701E3
:1027D000B6016150710981099109A50194010E9416
:1027E0000F3729833A834B835C83C301B201A50170
:1027F00094010E940F3789819A81AB81BC81821735
:102800009307A407B50708F44DC088279927DC0172
:1028100088199909AA09BB0984219521A621B72104
:10282000ED81FE81868B978BA08FB18FC81AD90A54
:10283000EA0AFB0A62A173A184A195A18C149D04EC
:10284000AE04BF0408F058C00E94511262307105F6
:102850008105910568F0AD81BE8116964D905D9021
:102860006D907C901997641575058605970540F164
:10287000ED81FE81118281E090E026960FB6F894FA
:10288000DEBF0FBECDBFDF91CF91FF90EF90DF9005
:10289000CF90BF90AF909F908F907F906F905F9000
:1028A0004F900895AD81BE815E966D917D918D9121
:1028B0009C919197FD0162A373A384A395A3BECFBE
:1028C000AD81BE8192966D937D938D939C939597E8
:1028D00056964D905D906D907C905997480C591C80
:1028E0006A1C7B1CFD01468A578A608E718EC8184F
:1028F000D908EA08FB08A2CFAD81BE8156968D901B
:102900009D90AD90BC905997C80CD91CEA1CFB1C3B
:10291000FD01C68AD78AE08EF18E0E94C50EAB01FA
:10292000BC01411551056105710529F4AD81BE81D8
:1029300011961C92A0CFED81FE8182818150990B6E
:10294000092E000CAA0BBB0B29E0F694E794D79450
:10295000C7942A95D1F78C219D21AE21BF21480F24
:10296000591F6A1F7B1F46A357A360A771A790E05A
:1029700080E083CF85E090E080CF84E090E07DCF61
:102980004F925F926F927F92BF92CF92DF92EF92BF
:10299000FF920F931F93CF93DF93CDB7DEB7EC97E2
:1029A0000FB6F894DEBF0FBECDBFE0901904F090D3
:1029B0001A04E114F10409F404C1F70111829E0123
:1029C0002F5C3F4F3CA32BA39C016901F90180813F
:1029D0002F5F3F4F8032C9F38F3209F469011DA286
:1029E0001EA21FA218A6F6018081A0E2BA2E803294
:1029F00008F0D4C0CE0181960E94F00E1982009793
:102A000009F407C1EC960FB6F894DEBF0FBECDBF38
:102A1000DF91CF911F910F91FF90EF90DF90CF90BA
:102A2000BF907F906F905F904F90089520E0E0E01E
:102A300088E0D1C0C30ED11C81E0913208F080E063
:102A40001B968C93CE0181960E94F00E0097D1F6D2
:102A500029A13AA12F703327F5E0220F331FFA95F1
:102A6000E1F74DA55EA56FA578A900E210E0CE01C3
:102A700001960E94CF0F892B19F081E090E0C2CF20
:102A80008981811103C083E090E0BCCF8C8583FDF8
:102A900013C00BA11CA19E012F5F3F4FD801B801AD
:102AA000655F7F4F6A177B0709F4AEC0F90141915A
:102AB0009F019D914917B1F309A11AA10F5F1F4F03
:102AC00011F38DA59EA5AFA5B8A90097A105B105E5
:102AD000D1F298012F703327232BB9F40196A11D51
:102AE000B11D8DA79EA7AFA7B8AB69A57AA58BA589
:102AF0009CA5F701611571058105910549F4848153
:102B000095810817190708F0BECF1AA309A3A0CF13
:102B10002281E22FE150FF0BAF019801E4E03695EE
:102B20002795EA95E1F724233523232B71F70E949B
:102B30005112623071058105910508F49ECFF701AD
:102B400046805780608471846415750586059705F5
:102B500008F099CF69A77AA78BA79CA70E94C50EFA
:102B60006DA77EA78FA798ABD0CF84FF8CCFF7013E
:102B700080818330F1F48D899E89B0E0A0E0DC0192
:102B8000992788274B8D5C8D70E060E0842B952B16
:102B9000A62BB72B8DA39EA3AFA3B8A7ABA1BCA1B7
:102BA000FD01CD010B968E179F0709F43FCFB1921F
:102BB000FACF80E090E0DC01E5CF80E090E0DC013E
:102BC0003DC085E090E01ECF883009F033CF9BE018
:102BD000282FE32F892F31E03E0FEC0DFD2DF11D45
:102BE0009081913208F426CF9F3209F423CF9E3290
:102BF00059F3281708F01ECFFD01E20FF11D908355
:102C0000982F81E0820FE4CFF8019385992309F48E
:102C1000ACCF8981882309F436CF8C8584FD33CFEE
:102C2000E0911904F0911A048081833031F68D8986
:102C30009E89B0E0A0E0DC01992788274B8D5C8D50
:102C400070E060E0842B952BA62BB72BF701868FC5
:102C5000978FA0A3B1A38D8D9E8DAF8DB8A1828FCC
:102C6000938FA48FB58F168A178A108E118E81E0EC
:102C7000818390E080E0C6CECF93DF93D82FC0E071
:102C800061E08FE00E94870B60E08FE00E94870B7D
:102C9000CF5FDC13F5CFDF91CF9108951F93CF93D2
:102CA000DF93182FD92F81E00E943C1661E08091BC
:102CB0006003823009F060E082E00E94870BCFEF72
:102CC000C1B981E282B982E00E943C1611B8C2B952
:102CD00082E00E943C16C1B912B983E00E943C1602
:102CE000D2B982E00E943C1611B8C2B961E080916D
:102CF0006003823009F460E082E0DF91CF911F91A0
:102D00000C94870BCF93DF93D82F81E00E943C1661
:102D100061E080916003823009F060E082E00E940F
:102D2000870BCFEFC1B986E382B982E00E943C16DF
:102D300011B8C2B982E00E943C16C1B9D2B982E092
:102D40000E943C1611B8C2B9C091600361E0C23064
:102D500009F460E082E00E94870B83E00E943C1649
:102D600081E00E943C1661E0C23009F060E082E040
:102D70000E94870BCFEFC1B983E282B982E00E9443
:102D80003C1611B8C2B961E080916003823009F449
:102D900060E082E00E94870B83E0DF91CF910C948A
:102DA0003C16282F81E0FB019191BF01992321F06E
:102DB000921719F08F5FF7CF80E00895AC018091F2
:102DC000A5038111FCCF962F81E08093A50380930A
:102DD000A4032FEF2093A30328E733E03093A2034B
:102DE0002093A1031092A0032FEF260F20939F039F
:102DF00080939E0320919E03440F551F822F842BA6
:102E000080939E0380919D038130E9F410929D038D
:102E100080919E038093BB008091BC0083FDF8CF1E
:102E200085EC8093BC008091A5038130E1F3809113
:102E3000A003861710F49091A00310929903909329
:102E40009803892F089585EEECCFCF9388E60E94F2
:102E5000D70A90E080E00E94590E0E94D40A62E1F5
:102E600070E088E690E00E94DE160E94F40A982F37
:102E700092959770CAE08F709C9F800D112480936B
:102E80009C030E94F40A982F92959F708F709C9FCC
:102E9000800D112480939B030E94F40A982F929531
:102EA00093708F709C9F800D112480939A030E94D1
:102EB000F40A0E94F40A982F92959F708F709C9F3D
:102EC000800D1124809377030E94F40A982F929525
:102ED0009F708F709C9F800D1124809376030E94B9
:102EE000F40A982F92959F708F709C9F800D1124EB
:102EF000809375030E94F40AC150E1F70E94F40A1E
:102F000080937403CF910895FC0101900020E9F7AC
:102F10003197AF01481B590BBC018BE194E00C9435
:102F2000820C8F929F92AF92BF920F931F93CF9379
:102F3000DF93CDB7DEB7A1970FB6F894DEBF0FBE13
:102F4000CDBF19A2423008F44AE08E010F5D1F4F39
:102F5000842E912CB12CA12CA50194010E940F3735
:102F6000E62FB901CA01EA30F4F4E05DD801EE932E
:102F70008D01232B242B252B79F790E080E01097EF
:102F800019F0CD010E948417A1960FB6F894DEBF08
:102F90000FBECDBFDF91CF911F910F91BF90AF902A
:102FA0009F908F900895E95CE1CF009711F00C9409
:102FB000841790E080E008951F93CF93DF9300D0B3
:102FC000CDB7DEB7182F89E492E00E94D517612FA4
:102FD00070E090E080E04AE00E949117105D10934D
:102FE000040182E091E00E94C014CE0101960E948B
:102FF000C112898180935503882361F083E592E0B3
:103000000E94D5178EEC93E00E94D51786E592E0DA
:103010000E94D5170F900F90DF91CF911F910895C7
:10302000CF93C82F8A3020F489E592E00E94D5170B
:103030006C2F70E090E080E04AE0CF910C94911703
:1030400081110E94251788E592E00E94D517809192
:1030500075030E9410188BE592E00E94D5178091AD
:1030600076030E9410188BE592E00E94D51780919C
:1030700077030E94101881E592E00E94D517809195
:103080009A030E9410188DE592E00E94D517809156
:103090009B030E9410188DE592E00E94D517809145
:1030A0009C030C9410188FE592E00C948417CF9336
:1030B000DF930E945F0DEC010E9453188C0F9D1F3F
:1030C000DF91CF9108958BE194E00E94DF0C1816F8
:1030D00019062CF48BE194E00E94BE0CF4CF8EE82C
:1030E00090E10E9457188BE194E00E94DF0C1816C3
:1030F0001906CCF70895CF93DF93682F8BE194E006
:103100000E94120DEC010E9453188C0F9D1FDF913D
:10311000CF910895CF93DF93682F70E090E080E027
:103120004AE00E949117EC010E9453188C0F9D1FDA
:10313000DF91CF910895CF93DF930E948417EC0124
:103140000E9453188C0F9D1FDF91CF9108950F930C
:103150001F93CF93DF93D82FC62F8A018AE291E184
:103160000E945F0D6C2F70E090E080E04AE00E94CA
:10317000911783E592E00E94D5178FE091E1C3306B
:10318000C1F058F481E291E1C13099F087E191E119
:10319000C23079F082EE90E10CC088EF90E1C5304A
:1031A00041F084E091E1C53020F08AEE90E1C63034
:1031B00089F70E945F0D8DED90E10E945F0D82ED19
:1031C00090E1D13031F087ED90E1D23011F48DEC07
:1031D00090E10E945F0D82EC90E10E945F0D01156D
:1031E000110539F088EB90E10E945F0DC8010E9443
:1031F000D51786E592E0DF91CF911F910F910C9446
:103200009B18CF93DF93CDB7DEB72E970FB6F89408
:10321000DEBF0FBECDBF8DE69AE09A8789871C86F8
:103220001B8682E08C838BE194E09E878D87AE01C4
:10323000495E5F4F6D897E89CE0101960E940934F7
:103240002E960FB6F894DEBF0FBECDBFDF91CF91A3
:103250000895FF920F931F93CF93DF93F42E062FC1
:1032600010E0C82FD0E080917303853020F11F92C9
:103270004F93C801880F991F880F991F8F569E4F33
:103280009F938F931F926F93CE018F5B9F4F9F935E
:103290008F9382EF91E19F938F938BE194E09F93C3
:1032A0008F930E9401198DB79EB70C960FB6F894B4
:1032B0009EBF0FBE8DBF88E40E94D70AC80123E0DD
:1032C000880F991F2A95E1F7CC0FDD1F8C2B9D2BC2
:1032D0000E94590E6F2D88E795E00E942A0E81E02A
:1032E000DF91CF911F910F91FF900C947C0ADF9298
:1032F000EF92FF920F931F93CF93DF93C82FD62E99
:1033000088E40E94D70A0D2D10E0D0E0980193E0E8
:10331000220F331F9A95E1F7CE01880F991F822B58
:10332000932B0E94590E80E00E947C0A61E070E0BD
:1033300088E490E00E94DE160E94F40A7C018091ED
:103340007303853020F1C70199279F938F93000F56
:10335000111F000F111F0F5A1E4F1F930F931F9223
:10336000DF92CF5BDF4FDF93CF9380EC91E19F93B0
:103370008F938BE194E09F938F930E9401198DB7F7
:103380009EB70C960FB6F8949EBF0FBE8DBF8E2DC4
:10339000DF91CF911F910F91FF90EF90DF900895F3
:1033A0004F925F926F927F928F929F92AF92BF9255
:1033B000CF92DF92EF92FF920F931F93CF93DF9301
:1033C000C82F042FB52EA62E972E64E00E947719E1
:1033D00024E087FF21E030E050E040E060E072EC64
:1033E00081E090E00E940F3729013A01CA01B9013A
:1033F000202F3B2D4A2D592D0E940F3769017A014C
:1034000063E08C2F0E947719182F482F406863E0E3
:103410008C2F0E9429194C2D60E08C2F0E942919B5
:103420004D2D61E08C2F0E942919412F4F7763E0C9
:103430008C2F0E942919A701960144275527C30103
:10344000B2010E940F373901842ED52F809173036A
:10345000823098F1CF5B9F92AF92BF920F931F92F1
:10346000CF938CE791E19F938F930BE114E01F932F
:103470000F930E940119DF92CF921F92CF938AE59A
:1034800091E19F938F931F930F930E940119DF93F4
:103490008F927F926F921F92CF938BE391E19F93D4
:1034A0008F931F930F930E9401198DB79EB74C966F
:1034B0000FB6F8949EBF0FBE8DBFB301882D9D2F10
:1034C000DF91CF911F910F91FF90EF90DF90CF9000
:1034D000BF90AF909F908F907F906F905F904F9034
:1034E0000895FC0180819181009711F00C94CD33F7
:1034F00060E070E0CB010895FC018081918100972C
:1035000011F00C94EA370895EF92FF920F931F93F6
:10351000CF93DF93EC017B018A0188819981009729
:1035200029F02A813B812417350788F4B8016F5FA1
:103530007F4F0E947338009791F0998388831B8393
:103540000A832C813D81232B11F4FC0110821D8301
:103550000C83B701888199810E9476390CC08881DB
:103560009981009711F00E94EA37198218821D8212
:103570001C821B821A82CE01DF91CF911F910F9185
:10358000FF90EF900895AF92BF92CF92DF92EF92AB
:10359000FF920F931F93CF93DF93EC016B015A01BE
:1035A00079012417350720F48B2D5901E42EF82ECC
:1035B000198218821B821A821D821C8250E040E010
:1035C00061E672E0CE010E94841AD60114960D9134
:1035D0001C91A016B10628F5E016F10608F4870143
:1035E000D601ED91FC911197E00FF11FF080108250
:1035F0006D917C916A0D7B1D61157105F1F0FB01E8
:1036000001900020E9F73197AF01461B570BCE011F
:103610000E94841AF60180819181080F191FD80138
:10362000FC92CE01DF91CF911F910F91FF90EF900F
:10363000DF90CF90BF90AF900895888199810097D7
:1036400011F00E94EA37198218821D821C821B82A7
:103650001A82E0CF1F93CF93DF93EC01162F0E94C5
:10366000BF36181739F0612FCE01DF91CF911F912E
:103670000C94C736DF91CF911F9108950C94BF36FB
:10368000CF92DF92EF92FF920F931F93CF930E94FE
:10369000760C6B017C01C1E08BE194E00E94DF0CB1
:1036A000892B09F09BC00E94760C6C197D098E094C
:1036B0009F09683B7B4081059105A0F462E08DE0A5
:1036C0000E94B50B8DE00E945E0B892B09F0C0E0D3
:1036D00061E08DE00E94B50B6AE070E080E090E070
:1036E0000E94440C0E94760C0091CA031091CB03F7
:1036F0002091CC033091CD03601B710B820B930B97
:103700006D32714081059105A0F080E00E945E0B52
:1037100061E0892B09F060E080E00E94870B0E9445
:10372000760C6093CA037093CB038093CC03909381
:10373000CD030E94760C6C197D098E099F09693BA7
:103740007B408105910508F4A7CFCC2309F4A4CFD1
:103750008FE090E00E943E1B893009F49DCF60E02D
:1037600080E00E94870B69E08FE090E00E942A1BB6
:103770008DE494E10E9457180E94760CC090CA0311
:10378000D090CB03E090CC03F090CD036C197D0971
:103790008E099F09653671058105910568F380E002
:1037A0000E945E0B61E0892B09F060E080E00E94DE
:1037B000870B8DE00E945E0B61E0892B09F060E0D1
:1037C0008DE00E94870B0E94760C6093CA03709371
:1037D000CB038093CC039093CD03CECFCF911F9199
:1037E0000F91FF90EF90DF90CF9008958F929F926E
:1037F000AF92BF92CF92DF92EF92FF920F931F93FF
:10380000CF93DF93CDB7DEB7C157D1090FB6F89488
:10381000DEBF0FBECDBF61E086E10E94B50B60E068
:1038200086E10E94870B61E080E00E94B50B60E0BA
:1038300080E00E94870B62E08DE00E94B50B8DE076
:103840000E945E0B8C0161E08DE00E94B50B61E08F
:103850008DE00E94870B62E081E00E94B50B61E081
:1038600081E00E94B50B61E081E00E94870B61E07E
:1038700082E00E94B50B60E083E00E94B50B62E03D
:103880008EE00E94B50B61E08EE00E94B50B61E016
:103890008EE00E94870B11B88FEF82B962E085E15C
:1038A0000E94B50B62E084E10E94B50B62E083E107
:1038B0000E94B50B62E082E10E94B50B80E190E0CE
:1038C0000E943E1B80936003833038F060E080E10B
:1038D00090E00E942A1B109260038FE090E00E940B
:1038E0003E1BC12CE2ECDE2EEE24E394F12C893059
:1038F00050F4E82FF0E0EE0FFF1FE15CFE4FC080B8
:10390000D180F12CE12C60E47BE48CE490E0A70111
:1039100096010E940F3721503109410951095695EE
:10392000479537952795E0912B04F0912C0482E080
:103930008083211580E13807A8F0E0912B04F091F5
:103940002C04108260EA75E286E290E0A7019601FD
:103950000E940F3721503109410951095695479569
:10396000379527954BE1E42E44E0F42EE0912704AF
:10397000F09128043083E0912904F0912A042083F7
:1039800010923304E0912F04F091300486E080839C
:10399000E0912D04F0912E04808188698083E0916C
:1039A0002D04F0912E0480818F7D80831F9284E10D
:1039B0008F938CE590E19F938F93FF92EF920E94FB
:1039C00001198AE390E10E9457180E94531881E080
:1039D0008F931F9288E090E19F938F93FF92EF92D5
:1039E0000E94011961E08CE00E94B50B61E08CE05F
:1039F0000E94870B61E08BE00E94B50B60E08BE0DA
:103A00000E94870B61E08FE00E94B50B60E086E1C9
:103A10000E94870B86E00E943C1661E086E10E94CE
:103A2000870B82E00E943C16F09060030FB6F8947A
:103A3000DEBF0FBECDBFF11016C262E08AE00E9469
:103A4000B50B61E082E00E94870B61E087E10E9494
:103A5000B50B60E087E10E94870B64E670E080E0D0
:103A600090E00E94440C61E087E10E94870B64EFC4
:103A700071E080E090E00E94440C8DE090E00E94B4
:103A80003E1B823028F061E08DE090E00E942A1B0E
:103A90008DE090E00E943E1B809306038EE090E054
:103AA0000E943E1B80936603863038F060E08EE013
:103AB00090E00E942A1B10926603109299031092C4
:103AC00098031092A7031092C9031092A503FF2434
:103AD000F394F092A40310929D0361E081E10E94AF
:103AE000870B61E080E10E94870B8091B9008E7F97
:103AF0008093B9008091B9008D7F8093B9008CE5E7
:103B00008093B80085E48093BC0084EE9DE09093A0
:103B100028038093270385EE9DE090932C038093E8
:103B20002B0381E18093B80080E20E94D70A0E94B3
:103B3000D40A81110FC0F092670380E20E94D70A75
:103B40008CE090E00E94590E85E090E00E94590EB2
:103B50000E94D40A88E40E94D70A0E94D40A8111E4
:103B600090C045E567E00E94291967E080E00E9467
:103B70007719853509F085C04AEA67E080E00E9440
:103B8000291967E080E00E9477198A3A09F079C024
:103B900045E567E081E00E94291967E081E00E9425
:103BA0007719853509F06DC04AEA67E081E00E9427
:103BB000291967E081E00E9477198A3A09F061C00B
:103BC00081E080935A036EE080E00E947719482FCD
:103BD00048606EE080E00E94291962E080E00E9467
:103BE0007719482F416062E080E00E94291962E065
:103BF00081E00E947719482F416062E081E00E94D5
:103C0000291960E080E00E940E2B61E080E00E94B4
:103C10000E2B60E081E00E940E2B61E081E00E94AB
:103C20000E2B40EB54E060E070E080E00E94D01981
:103C300040EB54E060E070E081E00E94D01980E049
:103C40000E94E42A81E00E94E42A62E080E00E946F
:103C50007719482F426062E080E00E94291962E0F3
:103C600081E00E947719482F426062E081E00E9463
:103C7000291960E080E00E94771960E081E00E94ED
:103C800077198FE090E00E943E1B8A3028F069E0AF
:103C90008FE090E00E942A1B80910603882309F49C
:103CA000FBC085E01F928F9389EE9FE09F938F93D7
:103CB0002BE1E22E24E0F22EFF92EF920E940119F6
:103CC0002091600380E890E002C0880F991F2A9538
:103CD000E2F79F938F9386ED9FE09F938F93FF92E0
:103CE000EF920E940119809160030FB6F894DEBF35
:103CF0000FBECDBF813009F0D1C08AEB9FE00E949A
:103D00005F0D0E94531888E60E94D70A0E94D40AC9
:103D1000811157C18BE291E00E945F0D81E00E940A
:103D2000201886E592E00E949B1880917403282F4A
:103D3000082E000C330B3F938F938FEF90E09F93EF
:103D40008F938BE194E09F938F930E94011988E6F3
:103D50000E94D70A8FE090E00E94590E0E94D40A78
:103D600061E070E088E690E00E94DE160E94F40AAE
:103D70000F900F900F900F900F900F9087FFFDC046
:103D800028E030E046E050E06AE875E0CE010196B8
:103D90000E94C31ACE0101960E94711A60939C037F
:103DA000CE0101960E947C1A25E030E043E050E00D
:103DB0006AE875E0CE0101960E94C31ACE01019611
:103DC0000E94711A60939B03CE0101960E947C1A97
:103DD00022E030E050E040E06AE875E0CE01019674
:103DE0000E94C31ACE0101960E94711A60939A0331
:103DF000CE0101960E947C1A26E030E044E050E0BB
:103E000064E875E0CE0101960E94C31ACE010196C6
:103E10000E94711A60937703CE0101960E947C1A6A
:103E200090E080E00E94070BEFEBE80FE33108F031
:103E30004CC00E2E000CFF0BE05EF04E0C943137A0
:103E4000C51F651F651FDF1F651FC31F651F651F1A
:103E5000651F541F651F651FCF1FDD1FDB1F651FFB
:103E6000651F651FD91F61E08AE00E94B50B60E005
:103E70008AE00E94870BF1E0FF1508F0E2CD60E0D8
:103E800082E00E94870B61E087E10E94B50B60E051
:103E900087E10E94870BF1CD8AE004CF823009F0E0
:103EA00030CF84E89FE02BCF81E090E00E94070BA9
:103EB000813609F464C082E090E00E94070B8E36E0
:103EC00009F05FC086E0809376032BE030E049E0A4
:103ED00050E064E875E0CE0101960E94C31ACE015D
:103EE00001960E94711A60937503CE0101960E949B
:103EF0007C1A87EE90E00E9457188CEB90E00E94AD
:103F00005F0D80E00E94201881EB90E00E945F0D21
:103F10000E94401B8BE194E00E94BE0C809303033F
:103F2000893731F0893521F08E3611F08E3481F7E2
:103F30000E947B18809103038F7D893589F440911D
:103F4000750360917603809177030E945E0E8CE882
:103F500090E00E945F0D81E00E9420180E9453189B
:103F600088E60E94D70A8FE090E00E94590E88E010
:103F700090E00E94590E0E94D40A81E023C081E0A3
:103F8000A2CF87E0A0CF82E09ECF82E090E00E94A7
:103F9000070B823711F484E096CF88E094CF82E05B
:103FA00090E00E94070B823711F483E08CCF85E00C
:103FB0008ACF89E088CF8AE086CF8BE084CF8CE0FF
:103FC00082CF80E08093570380916703882321F09C
:103FD0008EE69FE00E94571880915A03882321F0B3
:103FE00080E59FE00E9457188CE090E00E943E1B05
:103FF000823028F060E08CE090E00E942A1B8CE088
:1040000090E00E943E1B80935603882309F446C02B
:1040100088E692E09F938F9387E39FE09F938F932F
:104020008BE194E09F938F930E9401198DE0E6E26B
:10403000F1E0DE01AB59BF4F01900D928A95E1F797
:104040000E947310809305030F900F900F900F90B4
:104050000F900F90811125C080E29FE00E945718B9
:104060008AE090E00E943E1B80930403012B51F0F4
:10407000873040F4843008F0DDC180910503882347
:1040800009F4D8C18BE194E00E94DF0C18161906E0
:1040900034F58BE194E00E94BE0CF4CF8BE692E005
:1040A000B9CF50E040E0682F80E00E94A718CE0111
:1040B0008B599F4F7C016C0194E0C90ED11CF70114
:1040C0008181082E000C990B0E945439F7018183DD
:1040D000FFEFEF1AFF0ACE14DF0489F7C1CF8FEE8E
:1040E0009EE09F938F938BE194E09F938F930E9428
:1040F0000119E09104030F900F900F900F90E7309B
:1041000008F0B7C1E43020F4809105038111B1C1FA
:1041100025E630E02C0F3D1F2E0F311DF901818166
:10412000282F082E000C330B3F938F931F9288E5A6
:104130008F9389EC9EE09F938F938BE194E09F9304
:104140008F930E9401190FB6F894DEBF0FBECDBF4A
:104150008091050381113BC01F9282E48F938BEB0A
:104160009EE09F938F930BE114E01F930F930E94A7
:1041700001191F9286E48F938DEA9EE09F938F939F
:104180001F930F930E9401191F928FE48F938AE966
:104190009EE09F938F931F930F930E94011980912C
:1041A00066030E94DC170E9453181F9281E48F93CC
:1041B00089E89EE09F938F931F930F930E940119AC
:1041C0000E9453180FB6F894DEBF0FBECDBF1F92EA
:1041D00084E58F9386E79EE09F938F930BE114E035
:1041E0001F930F930E9401191F9287E58F9387E613
:1041F0009EE09F938F931F930F930E9401191F922C
:1042000088E48F9387E59EE09F938F931F930F938E
:104210000E9401190E9453180FB6F894DEBF0FBE1A
:10422000CDBF80910603882309F43AC18AE01F922A
:104230008F931F9283E48F938CE29EE09F938F93E2
:104240008BE194E09F938F930E9401190FB6F8942D
:10425000DEBF0FBECDBF80915603882309F422C173
:104260008BE692E09F938F931F9285E48F9387E074
:104270009EE09F938F938BE194E09F938F930E9496
:1042800001198FE090E00E943E1B0FB6F894DEBF4C
:104290000FBECDBF893008F008C1E82FF0E0EE0F67
:1042A000FF1FE15CFE4F80819181B0E0A0E0BF93F1
:1042B000AF939F938F931F9283E58F9383EE9DE03F
:1042C0009F938F930BE114E01F930F930E940119AA
:1042D0000FB6F894DEBF0FBECDBF80915703882381
:1042E00009F4E8C01F9284E48F9389EC9DE09F93CA
:1042F0008F931F930F930E9401190F900F900F90AF
:104300000F900F900F9080E190E00E943E1B20E8FC
:1043100030E002C0220F331F8A95E2F73F932F93BC
:104320001F9282E58F938CEA9DE09F938F930BE120
:1043300014E01F930F930E94011985E99DE09F935C
:104340008F931F930F930E9401190FB6F894DEBF4D
:104350000FBECDBF0E94401B8BE194E00E94BE0CBB
:104360000E945C39182F809303038F3309F0B9C082
:10437000809173038F5F80937303BE016B597F4FEE
:10438000812F0E94D116882329F3812F0E947B1848
:1043900080917303882391F01F928F938FE79DE0A4
:1043A0009F938F938BE194E09F938F930E940119C9
:1043B0000F900F900F900F900F900F90809103032C
:1043C000853409F406C10CF092C0833409F4F5C0B9
:1043D000843409F491C1BE016B597F4F809103036E
:1043E0000E94D11682508093040390917303992305
:1043F00091F01F928F9387EF9CE09F938F938BE1B7
:1044000094E09F938F930E9401190F900F900F904B
:104410000F900F900F9060910403673008F080C3F5
:10442000643020F48091050381117AC38AE090E022
:104430000E942A1B80910403823051F489EC9CE095
:104440000E945F0D809166030E94DC170E94531842
:10445000E0910403E73008F080C3F0E0EE5CFD4D2E
:104460000C943137A02522262B267226752682260B
:104470009126BE016B597F4F88E50E94D116182FF7
:10448000882309F465CE88E590E00E945439E5E67A
:10449000F0E0EC0FFD1FE10FF11D3197808358CE46
:1044A00085E0C5CE88E692E0DDCE80E092ECA1E02A
:1044B000B0E0FDCEBE016B597F4F84E40E94D1165F
:1044C000182F882309F41FCF84E490E00E94543908
:1044D000E5E6F0E0EC0FFD1FE10FF11D3197808361
:1044E00012CF803209F049CF1092730346CF823544
:1044F00009F4ABC2833509F476C08F3409F06BCF71
:104500008EE092E00E94571880916603815080935C
:10451000020306E0809102038F5F602F0E94EF3656
:10452000192F909302038AE79DE00E945F0D812F6F
:104530000E94DC1787E69DE00E945F0D8BE194E00E
:104540000E94DF0C181619062CF48BE194E00E94EF
:10455000BE0CF4CF8BE194E00E94DF0C1816190614
:104560001CF00E94401BF6CF8BE194E00E94BE0C31
:10457000809303038D3011F08B3161F683E69DE06B
:104580009F938F938BE194E09F938F930E940119E7
:104590000F900F900F900F90809103038D3009F0D2
:1045A0001ACF60910203609366038EE090E00E9450
:1045B0002A1B8FE4809303030ECF61E080910603F2
:1045C000811160E0609306038DE090E00E942A1B59
:1045D00002CF61E080915603811160E06093560341
:1045E0008CE090E0F3CF8EE092E00E9457188FE0CD
:1045F00090E00E943E1B815080930203BAE0DB2EC4
:1046000007E51DE08BE1E82E84E0F82E809102039F
:104610008F5F6D2D0E94EF3690930203993029F140
:10462000E92FF0E0EE0FFF1FE15CFE4F80819181EA
:10463000B0E0A0E0BF93AF939F938F931F930F932E
:10464000FF92EF920E9401190FB6F894DEBF0FBEE1
:10465000CDBF8BE194E00E94DF0C1816190654F4CC
:104660008BE194E00E94BE0CF4CF80E092ECA1E0DC
:10467000B0E0E0CF8BE194E00E94DF0C1816190641
:104680001CF00E94401BF6CF8BE194E00E94BE0C10
:10469000809303038D3019F08B3109F0B7CF83E598
:1046A0009DE09F938F930BE114E01F930F930E9463
:1046B00001190F900F900F900F90809103038D3090
:1046C00009F089CE8FE090E00E943E1B60910203CA
:1046D000861709F480CE8FE090E00E942A1B8DE1BE
:1046E0009DE09F938F931F930F930E9401190F904A
:1046F0000F900F900F906FCE0E94251710926203BB
:1047000084EF91E00E94571885EC91E00E945718C1
:10471000EAE0FE2EF6EFEF2EDD24D39483EC91E059
:104720000E945F0D80916203823009F440C018F549
:10473000882369F18130A1F10E94401B8BE194E054
:104740000E94BE0C082F80930303853709F44DC0E7
:10475000853509F44AC0843709F4E0C4843509F486
:10476000DDC48D3049F7109162036DE08BE194E078
:104770000E94120D5EC0843089F148F18530E1F667
:1047800087E791E00E945F0D80919C0306C08AEB51
:1047900091E00E945F0D809175030E941018CCCFAC
:1047A00080EB91E00E945F0D80917603F6CF82EA64
:1047B00091E00E945F0D6DE08BE194E00E94120D8C
:1047C00089E991E00E945F0D80917703E6CF8FE841
:1047D00091E00E945F0D80919A03DFCF83E891E022
:1047E0000E945F0D80919B03D8CF1091620312301D
:1047F00009F463C0E0F5112309F449C0113009F44C
:1048000051C0802F8F7D843509F0AAC0123009F481
:10481000C3C008F08DC0112309F49BC0113009F406
:10482000AFC06DE08BE194E00E94120D0D3009F0F5
:1048300075CF1F5F10936203163008F46FCF40915D
:10484000750360917603809177030E945E0E87E680
:1048500091E00E9457188AE491E00E945F0D81E088
:104860000E94201886E592E00E949B18B4CD143077
:1048700009F450C008F443C0153019F680919C0328
:104880008F5F8C3308F051C080939C03BACF809126
:1048900075038F5F843618F480937503B2CF10923E
:1048A0007503AFCF809176038F5F8D3018F48093BE
:1048B0007603A7CF10937603A4CF809177038F5F01
:1048C00080937703E0917603E23089F490E02091C1
:1048D0007503237049F42DE130E0281739070CF0F7
:1048E00090CFD09277038DCF2CE130E0F6CFF0E07F
:1048F000EE5CFE4F9081981708F083CFF2CF809145
:104900009A038F5F883118F480939A037ACF1092BC
:104910009A0377CF80919B038F5F8C3318F4809339
:104920009B036FCF10929B036CCF10929C0369CFB7
:10493000143009F46EC008F45AC0153009F071CF74
:1049400020919C03265F2C3308F075C020939C03B4
:1049500007C020917503265F243640F42093750329
:104960006DE08BE194E00E94120DD8CE822F6F2D66
:104970000E94EF368E9D200D11242093750351CF98
:10498000809176038B3020F08A508093760349CF54
:10499000833030F7865FF9CF20917703265F20932D
:1049A0007703422F50E0E0917603F0E0EE5CFE4F9B
:1049B000808190E030917503337061E070E011F018
:1049C00070E060E0860F971F841795074CF4822FE4
:1049D0006F2D0E94EF368E9D200D112420937703BA
:1049E000809177038111BCCFD09277031ACF2091A9
:1049F0009A03265F283118F420939A03B1CF822FAF
:104A00006F2D0E94EF368E9D200D112420939A0366
:104A100008CF20919B03265F2C3318F420939B032F
:104A20009FCF822F6F2D0E94EF368E9D200D112477
:104A300020939B03F6CE822F6F2D0E94EF368E9D22
:104A4000200D112420939C03ECCE8EE092E00E9476
:104A500057188091600381508093020353E0C52E64
:104A6000D12C60E8A62EB12C0DE01DE07BE1E72EF5
:104A700074E0F72E809102038F5F90E0B6010E94F0
:104A8000FB36982E8093020388E19DE00E945F0D23
:104A9000C50102C0880F991F9A94E2F79F938F93E4
:104AA0001F930F93FF92EF920E9401190F900F90A6
:104AB0000F900F900F900F908BE194E00E94DF0C0D
:104AC000181619062CF48BE194E00E94BE0CF4CF6A
:104AD0008BE194E00E94DF0C181619061CF00E946E
:104AE000401BF6CF8BE194E00E94BE0C8093030341
:104AF0008D3019F08B3109F0BDCF0E9453180E9400
:104B00005318809103038D3009F065CC6091020346
:104B10006093600380E190E00E942A1B88E54ACD03
:104B200080910503811107C08AE090E00E943E1B3E
:104B3000809304037FCC87ED9CE00E945718FFCF41
:104B40008FE692E090930103809300031092FF029E
:104B50001092FE0281E080935F0361E080E00E949A
:104B6000870B0091FE021091FF020115110519F14A
:104B7000F090730390E080E00E944E1683EC0E9458
:104B80008216802F0E948216812F0E948216FF209B
:104B900091F01F930F9382E693E09F938F938BE1A5
:104BA00094E09F938F930E9401190F900F900F90A4
:104BB0000F900F900F908091FE029091FF020E9443
:104BC0004E16809173038823F1F084E493E00E94F1
:104BD0005F0D6091FA027091FB0290E080E04AE084
:104BE0000E9491170E9453188EE293E00E945F0D7D
:104BF0006091FE027091FF0290E080E040E10E942F
:104C000091170E94531880910403843008F047C222
:104C10000E947310882309F470C10E94731080935E
:104C20000503882309F469C160910503662329F00F
:104C300050E040E080E00E94A7180E9463180E94A4
:104C40007310EBCF8BE792E0909301038093000306
:104C500080E091E031C080916603823091F170F480
:104C6000882311F1813009F078CF81E992E09093A7
:104C700001038093000380E890E01EC0843079F146
:104C800018F1853009F069CF8BEB92E09093010326
:104C9000809300031092FF021092FE0281E0809345
:104CA0005F0380935E0359CF87E892E090930103FE
:104CB0008093000380EE91ED9093FF028093FE02BB
:104CC0004CCF8CE992E0C0CF87EA92E09093010349
:104CD000809300031092FF021092FE023ECF83EBFE
:104CE00092E0F4CF85EC92E0F1CF89EC94E09093E0
:104CF000FD028093FC0280E098E09093FB02809399
:104D0000FA02E8CF81E993E09093FD028093FC02E0
:104D100088E391E09093FB028093FA0280E89EEF93
:104D2000CBCF8EE793E09F938F930BE114E01F931B
:104D30000F930E94011983EA92E09F938F931F9330
:104D40000F930E9401190FB6F894DEBF0FBECDBFBE
:104D500000E010E03BE4E32E32E0F32E45E7C42E02
:104D600042E0D42E8BE194E00E94DF0C892B51F4B9
:104D700061E070E080E090E00E94440CF3CF01E03D
:104D800010E0F0CF8BE194E00E94BE0C8A33B9F3BF
:104D90008A3019F08D3009F0A1C0011102C000E085
:104DA000EFCF1123E1F3E1E0F0E0EC0FFD1FE10FA5
:104DB000F11D1082CE0101960E949B18CE01019632
:104DC0000E94CC2A082FCE0103960E94CC2AA82E3E
:104DD000CE0105960E94CC2ABA2CA82ECE010796A9
:104DE0000E94CC2A982E102F180F1A0D1B0D81111E
:104DF00020C08091000190910101A816B90620F40D
:104E0000B0920101A0920001C5010E944E165E0100
:104E100039E0A30EB11C0915F1F1C5010E94CC2A9D
:104E2000882E0E948216180D939482E0A80EB11C61
:104E3000F2CF91E089131FC0809101018F9380917F
:104E400000018F938BE892E09F938F938BE194E026
:104E50009F938F930E94011980910001909101010D
:104E60009093FF028093FE020F900F900F900F908F
:104E70000F900F9072CE1F928F93DF92CF928BE1A3
:104E800094E09F938F930E9401190F900F900F90C1
:104E90000F900F900F901195802F90E0880F991F21
:104EA0000896E1E0F0E0EC0FFD1F8E0F9F1F0E94BF
:104EB000CC2A181709F473CF1F928F931F921F9358
:104EC000FF92EF928BE194E09F938F930E940119E0
:104ED0000FB6F894DEBF0FBECDBF61CF002309F43B
:104EE00041CF133608F03ECFE1E0F0E0EC0FFD1FBC
:104EF000E10FF11D80831F5F35CF009100031091FA
:104F000001036CE972E0C8010E946D39892B31F010
:104F1000C8010E94C0148093050310C082ED92E086
:104F20000E94C0148111F4CF82ED92E090930103AE
:104F30008093000360E08DE00E94870B8091050361
:104F40008823E9F060910503662339F0409100035E
:104F50005091010381E00E94A7180E9463180091FC
:104F6000000310910103C8010E94C014809305033F
:104F7000833021F30E9473100E947310C9CF809177
:104F800001038F93809100038F938AE093E09F93B6
:104F90008F938BE194E09F938F930E9401190F9060
:104FA0000F900F900F900F900F90CE0101960E94DE
:104FB000C112082F89818093550300930503109235
:104FC00002031091020380915503181758F4E12F42
:104FD000F0E0E253FC4F80810E9482161F5F109325
:104FE0000203EFCF803291F40023F9F240910003E5
:104FF00050910103602F82E00E94A7180E9463185D
:1050000060E070E0CB010E94911302C00111EECF6D
:10501000809105038111C9CF8EED92E00E9457184F
:1050200060E086E10E94870B8091B6008F7D8093BF
:10503000B6008091B10081608093B1008091B10091
:10504000897F8093B1008091B00082608093B0002E
:105050008091B0008E7F8093B0008091B00080641A
:105060008093B0008091B0008F778093B0008091E2
:1050700006038093B30061E08FE00E94B50B81ECE2
:1050800092E00E9457188BE194E00E94DF0C181602
:10509000190634F58BE194E00E94BE0CF4CF863003
:1050A000D0F48DEE92E00E945F0D10E000E0809160
:1050B000FA029091FB020817190708F0ADCFE091B2
:1050C000FC02F091FD02E00FF11F84910E94821614
:1050D0000F5F1F4FECCF84EE92E00E945F0D9CCFDC
:1050E00061E070E080E090E00E94440C61E086E1C5
:1050F0000E94870BCF58DF4F0FB6F894DEBF0FBE6C
:10510000CDBFDF91CF911F910F91FF90EF90DF9076
:10511000CF90BF90AF909F908F90089510916203B1
:1051200075CB1F920F920FB60F9211244F935F937E
:105130006F937F938F939F9340916F035091700370
:10514000609171037091720380916E0390916D0371
:10515000943019F510926D0390916D0390FD21C06C
:105160008A598D3728F08D574F5F5F4F6F4F7F4FB4
:1051700080936E0340936F035093700360937103A9
:10518000709372039F918F917F916F915F914F9177
:105190000F900FBE0F901F9018959F5F90936D0317
:1051A000DBCF8959DECF1F920F920FB60F921124D9
:1051B0000BB60F922F933F934F935F936F937F9311
:1051C0008F939F93AF93BF93EF93FF938BE194E003
:1051D0000E94F00CFF91EF91BF91AF919F918F9141
:1051E0007F916F915F914F913F912F910F900BBEE7
:1051F0000F900FBE0F901F9018951F920F920FB631
:105200000F9211240BB60F922F938F939F93EF93CE
:10521000FF93E0912B04F0912C048081E091310404
:10522000F091320482FD1CC09081809134048F5F24
:1052300020913504821741F0E0913404F0E0E55EFE
:10524000FB4F958F80933404FF91EF919F918F9145
:105250002F910F900BBE0F900FBE0F901F901895BF
:105260008081F2CF1F920F920FB60F9211240BB6CE
:105270000F922F933F934F935F936F937F938F93EF
:105280009F93AF93BF93EF93FF938091B900887F73
:10529000803609F44DC008F040C0883209F4A9C036
:1052A00028F5803109F49DC0C8F4882309F407C1AA
:1052B000883009F496C0FF91EF91BF91AF919F9113
:1052C0008F917F916F915F914F913F912F910F90AF
:1052D0000BBE0F900FBE0F901F901895883109F4E8
:1052E00088C0803241F78093A30314C0803409F44E
:1052F000A5C040F48033B9F38833E9F68093A30363
:1053000085ECBCC0803509F489C0883509F49EC09D
:10531000883489F60E94B30DCECF883909F494C041
:1053200038F5883729F050F4883611F0803719F6AF
:1053300083E08093A50310924D0357C0883809F489
:1053400083C0803919F0803809F0B5CF80914D03C2
:10535000803208F079C0E0914D0381E08E0F809398
:105360004D038091BB00F0E0E35DFC4F80833DC0C6
:10537000803B39F0E0F4803A09F485C0883A09F0BE
:105380009ACF84E08093A50310922A0310922903F8
:10539000E0912703F0912803099580912903811159
:1053A0000FC081E0809329031092070309C0803C5D
:1053B00009F4A6CF883C09F4A3CF883B09F07BCF42
:1053C000E0912A0381E08E0F80932A03F0E0E95FE9
:1053D000FC4F80818093BB0090912A038091290328
:1053E00031C080919E038093BB0085EC8093BC000C
:1053F00062CF9091A00380919F039817B8F5809198
:10540000A1039091A203E091A00321E02E0F20932D
:10541000A003E80FF92FF11D8081E5CF2091A103B2
:105420003091A203E091A00381E08E0F8093A0034E
:105430008091BB00E20FF32FF11D80839091A003B8
:1054400080919F03981788F285E8D0CF2091A1031F
:105450003091A203E091A00381E08E0F8093A0031E
:105460008091BB00E20FF32FF11D80838091A40394
:10547000811150CF81E080939D0384EA8093BC002A
:105480001092A50318CF85EC8093BC001092A50361
:1054900080914D03803230F4E0914D03F0E0E35D04
:1054A000FC4F108260914D0370E0E0912B03F0916E
:1054B0002C038DE293E0099510924D03FCCE1092DF
:1054C000A30328CFEF92FF920F931F93CF93DF9305
:1054D0000097C9F0EA018C012097B1F1E0904E03EA
:1054E000F0904F03E114F10479F1F80181918F01FB
:1054F0000E94370FF1E0EF1AF108F0924F03E092AB
:105500004E032197E9CF411551056105710529F138
:105510008091EE0383FD07C089E0440F551F661F8D
:10552000771F8A95D1F788E50E947D0F81111DC0F4
:105530008FEF0E94370F8EEF0E94370F80E092E0CE
:1055400090934F0380934E0390E080E0DF91CF91E2
:105550001F910F91FF90EF900895DF91CF911F91D0
:105560000F91FF90EF900C94410F81E090E0EECF0F
:10557000982F80ED890F8A3070F08FEB890F86307D
:1055800018F489EC890F08958FE9890F863010F49B
:1055900089EAF8CF80E008950F931F93CF93DF93AC
:1055A0008C01FC0180810E94B82AC82FF8018181FA
:1055B0000E94B82AF0E1CF9FE00111248C2BDF91EB
:1055C000CF911F910F910895CF93DF93D82F63E070
:1055D0000E947719807CC82FC36080917303882351
:1055E000B1F01F92CF931F92DF938EE294E19F93CD
:1055F0008F938BE194E09F938F930E9401198DB755
:105600009EB708960FB6F8949EBF0FBE8DBF4C2F65
:1056100063E08D2FDF91CF910C9429190F931F9385
:10562000CF93DF93C82F162F80917303833018F127
:1056300085E692E0662311F082E692E01F9220E375
:105640002F939F938F938C2F90E08F5B9F4F9F930F
:105650008F9382E094E19F938F938BE194E09F93EB
:105660008F930E9401198DB79EB70A960FB6F894D2
:105670009EBF0FBE8DBF64E08C2F0E947719482F0C
:10568000446064E08C2F0E94291963E08C2F0E94F3
:105690007719082F4FEB63E08C2F0E94291962E0E5
:1056A0008C2F0E947719D82F482F406162E08C2FF1
:1056B0000E94291940EC11114CE067E08C2F0E94E8
:1056C00029194D2F62E08C2F0E942919402F63E089
:1056D0008C2FDF91CF911F910F910C9429190F936B
:1056E0001F93CF93DF93C82F162FD42F809173036E
:1056F0008330E0F01F924F931F926F938C2F90E0B6
:105700008F5B9F4F9F938F938CE991E19F938F9332
:105710008BE194E09F938F930E9401198DB79EB700
:105720000A960FB6F8949EBF0FBE8DBF63E08C2F14
:105730000E947719082F4FEB63E08C2F0E942919E4
:1057400062E08C2F0E947719482F4F73111140642B
:10575000D111406862E08C2F0E942919402F63E02C
:105760008C2FDF91CF911F910F910C942919EBE1B0
:10577000F4E01382128288EE93E0A0E0B0E084832C
:105780009583A683B78329E232E03183208325EC19
:1057900030E03587248724EC30E03787268720ECFB
:1057A00030E0318B208B21EC30E0338B228B22ECEC
:1057B00030E0358B248B26EC30E0378B268B118E36
:1057C000128E138E148EE8E7F5E013821282848322
:1057D0009583A683B7838BE392E091838083EAE885
:1057E000F5E011821082138212821582148248E041
:1057F00050E06EED72E0CF010E94841AE4E8F5E01B
:105800001182108213821282158214824BE050E0C2
:1058100067EE72E0CF010C94841ACF93DF9300D02F
:1058200000D0CDB7DEB7789484B5836084BD85B5EC
:10583000836085BD80916E00816080936E0082E000
:1058400080938100809181008160809381008091AC
:1058500080008160809380008091B100846080939B
:10586000B1008091B00081608093B0008091910080
:10587000836080939100809190008160809390007C
:1058800087E880937A001092C1000E94F61B5BE1CA
:10589000E52E54E0F52E83E00E945E0B892B99F5EE
:1058A00083E10E945E0B892B09F0B8C482E10E945B
:1058B0005E0BD0B0D0926C0390911F01882309F445
:1058C0007DC09F3F51F090931E0180916A0390919B
:1058D0006B039093690380936803D0921F01109229
:1058E0006B0310926A0360E08EE00E94870B60E019
:1058F00080E00E94870B61E080E00E94870B61E0FE
:105900008EE00E94870B80911F018F3F09F053C0EA
:1059100080915F038823E1F0809154038823C1F0D4
:1059200080910D018823A1F08BE194E00E94DF0CAF
:10593000181619066CF460E081E00E94870B8091D4
:10594000590381608093590310920D011092540302
:1059500080915E03882379F10E94F10B009150033E
:105960001091510320915203309153034B015C017C
:10597000801A910AA20AB30A2091110130E0A8EE20
:10598000B3E00E94E036681579058A059B0598F416
:1059900060E081E00E94870B8091590382608093D0
:1059A00059030E94F10B609350037093510380934D
:1059B0005203909353030E949E0D6DCF9C3009F4C7
:1059C00087C108F051C0963009F40BC118F5933027
:1059D00009F4E8C078F4992309F4D7C0913009F4A8
:1059E000DBC080911F018A3009F47DCF8C3009F42F
:1059F0007ACFD5C2943009F4E9C0953091F78091FF
:105A00006703882309F4CBC280E20E94D70A90E0A2
:105A100080E0D2C0993009F4FAC080F4973009F4DC
:105A2000EBC09830F1F680916703882309F4B7C280
:105A300080E20E94D70A8DE090E0BEC09A3009F45F
:105A400006C19B3071F6D0926303809164039091FC
:105A500065038115924008F034C12FE12D1508F43B
:105A600035C110921201BDCF923109F4AFC208F0D6
:105A700078C09F3009F4A0C280F49D3009F46DC253
:105A80009E3009F0AECF8D2D817080935F03D1FAE7
:105A9000DD24D0F8D0925E03A4CF903109F491C2F6
:105AA000913109F09ECF80916703882309F477C272
:105AB00081E080935C0311E0D11010E010935B0350
:105AC00080E20E94D70A82E190E00E94590E110FF5
:105AD000012F0560802F90E00E94590E0E94D40A89
