:100000000C94230A0C944B0A0C944B0A0C944B0A44
:100010000C944B0A0C944B0A0C944B0A0C944B0A0C
:100020000C944B0A0C944B0A0C944B0A0C94242805
:100030000C944B0A0C9487280C9461280C944B0A5E
:100040000C944B0A0C944B0A0C944B0A0C94B92850
:100050000C944B0A494F533A205254432073657411
:1000600020617420636F6D70696C652074696D65C3
:10007000202D204E6F773A2000293F205B592F4ECC
:100080005D203E000A446F20796F752077616E74A1
:10009000207365742052544320617420494F5320CB
:1000A000636F6D70696C652074696D652028004907
:1000B0004F533A2052544320636C6F636B20666148
:1000C000696C7572652100494F533A2052544320A0
:1000D0004453333233312074656D706572617475C9
:1000E00072652073656E736F723A202564C2B043E7
:1000F0000D0A00494F533A20466F756E64205254E2
:100100004320445333323331204D6F64756C652086
:100110002800494F533A2052544320646174652F9C
:1001200074696D65207570646174656420280020B1
:100130002E2E2E646F6E652020202020200A005372
:1001400065636F6E6473202D3E20004D696E75747B
:100150006573202D3E2000486F757273202D3E2060
:100160000020446179202D3E2000202020202020E6
:1001700020202020202020004D6F6E7468202D3E0E
:10018000200059656172202D3E200020000A507227
:1001900065737320542F5520746F20696E637265E8
:1001A0006D656E74202B31302F2B31206F72204300
:1001B0005220746F20616363657074000A494F5365
:1001C0003A20525443206D616E75616C20736574E2
:1001D00074696E673A000D0A50726573732043525A
:1001E00020746F206163636570742C204553432035
:1001F000746F2065786974206F7220616E79206F4A
:1002000074686572206B657920746F206368616E15
:10021000676500436865636B73756D206572726F07
:10022000723A2063616C633D3078253032582C205F
:10023000676F743D3078253032580D0A005265637F
:100240006F726420747970653A20307825303258A6
:100250000D0A005374617274206164647265737373
:100260003A203078253034580D0A00576169746996
:100270006E672048455820696E70757420737472DB
:1002800065616D2E2E2E0D0A00494F533A205A38C3
:10029000302069732072756E6E696E672066726FAA
:1002A0006D206E6F770020446F6E65004865782082
:1002B0004C6F616400494F533A204C6F6164696E22
:1002C0006720626F6F742070726F6772616D2E2E7F
:1002D0002E000D0A494F533A204C6F6164696E67D6
:1002E00020626F6F742070726F6772616D202825B5
:1002F00073292E2E2E0044454255473A20426F6FF7
:100300007453747241646472203D20004445425528
:10031000473A20466C61736820426F6F74496D6183
:10032000676553697A65203D200044454255473A48
:1003300020496E6A6563746564204A5020307825D0
:100340003034580D0A00496E74656C2D486578206C
:100350004C6F616465720D0A00C389FEC3ACFFDB9C
:1003600001C9310000FD2100FE180EFE082819FE0B
:10037000032806FD45CB78281ACD42FF3E5CCDAC64
:10038000FFCD42FFFD2101FEFD2BFD45CB7820F185
:10039000CD4DFFCD86FEFEFF28F9FE08CC4BFFFDBC
:1003A00023FD7700CDACFFFE0D20C0FD2100FE3EF9
:1003B00000DD6FCB27CB2732B7FFFD23FD7E00FE8C
:1003C0000D28BEFE2E38F328EAFE3A28E8FE522811
:1003D00047FE51CA41FF210000FD22B5FFFD7E000E
:1003E000EE30FE0A3808F620CE89FEF93815CB2704
:1003F000CB27CB27CB27060417CB15CB1410F9FD41
:100400002318DAFD453AB5FFB8CAA0FE3AB7FFCBCC
:1004100077281D7D121318A4DDE9763E0DCDACFFC3
:100420003E0A1861FD2B3E20CDACFF3E08C3ACFF59
:10043000CB7F2026545DE5DDE1BFC276FFCD42FFD4
:10044000DD7CCD95FFDD7DCD95FF3E3ACDACFF3E09
:1004500020CDACFFDD7E00CD95FFAF32B7FFDD7D57
:10046000BDDD7C9C30B0DD23DD7DE60718CCF5CB0F
:100470003FCB3FCB3FCB3FCDA2FFF1E60FF630FEA7
:100480003A3802CE07F53E01D301F1D300C9FFFF90
:10049000FF3100093EC9C31901E3EFBE2318613ED5
:1004A0000DF53E01D301C30101CDDE03E5C39A037F
:1004B000577CBAC07DBBC900411AFE20C01318F991
:1004C0004EF1CD6105C3740547EFD640D8201B130C
:1004D000CDA20429DADB002323D5EBCDE404E7DA4F
:1004E000A2052100FFCD2E05D1C9FE213802D6205C
:1004F000FE1B3FD81321FE0707856F3E008C67C99E
:100500002807C54E060009C11B1323E3C9210000BB
:1005100044CF270B1A6F131AFE27206A1304C9FE53
:10052000242822FE30D8FE3AD03EF0A4203E04C556
:10053000444D292909291A13E60F856F3E008C675F
:10054000C11AF29200131AFE30D8FE3A380AFE4160
:10055000D8E65FFE47D0D607E60FC5473EF0A47841
:10056000C120090429292929B56F18D9D511ED0011
:10057000C3780554696E794241534943320D484F5F
:10058000573F0D4F4B0D574841543F0D534F52525B
:10059000590DF1D300FE0DC03E0AD73E0DC9DB0157
:1005A0003CC83DE67FFE03C018153200FF11E20093
:1005B000CD0C06210000224A08210009223608310C
:1005C0000009CD0E0011F20097CD0C062142012248
:1005D0003808210000224008223A083E3ECDA705F7
:1005E000D51180FFCD7C00EF7CB5C1CA16071B7CFE
:1005F000121B7D12C5D57993F5CDE705D52010D511
:10060000CD0206C12A3608CDC1066069223608C16E
:100610002A3608F1E5FE0328A6856F3E008C671197
:1006200000FFE7D2A105223608D1CDC906D1E1CD20
:10063000C10618A7CD7005210009223608CD700526
:10064000C32E01CD7005110009210000CDEF05DAA0
:100650002E01ED5338081313CD0D01215A07C3198C
:1006600007DFD5CD7005CDE705C2DC00F118E3CD7D
:100670007C00CD7005CDE705DA2E01CDAA06CD0DA3
:1006800001CDEF0518F2AF3235080E08CF3B05CD8E
:100690000E0018C4CF0D03D718AFCF2304DF4D18B9
:1006A00019CF2511DF7DFE01CADB00FE11D2DB0070
:1006B0003235081805CD17061810CF2C05CD610569
:1006C00018D8AF323508CD0E00F7DFC5CD4A06C1C8
:1006D00018E8CDF106DFD5CDE705C2DC002A3808E1
:1006E000E52A3A08E5ED62224008ED733A08C3C1F5
:1006F00001CD70052A3A087CB5CA7405F9E1223AA1
:1007000008E1223808D1CDD606F7CDF106CD520545
:100710002B22400821D307C31907DF22440821D91F
:1007200007C31907DF18032101002242082A3808ED
:10073000224608EB224808010A002A4008EB6068BC
:10074000393E097E23B628177E2BBA20F57EBB20C2
:10075000F1EBED6239444D210A0019CDC906F92AA1
:100760004808EBF7FFDA7405223C08D5EB2A40086D
:100770007CB5CA7505E72809D1CDD6062A3C0818EC
:10078000EA5E23562A4208E57CAA7A19FA0203ACEB
:10079000FA2303EB2A40087323722A4408F1B7F2C4
:1007A0001203EBCD4A05D1380D2A46082238082A13
:1007B0004808EBF7E1D1CDD606F72100003EDF7CFB
:1007C000B5C2C701CD0406D2C101C32E01ED7B3EE7
:1007D00008E1223808D1D1D5CD17061805FF3836E3
:1007E0001810D5FFDA74051A4F9712D1CD0C06797F
:1007F0001B12D5EB2A3808E5214603223808ED7391
:100800003E08D53E3ACDA7051180FFDFD1EB73231B
:1008100072E1223808D1F1CF2C0218BBF71AFE0D75
:100820002808CD5205CF2C0218F8F721E107C3198B
:1008300007CDC903C06FC9CDC903C86FC9CDC903EE
:100840006FC8D86CC9CDC903D06FC9CDC903D86FE3
:10085000C9CDC903C8D86FC9E1C979E1C1E5C54FA0
:10086000CDDE03EBE3CD4A05D12100003E01C9CF27
:100870002D04ED621821CF2B00CD2104CF2B15E5DF
:10088000CD2104EBE37CAA7A19D1FAEB03ACF2EBAD
:1008900003C3DB00CF2D09E5CD2104CD350518E3D9
:1008A000CF7C97E5CD2104EBE37CB2677DB36FD1BC
:1008B00018CACD8E04CF2A29E5CD8E040600CD328C
:1008C00005E3CD3205EBE37CB728067AB2EBC2DC58
:1008D000007D210000B7282819DADC003D20F91836
:1008E0001FCF2F29E5CD8E040600CD3205E3CD3292
:1008F00005EBE3EB7AB3CADC00C5CD19056069C12D
:10090000D17CB7FADB0078B7FC350518A8CF262ACA
:10091000E5CD8E04EBE37CA2677DA36FD118962111
:10092000AC07C31907FF38057E23666FC9CD7C006D
:1009300078B7C0CF2805DFCF2901C9C37405CDA280
:10094000047CB7FADB00B5CADB00D5E52A4A0811FA
:10095000FD07E73803210000ED5FAE5F23AE5722AD
:100960004A08E1EBC5CD1905C1D123C9CDA2041BAD
:10097000CD320513C92A3608D5EB2100FFCD2E054F
:10098000D1C9CDA2046E2600C9CDA204C300FFCDFB
:10099000A204E92100FFC9DFCF2C0DE5DF7DE1775F
:1009A000CF2C0423E518F5F7185BE56C2600CD2461
:1009B00005417DE1670EFF0CCD2E0530FA19C9B750
:1009C000ED52C97CB7F07CB5C87CF52F677D2F6FE1
:1009D00023F1ACF2DB0078EE8047C97CAAF2500527
:1009E000EBE7C9FF381FE5CF3D1BDF444DE1712325
:1009F00070C9CF3B04F1C3C701CF0D04F1C3B801E7
:100A0000C9EFFE0DC8D511F50097CD0C06D11AF52A
:100A100097122A3808E57E23B6D1CA2E017EB7FA8E
:100A20003C03CDAA061BF1123E3FD797CD0C06C35F
:100A30002E01D511FB0018D1D71180FFCD0D012853
:100A4000FBFE0D2810FE082817FE7F2813FE18282D
:100A500020FE2038E7D71213FE0DC87BFEFF20DCF6
:100A60007BFE8028D71B3E08D73E20D73E08D718EC
:100A7000CBCD0E003E5E18C07CB7FADB001100093A
:100A8000E52A36082BE7E1D81A9547131A9C380453
:100A90001BB0C913131AFE0D20FA1318E3471A13DB
:100AA000B8C8D7FE0D20F7C9CF220CCD0C06FE0D1D
:100AB000E1CAB8012323E9CF5F063E8DD7E118F4E0
:100AC000CF5E081AEE40D71A1318E3CF5C0CE51A74
:100AD000CD3900DA74057EE118E2C93A3508B72845
:100AE00009FE10201006240D180B0600CD3205F269
:100AF0006406062D0DD53A3508B720023E0A5FAFD1
:100B000057D50DC5CD190578B12807E32DE56069E6
:100B100018F2C10D79B7FA8D063E20D718F578B7CF
:100B2000C410005D3A3508B720023E0ABB7BD1C82D
:100B3000FE0A3802C607C630D718E9AF3235081AA0
:100B40006F131A67130E04CD4A063E20D797CD0CBB
:100B500006C9E7C81A02130318F87892200379939C
:100B6000C81B2B1A7718F3C1E12240087CB5281066
:100B7000E1224208E1224408E1224608E122480835
:100B8000C5C9C121A2F739D2A1052A40087CB528E0
:100B9000132A4808E52A4608E52A4408E52A4208B7
:100BA000E52A4008E5C5C9214A07EFD51A13FE2EEC
:100BB000281CFE613806FE7B3002E65F23BE28EC6F
:100BC0003E7F1BBE380E23BE30FC23D118DC3E7F97
:100BD00023BE30FC7E236EE67F67F1E94C49535417
:100BE00081DE52554E81B24E455781A34E45585431
:100BF00082D34C455483914946832D474F544F81AE
:100C0000D0474F535542824152455455524E82600F
:100C100052454D8329464F528279494E505554834F
:100C2000465052494E5481F53F81F5505554850642
:100C300053544F5081AC48414C5487FC838C524EE6
:100C40004484AD41425384DB47455484F1555352AB
:100C500084F843414C4C84FE53495A4584E4544F34
:100C60005085028494544F82898574535445508230
:100C70009382963D83A02383A63C3E83A63C3D837E
:100C8000AC3C83B43E3D83BA3E83C083C776767660
:100C900076494F533A2043757272656E742000494D
:100CA0004F533A2053797374656D2068616C746595
:100CB000642C207072657373205245534554004470
:100CC000454255473A20626F6F744D6F64653A2014
:100CD00025640D0A002564204B42797465730D006C
:100CE0000D202D3E004368616E676564207370655A
:100CF00065642077696C6C20626520656666656353
:100D000074697665206166746572206E65787420FA
:100D10007265626F6F74210D0A0A000D0A0A000DD8
:100D2000202D3E256C642020200D000D0A0A002095
:100D300020202020202020202020202020202020B3
:100D40000D000D202D3E003F566572626F73697471
:100D500079206C6576656C2025640D0A000D0A45C6
:100D60006E74657220796F75722063686F69636550
:100D7000203E2000202025633A2052414D207369F7
:100D80007A6520282564204B4279746573290D0A01
:100D900000202025633A2053657420525443204498
:100DA0006174652F54696D650D0A00202025633A32
:100DB000205365742053657269616C20506F7274A2
:100DC0002053706565642028256C64290D0A002075
:100DD0002025633A20546F67676C652043502F4D80
:100DE000204175746F6578656320282D3E2025733A
:100DF000290D0A00202025633A204368616E67654B
:100E0000205A383020436C6F636B205370656564E3
:100E100020282D3E202564204D487A290D0A0020E7
:100E20002025633A204865784C6F61640D0A0020E4
:100E30002025633A20576F7A4D6F6E0D0A002020EF
:100E400025633A2054696E794241534943320D0A71
:100E500000202025633A204175746F626F6F740D16
:100E60000A00202025633A204C6F61642F5365747B
:100E7000204F532000202025633A20466F7274686B
:100E80000D0A00202025633A2042617369630D0A30
:100E900000202025633A20457869742077697468BA
:100EA0006F7574206368616E676520282D3E272565
:100EB0006327290D0A0A000D0A494F533A2053654A
:100EC0006C65637420426F6F74204D6F6465206F92
:100ED000722053797374656D20506172616D657411
:100EE0006572733A0D0A0A000D0A494F533A2053AE
:100EF000442063617264206D6F756E74656400498F
:100F00004F533A2043502F4D204175746F657865DB
:100F10006320697320257300494F533A20466F754B
:100F20006E642053494F41202F2053494F42204F98
:100F30007074696F6E00494F533A20466F756E6446
:100F400020475045204F7074696F6E00202843542D
:100F5000532C2052545320757365642061732042D2
:100F6000414E4B322C2042414E4B33207369676E09
:100F7000616C2C2043453220696E7665727465641D
:100F80002900202843545320757365642061732021
:100F900042414E4B32207369676E616C2900494FA4
:100FA000533A202564204B42797465732052414D99
:100FB00000494F533A205A383020636C6F636B20DE
:100FC000736574206174202564204D487A0D0A00F1
:100FD000494F533A20466F756E6420657874656E8C
:100FE0006465642073657269616C20527820627553
:100FF0006666657220282564206279746573290D00
:101000000A00322E302E323630323036202D204635
:10101000656220203620323032362031363A323086
:101020003A3037000D0A0A5A38302D4D4243322DDE
:101030004E47202D2041303430363138202D20418C
:10104000546D6567613332202D202564204D487A28
:101050000D0A00494F533A20436865636B2053449F
:1010600020616E642070726573732061206B6579F6
:1010700020746F207265706561740D0A00202D2048
:1010800046696C653A2000206F7065726174696F03
:101090006E0052454144004F50454E004D4F554E55
:1010A0005400206F6E2000554E4B4E4F574E004E51
:1010B0004F5F46494C4553595354454D004E4F548C
:1010C0005F454E41424C4544004E4F545F4F5045A2
:1010D0004E4544004E4F5F46494C45004E4F545FCD
:1010E0005245414459004449534B5F455252000D0B
:1010F0000A494F533A205344206572726F722000A0
:101100003F3F53494F25633A2041637475616C201A
:1011100062617564726174653A2025640D0A003F4E
:101120003F53494F25633A2043616C63756C61748A
:1011300065642064697669736F723A2025640D0ACC
:10114000003F3F53494F25633A20446573697265F8
:10115000642062617564726174653A2025640D0AC9
:10116000003F3F3F53494F25633A20536574417513
:10117000746F48616E647368616B652025642C2010
:1011800025640D0A003F3F3F3F3F53494F25633AD7
:1011900020526561645265676973746572203078A6
:1011A000253032582028257329207265733D307808
:1011B000253032580D0A003F3F3F3F3F53494F25EE
:1011C000633A205772697465526567697374657212
:1011D0002030782530325820282573292076616CFC
:1011E0003D3078253032580D0A003F3F3F53494F7C
:1011F00025633A20577269746542797465203078A6
:10120000253032582025630D0A003F3F3F53494F98
:1012100025633A20526561644279746520307825EF
:101220003032582025630D0A003F3F3F3F53494F5E
:1012300025633A205278204649464F204C65766512
:101240006C3A2025640D0A003F3F3F3F53494F252C
:10125000633A205478204649464F205370616365B5
:101260003A2025640D0A00202D20697271537461A3
:10127000747573203D200044454255473A20494E3D
:10128000542041434B206379636C6500202D206915
:101290006F44617461203D200044454255473A2027
:1012A00053595349525100202D2069727153746172
:1012B000747573203D200044454255473A205345FC
:1012C000522052580072657365727665640D0A008B
:1012D0006175746F205254532F4354530D0A0061AB
:1012E00075746F20586F6E2F586F666620284E59A0
:1012F00049290D0A0064697361626C650D0A00205A
:101300002D2068616E647368616B653A20256420E6
:1013100000202D2062617564726174653A20256C2D
:10132000640D0A003F3F53494F423A003F3F534943
:101330004F413A002073657420636F6E74726F6C56
:101340003A203078253032580000003A0037003417
:1013500000310000003B0038003500320000003949
:1013600000360033003000020202020202020204D0
:101370000404040404040403030303030303030138
:101380000101010101010101020408102040800156
:10139000020408102040800102040810204080014F
:1013A000020408102040800000000200000000003D
:1013B000000000050400070000000000000000001D
:1013C000000000000000003F3F3F53494F25633AB3
:1013D000204649464F536574547269676765724C7D
:1013E0006576656C2825735F4649464F3A2026642A
:1013F0000D0A003F53494F25633A204C4352205277
:10140000656769737465723A203078253032780DDB
:101410000A000D0A0A494F533A204261756420724E
:1014200065636F7665727920646F6E65202D20503C
:101430006C65617365207265626F6F74206E6F7783
:101440002100302B2B3311241FBECFE5D8E0DEBFA7
:10145000CDBF24E0A4E5B2E001C01D92A437B207DD
:10146000E1F712E0A0E6B0E0ECEAF1E702C0059097
:101470000D92A435B107D9F71AE0C2E2DAE004C050
:101480002197FE010E94A436C132D107C9F70E94FC
:10149000842B0C94C9380C940000FB01A485B585FD
:1014A000ED91FC9111970190F081E02D682FCD0115
:1014B000099590E080E00895282F9091290381E01C
:1014C000913208F03FC0809105038111FCCF8091DB
:1014D000280332E030930503209304032FEF209379
:1014E000030328E033E030930203209301031092BA
:1014F00000039093FF021092FE029091FE02880F6B
:10150000892B8093FE028091FD02813011F51092AB
:10151000FD028091FE0283B906B603FCFACF85EC8A
:1015200086BF809105038230E1F3809103038F3FF2
:1015300091F080910303803281F080910303803326
:1015400071F084E0109207031092290310920603B1
:10155000089585EEE5CF80E0F5CF82E0F3CF83E01C
:10156000F1CF81E00C945C0A91E0909306038093A4
:101570002803109207031092290308959091F9020D
:101580008091F8022FEF3FEF981748F4E92FF0E031
:10159000E852FD4F208130E09F5F9093F902C9012E
:1015A00008959091F9028091F8022FEF3FEF98177C
:1015B00048F4E92FF0E0E852FD4F208130E09F5FD2
:1015C0009093F902C901089520916804309169044B
:1015D0008217930760F4209164043091650421150B
:1015E000310529F0280F391FF9018081089580E025
:1015F000089587E090E00197F1F70895843059F05D
:1016000028F4813099F0823089F00895853039F0DE
:10161000873041F008958FB58F778FBD08958FB5CE
:101620008F7DFBCF85B58F7D85BD089583B78F7D79
:1016300083BF0895CF93DF93282F30E0F901E95558
:10164000FC4E8491F901E957FC4ED491F901E95916
:10165000FC4EC491CC23A1F081110E94FE0AEC2F14
:10166000F0E0EE0FFF1FE35AFC4EA591B491EC9110
:10167000ED2381E090E009F480E0DF91CF910895BF
:1016800080E090E0FACF1F93CF93DF93282F30E0D4
:10169000F901E955FC4E8491F901E957FC4ED491CA
:1016A000F901E959FC4EC491CC23A9F0162F811100
:1016B0000E94FE0AEC2FF0E0EE0FFF1FED5AFC4EE9
:1016C000A591B4918FB7F894EC91111108C0D09501
:1016D000DE23DC938FBFDF91CF911F910895DE2B26
:1016E000F8CFCF93DF9390E0FC01E957FC4E2491B3
:1016F00089599C4EFC0184918823C9F090E0880FA1
:10170000991FFC01E75BFC4EA591B491FC01ED5AD9
:10171000FC4EC591D49161110DC09FB7F8948C9186
:10172000209582238C938881282328839FBFDF9173
:10173000CF910895623051F49FB7F8943C91822F75
:10174000809583238C93E8812E2BEFCF8FB7F8946D
:10175000EC912E2B2C938FBFEACFCF92DF92EF929A
:10176000FF926FB7F8948091CF029091D002A09130
:10177000D102B091D2025091CE0222B738B7432F96
:10178000417030FF04C041E02F3F09F440E06FBFDB
:101790006C017D0137E0CC0CDD1CEE1CFF1C3A9582
:1017A000D1F7C50ED11CE11CF11CC81AD90AEA0AEE
:1017B000FB0A880F991FAA1FBB1FC81AD90AEA0A79
:1017C000FB0A63E0CC0CDD1CEE1CFF1C6A95D1F714
:1017D00030E0AAEAB2E00E945336672F782F892FB3
:1017E00099276C0D7D1D8E1D9F1D442321F066558C
:1017F0007D4F8F4F9F4FFF90EF90DF90CF900895D8
:101800008F929F92AF92BF92CF92DF92EF92FF9210
:101810004B015C010E94AD0B6B017C010E94AD0B82
:101820006C197D098E099F09683E734081059105F9
:10183000A8F321E0821A9108A108B10888EEC80E29
:1018400083E0D81EE11CF11C81149104A104B104B1
:1018500029F7FF90EF90DF90CF90BF90AF909F90CF
:101860008F9008952FB7F8946091CF027091D002B5
:101870008091D1029091D2022FBF089581E0809390
:10188000CC020895AF92BF92CF92DF92EF92FF9277
:101890000F931F93CF93DF936C017B018B01040F98
:1018A000151FEB015E01AE18BF08C017D10759F034
:1018B0006991D601ED91FC910190F081E02DC60176
:1018C0000995892B79F7C501DF91CF911F910F9170
:1018D000FF90EF90DF90CF90BF90AF900895FC0104
:1018E000538D448D252F30E0842F90E0821B930B85
:1018F000541710F0CF96089501970895FC01918D2B
:10190000828D981761F0A28DAE0FBF2FB11D5D962D
:101910008C91928D9F5F9F77928F90E008958FEFCB
:101920009FEF0895FC01918D828D981731F0828D83
:10193000E80FF11D858D90E008958FEF9FEF0895DA
:10194000FC01918D228D892F90E080589F4F821B42
:1019500091098F77992708958BE793E00E94A00C57
:1019600021E0892B09F420E0822F08950E94AC0C1D
:10197000882319F081E08093CC020895FC01A48DA6
:10198000A80FB92FB11DA356BF4F2C91848D90E0A5
:1019900001968F739927848FA689B7892C93A08984
:1019A000B1898C9182748C93938D848D981306C029
:1019B0000288F389E02D80818F7D80830895EF92E6
:1019C000FF920F931F93CF93DF93EC0181E0888FF9
:1019D0009B8D8C8D981319C0E889F989808185FFCA
:1019E00014C09FB7F894EE89FF896083E889F9896C
:1019F0008081827480839FBF81E090E0DF91CF91EE
:101A00001F910F91FF90EF900895F62E0B8D10E02F
:101A10000F5F1F4F0F731127E02E8C8D8E110CC09E
:101A20000FB607FCFACFE889F989808185FFF5CFE9
:101A3000CE010E94BE0CF1CFEB8DEC0FFD2FF11DFE
:101A4000E356FF4FF0829FB7F8940B8FEA89FB892A
:101A500080818062CFCF0F931F93CF93DF938C0150
:101A6000D0E0C0E0F801EC0FFD1F6491662341F067
:101A70008BE793E00E94DF0C892B11F02196F2CFC7
:101A8000CE01DF91CF911F910F910895CF93DF93F6
:101A9000EC01888D8823B9F0AA89BB89E889F98986
:101AA0008C9185FD03C0808186FD0DC00FB607FCBB
:101AB000F7CF8C9185FFF2CF808185FFEDCFCE01EE
:101AC0000E94BE0CE9CFDF91CF91089585ED86BFCE
:101AD00006B604FCFDCF10920503089520918902FB
:101AE000260F3327331F21323105ECF420910503F3
:101AF000FC0190E080E0243069F082E00895A0913C
:101B000089022191AC0149595D4FA40FB52FB11D38
:101B10002C930196861798F380918902680F609341
:101B2000890280E0089581E0089508950895089558
:101B3000E091F9028091F802E81730F4F0E0E85201
:101B4000FD4F808190E008958FEF9FEF0895809181
:101B5000F8029091F902891B990B0895CF92DF92B8
:101B6000EF92FF920F931F93CF93DF937C01CB01F2
:101B70008A0120910603222389F0EB016B01C40E38
:101B8000D51ECC15DD0569F06991D701ED91FC9169
:101B90000190F081E02DC7010995F3CF642F0E94D9
:101BA0006E0DC801DF91CF911F910F91FF90EF90C3
:101BB000DF90CF900895CF93DF931F92CDB7DEB71C
:101BC0006983209106032223F9F020912903203212
:101BD00058F021E030E0FC013383228390E080E084
:101BE0000F90DF91CF91089580910703E82FF0E0E7
:101BF000E85FFC4F998190838F5F80930703809308
:101C0000290381E090E0ECCF61E0CE0101960E94D3
:101C10006E0DF7CF682F88E594E00C94DB0D0F93E1
:101C20001F93CF93DF93082F162FD42F88E60E949F
:101C3000B40A90E080E00E940A0E8091FC02CAE0A3
:101C40006C2F0E9462368295807F682F690F88E52D
:101C500094E00E94DB0D8091FB026C2F0E946236A3
:101C60008295807F682F690F88E594E00E94DB0DE4
:101C70008091FA026C2F0E9462368295807F682FD5
:101C8000690F88E594E00E94DB0D81E090E00E94FE
:101C90000A0E802F6C2F0E9462368295807F682FFB
:101CA000690F88E594E00E94DB0D812F6C2F0E9464
:101CB00062368295807F682F690F88E594E00E94E4
:101CC000DB0D8D2F6C2F0E9462368295807F682FEE
:101CD000690F88E594E00E94DB0DDF91CF911F91A1
:101CE0000F910C94B10A90E080E008950F931F9338
:101CF000E0917903F0917A039B01AC012250310904
:101D00004109510986819781A085B1850297A10972
:101D1000B109281739074A075B0778F4A281B0E0B8
:101D20000E9411360289138924893589600F711F39
:101D3000821F931F1F910F91089560E070E0CB0107
:101D4000F9CF0F931F93CF93DF93EC01E0917903C9
:101D5000F0917A03198218826C817D818E819F8136
:101D6000613071058105910581F10681178120851A
:101D70003185601771078207930738F56115710582
:101D80008105910539F42081233021F4668577851A
:101D900080899189688779878A879B876115710512
:101DA0008105910569F00E94760E6C877D878E878C
:101DB0009F8790E080E0DF91CF911F910F91089570
:101DC0006685778580899189F0CF81E090E0F3CFB7
:101DD0008FB9779BFECF08958FEF0E94E80E8FB1E9
:101DE00008950F931F93CF93DF93C091AE02D091CC
:101DF000AF022197CD3F8FEFD80721F080E00E94FE
:101E0000E80EF7CF0E94EC0E8F71853079F0D1E0AB
:101E1000C0E061E084E00E94430B0E94EC0E8D2F35
:101E20009C2FDF91CF911F910F91089508E813E146
:101E3000C8E5D2E00E94EC0E8F3F49F00115110574
:101E400031F3CE010197F1F701501109F3CFD1E041
:101E5000C0E0012BF1F2D0E0DCCFFF920F931F9393
:101E6000CF93DF93C82FD42F152F062FF72E8091F5
:101E70004E0381113FC083E58DB91EB8C7FF09C06D
:101E800040E050E0BA0187E70E942D0F823060F5F4
:101E9000CF7761E084E00E94430B0E94EC0E60E08B
:101EA00084E00E94430B0E94EC0E8C2F0E94E80EEF
:101EB0008F2D0E94E80E802F0E94E80E812F0E9435
:101EC000E80E8D2F0E94E80E85E9C03421F087E8E6
:101ED000C83409F081E00E94E80ECAE00E94EC0ECE
:101EE00087FF02C0C150D1F7DF91CF911F910F91B1
:101EF000FF90089580E58DB981E08EB9BFCFCF9274
:101F0000DF92EF92FF920F931F93CF93DF937C01A9
:101F1000690180914E0383FD07C089E0440F551F7E
:101F2000661F771F8A95D1F781E50E942D0F8111D9
:101F300008C0C0E4DCE90E94EC0E8F3F29F4219731
:101F4000D1F7C1E0D0E022C08E3FD9F7C2E0D2E0A5
:101F5000C01BD10BCC19DD0981E0C81AD10818F0DB
:101F60000E94EC0EF9CFE114F10401F10E0D1F1DDA
:101F70000E94EC0EF70181937F010E171F07C1F736
:101F80000E94EC0E2197E1F7D0E0C0E061E084E030
:101F90000E94430B0E94EC0ECE01DF91CF911F9166
:101FA0000F91FF90EF90DF90CF9008950E94EC0E7C
:101FB00001501109D9F7E4CFCF92DF92EF92FF924F
:101FC0000F931F93CF93DF93EC016A017B0102E033
:101FD00010E02EEF31E00E947F0F892B31F58881D0
:101FE000998185359A4A59F526E330E0B701A60173
:101FF000CE010E947F0F892B29F488819981863434
:10200000914489F002E010E022E530E0B701A6013A
:10201000CE010E947F0F892BA1F481E028813981B4
:102020002634314419F480E001C083E0DF91CF9180
:102030001F910F91FF90EF90DF90CF90089582E075
:10204000F5CF81E0F3CF4F925F926F927F928F92A4
:102050009F92AF92BF92CF92DF92EF92FF920F9337
:102060001F93CF93DF93CDB7DEB7A4970FB6F89445
:10207000DEBF0FBECDBF10927A031092790380911C
:102080004E03882339F084E00E941A0B892B11F447
:102090000E94F10E61E084E00E94430B61E084E065
:1020A0000E94710B61E085E00E94710B61E087E0A6
:1020B0000E94710B61E084E00E94710B83E58DB991
:1020C0001EB861E084E00E94430B1AE00E94EC0E0F
:1020D0001150E1F740E050E0BA0180E40E942D0F7A
:1020E000182F813009F441C010E010934E0361E0D5
:1020F00084E00E94430B0E94EC0E82E090E01123EA
:10210000E9F040E050E0BA01CE0101960E94DC0FF8
:10211000C12CD12C7601813009F096C000E110E08D
:102120002EEB31E040E050E0BA01CE0101960E9472
:102130007F0F892B09F478C081E090E0A4960FB658
:10214000F894DEBF0FBECDBFDF91CF911F910F91ED
:10215000FF90EF90DF90CF90BF90AF909F908F90C7
:102160007F906F905F904F9008954AEA51E060E051
:1021700070E088E40E942D0F813091F5CE01019628
:102180007C016E0195E0C90ED11C87010E94EC0E06
:10219000F80181938F01CE16DF06C1F78B81813064
:1021A00009F0A2CF8C818A3A09F09ECF80E1C82E37
:1021B00087E2D82E98E5A92E92E0B92E40E050E0B3
:1021C00060E070E489EE0E942D0F882309F4C9C0F5
:1021D000C5010197F1F7F1E0CF1AD10879F784CF63
:1021E00040E050E0BA0189EE0E942D0F01E48230F8
:1021F00010F412E009EEA0E1EA2EA7E2FA2EB8E50B
:10220000CB2EB2E0DB2E40E050E0BA01802F0E94DE
:102210002D0F882309F4BBC0C6010197F1F7F1E047
:10222000EF1AF10881F760CF8D81811103C086E03C
:1022300090E084CFC984DA84EB84FC84B701A601E2
:10224000CE0101960E94DC0F833009F475CF811115
:10225000EECF04E210E02DE030E0B701A601CE01A0
:1022600001960E947F0F892B09F066CF2A853B8556
:1022700050E040E0211531054105510521F4288D3C
:10228000398D4A8D5B8DAC81B0E00E9411364B01D7
:102290005C014A815B8170E060E0C40ED51EE61EE1
:1022A000F71EC0925903D0925A03E0925B03F0925A
:1022B0005C03E981E09351038D819E8190935403E7
:1022C000809353030F81188530E020E0011511053C
:1022D0002105310521F40C891D892E893F89F4E0FF
:1022E00096958795FA95E1F72C01712C612C041BCA
:1022F000150B260B370BC901B801681979098A0932
:102300009B0964197509860997092E2F30E050E062
:1023100040E00E948236DA01C9010296A11DB11D7A
:102320008093550390935603A0935703B09358039B
:10233000265F3F40410951092F3F3F4E410551055E
:1023400088F1873F9F4FA105B10588F570CF82E0E6
:1023500080934F03D501C4018C0D9D1DAE1DBF1D83
:102360002DC040E050E0BA018AE70E942D0F811194
:10237000BBCE0E94EC0EF70181937F010E171F0761
:10238000C1F789811CE086FDB0CE14E0AECE40E0FE
:1023900052E060E070E080E50E942D0F882309F490
:1023A000A4CEA2CE873F9F4FA105B10580F283E066
:1023B00080934F0388A199A1AAA1BBA180935D033B
:1023C00090935E03A0935F03B0936003C40CD51C8D
:1023D000E61CF71C8C0C9D1CAE1CBF1C809261037C
:1023E00090926203A0926303B09264031092500330
:1023F0008FE493E090937A038093790390E080E0F8
:102400009DCE0F931F93CF93DF9300D000D0CDB715
:10241000DEB7623071058105910528F461E070E056
:1024200080E090E055C0E0917903F0917A03068155
:10243000178120853185601771078207930770F730
:10244000AB01BC018081823031F1833039F79A01D0
:102450002F773327220F331F220F331F97E07695F4
:102460006795579547959A95D1F782859385A48569
:10247000B585480F591F6A1F7B1F04E010E0CE018D
:1024800001960E947F0F892B49F669817A818B81A1
:102490009C819F701DC09A013327220F331F452F47
:1024A000562F672F772782859385A485B585480F9A
:1024B000591F6A1F7B1F02E010E0CE0101960E94A7
:1024C0007F0F892B09F0AACF69817A8190E080E0A3
:1024D0000F900F900F900F90DF91CF911F910F9160
:1024E00008956F927F928F929F92AF92BF92CF92F8
:1024F000DF92EF92FF920F931F93CF93DF93C091E0
:102500007903D0917A03FC0111821082209709F49B
:10251000AFC0298120FFAFC00A8D1B8D2C8D3D8D52
:102520004E895F89688D798D68017901C41AD50A51
:10253000E60AF70AB701A6014032510561057105A7
:1025400020F040E250E060E070E05C017A013EE2A1
:10255000832E33E0932E612C42E0742EE114F104BB
:1025600009F48CC08E899F89A88DB98DAC01BD01FD
:10257000517066277727452B462B472B09F04AC019
:10258000DA80DA94AC01BD0129E07695679557951C
:1025900047952A95D1F7D42251F5892B8A2B8B2B7D
:1025A000D9F46E8D7F8D88A199A162307105810566
:1025B0009105C8F4198281E090E0DF91CF911F91DD
:1025C0000F91FF90EF90DF90CF90BF90AF909F90D2
:1025D0008F907F906F9008956AA17BA18CA19DA19F
:1025E0000E940112E2CF6AA37BA38CA39DA36AA1E0
:1025F0007BA18CA19DA10E94760E611571058105BC
:102600009105C1F26D0D711D811D911D6EA37FA3FA
:1026100088A799A72E893F893170C301821B930B2C
:1026200067018E159F0508F46C014EA15FA168A596
:1026300079A58601C4010E947F0F892B09F0BACFCA
:102640008E899F89A88DB98D8C0D9D1DA11DB11DF1
:102650008E8B9F8BA88FB98F8C0C9D1CEC18FD085E
:10266000F50180819181C80ED91ED182C08276CFBA
:1026700085E090E0A2CF84E090E09FCF90E080E002
:102680009CCF4F925F926F927F928F929F92AF9268
:10269000BF92CF92DF92EF92FF92CF93DF9300D061
:1026A00000D000D0CDB7DEB72091790330917A0306
:1026B0003E832D832115310509F40CC1D9011196F2
:1026C0002C91119720FF09C15A96CD90DD90ED9085
:1026D000FC905D976C157D058E059F0510F46B01D0
:1026E0007C01ED81FE8146885788608C718C168A4A
:1026F000178A108E118EC114D104E104F10409F47B
:10270000E6C08280912CB12CA12C39E0880C991C58
:10271000AA1CBB1C3A95D1F7411451046104710401
:1027200009F470C0B1E04B1A510861087108C70183
:10273000B6016150710981099109A50194010E94B6
:10274000823629833A834B835C83C301B201A5019E
:1027500094010E94823689819A81AB81BC81821763
:102760009307A407B50708F44DC088279927DC0113
:1027700088199909AA09BB0984219521A621B721A5
:10278000ED81FE81868B978BA08FB18FC81AD90AF5
:10279000EA0AFB0A62A173A184A195A18C149D048D
:1027A000AE04BF0408F058C00E94011262307105E7
:1027B0008105910568F0AD81BE8116964D905D90C2
:1027C0006D907C901997641575058605970540F105
:1027D000ED81FE81118281E090E026960FB6F8949B
:1027E000DEBF0FBECDBFDF91CF91FF90EF90DF90A6
:1027F000CF90BF90AF909F908F907F906F905F90A1
:102800004F900895AD81BE815E966D917D918D91C1
:102810009C919197FD0162A373A384A395A3BECF5E
:10282000AD81BE8192966D937D938D939C93959788
:1028300056964D905D906D907C905997480C591C20
:102840006A1C7B1CFD01468A578A608E718EC818EF
:10285000D908EA08FB08A2CFAD81BE8156968D90BB
:102860009D90AD90BC905997C80CD91CEA1CFB1CDC
:10287000FD01C68AD78AE08EF18E0E94760EAB01EA
:10288000BC01411551056105710529F4AD81BE8179
:1028900011961C92A0CFED81FE8182818150990B0F
:1028A000092E000CAA0BBB0B29E0F694E794D794F1
:1028B000C7942A95D1F78C219D21AE21BF21480FC5
:1028C000591F6A1F7B1F46A357A360A771A790E0FB
:1028D00080E083CF85E090E080CF84E090E07DCF02
:1028E0004F925F926F927F92BF92CF92DF92EF9260
:1028F000FF920F931F93CF93DF93CDB7DEB7EC9783
:102900000FB6F894DEBF0FBECDBFE0907903F09014
:102910007A03E114F10409F404C1F70111829E0164
:102920002F5C3F4F3CA32BA39C016901F9018081DF
:102930002F5F3F4F8032C9F38F3209F469011DA226
:102940001EA21FA218A6F6018081A0E2BA2E803234
:1029500008F0D4C0CE0181960E94A10E1982009782
:1029600009F407C1EC960FB6F894DEBF0FBECDBFD9
:10297000DF91CF911F910F91FF90EF90DF90CF905B
:10298000BF907F906F905F904F90089520E0E0E0BF
:1029900088E0D1C0C30ED11C81E0913208F080E004
:1029A0001B968C93CE0181960E94A10E0097D1F6C2
:1029B00029A13AA12F703327F5E0220F331FFA9592
:1029C000E1F74DA55EA56FA578A900E210E0CE0164
:1029D00001960E947F0F892B19F081E090E0C2CF11
:1029E0008981811103C083E090E0BCCF8C8583FD99
:1029F00013C00BA11CA19E012F5F3F4FD801B8014E
:102A0000655F7F4F6A177B0709F4AEC0F9014191FA
:102A10009F019D914917B1F309A11AA10F5F1F4FA3
:102A200011F38DA59EA5AFA5B8A90097A105B10585
:102A3000D1F298012F703327232BB9F40196A11DF1
:102A4000B11D8DA79EA7AFA7B8AB69A57AA58BA529
:102A50009CA5F701611571058105910549F48481F3
:102A600095810817190708F0BECF1AA309A3A0CFB4
:102A70002281E22FE150FF0BAF019801E4E036958F
:102A80002795EA95E1F724233523232B71F70E943C
:102A90000112623071058105910508F49ECFF7019E
:102AA0004680578060847184641575058605970596
:102AB00008F099CF69A77AA78BA79CA70E94760EEA
:102AC0006DA77EA78FA798ABD0CF84FF8CCFF701DF
:102AD00080818330F1F48D899E89B0E0A0E0DC0133
:102AE000992788274B8D5C8D70E060E0842B952BB7
:102AF000A62BB72B8DA39EA3AFA3B8A7ABA1BCA158
:102B0000FD01CD010B968E179F0709F43FCFB192BF
:102B1000FACF80E090E0DC01E5CF80E090E0DC01DE
:102B20003DC085E090E01ECF883009F033CF9BE0B8
:102B3000282FE32F892F31E03E0FEC0DFD2DF11DE5
:102B40009081913208F426CF9F3209F423CF9E3230
:102B500059F3281708F01ECFFD01E20FF11D9083F5
:102B6000982F81E0820FE4CFF8019385992309F42F
:102B7000ACCF8981882309F436CF8C8584FD33CF8F
:102B8000E0917903F0917A038081833031F68D8969
:102B90009E89B0E0A0E0DC01992788274B8D5C8DF1
:102BA00070E060E0842B952BA62BB72BF701868F66
:102BB000978FA0A3B1A38D8D9E8DAF8DB8A1828F6D
:102BC000938FA48FB58F168A178A108E118E81E08D
:102BD000818390E080E0C6CECF93DF93D82FC0E012
:102BE00061E08FE00E94430B60E08FE00E94430BA6
:102BF000CF5FDC13F5CFDF91CF9108951F93CF9373
:102C0000DF93182FD92F81E00E94EC1561E08091AD
:102C1000BF02823009F060E082E00E94430BCFEFF8
:102C2000CABB81E28BBB82E00E94EC151ABACBBB17
:102C300082E00E94EC15CABB1BBB83E00E94EC152E
:102C4000DBBB82E00E94EC151ABACBBB61E080913D
:102C5000BF02823009F460E082E0DF91CF911F91E2
:102C60000C94430BCF93DF93D82F81E00E94EC1597
:102C700061E08091BF02823009F060E082E00E9452
:102C8000430BCFEFCABB86E38BBB82E00E94EC15FF
:102C90001ABACBBB82E00E94EC15CABBDBBB82E058
:102CA0000E94EC151ABACBBBC091BF0261E0C230E2
:102CB00009F460E082E00E94430B83E00E94EC157F
:102CC00081E00E94EC1561E0C23009F060E082E032
:102CD0000E94430BCFEFCABB83E28BBB82E00E9412
:102CE000EC151ABACBBB61E08091BF02823009F4C7
:102CF00060E082E00E94430B83E0DF91CF910C946F
:102D0000EC15282F81E0FB019191BF01992321F05F
:102D1000921719F08F5FF7CF80E00895AC01809192
:102D200005038111FCCF962F81E0809305038093EA
:102D300004032FEF2093030328ED32E030930203C6
:102D400020930103109200032FEF260F2093FF0220
:102D50008093FE022091FE02440F551F822F842B88
:102D60008093FE028091FD028130D1F41092FD0229
:102D70008091FE0283B906B603FCFACF85EC86BFCC
:102D8000809105038130E1F380910003861710F4F0
:102D9000909100031092F9029093F802892F089500
:102DA00085EEEDCFCF9388E60E94B40A90E080E0F4
:102DB0000E940A0E0E94B10A62E170E088E690E08B
:102DC0000E948E160E94D10A982F92959770CAE0A1
:102DD0008F709C9F800D11248093FC020E94D10A69
:102DE000982F92959F708F709C9F800D11248093D7
:102DF000FB020E94D10A982F929593708F709C9F2E
:102E0000800D11248093FA020E94D10A0E94D10AF7
:102E1000982F92959F708F709C9F800D11248093A6
:102E2000D7020E94D10A982F92959F708F709C9F15
:102E3000800D11248093D6020E94D10A982F92957A
:102E40009F708F709C9F800D11248093D5020E94EB
:102E5000D10AC150E1F70E94D10A8093D402CF91E8
:102E60000895FC0101900020E9F73197AF01481B5C
:102E7000590BBC018BE793E00C94420C8F929F920C
:102E8000AF92BF920F931F93CF93DF93CDB7DEB76F
:102E9000A1970FB6F894DEBF0FBECDBF19A2423086
:102EA00008F44AE08E010F5D1F4F842E912CB12C47
:102EB000A12CA50194010E948236E62FB901CA0116
:102EC000EA30F4F4E05DD801EE938D01232B242B3E
:102ED000252B79F790E080E0109719F0CD010E9442
:102EE0003117A1960FB6F894DEBF0FBECDBFDF91AC
:102EF000CF911F910F91BF90AF909F908F900895A9
:102F0000E95CE1CF009711F00C94311790E080E07C
:102F100008951F93CF93DF9300D0CDB7DEB7182F5E
:102F200089EA91E00E948217612F70E090E080E0D2
:102F30004AE00E943E17105D1093640082E690E024
:102F40000E947014CE0101960E94711289818093B3
:102F5000B402882361F083EB91E00E9482178EE235
:102F600093E00E94821786EB91E00E9482170F90F7
:102F70000F90DF91CF911F910895CF93C82F8A3082
:102F800020F489EB91E00E9482176C2F70E090E0B2
:102F900080E04AE0CF910C943E1781110E94D21636
:102FA00088EB91E00E9482178091D5020E94BD17A4
:102FB0008BEB91E00E9482178091D6020E94BD1790
:102FC0008BEB91E00E9482178091D7020E94BD177F
:102FD00081EB91E00E9482178091FA020E94BD1756
:102FE0008DEB91E00E9482178091FB020E94BD1739
:102FF0008DEB91E00E9482178091FC020C94BD172A
:103000008FEB91E00C943117CF93DF930E942B0D3F
:10301000EC010E9400188C0F9D1FDF91CF91089545
:103020008BE793E00E94A00C181619062CF48BE78E
:1030300093E00E947E0CF4CF83E590E10E94041897
:103040008BE793E00E94A00C18161906CCF70895A0
:10305000CF93DF93682F8BE793E00E94DF0CEC01A6
:103060000E9400188C0F9D1FDF91CF910895CF9380
:10307000DF93682F70E090E080E04AE00E943E1706
:10308000EC010E9400188C0F9D1FDF91CF910895D5
:10309000CF93DF930E943117EC010E9400188C0F30
:1030A0009D1FDF91CF9108950F931F93CF93DF93CF
:1030B000D82FC62F8A018FEE90E10E942B0D6C2F26
:1030C00070E090E080E04AE00E943E1783EB91E0E0
:1030D0000E94821784ED90E1C330C1F058F486EE6F
:1030E00090E1C13099F08CED90E1C23079F087EA3F
:1030F00090E10CC08DEB90E1C53041F089EC90E19E
:10310000C53020F08FEA90E1C63089F70E942B0D80
:1031100082EA90E10E942B0D87E990E1D13031F0F5
:103120008CE990E1D23011F482E990E10E942B0DFC
:1031300087E890E10E942B0D0115110539F08DE70C
:1031400090E10E942B0DC8010E94821786EB91E04E
:10315000DF91CF911F910F910C944818CF93DF937B
:10316000CDB7DEB72E970FB6F894DEBF0FBECDBF3A
:103170008DE49AE09A8789871C861B8682E08C837F
:103180008BE793E09E878D87AE01495E5F4F6D8927
:103190007E89CE0101960E946F332E960FB6F89469
:1031A000DEBF0FBECDBFDF91CF910895FF920F9389
:1031B0001F93CF93DF93F42E062F10E0C82FD0E09B
:1031C0008091D302853020F11F924F93C801880F60
:1031D000991F880F991F8F509F4F9F938F931F9216
:1031E0006F93CE018F5B9F4F9F938F9387EB91E1FE
:1031F0009F938F938BE793E09F938F930E94AE18DA
:103200008DB79EB70C960FB6F8949EBF0FBE8DBFBC
:1032100088E40E94B40AC80123E0880F991F2A9508
:10322000E1F7CC0FDD1F8C2B9D2B0E940A0E6F2D1A
:1032300088E594E00E94DB0D81E0DF91CF911F9142
:103240000F91FF900C945C0ADF92EF92FF920F9324
:103250001F93CF93DF93C82FD62E88E40E94B40A21
:103260000D2D10E0D0E0980193E0220F331F9A95C6
:10327000E1F7CE01880F991F822B932B0E940A0E33
:1032800080E00E945C0A61E070E088E490E00E94C7
:103290008E160E94D10A7C018091D302853020F1E4
:1032A000C70199279F938F93000F111F000F111FC4
:1032B0000F541F4F1F930F931F92DF92CF5BDF4F6F
:1032C000DF93CF9385E891E19F938F938BE793E012
:1032D0009F938F930E94AE188DB79EB70C960FB632
:1032E000F8949EBF0FBE8DBF8E2DDF91CF911F91A1
:1032F0000F91FF90EF90DF9008954F925F926F9241
:103300007F928F929F92AF92BF92CF92DF92EF9275
:10331000FF920F931F93CF93DF93C82F042FB52EE7
:10332000A62E972E64E00E94241924E087FF21E056
:1033300030E050E040E060E072EC81E090E00E941C
:10334000823629013A01CA01B901202F3B2D4A2DAD
:10335000592D0E94823669017A0163E08C2F0E9408
:103360002419182F482F406863E08C2F0E94D6182C
:103370004C2D60E08C2F0E94D6184D2D61E08C2FD3
:103380000E94D618412F4F7763E08C2F0E94D618E9
:10339000A701960144275527C301B2010E94823636
:1033A0003901842ED52F8091D302823098F1CF5BE2
:1033B0009F92AF92BF920F931F92CF9381E491E1BE
:1033C0009F938F930BE713E01F930F930E94AE1808
:1033D000DF92CF921F92CF938FE191E19F938F93D2
:1033E0001F930F930E94AE18DF938F927F926F927C
:1033F0001F92CF9380E091E19F938F931F930F9340
:103400000E94AE188DB79EB74C960FB6F8949EBF2B
:103410000FBE8DBFB301882D9D2FDF91CF911F91DE
:103420000F91FF90EF90DF90CF90BF90AF909F9063
:103430008F907F906F905F904F900895FC018081F6
:103440009181009711F00C94333360E070E0CB0170
:103450000895FC0180819181009711F00C945A37F6
:103460000895EF92FF920F931F93CF93DF93EC0198
:103470007B018A0188819981009729F02A813B810B
:103480002417350788F4B8016F5F7F4F0E94E33738
:10349000009791F0998388831B830A832C813D8157
:1034A000232B11F4FC0110821D830C83B70188814A
:1034B00099810E94C2380CC088819981009711F0CF
:1034C0000E945A37198218821D821C821B821A821E
:1034D000CE01DF91CF911F910F91FF90EF90089552
:1034E000AF92BF92CF92DF92EF92FF920F931F9312
:1034F000CF93DF93EC016B015A0179012417350753
:1035000020F48B2D5901E42EF82E198218821B828B
:103510001A821D821C8250E040E061EC71E0CE0115
:103520000E94311AD60114960D911C91A016B10675
:1035300028F5E016F10608F48701D601ED91FC911B
:103540001197E00FF11FF08010826D917C916A0D50
:103550007B1D61157105F1F0FB0101900020E9F779
:103560003197AF01461B570BCE010E94311AF6016D
:1035700080819181080F191FD801FC92CE01DF9143
:10358000CF911F910F91FF90EF90DF90CF90BF9060
:10359000AF90089588819981009711F00E945A3761
:1035A000198218821D821C821B821A82E0CF1F930F
:1035B000CF93DF93EC01162F0E94FC35181739F0DA
:1035C000612FCE01DF91CF911F910C940436DF91D2
:1035D000CF911F9108950C94FC35CF92DF92EF921A
:1035E000FF920F931F93CF930E94320C6B017C01CB
:1035F000C1E08BE793E00E94A00C892B09F09BC0EF
:103600000E94320C6C197D098E099F09683B7B4032
:1036100081059105A0F462E08DE00E94710B8DE0C0
:103620000E941A0B892B09F0C0E061E08DE00E9436
:10363000710B6AE070E080E090E00E94000C0E9454
:10364000320C00912A0310912B0320912C0330910E
:103650002D03601B710B820B930B6D327140810542
:103660009105A0F080E00E941A0B61E0892B09F01F
:1036700060E080E00E94430B0E94320C60932A03BA
:1036800070932B0380932C0390932D030E94320C94
:103690006C197D098E099F09693B7B408105910565
:1036A00008F4A7CFCC2309F4A4CF8FE090E00E94C8
:1036B000EB1A893009F49DCF60E080E00E94430B53
:1036C00069E08FE090E00E94D71A82E194E10E94C5
:1036D00004180E94320CC0902A03D0902B03E09073
:1036E0002C03F0902D036C197D098E099F09653616
:1036F00071058105910568F380E00E941A0B61E075
:10370000892B09F060E080E00E94430B8DE00E946D
:103710001A0B61E0892B09F060E08DE00E94430BF9
:103720000E94320C60932A0370932B0380932C0326
:1037300090932D03CECFCF911F910F91FF90EF90DB
:10374000DF90CF9008958F929F92AF92BF92CF92C9
:10375000DF92EF92FF920F931F93CF93DF93CDB73A
:10376000DEB7C157D1090FB6F894DEBF0FBECDBF8B
:1037700061E086E10E94710B60E086E10E94430BEC
:1037800061E080E00E94710B60E080E00E94430BEA
:1037900062E08DE00E94710B8DE00E941A0B8C019B
:1037A00061E08DE00E94710B61E08DE00E94430BAF
:1037B00062E081E00E94710B61E081E00E94710B88
:1037C00061E081E00E94430B61E082E00E94710BA6
:1037D00060E083E00E94710B62E08EE00E94710B5A
:1037E00061E08EE00E94710B61E08EE00E94430B6D
:1037F0001ABA8FEF8BBB62E085E10E94710B62E029
:1038000084E10E94710B62E083E10E94710B62E02F
:1038100082E10E94710B80E190E00E94EB1A80939C
:10382000BF02833038F060E080E190E00E94D71A58
:103830001092BF028FE090E00E94EB1AC12CE2ECE4
:10384000DE2EEE24E394F12C893050F4E82FF0E0E2
:10385000EE0FFF1FE156FF4FC080D180F12CE12C0D
:1038600060E87DE88BE590E0A70196010E94823632
:1038700021503109410951095695479537952795AA
:10388000E0918B03F0918C0382E08083211580E12D
:103890003807A8F0E0918B03F0918C03108260EC64
:1038A00076EC8DE290E0A70196010E9482362150CD
:1038B00031094109510956954795379527954BE7A9
:1038C000E42E43E0F42EE0918703F09188033083E7
:1038D000E0918903F0918A03208310929303E09191
:1038E0008F03F091900386E88083E0918D03F0913F
:1038F0008E03808188698083E0918D03F0918E032F
:1039000080818F7D80831F9288E18F9384E290E194
:103910009F938F93FF92EF920E94AE1882E090E106
:103920000E9404180E9400181F9280E88F9380ED77
:103930009FE09F938F93FF92EF920E94AE1861E0F9
:103940008CE00E94710B61E08CE00E94430B61E00F
:103950008BE00E94710B60E08BE00E94430B61E002
:103960008FE00E94710B60E086E10E94430B86E0CD
:103970000E94EC1561E086E10E94430B82E00E9408
:10398000EC15F090BF020FB6F894DEBF0FBECDBFAE
:10399000F1100BC262E08AE00E94710B61E082E0EC
:1039A0000E94430B61E087E10E94710B60E087E1B8
:1039B0000E94430B64E670E080E090E00E94000CFF
:1039C00061E087E10E94430B64EF71E080E090E0EA
:1039D0000E94000C8DE090E00E94EB1A823028F0EB
:1039E00061E08DE090E00E94D71A8DE090E00E94A7
:1039F000EB1A809366028EE090E00E94EB1A8093AF
:103A0000C502863038F060E08EE090E00E94D71A60
:103A10001092C5021092F9021092F8021092070358
:103A20001092290310920503FF24F394F0920403EB
:103A30001092FD0261E081E10E94430B61E080E1B0
:103A40000E94430B0898099880E780B985E486BFF7
:103A500085E99DE0909388028093870286E99DE046
:103A600090938C0280938B0286E180B980E20E9461
:103A7000B40A0E94B10A81110FC0F092C60280E21E
:103A80000E94B40A8CE090E00E940A0E85E090E06B
:103A90000E940A0E0E94B10A88E40E94B40A0E94A1
:103AA000B10A811190C045E567E00E94D61867E031
:103AB00080E00E942419853509F085C04AEA67E054
:103AC00080E00E94D61867E080E00E9424198A3ABC
:103AD00009F079C045E567E081E00E94D61867E00B
:103AE00081E00E942419853509F06DC04AEA67E03B
:103AF00081E00E94D61867E081E00E9424198A3A8A
:103B000009F061C081E08093B9026EE080E00E941C
:103B10002419482F48606EE080E00E94D61862E0C9
:103B200080E00E942419482F416062E080E00E94FA
:103B3000D61862E081E00E942419482F416062E0BB
:103B400081E00E94D61860E080E00E94872A61E050
:103B500080E00E94872A60E081E00E94872A61E07D
:103B600081E00E94872A40EB54E060E070E080E052
:103B70000E947D1940EB54E060E070E081E00E941B
:103B80007D1980E00E945D2A81E00E945D2A62E04A
:103B900080E00E942419482F426062E080E00E9489
:103BA000D61862E081E00E942419482F426062E04A
:103BB00081E00E94D61860E080E00E94241960E055
:103BC00081E00E9424198FE090E00E94EB1A8A3075
:103BD00028F069E08FE090E00E94D71A8091660299
:103BE000882309F4FBC086E01F928F9381EB9FE04E
:103BF0009F938F932BE7E22E23E0F22EFF92EF921A
:103C00000E94AE182091BF0280E890E002C0880FA9
:103C1000991F2A95E2F79F938F938EE99FE09F93D8
:103C20008F93FF92EF920E94AE188091BF020FB661
:103C3000F894DEBF0FBECDBF813009F0D1C082E85D
:103C40009FE00E942B0D0E94001888E60E94B40A93
:103C50000E94B10A811157C183EF90E00E942B0DA1
:103C600081E00E94CD1786EB91E00E944818809178
:103C7000D402282F082E000C330B3F938F9387EC30
:103C800090E09F938F938BE793E09F938F930E9495
:103C9000AE1888E60E94B40A8FE090E00E940A0EF7
:103CA0000E94B10A61E070E088E690E00E948E1602
:103CB0000E94D10A0F900F900F900F900F900F90CD
:103CC00087FFFDC028E030E046E050E06AE674E09F
:103CD000CE0101960E94701ACE0101960E941E1A12
:103CE0006093FC02CE0101960E94291A25E030E083
:103CF00043E050E06AE674E0CE0101960E94701A3B
:103D0000CE0101960E941E1A6093FB02CE0101961D
:103D10000E94291A22E030E050E040E06AE674E0B8
:103D2000CE0101960E94701ACE0101960E941E1AC1
:103D30006093FA02CE0101960E94291A26E030E033
:103D400044E050E064E674E0CE0101960E94701AEF
:103D5000CE0101960E941E1A6093D702CE010196F1
:103D60000E94291A90E080E00E94E40AEFEBE80F3D
:103D7000E33108F04CC00E2E000CFF0BEE53F14E59
:103D80000C94A436671F071F071F811F071F651F9D
:103D9000071F071F071FF61E071F071F711F7F1F23
:103DA0007D1F071F071F071F7B1F61E08AE00E941E
:103DB000710B60E08AE00E94430BF1E0FF1508F010
:103DC000EDCD60E082E00E94430B61E087E10E945C
:103DD000710B60E087E10E94430BFCCD8CE004CFC7
:103DE000823009F030CF8CE49FE02BCF81E090E06F
:103DF0000E94E40A813609F464C082E090E00E94E7
:103E0000E40A8E3609F05FC086E08093D6022BE08C
:103E100030E049E050E064E674E0CE0101960E9493
:103E2000701ACE0101960E941E1A6093D502CE012F
:103E300001960E94291A8FEA90E00E94041884E8F3
:103E400090E00E942B0D80E00E94CD1789E790E062
:103E50000E942B0D0E94ED1A8BE793E00E947E0CCE
:103E600080936302893731F0893521F08E3611F065
:103E70008E3481F70E942818809163028F7D8935E6
:103E800089F44091D5026091D6028091D7020E94B8
:103E90000F0E84E590E00E942B0D81E00E94CD176B
:103EA0000E94001888E60E94B40A8FE090E00E9409
:103EB0000A0E88E090E00E940A0E0E94B10A81E09A
:103EC00023C081E0A2CF87E0A0CF82E09ECF82E036
:103ED00090E00E94E40A823711F484E096CF88E0F3
:103EE00094CF82E090E00E94E40A823711F483E0EC
:103EF0008CCF85E08ACF89E088CF8AE086CF8BE0BF
:103F000084CF8CE082CF80E08093B6028091C6029D
:103F1000882321F086E39FE00E9404188091B90273
:103F2000882321F088E19FE00E9404188CE090E053
:103F30000E94EB1A823028F060E08CE090E00E9452
:103F4000D71A8CE090E00E94EB1A8093B502882388
:103F500009F446C088EC91E09F938F938FEF9EE029
:103F60009F938F938BE793E09F938F930E94AE185C
:103F70008DE0E6E8F0E0DE01AB59BF4F01900D9215
:103F80008A95E1F70E942310809365020F900F90AD
:103F90000F900F900F900F90811125C088EE9EE03A
:103FA0000E9404188AE090E00E94EB1A8093640259
:103FB000012B51F0873040F4843008F0DDC180914E
:103FC0006502882309F4D8C18BE793E00E94A00C16
:103FD0001816190634F58BE793E00E947E0CF4CF97
:103FE0008BEC91E0B9CF50E040E0682F80E00E9478
:103FF0005418CE018B599F4F7C016C0194E0C90E7F
:10400000D11CF7018181082E000C990B0E94A03869
:10401000F7018183FFEFEF1AFF0ACE14DF0489F75F
:10402000C1CF87EB9EE09F938F938BE793E09F93A5
:104030008F930E94AE18E09164020F900F900F9042
:104040000F90E73008F0B7C1E43020F480916502AA
:104050008111B1C125E630E02C0F3D1F2E0F311D1F
:10406000F9018181282F082E000C330B3F938F9389
:104070001F9288E58F9381E99EE09F938F938BE752
:1040800093E09F938F930E94AE180FB6F894DEBF13
:104090000FBECDBF8091650281113BC01F9282E4AB
:1040A0008F9383E89EE09F938F930BE713E01F931A
:1040B0000F930E94AE181F9286E48F9385E79EE0CF
:1040C0009F938F931F930F930E94AE181F928FE4BC
:1040D0008F9382E69EE09F938F931F930F930E948E
:1040E000AE188091C5020E9489170E9400181F9285
:1040F00081E48F9381E59EE09F938F931F930F93AD
:104100000E94AE180E9400180FB6F894DEBF0FBED2
:10411000CDBF1F9284E58F938EE39EE09F938F9394
:104120000BE713E01F930F930E94AE181F9287E5D1
:104130008F938FE29EE09F938F931F930F930E9424
:10414000AE181F9288E48F938FE19EE09F938F9328
:104150001F930F930E94AE180E9400180FB6F89498
:10416000DEBF0FBECDBF80916602882309F43AC13D
:104170008CE01F928F931F9283E48F9384EF9DE0D6
:104180009F938F938BE793E09F938F930E94AE183A
:104190000FB6F894DEBF0FBECDBF8091B502882365
:1041A00009F422C18BEC91E09F938F931F9285E4D9
:1041B0008F938FEC9DE09F938F938BE793E09F937A
:1041C0008F930E94AE188FE090E00E94EB1A0FB61A
:1041D000F894DEBF0FBECDBF893008F008C1E82FCC
:1041E000F0E0EE0FFF1FE156FF4F80819181B0E0BC
:1041F000A0E0BF93AF939F938F931F9283E58F931C
:104200008BEA9DE09F938F930BE713E01F930F932F
:104210000E94AE180FB6F894DEBF0FBECDBF8091DE
:10422000B602882309F4E8C01F9284E48F9381E9E1
:104230009DE09F938F931F930F930E94AE180F9052
:104240000F900F900F900F900F9080E190E00E94E0
:10425000EB1A20E830E002C0220F331F8A95E2F704
:104260003F932F931F9282E58F9384E79DE09F9366
:104270008F930BE713E01F930F930E94AE188DE509
:104280009DE09F938F931F930F930E94AE180FB6DC
:10429000F894DEBF0FBECDBF0E94ED1A8BE793E00E
:1042A0000E947E0C0E94A838182F809363028F33DF
:1042B00009F0B9C08091D3028F5F8093D302BE0111
:1042C0006B597F4F812F0E948116882329F3812FFC
:1042D0000E9428188091D302882391F01F928F9317
:1042E00087E49DE09F938F938BE793E09F938F9359
:1042F0000E94AE180F900F900F900F900F900F909C
:1043000080916302853409F406C10CF092C08334B5
:1043100009F4F5C0843409F491C1BE016B597F4F93
:10432000809163020E948116825080936402909172
:10433000D302992391F01F928F938FEB9CE09F9370
:104340008F938BE793E09F938F930E94AE180F900B
:104350000F900F900F900F900F9060916402673054
:1043600008F080C3643020F48091650281117AC323
:104370008AE090E00E94D71A80916402823051F462
:1043800081E99CE00E942B0D8091C5020E94891753
:104390000E940018E0916402E73008F080C3F0E06A
:1043A000EC52FE4D0C94A4364225C425CD2514268E
:1043B000172624263326BE016B597F4F88E50E94BD
:1043C0008116182F882309F465CE88E590E00E94B5
:1043D000A038E5E6F0E0EC0FFD1FE10FF11D31978D
:1043E000808358CE86E0C5CE88EC91E0DDCE80E0BB
:1043F00092ECA1E0B0E0FDCEBE016B597F4F84E4AA
:104400000E948116182F882309F41FCF84E490E0BE
:104410000E94A038E5E6F0E0EC0FFD1FE10FF11D72
:104420003197808312CF803209F049CF1092D302A6
:1044300046CF823509F4ABC2833509F476C08F3498
:1044400009F06BCF86ED91E00E9404188091C502BF
:1044500081508093620206E0809162028F5F602F3C
:104460000E946236192F9093620282E49DE00E94BE
:104470002B0D812F0E9489178FE29DE00E942B0D4A
:104480008BE793E00E94A00C181619062CF48BE71A
:1044900093E00E947E0CF4CF8BE793E00E94A00C87
:1044A000181619061CF00E94ED1AF6CF8BE793E060
:1044B0000E947E0C809363028D3011F08B3161F687
:1044C0008BE29DE09F938F938BE793E09F938F9375
:1044D0000E94AE180F900F900F900F908091630282
:1044E0008D3009F01ACF609162026093C5028EE0B0
:1044F00090E00E94D71A8FE4809363020ECF61E0B0
:1045000080916602811160E0609366028DE090E028
:104510000E94D71A02CF61E08091B502811160E05C
:104520006093B5028CE090E0F3CF86ED91E00E94BD
:1045300004188FE090E00E94EB1A81508093620291
:10454000BAE0DB2E0FE11DE08BE7E82E83E0F82ECA
:10455000809162028F5F6D2D0E946236909362029D
:10456000993029F1E92FF0E0EE0FFF1FE156FF4FE0
:1045700080819181B0E0A0E0BF93AF939F938F9330
:104580001F930F93FF92EF920E94AE180FB6F8940C
:10459000DEBF0FBECDBF8BE793E00E94A00C1816C4
:1045A000190654F48BE793E00E947E0CF4CF80E070
:1045B00092ECA1E0B0E0E0CF8BE793E00E94A00C8A
:1045C000181619061CF00E94ED1AF6CF8BE793E03F
:1045D0000E947E0C809363028D3019F08B3109F0BC
:1045E000B7CF8BE19DE09F938F930BE713E01F9371
:1045F0000F930E94AE180F900F900F900F90809124
:1046000063028D3009F089CE8FE090E00E94EB1AB2
:1046100060916202861709F480CE8FE090E00E94DC
:10462000D71A85EE9CE09F938F931F930F930E9460
:10463000AE180F900F900F900F906FCE0E94D21671
:104640001092C1028CEB91E00E9404188DE891E079
:104650000E940418EAE0FE2EF6EFEF2EDD24D3943C
:104660008BE891E00E942B0D8091C102823009F409
:1046700040C018F5882369F18130A1F10E94ED1A3C
:104680008BE793E00E947E0C082F809363028537AE
:1046900009F44DC0853509F44AC0843709F4D1C402
:1046A000843509F4CEC48D3049F71091C1026DE014
:1046B0008BE793E00E94DF0C5EC0843089F148F103
:1046C0008530E1F68FE391E00E942B0D8091FC0292
:1046D00006C082E891E00E942B0D8091D5020E94D5
:1046E000BD17CCCF88E791E00E942B0D8091D602B8
:1046F000F6CF8AE691E00E942B0D6DE08BE793E008
:104700000E94DF0C81E691E00E942B0D8091D70280
:10471000E6CF87E591E00E942B0D8091FA02DFCF72
:104720008BE491E00E942B0D8091FB02D8CF109179
:10473000C102123009F463C0E0F5112309F449C045
:10474000113009F451C0802F8F7D843509F0AAC043
:10475000123009F4C3C008F08DC0112309F49BC0C6
:10476000113009F4AFC06DE08BE793E00E94DF0CDD
:104770000D3009F075CF1F5F1093C102163008F499
:104780006FCF4091D5026091D6028091D7020E94EE
:104790000F0E8FE291E00E94041882E191E00E94E6
:1047A0002B0D81E00E94CD1786EB91E00E94481806
:1047B000B4CD143009F450C008F443C0153019F6D4
:1047C0008091FC028F5F8C3308F051C08093FC0213
:1047D000BACF8091D5028F5F843618F48093D502CA
:1047E000B2CF1092D502AFCF8091D6028F5F8D30BD
:1047F00018F48093D602A7CF1093D602A4CF80914D
:10480000D7028F5F8093D702E091D602E23089F41D
:1048100090E02091D502237049F42DE130E0281773
:1048200039070CF090CFD092D7028DCF2CE130E039
:10483000F6CFF0E0EE56FF4F9081981708F083CF47
:10484000F2CF8091FA028F5F883118F48093FA02D8
:104850007ACF1092FA0277CF8091FB028F5F8C3370
:1048600018F48093FB026FCF1092FB026CCF109272
:10487000FC0269CF143009F46EC008F45AC0153038
:1048800009F071CF2091FC02265F2C3308F075C02F
:104890002093FC0207C02091D502265F243640F405
:1048A0002093D5026DE08BE793E00E94DF0CD8CE19
:1048B000822F6F2D0E9462368E9D200D1124209331
:1048C000D50251CF8091D6028B3020F08A50809350
:1048D000D60249CF833030F7865FF9CF2091D702D7
:1048E000265F2093D702422F50E0E091D602F0E0FD
:1048F000EE56FF4F808190E03091D502337061E039
:1049000070E011F070E060E0860F971F8417950744
:104910004CF4822F6F2D0E9462368E9D200D112443
:104920002093D7028091D7028111BCCFD092D702B9
:104930001ACF2091FA02265F283118F42093FA0248
:10494000B1CF822F6F2D0E9462368E9D200D1124D3
:104950002093FA0208CF2091FB02265F2C3318F433
:104960002093FB029FCF822F6F2D0E9462368E9D77
:10497000200D11242093FB02F6CE822F6F2D0E9472
:1049800062368E9D200D11242093FC02ECCE86ED24
:1049900091E00E9404188091BF02815080936202CE
:1049A00053E0C52ED12C60E8A62EB12C05ED1CE0FD
:1049B0007BE7E72E73E0F72E809162028F5F90E035
:1049C000B6010E946E36982E8093620280EE9CE0C3
:1049D0000E942B0DC50102C0880F991F9A94E2F71F
:1049E0009F938F931F930F93FF92EF920E94AE18A5
:1049F0000F900F900F900F900F900F908BE793E018
:104A00000E94A00C181619062CF48BE793E00E9464
:104A10007E0CF4CF8BE793E00E94A00C18161906C9
:104A20001CF00E94ED1AF6CF8BE793E00E947E0CFB
:104A3000809363028D3019F08B3109F0BDCF0E9455
:104A400000180E940018809163028D3009F065CC37
:104A5000609162026093BF0280E190E00E94D71AE9
:104A600088E54ACD80916502811107C08AE090E017
:104A70000E94EB1A809364027FCC8FE99CE00E9435
:104A80000418FFCF8FEC91E0909361028093600255
:104A900010925F0210925E0281E08093BE0261E09C
:104AA00080E00E94430B00915E0210915F020115AD
:104AB000110519F1F090D30290E080E00E94FE15FC
:104AC00083EC0E943216802F0E943216812F0E94A2
:104AD0003216FF2091F01F930F938AE293E09F9389
:104AE0008F938BE793E09F938F930E94AE180F9064
:104AF0000F900F900F900F900F9080915E02909109
:104B00005F020E94FE158091D3028823F1F08CE0B1
:104B100093E00E942B0D60915A0270915B0290E02D
:104B200080E04AE00E943E170E94001886EF92E063
:104B30000E942B0D60915E0270915F0290E080E018
:104B400040E10E943E170E94001880916402843068
:104B500008F038C20E942310882309F470C10E9413
:104B6000231080936502882309F469C1609165026E
:104B7000662329F050E040E080E00E9454180E9433
:104B800010180E942310EBCF8BED91E090936102FF
:104B90008093600280E091E031C08091C502823054
:104BA00091F170F4882311F1813009F078CF81EF11
:104BB00091E0909361028093600280E890E01EC0D3
:104BC000843079F118F1853009F069CF8BE192E0FA
:104BD000909361028093600210925F0210925E02D5
:104BE00081E08093BE028093BD0259CF87EE91E0B1
:104BF000909361028093600280EE91ED90935F024A
:104C000080935E024CCF8CEF91E0C0CF87E092E0C2
:104C1000909361028093600210925F0210925E0294
:104C20003ECF83E192E0F4CF85E292E0F1CF81E9DB
:104C300094E090935D0280935C0280E098E0909312
:104C40005B0280935A02E8CF89E593E090935D027E
:104C500080935C0288E391E090935B0280935A0218
:104C600080E89EEFCBCF86E493E09F938F930BE792
:104C700013E01F930F930E94AE188BE692E09F9370
:104C80008F931F930F930E94AE180FB6F894DEBF58
:104C90000FBECDBF00E010E033E1E32E32E0F32E93
:104CA0004DE3C42E42E0D42E8BE793E00E94A00C8B
:104CB000892B51F461E070E080E090E00E94000CEC
:104CC000F3CF01E010E0F0CF8BE793E00E947E0C81
:104CD0008A33B9F38A3019F08D3009F0A1C001117F
:104CE00002C000E0EFCF1123E1F3E1E0F0E0EC0FD0
:104CF000FD1FE10FF11D1082CE0101960E944818A0
:104D0000CE0101960E94452A082FCE0103960E94EB
:104D1000452AA82ECE0105960E94452ABA2CA82E17
:104D2000CE0107960E94452A982E102F180F1A0DB3
:104D30001B0D811120C08091600090916100A81628
:104D4000B90620F4B0926100A0926000C5010E94F3
:104D5000FE155E0139E0A30EB11C0915F1F1C50184
:104D60000E94452A882E0E943216180D939482E0E4
:104D7000A80EB11CF2CF91E089131FC08091610091
:104D80008F93809160008F9383E592E09F938F9340
:104D90008BE793E09F938F930E94AE188091600001
:104DA0009091610090935F0280935E020F900F904C
:104DB0000F900F900F900F9072CE1F928F93DF92F3
:104DC000CF928BE793E09F938F930E94AE180F9042
:104DD0000F900F900F900F900F901195802F90E0F3
:104DE000880F991F0896E1E0F0E0EC0FFD1F8E0F91
:104DF0009F1F0E94452A181709F473CF1F928F93A3
:104E00001F921F93FF92EF928BE793E09F938F93F4
:104E10000E94AE180FB6F894DEBF0FBECDBF61CFB3
:104E2000002309F441CF133608F03ECFE1E0F0E073
:104E3000EC0FFD1FE10FF11D80831F5F35CF009147
:104E40006002109161026CEF71E0C8010E94B938F4
:104E5000892B31F0C8010E9470148093650210C044
:104E600082E392E00E9470148111F4CF82E392E019
:104E7000909361028093600260E08DE00E94430B9A
:104E8000809165028823E9F060916502662339F01C
:104E9000409160025091610281E00E9454180E948A
:104EA00010180091600210916102C8010E947014F4
:104EB00080936502833021F30E9423100E94231007
:104EC000C9CF809161028F93809160028F9382EDB0
:104ED00092E09F938F938BE793E09F938F930E9431
:104EE000AE180F900F900F900F900F900F90CE0173
:104EF00001960E947112082F89818093B402009359
:104F0000650210926202109162028091B402181739
:104F100058F4E12FF0E0E25DFC4F80810E943216F0
:104F20001F5F10936202EFCF803291F40023F9F2F9
:104F30004091600250916102602F82E00E945418FB
:104F40000E94101860E070E0CB010E94411302C083
:104F50000111EECF809165028111C9CF86EA92E0FE
:104F60000E94041860E086E10E94430B82B5877FAF
:104F700082BD85B5816085BD85B5897F85BD85B5D7
:104F8000886085BD85B58F7B85BD85B5806185BD14
:104F900085B58F7D85BD8091660283BD61E08FE020
:104FA0000E94710B89E892E00E9404188BE793E05D
:104FB0000E94A00C1816190634F58BE793E00E94A6
:104FC0007E0CF4CF8630D0F485EB92E00E942B0D5E
:104FD00010E000E080915A0290915B0208171907D7
:104FE00008F0BCCFE0915C02F0915D02E00FF11F90
:104FF00084910E9432160F5F1F4FECCF8CEA92E033
:105000000E942B0DABCF61E070E080E090E00E9449
:10501000000C61E086E10E94430BCF58DF4F0FB6D2
:10502000F894DEBF0FBECDBFDF91CF911F910F91DE
:10503000FF90EF90DF90CF90BF90AF909F908F90B8
:1050400008951091C10284CB1F920F920FB60F9258
:1050500011244F935F936F937F938F939F9340910E
:10506000CF025091D0026091D1027091D202809112
:10507000CE029091CD029230F9F41092CD028A5A6C
:105080008D3728F08D574F5F5F4F6F4F7F4F809365
:10509000CE024093CF025093D0026093D10270931E
:1050A000D2029F918F917F916F915F914F910F905D
:1050B0000FBE0F901F9018958B5A9F5F9093CD0253
:1050C000DFCF1F920F920FB60F9211242F933F93B1
:1050D0004F935F936F937F938F939F93AF93BF9300
:1050E000EF93FF938BE793E00E94BE0CFF91EF914B
:1050F000BF91AF919F918F917F916F915F914F91F0
:105100003F912F910F900FBE0F901F9018951F92F7
:105110000F920FB60F9211242F938F939F93EF93BB
:10512000FF93E0918B03F0918C038081E0919103D8
:10513000F091920382FD1BC09081809194038F5F58
:105140008F7720919503821741F0E0919403F0E06E
:10515000E558FC4F958F80939403FF91EF919F91B9
:105160008F912F910F900FBE0F901F9018958081F7
:10517000F4CF1F920F920FB60F9211242F933F93EB
:105180004F935F936F937F938F939F93AF93BF934F
:10519000EF93FF9381B1887F803609F44AC0F0F520
:1051A000883209F4A3C018F5803109F499C0B8F425
:1051B000882309F4FDC0883009F492C0FF91EF9173
:1051C000BF91AF919F918F917F916F915F914F911F
:1051D0003F912F910F900FBE0F901F90189588311F
:1051E00009F484C0803251F78093030314C08034E3
:1051F00009F4A0C040F48033B9F38833F9F6809302
:10520000030385ECB6C0803509F485C0883509F400
:1052100099C0883499F60E94660DD0CF883909F478
:105220008FC030F5883729F050F4883611F0803778
:1052300029F683E0809305031092AD0254C08838AC
:1052400009F47EC0803919F0803809F0B7CF809119
:10525000AD02803208F074C0E091AD0281E08E0FA3
:105260008093AD0283B1F0E0E357FD4F80833BC0F4
:10527000803B39F0E0F4803A09F47FC0883A09F0C5
:105280009DCF84E08093050310928A0210928902D8
:10529000E0918702F091880209958091890281113D
:1052A0000FC081E0809389021092670209C0803CA0
:1052B00009F4A7CF883C09F4A4CF883B09F07ECF3E
:1052C000E0918A0281E08E0F80938A02F0E0E95932
:1052D000FD4F808183B990918A02809189022EC00E
:1052E0008091FE0283B985EC86BF68CF9091000360
:1052F0008091FF029817A8F5809101039091020315
:10530000E091000321E02E0F20930003E80FF92F16
:10531000F11D8081E7CF2091010330910203E091DC
:10532000000381E08E0F8093000383B1E20FF32F1F
:10533000F11D8083909100038091FF02981798F2ED
:1053400085E8D2CF2091010330910203E091000360
:1053500081E08E0F8093000383B1E20FF32FF11DE4
:10536000808380910403811156CF81E08093FD02F8
:1053700084EA86BF1092050321CF85EC86BF109288
:1053800005038091AD02803230F4E091AD02F0E08F
:10539000E357FD4F10826091AD0270E0E0918B0207
:1053A000F0918C028DE892E009951092AD0206CF43
:1053B0001092030330CFEF92FF920F931F93CF937E
:1053C000DF930097C9F0EA018C012097B1F1E090DA
:1053D000AE02F090AF02E114F10479F1F80181918D
:1053E0008F010E94E80EF1E0EF1AF108F092AF028F
:1053F000E092AE022197E9CF411551056105710593
:1054000029F180914E0383FD07C089E0440F551FA9
:10541000661F771F8A95D1F788E50E942D0F8111AD
:105420001DC08FEF0E94E80E8EEF0E94E80E80E014
:1054300092E09093AF028093AE0290E080E0DF9123
:10544000CF911F910F91FF90EF900895DF91CF9131
:105450001F910F91FF90EF900C94F10E81E090E07E
:10546000EECF982F80ED890F8A3070F08FEB890F87
:10547000863018F489EC890F08958FE9890F8630FA
:1054800010F489EAF8CF80E008950F931F93CF932B
:10549000DF938C01FC0180810E94312AC82FF80122
:1054A00081810E94312AF0E1CF9FE00111248C2BF1
:1054B000DF91CF911F910F910895CF93DF93D82F54
:1054C00063E00E942419807CC82FC3608091D302BE
:1054D0008823B1F01F92CF931F92DF9383EF93E164
:1054E0009F938F938BE793E09F938F930E94AE18C7
:1054F0008DB79EB708960FB6F8949EBF0FBE8DBFAE
:105500004C2F63E08D2FDF91CF910C94D6180F9321
:105510001F93CF93DF93C82F162F8091D302833030
:1055200018F185EC91E0662311F082EC91E01F9276
:1055300020E32F939F938F938C2F90E08F5B9F4F4F
:105540009F938F9387EC93E19F938F938BE793E0E7
:105550009F938F930E94AE188DB79EB70A960FB691
:10556000F8949EBF0FBE8DBF64E08C2F0E9424195B
:10557000482F446064E08C2F0E94D61863E08C2F83
:105580000E942419082F4FEB63E08C2F0E94D6183D
:1055900062E08C2F0E942419D82F482F406162E0CE
:1055A0008C2F0E94D61840EC11114CE067E08C2F34
:1055B0000E94D6184D2F62E08C2F0E94D618402FE3
:1055C00063E08C2FDF91CF911F910F910C94D6182F
:1055D0000F931F93CF93DF93C82F162FD42F809153
:1055E000D3028330E0F01F924F931F926F938C2F62
:1055F00090E08F5B9F4F9F938F9381E691E19F9304
:105600008F938BE793E09F938F930E94AE188DB793
:105610009EB70A960FB6F8949EBF0FBE8DBF63E08B
:105620008C2F0E942419082F4FEB63E08C2F0E94CF
:10563000D61862E08C2F0E942419482F4F73111145
:105640004064D111406862E08C2F0E94D618402F30
:1056500063E08C2FDF91CF911F910F910C94D6189E
:10566000EBE7F3E01382128288EE93E0A0E0B0E073
:1056700084839583A683B78329E831E0318320832F
:1056800020E430E03587248749E250E05787468799
:105690004BE250E0518B408B4AE250E0538B428BFF
:1056A000358B248B2CE230E0378B268B118E128EBB
:1056B000138E148EE8E5F4E01382128284839583BE
:1056C000A683B7838BE991E091838083EAE6F4E0D7
:1056D00011821082138212821582148248E050E0F7
:1056E0006EE372E0CF010E94311AE4E6F4E0118229
:1056F000108213821282158214824BE050E067E41C
:1057000072E0CF010C94311ACF93DF9300D000D018
:10571000CDB7DEB7789483B7836083BF83B78864DF
:1057200083BF89B7816089BF82E08EBD8EB58160FD
:105730008EBD8FB581608FBD85B5846085BD85B513
:10574000806485BD87E886B91AB80E94A31B5BE711
:10575000E52E53E0F52E83E00E941A0B892B99F574
:1057600083E10E941A0B892B09F0BEC482E10E94DA
:105770001A0BD9B2D092CB0290917F00882309F402
:1057800083C09F3F51F090937E008091C902909119
:10579000CA029093C8028093C702D0927F001092F1
:1057A000CA021092C90260E08EE00E94430B60E0E2
:1057B00080E00E94430B61E080E00E94430B61E0C7
:1057C0008EE00E94430B80917F008F3F09F053C011
:1057D0008091BE028823E1F08091CC028823C1F041
:1057E00080916D008823A1F08BE793E00E94A00CCC
:1057F000181619066CF460E081E00E94430B80915A
:10580000B80281608093B80210926D001092CC02B1
:105810008091BD02882379F10E94AD0B0091B00206
:105820001091B1022091B2023091B3024B015C01A0
:10583000801A910AA20AB30A2091710030E0A8EE02
:10584000B3E00E945336681579058A059B0598F4E4
:1058500060E081E00E94430B8091B80282608093F7
:10586000B8020E94AD0B6093B0027093B1028093B6
:10587000B2029093B3020E94AC0C882309F46BCF60
:1058800081E08093CC0267CF9C3009F487C108F097
:1058900051C0963009F40BC118F5933009F4E8C0F3
:1058A00078F4992309F4D7C0913009F4DBC08091D2
:1058B0007F008A3009F477CF8C3009F474CFD5C2D9
:1058C000943009F4E9C0953091F78091C60288239D
:1058D00009F4CBC280E20E94B40A90E080E0D2C01A
:1058E000993009F4FAC080F4973009F4EBC098308D
:1058F000F1F68091C602882309F4B7C280E20E94C3
:10590000B40A8DE090E0BEC09A3009F406C19B3025
:1059100071F6D092C2028091C3029091C4028115A7
:10592000924008F034C12FE12D1508F435C11092D2
:105930007200BDCF923109F4AFC208F078C09F3039
:1059400009F4A0C280F49D3009F46DC29E3009F0C4
:10595000AECF8D2D81708093BE02D1FADD24D0F8B8
:10596000D092BD02A4CF903109F491C2913109F0D7
:105970009ECF8091C602882309F477C281E080938C
:10598000BB0211E0D11010E01093BA0280E20E9435
:10599000B40A82E190E00E940A0E110F012F056007
:1059A000802F90E00E940A0E0E94B10A80E20E94BD
:1059B000B40A90E080E00E940A0E88EF90E00E9416
:1059C0000A0E0E94B10A80E20E94B40A81E090E0CF
:1059D0000E940A0E90E080E00E940A0E0E94B10A26
:1059E00080E20E94B40A8CE090E00E940A0E8FEFE1
:1059F00090E00E940A0E0E94B10A80E20E94B40A5E
:105A000082E190E00E940A0E612F616088E594E0D7
:105A10000E94DB0D0E94B10A0093C10280E20E9445
:105A2000B40A82E190E00E940A0E602F2EC09232EA
:105A300048F4903208F060C2933109F038CFD09228
:105A4000700035CF943208F488C29E3709F02FCF0A
:105A5000D092D3022CCF60E0D0FE61E08DE00E94B6
:105A6000430B25CF6D2D8BE793E00E94DF0C1FCFFA
:105A70008091C602882309F4F8C180E20E94B40A2A
:105A800082E190E00E940A0E6D2D88E594E00E946C
:105A9000DB0D0E94B10A0BCF8091C602882309F466
:105AA000E4C180E20E94B40A83E190E0EBCF8091F0
:105AB000C602882309F4D9C180E20E94B40A81E0B9
:105AC00090E0E0CF8091C602882309F4CEC180E245
:105AD0000E94B40A8CE090E0D5CF23E680E12D153A
