:100000000C946B060C9495060C9495060C9495062E
:100010000C9495060C9495060C9495060C949506F4
:100020000C9495060C9495060C9495060C949506E4
:100030000C9495060C9495060C9495060C949506D4
:100040000C9495060C9495060C9498230C949506A4
:100050000C940C240C94E2230C9495060C949506B5
:100060000C9495060C9495060C9441240C949506DA
:100070000C9495060C9495060C9495060C94950694
:100080000C9495060C9495060C9495063110FD2160
:1000900052FDCDC6FECD3EFFCDF4FD3EFFBC20108F
:1000A000BD200D21D9FDCDC6FE2188FDCDC6FE7631
:1000B000E521D9FDCDC6FE2175FDCDC6FEE1CD4BB6
:1000C000FFCD3EFFCD3EFFDB01FEFF20FAE9694C8C
:1000D0006F6164202D20496E74656C2D4865782011
:1000E0004C6F61646572202D2053323030373138C7
:1000F000005374617274696E672041646472657341
:10010000733A20004C6F6164206572726F72202D0B
:100110002053797374656D2068616C746564005751
:10012000616974696E6720696E707574207374728A
:1001300065616D2E2E2E0053796E74617820657284
:10014000726F722100436865636B73756D20657211
:10015000726F722100694C6F61643A2000416464DF
:10016000726573732076696F6C6174696F6E2100BC
:10017000F5D5C501FFFF21A3FDCDC6FECD3EFFCDC8
:1001800072FFFE0D28F9FE0A28F5FE2028F1CD1A8F
:10019000FFCD69FFFE3AC2A3FECDE1FE571E00CDA2
:1001A000BEFECDD6FE3EFFB82005B92002444D7CF0
:1001B000CDBEFE7DCDBEFECDE1FECDBEFEFE01205C
:1001C0001ECDE1FECDBEFE7BA72866CD3EFF21D928
:1001D000FDCDC6FE21C9FDCDC6FE01FFFF18527A36
:1001E000A7282CCDE1FECDBEFEE5C5A701F0FCEDB4
:1001F00042C1E1DA8EFECD3EFF21D9FDCDC6FE2102
:10020000E1FDCDC6FE01FFFF182777231518D0CDDD
:10021000E1FECDBEFE7BA720B2CD3EFFC303FECDE7
:100220003EFF21D9FDCDC6FE21BBFDCDC6FE01FF9F
:10023000FFCD3EFF6069C1D1F1C9C54F7B915F79A8
:10024000C1C9F5E57EFE002806CD69FF2318F5E15A
:10025000F1C9F5CDE1FE67CDE1FE6FF1C9C5CDF481
:10026000FECB07CB07CB07CB0747CDF4FEB0C1C908
:10027000CD72FFCD1AFFCD06FF30F5CD23FFCD2E79
:10028000FFC9FE47D0FE3030023FC9FE3AD8FE41DA
:1002900030023FC937C9FE61D8FE7BD0E65FC9FE98
:1002A0003A3802D607D630E60FC9F5E60FC630FE5B
:1002B0003A3802C607CD69FFF1C9F53E0DCD69FF99
:1002C0003E0ACD69FFF1C9E5F57CCD58FF7DCD58DB
:1002D000FFF1E1C9F5C5470F0F0F0FCD2EFF78CD08
:1002E0002EFFC1F1C9F53E01D301F1D300C9DB01F5
:1002F000FEFFCA72FFC9494F533A2052544320733C
:10030000657420617420636F6D70696C6520746919
:100310006D65202D204E6F773A2000293F205B59D4
:100320002F4E5D203E000A446F20796F7520776163
:100330006E74207365742052544320617420494FB9
:100340005320636F6D70696C652074696D6520283A
:1003500000494F533A2052544320636C6F636B2023
:100360006661696C7572652100494F533A20525499
:1003700043204453333233312074656D70657261AC
:10038000747572652073656E736F723A202564C24E
:10039000B0430D0A00494F533A20466F756E6420F2
:1003A00052544320445333323331204D6F64756CC3
:1003B00065202800494F533A205254432064617409
:1003C000652F74696D65207570646174656420289B
:1003D00000202E2E2E646F6E652020202020200A03
:1003E000005365636F6E6473202D3E20004D696E6F
:1003F00075746573202D3E2000486F757273202D33
:100400003E200020446179202D3E20002020202025
:10041000202020202020202020004D6F6E74682096
:100420002D3E200059656172202D3E200020000ADB
:10043000507265737320542F5520746F20696E635A
:1004400072656D656E74202B31302F2B31206F72E9
:1004500020435220746F20616363657074000A4901
:100460004F533A20525443206D616E75616C207376
:10047000657474696E673A000D0A50726573732073
:10048000435220746F206163636570742C20455360
:100490004320746F2065786974206F7220616E79D3
:1004A000206F74686572206B657920746F206368B3
:1004B000616E676500494F533A205A38302069739E
:1004C0002072756E6E696E672066726F6D206E6F3A
:1004D000770020446F6E6500494F533A204C6F619E
:1004E00064696E6720626F6F742070726F677261EB
:1004F0006D2E2E2E00292E2E2E00494F533A204CC1
:100500006F6164696E6720626F6F742070726F67CD
:1005100072616D20280044454255473A20426F6F72
:100520007453747241646472203D20004445425506
:10053000473A20466C61736820426F6F74496D6161
:10054000676553697A65203D200044454255473A26
:1005500020496E6A6563746564204A5020307825AE
:100560003034580D0A008C00494F533A20437572BD
:1005700072656E74200044454255473A20626F6FA1
:10058000744D6F64653A2025640D0A002564204B84
:1005900042797465730D000D202D3E004368616E35
:1005A0006765642073706565642077696C6C206290
:1005B0006520656666656374697665206166746545
:1005C00072206E657874207265626F6F74210D0AF7
:1005D0000A000D0A0A000D202D3E256C6420202003
:1005E0000D000D0A0A00202020202020202020209D
:1005F000202020202020200D000D202D3E003F56E1
:100600006572626F73697479206C6576656C2025FC
:10061000640D0A000D0A456E74657220796F75725B
:100620002063686F696365203E2000202025633ABF
:100630002052414D2073697A6520282564204B4261
:1006400079746573290D0A00202025633A205365CB
:1006500074205254432054696D652F446174650DB4
:100660000A00202025633A2053657420536572697F
:10067000616C20506F72742053706565642028256A
:100680006C64290D0A00202025633A20546F6767A7
:100690006C652043502F4D204175746F65786563FC
:1006A00020282D3E202573290D0A00202025633A9D
:1006B000204368616E6765205A383020436C6F6351
:1006C0006B20537065656420282D3E202564204DE5
:1006D000487A290D0A00202025633A20694C6F6171
:1006E000640D0A0A000D0A202025633A2041757422
:1006F0006F626F6F740D0A00202025633A204C6FE3
:1007000061642F536574204F532000202025633AE5
:1007100020466F7274680D0A00202025633A20423B
:10072000617369630D0A00202025633A20457869CA
:100730007420776974686F7574206368616E67658B
:10074000202827256327290D0A0A000D0A494F533F
:100750003A2053656C65637420426F6F74204D6F4F
:100760006465206F722053797374656D20506172D7
:10077000616D65746572733A0D0A0A00494F533A08
:100780002043502F4D204175746F65786563206953
:10079000732025730D0A00494F533A20466F756E3A
:1007A000642053494F41202F2053494F42204F701E
:1007B00074696F6E00494F533A20466F756E64201E
:1007C000475045204F7074696F6E00202843545382
:1007D0002C2052545320757365642061732042416C
:1007E0004E4B322C2042414E4B33207369676E6171
:1007F0006C2C2043453220696E76657274656429DD
:10080000002028435453207573656420617320428F
:10081000414E4B32207369676E616C2900494F531A
:100820003A202564204B42797465732052414D0073
:10083000494F533A205A383020636C6F636B2073F2
:100840006574206174202564204D487A0D0A0049A2
:100850004F533A20466F756E6420657874656E64F8
:1008600065642073657269616C20527820627566D8
:1008700066657220282564206279746573290D0AE3
:1008800000533232303731382D523239303832332A
:100890002D44303930313236202D204A616E2020EF
:1008A0003920323032362031383A32343A31300061
:1008B0000D0A0A5A38302D4D4243322D4E47202D15
:1008C0002041303430363138202D2041546D656759
:1008D000613132383470202D202564204D487A0D46
:1008E0000A00494F533A20436865636B2053442004
:1008F000616E642070726573732061206B6579206E
:10090000746F207265706561740D0A00202D204699
:10091000696C653A2000206F7065726174696F6E52
:100920000052454144004F50454E004D4F554E54E6
:1009300000206F6E2000554E4B4E4F574E004E4FCD
:100940005F46494C4553595354454D004E4F545FF3
:10095000454E41424C4544004E4F545F4F50454E2A
:100960004544004E4F5F46494C45004E4F545F5240
:1009700045414459004449534B5F455252000D0ACA
:10098000494F533A205344206572726F7220003FE2
:100990003F53494F25633A2041637475616C20626F
:1009A000617564726174653A2025640D0A003F3FE9
:1009B00053494F25633A2043616C63756C617465DC
:1009C000642064697669736F723A2025640D0A00A9
:1009D0003F3F53494F25633A20446573697265640C
:1009E0002062617564726174653A2025640D0A00A5
:1009F0003F3F3F53494F25633A2053657441757417
:100A00006F48616E647368616B652025642C2025D6
:100A1000640D0A003F3F3F3F3F53494F25633A2053
:100A20005265616452656769737465722030782518
:100A30003032582028257329207265733D3078257F
:100A40003032580D0A003F3F3F3F3F53494F256327
:100A50003A205772697465526567697374657220CC
:100A600030782530325820282573292076616C3D56
:100A70003078253032580D0A003F3F3F53494F250B
:100A8000633A20577269746542797465203078251D
:100A90003032582025630D0A003F3F3F53494F2510
:100AA000633A20526561644279746520307825305C
:100AB00032582025630D0A003F3F3F3F53494F25E1
:100AC000633A205278204649464F204C6576656C43
:100AD0003A2025640D0A003F3F3F3F53494F2563AD
:100AE0003A205478204649464F2053706163653A56
:100AF0002025640D0A00202D2069727153746174E1
:100B00007573203D200044454255473A20494E54D4
:100B10002041434B206379636C6500202D20696F71
:100B200044617461203D200044454255473A2053BA
:100B3000595349525100202D2069727153746174C8
:100B40007573203D200044454255473A2053455295
:100B50002052580072657365727665640D0A0061F3
:100B600075746F205254532F4354530D0A0061750E
:100B7000746F20586F6E2F586F666620284E594943
:100B8000290D0A0064697361626C650D0A00202DED
:100B90002068616E647368616B653A20256420008B
:100BA000202D2062617564726174653A20256C6441
:100BB0000D0A003F3F53494F423A003F3F53494FD0
:100BC000413A002073657420636F6E74726F6C3AE3
:100BD0002030782530325800000021002400270002
:100BE0002A0000002200250028002B000000200021
:100BF000230026002900020202020202020204046B
:100C000004040404040403030303030303030101B2
:100C100001010101010101020408102040800102CC
:100C200004081020408001020408102040800102C6
:100C30000408102040800000000203000A0B00009E
:100C4000000005040908000000000000000000008A
:100C50000000000000003F3F3F53494F25633A200A
:100C60004649464F536574547269676765724C65AF
:100C700076656C2825735F4649464F3A2026640DF9
:100C80000A003F53494F25633A204C435220526596
:100C90006769737465723A203078253032780D0AAE
:100CA000000D0A0A494F533A20426175642072656B
:100CB000636F7665727920646F6E65202D20506CAD
:100CC00065617365207265626F6F74206E6F772146
:100CD00000000F26E52D11241FBECFEFD0E4DEBFAC
:100CE000CDBF25E0AEEEB2E001C01D92AF38B20735
:100CF000E1F712E0A0E0B1E0E4E5F7E600E00BBFC9
:100D000002C007900D92AE3EB107D9F716E0CAE6D1
:100D1000D6E004C02197FE010E945131C936D107A7
:100D2000C9F70E9465260C949D330C940000282F6F
:100D30009091C40381E0913208F042C08091A003F9
:100D40008111FCCF8091C30332E03093A003209344
:100D50009F032FEF20939E0323EA33E030939D03FC
:100D600020939C0310929B0390939A0310929903F3
:100D700090919903880F892B809399038091980310
:100D8000813029F510929803809199038093BB00DC
:100D90008091BC0083FDF8CF85EC8093BC008091EE
:100DA000A0038230E1F380919E038F3F91F0809108
:100DB0009E03803281F080919E03803371F084E045
:100DC0001092A2031092C4031092A103089585EE1D
:100DD000E4CF80E0F5CF82E0F3CF83E0F1CF81E094
:100DE0000C94970691E09093A1038093C303109213
:100DF000A2031092C40308959091940380919303E9
:100E00002FEF3FEF981748F4E92FF0E0ED58FC4F33
:100E1000208130E09F5F90939403C90108959091E1
:100E20009403809193032FEF3FEF981748F4E92F35
:100E3000F0E0ED58FC4F208130E09F5F90939403E9
:100E4000C9010895FB01A485B585ED91FC91119729
:100E50000190F081E02D682FCD01099590E080E0B0
:100E6000089520918305309184058217930760F4DB
:100E700020917F05309180052115310529F0280F3B
:100E8000391FF9018081089580E0089583E090E0A2
:100E90000197F1F7089582508A3088F5E82FF0E045
:100EA000EC5AF84F0C9451317C0780075E076407B9
:100EB0007F077F0768076E077207780780918000B9
:100EC0008F77809380000895809180008F7DF9CF87
:100ED0008091B0008F778093B00008958091B0002A
:100EE0008F7DF9CF809190008F7780939000089547
:100EF000809190008F7DF9CF84B58F7784BD089560
:100F000084B58F7DFBCFCF93DF93282F30E0F9019D
:100F1000EA5CF34F8491F901EA5EF34FD491F90151
:100F2000EA50F44FC491CC23A1F081110E944B07E9
:100F3000EC2FF0E0EE0FFF1FE451F44FA591B491B8
:100F4000EC91ED2381E090E009F480E0DF91CF9116
:100F5000089580E090E0FACF1F93CF93DF93282F7E
:100F600030E0F901EA5CF34F8491F901EA5EF34F56
:100F7000D491F901EA50F44FC491CC23A9F0162F73
:100F800081110E944B07EC2FF0E0EE0FFF1FEE5196
:100F9000F44FA591B4918FB7F894EC91111108C05A
:100FA000D095DE23DC938FBFDF91CF911F91089501
:100FB000DE2BF8CFCF93DF9390E0FC01EA5EF34F96
:100FC00024918A50944FFC0184918823C9F090E0C9
:100FD000880F991FFC01E852F44FA591B491FC01D0
:100FE000EE51F44FC591D49161110DC09FB7F894A3
:100FF0008C91209582238C938881282328839FBFFE
:10100000DF91CF910895623051F49FB7F8943C91ED
:10101000822F809583238C93E8812E2BEFCF8FB77F
:10102000F894EC912E2B2C938FBFEACF3FB7F89416
:1010300080916A0390916B03A0916C03B0916D0352
:1010400026B5A89B05C02F3F19F00196A11DB11D23
:101050003FBFBA2FA92F982F8827BC01CD01620F5F
:10106000711D811D911D42E0660F771F881F991F1A
:101070004A95D1F708958F929F92AF92BF92CF92E7
:10108000DF92EF92FF924B015C010E9416086B0108
:101090007C010E9416086C197D098E099F09683E23
:1010A000734081059105A8F321E0821A9108A108F7
:1010B000B10888EEC80E83E0D81EE11CF11C811433
:1010C0009104A104B10429F7FF90EF90DF90CF9035
:1010D000BF90AF909F908F9008952FB7F894609134
:1010E00066037091670380916803909169032FBF35
:1010F0000895AF92BF92CF92DF92EF92FF920F933B
:101100001F93CF93DF936C017B018B01040F151F9D
:10111000EB015E01AE18BF08C017D10759F0699105
:10112000D601ED91FC910190F081E02DC601099569
:10113000892B79F7C501DF91CF911F910F91FF9016
:10114000EF90DF90CF90BF90AF900895FC01538D4A
:10115000448D252F30E0842F90E0821B930B541791
:1011600010F0CF96089501970895FC01918D828D1E
:10117000981759F0A28DAE0FBF2FB11D5D968C91BF
:10118000928D9F5F928F90E008958FEF9FEF08956B
:10119000FC01918D828D981731F0828DE80FF11D41
:1011A000858D90E008958FEF9FEF0895FC01918D5C
:1011B000828D981B892F90E0089586E194E00E942B
:1011C000D60821E0892B09F420E0822F0895FC0144
:1011D000A48DA80FB92FB11DA35EBE4F2C91848D95
:1011E00090E001968F739927848FA689B7892C93F5
:1011F000A089B1898C91837080648C93938D848D48
:10120000981306C00288F389E02D80818F7D80834A
:101210000895EF92FF920F931F93CF93DF93EC010A
:1012200081E0888F9B8D8C8D98131AC0E889F9898D
:10123000808185FF15C09FB7F894EE89FF89608390
:10124000E889F98980818370806480839FBF81E011
:1012500090E0DF91CF911F910F91FF90EF90089553
:10126000F62E0B8D10E00F5F1F4F0F731127E02E2E
:101270008C8D8E110CC00FB607FCFACFE889F98966
:10128000808185FFF5CFCE010E94E708F1CFEB8D7D
:10129000EC0FFD2FF11DE35EFE4FF0829FB7F89437
:1012A0000B8FEA89FB8980818062CFCF0F931F93D8
:1012B000CF93DF938C01D0E0C0E0F801EC0FFD1F6D
:1012C0006491662341F086E194E00E940909892B2C
:1012D00011F02196F2CFCE01DF91CF911F910F91A6
:1012E0000895CF93DF93EC01888D8823B9F0AA8904
:1012F000BB89E889F9898C9185FD03C0808186FDD1
:101300000DC00FB607FCF7CF8C9185FFF2CF80811F
:1013100085FFEDCFCE010E94E708E9CFDF91CF91A5
:10132000089581E080934E0308950E94DD0888238C
:1013300019F081E080934E0380E090E0892B49F022
:1013400080E090E0892B29F00E94000081110C942C
:101350000000089585ED8093BC008091BC0084FD61
:10136000FCCF1092A003089520912303260F33276A
:10137000331F21323105ECF42091A003FC0190E0F1
:1013800080E0243069F082E00895A0912303219148
:10139000AC014F5F5C4FA40FB52FB11D2C9301968C
:1013A000861798F380912303680F6093230380E0EE
:1013B000089581E00895089508950895E0919403B3
:1013C00080919303E81730F4F0E0ED58FC4F8081F2
:1013D00090E008958FEF9FEF08958091930390918F
:1013E0009403891B990B0895CF92DF92EF92FF929D
:1013F0000F931F93CF93DF937C01CB018A01209140
:10140000A103222389F0EB016B01C40ED51ECC157C
:10141000DD0569F06991D701ED91FC910190F081B2
:10142000E02DC7010995F3CF642F0E94B409C801CC
:10143000DF91CF911F910F91FF90EF90DF90CF90B0
:101440000895CF93DF931F92CDB7DEB769832091C4
:10145000A1032223F9F02091C403203258F021E0A7
:1014600030E0FC013383228390E080E00F90DF9135
:10147000CF9108958091A203E82FF0E0ED55FC4F45
:10148000998190838F5F8093A2038093C40381E04E
:1014900090E0ECCF61E0CE0101960E94B409F7CF55
:1014A000682F83E795E00C94210A0F931F93CF9345
:1014B000DF93082F162FD42F88E60E94F20690E0C3
:1014C00080E00E94500A80919703CAE06C2F0E942E
:1014D0000F318295807F682F690F83E795E00E9426
:1014E000210A809196036C2F0E940F318295807F94
:1014F000682F690F83E795E00E94210A8091950388
:101500006C2F0E940F318295807F682F690F83E7CF
:1015100095E00E94210A81E090E00E94500A802F0D
:101520006C2F0E940F318295807F682F690F83E7AF
:1015300095E00E94210A812F6C2F0E940F31829525
:10154000807F682F690F83E795E00E94210A8D2F25
:101550006C2F0E940F318295807F682F690F83E77F
:1015600095E00E94210ADF91CF911F910F910C9479
:10157000EF0690E080E008950F931F93E09114042C
:10158000F09115049B01AC01225031094109510928
:1015900086819781A085B1850297A109B109281795
:1015A00039074A075B0778F4A281B0E00E94F53062
:1015B0000289138924893589600F711F821F931F47
:1015C0001F910F91089560E070E0CB01F9CF0F9368
:1015D0001F93CF93DF93EC01E0911404F091150475
:1015E000198218826C817D818E819F8161307105A5
:1015F0008105910581F1068117812085318560176C
:1016000071078207930738F561157105810591050A
:1016100039F42081233021F466857785808991898A
:10162000688779878A879B87611571058105910590
:1016300069F00E94BC0A6C877D878E879F8790E047
:1016400080E0DF91CF911F910F9108956685778596
:1016500080899189F0CF81E090E0F3CF8EBD0DB409
:1016600007FEFDCF08958FEF0E942E0B8EB50895D3
:101670000F931F93CF93DF93C0914803D0914903F9
:101680002197CD3F8FEFD80721F080E00E942E0BED
:10169000F7CF0E94330B8F71853079F0D1E0C0E035
:1016A00061E084E00E94AC070E94330B8D2F9C2FD9
:1016B000DF91CF911F910F91089508E813E1C0E9E0
:1016C000D1E00E94330B8F3F49F00115110531F332
:1016D000CE010197F1F701501109F3CFD1E0C0E03D
:1016E000012BF1F2D0E0DCCFFF920F931F93CF9349
:1016F000DF93C82FD42F152F062FF72E8091E903E3
:1017000081113FC083E58CBD1DBCC7FF09C040E00F
:1017100050E0BA0187E70E94740B823060F5CF7702
:1017200061E084E00E94AC070E94330B60E084E03B
:101730000E94AC070E94330B8C2F0E942E0B8F2D22
:101740000E942E0B802F0E942E0B812F0E942E0BA9
:101750008D2F0E942E0B85E9C03421F087E8C83414
:1017600009F081E00E942E0BCAE00E94330B87FF34
:1017700002C0C150D1F7DF91CF911F910F91FF901F
:10178000089580E58CBD81E08DBDBFCFCF92DF9203
:10179000EF92FF920F931F93CF93DF937C01690128
:1017A0008091E90383FD07C089E0440F551F661F40
:1017B000771F8A95D1F781E50E94740B811108C0CB
:1017C000C0E4DCE90E94330B8F3F29F42197D1F765
:1017D000C1E0D0E022C08E3FD9F7C2E0D2E0C01B0A
:1017E000D10BCC19DD0981E0C81AD10818F00E948C
:1017F000330BF9CFE114F10401F10E0D1F1D0E940E
:10180000330BF70181937F010E171F07C1F70E9469
:10181000330B2197E1F7D0E0C0E061E084E00E9463
:10182000AC070E94330BCE01DF91CF911F910F9136
:10183000FF90EF90DF90CF9008950E94330B0150FE
:101840001109D9F7E4CFCF92DF92EF92FF920F9375
:101850001F93CF93DF93EC016A017B0102E010E05C
:101860002EEF31E00E94C60B892B31F588819981DA
:1018700085359A4A59F526E330E0B701A601CE0135
:101880000E94C60B892B29F4888199818634914462
:1018900089F002E010E022E530E0B701A601CE01B8
:1018A0000E94C60B892BA1F481E02881398126345E
:1018B000314419F480E001C083E0DF91CF911F91A2
:1018C0000F91FF90EF90DF90CF90089582E0F5CFD9
:1018D00081E0F3CF4F925F926F927F928F929F92AF
:1018E000AF92BF92CF92DF92EF92FF920F931F932E
:1018F000CF93DF93CDB7DEB7A4970FB6F894DEBFD2
:101900000FBECDBF10921504109214048091E9030C
:10191000882339F084E00E948307892B11F40E9408
:10192000380B61E084E00E94AC0761E084E00E9433
:10193000DA0761E085E00E94DA0761E087E00E9453
:10194000DA0761E084E00E94DA0783E58CBD1DBC04
:1019500061E084E00E94AC071AE00E94330B115052
:10196000E1F740E050E0BA0180E40E94740B182FC8
:10197000813009F441C010E01093E90361E084E094
:101980000E94AC070E94330B82E090E01123E9F043
:1019900040E050E0BA01CE0101960E94230CC12C18
:1019A000D12C7601813009F096C000E110E02EEBD9
:1019B00031E040E050E0BA01CE0101960E94C60B32
:1019C000892B09F478C081E090E0A4960FB6F894D2
:1019D000DEBF0FBECDBFDF91CF911F910F91FF9062
:1019E000EF90DF90CF90BF90AF909F908F907F90BF
:1019F0006F905F904F9008954AEA51E060E070E088
:101A000088E40E94740B813091F5CE0101967C012F
:101A10006E0195E0C90ED11C87010E94330BF801BD
:101A200081938F01CE16DF06C1F78B81813009F0DB
:101A3000A2CF8C818A3A09F09ECF80E1C82E87E23E
:101A4000D82E90E9A92EBB24B39440E050E060E08A
:101A500070E489EE0E94740B882309F4C9C0C501A3
:101A60000197F1F7F1E0CF1AD10879F784CF40E080
:101A700050E0BA0189EE0E94740B01E4823010F448
:101A800012E009EEA0E1EA2EA7E2FA2EB0E9CB2E91
:101A9000DD24D39440E050E0BA01802F0E94740B03
:101AA000882309F4BBC0C6010197F1F7F1E0EF1AF2
:101AB000F10881F760CF8D81811103C086E090E04D
:101AC00084CFC984DA84EB84FC84B701A601CE01FB
:101AD00001960E94230C833009F475CF8111EECF5B
:101AE00004E210E02DE030E0B701A601CE0101963E
:101AF0000E94C60B892B09F066CF2A853B8550E0F2
:101B000040E0211531054105510521F4288D398D1D
:101B10004A8D5B8DAC81B0E00E94F5304B015C01D9
:101B20004A815B8170E060E0C40ED51EE61EF71EA0
:101B3000C092F403D092F503E092F603F092F7031B
:101B4000E981E093EC038D819E819093EF03809374
:101B5000EE030F81188530E020E001151105210505
:101B6000310521F40C891D892E893F89F4E0969571
:101B70008795FA95E1F72C01712C612C041B150B4C
:101B8000260B370BC901B801681979098A099B0925
:101B900064197509860997092E2F30E050E040E05E
:101BA0000E942F31DA01C9010296A11DB11D809357
:101BB000F0039093F103A093F203B093F303265F35
:101BC0003F40410951092F3F3F4E4105510588F1E2
:101BD000873F9F4FA105B10588F570CF82E08093C4
:101BE000EA03D501C4018C0D9D1DAE1DBF1D2DC086
:101BF00040E050E0BA018AE70E94740B8111BBCE2D
:101C00000E94330BF70181937F010E171F07C1F765
:101C100089811CE086FDB0CE14E0AECE40E052E0FB
:101C200060E070E080E50E94740B882309F4A4CE84
:101C3000A2CE873F9F4FA105B10580F283E080933C
:101C4000EA0388A199A1AAA1BBA18093F80390936C
:101C5000F903A093FA03B093FB03C40CD51CE61C54
:101C6000F71C8C0C9D1CAE1CBF1C8092FC03909238
:101C7000FD03A092FE03B092FF031092EB038AEEE5
:101C800093E0909315048093140490E080E09DCE3F
:101C90000F931F93CF93DF9300D000D0CDB7DEB763
:101CA000623071058105910528F461E070E080E003
:101CB00090E055C0E0911404F0911504068117815D
:101CC00020853185601771078207930770F7AB0194
:101CD000BC018081823031F1833039F79A012F774E
:101CE0003327220F331F220F331F97E07695679516
:101CF000579547959A95D1F782859385A485B585A3
:101D0000480F591F6A1F7B1F04E010E0CE010196A7
:101D10000E94C60B892B49F669817A818B819C814F
:101D20009F701DC09A013327220F331F452F562F56
:101D3000672F772782859385A485B585480F591F1E
:101D40006A1F7B1F02E010E0CE0101960E94C60BC5
:101D5000892B09F0AACF69817A8190E080E00F9009
:101D60000F900F900F90DF91CF911F910F910895D9
:101D70006F927F928F929F92AF92BF92CF92DF929B
:101D8000EF92FF920F931F93CF93DF93C0911404B0
:101D9000D0911504FC0111821082209709F4AFC084
:101DA000298120FFAFC00A8D1B8D2C8D3D8D4E8962
:101DB0005F89688D798D68017901C41AD50AE60AB0
:101DC000F70AB701A601403251056105710520F0FF
:101DD00040E250E060E070E05C017A0139EC832E73
:101DE00033E0932E612C42E0742EE114F10409F4E7
:101DF0008CC08E899F89A88DB98DAC01BD015170B1
:101E000066277727452B462B472B09F04AC0DA80F7
:101E1000DA94AC01BD0129E0769567955795479511
:101E20002A95D1F7D42251F5892B8A2B8B2BD9F403
:101E30006E8D7F8D88A199A1623071058105910514
:101E4000C8F4198281E090E0DF91CF911F910F914A
:101E5000FF90EF90DF90CF90BF90AF909F908F90CA
:101E60007F906F9008956AA17BA18CA19DA10E9493
:101E7000480EE2CF6AA37BA38CA39DA36AA17BA19A
:101E80008CA19DA10E94BC0A611571058105910577
:101E9000C1F26D0D711D811D911D6EA37FA388A7D9
:101EA00099A72E893F893170C301821B930B67016B
:101EB0008E159F0508F46C014EA15FA168A579A558
:101EC0008601C4010E94C60B892B09F0BACF8E8906
:101ED0009F89A88DB98D8C0D9D1DA11DB11D8E8B67
:101EE0009F8BA88FB98F8C0C9D1CEC18FD08F501F9
:101EF00080819181C80ED91ED182C08276CF85E0C3
:101F000090E0A2CF84E090E09FCF90E080E09CCF73
:101F10004F925F926F927F928F929F92AF92BF92F9
:101F2000CF92DF92EF92FF92CF93DF9300D000D059
:101F300000D0CDB7DEB720911404309115043E8354
:101F40002D832115310509F40CC1D90111962C916D
:101F5000119720FF09C15A96CD90DD90ED90FC902D
:101F60005D976C157D058E059F0510F46B017C0156
:101F7000ED81FE8146885788608C718C168A178A9D
:101F8000108E118EC114D104E104F10409F4E6C0ED
:101F90008280912CB12CA12C39E0880C991CAA1CB0
:101FA000BB1C3A95D1F7411451046104710409F442
:101FB00070C0B1E04B1A510861087108C701B60141
:101FC0006150710981099109A50194010E942F3185
:101FD00029833A834B835C83C301B201A501940139
:101FE0000E942F3189819A81AB81BC81821793072E
:101FF000A407B50708F44DC088279927DC01881984
:102000009909AA09BB0984219521A621B721ED814F
:10201000FE81868B978BA08FB18FC81AD90AEA0AE6
:10202000FB0A62A173A184A195A18C149D04AE0446
:10203000BF0408F058C00E94480E62307105810547
:10204000910568F0AD81BE8116964D905D906D90C2
:102050007C901997641575058605970540F1ED810B
:10206000FE81118281E090E026960FB6F894DEBFE3
:102070000FBECDBFDF91CF91FF90EF90DF90CF905B
:10208000BF90AF909F908F907F906F905F904F9098
:102090000895AD81BE815E966D917D918D919C91EB
:1020A0009197FD0162A373A384A395A3BECFAD81D5
:1020B000BE8192966D937D938D939C939597569642
:1020C0004D905D906D907C905997480C591C6A1CFE
:1020D0007B1CFD01468A578A608E718EC818D9080C
:1020E000EA08FB08A2CFAD81BE8156968D909D90E7
:1020F000AD90BC905997C80CD91CEA1CFB1CFD0183
:10210000C68AD78AE08EF18E0E94BC0AAB01BC0160
:10211000411551056105710529F4AD81BE81119606
:102120001C92A0CFED81FE8182818150990B092EF6
:10213000000CAA0BBB0B29E0F694E794D794C79444
:102140002A95D1F78C219D21AE21BF21480F591F1F
:102150006A1F7B1F46A357A360A771A790E080E08A
:1021600083CF85E090E080CF84E090E07DCF4F92F8
:102170005F926F927F92BF92CF92DF92EF92FF9227
:102180000F931F93CF93DF93CDB7DEB7EC970FB6C6
:10219000F894DEBF0FBECDBFE0901404F09015049C
:1021A000E114F10409F404C1F70111829E012F5CCE
:1021B0003F4F3CA32BA39C016901F90180812F5F54
:1021C0003F4F8032C9F38F3209F469011DA21EA26C
:1021D0001FA218A6F6018081A0E2BA2E803208F074
:1021E000D4C0CE0181960E94E70A1982009709F4B3
:1021F00007C1EC960FB6F894DEBF0FBECDBFDF91DE
:10220000CF911F910F91FF90EF90DF90CF90BF90F3
:102210007F906F905F904F90089520E0E0E088E01D
:10222000D1C0C30ED11C81E0913208F080E01B9632
:102230008C93CE0181960E94E70A0097D1F629A1DE
:102240003AA12F703327F5E0220F331FFA95E1F7FB
:102250004DA55EA56FA578A900E210E0CE0101961C
:102260000E94C60B892B19F081E090E0C2CF8981D2
:10227000811103C083E090E0BCCF8C8583FD13C047
:102280000BA11CA19E012F5F3F4FD801B801655FD4
:102290007F4F6A177B0709F4AEC0F90141919F0196
:1022A0009D914917B1F309A11AA10F5F1F4F11F3B7
:1022B0008DA59EA5AFA5B8A90097A105B105D1F23E
:1022C00098012F703327232BB9F40196A11DB11D5E
:1022D0008DA79EA7AFA7B8AB69A57AA58BA59CA52E
:1022E000F701611571058105910549F48481958196
:1022F0000817190708F0BECF1AA309A3A0CF22819F
:10230000E22FE150FF0BAF019801E4E036952795ED
:10231000EA95E1F724233523232B71F70E94480E19
:10232000623071058105910508F49ECFF701468062
:10233000578060847184641575058605970508F0DB
:1023400099CF69A77AA78BA79CA70E94BC0A6DA703
:102350007EA78FA798ABD0CF84FF8CCFF701808169
:102360008330F1F48D899E89B0E0A0E0DC019927EB
:1023700088274B8D5C8D70E060E0842B952BA62B1D
:10238000B72B8DA39EA3AFA3B8A7ABA1BCA1FD01A2
:10239000CD010B968E179F0709F43FCFB192FACF6C
:1023A00080E090E0DC01E5CF80E090E0DC013DC022
:1023B00085E090E01ECF883009F033CF9BE0282FD6
:1023C000E32F892F31E03E0FEC0DFD2DF11D9081A3
:1023D000913208F426CF9F3209F423CF9E3259F36D
:1023E000281708F01ECFFD01E20FF11D9083982FF2
:1023F00081E0820FE4CFF8019385992309F4ACCFF3
:102400008981882309F436CF8C8584FD33CFE09110
:102410001404F09115048081833031F68D899E89F2
:10242000B0E0A0E0DC01992788274B8D5C8D70E03F
:1024300060E0842B952BA62BB72BF701868F978F07
:10244000A0A3B1A38D8D9E8DAF8DB8A1828F938FE8
:10245000A48FB58F168A178A108E118E81E0818322
:1024600090E080E0C6CECF93DF93D82FC0E061E04C
:102470008FE00E94AC0760E08FE00E94AC07CF5F66
:10248000DC13F5CFDF91CF9108951F93CF93DF93A6
:10249000182FD92F81E00E94331261E080915A03F6
:1024A000823009F060E082E00E94AC07CFEFC1B952
:1024B00081E282B982E00E94331211B8C2B982E08F
:1024C0000E943312C1B912B983E00E943312D2B90B
:1024D00082E00E94331211B8C2B961E080915A03C0
:1024E000823009F460E082E0DF91CF911F910C947B
:1024F000AC07CF93DF93D82F81E00E94331261E0C5
:1025000080915A03823009F060E082E00E94AC07BB
:10251000CFEFC1B986E382B982E00E94331211B8CD
:10252000C2B982E00E943312C1B9D2B982E00E94DE
:10253000331211B8C2B9C0915A0361E0C23009F434
:1025400060E082E00E94AC0783E00E94331281E0E9
:102550000E94331261E0C23009F060E082E00E9424
:10256000AC07CFEFC1B983E282B982E00E94331297
:1025700011B8C2B961E080915A03823009F460E079
:1025800082E00E94AC0783E0DF91CF910C9433127C
:10259000282F81E0FB019191BF01992321F092172F
:1025A00019F08F5FF7CF80E00895AC018091A00310
:1025B0008111FCCF962F81E08093A00380939F032D
:1025C0002FEF20939E0323E733E030939D03209366
:1025D0009C0310929B032FEF260F20939A03809366
:1025E000990320919903440F551F822F842B8093C8
:1025F0009903809198038130E9F4109298038091B7
:1026000099038093BB008091BC0083FDF8CF85ECDB
:102610008093BC008091A0038130E1F380919B0303
:10262000861710F490919B03109294039093930358
:10263000892F089585EEECCFCF9388E60E94F206AD
:1026400090E080E00E94500A0E94EF0662E170E094
:1026500088E690E00E94D5120E940F07982F92956D
:102660009770CAE08F709C9F800D11248093970310
:102670000E940F07982F92959F708F709C9F800DDE
:102680001124809396030E940F07982F92959370C0
:102690008F709C9F800D1124809395030E940F07DB
:1026A0000E940F07982F92959F708F709C9F800DAE
:1026B0001124809372030E940F07982F92959F70A8
:1026C0008F709C9F800D1124809371030E940F07CF
:1026D000982F92959F708F709C9F800D11248093EE
:1026E00070030E940F07C150E1F70E940F0780930B
:1026F0006F03CF910895FC0101900020E9F7319715
:10270000AF01481B590BBC0186E194E00C94790899
:102710008F929F92AF92BF920F931F93CF93DF93AD
:10272000CDB7DEB7A1970FB6F894DEBF0FBECDBF11
:1027300019A2423008F44AE08E010F5D1F4F842E2B
:10274000912CB12CA12CA50194010E942F31E62FD0
:10275000B901CA01EA30F4F4E05DD801EE938D01CD
:10276000232B242B252B79F790E080E0109719F08C
:10277000CD010E947B13A1960FB6F894DEBF0FBE69
:10278000CDBFDF91CF911F910F91BF90AF909F90E0
:102790008F900895E95CE1CF009711F00C947B13C2
:1027A00090E080E008951F93CF93DF9300D0CDB7E2
:1027B000DEB7182F84E492E00E94CC13612F70E002
:1027C00090E080E04AE00E948813105D10930201BF
:1027D00080E091E00E94B710CE0101960E94B80EF1
:1027E000898180934F03882361F08EE492E00E94F8
:1027F000CC1389EC93E00E94CC1381E592E00E9417
:10280000CC130F900F90DF91CF911F910895CF932C
:10281000C82F8A3020F480EE92E00E94CC136C2FF7
:1028200070E090E080E04AE0CF910C948813811131
:102830000E941C1383E592E00E94CC1380917003E8
:102840000E94071486E592E00E94CC1380917103E8
:102850000E94071486E592E00E94CC1380917203D7
:102860000E9407148CE492E00E94CC13809195039F
:102870000E94071488E592E00E94CC138091960391
:102880000E94071488E592E00E94CC138091970380
:102890000C9407148AE592E00C947B13CF93DF939A
:1028A0000E945609EC010E944A148C0F9D1FDF9173
:1028B000CF91089586E194E00E94D6081816190673
:1028C0002CF486E194E00E94B508F4CF82EE98E003
:1028D0000E944E1486E194E00E94D608181619064C
:1028E000CCF70895CF93DF93682F86E194E00E94A0
:1028F0000909EC010E944A148C0F9D1FDF91CF91B2
:102900000895CF93DF93682F70E090E080E04AE075
:102910000E948813EC010E944A148C0F9D1FDF91C6
:10292000CF910895CF93DF9381E592E00E947B13CE
:10293000EC010E944A148C0F9D1FDF91CF910895E6
:102940000F931F93CF93DF93D82FC62F8A018EE763
:1029500099E00E9456096C2F70E090E080E04AE018
:102960000E9488138EE492E00E94CC1383E699E0E3
:10297000C330C1F058F485E799E0C13099F08BE697
:1029800099E0C23079F086E399E00CC08CE499E0DC
:10299000C53041F088E599E0C53020F08EE399E03C
:1029A000C63089F70E94560981E399E00E945609D2
:1029B00086E299E0D13031F08BE299E0D23011F427
:1029C00081E299E00E94560986E199E00E94560949
:1029D0000115110539F08CE099E00E945609C801F3
:1029E0000E94CC13DF91CF911F910F910C94921400
:1029F000CF93DF93CDB7DEB72E970FB6F894DEBF37
:102A00000FBECDBF82E297E09A8789871C861B861E
:102A100082E08C8386E194E09E878D87AE01495EDB
:102A20005F4F6D897E89CE0101960E94292E2E96D8
:102A30000FB6F894DEBF0FBECDBFDF91CF910895E2
:102A4000FF920F931F93CF93DF93F42E062F10E086
:102A5000C82FD0E080916E03853020F11F924F93F4
:102A6000C801880F991F880F991F84579E4F9F9305
:102A70008F931F926F93CE018F5B9F4F9F938F9386
:102A800086E49AE09F938F9386E194E09F938F93DF
:102A90000E94F8148DB79EB70C960FB6F8949EBF9F
:102AA0000FBE8DBF88E40E94F206C80123E0880FA4
:102AB000991F2A95E1F7CC0FDD1F8C2B9D2B0E94CF
:102AC000500A6F2D83E795E00E94210A81E0DF9193
:102AD000CF911F910F91FF900C949706DF92EF9288
:102AE000FF920F931F93CF93DF93C82FD62E88E4C6
:102AF0000E94F2060D2D10E0D0E0980193E0220F25
:102B0000331F9A95E1F7CE01880F991F822B932BE3
:102B10000E94500A80E00E94970661E070E088E41D
:102B200090E00E94D5120E940F077C0180916E03F5
:102B3000853020F1C70199279F938F93000F111FB4
:102B4000000F111F045B1E4F1F930F931F92DF9204
:102B5000CF5BDF4FDF93CF9384E19AE09F938F9316
:102B600086E194E09F938F930E94F8148DB79EB7EF
:102B70000C960FB6F8949EBF0FBE8DBF8E2DDF91C1
:102B8000CF911F910F91FF90EF90DF900895CF9319
:102B9000DF93D82F63E00E946E15807CC82FC3603E
:102BA00080916E038823B1F01F92CF931F92DF9321
:102BB00082E89CE09F938F9386E194E09F938F93AC
:102BC0000E94F8148DB79EB708960FB6F8949EBF72
:102BD0000FBE8DBF4C2F63E08D2FDF91CF910C94F2
:102BE00020150F931F93CF93DF93C82F162F80913B
:102BF0006E03833018F180E692E0662311F08DE5D4
:102C000092E01F9220E32F939F938F938C2F90E05D
:102C10008F5B9F4F9F938F9386E59CE09F938F934D
:102C200086E194E09F938F930E94F8148DB79EB72E
:102C30000A960FB6F8949EBF0FBE8DBF64E08C2F2E
:102C40000E946E15482F446064E08C2F0E9420156E
:102C500063E08C2F0E946E15082F4FEB63E08C2FE2
:102C60000E94201562E08C2F0E946E15D82F482FED
:102C7000406162E08C2F0E94201540EC11114CE065
:102C800067E08C2F0E9420154D2F62E08C2F0E9450
:102C90002015402F63E08C2FDF91CF911F910F9172
:102CA0000C9420154F925F926F927F928F929F9219
:102CB000AF92BF92CF92DF92EF92FF920F931F934A
:102CC000CF93DF93C82F042FB52EA62E972E64E046
:102CD0000E946E1524E087FF21E030E050E040E0E4
:102CE00060E072EC81E090E00E942F3129013A010E
:102CF000CA01B901202F3B2D4A2D592D0E942F3199
:102D000069017A0163E08C2F0E946E15182F482FFD
:102D1000406863E08C2F0E9420154C2D60E08C2FC2
:102D20000E9420154D2D61E08C2F0E942015412F0F
:102D30004F7763E08C2F0E942015A701960144274E
:102D40005527C301B2010E942F313901842ED52F9E
:102D500080916E03823098F1CF5B9F92AF92BF92C9
:102D60000F931F92CF9380ED99E09F938F9306E18D
:102D700014E01F930F930E94F814DF92CF921F92DA
:102D8000CF938EEA99E09F938F931F930F930E94A6
:102D9000F814DF938F927F926F921F92CF938FE8F8
:102DA00099E09F938F931F930F930E94F8148DB710
:102DB0009EB74C960FB6F8949EBF0FBE8DBFB30161
:102DC000882D9D2FDF91CF911F910F91FF90EF9054
:102DD000DF90CF90BF90AF909F908F907F906F903B
:102DE0005F904F900895FC0180819181009711F0D0
:102DF0000C94ED2D60E070E0CB010895FC01808122
:102E00009181009711F00C940A320895EF92FF928D
:102E10000F931F93CF93DF93EC017B018A0188818D
:102E20009981009729F02A813B812417350788F47E
:102E3000B8016F5F7F4F0E949332009791F09983A2
:102E400088831B830A832C813D81232B11F4FC0191
:102E500010821D830C83B701888199810E9496336B
:102E60000CC088819981009711F00E940A32198262
:102E700018821D821C821B821A82CE01DF91CF91A3
:102E80001F910F91FF90EF900895AF92BF92CF9254
:102E9000DF92EF92FF920F931F93CF93DF93EC019A
:102EA0006B015A0179012417350720F48B2D590144
:102EB000E42EF82E198218821B821A821D821C822F
:102EC00050E040E06CE572E0CE010E940617D601AA
:102ED00014960D911C91A016B10628F5E016F10686
:102EE00008F48701D601ED91FC911197E00FF11FD5
:102EF000F08010826D917C916A0D7B1D61157105CA
:102F0000F1F0FB0101900020E9F73197AF01461B7A
:102F1000570BCE010E940617F60180819181080FA0
:102F2000191FD801FC92CE01DF91CF911F910F9113
:102F3000FF90EF90DF90CF90BF90AF900895888181
:102F40009981009711F00E940A32198218821D821D
:102F50001C821B821A82E0CF1F93CF93DF93EC0178
:102F6000162F0E94DF30181739F0612FCE01DF9144
:102F7000CF911F910C94E730DF91CF911F9108956D
:102F80000C94DF30CF92DF92EF92FF920F931F935A
:102F9000CF930E946D086B017C01C1E086E194E053
:102FA0000E94D608892B09F09BC00E946D086C19FD
:102FB0007D098E099F09683B7B4081059105A0F43E
:102FC00062E08DE00E94DA078DE00E948307892B82
:102FD00009F0C0E061E08DE00E94DA076AE070E08D
:102FE00080E090E00E943B080E946D080091C503BC
:102FF0001091C6032091C7033091C803601B710B69
:10300000820B930B6D32714081059105A0F080E039
:103010000E94830761E0892B09F060E080E00E9454
:10302000AC070E946D086093C5037093C60380933C
:10303000C7039093C8030E946D086C197D098E091F
:103040009F09693B7B408105910508F4A7CFCC23FC
:1030500009F4A4CF8FE090E00E94C017893009F4F2
:103060009DCF60E080E00E94AC0769E08FE090E0D7
:103070000E94AC1781EA9CE00E944E140E946D08E9
:10308000C090C503D090C603E090C703F090C8037A
:103090006C197D098E099F096536710581059105B9
:1030A00068F380E00E94830761E0892B09F060E00B
:1030B00080E00E94AC078DE00E94830761E0892BCD
:1030C00009F060E08DE00E94AC070E946D086093FB
:1030D000C5037093C6038093C7039093C803CECFF4
:1030E000CF911F910F91FF90EF90DF90CF900895B7
:1030F0009F92AF92BF92CF92DF92EF92FF920F9387
:103100001F93CF93DF93CDB7DEB72D970FB6F8940B
:10311000DEBF0FBECDBF61E086E10E94DA0760E04E
:1031200086E10E94AC0761E080E00E94DA0760E07F
:1031300080E00E94AC0762E08DE00E94DA078DE03B
:103140000E9483078C0161E08DE00E94DA0761E054
:103150008DE00E94AC0762E081E00E94DA0761E046
:1031600081E00E94DA0761E081E00E94AC0761E043
:1031700082E00E94DA0760E083E00E94DA0762E002
:103180008EE00E94DA0761E08EE00E94DA0761E0DB
:103190008EE00E94AC0711B88FEF82B962E085E142
:1031A0000E94DA0762E084E10E94DA0762E083E1CC
:1031B0000E94DA0762E082E10E94DA0780E190E093
:1031C0000E94C01780935A03833038F060E080E19A
:1031D00090E00E94AC1710925A038FE090E00E949A
:1031E000C017C12C72ECD72EEE24E394F12C893059
:1031F00050F4E82FF0E0EE0FFF1FE65CFE4FC080BA
:10320000D180F12CE12CE0912604F091270482E09A
:103210008083C11421EED206E104F104A1F060E044
:1032200079E08DE390E0A70196010E942F312150B3
:10323000310941095109569547953795279521152B
:1032400080E13807A8F0E0912604F091270410826D
:1032500060E874E88EE190E0A70196010E942F31AA
:1032600021503109410951095695479537952795C0
:1032700086E1E82E84E0F82EE0912204F091230408
:103280003083E0912404F0912504208310922E04D1
:10329000E0912A04F0912B0486E08083E0912804D9
:1032A000F0912904808188698083E0912804F0915D
:1032B000290480818F7D80831F9280E18F9380EB32
:1032C00098E09F938F93FF92EF920E94F81481E809
:1032D00098E00E944E140E944A1481E08F931F923E
:1032E0008FE498E09F938F93FF92EF920E94F814DF
:1032F00061E08CE00E94DA0761E08CE00E94AC079C
:1033000061E08BE00E94DA0760E08BE00E94AC078E
:1033100061E08FE00E94DA0760E086E10E94AC077E
:1033200086E00E94331261E086E10E94AC0782E0F1
:103330000E943312F0905A030FB6F894DEBF0FBE0E
:10334000CDBFF11014C262E08AE00E94DA0761E0AA
:1033500082E00E94AC0761E087E10E94DA0760E04A
:1033600087E10E94AC0764E670E080E090E00E9494
:103370003B0861E087E10E94AC0764EF71E080E008
:1033800090E00E943B088DE090E00E94C0178230E0
:1033900028F061E08DE090E00E94AC178DE090E0B5
:1033A0000E94C017809300038EE090E00E94C01737
:1033B00080936003863038F060E08EE090E00E94F9
:1033C000AC17109260031092940310929303109222
:1033D000A2031092C4031092A003FF24F394F0926E
:1033E0009F031092980361E081E10E94AC0761E0C5
:1033F00080E10E94AC078091B9008E7F8093B90074
:103400008091B9008D7F8093B90088E48093B800E3
:1034100085E48093BC008BED99E090932203809328
:1034200021038CED99E090932603809325038CE093
:103430008093B80080E20E94F2060E94EF0681119C
:103440000FC0F092610380E20E94F2068CE090E0EF
:103450000E94500A85E090E00E94500A0E94EF0608
:1034600088E40E94F2060E94EF06811190C045E5B3
:1034700067E00E94201567E080E00E946E158535A8
:1034800009F085C04AEA67E080E00E94201567E005
:1034900080E00E946E158A3A09F079C045E567E040
:1034A00081E00E94201567E081E00E946E1585355D
:1034B00009F06DC04AEA67E081E00E94201567E0EC
:1034C00081E00E946E158A3A09F061C081E0809324
:1034D00054036EE080E00E946E15482F48606EE055
:1034E00080E00E94201562E080E00E946E15482F67
:1034F000416062E080E00E94201562E081E00E946D
:103500006E15482F416062E081E00E94201560E066
:1035100080E00E94F11561E080E00E94F11560E01A
:1035200081E00E94F11561E081E00E94F11540EB1D
:1035300054E060E070E080E00E94521640EB54E0FE
:1035400060E070E081E00E94521680E00E94C715A2
:1035500081E00E94C71562E080E00E946E15482F4E
:10356000426062E080E00E94201562E081E00E94FB
:103570006E15482F426062E081E00E94201560E0F5
:1035800080E00E946E1560E081E00E946E158FE081
:1035900090E00E94C0178A3028F069E08FE090E048
:1035A0000E94AC1780910003882309F4F9C084E0DD
:1035B0001F928F9380E398E09F938F93B6E1EB2E59
:1035C000B4E0FB2EFF92EF920E94F81420915A0370
:1035D00080E890E002C0880F991F2A95E2F79F9338
:1035E0008F938DE198E09F938F93FF92EF920E94CB
:1035F000F81480915A030FB6F894DEBF0FBECDBF0A
:10360000813009F0CFC081E098E00E9456090E9405
:103610004A1488E60E94F2060E94EF06811155C105
:1036200085E993E00E94560981E00E9417140E94E8
:10363000921480916F03282F082E000C330B3F93B8
:103640008F9389E693E09F938F9386E194E09F9315
:103650008F930E94F81488E60E94F2068FE090E0B3
:103660000E94500A0E94EF0661E070E088E690E058
:103670000E94D5120E940F070F900F900F900F908D
:103680000F900F9087FFFDC028E030E046E050E04B
:1036900065E875E0CE0101960E944517CE010196BE
:1036A0000E94F31660939703CE0101960E94FE16C6
:1036B00025E030E043E050E065E875E0CE0101969A
:1036C0000E944517CE0101960E94F316609396035F
:1036D000CE0101960E94FE1622E030E050E040E06C
:1036E00065E875E0CE0101960E944517CE0101966E
:1036F0000E94F31660939503CE0101960E94FE1678
:1037000026E030E044E050E06FE775E0CE0101963E
:103710000E944517CE0101960E94F3166093720332
:10372000CE0101960E94FE1690E080E00E943107D3
:10373000EFEBE80FE33108F04CC00E2E000CFF0B4E
:10374000EC55F44E0C945131491CE91BE91B631CE8
:10375000E91B471CE91BE91BE91BD81BE91BE91BFB
:10376000531C611C5F1CE91BE91BE91B5D1C61E02C
:103770008AE00E94DA0760E08AE00E94AC0731E04C
:103780003F1508F0E4CD60E082E00E94AC0761E004
:1037900087E10E94DA0760E087E10E94AC07F3CD81
:1037A00088E006CF823009F032CF8BEC97E02DCF46
:1037B00081E090E00E943107813609F464C082E024
:1037C00090E00E9431078E3609F05FC086E080935A
:1037D00071032BE030E049E050E06FE775E0CE0187
:1037E00001960E944517CE0101960E94F316609340
:1037F0007003CE0101960E94FE1681E593E00E94BF
:103800004E1486E293E00E94560980E00E9417144D
:103810008BE193E00E9456090E94C21786E194E072
:103820000E94B5088093FE02893731F0893521F076
:103830008E3611F08E3481F70E9472148091FE0250
:103840008F7D893589F44091700360917103809177
:1038500072030E94550A86EF92E00E94560981E0A9
:103860000E9417140E944A1488E60E94F2068FE014
:1038700090E00E94500A88E090E00E94500A0E9466
:10388000EF0681E023C081E0A2CF87E0A0CF82E0F5
:103890009ECF82E090E00E943107823711F484E0ED
:1038A00096CF88E094CF82E090E00E943107823783
:1038B00011F483E08CCF85E08ACF89E088CF8AE05D
:1038C00086CF8BE084CF8CE082CF80E08093510361
:1038D00080916103882321F085EB97E00E944E14CC
:1038E00080915403882321F087E997E00E944E14C9
:1038F0008CE090E00E94C017823028F060E08CE0FD
:1039000090E00E94AC178CE090E00E94C01780937A
:1039100050038823C1F183E692E09F938F938CE755
:1039200097E09F938F9386E194E09F938F930E94FB
:10393000F8148BE0E3E2F1E0DE01119601900D92C4
:103940008A95E1F70E946A0C0E946A0C8AE090E076
:103950000E94C0178093FF020F900F900F900F905E
:103960000F900F90012B19F0853008F481C186E18A
:1039700094E00E94D6081816190644F486E194E0F3
:103980000E94B508F4CF86E692E0C7CF8BE497E0BB
:103990009F938F9306E114E01F930F930E94F814F6
:1039A000E091FF020F900F900F900F90E53008F01C
:1039B000EFC1EC0FFD2FF11D8281282F082E000C86
:1039C000330B3F938F931F9288E58F9387E297E0A5
:1039D0009F938F931F930F930E94F8140FB6F89440
:1039E000DEBF0FBECDBF1F9282E48F9389E197E0C7
:1039F0009F938F9306E114E01F930F930E94F81496
:103A00001F9286E48F938BE097E09F938F931F9391
:103A10000F930E94F8141F9284E48F9388EF96E02E
:103A20009F938F931F930F930E94F81480916003CC
:103A30000E94D3131F9281E48F9385EE96E09F93AB
:103A40008F931F930F930E94F8141F928CE48F930F
:103A500086ED96E09F938F931F930F930E94F81427
:103A60000FB6F894DEBF0FBECDBF80910003882350
:103A700009F4A1C188E01F928F931F9283E48F9372
:103A80008BEA96E09F938F9386E194E09F938F93C8
:103A90000E94F8140FB6F894DEBF0FBECDBF809120
:103AA0005003882309F489C186E692E09F938F939F
:103AB0001F9285E48F9386E896E09F938F9386E12B
:103AC00094E09F938F930E94F8148FE090E00E94FF
:103AD000C0170FB6F894DEBF0FBECDBF893008F017
:103AE0006FC1E82FF0E0EE0FFF1FE65CFE4F808114
:103AF0009181B0E0A0E0BF93AF939F938F931F920B
:103B000083E58F9382E696E09F938F9306E114E01E
:103B10001F930F930E94F8140FB6F894DEBF0FBEE8
:103B2000CDBF80915103882309F44FC11F9284E5D2
:103B30008F9388E496E09F938F931F930F930E9437
:103B4000F8140F900F900F900F900F900F9080E14E
:103B500090E00E94C01720E830E002C0220F331F1F
:103B60008A95E2F73F932F931F9282E58F938BE222
:103B700096E09F938F9306E114E01F930F930E94AA
:103B8000F81484E196E09F938F931F930F930E9404
:103B9000F8140FB6F894DEBF0FBECDBF0E94C21757
:103BA00086E194E00E94B5080E947C33182F809330
:103BB000FE028F3309F01CC180916E038F5F8093EA
:103BC0006E03BE016F5F7F4F812F0E94C812882352
:103BD00029F3812F0E94721480916E03882391F043
:103BE0001F928F938EEF95E09F938F9386E194E0E1
:103BF0009F938F930E94F8140F900F900F900F9047
:103C00000F900F908091FE02853409F4ADC10CF045
:103C1000F5C0833409F49CC1843409F43CC1BE016D
:103C20006F5F7F4F8091FE020E94C8128250809386
:103C3000FF0290916E03992391F01F928F9386E774
:103C400095E09F938F9386E194E09F938F930E94DA
:103C5000F8140F900F900F900F900F900F906091AD
:103C6000FF028AE090E0653008F0E0C30E94AC17E4
:103C70008091FF02823051F488E695E00E94560957
:103C8000809160030E94D3130E944A148091FF0226
:103C9000823009F4FEC308F0CEC3882309F4E2C3DE
:103CA000813009F4EDC361E080E00E94AC0700912F
:103CB000F9021091FA020115110519F1F0906E0345
:103CC00090E080E00E94451283EC0E947912802FE0
:103CD0000E947912812F0E947912FF2091F01F9388
:103CE0000F938AE495E09F938F9386E194E09F93EE
:103CF0008F930E94F8140F900F900F900F900F90D9
:103D00000F908091F9029091FA020E9445128091E1
:103D10006E038823F1F08CE295E00E9456096091D1
:103D2000F5027091F60290E080E04AE00E9488136C
:103D30000E944A1486E195E00E9456096091F902BA
:103D40007091FA0290E080E040E10E9488130E94A6
:103D50004A148091FF02843008F0B1C40E946A0CBA
:103D6000882309F4E0C30E946A0C8093F40288233C
:103D700009F4D9C36091F402662329F050E040E0D1
:103D800080E00E94A0140E945A140E946A0CEBCF9B
:103D9000BE016F5F7F4F88E50E94C812182F8823ED
:103DA00009F421CE88E590E00E947433FE01E10F12
:103DB000F11D808318CE84E05ECE83E692E076CE5D
:103DC00080E092ECA1E0B0E096CEBE016F5F7F4F45
:103DD00084E50E94C812182F882309F4B8CE84E520
:103DE00090E00E947433FE01E10FF11D8083AFCE9D
:103DF000803209F0E6CE10926E03E3CE833509F4EB
:103E0000BDC0843509F443C1823509F008CF88E785
:103E100094E00E944E1480915A0381508093FD02D9
:103E200083E0C82ED12C90E8A92EB12C0CE815E027
:103E300026E1E22E24E0F22E8091FD028F5F90E0D9
:103E4000B6010E941B31982E8093FD0287E995E010
:103E50000E945609C50102C0880F991F9A94E2F783
:103E60009F938F931F930F93FF92EF920E94F814EA
:103E70000F900F900F900F900F900F9086E194E0AD
:103E80000E94D608181619060CF0A8C286E194E024
:103E90000E94B508F3CF88E794E00E944E14809109
:103EA000600381508093FD0206E08091FD028F5FE8
:103EB000602F0E940F31192F9093FD0289EF95E03A
:103EC0000E945609812F0E94D31386EE95E00E942E
:103ED000560986E194E00E94D608181619062CF4BB
:103EE00086E194E00E94B508F4CF86E194E00E9458
:103EF000D608181619061CF00E94C217F6CF86E1E4
:103F000094E00E94B5088093FE028D3011F08B3151
:103F100061F682EE95E09F938F9386E194E09F9304
:103F20008F930E94F8140F900F900F900F90809134
:103F3000FE028D3009F073CE6091FD026093600344
:103F40008EE090E00E94AC1784E48093FE0267CE7E
:103F500061E080910003811160E0609300038DE0D7
:103F600090E00E94AC175BCE61E08091500381111C
:103F700060E0609350038CE090E0F3CF88E794E03A
:103F80000E944E148FE090E00E94C01781508093F1
:103F9000FD026AE0D62E06ED15E076E1E72E74E02C
:103FA000F72E8091FD028F5F6D2D0E940F3190934F
:103FB000FD02993029F1E92FF0E0EE0FFF1FE65CDA
:103FC000FE4F80819181B0E0A0E0BF93AF939F93BB
:103FD0008F931F930F93FF92EF920E94F8140FB6E6
:103FE000F894DEBF0FBECDBF86E194E00E94D608F4
:103FF0001816190654F486E194E00E94B508F4CF2F
:1040000080E092ECA1E0B0E0E0CF86E194E00E9495
:10401000D608181619061CF00E94C217F6CF86E1C2
:1040200094E00E94B5088093FE028D3019F08B3128
:1040300009F0B7CF82ED95E09F938F9306E114E0EE
:104040001F930F930E94F8140F900F900F900F90F2
:104050008091FE028D3009F0E2CD8FE090E00E9469
:10406000C0176091FD02861709F4D9CD8FE090E06A
:104070000E94AC178CE995E09F938F931F930F9349
:104080000E94F8140F900F900F900F90C8CD0E94CF
:104090001C1310925C038EE594E00E944E148FE294
:1040A00094E00E944E143AE0F32E46EFE42EDD2415
:1040B000D3948DE294E00E94560980915C03823093
:1040C00009F440C018F5882369F18130A1F10E94FC
:1040D000C21786E194E00E94B508082F8093FE0283
:1040E000853709F44DC0853509F44AC0843709F491
:1040F0001CC3843509F419C38D3049F710915C0352
:104100006DE086E194E00E9409095EC0843089F187
:1041100048F18530E1F681EE93E00E9456098091E6
:10412000970306C084E294E00E94560980917003D0
:104130000E940714CCCF8AE194E00E945609809136
:104140007103F6CF8CE094E00E9456096DE086E1A1
:1041500094E00E94090983E094E00E94560980914E
:104160007203E6CF89EF93E00E9456098091950390
:10417000DFCF8DEE93E00E94560980919603D8CF51
:1041800010915C03123009F461C0D0F5112309F4D9
:1041900047C0113009F44FC0802F8F7D843509F05E
:1041A000A8C0123009F4C1C008F08BC0112309F473
:1041B00099C0113009F4ADC06DE086E194E00E9431
:1041C00009090D3009F075CF1F5F10935C0316309D
:1041D00008F46FCF40917003609171038091720376
:1041E0000E94550A81ED93E00E944E1484EB93E007
:1041F0000E94560981E00E9417140E9492140FCD6C
:10420000143009F450C008F443C0153029F68091E9
:1042100097038F5F8C3308F051C080939703BCCF16
:10422000809170038F5F843618F480937003B4CF4D
:1042300010927003B1CF809171038F5F8D3018F4AD
:1042400080937103A9CF10937103A6CF809172035D
:104250008F5F80937203E0917103E23089F490E004
:1042600020917003237049F42DE130E028173907BD
:104270000CF092CFD09272038FCF2CE130E0F6CFCA
:10428000F0E0E35DFE4F9081981708F085CFF2CF04
:10429000809195038F5F883118F4809395037CCFCC
:1042A0001092950379CF809196038F5F8C3318F429
:1042B0008093960371CF109296036ECF109297035E
:1042C0006BCF143009F46EC008F45AC0153009F0F1
:1042D00073CF20919703265F2C3308F075C020938D
:1042E000970307C020917003265F243640F4209383
:1042F00070036DE086E194E00E940909DACE822F16
:104300006F2D0E940F318E9D200D1124209370037C
:1043100053CF809171038B3020F08A5080937103CA
:104320004BCF833030F7865FF9CF20917203265F41
:1043300020937203422F50E0E0917103F0E0E35DBF
:10434000FE4F808190E030917003337061E070E047
:1043500011F070E060E0860F971F841795074CF40A
:10436000822F6F2D0E940F318E9D200D11242093DE
:104370007203809172038111BCCFD09272031CCF63
:1043800020919503265F283118F420939503B1CF2F
:10439000822F6F2D0E940F318E9D200D11242093AE
:1043A00095030ACF20919603265F2C3318F42093AF
:1043B00096039FCF822F6F2D0E940F318E9D200D6F
:1043C000112420939603F8CE822F6F2D0E940F3177
:1043D0008E9D200D112420939703EECE86E194E06C
:1043E0000E94D608181619061CF00E94C217F6CFB4
:1043F00086E194E00E94B5088093FE028D3019F0AA
:104400008B3109F019CD0E944A140E944A14809100
:10441000FE028D3009F003CC6091FD0260935A03D7
:1044200080E190E00E94AC1788E58FCD0E94C01714
:104430008093FF021DCC833009F472C0843009F0F0
:1044400032CCE6E6F5E0859194919093F802809362
:10445000F7028AE692E09093F6028093F50280E1FB
:104460009DEF48C08AE692E09093FC028093FB02A5
:104470001092FA021092F90281E08093590313CC52
:1044800086E792E09093FC028093FB0280E091E04B
:1044900031C080916003823091F170F4882311F172
:1044A000813009F000CC8CE892E09093FC0280937C
:1044B000FB0280E890E01EC0843079F118F185306D
:1044C00009F0F1CB86EB92E09093FC028093FB0223
:1044D0001092FA021092F90281E0809359038093BE
:1044E0005803E1CB82E892E09093FC028093FB02B8
:1044F00080EE91ED9093FA028093F902D4CB87E994
:1045000092E0C0CF82EA92E09093FC028093FB029B
:104510001092FA021092F902C6CB8EEA92E0F4CF22
:1045200080EC92E0F1CF0091FB021091FC0267E970
:1045300072E0C8010E948D33892B31F0C8010E94BE
:10454000B7108093F40210C08DEC92E00E94B71077
:104550008111F4CF8DEC92E09093FC028093FB02EA
:1045600060E08DE00E94AC078091F4028823E9F0BE
:104570006091F402662339F04091FB025091FC02F5
:1045800081E00E94A0140E945A140091FB02109135
:10459000FC02C8010E94B7108093F402833021F31B
:1045A0000E946A0C0E946A0CC9CF8AEF94E00E94B4
:1045B00056098091FB029091FC020E94CC1385EF7A
:1045C00094E00E945609CE010C960E94B80E082F66
:1045D0008C8580934F030093F4021092FD0210919A
:1045E000FD0280914F03181758F4E12FF0E0E753D4
:1045F000FC4F80810E9479121F5F1093FD02EFCF64
:10460000803291F40023F9F24091FB025091FC02B8
:10461000602F82E00E94A0140E945A1460E070E0B3
:10462000CB010E94880F02C00111EECF8091F402ED
:104630008111C9CF82ED94E00E944E1460E086E1C2
:104640000E94AC078091B6008F7D8093B600809168
:10465000B10081608093B1008091B100897F809327
:10466000B1008091B00082608093B0008091B00072
:104670008E7F8093B0008091B00080648093B00002
:104680008091B0008F778093B00080910003809379
:10469000B30061E08FE00E94DA0785EB94E00E94AE
:1046A0004E140E944A1486E194E00E94D60818161F
:1046B0001906FCF486E194E00E94B508F4CF88ED79
:1046C00094E00E94560910E000E08091F50290917C
:1046D000F6020817190708F0ADCFE091F702F09144
:1046E000F802E00FF11F84910E9479120F5F1F4FB3
:1046F000ECCF61E070E080E090E00E943B0861E078
:1047000086E10E94AC072D960FB6F894DEBF0FBE6F
:10471000CDBFDF91CF911F910F91FF90EF90DF9070
:10472000CF90BF90AF909F90089510915C0339CDCA
:104730001F920F920FB60F9211242F933F938F93D6
:104740009F93AF93BF938091660390916703A0916D
:104750006803B09169033091650323E0230F2D377F
:1047600068F126E8230F0296A11DB11D2093650371
:104770008093660390936703A0936803B0936903E3
:1047800080916A0390916B03A0916C03B0916D03CB
:104790000196A11DB11D80936A0390936B03A093B2
:1047A0006C03B0936D03BF91AF919F918F913F9137
:1047B0002F910F900FBE0F901F9018950196A11D7D
:1047C000B11DD4CF1F920F920FB60F9211240BB6CA
:1047D0000F922F933F934F935F936F937F938F939A
:1047E0009F93AF93BF93EF93FF9386E194E00E9472
:1047F000E708FF91EF91BF91AF919F918F917F91CA
:104800006F915F914F913F912F910F900BBE0F9041
:104810000FBE0F901F9018951F920F920FB60F9218
:1048200011240BB60F922F938F939F93EF93FF93C7
:10483000E0912604F09127048081E0912C04F0910E
:104840002D0482FD1CC0908180912F048F5F2091E8
:104850003004821741F0E0912F04F0E0EA5EFB4F54
:10486000958F80932F04FF91EF919F918F912F91BE
:104870000F900BBE0F900FBE0F901F901895808168
:10488000F2CF1F920F920FB60F9211240BB60F9218
:104890002F933F934F935F936F937F938F939F9348
:1048A000AF93BF93EF93FF938091B900887F8036D9
:1048B00009F44DC008F040C0883209F4A9C028F5B9
:1048C000803109F49DC0C8F4882309F407C18830F9
:1048D00009F496C0FF91EF91BF91AF919F918F9195
:1048E0007F916F915F914F913F912F910F900BBEF0
:1048F0000F900FBE0F901F901895883109F488C053
:10490000803241F780939E0314C0803409F4A5C01F
:1049100040F48033B9F38833E9F680939E0385EC45
:10492000BCC0803509F489C0883509F49EC088343C
:1049300089F60E94AA09CECF883909F494C038F5C7
:10494000883729F050F4883611F0803719F683E063
:104950008093A0031092470357C0883809F483C09E
:10496000803919F0803809F0B5CF80914703803243
:1049700008F079C0E091470381E08E0F80934703F0
:104980008091BB00F0E0E95DFC4F80833DC0803B3F
:1049900039F0E0F4803A09F485C0883A09F09ACFFA
:1049A00084E08093A0031092240310922303E091EB
:1049B0002103F091220309958091230381110FC0F7
:1049C00081E0809323031092010309C0803C09F425
:1049D000A6CF883C09F4A3CF883B09F07BCFE091B8
:1049E000240381E08E0F80932403F0E0EF5FFC4FFF
:1049F00080818093BB00909124038091230331C078
:104A0000809199038093BB0085EC8093BC0062CFBA
:104A100090919B0380919A039817B8F580919C031D
:104A200090919D03E0919B0321E02E0F20939B0327
:104A3000E80FF92FF11D8081E5CF20919C03309183
:104A40009D03E0919B0381E08E0F80939B038091F7
:104A5000BB00E20FF32FF11D808390919B038091A7
:104A60009A03981788F285E8D0CF20919C03309163
:104A70009D03E0919B0381E08E0F80939B038091C7
:104A8000BB00E20FF32FF11D808380919F03811102
:104A900050CF81E08093980384EA8093BC00109209
:104AA000A00318CF85EC8093BC001092A0038091E6
:104AB0004703803230F4E0914703F0E0E95DFC4FBA
:104AC00010826091470370E0E0912503F091260386
:104AD00087E293E0099510924703FCCE10929E0363
:104AE00028CFEF92FF920F931F93CF93DF930097FE
:104AF000C9F0EA018C012097B1F1E0904803F090F1
:104B00004903E114F10479F1F80181918F010E94C8
:104B10002E0BF1E0EF1AF108F0924903E0924803FE
:104B20002197E9CF411551056105710529F1809162
:104B3000E90383FD07C089E0440F551F661F771FF7
:104B40008A95D1F788E50E94740B81111DC08FEF03
:104B50000E942E0B8EEF0E942E0B80E092E090932D
:104B600049038093480390E080E0DF91CF911F914B
:104B70000F91FF90EF900895DF91CF911F910F91CA
:104B8000FF90EF900C94380B81E090E0EECF0F9304
:104B90001F93CF93DF93C82F162FD42F80916E03CE
:104BA0008330E0F01F924F931F926F938C2F90E011
:104BB0008F5B9F4F9F938F9380EF99E09F938F938D
:104BC00086E194E09F938F930E94F8148DB79EB76F
:104BD0000A960FB6F8949EBF0FBE8DBF63E08C2F70
:104BE0000E946E15082F4FEB63E08C2F0E9420155A
:104BF00062E08C2F0E946E15482F4F731111406494
:104C0000D111406862E08C2F0E942015402F63E094
:104C10008C2FDF91CF911F910F910C942015E6E11D
:104C2000F4E01382128288EE93E0A0E0B0E0848387
:104C30009583A683B78324E232E03183208325EC79
:104C400030E03587248724EC30E03787268720EC56
:104C500030E0318B208B21EC30E0338B228B22EC47
:104C600030E0358B248B26EC30E0378B268B118E91
:104C7000128E138E148EE3E7F5E013821282848382
:104C80009583A683B78386E392E091838083E5E8EA
:104C9000F5E011821082138212821582148248E09C
:104CA00050E069ED72E0CF010E940617EFE7F5E0F2
:104CB0001182108213821282158214824BE050E01E
:104CC00062EE72E0CF010C940617CF93DF9300D011
:104CD000CDB7DEB7789484B5836084BD85B5836035
:104CE00085BD80916E00816080936E0082E080932C
:104CF000810080918100816080938100809180009B
:104D00008160809380008091B10084608093B100C5
:104D10008091B00081608093B000809191008360A9
:104D2000809391008091900081608093900087E84B
:104D300080937A001092C1000E94781883E00E944C
:104D40008307892B29F583E10E948307892B09F0CA
:104D5000AFC482E10E948307F0B0F092640388231D
:104D600009F471C0F0921C01109263031092620367
:104D700060E08EE00E94AC0760E080E00E94AC073B
:104D800061E080E00E94AC0761E08EE00E94AC0729
:104D900080911C018F3F09F053C0809159038823F3
:104DA000E1F080914E038823C1F080910B018823AC
:104DB000A1F086E194E00E94D608181619066CF45A
:104DC00060E081E00E94AC07809153038160809392
:104DD000530310920B0110924E03809158038823C5
:104DE00079F10E94160800914A0310914B0320911B
:104DF0004C0330914D036B017C01C01AD10AE20AC9
:104E0000F30A20910F0130E0A8EEB3E00E940031D8
:104E10006C157D058E059F0598F460E081E00E9489
:104E2000AC07809153038260809353030E9416085D
:104E300060934A0370934B0380934C0390934D030C
:104E40000E9495097BCF80911C018C3009F47AC1B6
:104E500008F051C0863009F40BC118F5833009F40D
:104E6000E8C078F4882309F4D7C0813009F4DBC0A6
:104E700080911C018A3009F47BCF8C3009F478CF03
:104E8000CFC2843009F4E9C0853091F78091610385
:104E9000882309F4C5C280E20E94F20690E080E017
:104EA000D2C0893009F4FAC080F4873009F4EBC02D
:104EB0008830F1F680916103882309F4B1C280E261
:104EC0000E94F2068DE090E0BEC08A3009F407C16E
:104ED0008B3071F6F0925D0380915E0390915F03D9
:104EE0008115924008F028C1FFE1FF1508F428C1A0
:104EF00010921001BDCF823109F4A0C208F078C031
:104F00008F3009F491C280F48D3009F467C28E307D
:104F100009F0AECF8F2D817080935903F1FADD2413
:104F2000D0F8D0925803A4CF803109F482C28131E5
:104F300009F09ECF80916103882309F471C281E05A
:104F40008093560311E0F11010E01093550380E2B6
:104F50000E94F20682E190E00E94500A110F012F98
:104F60000560802F90E00E94500A0E94EF0680E2C8
:104F70000E94F20690E080E00E94500A88EF90E0E4
:104F80000E94500A0E94EF0680E20E94F20681E031
:104F900090E00E94500A90E080E00E94500A0E9437
:104FA000EF0680E20E94F2068CE090E00E94500A38
:104FB0008FEF90E00E94500A0E94EF0680E20E946C
:104FC000F20682E190E00E94500A612F616083E75F
:104FD00095E00E94210A0E94EF0600935C0380E2A4
:104FE0000E94F20682E190E00E94500A602F2EC0DB
:104FF000823248F4803208F051C2833109F038CF50
:10500000F0920E0135CF843208F47BC28E3F09F056
:105010002FCFF0926E032CCF60E0F0FE61E08DE0C8
:105020000E94AC0725CF6F2D86E194E00E9409090C
:105030001FCF80916103882309F4F2C180E20E94AE
:10504000F20682E190E00E94500A6F2D83E795E01E
:105050000E94210A0E94EF060BCF809161038823F2
:1050600009F4DEC180E20E94F20683E190E0EBCF1A
:1050700080916103882309F4D3C180E20E94F20683
:1050800081E090E0E0CF80916103882309F4C8C1FA
:1050900080E20E94F2068CE090E0D5CF23E680E12A
:1050A0002F15D0F080916003805D809313018F2DC8
:1050B0006AE00E940F3190E3980F9093150160E32E
:1050C000D62EDF0C36EF839FD00C1124D092160120
:1050D00081E191E00E94B71080931001C9CE8091C8
:1050E0006203909163036F2D70E0009751F4709309
:1050F0005F0360935E030196909363038093620362
:10510000B7CE20915E033F2D30935F0320935E0363
:1051100040915D032115324040F4403248F4109232
:1051200010012FEF20931C01E6CF21E1403208F05F
:1051300022E120931001F5CF2FE181E12F1560F6D8
:1051400082E1CACFC0906203D0906303C114D1043E
:1051500019F560915E0370915F03611532E073078A
:10516000D8F480915D038032B8F4909110019111D0
:1051700013C045E0660F771F4A95E1F7682B90E072
:1051800080E059E0660F771F881F991F5A95D1F765
:105190000E94880F8093100180911001811181C0BD
:1051A0008C2D8F7180935C03E82FF0E0E753FC4F68
:1051B000F0828F3109F075C000911404109115042C
:1051C000A12C85E00115110509F458C0F801818171
:1051D00080FFD9C086FD0AC086899789A08DB18DD0
:1051E00088279E7F868B978BA08FB18FF801828D49
:1051F000938DA48DB58D46895789608D718D841BE3
:10520000950BA60BB70B80329105A105B10520F0D7
:1052100080E290E0A0E0B0E07C01B12CA12C39EC60
:10522000232E33E0332EE114F10409F4AFC0F8016A
:1052300086899789A08DB18D9C013170232B09F04F
:1052400067C092809A94AC01BD0129E0769567957C
:10525000579547952A95D1F79422B1F5892B8A2B3A
:105260008B2B39F5668D778D80A191A1F801623085
:1052700071058105910520F5118281E0A0925B0303
:1052800080931001FFE1FA1508F482C083E1809356
:1052900010012FEFC21621E0D20618F08FEF809395
:1052A0001C01FFEFCF1ADF0AD0926303C0926203A2
:1052B000DFCD62A173A184A195A10E94480ED6CF33
:1052C00062A373A384A395A3F80162A173A184A12F
:1052D00095A10E94BC0A611571058105910511F423
:1052E000F801CACFAB01BC01490D511D611D711DF3
:1052F000F80146A357A360A771A790E080E00E9441
:105300007125F801892B09F0B7CF818180648183F1
:10531000F80186899789917020E032E0281B390BCB
:1053200047012E153F0508F449012401712C612C19
:10533000B301A401C1010E947125F801892B09F074
:105340009BCF86899789A08DB18D840D951DA61D53
:10535000B71D868B978BA08FB18F280C391CE8184E
:10536000F908A80CB91C2C01F1E05F22452809F0CE
:105370005ACF0E94380BF801892B09F07DCF81812B
:105380008F7B818350CFA12C84E078CF80E076CFD3
:105390003FEFC31631E0D30608F483CF81117ECFEF
:1053A00085E00115110569F0F801818180FF14C0C5
:1053B00086FF0CC00E94380B892B41F0F801118246
:1053C00081E010925B038093100168CFF801818126
:1053D0008F7B818380E0F5CF84E0F3CF2EE02F1523
:1053E000F8F011E01F0DF11001C010E0612F609581
:1053F00061708CE00E94AC07612F62708BE00E94AC
:10540000AC0700915A03002359F0612F64708AE0C1
:105410000E94AC07612F687087E1023008F000CE6F
:105420008FEF80931C01A4CCFF20D1F3F0920F01E9
:105430001FCD8F2D8170809357031ACD8091560315
:10544000882371F380E20E94F20683E190E00E94DB
:10545000500A6F2D83E795E00E94210A0E94EF0613
:1054600010915503110F80E20E94F20682E190E054
:105470000E94500A612F6C6F83E795E00E94210A19
:105480000E94EF061D6F10935C0380E20E94F206FB
:1054900082E190E00E94500A612FD8CD9091540390
:1054A000992309F4E5CC11E0803209F410E08091F1
:1054B0006E038330F0F080EE8F0D8F3500F58F2D69
:1054C0001F928F931F92FF92812F90E08F5B9F4FCF
:1054D0009F938F9389E79AE09F938F9386E194E05F
:1054E0009F938F930E94F8140FB6F894DEBF0FBEFF
:1054F000CDBF4F2D60E0812F0E942015B9CC8EE2E8
:10550000DFCF90915403992309F4B2CCBB24B39418
:10551000823209F4B12C0F2D10E076E01595079535
:105520007A95E1F75F2D5F71D52E90916E039230E1
:1055300000F1823209F081C08BEB9BE09F938F9347
:1055400066E1E62E64E0F62EFF92EF920E94F814D8
:10555000809164031F928F9383EC9BE09F938F93C2
:10556000FF92EF920E94F8140FB6F894DEBF0FBEC0
:10557000CDBF8B2D90E0FC01E45FFE4F7F01808169
:105580008F71D81651F1E0916403EF7124E0E29F2E
:10559000F0011124E453FE4F9080A180C280D3809B
:1055A00080916E03823098F0DF92CF92AF929F92FB
:1055B00040EA5BE05F934F9386E194E09F938F9383
:1055C0000E94F8140FB6F894DEBF0FBECDBF492D70
:1055D0005A2DB6018B2D0E945216F701808190E062
:1055E00056E0959587955A95E1F70817190701F147
:1055F00080916E03823008F4C3C21F930F932EE88C
:105600003BE03F932F9346E1C42E44E0D42EDF923B
:10561000CF920E94F8140F900F900F900F900F9060
:105620000F900130110511F10CF0B3C2012B41F0C4
:1056300080916403F70180831BCC83EB9BE07ECFDA
:1056400080916E03823060F084E89BE09F938F939B
:10565000DF92CF920E94F8140F900F900F900F904E
:1056600040E060E08B2D0E94C725E2CF80916E0361
:105670008230B0F32EE63BE03F932F9386E194E037
:105680009F938F93E7CF80916E03823070F08FE508
:105690009BE09F938F9386E194E09F938F930E946A
:1056A000F8140F900F900F900F9041E061E0DACF67
:1056B00084E10E948307892B09F047C282E10E949E
:1056C000830710926403882309F446C080916E0317
:1056D000823070F00E944A1486E49BE00E945609D2
:1056E00086E39BE00E945609809153030E94811437
:1056F0008FEF8093640386E194E00E94D608181629
:10570000190634F586E194E00E94B508809364039D
:105710001092520361E081E00E94AC078091530334
:105720008E7F8093530381E080930B011FEF11B9AB
:105730008091640382B960E08EE00E94AC0760E073
:1057400080E00E94AC070E94460711B812B918CB3E
:1057500081E080935203DECF80911C01883809F4E8
:105760006FC110F5833809F4ABC088F4813809F4AF
:1057700080C008F09AC0803809F45FC080911C0195
:105780008D7F843899F28FEF80931C01CFCF8538BD
:1057900009F4FDC008F4BEC0863809F4FBC08738A0
:1057A00069F70E946A0C7EC0843AF0F5823A08F0EC
:1057B00086C18A3809F463C108F447C1803AF0F21F
:1057C00090915403992309F478C111E0803A09F4C7
:1057D00010E060E0812F0E946E15082F80916E030B
:1057E0008330F8F080EE800F8F3508F064C1802F91
:1057F0001F928F931F920F93812F90E08F5B9F4F8B
:105800009F938F93E9E9FAE0FF93EF9386E194E0A9
:105810009F938F930E94F8140FB6F894DEBF0FBECB
:10582000CDBF00936403AACF863A08F46FC18E3FC0
:1058300009F0A4CF80916E0335C08DE00E948307EC
:10584000182F80935C0362E08DE00E94DA078DE000
:105850000E94830721E0892B09F020E02093640354
:1058600061E08DE00E94DA07612F8DE00E94AC07B5
:1058700085CF80916103882309F485CF80E20E945F
:10588000F20682E190E00E94500A0E94EF0680E258
:105890000E94F20661E070E080E290E00E94D51282
:1058A0000E940F078093640369CF8091610388236E
:1058B00009F469CF80E20E94F20683E190E0E3CF31
:1058C0000091510310E0000F111FF090500386E18A
:1058D00094E00E94D60834E0181619060CF030E067
:1058E0008091520328E0811101C020E0809157038C
:1058F000F0E18F9FC0011124082BF02A00915A0378
:1059000040E4049F80011124F02AF32AF22AF09245
:10591000640334CF809151038823A9F1009162037D
:10592000109163030115110569F40E941C13809105
:105930009703809364030F5F1F4F109363030093DB
:1059400062031CCF07301105F0F48091710304301D
:10595000110579F368F4809195030230110549F33C
:10596000809172030330110521F380919603E1CFFA
:105970008091700305301105E1F280916F030630CC
:105980001105B9F2F2CF8FEF80931C01F7CE809111
:10599000100188CF00916203109163030115110576
:1059A00019F560915E0370915F03611552E0750710
:1059B000D8F480915D038032B8F490911001911178
:1059C00013C095E0660F771F9A95E1F7682B90E07A
:1059D00080E029E0660F771F881F991F2A95D1F76D
:1059E0000E94880F809310018091100181111DC0C9
:1059F000802F8F71F82E80935C0381110FC0CE0130
:105A000001960E94B80E998190934F039032B0F0A6
:105A10008093100180911001811107C0EF2DF0E0FB
:105A2000E753FC4F8081809364030F3F91E0190797
:105A300008F481CF8FEF80931C017DCF83E1E8CF05
:105A400086E194E00E94A6082DCF809153038093B5
:105A500064031092530380916E03823008F493CE56
:105A60000E944A1488E29BE00E9456098BE19BE069
:105A70000E945609809164030E9481147FCE809118
:105A80005603882309F47FCE80E20E94F20682E169
:105A900090E00E94500A0E94EF0680E20E94F20607
:105AA00061E070E080E290E00E94D5120E940F0752
:105AB000887F8160F7CE8EE29BCE8AE1F3CE909113
:105AC0005403992309F111E0823A09F410E069E0E6
:105AD000812F0E946E15082F80916E03843008F488
