:100000000C944D060C9475060C9475060C947506AC
:100010000C9475060C9475060C9475060C94750674
:100020000C9475060C9475060C9475060C9431238B
:100030000C9475060C94A1230C947B230C947506E8
:100040000C9475060C9475060C9475060C94D323C9
:100050000C9475063110FD2152FDCDC6FECD3EFF3C
:10006000CDF4FD3EFFBC2010BD200D21D9FDCDC635
:10007000FE2188FDCDC6FE76E521D9FDCDC6FE2147
:1000800075FDCDC6FEE1CD4BFFCD3EFFCD3EFFDB86
:1000900001FEFF20FAE9694C6F6164202D20496E52
:1000A00074656C2D486578204C6F61646572202DF5
:1000B0002053323030373138005374617274696EB6
:1000C0006720416464726573733A20004C6F616409
:1000D000206572726F72202D2053797374656D20C4
:1000E00068616C7465640057616974696E67206942
:1000F0006E7075742073747265616D2E2E2E0053B0
:10010000796E746178206572726F72210043686540
:10011000636B73756D206572726F722100694C6F2D
:1001200061643A2000416464726573732076696F7C
:100130006C6174696F6E2100F5D5C501FFFF21A3C5
:10014000FDCDC6FECD3EFFCD72FFFE0D28F9FE0AA5
:1001500028F5FE2028F1CD1AFFCD69FFFE3AC2A393
:10016000FECDE1FE571E00CDBEFECDD6FE3EFFB851
:100170002005B92002444D7CCDBEFE7DCDBEFECD16
:10018000E1FECDBEFEFE01201ECDE1FECDBEFE7B1A
:10019000A72866CD3EFF21D9FDCDC6FE21C9FDCDE4
:1001A000C6FE01FFFF18527AA7282CCDE1FECDBE76
:1001B000FEE5C5A701F0FCED42C1E1DA8EFECD3EC1
:1001C000FF21D9FDCDC6FE21E1FDCDC6FE01FFFF19
:1001D000182777231518D0CDE1FECDBEFE7BA720D2
:1001E000B2CD3EFFC303FECD3EFF21D9FDCDC6FEFD
:1001F00021BBFDCDC6FE01FFFFCD3EFF6069C1D131
:10020000F1C9C54F7B915F79C1C9F5E57EFE002834
:1002100006CD69FF2318F5E1F1C9F5CDE1FE67CD03
:10022000E1FE6FF1C9C5CDF4FECB07CB07CB07CB01
:100230000747CDF4FEB0C1C9CD72FFCD1AFFCD0680
:10024000FF30F5CD23FFCD2EFFC9FE47D0FE303065
:10025000023FC9FE3AD8FE4130023FC937C9FE61AC
:10026000D8FE7BD0E65FC9FE3A3802D607D630E624
:100270000FC9F5E60FC630FE3A3802C607CD69FF52
:10028000F1C9F53E0DCD69FF3E0ACD69FFF1C9E523
:10029000F57CCD58FF7DCD58FFF1E1C9F5C5470F7D
:1002A0000F0F0FCD2EFF78CD2EFFC1F1C9F53E0106
:1002B000D301F1D300C9DB01FEFFCA72FFC9494F68
:1002C000533A205254432073657420617420636F45
:1002D0006D70696C652074696D65202D204E6F7797
:1002E0003A2000293F205B592F4E5D203E000A44F2
:1002F0006F20796F752077616E742073657420525A
:10030000544320617420494F5320636F6D70696CB2
:10031000652074696D65202800494F533A20525476
:100320004320636C6F636B206661696C7572652135
:1003300000494F533A20525443204453333233310F
:100340002074656D70657261747572652073656E79
:10035000736F723A202564C2B0430D0A00494F53AF
:100360003A20466F756E6420525443204453333212
:100370003331204D6F64756C65202800494F533A26
:100380002052544320646174652F74696D65207533
:10039000706461746564202800202E2E2E646F6EB8
:1003A000652020202020200A005365636F6E64734F
:1003B000202D3E20004D696E75746573202D3E2002
:1003C00000486F757273202D3E2000204461792013
:1003D0002D3E200020202020202020202020202012
:1003E00020004D6F6E7468202D3E200059656172AB
:1003F000202D3E200020000A507265737320542F78
:100400005520746F20696E6372656D656E74202B64
:1004100031302F2B31206F7220435220746F2061B6
:100420006363657074000A494F533A205254432065
:100430006D616E75616C2073657474696E673A00E6
:100440000D0A507265737320435220746F206163EC
:10045000636570742C2045534320746F2065786960
:1004600074206F7220616E79206F74686572206BE2
:10047000657920746F206368616E676500494F532A
:100480003A205A38302069732072756E6E696E6733
:100490002066726F6D206E6F770020446F6E65006E
:1004A000494F533A204C6F6164696E6720626F6FE9
:1004B000742070726F6772616D2E2E2E00292E2EA1
:1004C0002E00494F533A204C6F6164696E67206279
:1004D0006F6F742070726F6772616D2028004445E1
:1004E0004255473A20426F6F74537472416464728C
:1004F000203D200044454255473A20466C617368D0
:1005000020426F6F74496D61676553697A65203D5C
:10051000200044454255473A20496E6A6563746538
:1005200064204A50203078253034580D0A00540099
:10053000494F533A2043757272656E7420004445EA
:100540004255473A20626F6F744D6F64653A2025BB
:10055000640D0A002564204B42797465730D000D0B
:10056000202D3E004368616E676564207370656589
:10057000642077696C6C20626520656666656374CB
:10058000697665206166746572206E657874207284
:1005900065626F6F74210D0A0A000D0A0A000D20B2
:1005A0002D3E256C642020200D000D0A0A0020201D
:1005B0002020202020202020202020202020200D4E
:1005C000000D202D3E003F566572626F736974798D
:1005D000206C6576656C2025640D0A000D0A456E59
:1005E00074657220796F75722063686F6963652026
:1005F0003E2000202025633A2052414D2073697A25
:100600006520282564204B4279746573290D0A0002
:10061000202025633A2053657420525443205469A6
:100620006D652F446174650D0A00202025633A2012
:100630005365742053657269616C20506F72742029
:1006400053706565642028256C64290D0A002020FC
:1006500025633A20546F67676C652043502F4D2007
:100660004175746F6578656320282D3E20257329B8
:100670000D0A00202025633A204368616E676520DB
:100680005A383020436C6F636B205370656564206B
:10069000282D3E202564204D487A290D0A0020206F
:1006A00025633A20694C6F61640D0A0A000D0A2027
:1006B0002025633A204175746F626F6F740D0A00D4
:1006C000202025633A204C6F61642F536574204FBE
:1006D000532000202025633A20466F7274680D0A6B
:1006E00000202025633A2042617369630D0A0020CF
:1006F0002025633A204578697420776974686F759E
:1007000074206368616E6765202827256327290D9B
:100710000A0A000D0A494F533A2053656C65637409
:1007200020426F6F74204D6F6465206F7220537983
:100730007374656D20506172616D65746572733A92
:100740000D0A0A00494F533A2043502F4D2041755E
:10075000746F657865632069732025730D0A0049FD
:100760004F533A20466F756E642053494F41202FF6
:100770002053494F42204F7074696F6E00494F53A8
:100780003A20466F756E6420475045204F7074695B
:100790006F6E0020284354532C20525453207573FD
:1007A00065642061732042414E4B322C2042414E01
:1007B0004B33207369676E616C2C2043453220698E
:1007C0006E76657274656429002028435453207541
:1007D0007365642061732042414E4B322073696718
:1007E0006E616C2900494F533A202564204B4279B1
:1007F0007465732052414D00494F533A205A3830A6
:1008000020636C6F636B20736574206174202564B2
:10081000204D487A0D0A00494F533A20466F756EB5
:100820006420657874656E646564207365726961BF
:100830006C205278206275666665722028256420D7
:100840006279746573290D0A0053323230373138BA
:100850002D523239303832332D443039303132363E
:10086000202D204A616E202039203230323620314E
:10087000383A32343A3033000D0A0A5A38302D4DA6
:100880004243322D4E47202D20413034303631380E
:10089000202D2041546D6567613332202D20256461
:1008A000204D487A0D0A00494F533A20436865634A
:1008B0006B20534420616E642070726573732061F5
:1008C000206B657920746F207265706561740D0A04
:1008D00000202D2046696C653A2000206F706572FB
:1008E0006174696F6E0052454144004F50454E009F
:1008F0004D4F554E5400206F6E2000554E4B4E4FBD
:10090000574E004E4F5F46494C4553595354454D41
:10091000004E4F545F454E41424C4544004E4F54AB
:100920005F4F50454E4544004E4F5F46494C450091
:100930004E4F545F5245414459004449534B5F4523
:100940005252000D0A494F533A20534420657272A7
:100950006F7220003F3F53494F25633A2041637433
:1009600075616C2062617564726174653A202564FA
:100970000D0A003F3F53494F25633A2043616C63A2
:10098000756C617465642064697669736F723A206E
:1009900025640D0A003F3F53494F25633A204465C3
:1009A00073697265642062617564726174653A206E
:1009B00025640D0A003F3F3F53494F25633A2053BA
:1009C00065744175746F48616E647368616B65200E
:1009D00025642C2025640D0A003F3F3F3F3F5349CB
:1009E0004F25633A20526561645265676973746587
:1009F00072203078253032582028257329207265DE
:100A0000733D3078253032580D0A003F3F3F3F3F5D
:100A100053494F25633A2057726974655265676977
:100A20007374657220307825303258202825732958
:100A30002076616C3D3078253032580D0A003F3FFA
:100A40003F53494F25633A20577269746542797460
:100A500065203078253032582025630D0A003F3F4D
:100A60003F53494F25633A2052656164427974656A
:100A7000203078253032582025630D0A003F3F3F53
:100A80003F53494F25633A205278204649464F202C
:100A90004C6576656C3A2025640D0A003F3F3F3F68
:100AA00053494F25633A205478204649464F2053F6
:100AB000706163653A2025640D0A00202D2069725B
:100AC00071537461747573203D200044454255474D
:100AD0003A20494E542041434B206379636C6500B2
:100AE000202D20696F44617461203D2000444542FF
:100AF00055473A2053595349525100202D206972CD
:100B000071537461747573203D200044454255470C
:100B10003A205345522052580072657365727665CB
:100B2000640D0A006175746F205254532F4354535F
:100B30000D0A006175746F20586F6E2F586F6666CE
:100B400020284E5949290D0A0064697361626C6559
:100B50000D0A00202D2068616E647368616B653A30
:100B60002025642000202D20626175647261746507
:100B70003A20256C640D0A003F3F53494F423A002A
:100B80003F3F53494F413A002073657420636F6EB5
:100B900074726F6C3A203078253032580000003A79
:100BA0000037003400310000003B003800350032CF
:100BB0000000003900360033003000020202020259
:100BC00002020204040404040404040303030303F0
:100BD00003030301010101010101010102040810E5
:100BE0002040800102040810204080010204081007
:100BF0002040800102040810204080000000020014
:100C000000000000000000050400070000000000D4
:100C100000000000000000000000003F3F3F53497B
:100C20004F25633A204649464F53657454726967AD
:100C30006765724C6576656C2825735F4649464F3B
:100C40003A2026640D0A003F53494F25633A204C51
:100C500043522052656769737465723A2030782573
:100C60003032780D0A000D0A0A494F533A2042618A
:100C70007564207265636F7665727920646F6E6546
:100C8000202D20506C65617365207265626F6F74F2
:100C9000206E6F7721009325562D11241FBECFE5BE
:100CA000D8E0DEBFCDBF24E0AEE4B2E001C01D92CB
:100CB000AF36B207E1F712E0A0E6B0E0E2E0F6E618
:100CC00002C005900D92AE34B107D9F716E0CCE41E
:100CD000D6E004C02197FE010E94CF30CB34D1076B
:100CE000C9F70E94E7250C94F4320C940000282FD9
:100CF0009091240381E0913208F03FC0809100037D
:100D00008111FCCF8091230332E0309300032093C4
:100D1000FF022FEF2093FE0223E033E03093FD0229
:100D20002093FC021092FB029093FA021092F902B7
:100D30009091F902880F892B8093F9028091F80233
:100D4000813011F51092F8028091F90283B906B64C
:100D500003FCFACF85EC86BF809100038230E1F37B
:100D60008091FE028F3F91F08091FE02803281F0EF
:100D70008091FE02803371F084E0109202031092A1
:100D8000240310920103089585EEE5CF80E0F5CFAE
:100D900082E0F3CF83E0F1CF81E00C94770691E01D
:100DA0009093010380932303109202031092240373
:100DB00008959091F4028091F3022FEF3FEF98177E
:100DC00048F4E92FF0E0ED52FD4F208130E09F5FC5
:100DD0009093F402C90108959091F4028091F30276
:100DE0002FEF3FEF981748F4E92FF0E0ED52FD4F59
:100DF000208130E09F5F9093F402C9010895FB01C8
:100E0000A485B585ED91FC9111970190F081E02DBD
:100E1000682FCD01099590E080E00895209163044A
:100E2000309164048217930760F420915F0430913D
:100E300060042115310529F0280F391FF90180813F
:100E4000089580E0089583E090E00197F1F7089518
:100E5000843059F028F4813099F0823089F0089577
:100E6000853039F0873041F008958FB58F778FBD89
:100E700008958FB58F7DFBCF85B58F7D85BD089596
:100E800083B78F7D83BF0895CF93DF93282F30E002
:100E9000F901E550F44F8491F901E552F44FD491F2
:100EA000F901E554F44FC491CC23A1F081110E94C3
:100EB0002807EC2FF0E0EE0FFF1FEF54F44FA59141
:100EC000B491EC91ED2381E090E009F480E0DF91B2
:100ED000CF91089580E090E0FACF1F93CF93DF93F6
:100EE000282F30E0F901E550F44F8491F901E552E3
:100EF000F44FD491F901E554F44FC491CC23A9F0F7
:100F0000162F81110E942807EC2FF0E0EE0FFF1F33
:100F1000E955F44FA591B4918FB7F894EC91111164
:100F200008C0D095DE23DC938FBFDF91CF911F9156
:100F30000895DE2BF8CFCF93DF9390E0FC01E552CC
:100F4000F44F24918554944FFC0184918823C9F077
:100F500090E0880F991FFC01E356F44FA591B491DE
:100F6000FC01E955F44FC591D49161110DC09FB7B3
:100F7000F8948C91209582238C9388812823288350
:100F80009FBFDF91CF910895623051F49FB7F894DD
:100F90003C91822F809583238C93E8812E2BEFCF79
:100FA0008FB7F894EC912E2B2C938FBFEACF3FB7DD
:100FB000F8948091CA029091CB02A091CC02B0919A
:100FC000CD0222B708B600FE05C02F3F19F00196EA
:100FD000A11DB11D3FBFBA2FA92F982F8827BC0193
:100FE000CD01620F711D811D911D42E0660F771FBB
:100FF000881F991F4A95D1F708958F929F92AF92BB
:10100000BF92CF92DF92EF92FF924B015C010E9460
:10101000D7076B017C010E94D7076C197D098E09E7
:101020009F09683E734081059105A8F321E0821A6B
:101030009108A108B10888EEC80E83E0D81EE11C13
:10104000F11C81149104A104B10429F7FF90EF90E1
:10105000DF90CF90BF90AF909F908F9008952FB763
:10106000F8946091C6027091C7028091C802909175
:10107000C9022FBF089581E08093C4020895AF9202
:10108000BF92CF92DF92EF92FF920F931F93CF9375
:10109000DF936C017B018B01040F151FEB015E01D7
:1010A000AE18BF08C017D10759F06991D601ED916C
:1010B000FC910190F081E02DC6010995892B79F70B
:1010C000C501DF91CF911F910F91FF90EF90DF90BD
:1010D000CF90BF90AF900895FC01538D448D252F84
:1010E00030E0842F90E0821B930B541710F0CF96C2
:1010F000089501970895FC01918D828D981761F0F4
:10110000A28DAE0FBF2FB11D5D968C91928D9F5F0A
:101110009F77928F90E008958FEF9FEF0895FC01E5
:10112000918D828D981731F0828DE80FF11D858D9C
:1011300090E008958FEF9FEF0895FC01918D228D2F
:10114000892F90E080589F4F821B91098F779927B4
:10115000089586E793E00E949D0821E0892B09F419
:1011600020E0822F08950E94A908882319F081E0C9
:101170008093C4020895FC01A48DA80FB92FB11D5E
:10118000A356BF4F2C91848D90E001968F739927C1
:10119000848FA689B7892C93A089B1898C91827498
:1011A0008C93938D848D981306C00288F389E02D6B
:1011B00080818F7D80830895EF92FF920F931F931C
:1011C000CF93DF93EC0181E0888F9B8D8C8D9813FA
:1011D00019C0E889F989808185FF14C09FB7F89408
:1011E000EE89FF896083E889F98980818274808330
:1011F0009FBF81E090E0DF91CF911F910F91FF9011
:10120000EF900895F62E0B8D10E00F5F1F4F0F73B8
:101210001127E02E8C8D8E110CC00FB607FCFACF73
:10122000E889F989808185FFF5CFCE010E94BB084E
:10123000F1CFEB8DEC0FFD2FF11DE356FF4FF08248
:101240009FB7F8940B8FEA89FB8980818062CFCFAA
:101250000F931F93CF93DF938C01D0E0C0E0F80190
:10126000EC0FFD1F6491662341F086E793E00E9436
:10127000DC08892B11F02196F2CFCE01DF91CF91BE
:101280001F910F910895CF93DF93EC01888D8823F0
:10129000B9F0AA89BB89E889F9898C9185FD03C0D9
:1012A000808186FD0DC00FB607FCF7CF8C9185FFBE
:1012B000F2CF808185FFEDCFCE010E94BB08E9CF40
:1012C000DF91CF91089585ED86BF06B604FCFDCF72
:1012D00010920003089520918302260F3327331FB5
:1012E00021323105ECF420910003FC0190E080E014
:1012F000243069F082E00895A09183022191AC012D
:101300004F595D4FA40FB52FB11D2C930196861731
:1013100098F380918302680F6093830280E00895C0
:1013200081E00895089508950895E091F402809170
:10133000F302E81730F4F0E0ED52FD4F808190E0C9
:1013400008958FEF9FEF08958091F3029091F4023A
:10135000891B990B0895CF92DF92EF92FF920F9322
:101360001F93CF93DF937C01CB018A01209101036E
:10137000222389F0EB016B01C40ED51ECC15DD05CF
:1013800069F06991D701ED91FC910190F081E02D18
:10139000C7010995F3CF642F0E946B09C801DF9143
:1013A000CF911F910F91FF90EF90DF90CF90089514
:1013B000CF93DF931F92CDB7DEB7698320910103EE
:1013C0002223F9F020912403203258F021E030E06C
:1013D000FC013383228390E080E00F90DF91CF9176
:1013E000089580910203E82FF0E0ED5FFC4F9981B2
:1013F00090838F5F809302038093240381E090E0C9
:10140000ECCF61E0CE0101960E946B09F7CF682F07
:1014100083E594E00C94D8090F931F93CF93DF9347
:10142000082F162FD42F88E60E94CF0690E080E088
:101430000E94070A8091F702CAE06C2F0E948D304B
:101440008295807F682F690F83E594E00E94D80918
:101450008091F6026C2F0E948D308295807F682FDC
:10146000690F83E594E00E94D8098091F5026C2F02
:101470000E948D308295807F682F690F83E594E00C
:101480000E94D80981E090E00E94070A802F6C2F0B
:101490000E948D308295807F682F690F83E594E0EC
:1014A0000E94D809812F6C2F0E948D308295807FF9
:1014B000682F690F83E594E00E94D8098D2F6C2F67
:1014C0000E948D308295807F682F690F83E594E0BC
:1014D0000E94D809DF91CF911F910F910C94CC06F7
:1014E00090E080E008950F931F93E0917403F091D2
:1014F00075039B01AC0122503109410951098681D4
:101500009781A085B1850297A109B10928173907EC
:101510004A075B0778F4A281B0E00E943C30028960
:10152000138924893589600F711F821F931F1F91B2
:101530000F91089560E070E0CB01F9CF0F931F93F6
:10154000CF93DF93EC01E0917403F091750319825E
:1015500018826C817D818E819F816130710581054A
:10156000910581F10681178120853185601771070A
:101570008207930738F5611571058105910539F4E6
:101580002081233021F46685778580899189688759
:1015900079878A879B87611571058105910569F0B7
:1015A0000E94730A6C877D878E879F8790E080E01A
:1015B000DF91CF911F910F9108956685778580897E
:1015C0009189F0CF81E090E0F3CF8FB9779BFECF88
:1015D00008958FEF0E94E50A8FB108950F931F932E
:1015E000CF93DF93C091A802D091A9022197CD3F5C
:1015F0008FEFD80721F080E00E94E50AF7CF0E9424
:10160000E90A8F71853079F0D1E0C0E061E084E0D3
:101610000E946D070E94E90A8D2F9C2FDF91CF91C8
:101620001F910F91089508E813E1C0E9D1E00E94ED
:10163000E90A8F3F49F00115110531F3CE010197F9
:10164000F1F701501109F3CFD1E0C0E0012BF1F225
:10165000D0E0DCCFFF920F931F93CF93DF93C82F7F
:10166000D42F152F062FF72E8091490381113FC0EB
:1016700083E58DB91EB8C7FF09C040E050E0BA014C
:1016800087E70E942A0B823060F5CF7761E084E023
:101690000E946D070E94E90A60E084E00E946D07E5
:1016A0000E94E90A8C2F0E94E50A8F2D0E94E50A0C
:1016B000802F0E94E50A812F0E94E50A8D2F0E944B
:1016C000E50A85E9C03421F087E8C83409F081E0F3
:1016D0000E94E50ACAE00E94E90A87FF02C0C150E1
:1016E000D1F7DF91CF911F910F91FF90089580E581
:1016F0008DB981E08EB9BFCFCF92DF92EF92FF928A
:101700000F931F93CF93DF937C016901809149036D
:1017100083FD07C089E0440F551F661F771F8A9518
:10172000D1F781E50E942A0B811108C0C0E4DCE9F1
:101730000E94E90A8F3F29F42197D1F7C1E0D0E058
:1017400022C08E3FD9F7C2E0D2E0C01BD10BCC192A
:10175000DD0981E0C81AD10818F00E94E90AF9CF22
:10176000E114F10401F10E0D1F1D0E94E90AF701B9
:1017700081937F010E171F07C1F70E94E90A219785
:10178000E1F7D0E0C0E061E084E00E946D070E94D4
:10179000E90ACE01DF91CF911F910F91FF90EF9059
:1017A000DF90CF9008950E94E90A01501109D9F7FE
:1017B000E4CFCF92DF92EF92FF920F931F93CF93DC
:1017C000DF93EC016A017B0102E010E02EEF31E0D3
:1017D0000E947C0B892B31F58881998185359A4A45
:1017E00059F526E330E0B701A601CE010E947C0B3B
:1017F000892B29F4888199818634914489F002E00B
:1018000010E022E530E0B701A601CE010E947C0B7A
:10181000892BA1F481E0288139812634314419F4DF
:1018200080E001C083E0DF91CF911F910F91FF9085
:10183000EF90DF90CF90089582E0F5CF81E0F3CF75
:101840004F925F926F927F928F929F92AF92BF92D0
:10185000CF92DF92EF92FF920F931F93CF93DF937C
:10186000CDB7DEB7A4970FB6F894DEBF0FBECDBFDD
:10187000109275031092740380914903882339F004
:1018800084E00E944407892B11F40E94EE0A61E073
:1018900084E00E946D0761E084E00E949B0761E0A4
:1018A00085E00E949B0761E087E00E949B0761E062
:1018B00084E00E949B0783E58DB91EB861E084E057
:1018C0000E946D071AE00E94E90A1150E1F740E01A
:1018D00050E0BA0180E40E942A0B182F813009F4ED
:1018E00041C010E01093490361E084E00E946D075D
:1018F0000E94E90A82E090E01123E9F040E050E024
:10190000BA01CE0101960E94D90BC12CD12C7601CF
:10191000813009F096C000E110E02EEB31E040E0AC
:1019200050E0BA01CE0101960E947C0B892B09F48C
:1019300078C081E090E0A4960FB6F894DEBF0FBEA9
:10194000CDBFDF91CF911F910F91FF90EF90DF906E
:10195000CF90BF90AF909F908F907F906F905F904F
:101960004F9008954AEA51E060E070E088E40E94F8
:101970002A0B813091F5CE0101967C016E0195E034
:10198000C90ED11C87010E94E90AF80181938F01D9
:10199000CE16DF06C1F78B81813009F0A2CF8C8192
:1019A0008A3A09F09ECF80E1C82E87E2D82E90E9CE
:1019B000A92EBB24B39440E050E060E070E489EECF
:1019C0000E942A0B882309F4C9C0C5010197F1F7C9
:1019D000F1E0CF1AD10879F784CF40E050E0BA01A6
:1019E00089EE0E942A0B01E4823010F412E009EE25
:1019F000A0E1EA2EA7E2FA2EB0E9CB2EDD24D394A3
:101A000040E050E0BA01802F0E942A0B882309F49D
:101A1000BBC0C6010197F1F7F1E0EF1AF10881F7B9
:101A200060CF8D81811103C086E090E084CFC984AE
:101A3000DA84EB84FC84B701A601CE0101960E94F2
:101A4000D90B833009F475CF8111EECF04E210E099
:101A50002DE030E0B701A601CE0101960E947C0B7B
:101A6000892B09F066CF2A853B8550E040E021159F
:101A700031054105510521F4288D398D4A8D5B8D45
:101A8000AC81B0E00E943C304B015C014A815B813B
:101A900070E060E0C40ED51EE61EF71EC09254032F
:101AA000D0925503E0925603F0925703E981E093F8
:101AB0004C038D819E8190934F0380934E030F8141
:101AC000188530E020E0011511052105310521F4CC
:101AD0000C891D892E893F89F4E096958795FA95A2
:101AE000E1F72C01712C612C041B150B260B370B15
:101AF000C901B801681979098A099B09641975092E
:101B0000860997092E2F30E050E040E00E94AD306A
:101B1000DA01C9010296A11DB11D80935003909373
:101B20005103A0935203B0935303265F3F404109F2
:101B300051092F3F3F4E4105510588F1873F9F4F87
:101B4000A105B10588F570CF82E080934A03D501E5
:101B5000C4018C0D9D1DAE1DBF1D2DC040E050E089
:101B6000BA018AE70E942A0B8111BBCE0E94E90AC2
:101B7000F70181937F010E171F07C1F789811CE0D0
:101B800086FDB0CE14E0AECE40E052E060E070E002
:101B900080E50E942A0B882309F4A4CEA2CE873FB9
:101BA0009F4FA105B10580F283E080934A0388A18D
:101BB00099A1AAA1BBA18093580390935903A09324
:101BC0005A03B0935B03C40CD51CE61CF71C8C0CA9
:101BD0009D1CAE1CBF1C80925C0390925D03A09282
:101BE0005E03B0925F0310924B038AE493E09093FC
:101BF00075038093740390E080E09DCE0F931F9354
:101C0000CF93DF9300D000D0CDB7DEB7623071053F
:101C10008105910528F461E070E080E090E055C016
:101C2000E0917403F0917503068117812085318559
:101C3000601771078207930770F7AB01BC018081C1
:101C4000823031F1833039F79A012F773327220F11
:101C5000331F220F331F97E0769567955795479569
:101C60009A95D1F782859385A485B585480F591F2C
:101C70006A1F7B1F04E010E0CE0101960E947C0BDE
:101C8000892B49F669817A818B819C819F701DC067
:101C90009A013327220F331F452F562F672F77279F
:101CA00082859385A485B585480F591F6A1F7B1FC0
:101CB00002E010E0CE0101960E947C0B892B09F016
:101CC000AACF69817A8190E080E00F900F900F9009
:101CD0000F90DF91CF911F910F9108956F927F9296
:101CE0008F929F92AF92BF92CF92DF92EF92FF922C
:101CF0000F931F93CF93DF93C0917403D09175031B
:101D0000FC0111821082209709F4AFC0298120FFC5
:101D1000AFC00A8D1B8D2C8D3D8D4E895F89688DDE
:101D2000798D68017901C41AD50AE60AF70AB70164
:101D3000A601403251056105710520F040E250E0F6
:101D400060E070E05C017A0139E2832E33E0932E8B
:101D5000612C42E0742EE114F10409F48CC08E89E8
:101D60009F89A88DB98DAC01BD0151706627772779
:101D7000452B462B472B09F04AC0DA80DA94AC0198
:101D8000BD0129E076956795579547952A95D1F736
:101D9000D42251F5892B8A2B8B2BD9F46E8D7F8D14
:101DA00088A199A16230710581059105C8F4198255
:101DB00081E090E0DF91CF911F910F91FF90EF9024
:101DC000DF90CF90BF90AF909F908F907F906F905B
:101DD00008956AA17BA18CA19DA10E94FE0DE2CF76
:101DE0006AA37BA38CA39DA36AA17BA18CA19DA1C7
:101DF0000E94730A6115710581059105C1F26D0D8F
:101E0000711D811D911D6EA37FA388A799A72E899F
:101E10003F893170C301821B930B67018E159F05AB
:101E200008F46C014EA15FA168A579A58601C401E3
:101E30000E947C0B892B09F0BACF8E899F89A88DCF
:101E4000B98D8C0D9D1DA11DB11D8E8B9F8BA88FF3
:101E5000B98F8C0C9D1CEC18FD08F50180819181D7
:101E6000C80ED91ED182C08276CF85E090E0A2CF85
:101E700084E090E09FCF90E080E09CCF4F925F9213
:101E80006F927F928F929F92AF92BF92CF92DF928A
:101E9000EF92FF92CF93DF9300D000D000D0CDB768
:101EA000DEB720917403309175033E832D83211595
:101EB000310509F40CC1D90111962C91119720FF1D
:101EC00009C15A96CD90DD90ED90FC905D976C1510
:101ED0007D058E059F0510F46B017C01ED81FE816F
:101EE00046885788608C718C168A178A108E118EDE
:101EF000C114D104E104F10409F4E6C08280912CFC
:101F0000B12CA12C39E0880C991CAA1CBB1C3A9559
:101F1000D1F7411451046104710409F470C0B1E0B7
:101F20004B1A510861087108C701B6016150710967
:101F300081099109A50194010E94AD3029833A835A
:101F40004B835C83C301B201A50194010E94AD30B3
:101F500089819A81AB81BC8182179307A407B50759
:101F600008F44DC088279927DC0188199909AA0926
:101F7000BB0984219521A621B721ED81FE81868BA5
:101F8000978BA08FB18FC81AD90AEA0AFB0A62A1FF
:101F900073A184A195A18C149D04AE04BF0408F024
:101FA00058C00E94FE0D623071058105910568F0F0
:101FB000AD81BE8116964D905D906D907C90199785
:101FC000641575058605970540F1ED81FE81118246
:101FD00081E090E026960FB6F894DEBF0FBECDBF2D
:101FE000DF91CF91FF90EF90DF90CF90BF90AF90B7
:101FF0009F908F907F906F905F904F900895AD81EC
:10200000BE815E966D917D918D919C919197FD0120
:1020100062A373A384A395A3BECFAD81BE81929624
:102020006D937D938D939C93959756964D905D906F
:102030006D907C905997480C591C6A1C7B1CFD01C3
:10204000468A578A608E718EC818D908EA08FB083C
:10205000A2CFAD81BE8156968D909D90AD90BC90E3
:102060005997C80CD91CEA1CFB1CFD01C68AD78AEB
:10207000E08EF18E0E94730AAB01BC01411551053F
:102080006105710529F4AD81BE8111961C92A0CF26
:10209000ED81FE8182818150990B092E000CAA0BE3
:1020A000BB0B29E0F694E794D794C7942A95D1F70F
:1020B0008C219D21AE21BF21480F591F6A1F7B1F14
:1020C00046A357A360A771A790E080E083CF85E087
:1020D00090E080CF84E090E07DCF4F925F926F924E
:1020E0007F92BF92CF92DF92EF92FF920F931F9356
:1020F000CF93DF93CDB7DEB7EC970FB6F894DEBF82
:102100000FBECDBFE0907403F0907503E114F104AD
:1021100009F404C1F70111829E012F5C3F4F3CA3DB
:102120002BA39C016901F90180812F5F3F4F803211
:10213000C9F38F3209F469011DA21EA21FA218A6BD
:10214000F6018081A0E2BA2E803208F0D4C0CE0120
:1021500081960E949E0A1982009709F407C1EC96A5
:102160000FB6F894DEBF0FBECDBFDF91CF911F91A8
:102170000F91FF90EF90DF90CF90BF907F906F9086
:102180005F904F90089520E0E0E088E0D1C0C30E5A
:10219000D11C81E0913208F080E01B968C93CE0137
:1021A00081960E949E0A0097D1F629A13AA12F702C
:1021B0003327F5E0220F331FFA95E1F74DA55EA511
:1021C0006FA578A900E210E0CE0101960E947C0B79
:1021D000892B19F081E090E0C2CF8981811103C081
:1021E00083E090E0BCCF8C8583FD13C00BA11CA1C4
:1021F0009E012F5F3F4FD801B801655F7F4F6A177F
:102200007B0709F4AEC0F90141919F019D914917E7
:10221000B1F309A11AA10F5F1F4F11F38DA59EA560
:10222000AFA5B8A90097A105B105D1F298012F700B
:102230003327232BB9F40196A11DB11D8DA79EA7AD
:10224000AFA7B8AB69A57AA58BA59CA5F7016115C9
:1022500071058105910549F4848195810817190755
:1022600008F0BECF1AA309A3A0CF2281E22FE1502C
:10227000FF0BAF019801E4E036952795EA95E1F769
:1022800024233523232B71F70E94FE0D6230710544
:102290008105910508F49ECFF70146805780608440
:1022A0007184641575058605970508F099CF69A7AF
:1022B0007AA78BA79CA70E94730A6DA77EA78FA7FA
:1022C00098ABD0CF84FF8CCFF70180818330F1F4BD
:1022D0008D899E89B0E0A0E0DC01992788274B8D8D
:1022E0005C8D70E060E0842B952BA62BB72B8DA323
:1022F0009EA3AFA3B8A7ABA1BCA1FD01CD010B96D6
:102300008E179F0709F43FCFB192FACF80E090E09B
:10231000DC01E5CF80E090E0DC013DC085E090E0AD
:102320001ECF883009F033CF9BE0282FE32F892F71
:1023300031E03E0FEC0DFD2DF11D9081913208F43E
:1023400026CF9F3209F423CF9E3259F3281708F085
:102350001ECFFD01E20FF11D9083982F81E0820FC7
:10236000E4CFF8019385992309F4ACCF89818823C0
:1023700009F436CF8C8584FD33CFE0917403F0915E
:1023800075038081833031F68D899E89B0E0A0E0AD
:10239000DC01992788274B8D5C8D70E060E0842BF1
:1023A000952BA62BB72BF701868F978FA0A3B1A3F0
:1023B0008D8D9E8DAF8DB8A1828F938FA48FB58F99
:1023C000168A178A108E118E81E0818390E080E05A
:1023D000C6CECF93DF93D82FC0E061E08FE00E949C
:1023E0006D0760E08FE00E946D07CF5FDC13F5CFD3
:1023F000DF91CF9108951F93CF93DF93182FD92F9B
:1024000081E00E94E91161E08091B902823009F017
:1024100060E082E00E946D07CFEFCABB81E28BBB18
:1024200082E00E94E9111ABACBBB82E00E94E91156
:10243000CABB1BBB83E00E94E911DBBB82E00E94A8
:10244000E9111ABACBBB61E08091B902823009F47C
:1024500060E082E0DF91CF911F910C946D07CF93E4
:10246000DF93D82F81E00E94E91161E08091B902E9
:10247000823009F060E082E00E946D07CFEFCABBB6
:1024800086E38BBB82E00E94E9111ABACBBB82E0E3
:102490000E94E911CABBDBBB82E00E94E9111ABAB3
:1024A000CBBBC091B90261E0C23009F460E082E0C8
:1024B0000E946D0783E00E94E91181E00E94E9110A
:1024C00061E0C23009F060E082E00E946D07CFEF6A
:1024D000CABB83E28BBB82E00E94E9111ABACBBB74
:1024E00061E08091B902823009F460E082E00E94EC
:1024F0006D0783E0DF91CF910C94E911282F81E0E3
:10250000FB019191BF01992321F0921719F08F5F80
:10251000F7CF80E00895AC01809100038111FCCFDA
:10252000962F81E0809300038093FF022FEF20938A
:10253000FE0223ED32E03093FD022093FC02109264
:10254000FB022FEF260F2093FA028093F9022091CD
:10255000F902440F551F822F842B8093F90280913A
:10256000F8028130D1F41092F8028091F90283B917
:1025700006B603FCFACF85EC86BF8091000381305C
:10258000E1F38091FB02861710F49091FB02109208
:10259000F4029093F302892F089585EEEDCFCF9347
:1025A00088E60E94CF0690E080E00E94070A0E9421
:1025B000CC0662E170E088E690E00E948B120E94F7
:1025C000EC06982F92959770CAE08F709C9F800DB3
:1025D00011248093F7020E94EC06982F92959F7029
:1025E0008F709C9F800D11248093F6020E94EC0650
:1025F000982F929593708F709C9F800D11248093DB
:10260000F5020E94EC060E94EC06982F92959F70AE
:102610008F709C9F800D11248093D2020E94EC0643
:10262000982F92959F708F709C9F800D112480939E
:10263000D1020E94EC06982F92959F708F709C9FFC
:10264000800D11248093D0020E94EC06C150E1F766
:102650000E94EC068093CF02CF910895FC01019077
:102660000020E9F73197AF01481B590BBC0186E701
:1026700093E00C943F088F929F92AF92BF920F937A
:102680001F93CF93DF93CDB7DEB7A1970FB6F89422
:10269000DEBF0FBECDBF19A2423008F44AE08E0162
:1026A0000F5D1F4F842E912CB12CA12CA5019401FC
:1026B0000E94AD30E62FB901CA01EA30F4F4E05DC2
:1026C000D801EE938D01232B242B252B79F790E055
:1026D00080E0109719F0CD010E942E13A1960FB63D
:1026E000F894DEBF0FBECDBFDF91CF911F910F9148
:1026F000BF90AF909F908F900895E95CE1CF0097D5
:1027000011F00C942E1390E080E008951F93CF9366
:10271000DF9300D0CDB7DEB7182F84EA91E00E9496
:102720007F13612F70E090E080E04AE00E943B134D
:10273000105D1093620080E690E00E946D10CE0163
:1027400001960E946E0E89818093AE02882361F00B
:102750008EEA91E00E947F1389E293E00E947F134A
:1027600081EB91E00E947F130F900F90DF91CF914A
:102770001F910895CF93C82F8A3020F484EB91E005
:102780000E947F136C2F70E090E080E04AE0CF91D0
:102790000C943B1381110E94CF1283EB91E00E94B5
:1027A0007F138091D0020E94BA1386EB91E00E94C1
:1027B0007F138091D1020E94BA1386EB91E00E94B0
:1027C0007F138091D2020E94BA138CEA91E00E949A
:1027D0007F138091F5020E94BA1388EB91E00E946A
:1027E0007F138091F6020E94BA1388EB91E00E9459
:1027F0007F138091F7020C94BA138AEB91E00C944A
:102800002E13CF93DF930E942809EC010E94FD1341
:102810008C0F9D1FDF91CF91089586E793E00E9472
:102820009D08181619062CF486E793E00E947B0891
:10283000F4CF87EA98E00E94011486E793E00E94B3
:102840009D0818161906CCF70895CF93DF93682FCB
:1028500086E793E00E94DC08EC010E94FD138C0FD8
:102860009D1FDF91CF910895CF93DF93682F70E084
:1028700090E080E04AE00E943B13EC010E94FD13CF
:102880008C0F9D1FDF91CF910895CF93DF9381EB44
:1028900091E00E942E13EC010E94FD138C0F9D1FEE
:1028A000DF91CF9108950F931F93CF93DF93D82F8C
:1028B000C62F8A0183E499E00E9428096C2F70E0FA
:1028C00090E080E04AE00E943B138EEA91E00E9493
:1028D0007F1388E299E0C330C1F058F48AE399E0AD
:1028E000C13099F080E399E0C23079F08BEF98E045
:1028F0000CC081E199E0C53041F08DE199E0C5302F
:1029000020F083E099E0C63089F70E94280986EF1D
:1029100098E00E9428098BEE98E0D13031F080EFEA
:1029200098E0D23011F486EE98E00E9428098BEDF1
:1029300098E00E9428090115110539F081ED98E011
:102940000E942809C8010E947F13DF91CF911F9137
:102950000F910C944514CF93DF93CDB7DEB72E972C
:102960000FB6F894DEBF0FBECDBF8FEF96E09A870B
:1029700089871C861B8682E08C8386E793E09E878E
:102980008D87AE01495E5F4F6D897E89CE010196CC
:102990000E949A2D2E960FB6F894DEBF0FBECDBFC3
:1029A000DF91CF910895FF920F931F93CF93DF9301
:1029B000F42E062F10E0C82FD0E08091CE02853093
:1029C00020F11F924F93C801880F991F880F991FFC
:1029D00084519F4F9F938F931F926F93CE018F5B74
:1029E0009F4F9F938F938BE09AE09F938F9386E7FF
:1029F00093E09F938F930E94AB148DB79EB70C9674
:102A00000FB6F8949EBF0FBE8DBF88E40E94CF061C
:102A1000C80123E0880F991F2A95E1F7CC0FDD1F2D
:102A20008C2B9D2B0E94070A6F2D83E594E00E945A
:102A3000D80981E0DF91CF911F910F91FF900C9405
:102A40007706DF92EF92FF920F931F93CF93DF935E
:102A5000C82FD62E88E40E94CF060D2D10E0D0E0BE
:102A6000980193E0220F331F9A95E1F7CE01880F6A
:102A7000991F822B932B0E94070A80E00E94770601
:102A800061E070E088E490E00E948B120E94EC0606
:102A90007C018091CE02853020F1C70199279F9358
:102AA0008F93000F111F000F111F04551F4F1F930D
:102AB0000F931F92DF92CF5BDF4FDF93CF9389EDB0
:102AC00099E09F938F9386E793E09F938F930E9463
:102AD000AB148DB79EB70C960FB6F8949EBF0FBE81
:102AE0008DBF8E2DDF91CF911F910F91FF90EF90B1
:102AF000DF900895CF93DF93D82F63E00E942115D4
:102B0000807CC82FC3608091CE028823B1F01F92D1
:102B1000CF931F92DF9387E49CE09F938F9386E788
:102B200093E09F938F930E94AB148DB79EB7089646
:102B30000FB6F8949EBF0FBE8DBF4C2F63E08D2F54
:102B4000DF91CF910C94D3140F931F93CF93DF9306
:102B5000C82F162F8091CE02833018F180EC91E0BF
:102B6000662311F08DEB91E01F9220E32F939F934A
:102B70008F938C2F90E08F5B9F4F9F938F938BE170
:102B80009CE09F938F9386E793E09F938F930E949F
:102B9000AB148DB79EB70A960FB6F8949EBF0FBEC2
:102BA0008DBF64E08C2F0E942115482F446064E0A3
:102BB0008C2F0E94D31463E08C2F0E942115082FC4
:102BC0004FEB63E08C2F0E94D31462E08C2F0E94A5
:102BD0002115D82F482F406162E08C2F0E94D3141A
:102BE00040EC11114CE067E08C2F0E94D3144D2F64
:102BF00062E08C2F0E94D314402F63E08C2FDF9172
:102C0000CF911F910F910C94D3144F925F926F92BA
:102C10007F928F929F92AF92BF92CF92DF92EF926C
:102C2000FF920F931F93CF93DF93C82F042FB52EDE
:102C3000A62E972E64E00E94211524E087FF21E054
:102C400030E050E040E060E072EC81E090E00E9413
:102C5000AD3029013A01CA01B901202F3B2D4A2D7F
:102C6000592D0E94AD3069017A0163E08C2F0E94DA
:102C70002115182F482F406863E08C2F0E94D31431
:102C80004C2D60E08C2F0E94D3144D2D61E08C2FD1
:102C90000E94D314412F4F7763E08C2F0E94D314EE
:102CA000A701960144275527C301B2010E94AD3008
:102CB0003901842ED52F8091CE02823098F1CF5BDE
:102CC0009F92AF92BF920F931F92CF9385E999E0A5
:102CD0009F938F9306E713E01F930F930E94AB140B
:102CE000DF92CF921F92CF9383E799E09F938F93C8
:102CF0001F930F930E94AB14DF938F927F926F927A
:102D00001F92CF9384E599E09F938F931F930F9326
:102D10000E94AB148DB79EB74C960FB6F8949EBF29
:102D20000FBE8DBFB301882D9D2FDF91CF911F91D5
:102D30000F91FF90EF90DF90CF90BF90AF909F905A
:102D40008F907F906F905F904F900895FC018081ED
:102D50009181009711F00C945E2D60E070E0CB0142
:102D60000895FC0180819181009711F00C948531C8
:102D70000895EF92FF920F931F93CF93DF93EC018F
:102D80007B018A0188819981009729F02A813B8102
:102D90002417350788F4B8016F5F7F4F0E940E3209
:102DA000009791F0998388831B830A832C813D814E
:102DB000232B11F4FC0110821D830C83B701888141
:102DC00099810E94ED320CC088819981009711F0A1
:102DD0000E948531198218821D821C821B821A82F0
:102DE000CE01DF91CF911F910F91FF90EF90089549
:102DF000AF92BF92CF92DF92EF92FF920F931F9309
:102E0000CF93DF93EC016B015A0179012417350749
:102E100020F48B2D5901E42EF82E198218821B8282
:102E20001A821D821C8250E040E06CEB71E0CE0102
:102E30000E94B916D60114960D911C91A016B106E8
:102E400028F5E016F10608F48701D601ED91FC9112
:102E50001197E00FF11FF08010826D917C916A0D47
:102E60007B1D61157105F1F0FB0101900020E9F770
:102E70003197AF01461B570BCE010E94B916F601E0
:102E800080819181080F191FD801FC92CE01DF913A
:102E9000CF911F910F91FF90EF90DF90CF90BF9057
:102EA000AF90089588819981009711F00E94853133
:102EB000198218821D821C821B821A82E0CF1F9306
:102EC000CF93DF93EC01162F0E942730181739F0AB
:102ED000612FCE01DF91CF911F910C942F30DF91A4
:102EE000CF911F9108950C942730CF92DF92EF92EB
:102EF000FF920F931F93CF930E942F086B017C01C9
:102F0000C1E086E793E00E949D08892B09F09BC0F1
:102F10000E942F086C197D098E099F09683B7B4030
:102F200081059105A0F462E08DE00E949B078DE091
:102F30000E944407892B09F0C0E061E08DE00E9407
:102F40009B076AE070E080E090E00E94FD070E942D
:102F50002F0800912503109126032091270330911B
:102F60002803601B710B820B930B6D32714081053E
:102F70009105A0F080E00E94440761E0892B09F0F0
:102F800060E080E00E946D070E942F086093250397
:102F90007093260380932703909328030E942F08A1
:102FA0006C197D098E099F09693B7B40810591055C
:102FB00008F4A7CFCC2309F4A4CF8FE090E00E94BF
:102FC0007317893009F49DCF60E080E00E946D079F
:102FD00069E08FE090E00E945F1786E69CE00E9427
:102FE00001140E942F08C0902503D0902603E09082
:102FF0002703F09028036C197D098E099F09653617
:1030000071058105910568F380E00E94440761E045
:10301000892B09F060E080E00E946D078DE00E943E
:10302000440761E0892B09F060E08DE00E946D07A4
:103030000E942F0860932503709326038093270333
:1030400090932803CECFCF911F910F91FF90EF90D7
:10305000DF90CF9008959F92AF92BF92CF92DF9270
:10306000EF92FF920F931F93CF93DF93CDB7DEB70D
:103070002D970FB6F894DEBF0FBECDBF61E086E19D
:103080000E949B0760E086E10E946D0761E080E09E
:103090000E949B0760E080E00E946D0762E08DE087
:1030A0000E949B078DE00E9444078C0161E08DE047
:1030B0000E949B0761E08DE00E946D0762E081E065
:1030C0000E949B0761E081E00E949B0761E081E034
:1030D0000E946D0761E082E00E949B0760E083E050
:1030E0000E949B0762E08EE00E949B0761E08EE0F9
:1030F0000E949B0761E08EE00E946D071ABA8FEF75
:103100008BBB62E085E10E949B0762E084E10E9444
:103110009B0762E083E10E949B0762E082E10E94DC
:103120009B0780E190E00E9473178093B90283307F
:1031300038F060E080E190E00E945F171092B902E1
:103140008FE090E00E947317C12C72ECD72EEE2412
:10315000E394F12C893050F4E82FF0E0EE0FFF1FDC
:10316000E656FF4FC080D180F12CE12CE091860320
:10317000F091870382E08083C11421EED206E1043E
:10318000F104A1F060E079E08DE390E0A701960101
:103190000E94AD302150310941095109569547959A
:1031A00037952795211580E13807A8F0E09186032F
:1031B000F0918703108260E874E88EE190E0A70147
:1031C00096010E94AD3021503109410951095695AF
:1031D00047953795279586E7E82E83E0F82EE0910E
:1031E0008203F09183033083E0918403F09185039F
:1031F000208310928E03E0918A03F0918B0386E87E
:103200008083E0918803F0918903808188698083BD
:10321000E0918803F091890380818F7D80831F92E4
:1032200080E18F9388E798E09F938F93FF92EF92CE
:103230000E94AB1489E498E00E9401140E94FD13DF
:103240001F9280E88F9387E198E09F938F93FF927E
:10325000EF920E94AB1461E08CE00E949B0761E05A
:103260008CE00E946D0761E08BE00E949B0760E0AC
:103270008BE00E946D0761E08FE00E949B0760E099
:1032800086E10E946D0786E00E94E91161E086E117
:103290000E946D0782E00E94E911F090B9020FB61A
:1032A000F894DEBF0FBECDBFF11009C262E08AE024
:1032B0000E949B0761E082E00E946D0761E087E168
:1032C0000E949B0760E087E10E946D0764E670E062
:1032D00080E090E00E94FD0761E087E10E946D07B9
:1032E00064EF71E080E090E00E94FD078DE090E0E7
:1032F0000E947317823028F061E08DE090E00E9418
:103300005F178DE090E00E947317809360028EE05B
:1033100090E00E9473178093BF02863038F060E01F
:103320008EE090E00E945F171092BF021092F402AC
:103330001092F302109202031092240310920003E1
:10334000FF24F394F092FF021092F80261E081E111
:103350000E946D0761E080E10E946D07089809985E
:1033600088E480B985E486BF82E999E0909382027F
:103370008093810283E999E090938602809385028D
:103380008CE080B980E20E94CF060E94CC068111B9
:103390000FC0F092C00280E20E94CF068CE090E065
:1033A0000E94070A85E090E00E94070A0E94CC066E
:1033B00088E40E94CF060E94CC06811190C045E5AA
:1033C00067E00E94D31467E080E00E9421158535F4
:1033D00009F085C04AEA67E080E00E94D31467E004
:1033E00080E00E9421158A3A09F079C045E567E03E
:1033F00081E00E94D31467E081E00E9421158535A9
:1034000009F06DC04AEA67E081E00E94D31467E0EA
:1034100081E00E9421158A3A09F061C081E0809321
:10342000B3026EE080E00E942115482F48606EE0F4
:1034300080E00E94D31462E080E00E942115482FB2
:10344000416062E080E00E94D31462E081E00E946B
:103450002115482F416062E081E00E94D31460E0B2
:1034600080E00E94A41561E080E00E94A41560E065
:1034700081E00E94A41561E081E00E94A41540EB68
:1034800054E060E070E080E00E94051640EB54E0FC
:1034900060E070E081E00E94051680E00E947A15ED
:1034A00081E00E947A1562E080E00E942115482F99
:1034B000426062E080E00E94D31462E081E00E94FA
:1034C0002115482F426062E081E00E94D31460E041
:1034D00080E00E94211560E081E00E9421158FE0CC
:1034E00090E00E9473178A3028F069E08FE090E046
:1034F0000E945F1780916002882309F4F9C084E07C
:103500001F928F9388EF97E09F938F93B6E7EB2EF0
:10351000B3E0FB2EFF92EF920E94AB142091B90210
:1035200080E890E002C0880F991F2A95E2F79F93E8
:103530008F9385EE97E09F938F93FF92EF920E9477
:10354000AB148091B9020FB6F894DEBF0FBECDBFA9
:10355000813009F0CFC089EC97E00E9428090E94D1
:10356000FD1388E60E94CF060E94CC06811155C14A
:103570008DE593E00E94280981E00E94CA130E9411
:1035800045148091CF02282F082E000C330B3F9357
:103590008F9381E393E09F938F9386E793E09F93CC
:1035A0008F930E94AB1488E60E94CF068FE090E0D4
:1035B0000E94070A0E94CC0661E070E088E690E075
:1035C0000E948B120E94EC060F900F900F900F90AC
:1035D0000F900F9087FFFDC028E030E046E050E0FC
:1035E00065E674E0CE0101960E94F816CE010196C0
:1035F0000E94A6166093F702CE0101960E94B116B2
:1036000025E030E043E050E065E674E0CE0101964D
:103610000E94F816CE0101960E94A6166093F6024B
:10362000CE0101960E94B11622E030E050E040E069
:1036300065E674E0CE0101960E94F816CE0101966F
:103640000E94A6166093F502CE0101960E94B11663
:1036500026E030E044E050E06FE574E0CE010196F2
:103660000E94F816CE0101960E94A6166093D2021F
:10367000CE0101960E94B11690E080E00E940E07F4
:10368000EFEBE80FE33108F04CC00E2E000CFF0BFF
:10369000E45BF44E0C94CF30F11B911B911B0B1C7F
:1036A000911BEF1B911B911B911B801B911B911B6D
:1036B000FB1B091C071C911B911B911B051C61E046
:1036C0008AE00E949B0760E08AE00E946D0731E07B
:1036D0003F1508F0EFCD60E082E00E946D0761E0E9
:1036E00087E10E949B0760E087E10E946D07FECDA5
:1036F00088E006CF823009F032CF83E997E02DCF02
:1037000081E090E00E940E07813609F464C082E0F7
:1037100090E00E940E078E3609F05FC086E080932D
:10372000D1022BE030E049E050E06FE574E0CE01DB
:1037300001960E94F816CE0101960E94A61660938B
:10374000D002CE0101960E94B11689E193E00E9459
:1037500001148EEE92E00E94280980E00E94CA13B4
:1037600083EE92E00E9428090E94751786E793E095
:103770000E947B0880935E02893731F0893521F001
:103780008E3611F08E3481F70E94251480915E02EE
:103790008F7D893589F44091D0026091D10280916A
:1037A000D2020E940C0A8EEB92E00E94280981E06E
:1037B0000E94CA130E94FD1388E60E94CF068FE084
:1037C00090E00E94070A88E090E00E94070A0E94A9
:1037D000CC0681E023C081E0A2CF87E0A0CF82E0C9
:1037E0009ECF82E090E00E940E07823711F484E0C1
:1037F00096CF88E094CF82E090E00E940E07823757
:1038000011F483E08CCF85E08ACF89E088CF8AE00D
:1038100086CF8BE084CF8CE082CF80E08093B002B3
:103820008091C002882321F08DE797E00E94011467
:103830008091B302882321F08FE597E00E94011464
:103840008CE090E00E947317823028F060E08CE0FA
:1038500090E00E945F178CE090E00E9473178093C5
:10386000AF028823C1F183EC91E09F938F9384E4AE
:1038700097E09F938F9386E793E09F938F930E94A7
:10388000AB148BE0E3E8F0E0DE01119601900D92BD
:103890008A95E1F70E94200C0E94200C8AE090E0BB
:1038A0000E94731780935F020F900F900F900F90FC
:1038B0000F900F90012B19F0853008F481C186E735
:1038C00093E00E949D081816190644F486E793E0D9
:1038D0000E947B08F4CF86EC91E0C7CF83E197E0AC
:1038E0009F938F9306E713E01F930F930E94AB14EF
:1038F000E0915F020F900F900F900F90E53008F06D
:10390000EFC1EC0FFD2FF11D8281282F082E000C36
:10391000330B3F938F931F9288E58F938FEE96E042
:103920009F938F931F930F930E94AB140FB6F8943D
:10393000DEBF0FBECDBF1F9282E48F9381EE96E073
:103940009F938F9306E713E01F930F930E94AB148E
:103950001F9286E48F9383ED96E09F938F931F933E
:103960000F930E94AB141F9284E48F9380EC96E037
:103970009F938F931F930F930E94AB148091BF026C
:103980000E9486131F9281E48F938DEA96E09F93A5
:103990008F931F930F930E94AB141F928CE48F930D
:1039A0008EE996E09F938F931F930F930E94AB1421
:1039B0000FB6F894DEBF0FBECDBF809160028823A2
:1039C00009F4A1C188E01F928F931F9283E48F9323
:1039D00083E796E09F938F9386E793E09F938F937F
:1039E0000E94AB140FB6F894DEBF0FBECDBF80911E
:1039F000AF02882309F489C186EC91E09F938F93ED
:103A00001F9285E48F938EE496E09F938F9386E7D1
:103A100093E09F938F930E94AB148FE090E00E94FD
:103A200073170FB6F894DEBF0FBECDBF893008F014
:103A30006FC1E82FF0E0EE0FFF1FE656FF4F8081C9
:103A40009181B0E0A0E0BF93AF939F938F931F92BB
:103A500083E58F938AE296E09F938F9306E713E0C6
:103A60001F930F930E94AB140FB6F894DEBF0FBEE6
:103A7000CDBF8091B002882309F44FC11F9284E525
:103A80008F9380E196E09F938F931F930F930E94F3
:103A9000AB140F900F900F900F900F900F9080E14C
:103AA00090E00E94731720E830E002C0220F331F1D
:103AB0008A95E2F73F932F931F9282E58F9383EFCE
:103AC00095E09F938F9306E713E01F930F930E9457
:103AD000AB148CED95E09F938F931F930F930E94EF
:103AE000AB140FB6F894DEBF0FBECDBF0E947517A2
:103AF00086E793E00E947B080E94D332182F8093C0
:103B00005E028F3309F01CC18091CE028F5F8093DB
:103B1000CE02BE016F5F7F4F812F0E947E128823ED
:103B200029F3812F0E9425148091CE02882391F0E1
:103B30001F928F9386EC95E09F938F9386E793E097
:103B40009F938F930E94AB140F900F900F900F9044
:103B50000F900F9080915E02853409F4ADC10CF096
:103B6000F5C0833409F49CC1843409F43CC1BE011E
:103B70006F5F7F4F80915E020E947E128250809321
:103B80005F029091CE02992391F01F928F938EE362
:103B900095E09F938F9386E793E09F938F930E9486
:103BA000AB140F900F900F900F900F900F906091AB
:103BB0005F028AE090E0653008F0E0C30E945F1782
:103BC00080915F02823051F480E395E00E942809E1
:103BD0008091BF020E9486130E94FD1380915F02B4
:103BE000823009F4FEC308F0CEC3882309F4E2C38F
:103BF000813009F4EDC361E080E00E946D0700911F
:103C0000590210915A020115110519F1F090CE02D6
:103C100090E080E00E94FB1183EC0E942F12802F25
:103C20000E942F12812F0E942F12FF2091F01F93CC
:103C30000F9382E195E09F938F9386E793E09F93A4
:103C40008F930E94AB140F900F900F900F900F90D6
:103C50000F908091590290915A020E94FB1180911D
:103C6000CE028823F1F084EF94E00E94280960914D
:103C700055027091560290E080E04AE00E943B13AA
:103C80000E94FD138EED94E00E9428096091590274
:103C900070915A0290E080E040E10E943B130E9444
:103CA000FD1380915F02843008F0A2C40E94200CB2
:103CB000882309F4E0C30E94200C809354028823D7
:103CC00009F4D9C360915402662329F050E040E022
:103CD00080E00E9453140E940D140E94200CEBCF30
:103CE000BE016F5F7F4F88E50E947E12182F8823E8
:103CF00009F421CE88E590E00E94CB32FE01E10F6D
:103D0000F11D808318CE84E05ECE83EC91E076CE08
:103D100080E092ECA1E0B0E096CEBE016F5F7F4FF5
:103D200084E50E947E12182F882309F4B8CE84E51A
:103D300090E00E94CB32FE01E10FF11D8083AFCEF7
:103D4000803209F0E6CE1092CE02E3CE833509F43C
:103D5000BDC0843509F443C1823509F008CF80E441
:103D600094E00E9401148091B902815080935D0219
:103D700083E0C82ED12C90E8A92EB12C04E515E0E3
:103D800026E7E22E23E0F22E80915D028F5F90E025
:103D9000B6010E949930982E80935D028FE595E0E0
:103DA0000E942809C50102C0880F991F9A94E2F762
:103DB0009F938F931F930F93FF92EF920E94AB14E8
:103DC0000F900F900F900F900F900F9086E793E059
:103DD0000E949D08181619060CF0A8C286E793E009
:103DE0000E947B08F3CF80E494E00E94011480914C
:103DF000BF02815080935D0206E080915D028F5F7B
:103E0000602F0E948D30192F90935D0281EC95E018
:103E10000E942809812F0E9486138EEA95E00E9455
:103E2000280986E793E00E949D08181619062CF4CD
:103E300086E793E00E947B08F4CF86E793E00E9438
:103E40009D08181619061CF00E947517F6CF86E714
:103E500093E00E947B0880935E028D3011F08B31DD
:103E600061F68AEA95E09F938F9386E793E09F93AC
:103E70008F930E94AB140F900F900F900F90809132
:103E80005E028D3009F073CE60915D026093BF02D7
:103E90008EE090E00E945F1784E480935E0267CE1C
:103EA00061E080916002811160E0609360028DE0CA
:103EB00090E00E945F175BCE61E08091AF028111BC
:103EC00060E06093AF028CE090E0F3CF80E494E098
:103ED0000E9401148FE090E00E947317815080933C
:103EE0005D026AE0D62E0EE915E076E7E72E73E074
:103EF000F72E80915D028F5F6D2D0E948D30909323
:103F00005D02993029F1E92FF0E0EE0FFF1FE65630
:103F1000FF4F80819181B0E0A0E0BF93AF939F936A
:103F20008F931F930F93FF92EF920E94AB140FB6E3
:103F3000F894DEBF0FBECDBF86E793E00E949D08D8
:103F40001816190654F486E793E00E947B08F4CF14
:103F500080E092ECA1E0B0E0E0CF86E793E00E9441
:103F60009D08181619061CF00E947517F6CF86E7F3
:103F700093E00E947B0880935E028D3019F08B31B4
:103F800009F0B7CF8AE995E09F938F9306E713E096
:103F90001F930F930E94AB140F900F900F900F90F0
:103FA00080915E028D3009F0E2CD8FE090E00E94BA
:103FB000731760915D02861709F4D9CD8FE090E008
:103FC0000E945F1784E695E09F938F931F930F9352
:103FD0000E94AB140F900F900F900F90C8CD0E94CD
:103FE000CF121092BB0286E294E00E94011487EF88
:103FF00093E00E9401143AE0F32E46EFE42EDD2414
:10400000D39485EF93E00E9428098091BB0282300F
:1040100009F440C018F5882369F18130A1F10E94AC
:10402000751786E793E00E947B08082F80935E0255
:10403000853709F44DC0853509F44AC0843709F441
:104040000DC3843509F40AC38D3049F71091BB02C2
:104050006DE086E793E00E94DC085EC0843089F161
:1040600048F18530E1F689EA93E00E9428098091C1
:10407000F70206C08CEE93E00E9428098091D002DE
:104080000E94BA13CCCF82EE93E00E94280980915F
:10409000D102F6CF84ED93E00E9428096DE086E717
:1040A00093E00E94DC088BEC93E00E942809809149
:1040B000D202E6CF81EC93E00E9428098091F502BC
:1040C000DFCF85EB93E00E9428098091F602D8CFDC
:1040D0001091BB02123009F461C0D0F5112309F42C
:1040E00047C0113009F44FC0802F8F7D843509F00F
:1040F000A8C0123009F4C1C008F08BC0112309F424
:1041000099C0113009F4ADC06DE086E793E00E94DC
:10411000DC080D3009F075CF1F5F1093BB0216301D
:1041200008F46FCF4091D0026091D1028091D20209
:104130000E940C0A89E993E00E9401148CE793E045
:104140000E94280981E00E94CA130E9445140FCDE5
:10415000143009F450C008F443C0153029F680919A
:10416000F7028F5F8C3308F051C08093F702BCCF09
:104170008091D0028F5F843618F48093D002B4CF40
:104180001092D002B1CF8091D1028F5F8D3018F4A0
:104190008093D102A9CF1093D102A6CF8091D202F1
:1041A0008F5F8093D202E091D102E23089F490E0F7
:1041B0002091D002237049F42DE130E0281739070F
:1041C0000CF092CFD092D2028FCF2CE130E0F6CF1C
:1041D000F0E0E357FF4F9081981708F085CFF2CFBA
:1041E0008091F5028F5F883118F48093F5027CCFBF
:1041F0001092F50279CF8091F6028F5F8C3318F41C
:104200008093F60271CF1092F6026ECF1092F702F1
:104210006BCF143009F46EC008F45AC0153009F0A1
:1042200073CF2091F702265F2C3308F075C02093DE
:10423000F70207C02091D002265F243640F4209375
:10424000D0026DE086E793E00E94DC08DACE822F90
:104250006F2D0E948D308E9D200D11242093D00251
:1042600053CF8091D1028B3020F08A508093D102BD
:104270004BCF833030F7865FF9CF2091D202265F93
:104280002093D202422F50E0E091D102F0E0E357B8
:10429000FF4F808190E03091D002337061E070E098
:1042A00011F070E060E0860F971F841795074CF4BB
:1042B000822F6F2D0E948D308E9D200D1124209312
:1042C000D2028091D2028111BCCFD092D2021CCFF7
:1042D0002091F502265F283118F42093F502B1CF22
:1042E000822F6F2D0E948D308E9D200D11242093E2
:1042F000F5020ACF2091F602265F2C3318F42093A2
:10430000F6029FCF822F6F2D0E948D308E9D200D43
:1043100011242093F602F8CE822F6F2D0E948D304B
:104320008E9D200D11242093F702EECE86E793E0B8
:104330000E949D08181619061CF00E947517F6CFEA
:1043400086E793E00E947B0880935E028D3019F02F
:104350008B3109F019CD0E94FD130E94FD1380914D
:104360005E028D3009F003CC60915D026093B9026A
:1043700080E190E00E945F1788E58FCD0E9473175F
:1043800080935F021DCC833009F472C0843009F041
:1043900032CCEEE2F5E085919491909358028093AF
:1043A00057028AE692E0909356028093550280E18C
:1043B0009DEF48C08AEC91E090935C0280935B0291
:1043C00010925A021092590281E08093B80213CCE5
:1043D00086ED91E090935C0280935B0280E091E037
:1043E00031C08091BF02823091F170F4882311F1C5
:1043F000813009F000CC8CEE91E090935C028093C8
:104400005B0280E890E01EC0843079F118F18530BD
:1044100009F0F1CB86E192E090935C0280935B021D
:1044200010925A021092590281E08093B802809350
:10443000B702E1CB82EE91E090935C0280935B0245
:1044400080EE91ED90935A0280935902D4CB87EF7E
:1044500091E0C0CF82E092E090935C0280935B0297
:1044600010925A0210925902C6CB8EE092E0F4CF1D
:1044700080E292E0F1CF00915B0210915C0267EF65
:1044800071E0C8010E94E432892B31F0C8010E941A
:104490006D108093540210C08DE292E00E946D1066
:1044A0008111F4CF8DE292E090935C0280935B02E5
:1044B00060E08DE00E946D07809154028823E9F04E
:1044C00060915402662339F040915B0250915C0286
:1044D00081E00E9453140E940D1400915B02109120
:1044E0005C02C8010E946D1080935402833021F356
:1044F0000E94200C0E94200CC9CF82EC94E00E9404
:10450000280980915B0290915C020E947F138DEBE1
:1045100094E00E942809CE010C960E946E0E082F8E
:104520008C858093AE020093540210925D0210912C
:104530005D028091AE02181758F4E12FF0E0E75DBC
:10454000FC4F80810E942F121F5F10935D02EFCFFE
:10455000803291F40023F9F240915B0250915C02A9
:10456000602F82E00E9453140E940D1460E070E0FE
:10457000CB010E943E0F02C00111EECF8091540288
:104580008111C9CF8AE994E00E94011460E086E1BC
:104590000E946D0782B5877F82BD85B5816085BD2C
:1045A00085B5897F85BD85B5886085BD85B58F7BDF
:1045B00085BD85B5806185BD85B58F7D85BD8091C3
:1045C000600283BD61E08FE00E949B078DE794E06D
:1045D0000E9401140E94FD1386E793E00E949D084B
:1045E00018161906FCF486E793E00E947B08F4CFC6
:1045F00080EA94E00E94280910E000E080915502D2
:10460000909156020817190708F0BCCFE0915702A5
:10461000F0915802E00FF11F84910E942F120F5F5A
:104620001F4FECCF61E070E080E090E00E94FD075A
:1046300061E086E10E946D072D960FB6F894DEBF0B
:104640000FBECDBFDF91CF911F910F91FF90EF90E3
:10465000DF90CF90BF90AF909F9008951091BB02D4
:1046600048CD1F920F920FB60F9211242F933F93B4
:104670008F939F93AF93BF938091C6029091C7028F
:10468000A091C802B091C9023091C50223E0230F66
:104690002D3768F126E8230F0296A11DB11D209346
:1046A000C5028093C6029093C702A093C802B0933C
:1046B000C9028091CA029091CB02A091CC02B09124
:1046C000CD020196A11DB11D8093CA029093CB0229
:1046D000A093CC02B093CD02BF91AF919F918F91E7
:1046E0003F912F910F900FBE0F901F90189501963C
:1046F000A11DB11DD4CF1F920F920FB60F9211249E
:104700002F933F934F935F936F937F938F939F93D9
:10471000AF93BF93EF93FF9386E793E00E94BB08AC
:10472000FF91EF91BF91AF919F918F917F916F9189
:104730005F914F913F912F910F900FBE0F901F905F
:1047400018951F920F920FB60F9211242F938F93EB
:104750009F93EF93FF93E0918603F091870380810D
:10476000E0918C03F0918D0382FD1BC090818091BC
:104770008F038F5F8F7720919003821741F0E09134
:104780008F03F0E0EA58FC4F958F80938F03FF91E1
:10479000EF919F918F912F910F900FBE0F901F90CF
:1047A00018958081F4CF1F920F920FB60F921124AB
:1047B0002F933F934F935F936F937F938F939F9329
:1047C000AF93BF93EF93FF9381B1887F803609F455
:1047D0004AC0F0F5883209F4A3C018F5803109F415
:1047E00099C0B8F4882309F4FDC0883009F492C058
:1047F000FF91EF91BF91AF919F918F917F916F91B9
:104800005F914F913F912F910F900FBE0F901F908E
:104810001895883109F484C0803251F78093FE02E4
:1048200014C0803409F4A0C040F48033B9F3883355
:10483000F9F68093FE0285ECB6C0803509F485C098
:10484000883509F499C0883499F60E946309D0CF5D
:10485000883909F48FC030F5883729F050F488364C
:1048600011F0803729F683E0809300031092A702AD
:1048700054C0883809F47EC0803919F0803809F0B6
:10488000B7CF8091A702803208F074C0E091A702F0
:1048900081E08E0F8093A70283B1F0E0E957FD4FCE
:1048A00080833BC0803B39F0E0F4803A09F47FC05C
:1048B000883A09F09DCF84E080930003109284022F
:1048C00010928302E0918102F09182020995809119
:1048D000830281110FC081E08093830210926102F4
:1048E00009C0803C09F4A7CF883C09F4A4CF883BD9
:1048F00009F07ECFE091840281E08E0F80938402E4
:10490000F0E0EF59FD4F808183B99091840280914E
:1049100083022EC08091F90283B985EC86BF68CFEF
:104920009091FB028091FA029817A8F58091FC0201
:104930009091FD02E091FB0221E02E0F2093FB02FB
:10494000E80FF92FF11D8081E7CF2091FC02309113
:10495000FD02E091FB0281E08E0F8093FB0283B1A8
:10496000E20FF32FF11D80839091FB028091FA02F8
:10497000981798F285E8D2CF2091FC023091FD0281
:10498000E091FB0281E08E0F8093FB0283B1E20F86
:10499000F32FF11D80838091FF02811156CF81E0BA
:1049A0008093F80284EA86BF1092000321CF85EC41
:1049B00086BF109200038091A702803230F4E0910C
:1049C000A702F0E0E957FD4F10826091A70270E066
:1049D000E0918502F091860287E892E009951092B5
:1049E000A70206CF1092FE0230CFEF92FF920F93F4
:1049F0001F93CF93DF930097C9F0EA018C012097B2
:104A0000B1F1E090A802F090A902E114F10479F16B
:104A1000F80181918F010E94E50AF1E0EF1AF10897
:104A2000F092A902E092A8022197E9CF4115510521
:104A30006105710529F18091490383FD07C089E073
:104A4000440F551F661F771F8A95D1F788E50E948E
:104A50002A0B81111DC08FEF0E94E50A8EEF0E9484
:104A6000E50A80E092E09093A9028093A80290E08A
:104A700080E0DF91CF911F910F91FF90EF9008950B
:104A8000DF91CF911F910F91FF90EF900C94EE0A60
:104A900081E090E0EECF0F931F93CF93DF93C82F69
:104AA000162FD42F8091CE028330E0F01F924F93C7
:104AB0001F926F938C2F90E08F5B9F4F9F938F93EC
:104AC00085EB99E09F938F9386E793E09F938F9375
:104AD0000E94AB148DB79EB70A960FB6F8949EBF8E
:104AE0000FBE8DBF63E08C2F0E942115082F4FEB66
:104AF00063E08C2F0E94D31462E08C2F0E9421155A
:104B0000482F4F7311114064D111406862E08C2F1F
:104B10000E94D314402F63E08C2FDF91CF911F911F
:104B20000F910C94D314E6E7F3E01382128288EE1F
:104B300093E0A0E0B0E084839583A683B78324E864
:104B400031E03183208320E430E03587248749E257
:104B500050E0578746874BE250E0518B408B4AE24A
:104B600050E0538B428B358B248B2CE230E0378B1B
:104B7000268B118E128E138E148EE3E5F4E01382D1
:104B8000128284839583A683B78386E991E091831B
:104B90008083E5E6F4E0118210821382128215828E
:104BA000148248E050E069E372E0CF010E94B91638
:104BB000EFE5F4E0118210821382128215821482D2
:104BC0004BE050E062E472E0CF010C94B916CF9351
:104BD000DF9300D0CDB7DEB7789483B7836083BF0F
:104BE00083B7886483BF89B7816089BF82E08EBD47
:104BF0008EB581608EBD8FB581608FBD85B58460B7
:104C000085BD85B5806485BD87E886B91AB80E94E0
:104C10002B1883E00E944407892B29F583E10E9429
:104C20004407892B09F0B5C482E10E944407F9B218
:104C3000F092C302882309F477C0F0927C001092AE
:104C4000C2021092C10260E08EE00E946D0760E037
:104C500080E00E946D0761E080E00E946D0761E0E6
:104C60008EE00E946D0780917C008F3F09F053C059
:104C70008091B8028823E1F08091C4028823C1F0BA
:104C800080916B008823A1F086E793E00E949D0845
:104C9000181619066CF460E081E00E946D0780919F
:104CA000B20281608093B20210926B001092C40233
:104CB0008091B702882379F10E94D7070091AA0258
:104CC0001091AB022091AC023091AD026B017C01DE
:104CD000C01AD10AE20AF30A20916F0030E0A8EE70
:104CE000B3E00E947E306C157D058E059F0598F41B
:104CF00060E081E00E946D078091B2028260809343
:104D0000B2020E94D7076093AA027093AB0280930D
:104D1000AC029093AD020E94A908882309F479CFD0
:104D200081E08093C40275CF80917C008C3009F4BF
:104D30007AC108F051C0863009F40BC118F58330F0
:104D400009F4E8C078F4882309F4D7C0813009F465
:104D5000DBC080917C008A3009F475CF8C3009F477
:104D600072CFCFC2843009F4E9C0853091F78091C9
:104D7000C002882309F4C5C280E20E94CF0690E0F9
:104D800080E0D2C0893009F4FAC080F4873009F499
:104D9000EBC08830F1F68091C002882309F4B1C2DB
:104DA00080E20E94CF068DE090E0BEC08A3009F418
:104DB00007C18B3071F6F092BC028091BD029091D8
:104DC000BE028115924008F028C1FFE1FF1508F4EA
:104DD00028C110927000BDCF823109F4A0C208F042
:104DE00078C08F3009F491C280F48D3009F467C225
:104DF0008E3009F0AECF8F2D81708093B802F1FA1A
:104E0000DD24D0F8D092B702A4CF803109F482C259
:104E1000813109F09ECF8091C002882309F471C2CC
:104E200081E08093B50211E0F11010E01093B4021C
:104E300080E20E94CF0682E190E00E94070A110FF3
:104E4000012F0560802F90E00E94070A0E94CC0687
:104E500080E20E94CF0690E080E00E94070A88EF7F
:104E600090E00E94070A0E94CC0680E20E94CF06D2
:104E700081E090E00E94070A90E080E00E94070A2B
:104E80000E94CC0680E20E94CF068CE090E00E9457
:104E9000070A8FEF90E00E94070A0E94CC0680E28A
:104EA0000E94CF0682E190E00E94070A612F6160B4
:104EB00083E594E00E94D8090E94CC060093BB02CF
:104EC00080E20E94CF0682E190E00E94070A602FF4
:104ED0002EC0823248F4803208F051C2833109F08A
:104EE00038CFF0926E0035CF843208F47BC28E3F0B
:104EF00009F02FCFF092CE022CCF60E0F0FE61E0FF
:104F00008DE00E946D0725CF6F2D86E793E00E940C
:104F1000DC081FCF8091C002882309F4F2C180E22F
:104F20000E94CF0682E190E00E94070A6F2D83E580
:104F300094E00E94D8090E94CC060BCF8091C00259
:104F4000882309F4DEC180E20E94CF0683E190E06D
:104F5000EBCF8091C002882309F4D3C180E20E9484
:104F6000CF0681E090E0E0CF8091C002882309F471
:104F7000C8C180E20E94CF068CE090E0D5CF23E646
:104F800080E12F15D0F08091BF02805D8093730087
:104F90008F2D6AE00E948D3090E3980F90937500FA
:104FA00060E3D62EDF0C36EF839FD00C1124D09215
:104FB000760081E790E00E946D1080937000C9CE6A
:104FC0008091C1029091C2026F2D70E0009751F460
:104FD0007093BE026093BD0201969093C2028093CB
:104FE000C102B7CE2091BD023F2D3093BE02209367
:104FF000BD024091BC022115324040F4403248F4D9
:10500000109270002FEF20937C00E6CF21E1403218
:1050100008F022E120937000F5CF2FE181E12F15F8
:1050200060F682E1CACFC090C102D090C202C11422
:10503000D10419F56091BD027091BE02611532E094
:105040007307D8F48091BC028032B8F4909170005C
:10505000911113C045E0660F771F4A95E1F7682B61
:1050600090E080E059E0660F771F881F991F5A95DE
:10507000D1F70E943E0F80937000809170008111E3
:1050800081C08C2D8F718093BB02E82FF0E0E75D2B
:10509000FC4FF0828F3109F075C0009174031091BC
:1050A0007503A12C85E00115110509F458C0F8011C
:1050B000818180FFD9C086FD0AC086899789A08D2D
:1050C000B18D88279E7F868B978BA08FB18FF8013B
:1050D000828D938DA48DB58D46895789608D718D94
:1050E000841B950BA60BB70B80329105A105B1056A
:1050F00020F080E290E0A0E0B0E07C01B12CA12C97
:1051000039E2232E33E0332EE114F10409F4AFC069
:10511000F80186899789A08DB18D9C013170232B70
:1051200009F067C092809A94AC01BD0129E07695A0
:105130006795579547952A95D1F79422B1F5892B14
:105140008A2B8B2B39F5668D778D80A191A1F80183
:10515000623071058105910520F5118281E0A092F0
:10516000BA0280937000FFE1FA1508F482C083E16F
:10517000809370002FEFC21621E0D20618F08FEF57
:1051800080937C00FFEFCF1ADF0AD092C202C09258
:10519000C102DFCD62A173A184A195A10E94FE0D81
:1051A000D6CF62A373A384A395A3F80162A173A1D0
:1051B00084A195A10E94730A61157105810591056D
:1051C00011F4F801CACFAB01BC01490D511D611D9D
:1051D000711DF80146A357A360A771A790E080E076
:1051E0000E94F524F801892B09F0B7CF81818064F2
:1051F0008183F80186899789917020E032E0281B2D
:10520000390B47012E153F0508F449012401712C83
:10521000612CB301A401C1010E94F524F801892B7E
:1052200009F09BCF86899789A08DB18D840D951D3E
:10523000A61DB71D868B978BA08FB18F280C391CAC
:10524000E818F908A80CB91C2C01F1E05F224528E8
:1052500009F05ACF0E94EE0AF801892B09F07DCFA0
:1052600081818F7B818350CFA12C84E078CF80E037
:1052700076CF3FEFC31631E0D30608F483CF811118
:105280007ECF85E00115110569F0F801818180FF6D
:1052900014C086FF0CC00E94EE0A892B41F0F80171
:1052A000118281E01092BA028093700068CFF801F9
:1052B00081818F7B818380E0F5CF84E0F3CF2EE086
:1052C0002F15F8F011E01F0DF11001C010E0612F53
:1052D000609561708CE00E946D07612F62708BE0B9
:1052E0000E946D070091B902002359F0612F64708C
:1052F0008AE00E946D07612F687087E1023008F034
:1053000000CE8FEF80937C009ECCFF20D1F3F092F3
:105310006F001FCD8F2D81708093B6021ACD8091C2
:10532000B502882371F380E20E94CF0683E190E00A
:105330000E94070A6F2D83E594E00E94D8090E941D
:10534000CC061091B402110F80E20E94CF0682E1D8
:1053500090E00E94070A612F6C6F83E594E00E9441
:10536000D8090E94CC061D6F1093BB0280E20E94F8
:10537000CF0682E190E00E94070A612FD8CD90917C
:10538000B302992309F4E5CC11E0803209F410E06E
:105390008091CE028330F0F080EE8F0D8F3500F5D6
:1053A0008F2D1F928F931F92FF92812F90E08F5B22
:1053B0009F4F9F938F938EE39AE09F938F9386E7FF
:1053C00093E09F938F930E94AB140FB6F894DEBFC7
:1053D0000FBECDBF4F2D60E0812F0E94D314B9CCFA
:1053E0008EE2DFCF9091B302992309F4B2CCBB24B3
:1053F000B394823209F4B12C0F2D10E076E01595AC
:1054000007957A95E1F75F2D5F71D52E9091CE02C9
:10541000923000F1823209F081C080E89BE09F93D6
:105420008F9366E7E62E63E0F62EFF92EF920E94DE
:10543000AB148091C3021F928F9388E89BE09F93E7
:105440008F93FF92EF920E94AB140FB6F894DEBFD9
:105450000FBECDBF8B2D90E0FC01E459FF4F7F01C3
:1054600080818F71D81651F1E091C302EF7124E071
:10547000E29FF0011124E45DFE4F9080A180C28084
:10548000D3808091CE02823098F0DF92CF92AF929B
:105490009F9245E65BE05F934F9386E793E09F938F
:1054A0008F930E94AB140FB6F894DEBF0FBECDBF32
:1054B000492D5A2DB6018B2D0E940516F7018081CA
:1054C00090E056E0959587955A95E1F708171907EA
:1054D00001F18091CE02823008F4C3C21F930F9372
:1054E00023E53BE03F932F9346E7C42E43E0D42EC1
:1054F000DF92CF920E94AB140F900F900F900F90FD
:105500000F900F900130110511F10CF0B3C2012B77
:1055100041F08091C302F70180831BCC88E79BE0B8
:105520007ECF8091CE02823060F089E49BE09F9331
:105530008F93DF92CF920E94AB140F900F900F9039
:105540000F9040E060E08B2D0E944B25E2CF8091D0
:10555000CE028230B0F323E33BE03F932F9386E704
:1055600093E09F938F93E7CF8091CE02823070F0CB
:1055700084E29BE09F938F9386E793E09F938F93C2
:105580000E94AB140F900F900F900F9041E061E0DC
:10559000DACF84E10E944407892B09F047C282E1F7
:1055A0000E9444071092C302882309F446C08091E8
:1055B000CE02823070F00E94FD138BE09BE00E94CF
:1055C00028098BEF9AE00E9428098091B2020E947C
:1055D00034148FEF8093C30286E793E00E949D0806
:1055E0001816190634F586E793E00E947B0880932D
:1055F000C3021092B10261E081E00E946D078091C8
:10560000B2028E7F8093B20281E080936B001FEF25
:105610001ABB8091C3028BBB60E08EE00E946D07D5
:1056200060E080E00E946D070E9423071ABA1BBB4E
:1056300012CB81E08093B102DECF80917C0088386C
:1056400009F46FC110F5833809F4ABC088F48138D0
:1056500009F480C008F09AC0803809F45FC08091D6
:105660007C008D7F843899F28FEF80937C00CFCFC0
:10567000853809F4FDC008F4BEC0863809F4FBC0C3
:10568000873869F70E94200C7EC0843AF0F5823A90
:1056900008F086C18A3809F463C108F447C1803A2A
:1056A000F0F29091B302992309F478C111E0803AA5
:1056B00009F410E060E0812F0E942115082F8091ED
:1056C000CE028330F8F080EE800F8F3508F064C191
:1056D000802F1F928F931F920F93812F90E08F5BEB
:1056E0009F4F9F938F93EEE5FAE0FF93EF9386E74A
:1056F00093E09F938F930E94AB140FB6F894DEBF94
:105700000FBECDBF0093C302AACF863A08F46FC183
:105710008E3F09F0A4CF8091CE0235C08DE00E946B
:105720004407182F8093BB0262E08DE00E949B0724
:105730008DE00E94440721E0892B09F020E02093AE
:10574000C30261E08DE00E949B07612F8DE00E9403
:105750006D0785CF8091C002882309F485CF80E250
:105760000E94CF0682E190E00E94070A0E94CC06C8
:1057700080E20E94CF0661E070E080E290E00E944B
:105780008B120E94EC068093C30269CF8091C00205
:10579000882309F469CF80E20E94CF0683E190E07C
:1057A000E3CF0091B00210E0000F111FF090AF02A4
:1057B00086E793E00E949D0834E0181619060CF065
:1057C00030E08091B10228E0811101C020E0809199
:1057D000B602F0E18F9FC0011124082BF02A00913E
:1057E000B90240E4049F80011124F02AF32AF22A2E
:1057F000F092C30234CF8091B0028823A9F10091C6
:10580000C1021091C2020115110569F40E94CF1264
:105810008091F7028093C3020F5F1F4F1093C20263
:105820000093C1021CCF07301105F0F48091D10222
:105830000430110579F368F48091F5020230110506
:1058400049F38091D2020330110521F38091F602D1
:10585000E1CF8091D00205301105E1F28091CF02B5
:1058600006301105B9F2F2CF8FEF80937C00F7CEAE
:105870008091700088CF0091C1021091C202011581
:10588000110519F56091BD027091BE02611552E0DB
:105890007507D8F48091BC028032B8F49091700002
:1058A000911113C095E0660F771F9A95E1F7682B69
:1058B00090E080E029E0660F771F881F991F2A95E6
:1058C000D1F70E943E0F809370008091700081118B
:1058D0001DC0802F8F71F82E8093BB0281110FC0E5
:1058E000CE0101960E946E0E99819093AE02903285
:1058F000B0F08093700080917000811107C0EF2D8F
:10590000F0E0E75DFC4F80818093C3020F3F91E0A0
:10591000190708F481CF8FEF80937C007DCF83E15E
:10592000E8CF86E793E00E946C082DCF8091B20209
:105930008093C3021092B2028091CE02823008F4AA
:1059400093CE0E94FD138DEE9AE00E94280980EE0E
:105950009AE00E9428098091C3020E9434147FCEED
:105960008091B502882309F47FCE80E20E94CF06A1
:1059700082E190E00E94070A0E94CC0680E20E9429
:10598000CF0661E070E080E290E00E948B120E94FE
:10599000EC06887F8160F7CE8EE29BCE8AE1F3CE63
:1059A0009091B302992309F111E0823A09F410E0D1
:1059B00069E0812F0E942115082F8091CE0284304A
:1059C00008F4A0CE1F920F93812F90E08F5B9F4F22
:1059D0009F938F938DE79AE09F938F9386E793E051
:1059E0009F938F930E94AB1488CE80E4CCCE90918D
:1059F000B3029923D1F311E0843A09F410E068E08E
:105A0000812F0E942115082F8091CE02843008F446
:105A100079CE1F920F93812F90E08F5B9F4F9F93C2
:105A20008F934CE95AE05F934F93D8CF61E081E0C8
:105A30000E946D078091CE02823070F00E94FD13AB
:105A40008BEC9AE00E9428098BEB9AE00E942809CF
:105A50008091B2020E9434141FEF1ABB80916E0035
:105A6000DACD0130110509F472CD24F4012B09F4CB
:105A700068CD4FCD0230110509F476CD0330110504
:105A800009F047CD8091CE02823008F442CD29E161
:105A90003BE03F932F9386E793E09F938F930E9481
:105AA000AB140F900F900F900F9033CD8FE594E0D3
:105AB0000E94B11685E694E00C94B1161F93FC0188
:105AC00099278827BC01E89411911032E9F3193025
:105AD00010F01E30C8F31B3251F01D3249F46894A7
