:100000000C9465060C948F060C948F060C948F0646
:100010000C948F060C948F060C948F060C948F060C
:100020000C948F060C948F060C948F060C948F06FC
:100030000C948F060C948F060C948F060C948F06EC
:100040000C948F060C948F060C94C2230C948F068C
:100050000C9429240C94FF230C948F060C948F0687
:100060000C948F060C948F060C945E240C948F06CF
:100070000C948F060C948F060C948F060C948F06AC
:100080000C948F060C948F060C948F063110FD2172
:1000900052FDCDC6FECD3EFFCDF4FD3EFFBC20108F
:1000A000BD200D21D9FDCDC6FE2188FDCDC6FE7631
:1000B000E521D9FDCDC6FE2175FDCDC6FEE1CD4BB6
:1000C000FFCD3EFFCD3EFFDB01FEFF20FAE9694C8C
:1000D0006F6164202D20496E74656C2D4865782011
:1000E0004C6F61646572202D2053323030373138C7
:1000F000005374617274696E672041646472657341
:10010000733A20004C6F6164206572726F72202D0B
:100110002053797374656D2068616C746564005751
:10012000616974696E6720696E707574207374728A
:1001300065616D2E2E2E0053796E74617820657284
:10014000726F722100436865636B73756D20657211
:10015000726F722100694C6F61643A2000416464DF
:10016000726573732076696F6C6174696F6E2100BC
:10017000F5D5C501FFFF21A3FDCDC6FECD3EFFCDC8
:1001800072FFFE0D28F9FE0A28F5FE2028F1CD1A8F
:10019000FFCD69FFFE3AC2A3FECDE1FE571E00CDA2
:1001A000BEFECDD6FE3EFFB82005B92002444D7CF0
:1001B000CDBEFE7DCDBEFECDE1FECDBEFEFE01205C
:1001C0001ECDE1FECDBEFE7BA72866CD3EFF21D928
:1001D000FDCDC6FE21C9FDCDC6FE01FFFF18527A36
:1001E000A7282CCDE1FECDBEFEE5C5A701F0FCEDB4
:1001F00042C1E1DA8EFECD3EFF21D9FDCDC6FE2102
:10020000E1FDCDC6FE01FFFF182777231518D0CDDD
:10021000E1FECDBEFE7BA720B2CD3EFFC303FECDE7
:100220003EFF21D9FDCDC6FE21BBFDCDC6FE01FF9F
:10023000FFCD3EFF6069C1D1F1C9C54F7B915F79A8
:10024000C1C9F5E57EFE002806CD69FF2318F5E15A
:10025000F1C9F5CDE1FE67CDE1FE6FF1C9C5CDF481
:10026000FECB07CB07CB07CB0747CDF4FEB0C1C908
:10027000CD72FFCD1AFFCD06FF30F5CD23FFCD2E79
:10028000FFC9FE47D0FE3030023FC9FE3AD8FE41DA
:1002900030023FC937C9FE61D8FE7BD0E65FC9FE98
:1002A0003A3802D607D630E60FC9F5E60FC630FE5B
:1002B0003A3802C607CD69FFF1C9F53E0DCD69FF99
:1002C0003E0ACD69FFF1C9E5F57CCD58FF7DCD58DB
:1002D000FFF1E1C9F5C5470F0F0F0FCD2EFF78CD08
:1002E0002EFFC1F1C9F53E01D301F1D300C9DB01F5
:1002F000FEFFCA72FFC9494F533A2052544320733C
:10030000657420617420636F6D70696C6520746919
:100310006D65202D204E6F773A2000293F205B59D4
:100320002F4E5D203E000A446F20796F7520776163
:100330006E74207365742052544320617420494FB9
:100340005320636F6D70696C652074696D6520283A
:1003500000494F533A2052544320636C6F636B2023
:100360006661696C7572652100494F533A20525499
:1003700043204453333233312074656D70657261AC
:10038000747572652073656E736F723A202564C24E
:10039000B0430D0A00494F533A20466F756E6420F2
:1003A00052544320445333323331204D6F64756CC3
:1003B00065202800494F533A205254432064617409
:1003C000652F74696D65207570646174656420289B
:1003D00000202E2E2E646F6E652020202020200A03
:1003E000005365636F6E6473202D3E20004D696E6F
:1003F00075746573202D3E2000486F757273202D33
:100400003E200020446179202D3E20002020202025
:10041000202020202020202020004D6F6E74682096
:100420002D3E200059656172202D3E200020000ADB
:10043000507265737320542F5520746F20696E635A
:1004400072656D656E74202B31302F2B31206F72E9
:1004500020435220746F20616363657074000A4901
:100460004F533A20525443206D616E75616C207376
:10047000657474696E673A000D0A50726573732073
:10048000435220746F206163636570742C20455360
:100490004320746F2065786974206F7220616E79D3
:1004A000206F74686572206B657920746F206368B3
:1004B000616E676500494F533A205A38302069739E
:1004C0002072756E6E696E672066726F6D206E6F3A
:1004D000770020446F6E6500494F533A204C6F619E
:1004E00064696E6720626F6F742070726F677261EB
:1004F0006D2E2E2E00494F533A204C6F6164696E69
:100500006720626F6F742070726F6772616D202850
:100510002573292E2E2E0044454255473A20426F1E
:100520006F7453747241646472203D2000444542EC
:1005300055473A20466C61736820426F6F74496D6D
:1005400061676553697A65203D20004445425547FF
:100550003A20496E6A6563746564204A5020307899
:10056000253034580D0A008C00494F533A2043750A
:100570007272656E74200044454255473A20626F9E
:100580006F744D6F64653A2025640D0A0025642060
:100590004B42797465730D000D202D3E0043686158
:1005A0006E6765642073706565642077696C6C2084
:1005B0006265206566666563746976652061667448
:1005C0006572206E657874207265626F6F74210D9C
:1005D0000A0A000D0A0A000D202D3E256C64202019
:1005E000200D000D0A0A002020202020202020209D
:1005F00020202020202020200D000D202D3E003F17
:10060000566572626F73697479206C6576656C20CB
:1006100025640D0A000D0A456E74657220796F75A8
:10062000722063686F696365203E20002020256387
:100630003A2052414D2073697A6520282564204B69
:100640004279746573290D0A00202025633A2053EE
:100650006574205254432054696D652F446174655C
:100660000D0A00202025633A2053657420536572DB
:1006700069616C20506F7274205370656564202826
:10068000256C64290D0A00202025633A20546F67E9
:10069000676C652043502F4D204175746F657865F8
:1006A0006320282D3E202573290D0A002020256374
:1006B0003A204368616E6765205A383020436C6F7A
:1006C000636B20537065656420282D3E20256420CF
:1006D0004D487A290D0A00202025633A20694C6F85
:1006E00061640D0A0A000D0A202025633A20417535
:1006F000746F626F6F740D0A00202025633A204CDE
:100700006F61642F536574204F53200020202563B0
:100710003A20466F7274680D0A00202025633A2043
:1007200042617369630D0A00202025633A204578F1
:10073000697420776974686F7574206368616E6787
:1007400065202827256327290D0A0A000D0A494F2D
:10075000533A2053656C65637420426F6F74204D6B
:100760006F6465206F722053797374656D205061DA
:1007700072616D65746572733A0D0A0A00494F53D0
:100780003A2043502F4D204175746F657865632082
:1007900069732025730D0A00494F533A20466F753F
:1007A0006E642053494F41202F2053494F42204F20
:1007B0007074696F6E00494F533A20466F756E64CE
:1007C00020475045204F7074696F6E0020284354B5
:1007D000532C20525453207573656420617320425A
:1007E000414E4B322C2042414E4B33207369676E91
:1007F000616C2C2043453220696E766572746564A5
:1008000029002028435453207573656420617320A8
:1008100042414E4B32207369676E616C2900494F2B
:10082000533A202564204B42797465732052414D20
:1008300000494F533A205A383020636C6F636B2065
:10084000736574206174202564204D487A0D0A0078
:10085000494F533A20466F756E6420657874656E13
:100860006465642073657269616C205278206275DA
:100870006666657220282564206279746573290D87
:100880000A00322E302E323630313131202D204ABE
:10089000616E20313320323032362031373A3337EF
:1008A0003A3236000D0A0A5A38302D4D4243322D65
:1008B0004E47202D2041303430363138202D204114
:1008C000546D6567613132383470202D20256420E5
:1008D0004D487A0D0A00494F533A20436865636BCF
:1008E00020534420616E6420707265737320612010
:1008F0006B657920746F207265706561740D0A00F4
:10090000202D2046696C653A2000206F7065726169
:1009100074696F6E0052454144004F50454E004D82
:100920004F554E5400206F6E2000554E4B4E4F5782
:100930004E004E4F5F46494C4553595354454D0068
:100940004E4F545F454E41424C4544004E4F545F1C
:100950004F50454E4544004E4F5F46494C45004E72
:100960004F545F5245414459004449534B5F4552EF
:1009700052000D0A494F533A205344206572726F5A
:100980007220003F3F53494F25633A2041637475FD
:10099000616C2062617564726174653A2025640D32
:1009A0000A003F3F53494F25633A2043616C63750A
:1009B0006C617465642064697669736F723A20258E
:1009C000640D0A003F3F53494F25633A2044657345
:1009D000697265642062617564726174653A20258C
:1009E000640D0A003F3F3F53494F25633A2053654A
:1009F000744175746F48616E647368616B6520251E
:100A0000642C2025640D0A003F3F3F3F3F53494F70
:100A100025633A2052656164526567697374657233
:100A200020307825303258202825732920726573AC
:100A30003D3078253032580D0A003F3F3F3F3F534D
:100A4000494F25633A205772697465526567697327
:100A5000746572203078253032582028257329207B
:100A600076616C3D3078253032580D0A003F3F3FAB
:100A700053494F25633A205772697465427974650A
:100A8000203078253032582025630D0A003F3F3F43
:100A900053494F25633A2052656164427974652059
:100AA0003078253032582025630D0A003F3F3F3F04
:100AB00053494F25633A205278204649464F204CEF
:100AC0006576656C3A2025640D0A003F3F3F3F5331
:100AD000494F25633A205478204649464F205370A9
:100AE0006163653A2025640D0A00202D206972712A
:100AF000537461747573203D200044454255473A54
:100B000020494E542041434B206379636C6500209B
:100B10002D20696F44617461203D20004445425599
:100B2000473A2053595349525100202D2069727180
:100B3000537461747573203D200044454255473A13
:100B40002053455220525800726573657276656471
:100B50000D0A006175746F205254532F4354530D86
:100B60000A006175746F20586F6E2F586F6666208B
:100B7000284E5949290D0A0064697361626C650D3C
:100B80000A00202D2068616E647368616B653A20ED
:100B900025642000202D2062617564726174653ABD
:100BA00020256C640D0A003F3F53494F423A003FF5
:100BB0003F53494F413A002073657420636F6E7450
:100BC000726F6C3A203078253032580000002100D6
:100BD000240027002A0000002200250028002B0006
:100BE0000000200023002600290002020202020267
:100BF00002020404040404040404030303030303BF
:100C00000303010101010101010101020408102097
:100C100040800102040810204080010204081020D6
:100C20004080010204081020408000000002030000
:100C30000A0B000000000504090800000000000085
:100C4000000000000000000000003F3F3F53494FFC
:100C500025633A204649464F536574547269676765
:100C600065724C6576656C2825735F4649464F3A38
:100C70002026640D0A003F53494F25633A204C4318
:100C8000522052656769737465723A203078253056
:100C900032780D0A000D0A0A494F533A2042617515
:100CA00064207265636F7665727920646F6E65206B
:100CB0002D20506C65617365207265626F6F7420C2
:100CC0006E6F772100002C263A2E11241FBECFEF25
:100CD000D0E4DEBFCDBF25E0A0EFB2E001C01D92A1
:100CE000A039B207E1F712E0A0E0B1E0EEEFF7E6DD
:100CF00000E00BBF02C007900D92A03FB107D9F7EB
:100D000016E0C4E6D6E004C02197FE010E94A63199
:100D1000C336D107C9F70E9482260C94F2330C9493
:100D20000000282F9091C50381E0913208F042C065
:100D30008091A1038111FCCF8091C40332E03093F4
:100D4000A1032093A0032FEF20939F0324EA33E015
:100D500030939E0320939D0310929C0390939B03DA
:100D600010929A0390919A03880F892B80939A038B
:100D700080919903813029F51092990380919A030B
:100D80008093BB008091BC0083FDF8CF85EC8093FD
:100D9000BC008091A1038230E1F380919F038F3FDB
:100DA00091F080919F03803281F080919F03803386
:100DB00071F084E01092A3031092C5031092A20375
:100DC000089585EEE4CF80E0F5CF82E0F3CF83E0B5
:100DD000F1CF81E00C94910691E09093A20380936F
:100DE000C4031092A3031092C50308959091950334
:100DF000809194032FEF3FEF981748F4E92FF0E02C
:100E0000EC58FC4F208130E09F5F90939503C9011F
:100E1000089590919503809194032FEF3FEF9817D9
:100E200048F4E92FF0E0EC58FC4F208130E09F5F60
:100E300090939503C9010895FB01A485B585ED91B3
:100E4000FC9111970190F081E02D682FCD0109955B
:100E500090E080E008952091840530918505821707
:100E6000930760F4209180053091810521153105AB
:100E700029F0280F391FF9018081089580E0089535
:100E800087E090E00197F1F7089582508A3088F565
:100E9000E82FF0E0E25BF84F0C94A63176077A0772
:100EA00058075E0779077907620768076C077207BA
:100EB000809180008F7780938000089580918000DA
:100EC0008F7DF9CF8091B0008F778093B000089527
:100ED0008091B0008F7DF9CF809190008F778093C3
:100EE00090000895809190008F7DF9CF84B58F7721
:100EF00084BD089584B58F7DFBCFCF93DF93282FDA
:100F000030E0F901E65DF34F8491F901E65FF34FBC
:100F1000D491F901E651F44FC491CC23A1F0811191
:100F20000E944507EC2FF0E0EE0FFF1FE052F44F58
:100F3000A591B491EC91ED2381E090E009F480E07B
:100F4000DF91CF91089580E090E0FACF1F93CF9387
:100F5000DF93282F30E0F901E65DF34F8491F9012A
:100F6000E65FF34FD491F901E651F44FC491CC23DD
:100F7000A9F0162F81110E944507EC2FF0E0EE0F2B
:100F8000FF1FEA52F44FA591B4918FB7F894EC91FA
:100F9000111108C0D095DE23DC938FBFDF91CF9174
:100FA0001F910895DE2BF8CFCF93DF9390E0FC01E3
:100FB000E65FF34F24918651944FFC01849188237E
:100FC000C9F090E0880F991FFC01E453F44FA591FC
:100FD000B491FC01EA52F44FC591D49161110DC056
:100FE0009FB7F8948C91209582238C938881282335
:100FF00028839FBFDF91CF910895623051F49FB74E
:10100000F8943C91822F809583238C93E8812E2B3A
:10101000EFCF8FB7F894EC912E2B2C938FBFEACFA4
:10102000CF92DF92EF92FF926FB7F89480916B03AB
:1010300090916C03A0916D03B0916E0350916A037F
:1010400026B535B3432F417030FF04C041E02F3F38
:1010500009F440E06FBF6C017D0137E0CC0CDD1C72
:10106000EE1CFF1C3A95D1F7C50ED11CE11CF11CFA
:10107000C81AD90AEA0AFB0A880F991FAA1FBB1FC0
:10108000C81AD90AEA0AFB0A63E0CC0CDD1CEE1C84
:10109000FF1C6A95D1F730E0AAEAB2E00E94553110
:1010A000672F782F892F99276C0D7D1D8E1D9F1D11
:1010B000442321F066557D4F8F4F9F4FFF90EF9057
:1010C000DF90CF9008958F929F92AF92BF92CF9270
:1010D000DF92EF92FF924B015C010E9410086B01BE
:1010E0007C010E9410086C197D098E099F09683ED9
:1010F000734081059105A8F321E0821A9108A108A7
:10110000B10888EEC80E83E0D81EE11CF11C8114E2
:101110009104A104B10429F7FF90EF90DF90CF90E4
:10112000BF90AF909F908F9008952FB7F8946091E3
:101130006B0370916C0380916D0390916E032FBFD0
:101140000895AF92BF92CF92DF92EF92FF920F93EA
:101150001F93CF93DF936C017B018B01040F151F4D
:10116000EB015E01AE18BF08C017D10759F06991B5
:10117000D601ED91FC910190F081E02DC601099519
:10118000892B79F7C501DF91CF911F910F91FF90C6
:10119000EF90DF90CF90BF90AF900895FC01538DFA
:1011A000448D252F30E0842F90E0821B930B541741
:1011B00010F0CF96089501970895FC01918D828DCE
:1011C000981759F0A28DAE0FBF2FB11D5D968C916F
:1011D000928D9F5F928F90E008958FEF9FEF08951B
:1011E000FC01918D828D981731F0828DE80FF11DF1
:1011F000858D90E008958FEF9FEF0895FC01918D0C
:10120000828D981B892F90E0089587E194E00E94D9
:10121000FE0821E0892B09F420E0822F0895FC01CB
:10122000A48DA80FB92FB11DA35EBE4F2C91848D44
:1012300090E001968F739927848FA689B7892C93A4
:10124000A089B1898C91837080648C93938D848DF7
:10125000981306C00288F389E02D80818F7D8083FA
:101260000895EF92FF920F931F93CF93DF93EC01BA
:1012700081E0888F9B8D8C8D98131AC0E889F9893D
:10128000808185FF15C09FB7F894EE89FF89608340
:10129000E889F98980818370806480839FBF81E0C1
:1012A00090E0DF91CF911F910F91FF90EF90089503
:1012B000F62E0B8D10E00F5F1F4F0F731127E02EDE
:1012C0008C8D8E110CC00FB607FCFACFE889F98916
:1012D000808185FFF5CFCE010E940F09F1CFEB8D04
:1012E000EC0FFD2FF11DE35EFE4FF0829FB7F894E7
:1012F0000B8FEA89FB8980818062CFCF0F931F9388
:10130000CF93DF938C01D0E0C0E0F801EC0FFD1F1C
:101310006491662341F087E194E00E943109892BB2
:1013200011F02196F2CFCE01DF91CF911F910F9155
:101330000895CF93DF93EC01888D8823B9F0AA89B3
:10134000BB89E889F9898C9185FD03C0808186FD80
:101350000DC00FB607FCF7CF8C9185FFF2CF8081CF
:1013600085FFEDCFCE010E940F09E9CFDF91CF912C
:10137000089581E08093500308950E940509882311
:1013800019F081E08093500380E090E0892B49F0D0
:1013900080E090E0892B29F00E94000081110C94DC
:1013A0000000089585ED8093BC008091BC0084FD11
:1013B000FCCF1092A103089520912503260F332717
:1013C000331F21323105ECF42091A103FC0190E0A0
:1013D00080E0243069F082E00895A09125032191F6
:1013E000AC014D5F5C4FA40FB52FB11D2C9301963E
:1013F000861798F380912503680F6093250380E09A
:10140000089581E00895089508950895E091950361
:1014100080919403E81730F4F0E0EC58FC4F8081A1
:1014200090E008958FEF9FEF08958091940390913D
:101430009503891B990B0895CF92DF92EF92FF924B
:101440000F931F93CF93DF937C01CB018A012091EF
:10145000A203222389F0EB016B01C40ED51ECC152B
:10146000DD0569F06991D701ED91FC910190F08162
:10147000E02DC7010995F3CF642F0E94DC09C80154
:10148000DF91CF911F910F91FF90EF90DF90CF9060
:101490000895CF93DF931F92CDB7DEB76983209174
:1014A000A2032223F9F02091C503203258F021E055
:1014B00030E0FC013383228390E080E00F90DF91E5
:1014C000CF9108958091A303E82FF0E0EC55FC4FF5
:1014D000998190838F5F8093A3038093C50381E0FC
:1014E00090E0ECCF61E0CE0101960E94DC09F7CFDD
:1014F000682F84E795E00C94490A0F931F93CF93CC
:10150000DF93082F162FD42F88E60E94EC0690E078
:1015100080E00E94780A80919803CAE06C2F0E94B4
:1015200064318295807F682F690F84E795E00E947F
:10153000490A809197036C2F0E9464318295807FC5
:10154000682F690F84E795E00E94490A809196030D
:101550006C2F0E9464318295807F682F690F84E729
:1015600095E00E94490A81E090E00E94780A802F6D
:101570006C2F0E9464318295807F682F690F84E709
:1015800095E00E94490A812F6C2F0E946431829558
:10159000807F682F690F84E795E00E94490A8D2FAC
:1015A0006C2F0E9464318295807F682F690F84E7D9
:1015B00095E00E94490ADF91CF911F910F910C9401
:1015C000E90690E080E008950F931F93E0911504E1
:1015D000F09116049B01AC012250310941095109D7
:1015E00086819781A085B1850297A109B109281745
:1015F00039074A075B0778F4A281B0E00E944A31BC
:101600000289138924893589600F711F821F931FF6
:101610001F910F91089560E070E0CB01F9CF0F9317
:101620001F93CF93DF93EC01E0911504F091160422
:10163000198218826C817D818E819F816130710554
:101640008105910581F1068117812085318560171B
:1016500071078207930738F56115710581059105BA
:1016600039F42081233021F466857785808991893A
:10167000688779878A879B87611571058105910540
:1016800069F00E94E40A6C877D878E879F8790E0CF
:1016900080E0DF91CF911F910F9108956685778546
:1016A00080899189F0CF81E090E0F3CF8EBD0DB4B9
:1016B00007FEFDCF08958FEF0E94560B8EB508955B
:1016C0000F931F93CF93DF93C0914A03D0914B03A5
:1016D0002197CD3F8FEFD80721F080E00E94560B75
:1016E000F7CF0E945B0B8F71853079F0D1E0C0E0BD
:1016F00061E084E00E94A6070E945B0B8D2F9C2F67
:10170000DF91CF911F910F91089508E813E1C8E58B
:10171000D2E00E945B0B8F3F49F00115110531F3B8
:10172000CE010197F1F701501109F3CFD1E0C0E0EC
:10173000012BF1F2D0E0DCCFFF920F931F93CF93F8
:10174000DF93C82FD42F152F062FF72E8091EA0391
:1017500081113FC083E58CBD1DBCC7FF09C040E0BF
:1017600050E0BA0187E70E949C0B823060F5CF778A
:1017700061E084E00E94A6070E945B0B60E084E0C9
:101780000E94A6070E945B0B8C2F0E94560B8F2D88
:101790000E94560B802F0E94560B812F0E94560BE1
:1017A0008D2F0E94560B85E9C03421F087E8C8349C
:1017B00009F081E00E94560BCAE00E945B0B87FF94
:1017C00002C0C150D1F7DF91CF911F910F91FF90CF
:1017D000089580E58CBD81E08DBDBFCFCF92DF92B3
:1017E000EF92FF920F931F93CF93DF937C016901D8
:1017F0008091EA0383FD07C089E0440F551F661FEF
:10180000771F8A95D1F781E50E949C0B811108C052
:10181000C0E4DCE90E945B0B8F3F29F42197D1F7EC
:10182000C1E0D0E022C08E3FD9F7C2E0D2E0C01BB9
:10183000D10BCC19DD0981E0C81AD10818F00E943B
:101840005B0BF9CFE114F10401F10E0D1F1D0E9495
:101850005B0BF70181937F010E171F07C1F70E94F1
:101860005B0B2197E1F7D0E0C0E061E084E00E94EB
:10187000A6070E945B0BCE01DF91CF911F910F91C4
:10188000FF90EF90DF90CF9008950E945B0B015086
:101890001109D9F7E4CFCF92DF92EF92FF920F9325
:1018A0001F93CF93DF93EC016A017B0102E010E00C
:1018B0002EEF31E00E94EE0B892B31F58881998162
:1018C00085359A4A59F526E330E0B701A601CE01E5
:1018D0000E94EE0B892B29F48881998186349144EA
:1018E00089F002E010E022E530E0B701A601CE0168
:1018F0000E94EE0B892BA1F481E0288139812634E6
:10190000314419F480E001C083E0DF91CF911F9151
:101910000F91FF90EF90DF90CF90089582E0F5CF88
:1019200081E0F3CF4F925F926F927F928F929F925E
:10193000AF92BF92CF92DF92EF92FF920F931F93DD
:10194000CF93DF93CDB7DEB7A4970FB6F894DEBF81
:101950000FBECDBF10921604109215048091EA03B9
:10196000882339F084E00E947D07892B11F40E94BE
:10197000600B61E084E00E94A60761E084E00E94C1
:10198000D40761E085E00E94D40761E087E00E940F
:10199000D40761E084E00E94D40783E58CBD1DBCC0
:1019A00061E084E00E94A6071AE00E945B0B1150E0
:1019B000E1F740E050E0BA0180E40E949C0B182F50
:1019C000813009F441C010E01093EA0361E084E043
:1019D0000E94A6070E945B0B82E090E01123E9F0D1
:1019E00040E050E0BA01CE0101960E944B0CC12CA0
:1019F000D12C7601813009F096C000E110E02EEB89
:101A000031E040E050E0BA01CE0101960E94EE0BB9
:101A1000892B09F478C081E090E0A4960FB6F89481
:101A2000DEBF0FBECDBFDF91CF911F910F91FF9011
:101A3000EF90DF90CF90BF90AF909F908F907F906E
:101A40006F905F904F9008954AEA51E060E070E037
:101A500088E40E949C0B813091F5CE0101967C01B7
:101A60006E0195E0C90ED11C87010E945B0BF80145
:101A700081938F01CE16DF06C1F78B81813009F08B
:101A8000A2CF8C818A3A09F09ECF80E1C82E87E2EE
:101A9000D82E98E5A92E92E0B92E40E050E060E003
:101AA00070E489EE0E949C0B882309F4C9C0C5012B
:101AB0000197F1F7F1E0CF1AD10879F784CF40E030
:101AC00050E0BA0189EE0E949C0B01E4823010F4D0
:101AD00012E009EEA0E1EA2EA7E2FA2EB8E5CB2E3D
:101AE000B2E0DB2E40E050E0BA01802F0E949C0B58
:101AF000882309F4BBC0C6010197F1F7F1E0EF1AA2
:101B0000F10881F760CF8D81811103C086E090E0FC
:101B100084CFC984DA84EB84FC84B701A601CE01AA
:101B200001960E944B0C833009F475CF8111EECFE2
:101B300004E210E02DE030E0B701A601CE010196ED
:101B40000E94EE0B892B09F066CF2A853B8550E079
:101B500040E0211531054105510521F4288D398DCD
:101B60004A8D5B8DAC81B0E00E944A314B015C0133
:101B70004A815B8170E060E0C40ED51EE61EF71E50
:101B8000C092F503D092F603E092F703F092F803C7
:101B9000E981E093ED038D819E819093F003809322
:101BA000EF030F81188530E020E0011511052105B4
:101BB000310521F40C891D892E893F89F4E0969521
:101BC0008795FA95E1F72C01712C612C041B150BFC
:101BD000260B370BC901B801681979098A099B09D5
:101BE00064197509860997092E2F30E050E040E00E
:101BF0000E948431DA01C9010296A11DB11D8093B2
:101C0000F1039093F203A093F303B093F403265FE0
:101C10003F40410951092F3F3F4E4105510588F191
:101C2000873F9F4FA105B10588F570CF82E0809373
:101C3000EB03D501C4018C0D9D1DAE1DBF1D2DC034
:101C400040E050E0BA018AE70E949C0B8111BBCEB4
:101C50000E945B0BF70181937F010E171F07C1F7ED
:101C600089811CE086FDB0CE14E0AECE40E052E0AB
:101C700060E070E080E50E949C0B882309F4A4CE0C
:101C8000A2CE873F9F4FA105B10580F283E08093EC
:101C9000EB0388A199A1AAA1BBA18093F90390931A
:101CA000FA03A093FB03B093FC03C40CD51CE61C01
:101CB000F71C8C0C9D1CAE1CBF1C8092FD039092E7
:101CC000FE03A092FF03B09200041092EC038BEE8F
:101CD00093E0909316048093150490E080E09DCEED
:101CE0000F931F93CF93DF9300D000D0CDB7DEB713
:101CF000623071058105910528F461E070E080E0B3
:101D000090E055C0E0911504F0911604068117810A
:101D100020853185601771078207930770F7AB0143
:101D2000BC018081823031F1833039F79A012F77FD
:101D30003327220F331F220F331F97E076956795C5
:101D4000579547959A95D1F782859385A485B58552
:101D5000480F591F6A1F7B1F04E010E0CE01019657
:101D60000E94EE0B892B49F669817A818B819C81D7
:101D70009F701DC09A013327220F331F452F562F06
:101D8000672F772782859385A485B585480F591FCE
:101D90006A1F7B1F02E010E0CE0101960E94EE0B4D
:101DA000892B09F0AACF69817A8190E080E00F90B9
:101DB0000F900F900F90DF91CF911F910F91089589
:101DC0006F927F928F929F92AF92BF92CF92DF924B
:101DD000EF92FF920F931F93CF93DF93C09115045F
:101DE000D0911604FC0111821082209709F4AFC033
:101DF000298120FFAFC00A8D1B8D2C8D3D8D4E8912
:101E00005F89688D798D68017901C41AD50AE60A5F
:101E1000F70AB701A601403251056105710520F0AE
:101E200040E250E060E070E05C017A013AEC832E21
:101E300033E0932E612C42E0742EE114F10409F496
:101E40008CC08E899F89A88DB98DAC01BD01517060
:101E500066277727452B462B472B09F04AC0DA80A7
:101E6000DA94AC01BD0129E07695679557954795C1
:101E70002A95D1F7D42251F5892B8A2B8B2BD9F4B3
:101E80006E8D7F8D88A199A16230710581059105C4
:101E9000C8F4198281E090E0DF91CF911F910F91FA
:101EA000FF90EF90DF90CF90BF90AF909F908F907A
:101EB0007F906F9008956AA17BA18CA19DA10E9443
:101EC000700EE2CF6AA37BA38CA39DA36AA17BA122
:101ED0008CA19DA10E94E40A6115710581059105FF
:101EE000C1F26D0D711D811D911D6EA37FA388A789
:101EF00099A72E893F893170C301821B930B67011B
:101F00008E159F0508F46C014EA15FA168A579A507
:101F10008601C4010E94EE0B892B09F0BACF8E898D
:101F20009F89A88DB98D8C0D9D1DA11DB11D8E8B16
:101F30009F8BA88FB98F8C0C9D1CEC18FD08F501A8
:101F400080819181C80ED91ED182C08276CF85E072
:101F500090E0A2CF84E090E09FCF90E080E09CCF23
:101F60004F925F926F927F928F929F92AF92BF92A9
:101F7000CF92DF92EF92FF92CF93DF9300D000D009
:101F800000D0CDB7DEB720911504309116043E8302
:101F90002D832115310509F40CC1D90111962C911D
:101FA000119720FF09C15A96CD90DD90ED90FC90DD
:101FB0005D976C157D058E059F0510F46B017C0106
:101FC000ED81FE8146885788608C718C168A178A4D
:101FD000108E118EC114D104E104F10409F4E6C09D
:101FE0008280912CB12CA12C39E0880C991CAA1C60
:101FF000BB1C3A95D1F7411451046104710409F4F2
:1020000070C0B1E04B1A510861087108C701B601F0
:102010006150710981099109A50194010E948431DF
:1020200029833A834B835C83C301B201A5019401E8
:102030000E94843189819A81AB81BC818217930788
:10204000A407B50708F44DC088279927DC01881933
:102050009909AA09BB0984219521A621B721ED81FF
:10206000FE81868B978BA08FB18FC81AD90AEA0A96
:10207000FB0A62A173A184A195A18C149D04AE04F6
:10208000BF0408F058C00E94700E623071058105CF
:10209000910568F0AD81BE8116964D905D906D9072
:1020A0007C901997641575058605970540F1ED81BB
:1020B000FE81118281E090E026960FB6F894DEBF93
:1020C0000FBECDBFDF91CF91FF90EF90DF90CF900B
:1020D000BF90AF909F908F907F906F905F904F9048
:1020E0000895AD81BE815E966D917D918D919C919B
:1020F0009197FD0162A373A384A395A3BECFAD8185
:10210000BE8192966D937D938D939C9395975696F1
:102110004D905D906D907C905997480C591C6A1CAD
:102120007B1CFD01468A578A608E718EC818D908BB
:10213000EA08FB08A2CFAD81BE8156968D909D9096
:10214000AD90BC905997C80CD91CEA1CFB1CFD0132
:10215000C68AD78AE08EF18E0E94E40AAB01BC01E8
:10216000411551056105710529F4AD81BE811196B6
:102170001C92A0CFED81FE8182818150990B092EA6
:10218000000CAA0BBB0B29E0F694E794D794C794F4
:102190002A95D1F78C219D21AE21BF21480F591FCF
:1021A0006A1F7B1F46A357A360A771A790E080E03A
:1021B00083CF85E090E080CF84E090E07DCF4F92A8
:1021C0005F926F927F92BF92CF92DF92EF92FF92D7
:1021D0000F931F93CF93DF93CDB7DEB7EC970FB676
:1021E000F894DEBF0FBECDBFE0901504F09016044A
:1021F000E114F10409F404C1F70111829E012F5C7E
:102200003F4F3CA32BA39C016901F90180812F5F03
:102210003F4F8032C9F38F3209F469011DA21EA21B
:102220001FA218A6F6018081A0E2BA2E803208F023
:10223000D4C0CE0181960E940F0B1982009709F439
:1022400007C1EC960FB6F894DEBF0FBECDBFDF918D
:10225000CF911F910F91FF90EF90DF90CF90BF90A3
:102260007F906F905F904F90089520E0E0E088E0CD
:10227000D1C0C30ED11C81E0913208F080E01B96E2
:102280008C93CE0181960E940F0B0097D1F629A165
:102290003AA12F703327F5E0220F331FFA95E1F7AB
:1022A0004DA55EA56FA578A900E210E0CE010196CC
:1022B0000E94EE0B892B19F081E090E0C2CF89815A
:1022C000811103C083E090E0BCCF8C8583FD13C0F7
:1022D0000BA11CA19E012F5F3F4FD801B801655F84
:1022E0007F4F6A177B0709F4AEC0F90141919F0146
:1022F0009D914917B1F309A11AA10F5F1F4F11F367
:102300008DA59EA5AFA5B8A90097A105B105D1F2ED
:1023100098012F703327232BB9F40196A11DB11D0D
:102320008DA79EA7AFA7B8AB69A57AA58BA59CA5DD
:10233000F701611571058105910549F48481958145
:102340000817190708F0BECF1AA309A3A0CF22814E
:10235000E22FE150FF0BAF019801E4E0369527959D
:10236000EA95E1F724233523232B71F70E94700EA1
:10237000623071058105910508F49ECFF701468012
:10238000578060847184641575058605970508F08B
:1023900099CF69A77AA78BA79CA70E94E40A6DA78B
:1023A0007EA78FA798ABD0CF84FF8CCFF701808119
:1023B0008330F1F48D899E89B0E0A0E0DC0199279B
:1023C00088274B8D5C8D70E060E0842B952BA62BCD
:1023D000B72B8DA39EA3AFA3B8A7ABA1BCA1FD0152
:1023E000CD010B968E179F0709F43FCFB192FACF1C
:1023F00080E090E0DC01E5CF80E090E0DC013DC0D2
:1024000085E090E01ECF883009F033CF9BE0282F85
:10241000E32F892F31E03E0FEC0DFD2DF11D908152
:10242000913208F426CF9F3209F423CF9E3259F31C
:10243000281708F01ECFFD01E20FF11D9083982FA1
:1024400081E0820FE4CFF8019385992309F4ACCFA2
:102450008981882309F436CF8C8584FD33CFE091C0
:102460001504F09116048081833031F68D899E89A0
:10247000B0E0A0E0DC01992788274B8D5C8D70E0EF
:1024800060E0842B952BA62BB72BF701868F978FB7
:10249000A0A3B1A38D8D9E8DAF8DB8A1828F938F98
:1024A000A48FB58F168A178A108E118E81E08183D2
:1024B00090E080E0C6CECF93DF93D82FC0E061E0FC
:1024C0008FE00E94A60760E08FE00E94A607CF5F22
:1024D000DC13F5CFDF91CF9108951F93CF93DF9356
:1024E000182FD92F81E00E945B1261E080915C037C
:1024F000823009F060E082E00E94A607CFEFC1B908
:1025000081E282B982E00E945B1211B8C2B982E016
:102510000E945B12C1B912B983E00E945B12D2B96A
:1025200082E00E945B1211B8C2B961E080915C0345
:10253000823009F460E082E0DF91CF911F910C942A
:10254000A607CF93DF93D82F81E00E945B1261E052
:1025500080915C03823009F060E082E00E94A6076F
:10256000CFEFC1B986E382B982E00E945B1211B855
:10257000C2B982E00E945B12C1B9D2B982E00E9466
:102580005B1211B8C2B9C0915C0361E0C23009F4BA
:1025900060E082E00E94A60783E00E945B1281E077
:1025A0000E945B1261E0C23009F060E082E00E94AC
:1025B000A607CFEFC1B983E282B982E00E945B1225
:1025C00011B8C2B961E080915C03823009F460E027
:1025D00082E00E94A60783E0DF91CF910C945B120A
:1025E000282F81E0FB019191BF01992321F09217DF
:1025F00019F08F5FF7CF80E00895AC018091A103BF
:102600008111FCCF962F81E08093A1038093A003DA
:102610002FEF20939F0324E733E030939E03209312
:102620009D0310929C032FEF260F20939B03809312
:102630009A0320919A03440F551F822F842B809375
:102640009A03809199038130E9F410929903809163
:102650009A038093BB008091BC0083FDF8CF85EC8A
:102660008093BC008091A1038130E1F380919C03B1
:10267000861710F490919C03109295039093940305
:10268000892F089585EEECCFCF9388E60E94EC0663
:1026900090E080E00E94780A0E94E90662E170E022
:1026A00088E690E00E94FD120E940907982F9295FB
:1026B0009770CAE08F709C9F800D112480939803BF
:1026C0000E940907982F92959F708F709C9F800D94
:1026D0001124809397030E940907982F9295937075
:1026E0008F709C9F800D1124809396030E94090790
:1026F0000E940907982F92959F708F709C9F800D64
:102700001124809373030E940907982F92959F705C
:102710008F709C9F800D1124809372030E94090783
:10272000982F92959F708F709C9F800D112480939D
:1027300071030E940907C150E1F70E9409078093C5
:102740007003CF910895FC0101900020E9F73197C3
:10275000AF01481B590BBC0187E194E00C94A10820
:102760008F929F92AF92BF920F931F93CF93DF935D
:10277000CDB7DEB7A1970FB6F894DEBF0FBECDBFC1
:1027800019A2423008F44AE08E010F5D1F4F842EDB
:10279000912CB12CA12CA50194010E948431E62F2B
:1027A000B901CA01EA30F4F4E05DD801EE938D017D
:1027B000232B242B252B79F790E080E0109719F03C
:1027C000CD010E94A313A1960FB6F894DEBF0FBEF1
:1027D000CDBFDF91CF911F910F91BF90AF909F9090
:1027E0008F900895E95CE1CF009711F00C94A3134A
:1027F00090E080E008951F93CF93DF9300D0CDB792
:10280000DEB7182F85E492E00E94F413612F70E088
:1028100090E080E04AE00E94B013105D1093020146
:1028200080E091E00E94DF10CE0101960E94E00E50
:10283000898180935103882361F08FE492E00E94A4
:10284000F4138AEC93E00E94F41382E592E00E9474
:10285000F4130F900F90DF91CF911F910895CF93B4
:10286000C82F8A3020F485E592E00E94F4136C2F83
:1028700070E090E080E04AE0CF910C94B0138111B9
:102880000E94441384E592E00E94F4138091710346
:102890000E942F1487E592E00E94F4138091720346
:1028A0000E942F1487E592E00E94F4138091730335
:1028B0000E942F148DE492E00E94F41380919603FD
:1028C0000E942F1489E592E00E94F41380919703EF
:1028D0000E942F1489E592E00E94F41380919803DE
:1028E0000C942F148BE592E00C94A313CF93DF93F9
:1028F0000E947E09EC010E9472148C0F9D1FDF91D3
:10290000CF91089587E194E00E94FE0818161906F9
:102910002CF487E194E00E94DD08F4CF86ED98E086
:102920000E94761487E194E00E94FE0818161906AA
:10293000CCF70895CF93DF93682F87E194E00E944E
:102940003109EC010E9472148C0F9D1FDF91CF9111
:102950000895CF93DF93682F70E090E080E04AE025
:102960000E94B013EC010E9472148C0F9D1FDF9126
:10297000CF910895CF93DF9382E592E00E94A31355
:10298000EC010E9472148C0F9D1FDF91CF9108956E
:102990000F931F93CF93DF93D82FC62F8A0182E71F
:1029A00099E00E947E096C2F70E090E080E04AE0A0
:1029B0000E94B0138FE492E00E94F41387E599E03F
:1029C000C330C1F058F489E699E0C13099F08FE541
:1029D00099E0C23079F08AE299E00CC080E499E095
:1029E000C53041F08CE499E0C53020F082E399E0F5
:1029F000C63089F70E947E0985E299E00E947E092F
:102A00008AE199E0D13031F08FE199E0D23011F4D0
:102A100085E199E00E947E098AE099E00E947E09A2
:102A20000115110539F080E099E00E947E09C80186
:102A30000E94F413DF91CF911F910F910C94BA145F
:102A4000CF93DF93CDB7DEB72E970FB6F894DEBFE6
:102A50000FBECDBF8CE197E09A8789871C861B86C5
:102A600082E08C8387E194E09E878D87AE01495E8A
:102A70005F4F6D897E89CE0101960E947E2E2E9633
:102A80000FB6F894DEBF0FBECDBFDF91CF91089592
:102A9000FF920F931F93CF93DF93F42E062F10E036
:102AA000C82FD0E080916F03853020F11F924F93A3
:102AB000C801880F991F880F991F83579E4F9F93B6
:102AC0008F931F926F93CE018F5B9F4F9F938F9336
:102AD0008AE39AE09F938F9387E194E09F938F938B
:102AE0000E9420158DB79EB70C960FB6F8949EBF26
:102AF0000FBE8DBF88E40E94EC06C80123E0880F5A
:102B0000991F2A95E1F7CC0FDD1F8C2B9D2B0E947E
:102B1000780A6F2D84E795E00E94490A81E0DF91F1
:102B2000CF911F910F91FF900C949106DF92EF923D
:102B3000FF920F931F93CF93DF93C82FD62E88E475
:102B40000E94EC060D2D10E0D0E0980193E0220FDA
:102B5000331F9A95E1F7CE01880F991F822B932B93
:102B60000E94780A80E00E94910661E070E088E4AB
:102B700090E00E94FD120E9409077C0180916F0382
:102B8000853020F1C70199279F938F93000F111F64
:102B9000000F111F035B1E4F1F930F931F92DF92B5
:102BA000CF5BDF4FDF93CF9388E09AE09F938F93C3
:102BB00087E194E09F938F930E9420158DB79EB775
:102BC0000C960FB6F8949EBF0FBE8DBF8E2DDF9171
:102BD000CF911F910F91FF90EF90DF900895CF93C9
:102BE000DF93D82F63E00E949615807CC82FC360C6
:102BF00080916F038823B1F01F92CF931F92DF93D0
:102C000086E79CE09F938F9387E194E09F938F9357
:102C10000E9420158DB79EB708960FB6F8949EBFF8
:102C20000FBE8DBF4C2F63E08D2FDF91CF910C94A1
:102C300048150F931F93CF93DF93C82F162F8091C2
:102C40006F03833018F181E692E0662311F08EE580
:102C500092E01F9220E32F939F938F938C2F90E00D
:102C60008F5B9F4F9F938F938AE49CE09F938F93FA
:102C700087E194E09F938F930E9420158DB79EB7B4
:102C80000A960FB6F8949EBF0FBE8DBF64E08C2FDE
:102C90000E949615482F446064E08C2F0E944815CE
:102CA00063E08C2F0E949615082F4FEB63E08C2F6A
:102CB0000E94481562E08C2F0E949615D82F482F4D
:102CC000406162E08C2F0E94481540EC11114CE0ED
:102CD00067E08C2F0E9448154D2F62E08C2F0E94D8
:102CE0004815402F63E08C2FDF91CF911F910F91FA
:102CF0000C9448154F925F926F927F928F929F92A1
:102D0000AF92BF92CF92DF92EF92FF920F931F93F9
:102D1000CF93DF93C82F042FB52EA62E972E64E0F5
:102D20000E94961524E087FF21E030E050E040E06B
:102D300060E072EC81E090E00E94843129013A0168
:102D4000CA01B901202F3B2D4A2D592D0E948431F3
:102D500069017A0163E08C2F0E949615182F482F85
:102D6000406863E08C2F0E9448154C2D60E08C2F4A
:102D70000E9448154D2D61E08C2F0E944815412F6F
:102D80004F7763E08C2F0E944815A70196014427D6
:102D90005527C301B2010E9484313901842ED52FF9
:102DA00080916F03823098F1CF5B9F92AF92BF9278
:102DB0000F931F92CF9384EC99E09F938F9307E139
:102DC00014E01F930F930E942015DF92CF921F9261
:102DD000CF9382EA99E09F938F931F930F930E9462
:102DE0002015DF938F927F926F921F92CF9383E88B
:102DF00099E09F938F931F930F930E9420158DB797
:102E00009EB74C960FB6F8949EBF0FBE8DBFB30110
:102E1000882D9D2FDF91CF911F910F91FF90EF9003
:102E2000DF90CF90BF90AF909F908F907F906F90EA
:102E30005F904F900895FC0180819181009711F07F
:102E40000C94422E60E070E0CB010895FC0180817B
:102E50009181009711F00C945F320895EF92FF92E8
:102E60000F931F93CF93DF93EC017B018A0188813D
:102E70009981009729F02A813B812417350788F42E
:102E8000B8016F5F7F4F0E94E832009791F09983FD
:102E900088831B830A832C813D81232B11F4FC0141
:102EA00010821D830C83B701888199810E94EB33C6
:102EB0000CC088819981009711F00E945F321982BD
:102EC00018821D821C821B821A82CE01DF91CF9153
:102ED0001F910F91FF90EF900895AF92BF92CF9204
:102EE000DF92EF92FF920F931F93CF93DF93EC014A
:102EF0006B015A0179012417350720F48B2D5901F4
:102F0000E42EF82E198218821B821A821D821C82DE
:102F100050E040E06DE572E0CE010E942E17D60130
:102F200014960D911C91A016B10628F5E016F10635
:102F300008F48701D601ED91FC911197E00FF11F84
:102F4000F08010826D917C916A0D7B1D6115710579
:102F5000F1F0FB0101900020E9F73197AF01461B2A
:102F6000570BCE010E942E17F60180819181080F28
:102F7000191FD801FC92CE01DF91CF911F910F91C3
:102F8000FF90EF90DF90CF90BF90AF900895888131
:102F90009981009711F00E945F32198218821D8278
:102FA0001C821B821A82E0CF1F93CF93DF93EC0128
:102FB000162F0E943431181739F0612FCE01DF919E
:102FC000CF911F910C943C31DF91CF911F910895C7
:102FD0000C943431CF92DF92EF92FF920F931F93B4
:102FE000CF930E9495086B017C01C1E087E194E0DA
:102FF0000E94FE08892B09F09BC00E9495086C195D
:103000007D098E099F09683B7B4081059105A0F4ED
:1030100062E08DE00E94D4078DE00E947D07892B3D
:1030200009F0C0E061E08DE00E94D4076AE070E042
:1030300080E090E00E9463080E9495080091C6031A
:103040001091C7032091C8033091C903601B710B15
:10305000820B930B6D32714081059105A0F080E0E9
:103060000E947D0761E0892B09F060E080E00E940A
:10307000A6070E9495086093C6037093C7038093C8
:10308000C8039093C9030E9495086C197D098E09A5
:103090009F09693B7B408105910508F4A7CFCC23AC
:1030A00009F4A4CF8FE090E00E94E817893009F47A
:1030B0009DCF60E080E00E94A60769E08FE090E08D
:1030C0000E94D41785E99CE00E9476140E9495081E
:1030D000C090C603D090C703E090C803F090C90326
:1030E0006C197D098E099F09653671058105910569
:1030F00068F380E00E947D0761E0892B09F060E0C1
:1031000080E00E94A6078DE00E947D0761E0892B88
:1031100009F060E08DE00E94A6070E949508609388
:10312000C6037093C7038093C8039093C903CECF9F
:10313000CF911F910F91FF90EF90DF90CF90089566
:103140009F92AF92BF92CF92DF92EF92FF920F9336
:103150001F93CF93DF93CDB7DEB72D970FB6F894BB
:10316000DEBF0FBECDBF61E086E10E94D40760E004
:1031700086E10E94A60761E080E00E94D40760E03B
:1031800080E00E94A60762E08DE00E94D4078DE0F7
:103190000E947D078C0161E08DE00E94D40761E010
:1031A0008DE00E94A60762E081E00E94D40761E002
:1031B00081E00E94D40761E081E00E94A60761E0FF
:1031C00082E00E94D40760E083E00E94D40762E0BE
:1031D0008EE00E94D40761E08EE00E94D40761E097
:1031E0008EE00E94A60711B88FEF82B962E085E1F8
:1031F0000E94D40762E084E10E94D40762E083E188
:103200000E94D40762E082E10E94D40780E190E04E
:103210000E94E81780935C03833038F060E080E11F
:1032200090E00E94D41710925C038FE090E00E941F
:10323000E817C12C72ECD72EEE24E394F12C8930E0
:1032400050F4E82FF0E0EE0FFF1FE55CFE4FC0806A
:10325000D180F12CE12C60E87DE88BE590E0A701BE
:1032600096010E9484312150310941095109569536
:10327000479537952795E0912704F091280482E03F
:103280008083211580E13807A8F0E0912704F091B0
:103290002804108260EC76EC8DE290E0A7019601A4
:1032A0000E948431215031094109510956954795B1
:1032B0003795279587E1E82E84E0F82EE0912304E6
:1032C000F09124043083E0912504F09126042083BA
:1032D00010922F04E0912B04F0912C0486E080835F
:1032E000E0912904F0912A04808188698083E0912B
:1032F0002904F0912A0480818F7D80831F9288E1C8
:103300008F9384EA98E09F938F93FF92EF920E94AD
:10331000201582E898E00E9476140E94721481E0E1
:103320008F931F9280E598E09F938F93FF92EF9287
:103330000E94201561E08CE00E94D40761E08CE0DF
:103340000E94A60761E08BE00E94D40760E08BE05A
:103350000E94A60761E08FE00E94D40760E086E14A
:103360000E94A60786E00E945B1261E086E10E944F
:10337000A60782E00E945B12F0905C030FB6F894FF
:10338000DEBF0FBECDBFF11014C262E08AE00E9422
:10339000D40761E082E00E94A60761E087E10E9415
:1033A000D40760E087E10E94A60764E670E080E051
:1033B00090E00E94630861E087E10E94A60764EF45
:1033C00071E080E090E00E9463088DE090E00E9450
:1033D000E817823028F061E08DE090E00E94D41779
:1033E0008DE090E00E94E817809302038EE090E069
:1033F0000E94E81780936203863038F060E08EE028
:1034000090E00E94D41710926203109295031092DC
:1034100094031092A3031092C5031092A103FF24FA
:10342000F394F092A0031092990361E081E10E946D
:10343000A60761E080E10E94A6078091B9008E7F17
:103440008093B9008091B9008D7F8093B90080E7A7
:103450008093B80085E48093BC0083E09AE0909369
:1034600024038093230384E09AE0909328038093BD
:10347000270386E18093B80080E20E94EC060E9458
:10348000E90681110FC0F092630380E20E94EC060E
:103490008CE090E00E94780A85E090E00E94780A33
:1034A0000E94E90688E40E94EC060E94E906811168
:1034B00090C045E567E00E94481567E080E00E9403
:1034C0009615853509F085C04AEA67E080E00E94DC
:1034D000481567E080E00E9496158A3A09F079C0A5
:1034E00045E567E081E00E94481567E081E00E94C1
:1034F0009615853509F06DC04AEA67E081E00E94C3
:10350000481567E081E00E9496158A3A09F061C08B
:1035100081E0809356036EE080E00E949615482F6C
:1035200048606EE080E00E94481562E080E00E9402
:103530009615482F416062E080E00E94481562E0E5
:1035400081E00E949615482F416062E081E00E9470
:10355000481560E080E00E94191661E080E00E945A
:10356000191660E081E00E94191661E081E00E9476
:10357000191640EB54E060E070E080E00E947A169B
:1035800040EB54E060E070E081E00E947A1680E059
:103590000E94EF1581E00E94EF1562E080E00E943A
:1035A0009615482F426062E080E00E94481562E074
:1035B00081E00E949615482F426062E081E00E94FF
:1035C000481560E080E00E94961560E081E00E946E
:1035D00096158FE090E00E94E8178A3028F069E0A5
:1035E0008FE090E00E94D41780910203882309F4B1
:1035F000F9C086E01F928F9381E398E09F938F93A9
:10360000B7E1EB2EB4E0FB2EFF92EF920E94201563
:1036100020915C0380E890E002C0880F991F2A95F2
:10362000E2F79F938F938EE198E09F938F93FF92A1
:10363000EF920E94201580915C030FB6F894DEBFD4
:103640000FBECDBF813009F0CFC082E098E00E946C
:103650007E090E94721488E60E94EC060E94E90628
:10366000811155C185E993E00E947E0981E00E94A5
:103670003F140E94BA1480917003282F082E000C6A
:10368000330B3F938F9389E693E09F938F9387E16A
:1036900094E09F938F930E94201588E60E94EC0689
:1036A0008FE090E00E94780A0E94E90661E070E0F5
:1036B00088E690E00E94FD120E9409070F900F908B
:1036C0000F900F900F900F9087FFFDC028E030E023
:1036D00046E050E066E875E0CE0101960E946D1765
:1036E000CE0101960E941B1760939803CE010196AC
:1036F0000E94261725E030E043E050E066E875E0E0
:10370000CE0101960E946D17CE0101960E941B17F3
:1037100060939703CE0101960E94261722E030E0C5
:1037200050E040E066E875E0CE0101960E946D171A
:10373000CE0101960E941B1760939603CE0101965D
:103740000E94261726E030E044E050E060E875E093
:10375000CE0101960E946D17CE0101960E941B17A3
:1037600060937303CE0101960E94261790E080E0DB
:103770000E942B07EFEBE80FE33108F04CC00E2E50
:10378000000CFF0BEA53F44E0C94A6316B1C0B1C7F
:103790000B1C851C0B1C691C0B1C0B1C0B1CFA1B2B
:1037A0000B1C0B1C751C831C811C0B1C0B1C0B1C89
:1037B0007F1C61E08AE00E94D40760E08AE00E94FA
:1037C000A60731E03F1508F0E4CD60E082E00E94FA
:1037D000A60761E087E10E94D40760E087E10E94CC
:1037E000A607F3CD8CE006CF823009F032CF8CEC07
:1037F00097E02DCF81E090E00E942B07813609F4FD
:1038000064C082E090E00E942B078E3609F05FC012
:1038100086E0809372032BE030E049E050E060E8FE
:1038200075E0CE0101960E946D17CE0101960E94AF
:103830001B1760937103CE0101960E94261781E544
:1038400093E00E94761486E293E00E947E0980E075
:103850000E943F148BE193E00E947E090E94EA17C8
:1038600087E194E00E94DD0880930003893731F0FE
:10387000893521F08E3611F08E3481F70E949A142A
:10388000809100038F7D893589F4409171036091A7
:103890007203809173030E947D0A86EF92E00E947A
:1038A0007E0981E00E943F140E94721488E60E9403
:1038B000EC068FE090E00E94780A88E090E00E9499
:1038C000780A0E94E90681E023C081E0A2CF87E068
:1038D000A0CF82E09ECF82E090E00E942B0782374B
:1038E00011F484E096CF88E094CF82E090E00E94CB
:1038F0002B07823711F483E08CCF85E08ACF89E0F3
:1039000088CF8AE086CF8BE084CF8CE082CF80E0C6
:103910008093530380916303882321F086EB97E023
:103920000E94761480915603882321F088E997E05D
:103930000E9476148CE090E00E94E817823028F014
:1039400060E08CE090E00E94D4178CE090E00E9450
:10395000E817809352038823C1F184E692E09F9395
:103960008F938DE797E09F938F9387E194E09F93E8
:103970008F930E9420158BE0E4E2F1E0DE011196C6
:1039800001900D928A95E1F70E94920C0E94920C90
:103990008AE090E00E94E817809301030F900F9057
:1039A0000F900F900F900F90012B19F0853008F4B5
:1039B00081C187E194E00E94FE081816190644F4BC
:1039C00087E194E00E94DD08F4CF87E692E0C7CF5C
:1039D0008CE497E09F938F9307E114E01F930F937C
:1039E0000E942015E09101030F900F900F900F900F
:1039F000E53008F0EFC1EC0FFD2FF11D8281282F7B
:103A0000082E000C330B3F938F931F9288E58F9302
:103A100088E297E09F938F931F930F930E94201546
:103A20000FB6F894DEBF0FBECDBF1F9282E48F9316
:103A30008AE197E09F938F9307E114E01F930F9320
:103A40000E9420151F9286E48F938CE097E09F934D
:103A50008F931F930F930E9420151F9284E48F93DE
:103A600089EF96E09F938F931F930F930E942015E9
:103A7000809162030E94FB131F9281E48F9386EE74
:103A800096E09F938F931F930F930E9420151F9290
:103A90008CE48F9387ED96E09F938F931F930F9302
:103AA0000E9420150FB6F894DEBF0FBECDBF8091E7
:103AB0000203882309F4A1C18CE01F928F931F9207
:103AC00083E48F938CEA96E09F938F9387E194E051
:103AD0009F938F930E9420150FB6F894DEBF0FBE00
:103AE000CDBF80915203882309F489C187E692E013
:103AF0009F938F931F9285E48F9387E896E09F931F
:103B00008F9387E194E09F938F930E9420158FE01D
:103B100090E00E94E8170FB6F894DEBF0FBECDBF4D
:103B2000893008F06FC1E82FF0E0EE0FFF1FE55C71
:103B3000FE4F80819181B0E0A0E0BF93AF939F934F
:103B40008F931F9283E58F9383E696E09F938F93E5
:103B500007E114E01F930F930E9420150FB6F8940D
:103B6000DEBF0FBECDBF80915303882309F44FC140
:103B70001F9284E58F9389E496E09F938F931F9320
:103B80000F930E9420150F900F900F900F900F90A1
:103B90000F9080E190E00E94E81720E830E002C03A
:103BA000220F331F8A95E2F73F932F931F9282E5EE
:103BB0008F938CE296E09F938F9307E114E01F931D
:103BC0000F930E94201585E196E09F938F931F939A
:103BD0000F930E9420150FB6F894DEBF0FBECDBF25
:103BE0000E94EA1787E194E00E94DD080E94D13329
:103BF000182F809300038F3309F01CC180916F034D
:103C00008F5F80936F03BE016F5F7F4F812F0E9494
:103C1000F012882329F3812F0E949A1480916F0358
:103C2000882391F01F928F938FEF95E09F938F934E
:103C300087E194E09F938F930E9420150F900F903F
:103C40000F900F900F900F9080910003853409F42E
:103C5000ADC10CF0F5C0833409F49CC1843409F47F
:103C60003CC1BE016F5F7F4F809100030E94F01244
:103C700082508093010390916F03992391F01F92DA
:103C80008F9387E795E09F938F9387E194E09F93CD
:103C90008F930E9420150F900F900F900F900F9010
:103CA0000F90609101038AE090E0653008F0E0C376
:103CB0000E94D41780910103823051F489E695E087
:103CC0000E947E09809162030E94FB130E9472147D
:103CD00080910103823009F4FEC308F0CEC388232B
:103CE00009F4E2C3813009F4EDC361E080E00E9491
:103CF000A6070091FB021091FC020115110519F1B4
:103D0000F0906F0390E080E00E946D1283EC0E94BF
:103D1000A112802F0E94A112812F0E94A112FF20C8
:103D200091F01F930F938BE495E09F938F9387E11E
:103D300094E09F938F930E9420150F900F900F9007
:103D40000F900F900F908091FB029091FC020E94C7
:103D50006D1280916F038823F1F08DE295E00E944F
:103D60007E096091F7027091F80290E080E04AE0ED
:103D70000E94B0130E94721487E195E00E947E09B0
:103D80006091FB027091FC0290E080E040E10E94B3
:103D9000B0130E94721480910103843008F0B9C4FA
:103DA0000E94920C882309F4E0C30E94920C809335
:103DB000F602882309F4D9C36091F602662329F03C
:103DC00050E040E080E00E94C8140E9482140E94EB
:103DD000920CEBCFBE016F5F7F4F88E50E94F0121F
:103DE000182F882309F421CE88E590E00E94C9337A
:103DF000FE01E10FF11D808318CE86E05ECE84E6E1
:103E000092E076CE80E092ECA1E0B0E096CEBE01EA
:103E10006F5F7F4F84E50E94F012182F882309F40A
:103E2000B8CE84E590E00E94C933FE01E10FF11D98
:103E30008083AFCE803209F0E6CE10926F03E3CEDE
:103E4000833509F4BDC0843509F443C1823509F0D6
:103E500008CF88E794E00E94761480915C0381503B
:103E60008093FF0283E0C82ED12C90E8A92EB12CBC
:103E70000DE815E027E1E22E24E0F22E8091FF020A
:103E80008F5F90E0B6010E947031982E8093FF0200
:103E900088E995E00E947E09C50102C0880F991F3C
:103EA0009A94E2F79F938F931F930F93FF92EF9251
:103EB0000E9420150F900F900F900F900F900F9071
:103EC00087E194E00E94FE08181619060CF0A8C2BB
:103ED00087E194E00E94DD08F3CF88E794E00E9438
:103EE00076148091620381508093FF0206E08091F6
:103EF000FF028F5F602F0E946431192F9093FF02A1
:103F00008AEF95E00E947E09812F0E94FB1387EEC5
:103F100095E00E947E0987E194E00E94FE08181651
:103F200019062CF487E194E00E94DD08F4CF87E1C4
:103F300094E00E94FE08181619061CF00E94EA1769
:103F4000F6CF87E194E00E94DD08809300038D3076
:103F500011F08B3161F683EE95E09F938F9387E1AB
:103F600094E09F938F930E9420150F900F900F90D5
:103F70000F90809100038D3009F073CE6091FF02A5
:103F8000609362038EE090E00E94D41784E48093F3
:103F9000000367CE61E080910203811160E06093CD
:103FA00002038DE090E00E94D4175BCE61E0809127
:103FB0005203811160E0609352038CE090E0F3CFF4
:103FC00088E794E00E9476148FE090E00E94E81762
:103FD00081508093FF026AE0D62E07ED15E077E16D
:103FE000E72E74E0F72E8091FF028F5F6D2D0E9407
:103FF00064319093FF02993029F1E92FF0E0EE0F40
:10400000FF1FE55CFE4F80819181B0E0A0E0BF938F
:10401000AF939F938F931F930F93FF92EF920E9402
:1040200020150FB6F894DEBF0FBECDBF87E194E038
:104030000E94FE081816190654F487E194E00E94C5
:10404000DD08F4CF80E092ECA1E0B0E0E0CF87E1C2
:1040500094E00E94FE08181619061CF00E94EA1748
:10406000F6CF87E194E00E94DD08809300038D3055
:1040700019F08B3109F0B7CF83ED95E09F938F93C3
:1040800007E114E01F930F930E9420150F900F90EB
:104090000F900F90809100038D3009F0E2CD8FE0FA
:1040A00090E00E94E8176091FF02861709F4D9CDCD
:1040B0008FE090E00E94D4178DE995E09F938F9355
:1040C0001F930F930E9420150F900F900F900F9049
:1040D000C8CD0E94441310925E038EE594E00E94C6
:1040E00076148FE294E00E9476143AE0F32E46EFC5
:1040F000E42EDD24D3948DE294E00E947E09809129
:104100005E03823009F440C018F5882369F18130DC
:10411000A1F10E94EA1787E194E00E94DD08082FD0
:1041200080930003853709F44DC0853509F44AC0F2
:10413000843709F424C3843509F421C38D3049F749
:1041400010915E036DE087E194E00E9431095EC04A
:10415000843089F148F18530E1F681EE93E00E94E8
:104160007E098091980306C084E294E00E947E0953
:10417000809171030E942F14CCCF8AE194E00E94B9
:104180007E0980917203F6CF8CE094E00E947E0954
:104190006DE087E194E00E94310983E094E00E94A1
:1041A0007E0980917303E6CF89EF93E00E947E0938
:1041B00080919603DFCF8DEE93E00E947E0980917F
:1041C0009703D8CF10915E03123009F461C0D0F587
:1041D000112309F447C0113009F44FC0802F8F7D9F
:1041E000843509F0A8C0123009F4C1C008F08BC0B2
:1041F000112309F499C0113009F4ADC06DE087E1D5
:1042000094E00E9431090D3009F075CF1F5F1093C3
:104210005E03163008F46FCF409171036091720312
:10422000809173030E947D0A81ED93E00E947614D1
:1042300084EB93E00E947E0981E00E943F140E947B
:10424000BA140FCD143009F450C008F443C015302F
:1042500029F6809198038F5F8C3308F051C08093CA
:104260009803BCCF809171038F5F843618F48093DC
:104270007103B4CF10927103B1CF809172038F5F3D
:104280008D3018F480937203A9CF10937203A6CFD8
:10429000809173038F5F80937303E0917203E23028
:1042A00089F490E020917103237049F42DE130E00E
:1042B000281739070CF092CFD09273038FCF2CE1DF
:1042C00030E0F6CFF0E0E25DFE4F9081981708F005
:1042D00085CFF2CF809196038F5F883118F4809359
:1042E00096037CCF1092960379CF809197038F5FCE
:1042F0008C3318F48093970371CF109297036ECF8D
:10430000109298036BCF143009F46EC008F45AC0B1
:10431000153009F073CF20919803265F2C3308F0F5
:1043200075C02093980307C020917103265F24363F
:1043300040F4209371036DE087E194E00E9431091D
:10434000DACE822F6F2D0E9464318E9D200D1124B4
:104350002093710353CF809172038B3020F08A50E9
:10436000809372034BCF833030F7865FF9CF209173
:104370007303265F20937303422F50E0E091720392
:10438000F0E0E25DFE4F808190E030917103337088
:1043900061E070E011F070E060E0860F971F841715
:1043A00095074CF4822F6F2D0E9464318E9D200D55
:1043B000112420937303809173038111BCCFD09299
:1043C00073031CCF20919603265F283118F42093A5
:1043D0009603B1CF822F6F2D0E9464318E9D200DE8
:1043E0001124209396030ACF20919703265F2C3344
:1043F00018F4209397039FCF822F6F2D0E94643172
:104400008E9D200D112420939703F8CE822F6F2DBF
:104410000E9464318E9D200D112420939803EECECE
:1044200087E194E00E94FE08181619061CF00E940D
:10443000EA17F6CF87E194E00E94DD08809300033D
:104440008D3019F08B3109F019CD0E9472140E9441
:104450007214809100038D3009F003CC6091FF024B
:1044600060935C0380E190E00E94D41788E58FCDD3
:104470000E94E817809301031DCC833009F472C0B9
:10448000843009F032CCE7E6F5E085919491909381
:10449000FA028093F9028AE692E09093F802809300
:1044A000F70280E19DEF48C08BE692E09093FE0218
:1044B0008093FD021092FC021092FB0281E0809337
:1044C0005B0313CC87E792E09093FE028093FD029A
:1044D00080E091E031C080916203823091F170F40C
:1044E000882311F1813009F000CC8DE892E090939F
:1044F000FE028093FD0280E890E01EC0843079F1D6
:1045000018F1853009F0F1CB87EB92E09093FE0231
:104510008093FD021092FC021092FB0281E08093D6
:104520005B0380935A03E1CB83E892E09093FE0211
:104530008093FD0280EE91ED9093FC028093FB024C
:10454000D4CB88E992E0C0CF83EA92E09093FE0258
:104550008093FD021092FC021092FB02C6CB8FEA00
:1045600092E0F4CF81EC92E0F1CF0091FD02109146
:10457000FE0268E972E0C8010E94E233892B31F043
:10458000C8010E94DF108093F60210C08EEC92E00A
:104590000E94DF108111F4CF8EEC92E09093FE0226
:1045A0008093FD0260E08DE00E94A6078091F602F4
:1045B0008823E9F06091F602662339F04091FD020C
:1045C0005091FE0281E00E94C8140E948214009162
:1045D000FD021091FE02C8010E94DF108093F602D6
:1045E000833021F30E94920C0E94920CC9CF8091DB
:1045F000FE028F938091FD028F9385EF94E09F934D
:104600008F9387E194E09F938F930E9420150F90E2
:104610000F900F900F900F900F90CE010C960E946C
:10462000E00E082F8C85809351030093F6021092C0
:10463000FF021091FF0280915103181758F4E12FE7
:10464000F0E0E653FC4F80810E94A1121F5F10939F
:10465000FF02EFCF803291F40023F9F24091FD0286
:104660005091FE02602F82E00E94C8140E948214C2
:1046700060E070E0CB010E94B00F02C00111EECFEC
:104680008091F6028111C9CF82ED94E00E947614E8
:1046900060E086E10E94A6078091B6008F7D80933E
:1046A000B6008091B10081608093B1008091B1002B
:1046B000897F8093B1008091B00082608093B000C8
:1046C0008091B0008E7F8093B0008091B0008064B4
:1046D0008093B0008091B0008F778093B00080917C
:1046E00002038093B30061E08FE00E94D40785EB62
:1046F00094E00E9476140E94721487E194E00E9474
:10470000FE0818161906FCF487E194E00E94DD0803
:10471000F4CF88ED94E00E947E0910E000E08091E3
:10472000F7029091F8020817190708F0ADCFE09151
:10473000F902F091FA02E00FF11F84910E94A11298
:104740000F5F1F4FECCF61E070E080E090E00E94CF
:10475000630861E086E10E94A6072D960FB6F894E3
:10476000DEBF0FBECDBFDF91CF911F910F91FF90A4
:10477000EF90DF90CF90BF90AF909F9008951091F1
:104780005E0331CD1F920F920FB60F9211244F93FB
:104790005F936F937F938F939F9340916B0350919F
:1047A0006C0360916D0370916E0380916A03909128
:1047B00069039230F9F4109269038A5A8D3728F010
:1047C0008D574F5F5F4F6F4F7F4F80936A034093CA
:1047D0006B0350936C0360936D0370936E039F9112
:1047E0008F917F916F915F914F910F900FBE0F90BE
:1047F0001F9018958B5A9F5F90936903DFCF1F928C
:104800000F920FB60F9211240BB60F922F933F9376
:104810004F935F936F937F938F939F93AF93BF93C8
:10482000EF93FF9387E194E00E940F09FF91EF91CE
:10483000BF91AF919F918F917F916F915F914F91B8
:104840003F912F910F900BBE0F900FBE0F901F90B6
:1048500018951F920F920FB60F9211240BB60F925C
:104860002F938F939F93EF93FF93E0912704F09101
:1048700028048081E0912D04F0912E0482FD1CC05B
:104880009081809130048F5F20913104821741F034
:10489000E0913004F0E0E95EFB4F958F80933004A7
:1048A000FF91EF919F918F912F910F900BBE0F90E1
:1048B0000FBE0F901F9018958081F2CF1F920F921C
:1048C0000FB60F9211240BB60F922F933F934F9375
:1048D0005F936F937F938F939F93AF93BF93EF9368
:1048E000FF938091B900887F803609F44DC008F0AD
:1048F00040C0883209F4A9C028F5803109F49DC070
:10490000C8F4882309F407C1883009F496C0FF91E0
:10491000EF91BF91AF919F918F917F916F915F9137
:104920004F913F912F910F900BBE0F900FBE0F90A4
:104930001F901895883109F488C0803241F7809320
:104940009F0314C0803409F4A5C040F48033B9F348
:104950008833E9F680939F0385ECBCC0803509F469
:1049600089C0883509F49EC0883489F60E94D2092E
:10497000CECF883909F494C038F5883729F050F43F
:10498000883611F0803719F683E08093A1031092E6
:10499000490357C0883809F483C0803919F080383A
:1049A00009F0B5CF80914903803208F079C0E091D9
:1049B000490381E08E0F809349038091BB00F0E0B2
:1049C000E75DFC4F80833DC0803B39F0E0F4803AE6
:1049D00009F485C0883A09F09ACF84E08093A10356
:1049E0001092260310922503E0912303F0912403F3
:1049F00009958091250381110FC081E080932503E3
:104A00001092030309C0803C09F4A6CF883C09F446
:104A1000A3CF883B09F07BCFE091260381E08E0F86
:104A200080932603F0E0ED5FFC4F80818093BB0014
:104A3000909126038091250331C080919A03809341
:104A4000BB0085EC8093BC0062CF90919C03809169
:104A50009B039817B8F580919D0390919E03E09178
:104A60009C0321E02E0F20939C03E80FF92FF11DEA
:104A70008081E5CF20919D0330919E03E0919C03BE
:104A800081E08E0F80939C038091BB00E20FF32F97
:104A9000F11D808390919C0380919B03981788F26D
:104AA00085E8D0CF20919D0330919E03E0919C0337
:104AB00081E08E0F80939C038091BB00E20FF32F67
:104AC000F11D80838091A003811150CF81E08093FC
:104AD000990384EA8093BC001092A10318CF85EC5F
:104AE0008093BC001092A10380914903803230F47E
:104AF000E0914903F0E0E75DFC4F108260914903CB
:104B000070E0E0912703F091280389E293E0099592
:104B100010924903FCCE10929F0328CFEF92FF9290
:104B20000F931F93CF93DF930097C9F0EA018C0195
:104B30002097B1F1E0904A03F0904B03E114F104A7
:104B400079F1F80181918F010E94560BF1E0EF1A83
:104B5000F108F0924B03E0924A032197E9CF411507
:104B600051056105710529F18091EA0383FD07C0B4
:104B700089E0440F551F661F771F8A95D1F788E596
:104B80000E949C0B81111DC08FEF0E94560B8EEF6F
:104B90000E94560B80E092E090934B0380934A036F
:104BA00090E080E0DF91CF911F910F91FF90EF9007
:104BB0000895DF91CF911F910F91FF90EF900C948A
:104BC000600B81E090E0EECF0F931F93CF93DF93C4
:104BD000C82F162FD42F80916F038330E0F01F92DF
:104BE0004F931F926F938C2F90E08F5B9F4F9F93FB
:104BF0008F9384EE99E09F938F9387E194E09F9346
:104C00008F930E9420158DB79EB70A960FB6F89421
:104C10009EBF0FBE8DBF63E08C2F0E949615082F9C
:104C20004FEB63E08C2F0E94481562E08C2F0E94AE
:104C30009615482F4F7311114064D111406862E0FE
:104C40008C2F0E944815402F63E08C2FDF91CF916D
:104C50001F910F910C944815E7E1F4E01382128242
:104C600088EE93E0A0E0B0E084839583A683B783C9
:104C700025E232E03183208325EC30E0358724873C
:104C800024EC30E03787268720EC30E0318B208B16
:104C900021EC30E0338B228B22EC30E0358B248BFF
:104CA00026EC30E0378B268B118E128E138E148EED
:104CB000E4E7F5E01382128284839583A683B783A9
:104CC00087E392E091838083E6E8F5E01182108229
:104CD000138212821582148248E050E06AED72E07D
:104CE000CF010E942E17E0E8F5E0118210821382B6
:104CF0001282158214824BE050E063EE72E0CF0125
:104D00000C942E17CF93DF9300D000D0CDB7DEB731
:104D1000789484B5836084BD85B5836085BD8091BA
:104D20006E00816080936E0082E0809381008091AC
:104D300081008160809381008091800081608093F8
:104D400080008091B10084608093B1008091B000B8
:104D500081608093B0008091910083608093910086
:104D60008091900081608093900087E880937A0022
:104D70001092C1000E94A01857E1E52E54E0F52ED4
:104D800083E00E947D07892B99F583E10E947D07CE
:104D9000892B09F0B8C482E10E947D07D0B0D0927F
:104DA000680390911D01882309F47DC09F3F51F055
:104DB00090931C0180916603909167039093650323
:104DC00080936403D0921D011092670310926603D2
:104DD00060E08EE00E94A60760E080E00E94A607E7
:104DE00061E080E00E94A60761E08EE00E94A607D5
:104DF00080911D018F3F09F053C080915B03882390
:104E0000E1F0809150038823C1F080910B01882349
:104E1000A1F087E194E00E94FE08181619066CF4D0
:104E200060E081E00E94A607809155038160809335
:104E3000550310920B011092500380915A0388235E
:104E400079F10E94100800914C0310914D032091BC
:104E50004E0330914F034B015C01801A910AA20A64
:104E6000B30A20910F0130E0A8EEB3E00E94553163
:104E7000681579058A059B0598F460E081E00E9439
:104E8000A607809155038260809355030E94100805
:104E900060934C0370934D0380934E0390934F03A4
:104EA0000E94BD096DCF9C3009F487C108F051C044
:104EB000963009F40BC118F5933009F4E8C078F482
:104EC000992309F4D7C0913009F4DBC080911D010A
:104ED0008A3009F47DCF8C3009F47ACFD5C2943072
:104EE00009F4E9C0953091F780916303882309F4B0
:104EF000CBC280E20E94EC0690E080E0D2C0993004
:104F000009F4FAC080F4973009F4EBC09830F1F658
:104F100080916303882309F4B7C280E20E94EC0603
:104F20008DE090E0BEC09A3009F406C19B3071F666
:104F3000D0925F038091600390916103811592404C
:104F400008F034C12FE12D1508F435C1109210017D
:104F5000BDCF923109F4AFC208F078C09F3009F498
:104F6000A0C280F49D3009F46DC29E3009F0AECF2E
:104F70008D2D817080935B03D1FADD24D0F8D0921F
:104F80005A03A4CF903109F491C2913109F09ECF18
:104F900080916303882309F477C281E080935803EA
:104FA00011E0D11010E01093570380E20E94EC064C
:104FB00082E190E00E94780A110F012F0560802F96
:104FC00090E00E94780A0E94E90680E20E94EC06C6
:104FD00090E080E00E94780A88EF90E00E94780AD2
:104FE0000E94E90680E20E94EC0681E090E00E94C7
:104FF000780A90E080E00E94780A0E94E90680E248
:105000000E94EC068CE090E00E94780A8FEF90E01E
:105010000E94780A0E94E90680E20E94EC0682E182
:1050200090E00E94780A612F616084E795E00E9419
:10503000490A0E94E90600935E0380E20E94EC06A2
:1050400082E190E00E94780A602F2EC0923248F4EC
:10505000903208F060C2933109F038CFD0920E013F
:1050600035CF943208F488C29E3709F02FCFD09202
:105070006F032CCF60E0D0FE61E08DE00E94A607B8
:1050800025CF6D2D87E194E00E9431091FCF8091DB
:105090006303882309F4F8C180E20E94EC0682E1F0
:1050A00090E00E94780A6D2D84E795E00E94490AFD
:1050B0000E94E9060BCF80916303882309F4E4C1C1
:1050C00080E20E94EC0683E190E0EBCF80916303E5
:1050D000882309F4D9C180E20E94EC0681E090E0C7
:1050E000E0CF80916303882309F4CEC180E20E945F
:1050F000EC068CE090E0D5CF23E680E12D15C8F0DA
:1051000080916203805D809313018D2D6AE00E947F
:10511000643190E3980F9093150130E3D30E46EF7E
:10512000849FD00C1124D092160181E191E00E945D
:10513000DF1080931001CACE6D2D70E08091660360
:1051400090916703892B71F47093610360936003FE
:105150008091660390916703019690936703809313
:105160006603B4CE809160039D2D9093610380937C
:10517000600320915F038115924088F4203290F4FF
:105180001092100180911C0180931D018091640395
:10519000909165039093670380936603D9CF81E173
:1051A000203208F082E180931001ECCF3FE181E1F1
:1051B0003D1508F0BECF82E1BCCF20906603309051
:1051C00067032114310419F5609160037091610344
:1051D000611542E07407D8F480915F038032B8F41F
:1051E00090911001911113C035E0660F771F3A9529
:1051F000E1F7682B90E080E049E0660F771F881F99
:10520000991F4A95D1F70E94B00F809310018091A9
:10521000100181119DCF822D8F7180935E03E82F45
:10522000F0E0E653FC4FD0828F3109F091CF00912E
:10523000150410911604A12C85E00115110509F43F
:1052400058C0F801818180FFD4C086FD0AC08689DC
:105250009789A08DB18D88279E7F868B978BA08F95
:10526000B18FF801828D938DA48DB58D46895789B4
:10527000608D718D841B950BA60BB70B8032910549
:10528000A105B10520F080E290E0A0E0B0E06C0163
:10529000B12CA12C2AEC33E03C832B83C114D10424
:1052A00009F4AAC0F80186899789A08DB18D9C0167
:1052B0003170232B09F05DC092809A94AC01BD013E
:1052C00029E076956795579547952A95D1F79422C9
:1052D00069F5892B8A2B8B2BF1F4668D778D80A154
:1052E00091A1F8016230710581059105D8F4118210
:1052F00081E0A0925D0380931001FFE1FA1508F4AC
:105300007DC083E1809310012FEF221621E0320649
:1053100008F41ECF37CF62A173A184A195A10E948A
:10532000700EDFCF62A373A384A395A3F80162A1DB
:1053300073A184A195A10E94E40A611571058105FC
:10534000910511F4F801D3CFAB01BC01490D511DFA
:10535000611D711DF80146A357A360A771A790E0D6
:1053600080E00E948E25F801892B09F681818064F6
:105370008183F80186899789917020E032E0281BAB
:10538000390B46012C153D0508F449012401712C07
:10539000612CB301A4018B819C810E948E25F801B0
:1053A000892B09F0A4CF86899789A08DB18D840DB2
:1053B000951DA61DB71D868B978BA08FB18F2B8156
:1053C0003C81280D391D3C832B83C818D908A80CB3
:1053D000B91C2C0131E05322452809F05FCF0E940F
:1053E000600BF801892B09F082CF81818F7B81834B
:1053F00055CFA12C84E07DCF80E07BCF3FEF2316FB
:1054000031E0330608F4A4CE8111BCCE85E001154D
:10541000110569F0F801818180FF12C086FF0AC082
:105420000E94600B892B31F0F801118281E010920B
:105430005D03B9CEF80181818F7B818380E0F7CF56
:1054400084E0F5CFFEE0FD15F8F011E01D0DD11060
:1054500001C010E0612F609561708CE00E94A6078A
:10546000612F62708BE00E94A60700915C0300230D
:1054700059F0612F64708AE00E94A607612F68705E
:1054800087E1023008F0FACD80911C0180931D0164
:105490008091640390916503909367038093660302
:1054A00097CCDD2089F3D0920F0110CD6D2D617066
:1054B000609359030BCD80915803882329F380E230
:1054C0000E94EC0683E190E00E94780A6D2D84E74B
:1054D00095E00E94490A0E94E90610915703110FB6
:1054E00080E20E94EC0682E190E00E94780A612F3F
:1054F0006C6F84E795E00E94490A0E94E9061D6FDF
:1055000010935E0380E20E94EC0682E190E00E942C
:10551000780A612FC9CD80915603882309F4D6CC2F
:1055200011E0903209F410E080916F038330E0F0D5
:1055300080EE8D0D8F35F0F48D2D1F928F931F927D
:10554000DF92812F90E08F5B9F4F9F938F938DE62B
:105550009AE09F938F93FF92EF920E9420150FB6CF
:10556000F894DEBF0FBECDBF4D2D60E0812F0E94AD
:105570004815ACCC8EE2E1CF80915603882309F424
:10558000A5CCBB24B394923209F4B12C0D2D10E0BC
:1055900056E0159507955A95E1F73D2D3F71A32EDD
:1055A00080916F038230E0F0923209F078C08FEA88
:1055B0009BE09F938F93FF92EF920E942015809122
:1055C00068031F928F9387EB9BE09F938F93FF92CB
:1055D000EF920E9420150FB6F894DEBF0FBECDBF2C
:1055E0008B2D90E0FC01E45FFE4F6F0180818F7195
:1055F000A81649F1E0916803EF7124E0E29FF00101
:105600001124E353FE4F708081809280A3808091AB
:105610006F03823088F0AF929F928F927F9284E9DD
:105620009BE09F938F93FF92EF920E9420150FB6FD
:10563000F894DEBF0FBECDBF472D582D692D7A2DB2
:105640008B2D0E947A16F601808190E046E09595B8
:1056500087954A95E1F708171907E1F080916F03E4
:10566000823008F4E4C21F930F9322E83BE03F939B
:105670002F93FF92EF920E9420150F900F900F90A2
:105680000F900F900F900130110511F10CF0D8C25E
:10569000012B41F080916803F601808317CC87EAE3
:1056A0009BE087CF80916F03823060F088E79BE0BA
:1056B0009F938F93FF92EF920E9420150F900F906F
:1056C0000F900F9040E060E08B2D0E94E425E2CF28
:1056D00080916F038230B0F382E69BE09F93E9CF25
:1056E00080916F03823060F023E53BE03F932F937E
:1056F000FF92EF920E9420150F900F900F900F9045
:1057000041E061E0E1CF84E10E947D07892B09F04F
:1057100073C282E10E947D0710926803882309F416
:1057200046C080916F03823070F00E9472148AE349
:105730009BE00E947E098AE29BE00E947E098091A4
:1057400055030E94A9148FEF8093680387E194E0CA
:105750000E94FE081816190634F587E194E00E94AD
:10576000DD08809368031092540361E081E00E9499
:10577000A607809155038E7F8093550381E0809327
:105780000B011FEF11B98091680382B960E08EE0D0
:105790000E94A60760E080E00E94A6070E944007E2
:1057A00011B812B91DCB81E080935403DECF8091F4
:1057B0001D01893809F49FC108F064C0843809F4D8
:1057C000ECC008F048C0813809F4C0C0A8F48038A3
:1057D00009F4A0C080911D018D7F843891F28091E1
:1057E0001C0180931D018091640390916503909347
:1057F000670380936603C5CF823809F4C3C083383A
:1058000049F70091530310E0000F111FD09052038D
:1058100087E194E00E94FE0834E0181619060CF0A7
:1058200030E08091540328E0811101C020E0809194
:105830005903F0E18F9FC0011124082BD02A009159
:105840005C0340E4049F80011124D02AD32AD22A89
:10585000D0926803BFCF863809F4E8C008F4E3C0EB
:10586000873809F445C1883809F0B4CF87E194E05E
:105870000E94CE088F3F910509F008F480C08FEF99
:1058800090E07DC0843AE8F5823A08F073C18B3825
:1058900009F467C108F449C1803A08F49BCF90919C
:1058A0005603992309F464C111E0803A09F410E029
:1058B00060E0812F0E949615082F80916F0383303E
:1058C000E8F080EE800F8F3508F050C1802F1F92D6
:1058D0008F931F920F93812F90E08F5B9F4F9F9329
:1058E0008F932DE83AE03F932F93FF92EF920E941F
:1058F00020150FB6F894DEBF0FBECDBF009368032E
:1059000069CF863A08F45BC18E3F09F063CF80917E
:105910006F0335C08DE00E947D07182F80935E03D2
:1059200062E08DE00E94D4078DE00E947D0721E0B7
:10593000892B09F020E02093680361E08DE00E944C
:10594000D407612F8DE00E94A60744CF80916303A6
:10595000882309F444CF80E20E94EC0682E190E0C3
:105960000E94780A0E94E90680E20E94EC0661E04B
:1059700070E080E290E00E94FD120E94090780938F
:10598000680328CF80916303882309F428CF80E23D
:105990000E94EC0683E190E0E3CF809153038823DB
:1059A000A9F100916603109167030115110569F4CF
:1059B0000E94441380919803809368030F5F1F4FE8
:1059C000109367030093660305CF07301105F0F4C9
:1059D000809172030430110579F368F48091960385
:1059E0000230110549F3809173030330110521F34F
:1059F00080919703E1CF8091710305301105E1F2A9
:105A00008091700306301105B9F2F2CF80911C012C
:105A100080931D01809164039091650390936703C7
:105A200080936603D7CE80911001A9CF00916603C1
:105A3000109167030115110519F5609160037091CC
:105A40006103611582E07807D8F480915F038032AA
:105A5000B8F490911001911113C095E0660F771F73
:105A60009A95E1F7682B90E080E029E0660F771FB8
:105A7000881F991F2A95D1F70E94B00F80931001BB
:105A80008091100181111DC0902F9F71D92E90938C
:105A90005E0391110FC0CE0101960E94E00E998124
:105AA00090935103903210F1809310018091100176
:105AB000811107C0ED2DF0E0E653FC4F808180930B
:105AC00068030F3F114060F080911C0180931D011D
:105AD00080916403909165039093670380936603BC
