:100000000C9415060C943F060C943F060C943F0686
:100010000C943F060C943F060C943F060C943F064C
:100020000C943F060C943F060C943F060C943F063C
:100030000C943F060C943F060C943F060C943F062C
:100040000C943F060C943F060C946A220C943F06D5
:100050000C94DE220C94B4220C943F060C943F06C0
:100060000C943F060C943F060C9414230C943F060A
:100070000C943F060C943F060C943F060C943F06EC
:100080000C943F060C943F060C943F063110FD2162
:1000900052FDCDC6FECD3EFFCDF4FD3EFFBC20108F
:1000A000BD200D21D9FDCDC6FE2188FDCDC6FE7631
:1000B000E521D9FDCDC6FE2175FDCDC6FEE1CD4BB6
:1000C000FFCD3EFFCD3EFFDB01FEFF20FAE9694C8C
:1000D0006F6164202D20496E74656C2D4865782011
:1000E0004C6F61646572202D2053323030373138C7
:1000F000005374617274696E672041646472657341
:10010000733A20004C6F6164206572726F72202D0B
:100110002053797374656D2068616C746564005751
:10012000616974696E6720696E707574207374728A
:1001300065616D2E2E2E0053796E74617820657284
:10014000726F722100436865636B73756D20657211
:10015000726F722100694C6F61643A2000416464DF
:10016000726573732076696F6C6174696F6E2100BC
:10017000F5D5C501FFFF21A3FDCDC6FECD3EFFCDC8
:1001800072FFFE0D28F9FE0A28F5FE2028F1CD1A8F
:10019000FFCD69FFFE3AC2A3FECDE1FE571E00CDA2
:1001A000BEFECDD6FE3EFFB82005B92002444D7CF0
:1001B000CDBEFE7DCDBEFECDE1FECDBEFEFE01205C
:1001C0001ECDE1FECDBEFE7BA72866CD3EFF21D928
:1001D000FDCDC6FE21C9FDCDC6FE01FFFF18527A36
:1001E000A7282CCDE1FECDBEFEE5C5A701F0FCEDB4
:1001F00042C1E1DA8EFECD3EFF21D9FDCDC6FE2102
:10020000E1FDCDC6FE01FFFF182777231518D0CDDD
:10021000E1FECDBEFE7BA720B2CD3EFFC303FECDE7
:100220003EFF21D9FDCDC6FE21BBFDCDC6FE01FF9F
:10023000FFCD3EFF6069C1D1F1C9C54F7B915F79A8
:10024000C1C9F5E57EFE002806CD69FF2318F5E15A
:10025000F1C9F5CDE1FE67CDE1FE6FF1C9C5CDF481
:10026000FECB07CB07CB07CB0747CDF4FEB0C1C908
:10027000CD72FFCD1AFFCD06FF30F5CD23FFCD2E79
:10028000FFC9FE47D0FE3030023FC9FE3AD8FE41DA
:1002900030023FC937C9FE61D8FE7BD0E65FC9FE98
:1002A0003A3802D607D630E60FC9F5E60FC630FE5B
:1002B0003A3802C607CD69FFF1C9F53E0DCD69FF99
:1002C0003E0ACD69FFF1C9E5F57CCD58FF7DCD58DB
:1002D000FFF1E1C9F5C5470F0F0F0FCD2EFF78CD08
:1002E0002EFFC1F1C9F53E01D301F1D300C9DB01F5
:1002F000FEFFCA72FFC9494F533A2052544320733C
:10030000657420617420636F6D70696C6520746919
:100310006D65202D204E6F773A2000293F205B59D4
:100320002F4E5D203E000A446F20796F7520776163
:100330006E74207365742052544320617420494FB9
:100340005320636F6D70696C652074696D6520283A
:1003500000494F533A2052544320636C6F636B2023
:100360006661696C7572652100494F533A20525499
:1003700043204453333233312074656D70657261AC
:10038000747572652073656E736F723A2000494F01
:10039000533A20466F756E642052544320445333C1
:1003A000323331204D6F64756C65202800494F53FE
:1003B0003A2052544320646174652F74696D65203E
:1003C00075706461746564202800202E2E2E646F81
:1003D0006E652020202020200A005365636F6E6424
:1003E00073202D3E20004D696E75746573202D3E7F
:1003F0002000486F757273202D3E200020446179E3
:10040000202D3E20002020202020202020202020E1
:100410002020004D6F6E7468202D3E2000596561CC
:1004200072202D3E200020000A5072657373205404
:100430002F5520746F20696E6372656D656E742030
:100440002B31302F2B31206F7220435220746F20BC
:10045000616363657074000A494F533A20525443F4
:10046000206D616E75616C2073657474696E673A96
:10047000000D0A507265737320435220746F20611F
:1004800063636570742C2045534320746F20657836
:100490006974206F7220616E79206F7468657220B4
:1004A0006B657920746F206368616E676500494FE2
:1004B000533A205A38302069732072756E6E696E17
:1004C000672066726F6D206E6F770020446F6E65D7
:1004D00000494F533A204C6F6164696E6720626F28
:1004E0006F742070726F6772616D2E2E2E00292E30
:1004F0002E2E00494F533A204C6F6164696E67207D
:10050000626F6F742070726F6772616D2028004493
:10051000454255473A20426F6F7453747241646488
:1005200072203D200044454255473A20466C617395
:100530006820426F6F74496D61676553697A652001
:100540003D200044454255473A20496E6A65637430
:100550006564204A50203078008C00494F533A207F
:1005600043757272656E7420002564204B42797465
:1005700065730D000D202D3E004368616E67656454
:100580002073706565642077696C6C2062652065F6
:100590006666656374697665206166746572206E4F
:1005A000657874207265626F6F74210D0A0A0020ED
:1005B00020200D000D202D3E002020202020202076
:1005C000202020202020202020200D000D202D3E46
:1005D000003F566572626F73697479206C65766549
:1005E0006C200020204F6B00456E74657220796F7F
:1005F00075722063686F696365203E200025644B37
:1006000042797465730020413A2053657420524149
:100610004D2D73697A6520280020393A205365747E
:10062000205254432074696D652F64617465002005
:10063000383A205365742073657269616C20706F5D
:1006400072742073706565642028004F4646002050
:10065000373A20546F67676C652043502F4D204117
:1006600075746F6578656320282D3E004D487A29A2
:100670000020363A204368616E6765205A38302082
:10068000636C6F636B20737065656420282D3E007A
:1006900020353A20694C6F6164000D0A20343A20FD
:1006A0004175746F626F6F740020333A204C6F6134
:1006B000642F736574204F53200020323A20466F18
:1006C0007274680020313A204261736963002030FF
:1006D0003A204E6F206368616E6765202800494F9D
:1006E000533A2053656C65637420626F6F74206D9C
:1006F0006F6465206F722073797374656D2070610B
:1007000072616D65746572733A004F4646004F4ED4
:1007100000494F533A2043502F4D204175746F6567
:100720007865632069732000494F533A20466F75FE
:100730006E642053494F41202F2053494F42204F90
:100740007074696F6E00494F533A20466F756E643E
:1007500020475045204F7074696F6E002028435425
:10076000532C2052545320757365642061732042CA
:10077000414E4B322C2042414E4B33207369676E01
:10078000616C2C2043453220696E76657274656415
:100790002900202843545320757365642061732019
:1007A00042414E4B32207369676E616C2900494F9C
:1007B000533A2025644B42797465732052414D00B1
:1007C0004D487A00494F533A205A383020636C6FB5
:1007D000636B2073657420617420005332323037AC
:1007E00031382D523239303832332D4432383132AB
:1007F0003235202D204465632032382032303235A6
:100800002031393A34393A3432000D0A0A5A383034
:100810002D4D424332202D204130343036313820A6
:100820002D2041546D65676131323834202D2031DF
:1008300036204D487A00494F533A20436865636B30
:1008400020534420616E64207072657373206120B0
:100850006B657920746F207265706561740D0A0094
:10086000202D2046696C653A2000206F706572610A
:1008700074696F6E0052454144004F50454E004D23
:100880004F554E5400206F6E2000554E4B4E4F5723
:100890004E004E4F5F46494C4553595354454D0009
:1008A0004E4F545F454E41424C4544004E4F545FBD
:1008B0004F50454E4544004E4F5F46494C45004E13
:1008C0004F545F5245414459004449534B5F455290
:1008D00052000D0A494F533A205344206572726FFB
:1008E0007220003F3F53494F25633A20416374759E
:1008F000616C2062617564726174653A2025640DD3
:100900000A003F3F53494F25633A2043616C6375AA
:100910006C617465642064697669736F723A20252E
:10092000640D0A003F3F53494F25633A20446573E5
:10093000697265642062617564726174653A20252C
:10094000640D0A003F3F3F53494F25633A205365EA
:10095000744175746F48616E647368616B652025BE
:10096000642C2025640D0A003F3F3F3F3F53494F11
:1009700025633A20526561645265676973746572D4
:10098000203078253032582028257329207265734D
:100990003D3078253032580D0A003F3F3F3F3F53EE
:1009A000494F25633A2057726974655265676973C8
:1009B000746572203078253032582028257329201C
:1009C00076616C3D3078253032580D0A003F3F3F4C
:1009D00053494F25633A20577269746542797465AB
:1009E000203078253032582025630D0A003F3F3FE4
:1009F00053494F25633A20526561644279746520FA
:100A00003078253032582025630D0A003F3F3F3FA4
:100A100053494F25633A205278204649464F204C8F
:100A20006576656C3A2025640D0A003F3F3F3F53D1
:100A3000494F25633A205478204649464F20537049
:100A40006163653A2025640D0A00202D20697271CA
:100A5000537461747573203D200044454255473AF4
:100A600020494E542041434B206379636C6500203C
:100A70002D20696F44617461203D2000444542553A
:100A8000473A2053595349525100202D2069727121
:100A9000537461747573203D200044454255473AB4
:100AA0002053455220525800726573657276656412
:100AB0000D0A006175746F205254532F4354530D27
:100AC0000A006175746F20586F6E2F586F6666202C
:100AD000284E5949290D0A0064697361626C650DDD
:100AE0000A00202D2068616E647368616B653A208E
:100AF00025642000202D2062617564726174653A5E
:100B000020256C640D0A003F3F53494F423A003F95
:100B10003F53494F413A002073657420636F6E74F0
:100B2000726F6C3A20307825303258000000210076
:100B3000240027002A0000002200250028002B00A6
:100B40000000200023002600290002020202020207
:100B5000020204040404040404040303030303035F
:100B60000303010101010101010101020408102038
:100B70004080010204081020408001020408102077
:100B800040800102040810204080000000020300A1
:100B90000A0B000000000504090800000000000026
:100BA000000000000000000000003F3F3F53494F9D
:100BB00025633A204649464F536574547269676706
:100BC00065724C6576656C2825735F4649464F3AD9
:100BD0002026640D0A003F53494F25633A204C43B9
:100BE000522052656769737465723A2030782530F7
:100BF00032780D0A000D0A0A494F533A20426175B6
:100C000064207265636F7665727920646F6E65200B
:100C10002D20506C65617365207265626F6F742062
:100C20006E6F77210000E224F72C11241FBECFEF56
:100C3000D0E4DEBFCDBF24E0A6EEB2E001C01D923D
:100C4000A63CB207E1F712E0A0E0B1E0E8E5F5E686
:100C500000E00BBF02C007900D92A63EB107D9F786
:100C600016E0C4E1D6E004C02197FE010E94633083
:100C7000C331D107C9F70E9438250C949F320C94D8
:100C80000000282F9091BB0381E0913208F042C010
:100C9000809197038111FCCF8091BA0332E03093A9
:100CA0009703209396032FEF209395032AE933E0CF
:100CB00030939403209393031092920390939103A3
:100CC0001092900390919003880F892B809390034A
:100CD00080918F03813029F510928F0380919003CA
:100CE0008093BB008091BC0083FDF8CF85EC80939E
:100CF000BC00809197038230E1F3809195038F3F90
:100D000091F080919503803281F08091950380333A
:100D100071F084E0109299031092BB031092980333
:100D2000089585EEE4CF80E0F5CF82E0F3CF83E055
:100D3000F1CF81E00C94410691E090939803809369
:100D4000BA03109299031092BB03089590918B03FC
:100D500080918A032FEF3FEF981748F4E92FF0E0D6
:100D6000E659FC4F208130E09F5F90938B03C901CF
:100D7000089590918B0380918A032FEF3FEF98178E
:100D800048F4E92FF0E0E659FC4F208130E09F5F06
:100D900090938B03C90108952091BA043091BB044C
:100DA0008217930760F42091B6043091B70421159F
:100DB000310529F0280F391FF9018081089580E05D
:100DC0000895FB01A485B585ED91FC9111970190E3
:100DD000F081E02D682FCD01099590E080E0089525
:100DE00083E090E00197F1F7089582508A3088F50A
:100DF000E82FF0E0E250F94F0C94633026072A0701
:100E000008070E0729072907120718071C072207DA
:100E1000809180008F77809380000895809180007A
:100E20008F7DF9CF8091B0008F778093B0000895C7
:100E30008091B0008F7DF9CF809190008F77809363
:100E400090000895809190008F7DF9CF84B58F77C1
:100E500084BD089584B58F7DFBCFCF93DF93282F7A
:100E600030E0F901E657F44F8491F901E659F44F67
:100E7000D491F901E65BF44FC491CC23A1F0811128
:100E80000E94F506EC2FF0E0EE0FFF1FE05CF44F40
:100E9000A591B491EC91ED2381E090E009F480E01C
:100EA000DF91CF91089580E090E0FACF1F93CF9328
:100EB000DF93282F30E0F901E657F44F8491F901D0
:100EC000E659F44FD491F901E65BF44FC491CC2379
:100ED000A9F0162F81110E94F506EC2FF0E0EE0F1D
:100EE000FF1FEA5CF44FA591B4918FB7F894EC9191
:100EF000111108C0D095DE23DC938FBFDF91CF9115
:100F00001F910895DE2BF8CFCF93DF9390E0FC0183
:100F1000E659F44F2491865B944FFC018491882319
:100F2000C9F090E0880F991FFC01E45DF44FA59192
:100F3000B491FC01EA5CF44FC591D49161110DC0EC
:100F40009FB7F8948C91209582238C9388812823D5
:100F500028839FBFDF91CF910895623051F49FB7EE
:100F6000F8943C91822F809583238C93E8812E2BDB
:100F7000EFCF8FB7F894EC912E2B2C938FBFEACF45
:100F80003FB7F8948091610390916203A09163034D
:100F9000B091640326B5A89B05C02F3F19F00196B8
:100FA000A11DB11D3FBFBA2FA92F982F8827BC01C3
:100FB000CD01620F711D811D911D42E0660F771FEB
:100FC000881F991F4A95D1F708958F929F92AF92EB
:100FD000BF92CF92DF92EF92FF924B015C010E9491
:100FE000C0076B017C010E94C0076C197D098E0946
:100FF0009F09683E734081059105A8F321E0821A9C
:101000009108A108B10888EEC80E83E0D81EE11C43
:10101000F11C81149104A104B10429F7FF90EF9011
:10102000DF90CF90BF90AF909F908F9008952FB793
:10103000F89460915D0370915E0380915F039091DD
:1010400060032FBF0895AF92BF92CF92DF92EF92CD
:10105000FF920F931F93CF93DF936C017B018B0162
:10106000040F151FEB015E01AE18BF08C017D107B2
:1010700059F06991D601ED91FC910190F081E02D3C
:10108000C6010995892B79F7C501DF91CF911F9191
:101090000F91FF90EF90DF90CF90BF90AF900895A9
:1010A000FC01538D448D252F30E0842F90E0821B6E
:1010B000930B541710F0CF96089501970895FC01F3
:1010C000918D828D981761F0A28DAE0FBF2FB11D4B
:1010D0005D968C91928D9F5F9F73928F90E00895A3
:1010E0008FEF9FEF0895FC01918D828D981731F05D
:1010F000828DE80FF11D858D90E008958FEF9FEFB1
:101100000895FC01918D228D892F90E0805C9F4F86
:10111000821B91098F73992708958DE094E00E94B6
:10112000810821E0892B09F420E0822F0895FC0139
:10113000A48DA80FB92FB11DA35ABF4F2C91848D38
:1011400090E001968F739927848FA689B7892C9395
:10115000A089B1898C91837080648C93938D848DE8
:10116000981306C00288F389E02D80818F7D8083EB
:101170000895EF92FF920F931F93CF93DF93EC01AB
:1011800081E0888F9B8D8C8D98131AC0E889F9892E
:10119000808185FF15C09FB7F894EE89FF89608331
:1011A000E889F98980818370806480839FBF81E0B2
:1011B00090E0DF91CF911F910F91FF90EF900895F4
:1011C000F62E0B8D10E00F5F1F4F0F731127E02ECF
:1011D0008C8D8E110CC00FB607FCFACFE889F98907
:1011E000808185FFF5CFCE010E949708F1CFEB8D6E
:1011F000EC0FFD2FF11DE35AFF4FF0829FB7F894DB
:101200000B8FEA89FB8980818062CFCF0F931F9378
:10121000CF93DF938C01D0E0C0E0F801EC0FFD1F0D
:101220006491662341F08DE094E00E94B908892B17
:1012300011F02196F2CFCE01DF91CF911F910F9146
:101240000895CF93DF93EC01888D8823B9F0AA89A4
:10125000BB89E889F9898C9185FD03C0808186FD71
:101260000DC00FB607FCF7CF8C9185FFF2CF8081C0
:1012700085FFEDCFCE010E949708E9CFDF91CF9196
:10128000089585ED8093BC008091BC0084FDFCCF67
:1012900010929703089520911B03260F3327331FC5
:1012A00021323105ECF420919703FC0190E080E0BD
:1012B000243069F082E00895A0911B032191AC01D4
:1012C00047505D4FA40FB52FB11D2C930196861783
:1012D00098F380911B03680F60931B0380E00895CF
:1012E00081E00895089508950895E0918B03809119
:1012F0008A03E81730F4F0E0E659FC4F808190E073
:1013000008958FEF9FEF089580918A0390918B034A
:10131000891B990B0895CF92DF92EF92FF920F9362
:101320001F93CF93DF937C01CB018A012091980317
:10133000222389F0EB016B01C40ED51ECC15DD050F
:1013400069F06991D701ED91FC910190F081E02D58
:10135000C7010995F3CF642F0E944B09C801DF91A3
:10136000CF911F910F91FF90EF90DF90CF90089554
:10137000CF93DF931F92CDB7DEB769832091980397
:101380002223F9F02091BB03203258F021E030E015
:10139000FC013383228390E080E00F90DF91CF91B6
:1013A000089580919903E82FF0E0E656FC4F99816B
:1013B00090838F5F809399038093BB0381E090E0DB
:1013C000ECCF61E0CE0101960E944B09F7CF682F68
:1013D0008AEA94E00C94B8090F931F93CF93DF939C
:1013E000082F162FD42F88E60E949C0690E080E0FC
:1013F0000E94E70980918E03CAE06C2F0E94213081
:101400008295807F682F690F8AEA94E00E94B8096C
:1014100080918D036C2F0E9421308295807F682FF0
:10142000690F8AEA94E00E94B80980918C036C2FBE
:101430000E9421308295807F682F690F8AEA94E0AC
:101440000E94B80981E090E00E94E709802F6C2F8C
:101450000E9421308295807F682F690F8AEA94E08C
:101460000E94B809812F6C2F0E9421308295807FC5
:10147000682F690F8AEA94E00E94B8098D2F6C2FBB
:101480000E9421308295807F682F690F8AEA94E05C
:101490000E94B809DF91CF911F910F910C9499068A
:1014A00090E080E008950F931F93E0910B04F0917A
:1014B0000C049B01AC01225031094109510986817C
:1014C0009781A085B1850297A109B109281739072D
:1014D0004A075B0778F4A281B0E00E9407300289D6
:1014E000138924893589600F711F821F931F1F91F3
:1014F0000F91089560E070E0CB01F9CF0F931F9337
:10150000CF93DF93EC01E0910B04F0910C0419826E
:1015100018826C817D818E819F816130710581058A
:10152000910581F10681178120853185601771074A
:101530008207930738F5611571058105910539F426
:101540002081233021F46685778580899189688799
:1015500079878A879B87611571058105910569F0F7
:101560000E94530A6C877D878E879F8790E080E07A
:10157000DF91CF911F910F910895668577858089BE
:101580009189F0CF81E090E0F3CF8EBD0DB407FEDE
:10159000FDCF08958FEF0E94C50A8EB508950F9371
:1015A0001F93CF93DF93C0914003D09141032197C4
:1015B000CD3F8FEFD80721F080E00E94C50AF7CF1A
:1015C0000E94CA0A8F71853079F0D1E0C0E061E0F5
:1015D00084E00E9456070E94CA0A8D2F9C2FDF913B
:1015E000CF911F910F91089508E813E1C0E9D1E070
:1015F0000E94CA0A8F3F49F00115110531F3CE014F
:101600000197F1F701501109F3CFD1E0C0E0012BB0
:10161000F1F2D0E0DCCFFF920F931F93CF93DF93D3
:10162000C82FD42F152F062FF72E8091E00381119C
:101630003FC083E58CBD1DBCC7FF09C040E050E042
:10164000BA0187E70E940B0B823060F5CF7761E02B
:1016500084E00E9456070E94CA0A60E084E00E946B
:1016600056070E94CA0A8C2F0E94C50A8F2D0E941D
:10167000C50A802F0E94C50A812F0E94C50A8D2F9E
:101680000E94C50A85E9C03421F087E8C83409F012
:1016900081E00E94C50ACAE00E94CA0A87FF02C010
:1016A000C150D1F7DF91CF911F910F91FF90089515
:1016B00080E58CBD81E08DBDBFCFCF92DF92EF92F0
:1016C000FF920F931F93CF93DF937C016901809169
:1016D000E00383FD07C089E0440F551F661F771F95
:1016E0008A95D1F781E50E940B0B811108C0C0E4F7
:1016F000DCE90E94CA0A8F3F29F42197D1F7C1E0A3
:10170000D0E022C08E3FD9F7C2E0D2E0C01BD10B9F
:10171000CC19DD0981E0C81AD10818F00E94CA0A64
:10172000F9CFE114F10401F10E0D1F1D0E94CA0A48
:10173000F70181937F010E171F07C1F70E94CA0AA4
:101740002197E1F7D0E0C0E061E084E00E94560715
:101750000E94CA0ACE01DF91CF911F910F91FF9095
:10176000EF90DF90CF9008950E94CA0A01501109AE
:10177000D9F7E4CFCF92DF92EF92FF920F931F93AE
:10178000CF93DF93EC016A017B0102E010E02EEFC2
:1017900031E00E945D0B892B31F588819981853577
:1017A0009A4A59F526E330E0B701A601CE010E941E
:1017B0005D0B892B29F4888199818634914489F0C5
:1017C00002E010E022E530E0B701A601CE010E9460
:1017D0005D0B892BA1F481E02881398126343144C5
:1017E00019F480E001C083E0DF91CF911F910F9148
:1017F000FF90EF90DF90CF90089582E0F5CF81E0E9
:10180000F3CF4F925F926F927F928F929F92AF929F
:10181000BF92CF92DF92EF92FF920F931F93CF93DD
:10182000DF93CDB7DEB7A4970FB6F894DEBF0FBE37
:10183000CDBF10920C0410920B048091E00388231A
:1018400039F084E00E942D07892B11F40E94CF0A01
:1018500061E084E00E94560761E084E00E94840712
:1018600061E085E00E94840761E087E00E948407D0
:1018700061E084E00E94840783E58CBD1DBC61E0CB
:1018800084E00E9456071AE00E94CA0A1150E1F74C
:1018900040E050E0BA0180E40E940B0B182F813029
:1018A00009F441C010E01093E00361E084E00E947D
:1018B00056070E94CA0A82E090E01123E9F040E056
:1018C00050E0BA01CE0101960E94BA0BC12CD12C76
:1018D0007601813009F096C000E110E02EEB31E096
:1018E00040E050E0BA01CE0101960E945D0B892BC9
:1018F00009F478C081E090E0A4960FB6F894DEBFBA
:101900000FBECDBFDF91CF911F910F91FF90EF9050
:10191000DF90CF90BF90AF909F908F907F906F900F
:101920005F904F9008954AEA51E060E070E088E4EB
:101930000E940B0B813091F5CE0101967C016E0166
:1019400095E0C90ED11C87010E94CA0AF801819353
:101950008F01CE16DF06C1F78B81813009F0A2CF4F
:101960008C818A3A09F09ECF80E1C82E87E2D82E7A
:1019700090E9A92EBB24B39440E050E060E070E40D
:1019800089EE0E940B0B882309F4C9C0C501019799
:10199000F1F7F1E0CF1AD10879F784CF40E050E0B9
:1019A000BA0189EE0E940B0B01E4823010F412E0C0
:1019B00009EEA0E1EA2EA7E2FA2EB0E9CB2EDD2453
:1019C000D39440E050E0BA01802F0E940B0B882393
:1019D00009F4BBC0C6010197F1F7F1E0EF1AF10875
:1019E00081F760CF8D81811103C086E090E084CFC4
:1019F000C984DA84EB84FC84B701A601CE01019688
:101A00000E94BA0B833009F475CF8111EECF04E246
:101A100010E02DE030E0B701A601CE0101960E9452
:101A20005D0B892B09F066CF2A853B8550E040E0AD
:101A3000211531054105510521F4288D398D4A8D37
:101A40005B8DAC81B0E00E9407304B015C014A81A4
:101A50005B8170E060E0C40ED51EE61EF71EC092EA
:101A6000EB03D092EC03E092ED03F092EE03E981F8
:101A7000E093E3038D819E819093E6038093E503D9
:101A80000F81188530E020E0011511052105310591
:101A900021F40C891D892E893F89F4E0969587955C
:101AA000FA95E1F72C01712C612C041B150B260B08
:101AB000370BC901B801681979098A099B096419AA
:101AC0007509860997092E2F30E050E040E00E940A
:101AD0004130DA01C9010296A11DB11D8093E703CF
:101AE0009093E803A093E903B093EA03265F3F4095
:101AF000410951092F3F3F4E4105510588F1873F6C
:101B00009F4FA105B10588F570CF82E08093E10376
:101B1000D501C4018C0D9D1DAE1DBF1D2DC040E023
:101B200050E0BA018AE70E940B0B8111BBCE0E94E4
:101B3000CA0AF70181937F010E171F07C1F7898138
:101B40001CE086FDB0CE14E0AECE40E052E060E096
:101B500070E080E50E940B0B882309F4A4CEA2CE8E
:101B6000873F9F4FA105B10580F283E08093E10399
:101B700088A199A1AAA1BBA18093EF039093F00340
:101B8000A093F103B093F203C40CD51CE61CF71C20
:101B90008C0C9D1CAE1CBF1C8092F3039092F4032E
:101BA000A092F503B092F6031092E20381EE93E067
:101BB00090930C0480930B0490E080E09DCE0F93F3
:101BC0001F93CF93DF9300D000D0CDB7DEB7623044
:101BD00071058105910528F461E070E080E090E0F6
:101BE00055C0E0910B04F0910C040681178120850B
:101BF0003185601771078207930770F7AB01BC014D
:101C00008081823031F1833039F79A012F77332781
:101C1000220F331F220F331F97E076956795579554
:101C200047959A95D1F782859385A485B585480F08
:101C3000591F6A1F7B1F04E010E0CE0101960E942D
:101C40005D0B892B49F669817A818B819C819F701C
:101C50001DC09A013327220F331F452F562F672FA0
:101C6000772782859385A485B585480F591F6A1FFC
:101C70007B1F02E010E0CE0101960E945D0B892BD4
:101C800009F0AACF69817A8190E080E00F900F90EF
:101C90000F900F90DF91CF911F910F9108956F9248
:101CA0007F928F929F92AF92BF92CF92DF92EF92EC
:101CB000FF920F931F93CF93DF93C0910B04D091AA
:101CC0000C04FC0111821082209709F4AFC0298115
:101CD00020FFAFC00A8D1B8D2C8D3D8D4E895F89F5
:101CE000688D798D68017901C41AD50AE60AF70A68
:101CF000B701A601403251056105710520F040E2AF
:101D000050E060E070E05C017A0130EC832E33E05B
:101D1000932E612C42E0742EE114F10409F48CC07E
:101D20008E899F89A88DB98DAC01BD015170662740
:101D30007727452B462B472B09F04AC0DA80DA94E7
:101D4000AC01BD0129E076956795579547952A9591
:101D5000D1F7D42251F5892B8A2B8B2BD9F46E8D98
:101D60007F8D88A199A16230710581059105C8F424
:101D7000198281E090E0DF91CF911F910F91FF9048
:101D8000EF90DF90CF90BF90AF909F908F907F901B
:101D90006F9008956AA17BA18CA19DA10E94DF0D87
:101DA000E2CF6AA37BA38CA39DA36AA17BA18CA194
:101DB0009DA10E94530A6115710581059105C1F22B
:101DC0006D0D711D811D911D6EA37FA388A799A71D
:101DD0002E893F893170C301821B930B67018E15D9
:101DE0009F0508F46C014EA15FA168A579A5860145
:101DF000C4010E945D0B892B09F0BACF8E899F899F
:101E0000A88DB98D8C0D9D1DA11DB11D8E8B9F8B35
:101E1000A88FB98F8C0C9D1CEC18FD08F5018081F2
:101E20009181C80ED91ED182C08276CF85E090E024
:101E3000A2CF84E090E09FCF90E080E09CCF4F92D3
:101E40005F926F927F928F929F92AF92BF92CF924A
:101E5000DF92EF92FF92CF93DF9300D000D000D0BB
:101E6000CDB7DEB720910B0430910C043E832D8357
:101E70002115310509F40CC1D90111962C91119746
:101E800020FF09C15A96CD90DD90ED90FC905D97B2
:101E90006C157D058E059F0510F46B017C01ED81AD
:101EA000FE8146885788608C718C168A178A108E3E
:101EB000118EC114D104E104F10409F4E6C082805A
:101EC000912CB12CA12C39E0880C991CAA1CBB1CAC
:101ED0003A95D1F7411451046104710409F470C0BA
:101EE000B1E04B1A510861087108C701B601615091
:101EF000710981099109A50194010E94413029834A
:101F00003A834B835C83C301B201A50194010E9413
:101F1000413089819A81AB81BC8182179307A407E4
:101F2000B50708F44DC088279927DC01881999095D
:101F3000AA09BB0984219521A621B721ED81FE8143
:101F4000868B978BA08FB18FC81AD90AEA0AFB0A31
:101F500062A173A184A195A18C149D04AE04BF0459
:101F600008F058C00E94DF0D6230710581059105AF
:101F700068F0AD81BE8116964D905D906D907C901D
:101F80001997641575058605970540F1ED81FE8169
:101F9000118281E090E026960FB6F894DEBF0FBE66
:101FA000CDBFDF91CF91FF90EF90DF90CF90BF90AA
:101FB000AF909F908F907F906F905F904F9008951B
:101FC000AD81BE815E966D917D918D919C91919731
:101FD000FD0162A373A384A395A3BECFAD81BE818F
:101FE00092966D937D938D939C93959756964D9075
:101FF0005D906D907C905997480C591C6A1C7B1C15
:10200000FD01468A578A608E718EC818D908EA0881
:10201000FB08A2CFAD81BE8156968D909D90AD906C
:10202000BC905997C80CD91CEA1CFB1CFD01C68A40
:10203000D78AE08EF18E0E94530AAB01BC01411594
:1020400051056105710529F4AD81BE8111961C927F
:10205000A0CFED81FE8182818150990B092E000C69
:10206000AA0BBB0B29E0F694E794D794C7942A9562
:10207000D1F78C219D21AE21BF21480F591F6A1F26
:102080007B1F46A357A360A771A790E080E083CF92
:1020900085E090E080CF84E090E07DCF4F925F922A
:1020A0006F927F92BF92CF92DF92EF92FF920F9347
:1020B0001F93CF93DF93CDB7DEB7EC970FB6F894AD
:1020C000DEBF0FBECDBFE0900B04F0900C04E11416
:1020D000F10409F404C1F70111829E012F5C3F4F06
:1020E0003CA32BA39C016901F90180812F5F3F4F25
:1020F0008032C9F38F3209F469011DA21EA21FA20A
:1021000018A6F6018081A0E2BA2E803208F0D4C071
:10211000CE0181960E947E0A1982009709F407C1B8
:10212000EC960FB6F894DEBF0FBECDBFDF91CF9116
:102130001F910F91FF90EF90DF90CF90BF907F9015
:102140006F905F904F90089520E0E0E088E0D1C06C
:10215000C30ED11C81E0913208F080E01B968C9375
:10216000CE0181960E947E0A0097D1F629A13AA15C
:102170002F703327F5E0220F331FFA95E1F74DA5B5
:102180005EA56FA578A900E210E0CE0101960E943D
:102190005D0B892B19F081E090E0C2CF898181111C
:1021A00003C083E090E0BCCF8C8583FD13C00BA1FE
:1021B0001CA19E012F5F3F4FD801B801655F7F4F83
:1021C0006A177B0709F4AEC0F90141919F019D9107
:1021D0004917B1F309A11AA10F5F1F4F11F38DA584
:1021E0009EA5AFA5B8A90097A105B105D1F29801A8
:1021F0002F703327232BB9F40196A11DB11D8DA794
:102200009EA7AFA7B8AB69A57AA58BA59CA5F7013A
:10221000611571058105910549F48481958108173F
:10222000190708F0BECF1AA309A3A0CF2281E22F7D
:10223000E150FF0BAF019801E4E036952795EA9550
:10224000E1F724233523232B71F70E94DF0D623041
:1022500071058105910508F49ECFF70146805780EE
:1022600060847184641575058605970508F099CF1B
:1022700069A77AA78BA79CA70E94530A6DA77EA780
:102280008FA798ABD0CF84FF8CCFF70180818330AC
:10229000F1F48D899E89B0E0A0E0DC0199278827C0
:1022A0004B8D5C8D70E060E0842B952BA62BB72BBB
:1022B0008DA39EA3AFA3B8A7ABA1BCA1FD01CD0187
:1022C0000B968E179F0709F43FCFB192FACF80E0AB
:1022D00090E0DC01E5CF80E090E0DC013DC085E0EE
:1022E00090E01ECF883009F033CF9BE0282FE32FFA
:1022F000892F31E03E0FEC0DFD2DF11D90819132C3
:1023000008F426CF9F3209F423CF9E3259F32817C1
:1023100008F01ECFFD01E20FF11D9083982F81E0A0
:10232000820FE4CFF8019385992309F4ACCF89811A
:10233000882309F436CF8C8584FD33CFE0910B04DC
:10234000F0910C048081833031F68D899E89B0E054
:10235000A0E0DC01992788274B8D5C8D70E060E060
:10236000842B952BA62BB72BF701868F978FA0A3D5
:10237000B1A38D8D9E8DAF8DB8A1828F938FA48FC9
:10238000B58F168A178A108E118E81E0818390E0B6
:1023900080E0C6CECF93DF93D82FC0E061E08FE01E
:1023A0000E94560760E08FE00E945607CF5FDC1363
:1023B000F5CFDF91CF9108951F93CF93DF93182F1F
:1023C000D92F81E00E94CA1161E0809151038230CF
:1023D00009F060E082E00E945607CFEFC1B981E2C8
:1023E00082B982E00E94CA1111B8C2B982E00E948B
:1023F000CA11C1B912B983E00E94CA11D2B982E0F0
:102400000E94CA1111B8C2B961E0809151038230B3
:1024100009F460E082E0DF91CF911F910C945607A0
:10242000CF93DF93D82F81E00E94CA1161E08091A1
:102430005103823009F060E082E00E945607CFEF3E
:10244000C1B986E382B982E00E94CA1111B8C2B94B
:1024500082E00E94CA11C1B9D2B982E00E94CA11B9
:1024600011B8C2B9C091510361E0C23009F460E013
:1024700082E00E94560783E00E94CA1181E00E9418
:10248000CA1161E0C23009F060E082E00E945607A4
:10249000CFEFC1B983E282B982E00E94CA1111B8BC
:1024A000C2B961E080915103823009F460E082E0BA
:1024B0000E94560783E0DF91CF910C94CA118DE002
:1024C00094E00E948108181619069CF4809150032C
:1024D000813079F480910B01882359F060E081E02C
:1024E0000E94560780914A03816080934A031092AC
:1024F0000B0108950E948D0881110E945F1280E0F7
:1025000090E0892B49F080E090E0892B29F00E942F
:10251000000081110C9400000895AC018091970394
:102520008111FCCF962F81E08093970380939603CF
:102530002FEF209395032AE633E030939403209302
:102540009303109292032FEF260F20939103809311
:10255000900320919003440F551F822F842B80936A
:10256000900380918F038130E9F410928F03809162
:1025700090038093BB008091BC0083FDF8CF85EC75
:102580008093BC00809197038130E1F380919203A6
:10259000861710F49091920310928B0390938A0304
:1025A000892F089585EEECCFCF9388E60E949C0694
:1025B00090E080E00E94E7090E94990662E170E0E5
:1025C00088E690E00E948D120E94B906982F92959D
:1025D0009770CAE08F709C9F800D112480938E03AA
:1025E0000E94B906982F92959F708F709C9F800DC6
:1025F000112480938D030E94B906982F92959370B1
:102600008F709C9F800D112480938C030E94B906CB
:102610000E94B906982F92959F708F709C9F800D95
:102620001124809369030E94B906982F92959F7098
:102630008F709C9F800D1124809368030E94B906BF
:10264000982F92959F708F709C9F800D112480937E
:1026500067030E94B906C150E1F70E94B906809352
:102660006603CF910895FC0101900020E9F73197AE
:10267000AF01481B590BBC018DE094E00C9423087A
:102680008F929F92AF92BF920F931F93CF93DF933E
:10269000CDB7DEB7A1970FB6F894DEBF0FBECDBFA2
:1026A00019A2423008F44AE08E010F5D1F4F842EBC
:1026B000912CB12CA12CA50194010E944130E62F50
:1026C000B901CA01EA30F4F4E05DD801EE938D015E
:1026D000232B242B252B79F790E080E0109719F01D
:1026E000CD010E943313A1960FB6F894DEBF0FBE42
:1026F000CDBFDF91CF911F910F91BF90AF909F9071
:102700008F900895E95CE1CFCF92DF92EF92FF9234
:10271000CF93DF936C01990FEE08FF08F7FE19C005
:102720006DE28DE094E00E94B908EC0166277727FE
:10273000CB016C197D098E099F094AE00E94401364
:102740008C0F9D1FDF91CF91FF90EF90DF90CF9086
:1027500008954AE0C701B601DF91CF91FF90EF9055
:10276000DF90CF900C944013009711F00C9433132A
:1027700090E080E008951F93CF93DF9300D0CDB712
:10278000DEB7182F89E392E00E94B413612F70E046
:1027900090E080E04AE00E944013105D1093020137
:1027A00080E091E00E944E10CE0101960E944F0EF3
:1027B000898180934603882361F083E492E00E943C
:1027C000B41380EC93E00E94B41386E492E00E947C
:1027D000B4130F900F90DF91CF911F910895CF9375
:1027E000C82F8A3020F489E492E00E94B4136C2F41
:1027F00070E090E080E04AE0CF910C9440138111AA
:102800000E94D41288E492E00E94B413809167037E
:102810000E94EF138BE492E00E94B413809168034E
:102820000E94EF138BE492E00E94B413809169033D
:102830000E94EF1381E492E00E94B41380918C0314
:102840000E94EF138DE492E00E94B41380918D03F7
:102850000E94EF138DE492E00E94B41380918E03E6
:102860000C94EF138FE492E00C943313CF93DF9327
:102870000E940609EC010E9432148C0F9D1FDF910B
:10288000CF9108958DE094E00E94810818161906F2
:102890002CF48DE094E00E945F08F4CF86E398E08A
:1028A0000E9436148DE094E00E94810818161906E3
:1028B000CCF70895CF93DF93682F70E090E080E02D
:1028C0004AE00E944013EC010E9432148C0F9D1FBD
:1028D000DF91CF910895CF93DF930E943313EC01E2
:1028E0000E9432148C0F9D1FDF91CF9108950F939A
:1028F0001F93CF93DF93D82FC62F8A0182ED98E0E4
:102900000E9406096C2F70E090E080E04AE00E948F
:10291000401383E492E00E94B41387EB98E0C33045
:10292000C1F058F489EC98E0C13099F08FEB98E051
:10293000C23079F08AE898E00CC080EA98E0C530AF
:1029400041F08CEA98E0C53020F082E998E0C6308A
:1029500089F70E94060985E898E00E9406098AE73F
:1029600098E0D13031F08FE798E0D23011F485E76C
:1029700098E00E9406098AE698E00E94060901157F
:10298000110539F080E698E00E940609C8010E940E
:10299000B41386E492E0DF91CF911F910F910C94D4
:1029A0006B14CF93DF93CDB7DEB72E970FB6F894A5
:1029B000DEBF0FBECDBF81EE96E09A8789871C8669
:1029C0001B8682E08C838DE094E09E878D87AE012C
:1029D000495E5F4F6D897E89CE0101960E943B2D35
:1029E0002E960FB6F894DEBF0FBECDBFDF91CF910C
:1029F0000895FF920F931F93CF93DF93F42E062F2A
:102A000010E0C82FD0E080916503853020F11F923F
:102A10004F93C801880F991F880F991F8F579E4F9A
:102A20009F938F931F926F93CE018F5B9F4F9F93C6
:102A30008F938AE999E09F938F938DE094E09F9321
:102A40008F930E94D1148DB79EB70C960FB6F89451
:102A50009EBF0FBE8DBF88E40E949C06C80123E084
:102A6000880F991F2A95E1F7CC0FDD1F8C2B9D2B2A
:102A70000E94E7096F2D8AEA94E00E94B80981E07C
:102A8000DF91CF911F910F91FF900C944106DF923F
:102A9000EF92FF920F931F93CF93DF93C82FD62E01
:102AA00088E40E949C060D2D10E0D0E0980193E090
:102AB000220F331F9A95E1F7CE01880F991F822BC1
:102AC000932B0E94E70980E00E94410661E070E0DC
:102AD00088E490E00E948D120E94B9067C018091EA
:102AE0006503853020F1C70199279F938F93000FCD
:102AF000111F000F111F0F5B1E4F1F930F931F928B
:102B0000DF92CF5BDF4FDF93CF9388E699E09F930F
:102B10008F938DE094E09F938F930E94D1148DB793
:102B20009EB70C960FB6F8949EBF0FBE8DBF8E2D2C
:102B3000DF91CF911F910F91FF90EF90DF9008955B
:102B4000CF93DF93D82F63E00E944715807CC82F76
:102B5000C360809165038823B1F01F92CF931F92C9
:102B6000DF9386ED9BE09F938F938DE094E09F939E
:102B70008F930E94D1148DB79EB708960FB6F89424
:102B80009EBF0FBE8DBF4C2F63E08D2FDF91CF9185
:102B90000C94F9140F931F93CF93DF93C82F162F24
:102BA00080916503833018F185E592E0662311F08A
:102BB00082E592E01F9220E32F939F938F938C2FB7
:102BC00090E08F5B9F4F9F938F938AEA9BE09F9348
:102BD0008F938DE094E09F938F930E94D1148DB7D3
:102BE0009EB70A960FB6F8949EBF0FBE8DBF64E0E5
:102BF0008C2F0E944715482F446064E08C2F0E9460
:102C0000F91463E08C2F0E944715082F4FEB63E007
:102C10008C2F0E94F91462E08C2F0E944715D82F48
:102C2000482F406162E08C2F0E94F91440EC111192
:102C30004CE067E08C2F0E94F9144D2F62E08C2F3E
:102C40000E94F914402F63E08C2FDF91CF911F91E8
:102C50000F910C94F9144F925F926F927F928F9222
:102C60009F92AF92BF92CF92DF92EF92FF920F931B
:102C70001F93CF93DF93C82F042FB52EA62E972E28
:102C800064E00E94471524E087FF21E030E050E037
:102C900040E060E072EC81E090E00E944130290168
:102CA0003A01CA01B901202F3B2D4A2D592D0E940E
:102CB000413069017A0163E08C2F0E944715182F7B
:102CC000482F406863E08C2F0E94F9144C2D60E07F
:102CD0008C2F0E94F9144D2D61E08C2F0E94F91465
:102CE000412F4F7763E08C2F0E94F914A7019601C2
:102CF00044275527C301B2010E9441303901842E77
:102D0000D52F80916503823098F1CF5B9F92AF926F
:102D1000BF920F931F92CF9384E299E09F938F937A
:102D20000DE014E01F930F930E94D114DF92CF9215
:102D30001F92CF9382E099E09F938F931F930F93FD
:102D40000E94D114DF938F927F926F921F92CF9344
:102D500083EE98E09F938F931F930F930E94D1145B
:102D60008DB79EB74C960FB6F8949EBF0FBE8DBF21
:102D7000B301882D9D2FDF91CF911F910F91FF906F
:102D8000EF90DF90CF90BF90AF909F908F907F900B
:102D90006F905F904F900895FC0180819181009722
:102DA00011F00C94FF2C60E070E0CB010895FC0161
:102DB00080819181009711F00C941C310895EF925D
:102DC000FF920F931F93CF93DF93EC017B018A0156
:102DD00088819981009729F02A813B812417350742
:102DE00088F4B8016F5F7F4F0E94A531009791F082
:102DF000998388831B830A832C813D81232B11F4C3
:102E0000FC0110821D830C83B701888199810E9487
:102E100098320CC088819981009711F00E941C3172
:102E2000198218821D821C821B821A82CE01DF91B8
:102E3000CF911F910F91FF90EF900895AF92BF92A5
:102E4000CF92DF92EF92FF920F931F93CF93DF9376
:102E5000EC016B015A0179012417350720F48B2D01
:102E60005901E42EF82E198218821B821A821D82C3
:102E70001C8250E040E061E572E0CE010E94DF1666
:102E8000D60114960D911C91A016B10628F5E016F6
:102E9000F10608F48701D601ED91FC911197E00F3E
:102EA000F11FF08010826D917C916A0D7B1D611580
:102EB0007105F1F0FB0101900020E9F73197AF01B6
:102EC000461B570BCE010E94DF16F60180819181CF
:102ED000080F191FD801FC92CE01DF91CF911F91ED
:102EE0000F91FF90EF90DF90CF90BF90AF9008953B
:102EF00088819981009711F00E941C3119821882F3
:102F00001D821C821B821A82E0CF1F93CF93DF9316
:102F1000EC01162F0E94F12F181739F0612FCE0106
:102F2000DF91CF911F910C94F92FDF91CF911F91D9
:102F300008950C94F12FCF92DF92EF92FF920F93AE
:102F40001F93CF930E9417086B017C01C1E08DE0B5
:102F500094E00E948108892B09F09BC00E94170809
:102F60006C197D098E099F09683B7B40810591059D
:102F7000A0F462E08DE00E9484078DE00E942D079E
:102F8000892B09F0C0E061E08DE00E9484076AE0CF
:102F900070E080E090E00E94E5070E941708009131
:102FA000BC031091BD032091BE033091BF03601B91
:102FB000710B820B930B6D32714081059105A0F06E
:102FC00080E00E942D0761E0892B09F060E080E03D
:102FD0000E9456070E9417086093BC037093BD03BC
:102FE0008093BE039093BF030E9417086C197D095C
:102FF0008E099F09693B7B408105910508F4A7CFA5
:10300000CC2309F4A4CF8FE090E00E949917893077
:1030100009F49DCF60E080E00E94560769E08FE0F0
:1030200090E00E94851785EF9BE00E9436140E9475
:103030001708C090BC03D090BD03E090BE03F09091
:10304000BF036C197D098E099F09653671058105DD
:10305000910568F380E00E942D0761E0892B09F05B
:1030600060E080E00E9456078DE00E942D0761E03D
:10307000892B09F060E08DE00E9456070E94170836
:103080006093BC037093BD038093BE039093BF0312
:10309000CECFCF911F910F91FF90EF90DF90CF9007
:1030A00008959F92AF92BF92CF92DF92EF92FF92DC
:1030B0000F931F93CF93DF9300D000D000D0CDB7F4
:1030C000DEB761E086E10E94840760E086E10E944D
:1030D000560761E080E00E94840760E080E00E9483
:1030E000560762E08DE00E9484078DE00E942D0764
:1030F0008C0161E08DE00E94840761E08DE00E9418
:10310000560762E081E00E94840761E081E00E944E
:10311000840761E081E00E94560761E082E00E943E
:10312000840760E083E00E94840762E08EE00E94F2
:10313000840761E08EE00E94840761E08EE00E94D7
:10314000560711B88FEF82B962E085E10E948407CB
:1031500062E084E10E94840762E083E10E948407C8
:1031600062E082E10E94840780E190E00E9499176A
:1031700080935103833038F060E080E190E00E945A
:103180008517109251038FE090E00E949917C12C8F
:10319000F2ECDF2EEE24E394F12C893050F4E82F8A
:1031A000F0E0EE0FFF1FE15DFE4FC080D180F12CFB
:1031B000E12CE0911D04F0911E0482E08083C11493
:1031C00081EED806E104F104A1F060E079E08DE33E
:1031D00090E0A70196010E94413021503109410938
:1031E00051095695479537952795211580E1380760
:1031F000A8F0E0911D04F0911E04108260E874E8CC
:103200008EE190E0A70196010E94413021503109E2
:10321000410951095695479537952795E09119042D
:10322000F0911A043083E0911B04F0911C04208378
:1032300010922504E0912104F091220486E080831D
:10324000E0911F04F0912004808188698083E091DF
:103250001F04F091200480818F7D80838AE098E0B4
:103260000E9436148BED97E00E9436140E943214AF
:1032700061E08CE00E94840761E08CE00E945607C8
:1032800061E08BE00E94840760E08BE00E945607BB
:1032900061E08FE00E94840760E086E10E945607AB
:1032A00086E00E94CA1161E086E10E94560782E032
:1032B0000E94CA11F0905103F1100DC262E08AE041
:1032C0000E94840761E082E00E94560761E087E186
:1032D0000E94840760E087E10E94560764E670E080
:1032E00080E090E00E94E50761E087E10E945607D8
:1032F00064EF71E080E090E00E94E5078DE090E0EF
:103300000E949917823028F061E08DE090E00E94E1
:1033100085178DE090E00E9499178093F8028EE067
:1033200090E00E94991780935703863038F060E050
:103330008EE090E00E9485171092570310928B0345
:1033400010928A03109299031092BB031092970374
:10335000FF24F394F092960310928F0361E081E1D1
:103360000E94560761E080E10E9456078091B900F3
:103370008E7F8093B9008091B9008D7F8093B900D2
:1033800088E48093B80085E48093BC0082E799E0EC
:1033900090931A038093190383E799E090931E0397
:1033A00080931D038CE08093B80080E20E949C060D
:1033B0000E94990681110FC0F092580380E20E948A
:1033C0009C068CE090E00E94E70985E090E00E9476
:1033D000E7090E94990688E40E949C060E949906CB
:1033E000811190C045E567E00E94F91467E080E034
:1033F0000E944715853509F085C04AEA67E080E0FC
:103400000E94F91467E080E00E9447158A3A09F0AB
:1034100079C045E567E081E00E94F91467E081E04A
:103420000E944715853509F06DC04AEA67E081E0E2
:103430000E94F91467E081E00E9447158A3A09F07A
:1034400061C081E080934B036EE080E00E944715ED
:10345000482F48606EE080E00E94F91462E080E04E
:103460000E944715482F416062E080E00E94F914F5
:1034700062E081E00E944715482F416062E081E0F0
:103480000E94F91460E080E00E94CA1561E080E0CB
:103490000E94CA1560E081E00E94CA1561E081E0E7
:1034A0000E94CA1540EB54E060E070E080E00E94AA
:1034B0002B1640EB54E060E070E081E00E942B1698
:1034C00080E00E94A01581E00E94A01562E080E0EB
:1034D0000E944715482F426062E080E00E94F91484
:1034E00062E081E00E944715482F426062E081E07F
:1034F0000E94F91460E080E00E94471560E081E0DE
:103500000E9447158FE090E00E9499178A3028F0BA
:1035100069E08FE090E00E94851784EC97E00E94BC
:1035200006098091F802882309F4EEC088E592E04C
:103530000E94B41380EC97E00E943614209151034E
:1035400080E890E002C0880F991F2A95E2F79F93C8
:103550008F938EEA97E09F938F938DE094E09F93F3
:103560008F930E94D114809151030F900F900F9070
:103570000F900F900F90813009F0C9C082E997E059
:103580000E9406090E94321488E60E949C060E944E
:103590009906811152C18EE893E00E94060981E0EC
:1035A0000E94FF1386E492E00E946B1489E693E088
:1035B0000E94060980916603082E000C990B0E9458
:1035C00084138CE592E00E946B1488E60E949C06AE
:1035D0008FE090E00E94E7090E94990661E070E0A8
:1035E00088E690E00E948D120E94B90687FF01C113
:1035F00028E030E046E050E06CEB74E0CE0101964C
:103600000E941E17CE0101960E94CC1660938E0375
:10361000CE0101960E94D71625E030E043E050E04D
:103620006CEB74E0CE0101960E941E17CE0101964C
:103630000E94CC1660938D03CE0101960E94D7168E
:1036400022E030E050E040E06CEB74E0CE01019607
:103650000E941E17CE0101960E94CC1660938C0327
:10366000CE0101960E94D71626E030E044E050E0FB
:1036700066EB74E0CE0101960E941E17CE01019602
:103680000E94CC1660936903CE0101960E94D71662
:1036900090E080E00E94CC06EFEBE80FE33108F009
:1036A0004DC00E2E000CFF0BE85AF44E0C94633004
:1036B000011C9E1B9E1B1B1C9E1BFF1B9E1B9E1BFF
:1036C0009E1B8D1B9E1B9E1B0B1C191C171C9E1BDF
:1036D0009E1B9E1B151C61E08AE00E94840760E02F
:1036E0008AE00E94560781E08F1508F0EBCD60E07C
:1036F00082E00E94560761E087E10E94840760E053
:1037000087E10E945607FACD8AE592E011CF823018
:1037100009F038CF8CE597E033CF81E090E00E944C
:10372000CC06813609F467C082E090E00E94CC06A6
:103730008E3609F062C086E0809368032BE030E0AB
:1037400049E050E066EB74E0CE0101960E941E173E
:10375000CE0101960E94CC1660936703CE010196BC
:103760000E94D71681E593E00E94361486E293E02A
:103770000E94060980E00E94FF138BE193E00E9403
:1037800006090E949B178DE094E00E945F088093D9
:10379000F602982F9F7D993511F09E3491F7682F8E
:1037A0008DE094E00E94B9080E9432148091F602E4
:1037B0008F7D893589F4409167036091680380911A
:1037C00069030E94EC0986EF92E00E94060981E0FD
:1037D0000E94FF130E94321488E60E949C068FE02C
:1037E00090E00E94E70988E090E00E94E7090E94CB
:1037F000990681E023C081E09FCF87E09DCF82E0E2
:103800009BCF82E090E00E94CC06823711F484E0E6
:1038100093CF88E091CF82E090E00E94CC0682377F
:1038200011F483E089CF85E087CF89E085CF8AE0F6
:1038300083CF8BE081CF8CE07FCF80E08093480303
:1038400080915803882321F086E497E00E94361483
:1038500080914B03882321F088E297E00E94361480
:1038600081E197E00E9406098CE090E00E949917A0
:10387000823028F060E08CE090E00E9485178CE0B8
:1038800090E00E949917809347038823F9F08EE017
:1038900097E00E9436140E94010C0E94010C8AE0FD
:1038A00090E00E9499178093F702012B19F0853060
:1038B00008F409C18DE094E00E94810818161906E9
:1038C00044F48DE094E00E945F08F4CF8AE097E032
:1038D000E0CF0E9432148EED96E00E9436140E94D2
:1038E00032141091F702153008F0A6C08EEC96E065
:1038F0000E940609812F90E001960E94841386E4BD
:1039000092E00E946B1410E384EC96E00E9436145F
:103910008AEB96E00E94361489EA96E00E94060936
:10392000809157030E94BB138AE996E00E943614E7
:1039300080E996E00E94361481E796E00E9406092D
:103940008091F802882309F479C08AE592E00E9408
:10395000B4138CE696E00E9436148FE496E00E9441
:1039600006098091470381116CC08EE592E00E94A8
:10397000B41386E492E00E946B148FE296E00E94FA
:1039800006098FE090E00E949917893008F05EC028
:10399000E82FF0E0EE0FFF1FE15DFE4F60817181C7
:1039A00090E080E04AE00E94401386E492E00E94AA
:1039B0006B1480914803882321F089E196E00E94EE
:1039C000361486E096E00E94060980E190E00E94AD
:1039D000991720E830E002C0220F331F8A95E2F7E2
:1039E0003F932F938DEF95E09F938F938DE094E01D
:1039F0009F938F930E94D11486E492E00E946B14EF
:103A00000E94321488EE95E00E9406090F900F90F4
:103A10000F900F900F900F900E949B178DE094E0F5
:103A20000E945F088093F6028F33A9F480916503AA
:103A30008F5F80936503F0CF11E366CF88E592E056
:103A400086CF8BE496E00E94060993CF60E072EC8B
:103A500081E090E0A7CF803219F410926503DCCFAB
:103A60008117D4F28236C4F6682F8DE094E00E946C
:103A7000B90883EE95E00E94361410916503112376
:103A800039F081ED95E00E940609812F0E945A14B9
:103A90008091F602883309F454C10CF09EC086333D
:103AA00009F439C10CF043C1833309F4E1C06091DA
:103AB000F60261536093F702653008F001C58AE0B1
:103AC00090E00E9485178091F702823051F48BE5D7
:103AD00095E00E940609809157030E94BB130E9443
:103AE00032148091F702823009F49BC308F06BC353
:103AF000882309F47FC3813009F48AC361E080E040
:103B00000E9456070091F1021091F2020115110571
:103B1000E9F0F090650390E080E00E94DC1183EC16
:103B20000E941012802F0E941012812F0E941012EA
:103B3000FF2061F083E495E00E940609B80190E05F
:103B400080E040E10E9440130E9432148091F10213
:103B50009091F2020E94DC11809165038823F1F0BC
:103B600085E295E00E9406096091ED027091EE02F7
:103B700090E080E04AE00E9440130E9432148FE0FF
:103B800095E00E9406096091F1027091F20290E0C6
:103B900080E040E10E9440130E9432148091F702BD
:103BA000843008F054C40E94010C882309F483C3B4
:103BB0000E94010C8093EC02882309F47CC360917D
:103BC000EC02662329F050E040E080E00E94771488
:103BD0000E9442140E94010CEBCF813409F488C288
:103BE000813609F485C2893309F061CF0E94D4126D
:103BF0001092530387E594E00E94361488E294E023
:103C00000E9436143AE0F32E46EFE42EDD24D394DE
:103C100086E294E00E94060980915303823009F401
:103C200019C108F0FAC0882309F404C1813009F4ED
:103C30000AC10E949B178DE094E00E945F08082F44
:103C40008093F602853709F423C1853509F420C134
:103C5000843709F43CC4843509F439C48D3049F7FC
:103C6000109153036DE08DE094E00E94B90834C1D7
:103C700081E794E00E94361480915703815080932D
:103C8000F50206E08091F5028F5F602F0E942130DF
:103C9000192F9093F5028CEC95E00E940609812F74
:103CA0000E94BB1389EB95E00E9406098DE094E029
:103CB0000E948108181619062CF48DE094E00E94E9
:103CC0005F08F4CF8DE094E00E9481081816190671
:103CD0001CF00E949B17F6CF8DE094E00E945F08D5
:103CE0008093F6028D3011F08B3161F60E94321410
:103CF0000E9432148091F6028D3009F0D8CE609186
:103D0000F502609357038EE090E00E94851783E3ED
:103D10008093F602CCCE61E08091F802811160E0E0
:103D20006093F8028DE090E00E948517C0CE61E0BC
:103D300080914703811160E0609347038CE090E03D
:103D4000F3CF81E794E00E9436148FE090E00E9468
:103D5000991781508093F5020AE08091F5028F5FF8
:103D6000602F0E942130192F9093F50284EB95E08B
:103D70000E94060960E072EC81E090E0193051F099
:103D8000E12FF0E0EE0FFF1FE15DFE4F60817181DA
:103D900090E080E04AE00E9440138FEA95E00E94A4
:103DA00006098DE094E00E948108181619062CF48B
:103DB0008DE094E00E945F08F4CF8DE094E00E94D3
:103DC0008108181619061CF00E949B17F6CF8DE08B
:103DD00094E00E945F088093F6028D3019F08B31D9
:103DE00009F0BBCF0E9432140E9432148091F60277
:103DF0008D3009F05CCE8FE090E00E9499176091C1
:103E0000F502861709F459C38FE090E00E948517E8
:103E100089E795E00E9436144ACE843091F150F142
:103E2000853009F006CF8AED93E00E940609809163
:103E30008E0306C08DE194E00E940609809167031D
:103E40000E94EF13F6CE83E194E00E940609809170
:103E50006803F6CF85E094E00E9406096DE08DE0EE
:103E600094E00E94B9088CEF93E00E9406098091CB
:103E70006903E6CF82EF93E00E94060980918C03EC
:103E8000DFCF86EE93E00E94060980918D03D8CFA4
:103E900010915303123009F463C0E0F5112309F4C3
:103EA00049C0113009F451C0802F8F7D843509F04D
:103EB000AAC0123009F4C3C008F08DC0112309F460
:103EC0009BC0113009F4AFC06DE08DE094E00E941A
:103ED000B9080D3009F09CCE1F5F109353031630C4
:103EE00008F496CE4091670360916803809169035E
:103EF0000E94EC098AEC93E00E9436148DEA93E06C
:103F00000E94060981E00E94FF1386E492E00E946D
:103F10006B14CDCD143009F450C008F443C01530F3
:103F200019F680918E038F5F8C3308F051C0809317
:103F30008E03BACF809167038F5F843618F4809325
:103F40006703B2CF10926703AFCF809168038F5F92
:103F50008D3018F480936803A7CF10936803A4CF23
:103F6000809169038F5F80936903E0916803E23079
:103F700089F490E020916703237049F42DE130E04B
:103F8000281739070CF090CFD09269038DCF2CE120
:103F900030E0F6CFF0E0EE5DFE4F9081981708F02C
:103FA00083CFF2CF80918C038F5F883118F4809398
:103FB0008C037ACF10928C0377CF80918D038F5F23
:103FC0008C3318F480938D036FCF10928D036CCFD8
:103FD00010928E0369CF143009F46EC008F45AC0F1
:103FE000153009F071CF20918E03265F2C3308F035
:103FF00075C020938E0307C020916703265F243687
:1040000040F4209367036DE08DE094E00E94B908CE
:10401000FFCD822F6F2D0E9421308E9D200D112407
:104020002093670351CF809168038B3020F08A5032
:104030008093680349CF833030F7865FF9CF2091B2
:104040006903265F20936903422F50E0E0916803E3
:10405000F0E0EE5DFE4F808190E0309167033370B9
:1040600061E070E011F070E060E0860F971F841748
:1040700095074CF4822F6F2D0E9421308E9D200DCC
:10408000112420936903809169038111BCCFD092E0
:1040900069031ACF20918C03265F283118F42093EE
:1040A0008C03B1CF822F6F2D0E9421308E9D200D69
:1040B000112420938C0308CF20918D03265F2C338D
:1040C00018F420938D039FCF822F6F2D0E942130F3
:1040D0008E9D200D112420938D03F6CE822F6F2DFF
:1040E0000E9421308E9D200D112420938E03ECCE52
:1040F00081E794E00E9436148091510381508093AF
:10410000F50283E0C82ED12C90E8A92EB12C09E647
:1041100015E02DE0E22E24E0F22E8091F5028F5F73
:1041200090E0B6010E942D30982E8093F50284E72E
:1041300095E00E940609C50102C0880F991F9A9454
:10414000E2F79F938F931F930F93FF92EF920E943A
:10415000D1140F900F900F900F900F900F908DE053
:1041600094E00E948108181619062CF48DE094E062
:104170000E945F08F4CF8DE094E00E948108181639
:1041800019061CF00E949B17F6CF8DE094E00E9468
:104190005F088093F6028D3019F08B3109F0BDCFA6
:1041A0000E9432140E9432148091F6028D3009F080
:1041B0007ECC6091F5026093510380E190E00E9413
:1041C000851780E3A5CD833009F472C0843009F0EF
:1041D00095CCE9E5F5E0859194919093F002809378
:1041E000EF028AE692E09093EE028093ED0280E186
:1041F0009DEF48C081E692E09093F4028093F30231
:104200001092F2021092F10281E08093500376CC7A
:104210008DE692E09093F4028093F30280E091E0C7
:1042200031C080915703823091F170F4882311F1ED
:10423000813009F063CC83E892E09093F40280939C
:10424000F30280E890E01EC0843079F118F18530E7
:1042500009F054CC8DEA92E09093F4028093F3023B
:104260001092F2021092F10281E080935003809349
:104270004F0344CC89E792E09093F4028093F302D9
:1042800080EE91ED9093F2028093F10237CC8EE8AC
:1042900092E0C0CF89E992E09093F4028093F30218
:1042A0001092F2021092F10229CC85EA92E0F4CF4A
:1042B00087EB92E0F1CF0091F3021091F4026EE8E7
:1042C00072E0C8010E948F32892B31F0C8010E9430
:1042D0004E108093EC0210C084EC92E00E944E10CD
:1042E0008111F4CF84EC92E09093F4028093F30276
:1042F00060E08DE00E9456078091EC028823E9F08F
:104300006091EC02662339F04091F3025091F4027F
:1043100081E00E9477140E9442140091F3021091F0
:10432000F402C8010E944E108093EC02833021F306
:104330000E94010C0E94010CC9CF83EF94E00E94FF
:1043400006098091F3029091F4020E94B4138EEE5C
:1043500094E00E940609CE0101960E944F0E082F9C
:104360008981809346030093EC021092F50210912C
:10437000F50280914603181758F4E12FF0E0E0545D
:10438000FC4F80810E9410121F5F1093F502EFCF47
:10439000803291F40023F9F24091F3025091F4023B
:1043A000602F82E00E9477140E94421460E070E067
:1043B000CB010E941F0F02C00111EECF8091EC02D1
:1043C0008111C9CF8BEC94E00E94361460E086E145
:1043D0000E9456078091B6008F7D8093B600809131
:1043E000B10081608093B1008091B100897F80939A
:1043F000B1008091B00082608093B0008091B000E5
:104400008E7F8093B0008091B00080648093B00074
:104410008091B0008F778093B0008091F8028093F4
:10442000B30061E08FE00E9484078EEA94E00E946E
:1044300036140E9432148DE094E00E948108181610
:104440001906FCF48DE094E00E945F08F4CF81ED42
:1044500094E00E94060910E000E08091ED02909146
:10446000EE020817190708F0ADCFE091EF02F091C6
:10447000F002E00FF11F84910E9410120F5F1F4F96
:10448000ECCF61E070E080E090E00E94E50761E041
:1044900086E10E94560726960FB6F894DEBF0FBE3F
:1044A000CDBFDF91CF911F910F91FF90EF90DF90E3
:1044B000CF90BF90AF909F9008958CED8093F702BE
:1044C0008AE090E00E9499178093F702FCCA10914D
:1044D0005303EFCC1F920F920FB60F9211242F931C
:1044E0003F938F939F93AF93BF9380915D03909180
:1044F0005E03A0915F03B091600330915C0323E001
:10450000230F2D3768F126E8230F0296A11DB11D58
:1045100020935C0380935D0390935E03A0935F03FD
:10452000B09360038091610390916203A091630353
:10453000B09164030196A11DB11D80936103909316
:104540006203A0936303B0936403BF91AF919F9103
:104550008F913F912F910F900FBE0F901F90189544
:104560000196A11DB11DD4CF1F920F920FB60F92CD
:1045700011240BB60F922F933F934F935F936F933A
:104580007F938F939F93AF93BF93EF93FF938DE0B0
:1045900094E00E949708FF91EF91BF91AF919F9196
:1045A0008F917F916F915F914F913F912F910F90DC
:1045B0000BBE0F900FBE0F901F9018951F920F9279
:1045C0000FB60F9211240BB60F922F938F939F93D8
:1045D000EF93FF93E0911D04F0911E048081E09120
:1045E0002304F091240482FD1DC090818091260453
:1045F0008F5F8F7320912704821741F0E09126048A
:10460000F0E0E35FFB4F958F80932604FF91EF91DD
:104610009F918F912F910F900BBE0F900FBE0F9017
:104620001F9018958081F2CF1F920F920FB60F92B4
:1046300011240BB60F922F933F934F935F936F9379
:104640007F938F939F93AF93BF93EF93FF9380914B
:10465000B900887F803609F44DC008F040C0883228
:1046600009F4A9C028F5803109F49DC0C8F4882355
:1046700009F407C1883009F496C0FF91EF91BF910A
:10468000AF919F918F917F916F915F914F913F91EA
:104690002F910F900BBE0F900FBE0F901F9018958B
:1046A000883109F488C0803241F78093950314C0A3
:1046B000803409F4A5C040F48033B9F38833E9F6B7
:1046C0008093950385ECBCC0803509F489C088359A
:1046D00009F49EC0883489F60E944109CECF8839FA
:1046E00009F494C038F5883729F050F4883611F071
:1046F000803719F683E08093970310923F0357C0E9
:10470000883809F483C0803919F0803809F0B5CFB2
:1047100080913F03803208F079C0E0913F0381E04F
:104720008E0F80933F038091BB00F0E0E15EFC4F71
:1047300080833DC0803B39F0E0F4803A09F485C0C5
:10474000883A09F09ACF84E08093970310921C0373
:1047500010921B03E0911903F0911A0309958091BF
:104760001B0381110FC081E080931B031092F9029B
:1047700009C0803C09F4A6CF883C09F4A3CF883B4C
:1047800009F07BCFE0911C0381E08E0F80931C0326
:10479000F0E0E750FD4F80818093BB0090911C03B7
:1047A00080911B0331C0809190038093BB0085EC06
:1047B0008093BC0062CF90919203809191039817EF
:1047C000B8F58091930390919403E091920321E0D6
:1047D0002E0F20939203E80FF92FF11D8081E5CF72
:1047E0002091930330919403E091920381E08E0F26
:1047F000809392038091BB00E20FF32FF11D808321
:104800009091920380919103981788F285E8D0CF18
:104810002091930330919403E091920381E08E0FF5
:10482000809392038091BB00E20FF32FF11D8083F0
:1048300080919603811150CF81E080938F0384EAA9
:104840008093BC001092970318CF85EC8093BC0036
:104850001092970380913F03803230F4E0913F0340
:10486000F0E0E15EFC4F108260913F0370E0E09168
:104870001D03F0911E038FE193E0099510923F0311
:10488000FCCE1092950328CFEF92FF920F931F93C7
:10489000CF93DF930097C9F0EA018C012097B1F123
:1048A000E0904003F0904103E114F10479F1F80144
:1048B00081918F010E94C50AF1E0EF1AF108F09290
:1048C0004103E09240032197E9CF4115510561056D
:1048D000710529F18091E00383FD07C089E0440F51
:1048E000551F661F771F8A95D1F788E50E940B0B2D
:1048F00081111DC08FEF0E94C50A8EEF0E94C50A6C
:1049000080E092E0909341038093400390E080E048
:10491000DF91CF911F910F91FF90EF900895DF915C
:10492000CF911F910F91FF90EF900C94CF0A81E0EF
:1049300090E0EECF0F931F93CF93DF93C82F162FE6
:10494000D42F809165038330E0F01F924F931F9224
:104950006F938C2F90E08F5B9F4F9F938F9384E496
:1049600099E09F938F938DE094E09F938F930E94A3
:10497000D1148DB79EB70A960FB6F8949EBF0FBE9E
:104980008DBF63E08C2F0E944715082F4FEB63E02B
:104990008C2F0E94F91462E08C2F0E944715482F3B
:1049A0004F7311114064D111406862E08C2F0E9456
:1049B000F914402F63E08C2FDF91CF911F910F915D
:1049C0000C94F914EDE0F4E01382128288EE93E087
:1049D000A0E0B0E084839583A683B78329E132E029
:1049E0003183208325EC30E03587248724EC30E0C8
:1049F0003787268720EC30E0318B208B21EC30E0AC
:104A0000338B228B22EC30E0358B248B26EC30E08C
:104A1000378B268B118E128E138E148EEAEAF4E0F9
:104A20001382128284839583A683B7838BE292E0FC
:104A300091838083ECEBF4E0118210821382128266
:104A40001582148248E050E060ED72E0CF010E94D0
:104A5000DF16E6EBF4E011821082138212821582D7
:104A600014824BE050E069ED72E0CF010C94DF1648
:104A7000CF93DF9300D0CDB7DEB7789484B5836051
:104A800084BD85B5836085BD80916E008160809313
:104A90006E0082E08093810080918100816080932C
:104AA0008100809180008160809380008091B100BE
:104AB00084608093B1008091B00081608093B000E9
:104AC000809191008360809391008091900081603B
:104AD0008093900087E880937A001092C1000E9432
:104AE000511883E00E942D07892B29F583E10E944C
:104AF0002D07892B09F0EEC482E10E942D07F0B04A
:104B0000F0925B03882309F44CC0F0921C011092D0
:104B10005A031092590360E08EE00E94560760E04D
:104B200080E00E94560761E080E00E94560761E045
:104B30008EE00E94560780914F03882379F10E94EE
:104B4000C007009142031091430320914403309128
:104B500045036B017C01C01AD10AE20AF30A2091D5
:104B60000F0130E0A8EEB3E00E9412306C157D0515
:104B70008E059F0598F460E081E00E9456078091C1
:104B80004A03826080934A030E94C00760934203F5
:104B90007093430380934403909345030E947A12D9
:104BA000A0CF80911C018C3009F47AC108F051C06B
:104BB000863009F40BC118F5833009F4E8C078F4A5
:104BC000882309F4D7C0813009F4DBC080911C012F
:104BD0008A3009F4A0CF8C3009F49DCFD9C284303B
:104BE00009F4E9C0853091F780915803882309F4CE
:104BF000CFC280E20E949C0690E080E0D2C0893063
:104C000009F4FAC080F4873009F4EBC08830F1F67B
:104C100080915803882309F4BBC280E20E949C065D
:104C20008DE090E0BEC08A3009F407C18B3071F688
:104C3000F092540380915503909156038115924050
:104C400008F028C1FFE1FF1508F428C110921001F7
:104C5000BDCF823109F403C308F078C08F3009F466
:104C6000F3C280F48D3009F467C28E3009F0AECF04
:104C70008F2D817080935003F1FADD24D0F8D0920B
:104C80004F03A4CF803109F4E5C2813109F09ECFF2
:104C900080915803882309F47BC281E080934D03FF
:104CA00011E0F11010E010934C0380E20E949C068A
:104CB00082E190E00E94E709110F012F0560802F2B
:104CC00090E00E94E7090E94990680E20E949C06FB
:104CD00090E080E00E94E70988EF90E00E94E709F9
:104CE0000E94990680E20E949C0681E090E00E946A
:104CF000E70990E080E00E94E7090E94990680E2BF
:104D00000E949C068CE090E00E94E7098FEF90E003
:104D10000E94E7090E94990680E20E949C0682E1B7
:104D200090E00E94E709612F61608AEA94E00E94A6
:104D3000B8090E9499060093530380E20E949C06E2
:104D400082E190E00E94E709602F2EC0823248F491
:104D5000803208F0B5C2833109F038CFF0920E01ED
:104D600035CF843208F4DFC28E3709F02FCFF092AE
:104D700065032CCF60E0F0FE61E08DE00E945607F5
:104D800025CF6F2D8DE094E00E94B9081FCF809150
:104D90005803882309F4FCC180E20E949C0682E14A
:104DA00090E00E94E7096F2D8AEA94E00E94B8091A
:104DB0000E9499060BCF80915803882309F4E8C11B
:104DC00080E20E949C0683E190E0EBCF8091580343
:104DD000882309F4DDC180E20E949C0681E090E016
:104DE000E0CF80915803882309F4D2C180E20E9469
:104DF0009C068CE090E0D5CF23E680E12F15D0F023
:104E000080915703805D809313018F2D6AE00E948B
:104E1000213090E3980F9093150160E3D62EDF0CBC
:104E200036EF839FD00C1124D092160181E191E0DE
:104E30000E944E1080931001C9CE80915903909129
:104E40005A03EF2DF0E0009751F4F0935603E093EE
:104E50005503019690935A0380935903B7CE20913E
:104E600055033F2D3093560320935503409154032F
:104E70002115324040F4403248F4109210012FEFD7
:104E800020931C01E6CF21E1403208F022E120937B
:104E90001001F5CF2FE181E12F1560F682E1CACF35
:104EA000C0905903D0905A03C114D10419F56091F0
:104EB000550370915603611532E07307D8F4809161
:104EC00054038032B8F490911001911113C045E061
:104ED000660F771F4A95E1F7682B90E080E059E074
:104EE000660F771F881F991F5A95D1F70E941F0FD1
:104EF0008093100180911001811181C08C2D8F71E0
:104F000080935303E82FF0E0E054FC4FF0828F31A0
:104F100009F075C000910B0410910C04A12C85E0E0
:104F20000115110509F458C0F801818180FFD9C02D
:104F300086FD0AC086899789A08DB18D88279E7FBE
:104F4000868B978BA08FB18FF801828D938DA48D66
:104F5000B58D46895789608D718D841B950BA60B85
:104F6000B70B80329105A105B10520F080E290E0F9
:104F7000A0E0B0E07C01B12CA12C30EC232E33E07A
:104F8000332EE114F10409F4AFC0F8018689978942
:104F9000A08DB18D9C013170232B09F067C09280E8
:104FA0009A94AC01BD0129E0769567955795479590
:104FB0002A95D1F79422B1F5892B8A2B8B2B39F5C1
:104FC000668D778D80A191A1F80162307105810510
:104FD000910520F5118281E0A09252038093100187
:104FE000FFE1FA1508F482C083E1809310012FEFEE
:104FF000C21621E0D20618F08FEF80931C01FFEF5C
:10500000CF1ADF0AD0925A03C0925903DFCD62A1B2
:1050100073A184A195A10E94DF0DD6CF62A373A3D3
:1050200084A395A3F80162A173A184A195A10E9414
:10503000530A611571058105910511F4F801CACF74
:10504000AB01BC01490D511D611D711DF80146A345
:1050500057A360A771A790E080E00E944424F80164
:10506000892B09F0B7CF818180648183F80186891B
:105070009789917020E032E0281B390B47012E15EB
:105080003F0508F449012401712C612CB301A401EE
:10509000C1010E944424F801892B09F09BCF868925
:1050A0009789A08DB18D840D951DA61DB71D868B8A
:1050B000978BA08FB18F280C391CE818F908A80C21
:1050C000B91C2C01F1E05F22452809F05ACF0E945B
:1050D000CF0AF801892B09F07DCF81818F7B8183F5
:1050E00050CFA12C84E078CF80E076CF3FEFC3167D
:1050F00031E0D30608F483CF81117ECF85E001151E
:10510000110569F0F801818180FF14C086FF0CC091
:105110000E94CF0A892B41F0F801118281E01092A0
:1051200052038093100168CFF80181818F7B8183C6
:1051300080E0F5CF84E0F3CF2EE02F1508F446CDC4
:10514000EF2DF0E0EA55F74D0C946330B528CC28EC
:10515000D228D428E228E428EA28EC2801290329C7
:1051600009290B291A291C29222961E08CE00E94B7
:10517000560760E08BE00E945607109151031123FF
:1051800039F060E08AE00E94560760E01230B8F51E
:105190008FEF80931C01BFCC61E08CE00E9456072A
:1051A00061E0E8CF60E0F9CF61E08CE00E94560753
:1051B00060E08BE00E9456071091510361E01123DB
:1051C00039F3E0CF60E0F1CF61E08CE00E94560758
:1051D00061E0EFCF60E0F9CF61E08CE00E9456071C
:1051E00060E08BE00E94560710915103112381F279
:1051F00060E08AE00E945607123050F261E087E1D9
:10520000BDCD60E0EACF61E08CE00E94560761E02E
:10521000E8CF60E0F9CF61E08CE00E94560760E0E3
:105220008BE00E9456071091510361E0112309F4AD
:10523000AFCFDFCF60E0F0CF61E08CE00E94560797
:1052400061E0EECF60E0F9CFFF2009F4A1CFF0924A
:105250000F01BCCC8F2D817080934E03B7CC809111
:105260004D03882309F494CF80E20E949C0683E1D9
:1052700090E00E94E7096F2D8AEA94E00E94B80945
:105280000E94990610914C03110F80E20E949C0627
:1052900082E190E00E94E709612F6C6F8AEA94E056
:1052A0000E94B8090E9499061D6F1093530380E273
:1052B0000E949C0682E190E00E94E709612F74CD74
:1052C00090914B03992309F481CC11E0803209F4C9
:1052D00010E0809165038330F0F080EE8F0D8F3504
:1052E00000F58F2D1F928F931F92FF92812F90E0D8
:1052F0008F5B9F4F9F938F938DEC99E09F938F933C
:105300008DE094E09F938F930E94D1140FB6F89490
:10531000DEBF0FBECDBF4F2D60E0812F0E94F9147C
:1053200055CC8EE2DFCF90914B03992309F44ECCFC
:10533000BB24B394823209F4B12C0F2D10E076E037
:10534000159507957A95E1F75F2D5F71D52E9091B0
:105350006503923000F1823209F081C08FE09BE05A
:105360009F938F936DE0E62E64E0F62EFF92EF920E
:105370000E94D11480915B031F928F9387E19BE081
:105380009F938F93FF92EF920E94D1140FB6F894DF
:10539000DEBF0FBECDBF8B2D90E0FC01E45FFE4F62
:1053A0007F0180818F71D81651F1E0915B03EF711D
:1053B00024E0E29FF0011124EF53FE4F9080A18082
:1053C000C280D38080916503823098F0DF92CF92C3
:1053D000AF929F9244EF5AE05F934F938DE094E039
:1053E0009F938F930E94D1140FB6F894DEBF0FBE27
:1053F000CDBF492D5A2DB6018B2D0E942B16F701DA
:10540000808190E056E0959587955A95E1F70817C9
:10541000190701F180916503823008F4C3C21F931C
:105420000F9322EE3AE03F932F934DE0C42E44E0D9
:10543000D42EDF92CF920E94D1140F900F900F9034
:105440000F900F900F900130110511F10CF0B3C2C5
:10545000012B41F080915B03F7018083B7CB87E09C
:105460009BE07ECF80916503823060F088ED9AE00A
:105470009F938F93DF92CF920E94D1140F900F9041
:105480000F900F9040E060E08B2D0E949A24E2CFB5
:10549000809165038230B0F322EC3AE03F932F9382
:1054A0008DE094E09F938F93E7CF809165038230E6
:1054B00070F083EB9AE09F938F938DE094E09F933D
:1054C0008F930E94D1140F900F900F900F9041E096
:1054D00061E0DACF84E10E942D07892B09F047C2F1
:1054E00082E10E942D0710925B03882309F446C0D5
:1054F00080916503823070F00E9432148AE99AE04C
:105500000E9406098AE89AE00E94060980914A03EF
:105510000E945A148FEF80935B038DE094E00E9409
:1055200081081816190634F58DE094E00E945F0892
:1055300080935B031092490361E081E00E9456076B
:1055400080914A038E7F80934A0381E080930B0110
:105550001FEF11B980915B0382B960E08EE00E9479
:10556000560760E080E00E9456070E94F00611B8DE
:1055700012B9D9CA81E080934903DECF80911C0122
:10558000883809F46FC110F5833809F4ABC088F48A
:10559000813809F480C008F09AC0803809F45FC0EF
:1055A00080911C018D7F843899F28FEF80931C01CC
:1055B000CFCF853809F4FDC008F4BEC0863809F4A1
:1055C000FBC0873869F70E94010C7EC0843AF0F571
:1055D000823A08F086C18A3809F463C108F447C1E9
:1055E000803AF0F290914B03992309F478C111E0CD
:1055F000803A09F410E060E0812F0E944715082FDF
:10560000809165038330F8F080EE800F8F3508F0CD
:1056100064C1802F1F928F931F920F93812F90E070
:105620008F5B9F4F9F938F93EDEEF9E0FF93EF9386
:105630008DE094E09F938F930E94D1140FB6F8945D
:10564000DEBF0FBECDBF00935B03AACF863A08F43E
:105650006FC18E3F09F0A4CF8091650335C08DE006
:105660000E942D07182F8093530362E08DE00E9463
:1056700084078DE00E942D0721E0892B09F020E0AE
:1056800020935B0361E08DE00E948407612F8DE031
:105690000E94560785CF80915803882309F485CF4F
:1056A00080E20E949C0682E190E00E94E7090E944D
:1056B000990680E20E949C0661E070E080E290E042
:1056C0000E948D120E94B90680935B0369CF80917E
:1056D0005803882309F469CF80E20E949C0683E185
:1056E00090E0E3CF0091480310E0000F111FF0900D
:1056F00047038DE094E00E94810834E018161906F3
:105700000CF030E08091490328E0811101C020E0D5
:1057100080914E03F0E18F9FC0011124082BF02AE5
:105720000091510340E4049F80011124F02AF32AE0
:10573000F22AF0925B0334CF809148038823A9F1C9
:105740000091590310915A030115110569F40E9443
:10575000D41280918E0380935B030F5F1F4F1093D1
:105760005A03009359031CCF07301105F0F48091C0
:1057700068030430110579F368F480918C030230DA
:10578000110549F3809169030330110521F38091DC
:105790008D03E1CF8091670305301105E1F280911F
:1057A000660306301105B9F2F2CF8FEF80931C012A
:1057B000F7CE8091100188CF0091590310915A03C0
:1057C0000115110519F56091550370915603611586
:1057D00052E07507D8F4809154038032B8F4909168
:1057E0001001911113C095E0660F771F9A95E1F7AC
:1057F000682B90E080E029E0660F771F881F991FD3
:105800002A95D1F70E941F0F8093100180911001FB
:1058100081111DC0802F8F71F82E80935303811149
:105820000FC0CE0101960E944F0E998190934603BE
:105830009032B0F08093100180911001811107C067
:10584000EF2DF0E0E054FC4F808180935B030F3F2D
:1058500091E0190708F481CF8FEF80931C017DCF71
:1058600083E1E8CF8DE094E00E9450082DCF809135
:105870004A0380935B0310924A0380916503823050
:1058800008F493CE0E9432148CE79AE00E94060935
:105890008FE69AE00E94060980915B030E945A14E9
:1058A0007FCE80914D03882309F47FCE80E20E9451
:1058B0009C0682E190E00E94E7090E94990680E23E
:1058C0000E949C0661E070E080E290E00E948D12F0
:1058D0000E94B906887F8160F7CE8EE29BCE8AE176
:1058E000F3CE90914B03992309F111E0823A09F428
:1058F00010E069E0812F0E944715082F8091650311
:10590000843008F4A0CE1F920F93812F90E08F5B1C
:105910009F4F9F938F938CE09AE09F938F938DE09E
:1059200094E09F938F930E94D11488CE80E4CCCED4
:1059300090914B039923D1F311E0843A09F410E0DC
:1059400068E0812F0E944715082F809165038430FD
:1059500008F479CE1F920F93812F90E08F5B9F4FB9
:105960009F938F934BE25AE05F934F93D8CF61E0C0
:1059700081E00E94560780916503823070F00E949A
:1059800032148AE59AE00E9406098AE49AE00E94AD
:10599000060980914A030E945A141FEF11B98091A1
:1059A0000E01DACD0130110509F472CD24F4012B7A
:1059B00009F468CD4FCD0230110509F476CD0330DE
:1059C000110509F047CD80916503823008F442CD7E
:1059D00028EA3AE03F932F938DE094E09F938F93D2
:1059E0000E94D1140F900F900F900F9033CD86EB43
:1059F00094E00E94D7168CEB94E00C94D7161F937A
:105A0000FC0199278827BC01E89411911032E9F331
:105A1000193010F01E30C8F31B3251F01D3249F41A
:105A2000689406C00E94262D610F711D811D911D75
:105A3000119110531A30B0F33EF490958095709503
:105A400061957F4F8F4F9F4F1F910895592F482F7A
:105A5000372F262F660F771F881F991F660F771F16
:105A6000881F991F620F731F841F951F660F771F72
:105A7000881F991F0895CF93DF93EC018B81886075
:105A80008B83CE010E944A2D2B81277F2B83DF91B0
:105A9000CF9108952F923F924F925F926F927F9293
:105AA0008F929F92AF92BF92CF92DF92EF92FF922E
:105AB0000F931F93CF93DF93CDB7DEB72B970FB61E
:105AC000F894DEBF0FBECDBF7C013B018A01FC0113
:105AD00017821682838181FFDDC1CE0101965C01B0
