:100000000C9415060C943F060C943F060C943F0686
:100010000C943F060C943F060C943F060C943F064C
:100020000C943F060C943F060C943F060C943F063C
:100030000C943F060C943F060C943F060C943F062C
:100040000C943F060C943F060C9482220C943F06BD
:100050000C94EE220C94C4220C943F060C943F06A0
:100060000C943F060C943F060C9424230C943F06FA
:100070000C943F060C943F060C943F060C943F06EC
:100080000C943F060C943F060C943F063110FD2162
:1000900052FDCDC6FECD3EFFCDF4FD3EFFBC20108F
:1000A000BD200D21D9FDCDC6FE2188FDCDC6FE7631
:1000B000E521D9FDCDC6FE2175FDCDC6FEE1CD4BB6
:1000C000FFCD3EFFCD3EFFDB01FEFF20FAE9694C8C
:1000D0006F6164202D20496E74656C2D4865782011
:1000E0004C6F61646572202D2053323030373138C7
:1000F000005374617274696E672041646472657341
:10010000733A20004C6F6164206572726F72202D0B
:100110002053797374656D2068616C746564005751
:10012000616974696E6720696E707574207374728A
:1001300065616D2E2E2E0053796E74617820657284
:10014000726F722100436865636B73756D20657211
:10015000726F722100694C6F61643A2000416464DF
:10016000726573732076696F6C6174696F6E2100BC
:10017000F5D5C501FFFF21A3FDCDC6FECD3EFFCDC8
:1001800072FFFE0D28F9FE0A28F5FE2028F1CD1A8F
:10019000FFCD69FFFE3AC2A3FECDE1FE571E00CDA2
:1001A000BEFECDD6FE3EFFB82005B92002444D7CF0
:1001B000CDBEFE7DCDBEFECDE1FECDBEFEFE01205C
:1001C0001ECDE1FECDBEFE7BA72866CD3EFF21D928
:1001D000FDCDC6FE21C9FDCDC6FE01FFFF18527A36
:1001E000A7282CCDE1FECDBEFEE5C5A701F0FCEDB4
:1001F00042C1E1DA8EFECD3EFF21D9FDCDC6FE2102
:10020000E1FDCDC6FE01FFFF182777231518D0CDDD
:10021000E1FECDBEFE7BA720B2CD3EFFC303FECDE7
:100220003EFF21D9FDCDC6FE21BBFDCDC6FE01FF9F
:10023000FFCD3EFF6069C1D1F1C9C54F7B915F79A8
:10024000C1C9F5E57EFE002806CD69FF2318F5E15A
:10025000F1C9F5CDE1FE67CDE1FE6FF1C9C5CDF481
:10026000FECB07CB07CB07CB0747CDF4FEB0C1C908
:10027000CD72FFCD1AFFCD06FF30F5CD23FFCD2E79
:10028000FFC9FE47D0FE3030023FC9FE3AD8FE41DA
:1002900030023FC937C9FE61D8FE7BD0E65FC9FE98
:1002A0003A3802D607D630E60FC9F5E60FC630FE5B
:1002B0003A3802C607CD69FFF1C9F53E0DCD69FF99
:1002C0003E0ACD69FFF1C9E5F57CCD58FF7DCD58DB
:1002D000FFF1E1C9F5C5470F0F0F0FCD2EFF78CD08
:1002E0002EFFC1F1C9F53E01D301F1D300C9DB01F5
:1002F000FEFFCA72FFC9494F533A2052544320733C
:10030000657420617420636F6D70696C6520746919
:100310006D65202D204E6F773A2000293F205B59D4
:100320002F4E5D203E000A446F20796F7520776163
:100330006E74207365742052544320617420494FB9
:100340005320636F6D70696C652074696D6520283A
:1003500000494F533A2052544320636C6F636B2023
:100360006661696C7572652100494F533A20525499
:1003700043204453333233312074656D70657261AC
:10038000747572652073656E736F723A2000494F01
:10039000533A20466F756E642052544320445333C1
:1003A000323331204D6F64756C65202800494F53FE
:1003B0003A2052544320646174652F74696D65203E
:1003C00075706461746564202800202E2E2E646F81
:1003D0006E652020202020200A005365636F6E6424
:1003E00073202D3E20004D696E75746573202D3E7F
:1003F0002000486F757273202D3E200020446179E3
:10040000202D3E20002020202020202020202020E1
:100410002020004D6F6E7468202D3E2000596561CC
:1004200072202D3E200020000A5072657373205404
:100430002F5520746F20696E6372656D656E742030
:100440002B31302F2B31206F7220435220746F20BC
:10045000616363657074000A494F533A20525443F4
:10046000206D616E75616C2073657474696E673A96
:10047000000D0A507265737320435220746F20611F
:1004800063636570742C2045534320746F20657836
:100490006974206F7220616E79206F7468657220B4
:1004A0006B657920746F206368616E676500494FE2
:1004B000533A205A38302069732072756E6E696E17
:1004C000672066726F6D206E6F770020446F6E65D7
:1004D00000494F533A204C6F6164696E6720626F28
:1004E0006F742070726F6772616D2E2E2E00292E30
:1004F0002E2E00494F533A204C6F6164696E67207D
:10050000626F6F742070726F6772616D2028004493
:10051000454255473A20426F6F7453747241646488
:1005200072203D200044454255473A20466C617395
:100530006820426F6F74496D61676553697A652001
:100540003D200044454255473A20496E6A65637430
:100550006564204A50203078008C00494F533A207F
:1005600043757272656E7420002564204B42797465
:1005700065730D000D202D3E004368616E67656454
:100580002073706565642077696C6C2062652065F6
:100590006666656374697665206166746572206E4F
:1005A000657874207265626F6F74210D0A0A0020ED
:1005B00020200D000D202D3E002020202020202076
:1005C000202020202020202020200D000D202D3E46
:1005D000003F566572626F73697479206C65766549
:1005E0006C200020204F6B00456E74657220796F7F
:1005F00075722063686F696365203E200025644B37
:1006000042797465730020413A2053657420524149
:100610004D2D73697A6520280020393A205365747E
:10062000205254432074696D652F64617465002005
:10063000383A205365742073657269616C20706F5D
:1006400072742073706565642028004F4646002050
:10065000373A20546F67676C652043502F4D204117
:1006600075746F6578656320282D3E004D487A29A2
:100670000020363A204368616E6765205A38302082
:10068000636C6F636B20737065656420282D3E007A
:1006900020353A20694C6F6164000D0A20343A20FD
:1006A0004175746F626F6F740020333A204C6F6134
:1006B000642F736574204F53200020323A20466F18
:1006C0007274680020313A204261736963002030FF
:1006D0003A204E6F206368616E6765202800494F9D
:1006E000533A2053656C65637420626F6F74206D9C
:1006F0006F6465206F722073797374656D2070610B
:1007000072616D65746572733A004F4646004F4ED4
:1007100000494F533A2043502F4D204175746F6567
:100720007865632069732000494F533A20466F75FE
:100730006E642053494F41202F2053494F42204F90
:100740007074696F6E00494F533A20466F756E643E
:1007500020475045204F7074696F6E002028435425
:10076000532C2052545320757365642061732042CA
:10077000414E4B322C2042414E4B33207369676E01
:10078000616C2C2043453220696E76657274656415
:100790002900202843545320757365642061732019
:1007A00042414E4B32207369676E616C2900494F9C
:1007B000533A2025644B42797465732052414D00B1
:1007C0004D487A00494F533A205A383020636C6FB5
:1007D000636B2073657420617420005332323037AC
:1007E00031382D523239303832332D4433313132B1
:1007F0003235202D204A616E2020342032303236AE
:100800002031333A33303A3134000D0A0A5A383045
:100810002D4D424332202D204130343036313820A6
:100820002D2041546D65676131323834202D2032DE
:1008300030204D487A00494F533A20436865636B36
:1008400020534420616E64207072657373206120B0
:100850006B657920746F207265706561740D0A0094
:10086000202D2046696C653A2000206F706572610A
:1008700074696F6E0052454144004F50454E004D23
:100880004F554E5400206F6E2000554E4B4E4F5723
:100890004E004E4F5F46494C4553595354454D0009
:1008A0004E4F545F454E41424C4544004E4F545FBD
:1008B0004F50454E4544004E4F5F46494C45004E13
:1008C0004F545F5245414459004449534B5F455290
:1008D00052000D0A494F533A205344206572726FFB
:1008E0007220003F3F53494F25633A20416374759E
:1008F000616C2062617564726174653A2025640DD3
:100900000A003F3F53494F25633A2043616C6375AA
:100910006C617465642064697669736F723A20252E
:10092000640D0A003F3F53494F25633A20446573E5
:10093000697265642062617564726174653A20252C
:10094000640D0A003F3F3F53494F25633A205365EA
:10095000744175746F48616E647368616B652025BE
:10096000642C2025640D0A003F3F3F3F3F53494F11
:1009700025633A20526561645265676973746572D4
:10098000203078253032582028257329207265734D
:100990003D3078253032580D0A003F3F3F3F3F53EE
:1009A000494F25633A2057726974655265676973C8
:1009B000746572203078253032582028257329201C
:1009C00076616C3D3078253032580D0A003F3F3F4C
:1009D00053494F25633A20577269746542797465AB
:1009E000203078253032582025630D0A003F3F3FE4
:1009F00053494F25633A20526561644279746520FA
:100A00003078253032582025630D0A003F3F3F3FA4
:100A100053494F25633A205278204649464F204C8F
:100A20006576656C3A2025640D0A003F3F3F3F53D1
:100A3000494F25633A205478204649464F20537049
:100A40006163653A2025640D0A00202D20697271CA
:100A5000537461747573203D200044454255473AF4
:100A600020494E542041434B206379636C6500203C
:100A70002D20696F44617461203D2000444542553A
:100A8000473A2053595349525100202D2069727121
:100A9000537461747573203D200044454255473AB4
:100AA0002053455220525800726573657276656412
:100AB0000D0A006175746F205254532F4354530D27
:100AC0000A006175746F20586F6E2F586F6666202C
:100AD000284E5949290D0A0064697361626C650DDD
:100AE0000A00202D2068616E647368616B653A208E
:100AF00025642000202D2062617564726174653A5E
:100B000020256C640D0A003F3F53494F423A003F95
:100B10003F53494F413A002073657420636F6E74F0
:100B2000726F6C3A20307825303258000000210076
:100B3000240027002A0000002200250028002B00A6
:100B40000000200023002600290002020202020207
:100B5000020204040404040404040303030303035F
:100B60000303010101010101010101020408102038
:100B70004080010204081020408001020408102077
:100B800040800102040810204080000000020300A1
:100B90000A0B000000000504090800000000000026
:100BA000000000000000000000003F3F3F53494F9D
:100BB00025633A204649464F536574547269676706
:100BC00065724C6576656C2825735F4649464F3AD9
:100BD0002026640D0A003F53494F25633A204C43B9
:100BE000522052656769737465723A2030782530F7
:100BF00032780D0A000D0A0A494F533A20426175B6
:100C000064207265636F7665727920646F6E65200B
:100C10002D20506C65617365207265626F6F742062
:100C20006E6F77210000F224C82C11241FBECFEF75
:100C3000D0E4DEBFCDBF24E0A6EEB2E001C01D923D
:100C4000A43CB207E1F712E0A0E0B1E0EAEFF4E67D
:100C500000E00BBF02C007900D92A63EB107D9F786
:100C600016E0C4E1D6E004C02197FE010E943430B2
:100C7000C331D107C9F70E9448250C9470320C94F7
:100C80000000282F9091B90381E0913208F042C012
:100C9000809195038111FCCF8091B80332E03093AD
:100CA0009503209394032FEF2093930328E933E0D7
:100CB00030939203209391031092900390938F03AB
:100CC00010928E0390918E03880F892B80938E0350
:100CD00080918D03813029F510928D0380918E03D0
:100CE0008093BB008091BC0083FDF8CF85EC80939E
:100CF000BC00809195038230E1F3809193038F3F94
:100D000091F080919303803281F08091930380333E
:100D100071F084E0109297031092B9031092960339
:100D2000089585EEE4CF80E0F5CF82E0F3CF83E055
:100D3000F1CF81E00C94410691E09093960380936B
:100D4000B803109297031092B90308959091890304
:100D5000809188032FEF3FEF981748F4E92FF0E0D8
:100D6000E859FC4F208130E09F5F90938903C901CF
:100D7000089590918903809188032FEF3FEF981792
:100D800048F4E92FF0E0E859FC4F208130E09F5F04
:100D900090938903C90108952091B8043091B90452
:100DA0008217930760F42091B4043091B5042115A3
:100DB000310529F0280F391FF9018081089580E05D
:100DC0000895FB01A485B585ED91FC9111970190E3
:100DD000F081E02D682FCD01099590E080E0089525
:100DE0000000000000000000000083E090E0019798
:100DF000F1F7089582508A3088F5E82FF0E0ED5F32
:100E0000F84F0C9434302B072F070D0713072E07CC
:100E10002E0717071D0721072707809180008F776E
:100E2000809380000895809180008F7DF9CF80911C
:100E3000B0008F778093B00008958091B0008F7DCF
:100E4000F9CF809190008F778093900008958091E2
:100E500090008F7DF9CF84B58F7784BD089584B5D8
:100E60008F7DFBCFCF93DF93282F30E0F901E6573A
:100E7000F44F8491F901E659F44FD491F901E65BFE
:100E8000F44FC491CC23A1F081110E94FA06EC2FFB
:100E9000F0E0EE0FFF1FE05CF44FA591B491EC91F0
:100EA000ED2381E090E009F480E0DF91CF91089597
:100EB00080E090E0FACF1F93CF93DF93282F30E0AC
:100EC000F901E657F44F8491F901E659F44FD491B2
:100ED000F901E65BF44FC491CC23A9F0162F8111E0
:100EE0000E94FA06EC2FF0E0EE0FFF1FEA5CF44FD1
:100EF000A591B4918FB7F894EC91111108C0D095D9
:100F0000DE23DC938FBFDF91CF911F910895DE2BFD
:100F1000F8CFCF93DF9390E0FC01E659F44F249192
:100F2000865B944FFC0184918823C9F090E0880F80
:100F3000991FFC01E45DF44FA591B491FC01EA5CBA
:100F4000F44FC591D49161110DC09FB7F8948C9165
:100F5000209582238C938881282328839FBFDF914B
:100F6000CF910895623051F49FB7F8943C91822F4D
:100F7000809583238C93E8812E2BEFCF8FB7F89445
:100F8000EC912E2B2C938FBFEACFCF92DF92EF9272
:100F9000FF926FB7F89480915F0390916003A091E6
:100FA0006103B091620350915E0326B535B3432FC0
:100FB000417030FF04C041E02F3F09F440E06FBFB3
:100FC0006C017D0137E0CC0CDD1CEE1CFF1C3A955A
:100FD000D1F7C50ED11CE11CF11CC81AD90AEA0AC6
:100FE000FB0A880F991FAA1FBB1FC81AD90AEA0A51
:100FF000FB0A63E0CC0CDD1CEE1CFF1C6A95D1F7EC
:1010000030E0A3E3B3E00E94E32F672F782F892F0E
:1010100099276C0D7D1D8E1D9F1D442321F06D5C55
:101020007C4F8F4F9F4FFF90EF90DF90CF900895B0
:101030008F929F92AF92BF92CF92DF92EF92FF92E8
:101040004B015C010E94C5076B017C010E94C50732
:101050006C197D098E099F09683E734081059105D1
:10106000A8F321E0821A9108A108B10888EEC80E01
:1010700083E0D81EE11CF11C81149104A104B10489
:1010800029F7FF90EF90DF90CF90BF90AF909F90A7
:101090008F9008952FB7F89460915F03709160036B
:1010A00080916103909162032FBF0895AF92BF9228
:1010B000CF92DF92EF92FF920F931F93CF93DF9324
:1010C0006C017B018B01040F151FEB015E01AE1853
:1010D000BF08C017D10759F06991D601ED91FC9175
:1010E0000190F081E02DC6010995892B79F7C501A2
:1010F000DF91CF911F910F91FF90EF90DF90CF90F4
:10110000BF90AF900895FC01538D448D252F30E0A2
:10111000842F90E0821B930B541710F0CF96089504
:1011200001970895FC01918D828D981761F0A28D31
:10113000AE0FBF2FB11D5D968C91928D9F5F9F73F7
:10114000928F90E008958FEF9FEF0895FC01918DAD
:10115000828D981731F0828DE80FF11D858D90E01A
:1011600008958FEF9FEF0895FC01918D228D892FB7
:1011700090E0805C9F4F821B91098F73992708959F
:101180008BE094E00E94B40821E0892B09F420E070
:10119000822F0895FC01A48DA80FB92FB11DA35A69
:1011A000BF4F2C91848D90E001968F739927848F87
:1011B000A689B7892C93A089B1898C9183708064AA
:1011C0008C93938D848D981306C00288F389E02D4B
:1011D00080818F7D80830895EF92FF920F931F93FC
:1011E000CF93DF93EC0181E0888F9B8D8C8D9813DA
:1011F0001AC0E889F989808185FF15C09FB7F894E6
:10120000EE89FF896083E889F98980818370806431
:1012100080839FBF81E090E0DF91CF911F910F917C
:10122000FF90EF900895F62E0B8D10E00F5F1F4F8B
:101230000F731127E02E8C8D8E110CC00FB607FC9A
:10124000FACFE889F989808185FFF5CFCE010E9428
:10125000CA08F1CFEB8DEC0FFD2FF11DE35AFF4FC4
:10126000F0829FB7F8940B8FEA89FB8980818062B6
:10127000CFCF0F931F93CF93DF938C01D0E0C0E0CB
:10128000F801EC0FFD1F6491662341F08BE094E0C0
:101290000E94EC08892B11F02196F2CFCE01DF914C
:1012A000CF911F910F910895CF93DF93EC01888D1B
:1012B0008823B9F0AA89BB89E889F9898C9185FDD1
:1012C00003C0808186FD0DC00FB607FCF7CF8C915F
:1012D00085FFF2CF808185FFEDCFCE010E94CA0845
:1012E000E9CFDF91CF91089581E08093460308957F
:1012F0000E94C008882319F081E08093460380E0B3
:1013000090E0892B49F080E090E0892B29F00E9441
:10131000000081110C940000089585ED8093BC00BD
:101320008091BC0084FDFCCF10929503089520911C
:101330001B03260F3327331F21323105ECF4209194
:101340009503FC0190E080E0243069F082E008958C
:10135000A0911B032191AC0147505D4FA40FB52F05
:10136000B11D2C930196861798F380911B03680F8B
:1013700060931B0380E0089581E008950895089527
:101380000895E091890380918803E81730F4F0E034
:10139000E859FC4F808190E008958FEF9FEF08950A
:1013A0008091880390918903891B990B0895CF92AE
:1013B000DF92EF92FF920F931F93CF93DF937C0105
:1013C000CB018A0120919603222389F0EB016B0166
:1013D000C40ED51ECC15DD0569F06991D701ED91DC
:1013E000FC910190F081E02DC7010995F3CF642FA6
:1013F0000E949709C801DF91CF911F910F91FF9033
:10140000EF90DF90CF900895CF93DF931F92CDB7E9
:10141000DEB76983209196032223F9F02091B90366
:10142000203258F021E030E0FC013383228390E049
:1014300080E00F90DF91CF91089580919703E82F7E
:10144000F0E0E856FC4F998190838F5F809397037B
:101450008093B90381E090E0ECCF61E0CE0101968A
:101460000E949709F7CF682F88EA94E00C94040A49
:101470000F931F93CF93DF93082F162FD42F88E657
:101480000E949C0690E080E00E94330A80918C03C9
:10149000CAE06C2F0E94F22F8295807F682F690F1F
:1014A00088EA94E00E94040A80918B036C2F0E94CA
:1014B000F22F8295807F682F690F88EA94E00E945E
:1014C000040A80918A036C2F0E94F22F8295807FFC
:1014D000682F690F88EA94E00E94040A81E090E096
:1014E0000E94330A802F6C2F0E94F22F8295807FFA
:1014F000682F690F88EA94E00E94040A812F6C2FFC
:101500000E94F22F8295807F682F690F88EA94E00D
:101510000E94040A8D2F6C2F0E94F22F8295807FEB
:10152000682F690F88EA94E00E94040ADF91CF9146
:101530001F910F910C94990690E080E008950F930D
:101540001F93E0910904F0910A049B01AC01225021
:1015500031094109510986819781A085B18502979A
:10156000A109B109281739074A075B0778F4A28156
:10157000B0E00E94D82F0289138924893589600F31
:10158000711F821F931F1F910F91089560E070E0FB
:10159000CB01F9CF0F931F93CF93DF93EC01E09131
:1015A0000904F0910A04198218826C817D818E8170
:1015B0009F81613071058105910581F10681178157
:1015C00020853185601771078207930738F561150B
:1015D00071058105910539F42081233021F4668558
:1015E000778580899189688779878A879B87611544
:1015F00071058105910569F00E949F0A6C877D87BE
:101600008E879F8790E080E0DF91CF911F910F91AF
:1016100008956685778580899189F0CF81E090E093
:10162000F3CF8EBD0DB407FEFDCF08958FEF0E945E
:10163000110B8EB508950F931F93CF93DF93C09135
:101640004003D09141032197CD3F8FEFD80721F080
:1016500080E00E94110BF7CF0E94160B8F7185302E
:1016600079F0D1E0C0E061E084E00E945B070E9475
:10167000160B8D2F9C2FDF91CF911F910F91089505
:1016800008E813E1C4EFD1E00E94160B8F3F49F048
:101690000115110531F3CE010197F1F70150110940
:1016A000F3CFD1E0C0E0012BF1F2D0E0DCCFFF922C
:1016B0000F931F93CF93DF93C82FD42F152F062F8F
:1016C000F72E8091DE0381113FC083E58CBD1DBCE8
:1016D000C7FF09C040E050E0BA0187E70E94570BFE
:1016E000823060F5CF7761E084E00E945B070E9462
:1016F000160B60E084E00E945B070E94160B8C2FA3
:101700000E94110B8F2D0E94110B802F0E94110B34
:10171000812F0E94110B8D2F0E94110B85E9C0347F
:1017200021F087E8C83409F081E00E94110BCAE07B
:101730000E94160B87FF02C0C150D1F7DF91CF91F5
:101740001F910F91FF90089580E58CBD81E08DBDC4
:10175000BFCFCF92DF92EF92FF920F931F93CF9361
:10176000DF937C0169018091DE0383FD07C089E07E
:10177000440F551F661F771F8A95D1F781E50E9498
:10178000570B811108C0C0E4DCE90E94160B8F3FA3
:1017900029F42197D1F7C1E0D0E022C08E3FD9F7DC
:1017A000C2E0D2E0C01BD10BCC19DD0981E0C81A20
:1017B000D10818F00E94160BF9CFE114F10401F1E1
:1017C0000E0D1F1D0E94160BF70181937F010E174E
:1017D0001F07C1F70E94160B2197E1F7D0E0C0E088
:1017E00061E084E00E945B070E94160BCE01DF914E
:1017F000CF911F910F91FF90EF90DF90CF900895C0
:101800000E94160B01501109D9F7E4CFCF92DF9255
:10181000EF92FF920F931F93CF93DF93EC016A0136
:101820007B0102E010E02EEF31E00E94A90B892B32
:1018300031F58881998185359A4A59F526E330E05A
:10184000B701A601CE010E94A90B892B29F488813A
:1018500099818634914489F002E010E022E530E07D
:10186000B701A601CE010E94A90B892BA1F481E04A
:10187000288139812634314419F480E001C083E0A5
:10188000DF91CF911F910F91FF90EF90DF90CF905C
:10189000089582E0F5CF81E0F3CF4F925F926F928F
:1018A0007F928F929F92AF92BF92CF92DF92EF92F0
:1018B000FF920F931F93CF93DF93CDB7DEB7A4971B
:1018C0000FB6F894DEBF0FBECDBF10920A0410927F
:1018D00009048091DE03882339F084E00E943207F6
:1018E000892B11F40E941B0B61E084E00E945B07CE
:1018F00061E084E00E94890761E085E00E94890739
:1019000061E087E00E94890761E084E00E94890726
:1019100083E58CBD1DBC61E084E00E945B071AE09A
:101920000E94160B1150E1F740E050E0BA0180E44C
:101930000E94570B182F813009F441C010E010931A
:10194000DE0361E084E00E945B070E94160B82E0E8
:1019500090E01123E9F040E050E0BA01CE01019699
:101960000E94060CC12CD12C7601813009F096C062
:1019700000E110E02EEB31E040E050E0BA01CE0192
:1019800001960E94A90B892B09F478C081E090E0B0
:10199000A4960FB6F894DEBF0FBECDBFDF91CF91F6
:1019A0001F910F91FF90EF90DF90CF90BF90AF907D
:1019B0009F908F907F906F905F904F9008954AEA2C
:1019C00051E060E070E088E40E94570B813091F5AF
:1019D000CE0101967C016E0195E0C90ED11C8701F4
:1019E0000E94160BF80181938F01CE16DF06C1F716
:1019F0008B81813009F0A2CF8C818A3A09F09ECF89
:101A000080E1C82E87E2D82E94EFA92EBB24B39490
:101A100040E050E060E070E489EE0E94570B8823BC
:101A200009F4C9C0C5010197F1F7F1E0CF1AD10857
:101A300079F784CF40E050E0BA0189EE0E94570B5D
:101A400001E4823010F412E009EEA0E1EA2EA7E2F0
:101A5000FA2EB4EFCB2EDD24D39440E050E0BA014F
:101A6000802F0E94570B882309F4BBC0C601019741
:101A7000F1F7F1E0EF1AF10881F760CF8D81811164
:101A800003C086E090E084CFC984DA84EB84FC84D0
:101A9000B701A601CE0101960E94060C833009F41D
:101AA00075CF8111EECF04E210E02DE030E0B701F8
:101AB000A601CE0101960E94A90B892B09F066CFE1
:101AC0002A853B8550E040E021153105410551054F
:101AD00021F4288D398D4A8D5B8DAC81B0E00E9458
:101AE000D82F4B015C014A815B8170E060E0C40E3D
:101AF000D51EE61EF71EC092E903D092EA03E092DB
:101B0000EB03F092EC03E981E093E1038D819E8188
:101B10009093E4038093E3030F81188530E020E085
:101B2000011511052105310521F40C891D892E8926
:101B30003F89F4E096958795FA95E1F72C01712C91
:101B4000612C041B150B260B370BC901B801681952
:101B500079098A099B0964197509860997092E2F45
:101B600030E050E040E00E941230DA01C9010296F4
:101B7000A11DB11D8093E5039093E603A093E703B5
:101B8000B093E803265F3F40410951092F3F3F4E84
:101B90004105510588F1873F9F4FA105B10588F5A3
:101BA00070CF82E08093DF03D501C4018C0D9D1DB1
:101BB000AE1DBF1D2DC040E050E0BA018AE70E9473
:101BC000570B8111BBCE0E94160BF70181937F0149
:101BD0000E171F07C1F789811CE086FDB0CE14E007
:101BE000AECE40E052E060E070E080E50E94570B2E
:101BF000882309F4A4CEA2CE873F9F4FA105B1054B
:101C000080F283E08093DF0388A199A1AAA1BBA100
:101C10008093ED039093EE03A093EF03B093F00352
:101C2000C40CD51CE61CF71C8C0C9D1CAE1CBF1CE8
:101C30008092F1039092F203A092F303B092F40326
:101C40001092E0038FED93E090930A0480930904CF
:101C500090E080E09DCE0F931F93CF93DF9300D051
:101C600000D0CDB7DEB7623071058105910528F44B
:101C700061E070E080E090E055C0E0910904F091EF
:101C80000A04068117812085318560177107820754
:101C9000930770F7AB01BC018081823031F1833052
:101CA00039F79A012F773327220F331F220F331F63
:101CB00097E076956795579547959A95D1F78285E0
:101CC0009385A485B585480F591F6A1F7B1F04E0C3
:101CD00010E0CE0101960E94A90B892B49F669817B
:101CE0007A818B819C819F701DC09A013327220FBE
:101CF000331F452F562F672F772782859385A4851D
:101D0000B585480F591F6A1F7B1F02E010E0CE0106
:101D100001960E94A90B892B09F0AACF69817A81CB
:101D200090E080E00F900F900F900F90DF91CF9197
:101D30001F910F9108956F927F928F929F92AF9211
:101D4000BF92CF92DF92EF92FF920F931F93CF93A8
:101D5000DF93C0910904D0910A04FC011182108222
:101D6000209709F4AFC0298120FFAFC00A8D1B8DD9
:101D70002C8D3D8D4E895F89688D798D6801790143
:101D8000C41AD50AE60AF70AB701A601403251057E
:101D90006105710520F040E250E060E070E05C0118
:101DA0007A013EEB832E33E0932E612C42E0742EB9
:101DB000E114F10409F48CC08E899F89A88DB98D36
:101DC000AC01BD01517066277727452B462B472B69
:101DD00009F04AC0DA80DA94AC01BD0129E07695B9
:101DE0006795579547952A95D1F7D42251F5892BB8
:101DF0008A2B8B2BD9F46E8D7F8D88A199A16230AF
:101E0000710581059105C8F4198281E090E0DF91A8
:101E1000CF911F910F91FF90EF90DF90CF90BF90E7
:101E2000AF909F908F907F906F9008956AA17BA153
:101E30008CA19DA10E942B0EE2CF6AA37BA38CA351
:101E40009DA36AA17BA18CA19DA10E949F0A6115FF
:101E5000710581059105C1F26D0D711D811D911DE9
:101E60006EA37FA388A799A72E893F893170C301EC
:101E7000821B930B67018E159F0508F46C014EA120
:101E80005FA168A579A58601C4010E94A90B892BD1
:101E900009F0BACF8E899F89A88DB98D8C0D9D1DB3
:101EA000A11DB11D8E8B9F8BA88FB98F8C0C9D1C93
:101EB000EC18FD08F50180819181C80ED91ED182F0
:101EC000C08276CF85E090E0A2CF84E090E09FCF03
:101ED00090E080E09CCF4F925F926F927F928F92C2
:101EE0009F92AF92BF92CF92DF92EF92FF92CF93E9
:101EF000DF9300D000D000D0CDB7DEB72091090429
:101F000030910A043E832D832115310509F40CC15B
:101F1000D90111962C91119720FF09C15A96CD90A5
:101F2000DD90ED90FC905D976C157D058E059F050D
:101F300010F46B017C01ED81FE8146885788608C2E
:101F4000718C168A178A108E118EC114D104E10487
:101F5000F10409F4E6C08280912CB12CA12C39E067
:101F6000880C991CAA1CBB1C3A95D1F7411451044A
:101F70006104710409F470C0B1E04B1A51086108A2
:101F80007108C701B6016150710981099109A50164
:101F900094010E94123029833A834B835C83C301EE
:101FA000B201A50194010E94123089819A81AB810E
:101FB000BC8182179307A407B50708F44DC0882792
:101FC0009927DC0188199909AA09BB09842195215F
:101FD000A621B721ED81FE81868B978BA08FB18FD3
:101FE000C81AD90AEA0AFB0A62A173A184A195A1C1
:101FF0008C149D04AE04BF0408F058C00E942B0E40
:10200000623071058105910568F0AD81BE8116963B
:102010004D905D906D907C901997641575058605BF
:10202000970540F1ED81FE81118281E090E02696D6
:102030000FB6F894DEBF0FBECDBFDF91CF91FF90FA
:10204000EF90DF90CF90BF90AF909F908F907F9058
:102050006F905F904F900895AD81BE815E966D91B7
:102060007D918D919C919197FD0162A373A384A3AF
:1020700095A3BECFAD81BE8192966D937D938D93D6
:102080009C93959756964D905D906D907C90599746
:10209000480C591C6A1C7B1CFD01468A578A608EBD
:1020A000718EC818D908EA08FB08A2CFAD81BE819D
:1020B00056968D909D90AD90BC905997C80CD91CA8
:1020C000EA1CFB1CFD01C68AD78AE08EF18E0E94B5
:1020D0009F0AAB01BC01411551056105710529F449
:1020E000AD81BE8111961C92A0CFED81FE818281CF
:1020F0008150990B092E000CAA0BBB0B29E0F6941A
:10210000E794D794C7942A95D1F78C219D21AE21CD
:10211000BF21480F591F6A1F7B1F46A357A360A703
:1021200071A790E080E083CF85E090E080CF84E0ED
:1021300090E07DCF4F925F926F927F92BF92CF924D
:10214000DF92EF92FF920F931F93CF93DF93CDB760
:10215000DEB7EC970FB6F894DEBF0FBECDBFE090B0
:102160000904F0900A04E114F10409F404C1F70130
:1021700011829E012F5C3F4F3CA32BA39C01690160
:10218000F90180812F5F3F4F8032C9F38F3209F40C
:1021900069011DA21EA21FA218A6F6018081A0E25D
:1021A000BA2E803208F0D4C0CE0181960E94CA0AAD
:1021B0001982009709F407C1EC960FB6F894DEBFB8
:1021C0000FBECDBFDF91CF911F910F91FF90EF9088
:1021D000DF90CF90BF907F906F905F904F90089569
:1021E00020E0E0E088E0D1C0C30ED11C81E0913254
:1021F00008F080E01B968C93CE0181960E94CA0A5B
:102200000097D1F629A13AA12F703327F5E0220FCC
:10221000331FFA95E1F74DA55EA56FA578A900E2F9
:1022200010E0CE0101960E94A90B892B19F081E0E4
:1022300090E0C2CF8981811103C083E090E0BCCFE0
:102240008C8583FD13C00BA11CA19E012F5F3F4F06
:10225000D801B801655F7F4F6A177B0709F4AEC0EC
:10226000F90141919F019D914917B1F309A11AA16B
:102270000F5F1F4F11F38DA59EA5AFA5B8A90097BD
:10228000A105B105D1F298012F703327232BB9F4A2
:102290000196A11DB11D8DA79EA7AFA7B8AB69A5DB
:1022A0007AA58BA59CA5F70161157105810591059E
:1022B00049F4848195810817190708F0BECF1AA345
:1022C00009A3A0CF2281E22FE150FF0BAF019801BB
:1022D000E4E036952795EA95E1F724233523232B6F
:1022E00071F70E942B0E623071058105910508F48B
:1022F0009ECFF70146805780608471846415750510
:102300008605970508F099CF69A77AA78BA79CA7A0
:102310000E949F0A6DA77EA78FA798ABD0CF84FF9E
:102320008CCFF70180818330F1F48D899E89B0E0F4
:10233000A0E0DC01992788274B8D5C8D70E060E080
:10234000842B952BA62BB72B8DA39EA3AFA3B8A749
:10235000ABA1BCA1FD01CD010B968E179F0709F41F
:102360003FCFB192FACF80E090E0DC01E5CF80E092
:1023700090E0DC013DC085E090E01ECF883009F0A0
:1023800033CF9BE0282FE32F892F31E03E0FEC0D58
:10239000FD2DF11D9081913208F426CF9F3209F472
:1023A00023CF9E3259F3281708F01ECFFD01E20F0C
:1023B000F11D9083982F81E0820FE4CFF80193857F
:1023C000992309F4ACCF8981882309F436CF8C8511
:1023D00084FD33CFE0910904F0910A0480818330B9
:1023E00031F68D899E89B0E0A0E0DC01992788272D
:1023F0004B8D5C8D70E060E0842B952BA62BB72B6A
:10240000F701868F978FA0A3B1A38D8D9E8DAF8D81
:10241000B8A1828F938FA48FB58F168A178A108EDA
:10242000118E81E0818390E080E0C6CECF93DF9370
:10243000D82FC0E061E08FE00E945B0760E08FE092
:102440000E945B07CF5FDC13F5CFDF91CF9108953A
:102450001F93CF93DF93182FD92F81E00E9416127C
:1024600061E080915203823009F060E082E00E94D6
:102470005B07CFEFC1B981E282B982E00E941612F8
:1024800011B8C2B982E00E941612C1B912B983E034
:102490000E941612D2B982E00E94161211B8C2B977
:1024A00061E080915203823009F460E082E0DF91C4
:1024B000CF911F910C945B07CF93DF93D82F81E0CE
:1024C0000E94161261E080915203823009F060E0B0
:1024D00082E00E945B07CFEFC1B986E382B982E058
:1024E0000E94161211B8C2B982E00E941612C1B938
:1024F000D2B982E00E94161211B8C2B9C09152033B
:1025000061E0C23009F460E082E00E945B0783E092
:102510000E94161281E00E94161261E0C23009F09A
:1025200060E082E00E945B07CFEFC1B983E282B92D
:1025300082E00E94161211B8C2B961E08091520384
:10254000823009F460E082E00E945B0783E0DF9163
:10255000CF910C941612AC01809195038111FCCFA0
:10256000962F81E080939503809394032FEF20931F
:10257000930328E633E03093920320939103109263
:1025800090032FEF260F20938F0380938E032091CB
:102590008E03440F551F822F842B80938E038091CE
:1025A0008D038130E9F410928D0380918E03809326
:1025B000BB008091BC0083FDF8CF85EC8093BC000C
:1025C000809195038130E1F380919003861710F498
:1025D000909190031092890390938803892F089516
:1025E00085EEECCFCF9388E60E949C0690E080E0D9
:1025F0000E94330A0E94990662E170E088E690E04A
:102600000E94AB120E94B906982F92959770CAE06B
:102610008F709C9F800D112480938C030E94B906BB
:10262000982F92959F708F709C9F800D112480939E
:102630008B030E94B906982F929593708F709C9F80
:10264000800D112480938A030E94B9060E94B90666
:10265000982F92959F708F709C9F800D112480936E
:1026600067030E94B906982F92959F708F709C9F68
:10267000800D1124809366030E94B906982F9295CD
:102680009F708F709C9F800D1124809365030E9422
:10269000B906C150E1F70E94B90680936403CF9157
:1026A0000895FC0101900020E9F73197AF01481B24
:1026B000590BBC018BE094E00C9456088F929F92CA
:1026C000AF92BF920F931F93CF93DF93CDB7DEB737
:1026D000A1970FB6F894DEBF0FBECDBF19A242304E
:1026E00008F44AE08E010F5D1F4F842E912CB12C0F
:1026F000A12CA50194010E941230E62FB901CA0154
:10270000EA30F4F4E05DD801EE938D01232B242B05
:10271000252B79F790E080E0109719F0CD010E9409
:102720005113A1960FB6F894DEBF0FBECDBFDF9157
:10273000CF911F910F91BF90AF909F908F90089570
:10274000E95CE1CFCF92DF92EF92FF92CF93DF93DC
:102750006C01990FEE08FF08F7FE19C06DE28BE0DF
:1027600094E00E94EC08EC0166277727CB016C19F6
:102770007D098E099F094AE00E945E138C0F9D1F00
:10278000DF91CF91FF90EF90DF90CF9008954AE0D6
:10279000C701B601DF91CF91FF90EF90DF90CF900E
:1027A0000C945E13009711F00C94511390E080E0AC
:1027B00008951F93CF93DF9300D0CDB7DEB7182FC6
:1027C00089E392E00E94D213612F70E090E080E0F4
:1027D0004AE00E945E13105D1093020180E091E0D8
:1027E0000E949A10CE0101960E949B0E89818093CF
:1027F0004703882361F083E492E00E94D2138EEBBA
:1028000093E00E94D21386E492E00E94D2130F90CC
:102810000F90DF91CF911F910895CF93C82F8A30E9
:1028200020F48BE592E00E94D2136C2F70E090E0D0
:1028300080E04AE0CF910C945E1381110E94F21265
:1028400088E492E00E94D213809165030E940D14E7
:102850008BE492E00E94D213809166030E940D14D3
:102860008BE492E00E94D213809167030E940D14C2
:1028700081E492E00E94D21380918A030E940D1499
:102880008DE492E00E94D21380918B030E940D147C
:102890008DE492E00E94D21380918C030C940D146D
:1028A0008FE492E00C945113CF93DF930E94390987
:1028B000EC010E9450148C0F9D1FDF91CF91089561
:1028C0008BE094E00E94B408181619062CF48BE0F3
:1028D00094E00E949208F4CF86E398E00E9454149A
:1028E0008BE094E00E94B40818161906CCF70895FE
:1028F000CF93DF93682F70E090E080E04AE00E9481
:102900005E13EC010E9450148C0F9D1FDF91CF913C
:102910000895CF93DF930E945113EC010E9450144D
:102920008C0F9D1FDF91CF9108950F931F93CF932D
:10293000DF93D82FC62F8A0182ED98E00E943909D3
:102940006C2F70E090E080E04AE00E945E1383E428
:1029500092E00E94D21387EB98E0C330C1F058F4A4
:1029600089EC98E0C13099F08FEB98E0C23079F0B3
:102970008AE898E00CC080EA98E0C53041F08CEA23
:1029800098E0C53020F082E998E0C63089F70E94CF
:10299000390985E898E00E9439098AE798E0D13042
:1029A00031F08FE798E0D23011F485E798E00E948B
:1029B00039098AE698E00E9439090115110539F0B4
:1029C00080E698E00E943909C8010E94D21386E48B
:1029D00092E0DF91CF911F910F910C948914CF93C6
:1029E000DF93CDB7DEB72E970FB6F894DEBF0FBEDC
:1029F000CDBF81EE96E09A8789871C861B8682E090
:102A00008C838BE094E09E878D87AE01495E5F4F9B
:102A10006D897E89CE0101960E940C2D2E960FB6EF
:102A2000F894DEBF0FBECDBFDF91CF910895FF9226
:102A30000F931F93CF93DF93F42E062F10E0C82F30
:102A4000D0E080916303853020F11F924F93C8013D
:102A5000880F991F880F991F8F579E4F9F938F93B1
:102A60001F926F93CE018F5B9F4F9F938F938AE945
:102A700099E09F938F938BE094E09F938F930E94B4
:102A8000EF148DB79EB70C960FB6F8949EBF0FBE8D
:102A90008DBF88E40E949C06C80123E0880F991F1F
:102AA0002A95E1F7CC0FDD1F8C2B9D2B0E94330A5A
:102AB0006F2D88EA94E00E94040A81E0DF91CF91B3
:102AC0001F910F91FF900C944106DF92EF92FF92BD
:102AD0000F931F93CF93DF93C82FD62E88E40E94C5
:102AE0009C060D2D10E0D0E0980193E0220F331FDB
:102AF0009A95E1F7CE01880F991F822B932B0E94A4
:102B0000330A80E00E94410661E070E088E490E0D2
:102B10000E94AB120E94B9067C018091630385304C
:102B200020F1C70199279F938F93000F111F000F6A
:102B3000111F0F5B1E4F1F930F931F92DF92CF5BEE
:102B4000DF4FDF93CF9388E699E09F938F938BE0DD
:102B500094E09F938F930E94EF148DB79EB70C96CD
:102B60000FB6F8949EBF0FBE8DBF8E2DDF91CF9113
:102B70001F910F91FF90EF90DF900895CF93DF9317
:102B8000D82F63E00E946515807CC82FC3608091B8
:102B900063038823B1F01F92CF931F92DF9386EDDA
:102BA0009BE09F938F938BE094E09F938F930E9481
:102BB000EF148DB79EB708960FB6F8949EBF0FBE60
:102BC0008DBF4C2F63E08D2FDF91CF910C941715A3
:102BD0000F931F93CF93DF93C82F162F809163031A
:102BE000833018F185E592E0662311F082E592E0EA
:102BF0001F9220E32F939F938F938C2F90E08F5BF6
:102C00009F4F9F938F938AEA9BE09F938F938BE0D4
:102C100094E09F938F930E94EF148DB79EB70A960E
:102C20000FB6F8949EBF0FBE8DBF64E08C2F0E943C
:102C30006515482F446064E08C2F0E94171563E0EF
:102C40008C2F0E946515082F4FEB63E08C2F0E949C
:102C5000171562E08C2F0E946515D82F482F406110
:102C600062E08C2F0E94171540EC11114CE067E0D8
:102C70008C2F0E9417154D2F62E08C2F0E94171584
:102C8000402F63E08C2FDF91CF911F910F910C9417
:102C900017154F925F926F927F928F929F92AF9291
:102CA000BF92CF92DF92EF92FF920F931F93CF9339
:102CB000DF93C82F042FB52EA62E972E64E00E9416
:102CC000651524E087FF21E030E050E040E060E05F
:102CD00072EC81E090E00E94123029013A01CA01B1
:102CE000B901202F3B2D4A2D592D0E941230690128
:102CF0007A0163E08C2F0E946515182F482F4068D9
:102D000063E08C2F0E9417154C2D60E08C2F0E94E1
:102D100017154D2D61E08C2F0E941715412F4F770D
:102D200063E08C2F0E941715A701960144275527B1
:102D3000C301B2010E9412303901842ED52F809137
:102D40006303823098F1CF5B9F92AF92BF920F9353
:102D50001F92CF9384E299E09F938F930BE014E04E
:102D60001F930F930E94EF14DF92CF921F92CF9385
:102D700082E099E09F938F931F930F930E94EF142B
:102D8000DF938F927F926F921F92CF9383EE98E0A2
:102D90009F938F931F930F930E94EF148DB79EB74D
:102DA0004C960FB6F8949EBF0FBE8DBFB301882D11
:102DB0009D2FDF91CF911F910F91FF90EF90DF90AA
:102DC000CF90BF90AF909F908F907F906F905F90CB
:102DD0004F900895FC0180819181009711F00C942F
:102DE000D02C60E070E0CB010895FC0180819181DE
:102DF000009711F00C94ED300895EF92FF920F932D
:102E00001F93CF93DF93EC017B018A018881998125
:102E1000009729F02A813B812417350788F4B801EF
:102E20006F5F7F4F0E947631009791F0998388837E
:102E30001B830A832C813D81232B11F4FC0110821A
:102E40001D830C83B701888199810E9469320CC06F
:102E500088819981009711F00E94ED3019821882C3
:102E60001D821C821B821A82CE01DF91CF911F919D
:102E70000F91FF90EF900895AF92BF92CF92DF92A3
:102E8000EF92FF920F931F93CF93DF93EC016B01AF
:102E90005A0179012417350720F48B2D5901E42EAE
:102EA000F82E198218821B821A821D821C8250E021
:102EB00040E061E572E0CE010E94FD16D601149655
:102EC0000D911C91A016B10628F5E016F10608F444
:102ED0008701D601ED91FC911197E00FF11FF08071
:102EE00010826D917C916A0D7B1D61157105F1F069
:102EF000FB0101900020E9F73197AF01461B570B0A
:102F0000CE010E94FD16F60180819181080F191FE4
:102F1000D801FC92CE01DF91CF911F910F91FF90CC
:102F2000EF90DF90CF90BF90AF9008958881998106
:102F3000009711F00E94ED30198218821D821C82C8
:102F40001B821A82E0CF1F93CF93DF93EC01162FE1
:102F50000E94C22F181739F0612FCE01DF91CF9157
:102F60001F910C94CA2FDF91CF911F9108950C945B
:102F7000C22FCF92DF92EF92FF920F931F93CF93C6
:102F80000E944A086B017C01C1E08BE094E00E9442
:102F9000B408892B09F09BC00E944A086C197D096E
:102FA0008E099F09683B7B4081059105A0F462E092
:102FB0008DE00E9489078DE00E943207892B09F07D
:102FC000C0E061E08DE00E9489076AE070E080E087
:102FD00090E00E9418080E944A080091BA031091DC
:102FE000BB032091BC033091BD03601B710B820BAE
:102FF000930B6D32714081059105A0F080E00E9435
:10300000320761E0892B09F060E080E00E945B07F5
:103010000E944A086093BA037093BB038093BC0379
:103020009093BD030E944A086C197D098E099F097F
:10303000693B7B408105910508F4A7CFCC2309F4B7
:10304000A4CF8FE090E00E94B717893009F49DCF9C
:1030500060E080E00E945B0769E08FE090E00E9402
:10306000A31785EF9BE00E9454140E944A08C09069
:10307000BA03D090BB03E090BC03F090BD036C1981
:103080007D098E099F09653671058105910568F3F3
:1030900080E00E94320761E0892B09F060E080E067
:1030A0000E945B078DE00E94320761E0892B09F0E6
:1030B00060E08DE00E945B070E944A086093BA03BB
:1030C0007093BB038093BC039093BD03CECFCF918D
:1030D0001F910F91FF90EF90DF90CF9008959F92F6
:1030E000AF92BF92CF92DF92EF92FF920F931F9316
:1030F000CF93DF9300D000D000D0CDB7DEB761E032
:1031000086E10E94890760E086E10E945B0761E03A
:1031100080E00E94890760E080E00E945B0762E037
:103120008DE00E9489078DE00E9432078C0161E0EA
:103130008DE00E94890761E08DE00E945B0762E0FC
:1031400081E00E94890761E081E00E94890761E0D7
:1031500081E00E945B0761E082E00E94890760E0F5
:1031600083E00E94890762E08EE00E94890761E0A7
:103170008EE00E94890761E08EE00E945B0711B833
:103180008FEF82B962E085E10E94890762E084E105
:103190000E94890762E083E10E94890762E082E180
:1031A0000E94890780E190E00E94B7178093520344
:1031B000833038F060E080E190E00E94A317109225
:1031C00052038FE090E00E94B717C12CF2ECDF2E83
:1031D000EE24E394F12C893050F4E82FF0E0EE0F68
:1031E000FF1FE15DFE4FC080D180F12CE12C60E437
:1031F0007BE48CE490E0A70196010E9412302150FC
:103200003109410951095695479537952795E09120
:103210001B04F0911C0482E08083211580E13807B3
:10322000A8F0E0911B04F0911C04108260EA75E2A2
:1032300086E290E0A70196010E94123021503109E8
:10324000410951095695479537952795E0911704FF
:10325000F09118043083E0911904F0911A0420834E
:1032600010922304E0911F04F091200486E08083F3
:10327000E0911D04F0911E04808188698083E091B3
:103280001D04F0911E0480818F7D80838AE098E088
:103290000E9454148BED97E00E9454140E94501425
:1032A00061E08CE00E94890761E08CE00E945B078E
:1032B00061E08BE00E94890760E08BE00E945B0781
:1032C00061E08FE00E94890760E086E10E945B0771
:1032D00086E00E94161261E086E10E945B0782E0B0
:1032E0000E941612F0905203F1100DC262E08AE0C3
:1032F0000E94890761E082E00E945B0761E087E14C
:103300000E94890760E087E10E945B0764E670E045
:1033100080E090E00E94180861E087E10E945B076E
:1033200064EF71E080E090E00E9418088DE090E08A
:103330000E94B717823028F061E08DE090E00E9493
:10334000A3178DE090E00E94B7178093F8028EE0FB
:1033500090E00E94B71780935803863038F060E001
:103360008EE090E00E94A3171092580310928903F8
:1033700010928803109297031092B903109295034C
:10338000FF24F394F092940310928D0361E081E1A5
:103390000E945B0761E080E10E945B078091B900B9
:1033A0008E7F8093B9008091B9008D7F8093B900A2
:1033B0008CE58093B80085E48093BC008EEB99E0A7
:1033C00090931A03809319038FEB99E090931E0357
:1033D00080931D0381E18093B80080E20E949C06E7
:1033E0000E94990681110FC0F092590380E20E9459
:1033F0009C068CE090E00E94330A85E090E00E94F9
:10340000330A0E94990688E40E949C060E9499064D
:10341000811190C045E567E00E94171567E080E0E4
:103420000E946515853509F085C04AEA67E080E0AD
:103430000E94171567E080E00E9465158A3A09F03E
:1034400079C045E567E081E00E94171567E081E0FB
:103450000E946515853509F06DC04AEA67E081E094
:103460000E94171567E081E00E9465158A3A09F00D
:1034700061C081E080934C036EE080E00E9465159E
:10348000482F48606EE080E00E94171562E080E0FF
:103490000E946515482F416062E080E00E94171588
:1034A00062E081E00E946515482F416062E081E0A2
:1034B0000E94171560E080E00E94E81561E080E05E
:1034C0000E94E81560E081E00E94E81561E081E07B
:1034D0000E94E81540EB54E060E070E080E00E945C
:1034E000491640EB54E060E070E081E00E9449162C
:1034F00080E00E94BE1581E00E94BE1562E080E07F
:103500000E946515482F426062E080E00E94171516
:1035100062E081E00E946515482F426062E081E030
:103520000E94171560E080E00E94651560E081E070
:103530000E9465158FE090E00E94B7178A3028F04E
:1035400069E08FE090E00E94A31784EC97E00E946E
:1035500039098091F802882309F4EEC088E592E0E9
:103560000E94D21380EC97E00E94541420915203E1
:1035700080E890E002C0880F991F2A95E2F79F9398
:103580008F938EEA97E09F938F938BE094E09F93C5
:103590008F930E94EF14809152030F900F900F9021
:1035A0000F900F900F90813009F0C9C082E997E029
:1035B0000E9439090E94501488E60E949C060E94CD
:1035C0009906811152C18EE893E00E94390981E089
:1035D0000E941D1486E492E00E94891489E693E01B
:1035E0000E94390980916403082E000C990B0E94F7
:1035F000A2138DE592E00E94891488E60E949C0641
:103600008FE090E00E94330A0E94990661E070E02A
:1036100088E690E00E94AB120E94B90687FF01C1C4
:1036200028E030E046E050E06AEB74E0CE0101961D
:103630000E943C17CE0101960E94EA1660938C030B
:10364000CE0101960E94F51625E030E043E050E0FF
:103650006AEB74E0CE0101960E943C17CE01019600
:103660000E94EA1660938B03CE0101960E94F51624
:1036700022E030E050E040E06AEB74E0CE010196D9
:103680000E943C17CE0101960E94EA1660938A03BD
:10369000CE0101960E94F51626E030E044E050E0AD
:1036A00064EB74E0CE0101960E943C17CE010196B6
:1036B0000E94EA1660936703CE0101960E94F516F8
:1036C00090E080E00E94CC06EFEBE80FE33108F0D9
:1036D0004DC00E2E000CFF0BE059F44E0C9434300C
:1036E000191CB61BB61B331CB61B171CB61BB61B0E
:1036F000B61BA51BB61BB61B231C311C2F1CB61BEF
:10370000B61BB61B2D1C61E08AE00E94890760E0B1
:103710008AE00E945B0781E08F1508F0EBCD60E046
:1037200082E00E945B0761E087E10E94890760E018
:1037300087E10E945B07FACD8AE592E011CF8230E3
:1037400009F038CF8CE597E033CF81E090E00E941C
:10375000CC06813609F467C082E090E00E94CC0676
:103760008E3609F062C086E0809366032BE030E07D
:1037700049E050E064EB74E0CE0101960E943C17F2
:10378000CE0101960E94EA1660936503CE01019670
:103790000E94F51681E593E00E94541486E293E0BE
:1037A0000E94390980E00E941D148BE193E00E9481
:1037B00039090E94B9178BE094E00E949208809327
:1037C000F602982F9F7D993511F09E3491F7682F5E
:1037D0008BE094E00E94EC080E9450148091F60265
:1037E0008F7D893589F440916503609166038091EE
:1037F00067030E94380A86EF92E00E94390981E04F
:103800000E941D140E94501488E60E949C068FE0BE
:1038100090E00E94330A88E090E00E94330A0E9400
:10382000990681E023C081E09FCF87E09DCF82E0B1
:103830009BCF82E090E00E94CC06823711F484E0B6
:1038400093CF88E091CF82E090E00E94CC0682374F
:1038500011F483E089CF85E087CF89E085CF8AE0C6
:1038600083CF8BE081CF8CE07FCF80E080934903D2
:1038700080915903882321F086E497E00E94541434
:1038800080914C03882321F088E297E00E94541431
:1038900081E197E00E9439098CE090E00E94B7171F
:1038A000823028F060E08CE090E00E94A3178CE06A
:1038B00090E00E94B717809348038823F9F08EE0C8
:1038C00097E00E9454140E944D0C0E944D0C8AE017
:1038D00090E00E94B7178093F702012B19F0853012
:1038E00008F409C18BE094E00E94B4081816190688
:1038F00044F48BE094E00E949208F4CF8AE097E0D1
:10390000E0CF0E9450148EED96E00E9454140E9465
:1039100050141091F702153008F0A6C08EEC96E016
:103920000E943909812F90E001960E94A21386E43B
:1039300092E00E94891410E384EC96E00E945414F3
:103940008AEB96E00E94541489EA96E00E943909B5
:10395000809158030E94D9138AE996E00E9454147A
:1039600080E996E00E94541481E796E00E943909AC
:103970008091F802882309F479C08AE592E00E94D8
:10398000D2138CE696E00E9454148FE496E00E94D5
:1039900039098091480381116CC08FE592E00E9443
:1039A000D21386E492E00E9489148FE296E00E948E
:1039B00039098FE090E00E94B717893008F05EC0A7
:1039C000E82FF0E0EE0FFF1FE15DFE4F6081718197
:1039D00090E080E04AE00E945E1386E492E00E945C
:1039E000891480914903882321F089E196E00E949F
:1039F000541486E096E00E94390980E190E00E942C
:103A0000B71720E830E002C0220F331F8A95E2F793
:103A10003F932F938DEF95E09F938F938BE094E0EE
:103A20009F938F930E94EF1486E492E00E94891482
:103A30000E94501488EE95E00E9439090F900F9073
:103A40000F900F900F900F900E94B9178BE094E0A9
:103A50000E9492088093F6028F33A9F48091630349
:103A60008F5F80936303F0CF11E366CF88E592E028
:103A700086CF8BE496E00E94390993CF60E072EC28
:103A800081E090E0A7CF803219F410926303DCCF7D
:103A90008117D4F28236C4F6682F8BE094E00E943E
:103AA000EC0883EE95E00E945414109163031123F7
:103AB00039F081ED95E00E943909812F0E94781438
:103AC0008091F602883309F454C10CF09EC086330D
:103AD00009F439C10CF043C1833309F4E1C06091AA
:103AE000F60261536093F702653008F001C58AE081
:103AF00090E00E94A3178091F702823051F48BE589
:103B000095E00E943909809158030E94D9130E94C0
:103B100050148091F702823009F49BC308F06BC304
:103B2000882309F47FC3813009F48AC361E080E00F
:103B30000E945B070091F1021091F202011511053C
:103B4000E9F0F090630390E080E00E94281283EC9B
:103B50000E945C12802F0E945C12812F0E945C12D6
:103B6000FF2061F083E495E00E943909B80190E0FC
:103B700080E040E10E945E130E9450148091F102A7
:103B80009091F2020E942812809163038823F1F041
:103B900085E295E00E9439096091ED027091EE0294
:103BA00090E080E04AE00E945E130E9450148FE093
:103BB00095E00E9439096091F1027091F20290E063
:103BC00080E040E10E945E130E9450148091F70251
:103BD000843008F054C40E944D0C882309F483C338
:103BE0000E944D0C8093EC02882309F47CC3609101
:103BF000EC02662329F050E040E080E00E9495143A
:103C00000E9460140E944D0CEBCF813409F488C2ED
:103C1000813609F485C2893309F061CF0E94F2121E
:103C20001092540387E594E00E94541488E294E0D3
:103C30000E9454143AE0F32E46EFE42EDD24D39490
:103C400086E294E00E94390980915403823009F49D
:103C500019C108F0FAC0882309F404C1813009F4BD
:103C60000AC10E94B9178BE094E00E949208082FC5
:103C70008093F602853709F423C1853509F420C104
:103C8000843709F43CC4843509F439C48D3049F7CC
:103C9000109154036DE08BE094E00E94EC0834C175
:103CA00081E794E00E9454148091580381508093DE
:103CB000F50206E08091F5028F5F602F0E94F22FDF
:103CC000192F9093F5028CEC95E00E943909812F11
:103CD0000E94D91389EB95E00E9439098BE094E0AA
:103CE0000E94B408181619062CF48BE094E00E9488
:103CF0009208F4CF8BE094E00E94B40818161906DD
:103D00001CF00E94B917F6CF8BE094E00E94920855
:103D10008093F6028D3011F08B3161F60E945014C1
:103D20000E9450148091F6028D3009F0D8CE609137
:103D3000F502609358038EE090E00E94A31783E39E
:103D40008093F602CCCE61E08091F802811160E0B0
:103D50006093F8028DE090E00E94A317C0CE61E06E
:103D600080914803811160E0609348038CE090E00B
:103D7000F3CF81E794E00E9454148FE090E00E941A
:103D8000B71781508093F5020AE08091F5028F5FAA
:103D9000602F0E94F22F192F9093F50284EB95E08B
:103DA0000E94390960E072EC81E090E0193051F036
:103DB000E12FF0E0EE0FFF1FE15DFE4F60817181AA
:103DC00090E080E04AE00E945E138FEA95E00E9456
:103DD00039098BE094E00E94B408181619062CF4F7
:103DE0008BE094E00E949208F4CF8BE094E00E9474
:103DF000B408181619061CF00E94B917F6CF8BE00C
:103E000094E00E9492088093F6028D3019F08B3175
:103E100009F0BBCF0E9450140E9450148091F6020A
:103E20008D3009F05CCE8FE090E00E94B717609172
:103E3000F502861709F459C38FE090E00E94A3179A
:103E400089E795E00E9454144ACE843091F150F1F4
:103E5000853009F006CF8AED93E00E943909809100
:103E60008C0306C08DE194E00E94390980916503BE
:103E70000E940D14F6CE83E194E00E9439098091EE
:103E80006603F6CF85E094E00E9439096DE08BE08F
:103E900094E00E94EC088CEF93E00E943909809135
:103EA0006703E6CF82EF93E00E94390980918A038D
:103EB000DFCF86EE93E00E94390980918B03D8CF43
:103EC00010915403123009F463C0E0F5112309F492
:103ED00049C0113009F451C0802F8F7D843509F01D
:103EE000AAC0123009F4C3C008F08DC0112309F430
:103EF0009BC0113009F4AFC06DE08BE094E00E94EC
:103F0000EC080D3009F09CCE1F5F1093540316305F
:103F100008F496CE40916503609166038091670333
:103F20000E94380A8AEC93E00E9454148DEA93E0D0
:103F30000E94390981E00E941D1486E492E00E94EB
:103F40008914CDCD143009F450C008F443C01530A5
:103F500019F680918C038F5F8C3308F051C08093E9
:103F60008C03BACF809165038F5F843618F48093F9
:103F70006503B2CF10926503AFCF809166038F5F68
:103F80008D3018F480936603A7CF10936603A4CFF7
:103F9000809167038F5F80936703E0916603E2304F
:103FA00089F490E020916503237049F42DE130E01D
:103FB000281739070CF090CFD09267038DCF2CE1F2
:103FC00030E0F6CFF0E0EE5DFE4F9081981708F0FC
:103FD00083CFF2CF80918A038F5F883118F480936A
:103FE0008A037ACF10928A0377CF80918B038F5FF9
:103FF0008C3318F480938B036FCF10928B036CCFAC
:1040000010928C0369CF143009F46EC008F45AC0C2
:10401000153009F071CF20918C03265F2C3308F006
:1040200075C020938C0307C020916503265F24365A
:1040300040F4209365036DE08BE094E00E94EC086F
:10404000FFCD822F6F2D0E94F22F8E9D200D112407
:104050002093650351CF809166038B3020F08A5006
:104060008093660349CF833030F7865FF9CF209184
:104070006703265F20936703422F50E0E0916603B9
:10408000F0E0EE5DFE4F808190E03091650333708B
:1040900061E070E011F070E060E0860F971F841718
:1040A00095074CF4822F6F2D0E94F22F8E9D200DCC
:1040B000112420936703809167038111BCCFD092B4
:1040C00067031ACF20918A03265F283118F42093C2
:1040D0008A03B1CF822F6F2D0E94F22F8E9D200D6B
:1040E000112420938A0308CF20918B03265F2C3361
:1040F00018F420938B039FCF822F6F2D0E94F22FF5
:104100008E9D200D112420938B03F6CE822F6F2DD0
:104110000E94F22F8E9D200D112420938C03ECCE53
:1041200081E794E00E94541480915203815080935F
:10413000F50283E0C82ED12C90E8A92EB12C09E617
:1041400015E02BE0E22E24E0F22E8091F5028F5F45
:1041500090E0B6010E94FE2F982E8093F50284E72E
:1041600095E00E943909C50102C0880F991F9A94F1
:10417000E2F79F938F931F930F93FF92EF920E940A
:10418000EF140F900F900F900F900F900F908BE007
:1041900094E00E94B408181619062CF48BE094E001
:1041A0000E949208F4CF8BE094E00E94B4081816A5
:1041B00019061CF00E94B917F6CF8BE094E00E941C
:1041C00092088093F6028D3019F08B3109F0BDCF43
:1041D0000E9450140E9450148091F6028D3009F014
:1041E0007ECC6091F5026093520380E190E00E94E2
:1041F000A31780E3A5CD833009F472C0843009F0A1
:1042000095CCE9E5F5E0859194919093F002809347
:10421000EF028AE692E09093EE028093ED0280E155
:104220009DEF48C082E692E09093F4028093F302FF
:104230001092F2021092F10281E08093510376CC49
:104240008EE692E09093F4028093F30280E091E096
:1042500031C080915803823091F170F4882311F1BC
:10426000813009F063CC84E892E09093F40280936B
:10427000F30280E890E01EC0843079F118F18530B7
:1042800009F054CC8EEA92E09093F4028093F3020A
:104290001092F2021092F10281E080935103809318
:1042A000500344CC8AE792E09093F4028093F302A7
:1042B00080EE91ED9093F2028093F10237CC8FE87B
:1042C00092E0C0CF8AE992E09093F4028093F302E7
:1042D0001092F2021092F10229CC86EA92E0F4CF19
:1042E00088EB92E0F1CF0091F3021091F4026FE8B5
:1042F00072E0C8010E946032892B31F0C8010E942F
:104300009A108093EC0210C085EC92E00E949A1003
:104310008111F4CF85EC92E09093F4028093F30244
:1043200060E08DE00E945B078091EC028823E9F059
:104330006091EC02662339F04091F3025091F4024F
:1043400081E00E9495140E9460140091F302109184
:10435000F402C8010E949A108093EC02833021F38A
:104360000E944D0C0E944D0CC9CF83EF94E00E9437
:1043700039098091F3029091F4020E94D2138EEEDB
:1043800094E00E943909CE0101960E949B0E082FED
:104390008981809347030093EC021092F5021091FB
:1043A000F50280914703181758F4E12FF0E0E2542A
:1043B000FC4F80810E945C121F5F1093F502EFCFCB
:1043C000803291F40023F9F24091F3025091F4020B
:1043D000602F82E00E9495140E94601460E070E0FB
:1043E000CB010E946B0F02C00111EECF8091EC0255
:1043F0008111C9CF8BEC94E00E94541460E086E1F7
:104400000E945B078091B6008F7D8093B6008091FB
:10441000B10081608093B1008091B100897F809369
:10442000B1008091B00082608093B0008091B000B4
:104430008E7F8093B0008091B00080648093B00044
:104440008091B0008F778093B0008091F8028093C4
:10445000B30061E08FE00E9489078EEA94E00E9439
:1044600054140E9450148BE094E00E94B408181673
:104470001906FCF48BE094E00E949208F4CF81EDE1
:1044800094E00E94390910E000E08091ED029091E3
:10449000EE020817190708F0ADCFE091EF02F09196
:1044A000F002E00FF11F84910E945C120F5F1F4F1A
:1044B000ECCF61E070E080E090E00E94180861E0DD
:1044C00086E10E945B0726960FB6F894DEBF0FBE0A
:1044D000CDBFDF91CF911F910F91FF90EF90DF90B3
:1044E000CF90BF90AF909F9008958CED8093F7028E
:1044F0008AE090E00E94B7178093F702FCCA1091FF
:104500005403EFCC1F920F920FB60F9211244F93CA
:104510005F936F937F938F939F9340915F0350912D
:104520006003609161037091620380915E039091DA
:104530005D03943019F510925D0390915D0390FD39
:1045400021C08A598D3728F08D574F5F5F4F6F4FCD
:104550007F4F80935E0340935F03509360036093AB
:104560006103709362039F918F917F916F915F912F
:104570004F910F900FBE0F901F9018959F5F9093D3
:104580005D03DBCF8959DECF1F920F920FB60F92DA
:1045900011240BB60F922F933F934F935F936F931A
:1045A0007F938F939F93AF93BF93EF93FF938BE092
:1045B00094E00E94CA08FF91EF91BF91AF919F9143
:1045C0008F917F916F915F914F913F912F910F90BC
:1045D0000BBE0F900FBE0F901F9018951F920F9259
:1045E0000FB60F9211240BB60F922F938F939F93B8
:1045F000EF93FF93E0911B04F0911C048081E09104
:104600002104F091220482FD1DC090818091240438
:104610008F5F8F7320912504821741F0E09124046D
:10462000F0E0E55FFB4F958F80932404FF91EF91BD
:104630009F918F912F910F900BBE0F900FBE0F90F7
:104640001F9018958081F2CF1F920F920FB60F9294
:1046500011240BB60F922F933F934F935F936F9359
:104660007F938F939F93AF93BF93EF93FF9380912B
:10467000B900887F803609F44DC008F040C0883208
:1046800009F4A9C028F5803109F49DC0C8F4882335
:1046900009F407C1883009F496C0FF91EF91BF91EA
:1046A000AF919F918F917F916F915F914F913F91CA
:1046B0002F910F900BBE0F900FBE0F901F9018956B
:1046C000883109F488C0803241F78093930314C085
:1046D000803409F4A5C040F48033B9F38833E9F697
:1046E0008093930385ECBCC0803509F489C088357C
:1046F00009F49EC0883489F60E948D09CECF88398E
:1047000009F494C038F5883729F050F4883611F050
:10471000803719F683E08093950310923F0357C0CA
:10472000883809F483C0803919F0803809F0B5CF92
:1047300080913F03803208F079C0E0913F0381E02F
:104740008E0F80933F038091BB00F0E0E15EFC4F51
:1047500080833DC0803B39F0E0F4803A09F485C0A5
:10476000883A09F09ACF84E08093950310921C0355
:1047700010921B03E0911903F0911A03099580919F
:104780001B0381110FC081E080931B031092F9027B
:1047900009C0803C09F4A6CF883C09F4A3CF883B2C
:1047A00009F07BCFE0911C0381E08E0F80931C0306
:1047B000F0E0E750FD4F80818093BB0090911C0397
:1047C00080911B0331C080918E038093BB0085ECE8
:1047D0008093BC0062CF9091900380918F039817D3
:1047E000B8F58091910390919203E091900321E0BC
:1047F0002E0F20939003E80FF92FF11D8081E5CF54
:104800002091910330919203E091900381E08E0F0B
:10481000809390038091BB00E20FF32FF11D808302
:104820009091900380918F03981788F285E8D0CFFC
:104830002091910330919203E091900381E08E0FDB
:10484000809390038091BB00E20FF32FF11D8083D2
:1048500080919403811150CF81E080938D0384EA8D
:104860008093BC001092950318CF85EC8093BC0018
:104870001092950380913F03803230F4E0913F0322
:10488000F0E0E15EFC4F108260913F0370E0E09148
:104890001D03F0911E038FE193E0099510923F03F1
:1048A000FCCE1092930328CFEF92FF920F931F93A9
:1048B000CF93DF930097C9F0EA018C012097B1F103
:1048C000E0904003F0904103E114F10479F1F80124
:1048D00081918F010E94110BF1E0EF1AF108F09223
:1048E0004103E09240032197E9CF4115510561054D
:1048F000710529F18091DE0383FD07C089E0440F33
:10490000551F661F771F8A95D1F788E50E94570BC0
:1049100081111DC08FEF0E94110B8EEF0E94110BB1
:1049200080E092E0909341038093400390E080E028
:10493000DF91CF911F910F91FF90EF900895DF913C
:10494000CF911F910F91FF90EF900C941B0B81E082
:1049500090E0EECF0F931F93CF93DF93C82F162FC6
:10496000D42F809163038330E0F01F924F931F9206
:104970006F938C2F90E08F5B9F4F9F938F9384E476
:1049800099E09F938F938BE094E09F938F930E9485
:10499000EF148DB79EB70A960FB6F8949EBF0FBE60
:1049A0008DBF63E08C2F0E946515082F4FEB63E0ED
:1049B0008C2F0E94171562E08C2F0E946515482FDE
:1049C0004F7311114064D111406862E08C2F0E9436
:1049D0001715402F63E08C2FDF91CF911F910F911E
:1049E0000C941715EBE0F4E01382128288EE93E04A
:1049F000A0E0B0E084839583A683B78329E132E009
:104A00003183208325EC30E03587248724EC30E0A7
:104A10003787268720EC30E0318B208B21EC30E08B
:104A2000338B228B22EC30E0358B248B26EC30E06C
:104A3000378B268B118E128E138E148EE8EAF4E0DB
:104A40001382128284839583A683B7838BE292E0DC
:104A500091838083EAEBF4E0118210821382128248
:104A60001582148248E050E061ED72E0CF010E94AF
:104A7000FD16E4EBF4E0118210821382128215829B
:104A800014824BE050E06AED72E0CF010C94FD1609
:104A9000CF93DF9300D0CDB7DEB7789484B5836031
:104AA00084BD85B5836085BD80916E0081608093F3
:104AB0006E0082E08093810080918100816080930C
:104AC0008100809180008160809380008091B1009E
:104AD00084608093B1008091B00081608093B000C9
:104AE000809191008360809391008091900081601B
:104AF0008093900087E880937A001092C1000E9412
:104B00006F1883E00E943207892B29F583E10E9408
:104B10003207892B09F0AFC482E10E943207F0B05E
:104B2000F0925C03882309F471C0F0921C0110928A
:104B30005B0310925A0360E08EE00E945B0760E026
:104B400080E00E945B0761E080E00E945B0761E01B
:104B50008EE00E945B0780911C018F3F09F053C0DB
:104B6000809151038823E1F0809146038823C1F0AE
:104B700080910B018823A1F08BE094E00E94B4089F
:104B8000181619066CF460E081E00E945B078091C2
:104B90004B03816080934B0310920B0110924603EC
:104BA00080915003882379F10E94C5070091420348
:104BB0001091430320914403309145036B017C0124
:104BC000C01AD10AE20AF30A20910F0130E0A8EEE0
:104BD000B3E00E94E32F6C157D058E059F0598F4C8
:104BE00060E081E00E945B0780914B0382608093CC
:104BF0004B030E94C5076093420370934303809365
:104C00004403909345030E9478097BCF80911C0157
:104C10008C3009F47AC108F051C0863009F40BC118
:104C200018F5833009F4E8C078F4882309F4D7C074
:104C3000813009F4DBC080911C018A3009F47BCFFC
:104C40008C3009F478CFCFC2843009F4E9C08530C4
:104C500091F780915903882309F4C5C280E20E942C
:104C60009C0690E080E0D2C0893009F4FAC080F45C
:104C7000873009F4EBC08830F1F68091590388231E
:104C800009F4B1C280E20E949C068DE090E0BEC0B3
:104C90008A3009F407C18B3071F6F0925503809188
:104CA0005603909157038115924008F028C1FFE107
:104CB000FF1508F428C110921001BDCF823109F40C
:104CC000A0C208F078C08F3009F491C280F48D3012
:104CD00009F467C28E3009F0AECF8F2D81708093BA
:104CE0005103F1FADD24D0F8D0925003A4CF8031E3
:104CF00009F482C2813109F09ECF80915903882343
:104D000009F471C281E080934E0311E0F11010E0CC
:104D100010934D0380E20E949C0682E190E00E9485
:104D2000330A110F012F0560802F90E00E94330A93
:104D30000E94990680E20E949C0690E080E00E941A
:104D4000330A88EF90E00E94330A0E94990680E2BD
:104D50000E949C0681E090E00E94330A90E080E08F
:104D60000E94330A0E94990680E20E949C068CE011
:104D700090E00E94330A8FEF90E00E94330A0E9475
:104D8000990680E20E949C0682E190E00E94330A2C
:104D9000612F616088EA94E00E94040A0E949906EB
:104DA0000093540380E20E949C0682E190E00E94FE
:104DB000330A602F2EC0823248F4803208F051C28C
:104DC000833109F038CFF0920E0135CF843208F4E8
:104DD0007BC28E3F09F02FCFF09263032CCF60E0AF
:104DE000F0FE61E08DE00E945B0725CF6F2D8BE028
:104DF00094E00E94EC081FCF80915903882309F4A6
:104E0000F2C180E20E949C0682E190E00E94330A97
:104E10006F2D88EA94E00E94040A0E9499060BCF45
:104E200080915903882309F4DEC180E20E949C0628
:104E300083E190E0EBCF80915903882309F4D3C13B
:104E400080E20E949C0681E090E0E0CF80915903CF
:104E5000882309F4C8C180E20E949C068CE090E09F
:104E6000D5CF23E680E12F15D0F080915803805DE7
:104E7000809313018F2D6AE00E94F22F90E3980F28
:104E80009093150160E3D62EDF0C36EF839FD00C94
:104E90001124D092160181E191E00E949A10809332
:104EA0001001C9CE80915A0390915B036F2D70E081
:104EB000009751F4709357036093560301969093B3
:104EC0005B0380935A03B7CE209156033F2D309356
:104ED000570320935603409155032115324040F467
:104EE000403248F4109210012FEF20931C01E6CFBE
:104EF00021E1403208F022E120931001F5CF2FE1AB
:104F000081E12F1560F682E1CACFC0905A03D0909C
:104F10005B03C114D10419F56091560370915703D6
:104F2000611532E07307D8F4809155038032B8F4EC
:104F300090911001911113C045E0660F771F4A95BB
:104F4000E1F7682B90E080E059E0660F771F881F3B
:104F5000991F5A95D1F70E946B0F80931001809191
:104F60001001811181C08C2D8F7180935403E82F23
:104F7000F0E0E254FC4FF0828F3109F075C00091EF
:104F8000090410910A04A12C85E00115110509F40A
:104F900058C0F801818180FFD9C086FD0AC086898A
:104FA0009789A08DB18D88279E7F868B978BA08F48
:104FB000B18FF801828D938DA48DB58D4689578967
:104FC000608D718D841B950BA60BB70B80329105FC
:104FD000A105B10520F080E290E0A0E0B0E07C0106
:104FE000B12CA12C3EEB232E33E0332EE114F1043F
:104FF00009F4AFC0F80186899789A08DB18D9C0115
:105000003170232B09F067C092809A94AC01BD01E6
:1050100029E076956795579547952A95D1F794227B
:10502000B1F5892B8A2B8B2B39F5668D778D80A175
:1050300091A1F801623071058105910520F5118279
:1050400081E0A092530380931001FFE1FA1508F468
:1050500082C083E1809310012FEFC21621E0D206B7
:1050600018F08FEF80931C01FFEFCF1ADF0AD09268
:105070005B03C0925A03DFCD62A173A184A195A105
:105080000E942B0ED6CF62A373A384A395A3F8012D
:1050900062A173A184A195A10E949F0A6115710567
:1050A0008105910511F4F801CACFAB01BC01490D8E
:1050B000511D611D711DF80146A357A360A771A77B
:1050C00090E080E00E945424F801892B09F0B7CFCA
:1050D000818180648183F80186899789917020E0BD
:1050E00032E0281B390B47012E153F0508F4490112
:1050F0002401712C612CB301A401C1010E9454242C
:10510000F801892B09F09BCF86899789A08DB18DF5
:10511000840D951DA61DB71D868B978BA08FB18F13
:10512000280C391CE818F908A80CB91C2C01F1E06E
:105130005F22452809F05ACF0E941B0BF801892BEA
:1051400009F07DCF81818F7B818350CFA12C84E0BA
:1051500078CF80E076CF3FEFC31631E0D30608F476
:1051600083CF81117ECF85E00115110569F0F8012B
:10517000818180FF14C086FF0CC00E941B0B892B0D
:1051800041F0F801118281E01092530380931001E5
:1051900068CFF80181818F7B818380E0F5CF84E047
:1051A000F3CF2EE02F15F8F011E01F0DF11001C024
:1051B00010E0612F609561708CE00E945B07612FA9
:1051C00062708BE00E945B0700915203002359F04C
:1051D000612F64708AE00E945B07612F687087E12D
:1051E000023008F000CE8FEF80931C01A4CCFF208A
:1051F000D1F3F0920F011FCD8F2D817080934F035B
:105200001ACD80914E03882371F380E20E949C06A0
:1052100083E190E00E94330A6F2D88EA94E00E94B7
:10522000040A0E94990610914D03110F80E20E941A
:105230009C0682E190E00E94330A612F6C6F88EA3D
:1052400094E00E94040A0E9499061D6F1093540373
:1052500080E20E949C0682E190E00E94330A612F66
:10526000D8CD90914C03992309F4E5CC11E080321C
:1052700009F410E0809163038330F0F080EE8F0D2D
:105280008F3500F58F2D1F928F931F92FF92812FE4
:1052900090E08F5B9F4F9F938F938DEC99E09F934E
:1052A0008F938BE094E09F938F930E94EF140FB63F
:1052B000F894DEBF0FBECDBF4F2D60E0812F0E945E
:1052C0001715B9CC8EE2DFCF90914C03992309F4E6
:1052D000B2CCBB24B394823209F4B12C0F2D10E070
:1052E00076E0159507957A95E1F75F2D5F71D52EDC
:1052F00090916303923000F1823209F081C08FE017
:105300009BE09F938F936BE0E62E64E0F62EFF9276
:10531000EF920E94EF1480915C031F928F9387E1BC
:105320009BE09F938F93FF92EF920E94EF140FB632
:10533000F894DEBF0FBECDBF8B2D90E0FC01E45F83
:10534000FE4F7F0180818F71D81651F1E0915C038F
:10535000EF7124E0E29FF0011124EF53FE4F9080A3
:10536000A180C280D38080916303823098F0DF9265
:10537000CF92AF929F9244EF5AE05F934F938BE0AE
:1053800094E09F938F930E94EF140FB6F894DEBFC2
:105390000FBECDBF492D5A2DB6018B2D0E94491647
:1053A000F701808190E056E0959587955A95E1F751
:1053B0000817190701F180916303823008F4C3C212
:1053C0001F930F9322EE3AE03F932F934BE0C42EAE
:1053D00044E0D42EDF92CF920E94EF140F900F90F2
:1053E0000F900F900F900F900130110511F10CF0FC
:1053F000B3C2012B41F080915C03F70180831BCC89
:1054000087E09BE07ECF80916303823060F088ED7F
:105410009AE09F938F93DF92CF920E94EF140F90A8
:105420000F900F900F9040E060E08B2D0E94AA2417
:10543000E2CF809163038230B0F322EC3AE03F93F5
:105440002F938BE094E09F938F93E7CF809163033A
:10545000823070F083EB9AE09F938F938BE094E01F
:105460009F938F930E94EF140F900F900F900F90C7
:1054700041E061E0DACF84E10E943207892B09F034
:1054800047C282E10E94320710925C03882309F42C
:1054900046C080916303823070F00E9450148AE904
:1054A0009AE00E9439098AE89AE00E9439098091BD
:1054B0004B030E9478148FEF80935C038BE094E0A1
:1054C0000E94B4081816190634F58BE094E00E9487
:1054D000920880935C0310924A0361E081E00E948D
:1054E0005B0780914B038E7F80934B0381E0809319
:1054F0000B011FEF11B980915C0382B960E08EE06F
:105500000E945B0760E080E00E945B070E94F0065B
:1055100011B812B918CB81E080934A03DECF809195
:105520001C01883809F46FC110F5833809F4ABC049
:1055300088F4813809F480C008F09AC0803809F4F2
:105540005FC080911C018D7F843899F28FEF80932A
:105550001C01CFCF853809F4FDC008F4BEC08638E1
:1055600009F4FBC0873869F70E944D0C7EC0843A6D
:10557000F0F5823A08F086C18A3809F463C108F46C
:1055800047C1803AF0F290914C03992309F478C115
:1055900011E0803A09F410E060E0812F0E94651567
:1055A000082F809163038330F8F080EE800F8F35F1
:1055B00008F064C1802F1F928F931F920F93812F49
:1055C00090E08F5B9F4F9F938F93EDEEF9E0FF93F9
:1055D000EF938BE094E09F938F930E94EF140FB6AC
:1055E000F894DEBF0FBECDBF00935C03AACF863A0E
:1055F00008F46FC18E3F09F0A4CF8091630335C0DA
:105600008DE00E943207182F8093540362E08DE0F2
:105610000E9489078DE00E94320721E0892B09F062
:1056200020E020935C0361E08DE00E948907612FF8
:105630008DE00E945B0785CF80915903882309F490
:1056400085CF80E20E949C0682E190E00E94330AAE
:105650000E94990680E20E949C0661E070E080E270
:1056600090E00E94AB120E94B90680935C0369CF60
:1056700080915903882309F469CF80E20E949C0637
:1056800083E190E0E3CF0091490310E0000F111F88
:10569000F09048038BE094E00E94B40834E01816C0
:1056A00019060CF030E080914A0328E0811101C016
:1056B00020E080914F03F0E18F9FC0011124082B5F
:1056C000F02A0091520340E4049F80011124F02A43
:1056D000F32AF22AF0925C0334CF809149038823A5
:1056E000A9F100915A0310915B030115110569F4AA
:1056F0000E94F21280918C0380935C030F5F1F4F16
:1057000010935B0300935A031CCF07301105F0F48C
:10571000809166030430110579F368F480918A035F
:105720000230110549F3809167030330110521F31D
:1057300080918B03E1CF8091650305301105E1F283
:105740008091640306301105B9F2F2CF8FEF809398
:105750001C01F7CE8091100188CF00915A0310915F
:105760005B030115110519F56091560370915703FC
:10577000611552E07507D8F4809155038032B8F472
:1057800090911001911113C095E0660F771F9A95C3
:10579000E1F7682B90E080E029E0660F771F881F13
:1057A000991F2A95D1F70E946B0F80931001809169
:1057B000100181111DC0802F8F71F82E809354032A
:1057C00081110FC0CE0101960E949B0E998190938A
:1057D00047039032B0F08093100180911001811145
:1057E00007C0EF2DF0E0E254FC4F808180935C0312
:1057F0000F3F91E0190708F481CF8FEF80931C01D0
:105800007DCF83E1E8CF8BE094E00E9483082DCF29
:1058100080914B0380935C0310924B038091630350
:10582000823008F493CE0E9450148CE79AE00E94D4
:1058300039098FE69AE00E94390980915C030E9441
:1058400078147FCE80914E03882309F47FCE80E2C6
:105850000E949C0682E190E00E94330A0E94990611
:1058600080E20E949C0661E070E080E290E00E948D
:10587000AB120E94B906887F8160F7CE8EE29BCE84
:105880008AE1F3CE90914C03992309F111E0823A19
:1058900009F410E069E0812F0E946515082F8091BE
:1058A0006303843008F4A0CE1F920F93812F90E001
:1058B0008F5B9F4F9F938F938CE09AE09F938F9382
:1058C0008BE094E09F938F930E94EF1488CE80E446
:1058D000CCCE90914C039923D1F311E0843A09F492
:1058E00010E068E0812F0E946515082F8091630306
:1058F000843008F479CE1F920F93812F90E08F5B54
:105900009F4F9F938F934BE25AE05F934F93D8CF73
:1059100061E081E00E945B0780916303823070F058
:105920000E9450148AE59AE00E9439098AE49AE0BC
:105930000E94390980914B030E9478141FEF11B91E
:1059400080910E01DACD0130110509F472CD24F4F5
:10595000012B09F468CD4FCD0230110509F476CD45
:105960000330110509F047CD80916303823008F4BC
:1059700042CD28EA3AE03F932F938BE094E09F9347
:105980008F930E94EF140F900F900F900F9033CDD4
:1059900084EB94E00E94F5168AEB94E00C94F516E3
:1059A0001F93FC0199278827BC01E89411911032BC
:1059B000E9F3193010F01E30C8F31B3251F01D32DC
:1059C00049F4689406C00E94F72C610F711D811D77
:1059D000911D119110531A30B0F33EF490958095BB
:1059E000709561957F4F8F4F9F4F1F910895592F4D
:1059F000482F372F262F660F771F881F991F660F96
:105A0000771F881F991F620F731F841F951F660FD2
:105A1000771F881F991F0895CF93DF93EC018B8127
:105A200088608B83CE010E941B2D2B81277F2B83C7
:105A3000DF91CF9108952F923F924F925F926F9294
:105A40007F928F929F92AF92BF92CF92DF92EF920E
:105A5000FF920F931F93CF93DF93CDB7DEB72B97B2
:105A60000FB6F894DEBF0FBECDBF7C013B018A01AB
:105A7000FC0117821682838181FFDDC1CE01019670
:105A80005C01F7019381F30193FD859193FF81916F
:105A90003F01882309F453C1853239F493FD859180
:105AA00093FF81913F01853229F4B70190E00E9474
:105AB000342FE7CF912C212C312CFFE1F31538F056
:105AC0008B3211F190F4803209F1833229F137FCE5
:105AD0003CC020ED280F2A3050F536FE20C08AE069
