:020000040000FA
:100000000C94C1050C94EB050C94EB050C94EB05DA
:100010000C94EB050C94EB050C94EB050C94EB05A0
:100020000C94EB050C94EB050C94EB050C94EB0590
:100030000C94EB050C94EB050C94EB050C94EB0580
:100040000C94EB050C94EB050C94FE210C94EB0541
:100050000C9465220C943B220C94EB050C94EB055C
:100060000C94EB050C94EB050C949B220C94EB0583
:100070000C94EB050C94EB050C94EB050C94EB0540
:100080000C94EB050C94EB050C94EB053110FD2161
:1000900052FDCDC6FECD3EFFCDF4FD3EFFBC20108F
:1000A000BD200D21D9FDCDC6FE2188FDCDC6FE7631
:1000B000E521D9FDCDC6FE2175FDCDC6FEE1CD4BB6
:1000C000FFCD3EFFCD3EFFDB01FEFF20FAE9694C8C
:1000D0006F6164202D20496E74656C2D4865782011
:1000E0004C6F61646572202D2053323030373138C7
:1000F000005374617274696E672041646472657341
:10010000733A20004C6F6164206572726F72202D0B
:100110002053797374656D2068616C746564005751
:10012000616974696E6720696E707574207374728A
:1001300065616D2E2E2E0053796E74617820657284
:10014000726F722100436865636B73756D20657211
:10015000726F722100694C6F61643A2000416464DF
:10016000726573732076696F6C6174696F6E2100BC
:10017000F5D5C501FFFF21A3FDCDC6FECD3EFFCDC8
:1001800072FFFE0D28F9FE0A28F5FE2028F1CD1A8F
:10019000FFCD69FFFE3AC2A3FECDE1FE571E00CDA2
:1001A000BEFECDD6FE3EFFB82005B92002444D7CF0
:1001B000CDBEFE7DCDBEFECDE1FECDBEFEFE01205C
:1001C0001ECDE1FECDBEFE7BA72866CD3EFF21D928
:1001D000FDCDC6FE21C9FDCDC6FE01FFFF18527A36
:1001E000A7282CCDE1FECDBEFEE5C5A701F0FCEDB4
:1001F00042C1E1DA8EFECD3EFF21D9FDCDC6FE2102
:10020000E1FDCDC6FE01FFFF182777231518D0CDDD
:10021000E1FECDBEFE7BA720B2CD3EFFC303FECDE7
:100220003EFF21D9FDCDC6FE21BBFDCDC6FE01FF9F
:10023000FFCD3EFF6069C1D1F1C9C54F7B915F79A8
:10024000C1C9F5E57EFE002806CD69FF2318F5E15A
:10025000F1C9F5CDE1FE67CDE1FE6FF1C9C5CDF481
:10026000FECB07CB07CB07CB0747CDF4FEB0C1C908
:10027000CD72FFCD1AFFCD06FF30F5CD23FFCD2E79
:10028000FFC9FE47D0FE3030023FC9FE3AD8FE41DA
:1002900030023FC937C9FE61D8FE7BD0E65FC9FE98
:1002A0003A3802D607D630E60FC9F5E60FC630FE5B
:1002B0003A3802C607CD69FFF1C9F53E0DCD69FF99
:1002C0003E0ACD69FFF1C9E5F57CCD58FF7DCD58DB
:1002D000FFF1E1C9F5C5470F0F0F0FCD2EFF78CD08
:1002E0002EFFC1F1C9F53E01D301F1D300C9DB01F5
:1002F000FEFFCA72FFC9494F533A2052544320733C
:10030000657420617420636F6D70696C6520746919
:100310006D65202D204E6F773A2000293F205B59D4
:100320002F4E5D203E000A446F20796F7520776163
:100330006E74207365742052544320617420494FB9
:100340005320636F6D70696C652074696D6520283A
:1003500000494F533A2052544320636C6F636B2023
:100360006661696C7572652100494F533A20525499
:1003700043204453333233312074656D70657261AC
:10038000747572652073656E736F723A2000494F01
:10039000533A20466F756E642052544320445333C1
:1003A000323331204D6F64756C65202800494F53FE
:1003B0003A2052544320646174652F74696D65203E
:1003C00075706461746564202800202E2E2E646F81
:1003D0006E652020202020200A005365636F6E6424
:1003E00073202D3E20004D696E75746573202D3E7F
:1003F0002000486F757273202D3E200020446179E3
:10040000202D3E20002020202020202020202020E1
:100410002020004D6F6E7468202D3E2000596561CC
:1004200072202D3E200020000A5072657373205404
:100430002F5520746F20696E6372656D656E742030
:100440002B31302F2B31206F7220435220746F20BC
:10045000616363657074000A494F533A20525443F4
:10046000206D616E75616C2073657474696E673A96
:10047000000D0A507265737320435220746F20611F
:1004800063636570742C2045534320746F20657836
:100490006974206F7220616E79206F7468657220B4
:1004A0006B657920746F206368616E676500494FE2
:1004B000533A205A38302069732072756E6E696E17
:1004C000672066726F6D206E6F770020446F6E65D7
:1004D00000494F533A204C6F6164696E6720626F28
:1004E0006F742070726F6772616D2E2E2E00292E30
:1004F0002E2E00494F533A204C6F6164696E67207D
:10050000626F6F742070726F6772616D2028008C4B
:1005100000494F533A2043757272656E742000256E
:1005200064204B42797465730D000D202D3E00430D
:1005300068616E6765642073706565642077696CB7
:100540006C20626520656666656374697665206106
:1005500066746572206E657874207265626F6F7460
:10056000210D0A0A002020200D000D202D3E002024
:10057000202020202020202020202020202020207B
:100580000D000D202D3E003F566572626F73697439
:1005900079206C6576656C200020204F6B00456EDD
:1005A00074657220796F75722063686F6963652066
:1005B0003E200025644B42797465730020413A2047
:1005C0005365742052414D2D73697A6520280020AF
:1005D000393A20536574205254432074696D652F55
:1005E000646174650020383A205365742073657225
:1005F00069616C20706F7274207370656564202867
:10060000004F46460020373A20546F67676C6520DC
:1006100043502F4D204175746F6578656320282DF8
:100620003E004D487A290020363A204368616E67C3
:1006300065205A383020636C6F636B20737065657A
:100640006420282D3E0020353A20694C6F616400FB
:100650000D0A20343A204175746F626F6F74002068
:10066000333A204C6F61642F736574204F53200020
:1006700020323A20466F7274680020313A2042617D
:100680007369630020303A204E6F206368616E67A3
:1006900065202800494F533A2053656C65637420E8
:1006A000626F6F74206D6F6465206F722073797351
:1006B00074656D20706172616D65746572733A0066
:1006C0004F4646004F4E00494F533A2043502F4D5E
:1006D000204175746F657865632069732000494F08
:1006E000533A20466F756E642053494F41202F20A6
:1006F00053494F42204F7074696F6E00494F533A0F
:1007000020466F756E6420475045204F7074696FA6
:100710006E0020284354532C205254532075736587
:10072000642061732042414E4B322C2042414E4B9B
:1007300033207369676E616C2C2043453220696EEB
:1007400076657274656429002028435453207573BC
:1007500065642061732042414E4B32207369676E9D
:10076000616C2900494F533A2025644B42797465E6
:10077000732052414D004D487A00494F533A205A58
:10078000383020636C6F636B207365742061742054
:1007900000533232303731382D523239303832331B
:1007A0002D44323631323235202D204465632032DB
:1007B0003620323032352031363A34353A33300053
:1007C0000D0A0A5A38302D4D424332202D20413037
:1007D0003430363138202D2041546D656761313217
:1007E0003834202D203234204D487A00494F533A76
:1007F00020436865636B20534420616E64207072EF
:100800006573732061206B657920746F2072657049
:100810006561740D0A00202D2046696C653A200040
:10082000206F7065726174696F6E005245414400BB
:100830004F50454E004D4F554E5400206F6E2000D6
:10084000554E4B4E4F574E004E4F5F46494C455309
:10085000595354454D004E4F545F454E41424C450F
:1008600044004E4F545F4F50454E4544004E4F5F3D
:1008700046494C45004E4F545F524541445900444F
:1008800049534B5F455252000D0A494F533A20538A
:1008900044206572726F7220003F3F53494F2563B9
:1008A0003A2041637475616C206261756472617491
:1008B000653A2025640D0A003F3F53494F25633AAE
:1008C0002043616C63756C6174656420646976694A
:1008D000736F723A2025640D0A003F3F53494F253C
:1008E000633A20446573697265642062617564725D
:1008F0006174653A2025640D0A003F3F3F53494F1C
:1009000025633A205365744175746F48616E647352
:1009100068616B652025642C2025640D0A003F3F2B
:100920003F3F3F53494F25633A205265616452650A
:100930006769737465722030782530325820282515
:100940007329207265733D3078253032580D0A00C6
:100950003F3F3F3F3F53494F25633A2057726974E9
:100960006552656769737465722030782530325836
:1009700020282573292076616C3D30782530325847
:100980000D0A003F3F3F53494F25633A2057726994
:10099000746542797465203078253032582025639B
:1009A0000D0A003F3F3F53494F25633A205265618E
:1009B0006442797465203078253032582025630DE3
:1009C0000A003F3F3F3F53494F25633A205278206A
:1009D0004649464F204C6576656C3A2025640D0AE1
:1009E000003F3F3F3F53494F25633A20547820460C
:1009F00049464F2053706163653A2025640D0A0013
:100A000072657365727665640D0A006175746F2096
:100A10005254532F4354530D0A006175746F20587C
:100A20006F6E2F586F666620284E5949290D0A00AF
:100A300064697361626C650D0A00202D2068616E27
:100A4000647368616B653A2025642000202D206264
:100A5000617564726174653A20256C640D0A003F0B
:100A60003F53494F423A003F3F53494F413A0020DC
:100A700073657420636F6E74726F6C3A20307825E2
:100A80003032580000002100240027002A00000016
:100A90002200250028002B00000020002300260053
:100AA00029000202020202020202040404040404F5
:100AB0000404030303030303030301010101010110
:100AC00001010102040810204080010204081020E6
:100AD0004080010204081020408001020408102018
:100AE00040800000000203000A0B00000000050423
:100AF00009080000000000000000000000000000E5
:100B000000003F3F3F53494F25633A204649464F37
:100B1000536574547269676765724C6576656C28B5
:100B200025735F4649464F3A2026640D0A003F531D
:100B3000494F25633A204C435220526567697374CC
:100B400065723A203078253032780D0A000D0A0A95
:100B5000494F533A2042617564207265636F766530
:100B6000727920646F6E65202D20506C656173650D
:100B7000207265626F6F74206E6F772100006924A8
:100B80003E2C11241FBECFEFD0E4DEBFCDBF24E04A
:100B9000A6EEB2E001C01D92A33CB207E1F712E05D
:100BA000A0E0B1E0E6EEF3E600E00BBF02C0079084
:100BB0000D92A63EB107D9F715E0C0ECD5E004C010
:100BC0002197FE010E94AA2FCF3BD107C9F70E94AF
:100BD000BF240C94E6310C940000282F9091B803A8
:100BE00081E0913208F042C0809194038111FCCFE2
:100BF0008091B70332E030939403209393032FEF57
:100C00002093920327E933E03093910320939003DC
:100C100010928F0390938E0310928D0390918D0309
:100C2000880F892B80938D0380918C03813029F567
:100C300010928C0380918D038093BB008091BC0047
:100C400083FDF8CF85EC8093BC00809194038230C3
:100C5000E1F3809192038F3F91F080919203803273
:100C600081F080919203803371F084E010929603BA
:100C70001092B80310929503089585EEE4CF80E0BA
:100C8000F5CF82E0F3CF83E0F1CF81E00C94ED0566
:100C900091E0909395038093B7031092960310927E
:100CA000B803089590918803809187032FEF3FEF59
:100CB000981748F4E92FF0E0E959FC4F208130E023
:100CC0009F5F90938803C901089590918803809154
:100CD00087032FEF3FEF981748F4E92FF0E0E95929
:100CE000FC4F208130E09F5F90938803C9010895F5
:100CF0002091B7043091B8048217930760F42091D3
:100D0000B3043091B4042115310529F0280F391F9F
:100D1000F9018081089580E00895FB01A485B585DF
:100D2000ED91FC9111970190F081E02D682FCD019C
:100D3000099590E080E0089587E090E00197F1F751
:100D4000089582508A3088F5E82FF0E0E655F94F93
:100D50000C94AA2FD206D606B406BA06D506D50636
:100D6000BE06C406C806CE06809180008F778093A9
:100D700080000895809180008F7DF9CF8091B00030
:100D80008F778093B00008958091B0008F7DF9CF68
:100D9000809190008F7780939000089580919000CB
:100DA0008F7DF9CF84B58F7784BD089584B58F7D0D
:100DB000FBCFCF93DF93282F30E0F901EE51F54FB1
:100DC0008491F901EE53F54FD491F901EE55F54FA9
:100DD000C491CC23A1F081110E94A106EC2FF0E078
:100DE000EE0FFF1FE856F54FA591B491EC91ED235E
:100DF00081E090E009F480E0DF91CF91089580E0F8
:100E000090E0FACF1F93CF93DF93282F30E0F901C2
:100E1000EE51F54F8491F901EE53F54FD491F9015C
:100E2000EE55F54FC491CC23A9F0162F81110E94E5
:100E3000A106EC2FF0E0EE0FFF1FE257F54FA59152
:100E4000B4918FB7F894EC91111108C0D095DE23BE
:100E5000DC938FBFDF91CF911F910895DE2BF8CFE8
:100E6000CF93DF9390E0FC01EE53F54F24918E5524
:100E7000954FFC0184918823C9F090E0880F991F59
:100E8000FC01EC57F54FA591B491FC01E257F54FE9
:100E9000C591D49161110DC09FB7F8948C912095A4
:100EA00082238C938881282328839FBFDF91CF9151
:100EB0000895623051F49FB7F8943C91822F809549
:100EC00083238C93E8812E2BEFCF8FB7F894EC918E
:100ED0002E2B2C938FBFEACFCF92DF92EF92FF920F
:100EE0006FB7F89480915E0390915F03A0916003C7
:100EF000B091610350915D0326B535B3432F417026
:100F000030FF04C041E02F3F09F440E06FBF6C01A7
:100F10007D0137E0CC0CDD1CEE1CFF1C3A95D1F7AF
:100F2000C50ED11CE11CF11CC81AD90AEA0AFB0A39
:100F3000880F991FAA1FBB1FC81AD90AEA0AFB0A01
:100F400063E0CC0CDD1CEE1CFF1C6A95D1F730E091
:100F5000AAEAB2E00E94592F672F782F892F99278C
:100F60006C0D7D1D8E1D9F1D442321F066557D4F08
:100F70008F4F9F4FFF90EF90DF90CF9008958F920B
:100F80009F92AF92BF92CF92DF92EF92FF924B016E
:100F90005C010E946C076B017C010E946C076C195C
:100FA0007D098E099F09683E734081059105A8F36C
:100FB00021E0821A9108A108B10888EEC80E83E0EA
:100FC000D81EE11CF11C81149104A104B10429F77D
:100FD000FF90EF90DF90CF90BF90AF909F908F9059
:100FE00008952FB7F89460915E0370915F0380912C
:100FF0006003909161032FBF0895AF92BF92CF928B
:10100000DF92EF92FF920F931F93CF93DF936C01C8
:101010007B018B01040F151FEB015E01AE18BF08A9
:10102000C017D10759F06991D601ED91FC9101905B
:10103000F081E02DC6010995892B79F7C501DF9173
:10104000CF911F910F91FF90EF90DF90CF90BF90C5
:10105000AF900895FC01538D448D252F30E0842FEF
:1010600090E0821B930B541710F0CF9608950197D0
:101070000895FC01918D828D981761F0A28DAE0FBD
:10108000BF2FB11D5D968C91928D9F5F9F73928F44
:1010900090E008958FEF9FEF0895FC01918D828D70
:1010A000981731F0828DE80FF11D858D90E008953D
:1010B0008FEF9FEF0895FC01918D228D892F90E095
:1010C000805C9F4F821B91098F73992708958AE056
:1010D00094E00E945B0821E0892B09F420E0822F34
:1010E0000895FC01A48DA80FB92FB11DA35ABF4FBD
:1010F0002C91848D90E001968F739927848FA68917
:10110000B7892C93A089B1898C91837080648C936A
:10111000938D848D981306C00288F389E02D808119
:101120008F7D80830895EF92FF920F931F93CF934B
:10113000DF93EC0181E0888F9B8D8C8D98131AC012
:10114000E889F989808185FF15C09FB7F894EE89F9
:10115000FF896083E889F989808183708064808356
:101160009FBF81E090E0DF91CF911F910F91FF90A1
:10117000EF900895F62E0B8D10E00F5F1F4F0F7349
:101180001127E02E8C8D8E110CC00FB607FCFACF04
:10119000E889F989808185FFF5CFCE010E94710829
:1011A000F1CFEB8DEC0FFD2FF11DE35AFF4FF082D5
:1011B0009FB7F8940B8FEA89FB8980818062CFCF3B
:1011C0000F931F93CF93DF938C01D0E0C0E0F80121
:1011D000EC0FFD1F6491662341F08AE094E00E94C9
:1011E0009308892B11F02196F2CFCE01DF91CF9198
:1011F0001F910F910895CF93DF93EC01888D882381
:10120000B9F0AA89BB89E889F9898C9185FD03C069
:10121000808186FD0DC00FB607FCF7CF8C9185FF4E
:10122000F2CF808185FFEDCFCE010E947108E9CF1A
:10123000DF91CF91089585ED8093BC008091BC0033
:1012400084FDFCCF10929403089520911B03260F78
:101250003327331F21323105ECF420919403FC0134
:1012600090E080E0243069F082E00895A0911B03B3
:101270002191AC0147505D4FA40FB52FB11D2C93A8
:101280000196861798F380911B03680F60931B03E8
:1012900080E0089581E00895089508950895E0910B
:1012A000880380918703E81730F4F0E0E959FC4F98
:1012B000808190E008958FEF9FEF089580918703DC
:1012C00090918803891B990B0895CF92DF92EF923A
:1012D000FF920F931F93CF93DF937C01CB018A0181
:1012E00020919503222389F0EB016B01C40ED51EDA
:1012F000CC15DD0569F06991D701ED91FC91019064
:10130000F081E02DC7010995F3CF642F0E942509D4
:10131000C801DF91CF911F910F91FF90EF90DF9067
:10132000CF900895CF93DF931F92CDB7DEB7698337
:10133000209195032223F9F02091B803203258F030
:1013400021E030E0FC013383228390E080E00F90C5
:10135000DF91CF91089580919603E82FF0E0E95650
:10136000FC4F998190838F5F809396038093B8039D
:1013700081E090E0ECCF61E0CE0101960E9425096A
:10138000F7CF682F87EA94E00C9492090F931F938C
:10139000CF93DF93082F162FD42F88E60E9448069C
:1013A00090E080E00E94C10980918B03CAE06C2F1D
:1013B0000E94682F8295807F682F690F87EA94E0EA
:1013C0000E94920980918A036C2F0E94682F829557
:1013D000807F682F690F87EA94E00E9492098091CC
:1013E00089036C2F0E94682F8295807F682F690F78
:1013F00087EA94E00E94920981E090E00E94C1098E
:10140000802F6C2F0E94682F8295807F682F690F34
:1014100087EA94E00E949209812F6C2F0E94682F26
:101420008295807F682F690F87EA94E00E94920975
:101430008D2F6C2F0E94682F8295807F682F690FF7
:1014400087EA94E00E949209DF91CF911F910F915A
:101450000C94450690E080E008950F931F93E0916F
:101460000804F09109049B01AC01225031094109A3
:10147000510986819781A085B1850297A109B1099B
:10148000281739074A075B0778F4A281B0E00E9469
:101490004E2F0289138924893589600F711F821F9D
:1014A000931F1F910F91089560E070E0CB01F9CF79
:1014B0000F931F93CF93DF93EC01E0910804F09119
:1014C0000904198218826C817D818E819F8161302F
:1014D00071058105910581F106811781208531858E
:1014E000601771078207930738F56115710581054B
:1014F000910539F42081233021F466857785808930
:101500009189688779878A879B876115710581052D
:10151000910569F00E942D0A6C877D878E879F87D1
:1015200090E080E0DF91CF911F910F910895668543
:10153000778580899189F0CF81E090E0F3CF8EBDEF
:101540000DB407FEFDCF08958FEF0E949F0A8EB560
:1015500008950F931F93CF93DF93C0914003D091D1
:1015600041032197CD3F8FEFD80721F080E00E9403
:101570009F0AF7CF0E94A40A8F71853079F0D1E0DD
:10158000C0E061E084E00E9402070E94A40A8D2F5F
:101590009C2FDF91CF911F910F91089508E813E1DF
:1015A000C8E5D2E00E94A40A8F3F49F00115110559
:1015B00031F3CE010197F1F701501109F3CFD1E0DA
:1015C000C0E0012BF1F2D0E0DCCFFF920F931F932C
:1015D000CF93DF93C82FD42F152F062FF72E80918E
:1015E000DD0381113FC083E58CBD1DBCC7FF09C071
:1015F00040E050E0BA0187E70E94E50A823060F5DA
:10160000CF7761E084E00E9402070E94A40A60E0B4
:1016100084E00E9402070E94A40A8C2F0E949F0A65
:101620008F2D0E949F0A802F0E949F0A812F0E9467
:101630009F0A8D2F0E949F0A85E9C03421F087E818
:10164000C83409F081E00E949F0ACAE00E94A40AFF
:1016500087FF02C0C150D1F7DF91CF911F910F9149
:10166000FF90089580E58CBD81E08DBDBFCFCF9206
:10167000DF92EF92FF920F931F93CF93DF937C0142
:1016800069018091DD0383FD07C089E0440F551F88
:10169000661F771F8A95D1F781E50E94E50A8111BF
:1016A00008C0C0E4DCE90E94A40A8F3F29F4219716
:1016B000D1F7C1E0D0E022C08E3FD9F7C2E0D2E03E
:1016C000C01BD10BCC19DD0981E0C81AD10818F074
:1016D0000E94A40AF9CFE114F10401F10E0D1F1DBF
:1016E0000E94A40AF70181937F010E171F07C1F71B
:1016F0000E94A40A2197E1F7D0E0C0E061E084E015
:101700000E9402070E94A40ACE01DF91CF911F918F
:101710000F91FF90EF90DF90CF9008950E94A40A60
:1017200001501109D9F7E4CFCF92DF92EF92FF92E7
:101730000F931F93CF93DF93EC016A017B0102E0CB
:1017400010E02EEF31E00E94370B892B31F58881B4
:10175000998185359A4A59F526E330E0B701A6010B
:10176000CE010E94370B892B29F488819981863418
:10177000914489F002E010E022E530E0B701A601D3
:10178000CE010E94370B892BA1F481E02881398199
:101790002634314419F480E001C083E0DF91CF9119
:1017A0001F910F91FF90EF90DF90CF90089582E00E
:1017B000F5CF81E0F3CF4F925F926F927F928F923D
:1017C0009F92AF92BF92CF92DF92EF92FF920F93D0
:1017D0001F93CF93DF93CDB7DEB7A4970FB6F894DE
:1017E000DEBF0FBECDBF1092090410920804809195
:1017F000DD03882339F084E00E94D906892B11F497
:101800000E94A90A61E084E00E94020761E084E08E
:101810000E94300761E085E00E94300761E087E0C8
:101820000E94300761E084E00E94300783E58CBDB0
:101830001DBC61E084E00E9402071AE00E94A40A35
:101840001150E1F740E050E0BA0180E40E94E50A5F
:10185000182F813009F441C010E01093DD0361E0DE
:1018600084E00E9402070E94A40A82E090E0112313
:10187000E9F040E050E0BA01CE0101960E94940BDD
:10188000C12CD12C7601813009F096C000E110E026
:101890002EEB31E040E050E0BA01CE0101960E940B
:1018A000370B892B09F478C081E090E0A4960FB63D
:1018B000F894DEBF0FBECDBFDF91CF911F910F9186
:1018C000FF90EF90DF90CF90BF90AF909F908F9060
:1018D0007F906F905F904F9008954AEA51E060E0EA
:1018E00070E088E40E94E50A813091F5CE0101960E
:1018F0007C016E0195E0C90ED11C87010E94A40AEB
:10190000F80181938F01CE16DF06C1F78B818130FC
:1019100009F0A2CF8C818A3A09F09ECF80E1C82ECF
:1019200087E2D82E98E5A92E92E0B92E40E050E04B
:1019300060E070E489EE0E94E50A882309F4C9C0DA
:10194000C5010197F1F7F1E0CF1AD10879F784CFFB
:1019500040E050E0BA0189EE0E94E50A01E48230DD
:1019600010F412E009EEA0E1EA2EA7E2FA2EB8E5A3
:10197000CB2EB2E0DB2E40E050E0BA01802F0E9477
:10198000E50A882309F4BBC0C6010197F1F7F1E02D
:10199000EF1AF10881F760CF8D81811103C086E0D5
:1019A00090E084CFC984DA84EB84FC84B701A6017B
:1019B000CE0101960E94940B833009F475CF8111FA
:1019C000EECF04E210E02DE030E0B701A601CE0139
:1019D00001960E94370B892B09F066CF2A853B853B
:1019E00050E040E0211531054105510521F4288DD5
:1019F000398D4A8D5B8DAC81B0E00E944E2F4B013A
:101A00005C014A815B8170E060E0C40ED51EE61E79
:101A1000F71EC092E803D092E903E092EA03F09245
:101A2000EB03E981E093E0038D819E819093E303D2
:101A30008093E2030F81188530E020E00115110545
:101A40002105310521F40C891D892E893F89F4E097
:101A500096958795FA95E1F72C01712C612C041B62
:101A6000150B260B370BC901B801681979098A09CA
:101A70009B0964197509860997092E2F30E050E0FB
:101A800040E00E94882FDA01C9010296A11DB11D14
:101A90008093E4039093E503A093E603B093E703F8
:101AA000265F3F40410951092F3F3F4E41055105F7
:101AB00088F1873F9F4FA105B10588F570CF82E07F
:101AC0008093DE03D501C4018C0D9D1DAE1DBF1D8D
:101AD0002DC040E050E0BA018AE70E94E50A81117A
:101AE000BBCE0E94A40AF70181937F010E171F0746
:101AF000C1F789811CE086FDB0CE14E0AECE40E097
:101B000052E060E070E080E50E94E50A882309F475
:101B1000A4CEA2CE873F9F4FA105B10580F283E0FE
:101B20008093DE0388A199A1AAA1BBA18093EC03B5
:101B30009093ED03A093EE03B093EF03C40CD51C78
:101B4000E61CF71C8C0C9D1CAE1CBF1C8092F00385
:101B50009092F103A092F203B092F3031092DF038C
:101B60008EED93E0909309048093080490E080E068
:101B70009DCE0F931F93CF93DF9300D000D0CDB7AE
:101B8000DEB7623071058105910528F461E070E0EF
:101B900080E090E055C0E0910804F09109040681CE
:101BA000178120853185601771078207930770F7C9
:101BB000AB01BC018081823031F1833039F79A0169
:101BC0002F773327220F331F220F331F97E076958D
:101BD0006795579547959A95D1F782859385A48502
:101BE000B585480F591F6A1F7B1F04E010E0CE0126
:101BF00001960E94370B892B49F669817A818B8186
:101C00009C819F701DC09A013327220F331F452FDF
:101C1000562F672F772782859385A485B585480F32
:101C2000591F6A1F7B1F02E010E0CE0101960E943F
:101C3000370B892B09F0AACF69817A8190E080E087
:101C40000F900F900F900F90DF91CF911F910F91F8
:101C500008956F927F928F929F92AF92BF92CF9290
:101C6000DF92EF92FF920F931F93CF93DF93C09178
:101C70000804D0910904FC0111821082209709F414
:101C8000AFC0298120FFAFC00A8D1B8D2C8D3D8DEB
:101C90004E895F89688D798D68017901C41AD50AEA
:101CA000E60AF70AB701A601403251056105710540
:101CB00020F040E250E060E070E05C017A013DEB32
:101CC000832E33E0932E612C42E0742EE114F10454
:101CD00009F48CC08E899F89A88DB98DAC01BD0196
:101CE000517066277727452B462B472B09F04AC0B2
:101CF000DA80DA94AC01BD0129E0769567955795B5
:101D000047952A95D1F7D42251F5892B8A2B8B2B15
:101D1000D9F46E8D7F8D88A199A1623071058105FE
:101D20009105C8F4198281E090E0DF91CF911F9175
:101D30000F91FF90EF90DF90CF90BF90AF909F906A
:101D40008F907F906F9008956AA17BA18CA19DA137
:101D50000E94B90DE2CF6AA37BA38CA39DA36AA1C5
:101D60007BA18CA19DA10E942D0A611571058105A1
:101D70009105C1F26D0D711D811D911D6EA37FA393
:101D800088A799A72E893F893170C301821B930BC5
:101D900067018E159F0508F46C014EA15FA168A52F
:101DA00079A58601C4010E94370B892B09F0BACFAF
:101DB0008E899F89A88DB98D8C0D9D1DA11DB11D8A
:101DC0008E8B9F8BA88FB98F8C0C9D1CEC18FD08F7
:101DD000F50180819181C80ED91ED182C08276CF53
:101DE00085E090E0A2CF84E090E09FCF90E080E09B
:101DF0009CCF4F925F926F927F928F929F92AF9201
:101E0000BF92CF92DF92EF92FF92CF93DF9300D0F9
:101E100000D000D0CDB7DEB720910804309109047E
:101E20003E832D832115310509F40CC1D90111968A
:101E30002C91119720FF09C15A96CD90DD90ED901D
:101E4000FC905D976C157D058E059F0510F46B0168
:101E50007C01ED81FE8146885788608C718C168AE2
:101E6000178A108E118EC114D104E104F10409F413
:101E7000E6C08280912CB12CA12C39E0880C991CF1
:101E8000AA1CBB1C3A95D1F741145104610471049A
:101E900009F470C0B1E04B1A510861087108C7011C
:101EA000B6016150710981099109A50194010E944F
:101EB000882F29833A834B835C83C301B201A50138
:101EC00094010E94882F89819A81AB81BC818217FD
:101ED0009307A407B50708F44DC088279927DC01AC
:101EE00088199909AA09BB0984219521A621B7213E
:101EF000ED81FE81868B978BA08FB18FC81AD90A8E
:101F0000EA0AFB0A62A173A184A195A18C149D0425
:101F1000AE04BF0408F058C00E94B90D62307105CC
:101F20008105910568F0AD81BE8116964D905D905A
:101F30006D907C901997641575058605970540F19D
:101F4000ED81FE81118281E090E026960FB6F89433
:101F5000DEBF0FBECDBFDF91CF91FF90EF90DF903E
:101F6000CF90BF90AF909F908F907F906F905F9039
:101F70004F900895AD81BE815E966D917D918D915A
:101F80009C919197FD0162A373A384A395A3BECFF7
:101F9000AD81BE8192966D937D938D939C93959721
:101FA00056964D905D906D907C905997480C591CB9
:101FB0006A1C7B1CFD01468A578A608E718EC81888
:101FC000D908EA08FB08A2CFAD81BE8156968D9054
:101FD0009D90AD90BC905997C80CD91CEA1CFB1C75
:101FE000FD01C68AD78AE08EF18E0E942D0AAB01D0
:101FF000BC01411551056105710529F4AD81BE8112
:1020000011961C92A0CFED81FE8182818150990BA7
:10201000092E000CAA0BBB0B29E0F694E794D79489
:10202000C7942A95D1F78C219D21AE21BF21480F5D
:10203000591F6A1F7B1F46A357A360A771A790E093
:1020400080E083CF85E090E080CF84E090E07DCF9A
:102050004F925F926F927F92BF92CF92DF92EF92F8
:10206000FF920F931F93CF93DF93CDB7DEB7EC971B
:102070000FB6F894DEBF0FBECDBFE0900804F0901D
:102080000904E114F10409F404C1F70111829E016D
:102090002F5C3F4F3CA32BA39C016901F901808178
:1020A0002F5F3F4F8032C9F38F3209F469011DA2BF
:1020B0001EA21FA218A6F6018081A0E2BA2E8032CD
:1020C00008F0D4C0CE0181960E94580A1982009768
:1020D00009F407C1EC960FB6F894DEBF0FBECDBF72
:1020E000DF91CF911F910F91FF90EF90DF90CF90F4
:1020F000BF907F906F905F904F90089520E0E0E058
:1021000088E0D1C0C30ED11C81E0913208F080E09C
:102110001B968C93CE0181960E94580A0097D1F6A7
:1021200029A13AA12F703327F5E0220F331FFA952A
:10213000E1F74DA55EA56FA578A900E210E0CE01FC
:1021400001960E94370B892B19F081E090E0C2CFF5
:102150008981811103C083E090E0BCCF8C8583FD31
:1021600013C00BA11CA19E012F5F3F4FD801B801E6
:10217000655F7F4F6A177B0709F4AEC0F901419193
:102180009F019D914917B1F309A11AA10F5F1F4F3C
:1021900011F38DA59EA5AFA5B8A90097A105B1051E
:1021A000D1F298012F703327232BB9F40196A11D8A
:1021B000B11D8DA79EA7AFA7B8AB69A57AA58BA5C2
:1021C0009CA5F701611571058105910549F484818C
:1021D00095810817190708F0BECF1AA309A3A0CF4D
:1021E0002281E22FE150FF0BAF019801E4E0369528
:1021F0002795EA95E1F724233523232B71F70E94D5
:10220000B90D623071058105910508F49ECFF70183
:10221000468057806084718464157505860597052E
:1022200008F099CF69A77AA78BA79CA70E942D0ACF
:102230006DA77EA78FA798ABD0CF84FF8CCFF70177
:1022400080818330F1F48D899E89B0E0A0E0DC01CB
:10225000992788274B8D5C8D70E060E0842B952B4F
:10226000A62BB72B8DA39EA3AFA3B8A7ABA1BCA1F0
:10227000FD01CD010B968E179F0709F43FCFB19258
:10228000FACF80E090E0DC01E5CF80E090E0DC0177
:102290003DC085E090E01ECF883009F033CF9BE051
:1022A000282FE32F892F31E03E0FEC0DFD2DF11D7E
:1022B0009081913208F426CF9F3209F423CF9E32C9
:1022C00059F3281708F01ECFFD01E20FF11D90838E
:1022D000982F81E0820FE4CFF8019385992309F4C8
:1022E000ACCF8981882309F436CF8C8584FD33CF28
:1022F000E0910804F09109048081833031F68D89E2
:102300009E89B0E0A0E0DC01992788274B8D5C8D89
:1023100070E060E0842B952BA62BB72BF701868FFE
:10232000978FA0A3B1A38D8D9E8DAF8DB8A1828F05
:10233000938FA48FB58F168A178A108E118E81E025
:10234000818390E080E0C6CECF93DF93D82FC0E0AA
:1023500061E08FE00E94020760E08FE00E940207C8
:10236000CF5FDC13F5CFDF91CF9108951F93CF930B
:10237000DF93182FD92F81E00E94A41161E0809192
:102380005103823009F060E082E00E940207CFEF43
:10239000C1B981E282B982E00E94A41111B8C2B928
:1023A00082E00E94A411C1B912B983E00E94A41175
:1023B000D2B982E00E94A41111B8C2B961E0809143
:1023C0005103823009F460E082E0DF91CF911F91E8
:1023D0000C940207CF93DF93D82F81E00E94A411C1
:1023E00061E080915103823009F060E082E00E9458
:1023F0000207CFEFC1B986E382B982E00E94A4113F
:1024000011B8C2B982E00E94A411C1B9D2B982E068
:102410000E94A41111B8C2B9C091510361E0C23049
:1024200009F460E082E00E94020783E00E94A411A8
:1024300081E00E94A41161E0C23009F060E082E016
:102440000E940207CFEFC1B983E282B982E00E9405
:10245000A41111B8C2B961E080915103823009F42E
:1024600060E082E00E94020783E0DF91CF910C944C
:10247000A4118AE094E00E945B08181619069CF4E7
:1024800080915003813079F480910B01882359F0B9
:1024900060E081E00E94020780914903816080939F
:1024A000490310920B0108950E94670881110E9450
:1024B000391280E090E0892B49F080E090E0892B90
:1024C00029F00E94000081110C9400000895AC01D5
:1024D000809194038111FCCF962F81E08093940327
:1024E000809393032FEF2093920327E633E03093FA
:1024F00091032093900310928F032FEF260F2093C8
:102500008E0380938D0320918D03440F551F822FDE
:10251000842B80938D0380918C038130E9F4109299
:102520008C0380918D038093BB008091BC0083FD60
:10253000F8CF85EC8093BC00809194038130E1F367
:1025400080918F03861710F490918F031092880367
:1025500090938703892F089585EEECCFCF9388E67B
:102560000E94480690E080E00E94C1090E94450652
:1025700062E170E088E690E00E9467120E946506C2
:10258000982F92959770CAE08F709C9F800D1124B0
:1025900080938B030E946506982F92959F708F7091
:1025A0009C9F800D112480938A030E946506982FBA
:1025B000929593708F709C9F800D11248093890356
:1025C0000E9465060E946506982F92959F708F70F5
:1025D0009C9F800D1124809366030E946506982FAE
:1025E00092959F708F709C9F800D1124809365033E
:1025F0000E946506982F92959F708F709C9F800D0A
:102600001124809364030E946506C150E1F70E9483
:10261000650680936303CF910895FC01019000202B
:10262000E9F73197AF01481B590BBC018AE094E0F0
:102630000C94FD078F929F92AF92BF920F931F93BE
:10264000CF93DF93CDB7DEB7A1970FB6F894DEBF77
:102650000FBECDBF19A2423008F44AE08E010F5DD3
:102660001F4F842E912CB12CA12CA50194010E9406
:10267000882FE62FB901CA01EA30F4F4E05DD801F1
:10268000EE938D01232B242B252B79F790E080E00E
:10269000109719F0CD010E940D13A1960FB6F89472
:1026A000DEBF0FBECDBFDF91CF911F910F91BF90C5
:1026B000AF909F908F900895E95CE1CFCF92DF9229
:1026C000EF92FF92CF93DF936C01990FEE08FF0812
:1026D000F7FE19C06DE28AE094E00E949308EC01D5
:1026E00066277727CB016C197D098E099F094AE07F
:1026F0000E941A138C0F9D1FDF91CF91FF90EF90D6
:10270000DF90CF9008954AE0C701B601DF91CF91E5
:10271000FF90EF90DF90CF900C941A13009711F078
:102720000C940D1390E080E008951F93CF93DF93F6
:1027300000D0CDB7DEB7182F88E392E00E948E1349
:10274000612F70E090E080E04AE00E941A13105D73
:102750001093020180E091E00E942810CE010196C2
:102760000E94290E898180934603882361F082E4C8
:1027700092E00E948E138DEB93E00E948E1385E40D
:1027800092E00E948E130F900F90DF91CF911F91D6
:102790000895CF93C82F8A3020F488E492E00E94F5
:1027A0008E136C2F70E090E080E04AE0CF910C94A3
:1027B0001A1381110E94AE1287E492E00E948E13D8
:1027C000809164030E94C9138AE492E00E948E13F0
:1027D000809165030E94C9138AE492E00E948E13DF
:1027E000809166030E94C91380E492E00E948E13D8
:1027F000809189030E94C9138CE492E00E948E1399
:1028000080918A030E94C9138CE492E00E948E1387
:1028100080918B030C94C9138EE492E00C940D13F9
:10282000CF93DF930E94E008EC010E940C148C0F00
:102830009D1FDF91CF9108958AE094E00E945B088C
:10284000181619062CF48AE094E00E943908F4CF97
:102850008CEE97E00E9410148AE094E00E945B08DE
:1028600018161906CCF70895CF93DF930E940D1325
:10287000EC010E940C148C0F9D1FDF91CF910895E5
:102880000F931F93CF93DF93D82FC62F8A0188E829
:1028900098E00E94E0086C2F70E090E080E04AE051
:1028A0000E941A1382E492E00E948E138DE698E053
:1028B000C330C1F058F48FE798E0C13099F085E754
:1028C00098E0C23079F080E498E00CC086E598E0AA
:1028D000C53041F082E698E0C53020F088E498E009
:1028E000C63089F70E94E0088BE398E00E94E00878
:1028F00080E398E0D13031F085E398E0D23011F4F4
:102900008BE298E00E94E00880E298E00E94E008F4
:102910000115110539F086E198E00E94E008C80130
:102920000E948E1385E492E0DF91CF911F910F9169
:102930000C943414CF93DF93CDB7DEB72E970FB638
:10294000F894DEBF0FBECDBF8DE896E09A878987E9
:102950001C861B8682E08C838AE094E09E878D87AC
:10296000AE01495E5F4F6D897E89CE0101960E945E
:10297000822C2E960FB6F894DEBF0FBECDBFDF912E
:10298000CF910895FF920F931F93CF93DF93F42E6F
:10299000062F10E0C82FD0E080916203853020F12F
:1029A0001F924F93C801880F991F880F991F805855
:1029B0009E4F9F938F931F926F93CE018F5B9F4F7C
:1029C0009F938F9380E599E09F938F938AE094E0A3
:1029D0009F938F930E949A148DB79EB70C960FB653
:1029E000F8949EBF0FBE8DBF88E40E944806C801C0
:1029F00023E0880F991F2A95E1F7CC0FDD1F8C2B60
:102A00009D2B0E94C1096F2D87EA94E00E949209D4
:102A100081E0DF91CF911F910F91FF900C94ED0514
:102A2000DF92EF92FF920F931F93CF93DF93C82F04
:102A3000D62E88E40E9448060D2D10E0D0E09801C3
:102A400093E0220F331F9A95E1F7CE01880F991F6B
:102A5000822B932B0E94C10980E00E94ED0561E06A
:102A600070E088E490E00E9467120E9465067C0195
:102A700080916203853020F1C70199279F938F933E
:102A8000000F111F000F111F005C1E4F1F930F93AB
:102A90001F92DF92CF5BDF4FDF93CF938EE199E000
:102AA0009F938F938AE094E09F938F930E949A1450
:102AB0008DB79EB70C960FB6F8949EBF0FBE8DBF14
:102AC0008E2DDF91CF911F910F91FF90EF90DF90AE
:102AD0000895CF93DF93D82F63E00E941015807C78
:102AE000C82FC360809162038823B1F01F92CF93F7
:102AF0001F92DF938EE29BE09F938F938AE094E096
:102B00009F938F930E949A148DB79EB708960FB625
:102B1000F8949EBF0FBE8DBF4C2F63E08D2FDF91C9
:102B2000CF910C94C2140F931F93CF93DF93C82FB0
:102B3000162F80916203833018F184E592E06623BA
:102B400011F081E592E01F9220E32F939F938F93E2
:102B50008C2F90E08F5B9F4F9F938F9382E09BE041
:102B60009F938F938AE094E09F938F930E949A148F
:102B70008DB79EB70A960FB6F8949EBF0FBE8DBF55
:102B800064E08C2F0E941015482F446064E08C2F65
:102B90000E94C21463E08C2F0E941015082F4FEB87
:102BA00063E08C2F0E94C21462E08C2F0E941015EB
:102BB000D82F482F406162E08C2F0E94C21440EC55
:102BC00011114CE067E08C2F0E94C2144D2F62E07F
:102BD0008C2F0E94C214402F63E08C2FDF91CF9185
:102BE0001F910F910C94C2144F925F926F927F923B
:102BF0008F929F92AF92BF92CF92DF92EF92FF920D
:102C00000F931F93CF93DF93C82F042FB52EA62EBB
:102C1000972E64E00E94101524E087FF21E030E049
:102C200050E040E060E072EC81E090E00E94882F8C
:102C300029013A01CA01B901202F3B2D4A2D592DF6
:102C40000E94882F69017A0163E08C2F0E94101581
:102C5000182F482F406863E08C2F0E94C2144C2D1F
:102C600060E08C2F0E94C2144D2D61E08C2F0E94D9
:102C7000C214412F4F7763E08C2F0E94C214A7012A
:102C8000960144275527C301B2010E94882F3901BC
:102C9000842ED52F80916203823098F1CF5B9F9272
:102CA000AF92BF920F931F92CF938AED98E09F93BC
:102CB0008F930AE014E01F930F930E949A14DF92FF
:102CC000CF921F92CF9388EB98E09F938F931F939F
:102CD0000F930E949A14DF938F927F926F921F92AC
:102CE000CF9389E998E09F938F931F930F930E944E
:102CF0009A148DB79EB74C960FB6F8949EBF0FBE30
:102D00008DBFB301882D9D2FDF91CF911F910F9122
:102D1000FF90EF90DF90CF90BF90AF909F908F90FB
:102D20007F906F905F904F900895FC01808191811A
:102D3000009711F00C94462C60E070E0CB010895F0
:102D4000FC0180819181009711F00C94633008950B
:102D5000EF92FF920F931F93CF93DF93EC017B01D0
:102D60008A0188819981009729F02A813B81241763
:102D7000350788F4B8016F5F7F4F0E94EC300097F1
:102D800091F0998388831B830A832C813D81232BB7
:102D900011F4FC0110821D830C83B7018881998195
:102DA0000E94DF310CC088819981009711F00E9448
:102DB0006330198218821D821C821B821A82CE0106
:102DC000DF91CF911F910F91FF90EF900895AF92F7
:102DD000BF92CF92DF92EF92FF920F931F93CF9308
:102DE000DF93EC016B015A0179012417350720F4B8
:102DF0008B2D5901E42EF82E198218821B821A821B
:102E00001D821C8250E040E060E572E0CE010E942D
:102E1000A816D60114960D911C91A016B10628F59E
:102E2000E016F10608F48701D601ED91FC911197A7
:102E3000E00FF11FF08010826D917C916A0D7B1D77
:102E400061157105F1F0FB0101900020E9F7319760
:102E5000AF01461B570BCE010E94A816F6018081D8
:102E60009181080F191FD801FC92CE01DF91CF91FB
:102E70001F910F91FF90EF90DF90CF90BF90AF9098
:102E8000089588819981009711F00E94633019821A
:102E900018821D821C821B821A82E0CF1F93CF935F
:102EA000DF93EC01162F0E94382F181739F0612F8D
:102EB000CE01DF91CF911F910C94402FDF91CF91E4
:102EC0001F9108950C94382FCF92DF92EF92FF92CA
:102ED0000F931F93CF930E94F1076B017C01C1E018
:102EE0008AE094E00E945B08892B09F09BC00E9455
:102EF000F1076C197D098E099F09683B7B408105AC
:102F00009105A0F462E08DE00E9430078DE00E9400
:102F1000D906892B09F0C0E061E08DE00E943007FE
:102F20006AE070E080E090E00E94BF070E94F10735
:102F30000091B9031091BA032091BB033091BC03F7
:102F4000601B710B820B930B6D32714081059105F3
:102F5000A0F080E00E94D90661E0892B09F060E0D2
:102F600080E00E9402070E94F1076093B90370930A
:102F7000BA038093BB039093BC030E94F1076C19C2
:102F80007D098E099F09693B7B408105910508F405
:102F9000A7CFCC2309F4A4CF8FE090E00E94621762
:102FA000893009F49DCF60E080E00E94020769E06B
:102FB0008FE090E00E944E178DE49BE00E94101479
:102FC0000E94F107C090B903D090BA03E090BB0310
:102FD000F090BC036C197D098E099F096536710557
:102FE0008105910568F380E00E94D90661E0892B94
:102FF00009F060E080E00E9402078DE00E94D9069F
:1030000061E0892B09F060E08DE00E9402070E94D8
:10301000F1076093B9037093BA038093BB03909355
:10302000BC03CECFCF911F910F91FF90EF90DF9017
:10303000CF9008959F92AF92BF92CF92DF92EF927E
:10304000FF920F931F93CF93DF9300D000D000D057
:10305000CDB7DEB761E086E10E94300760E086E12F
:103060000E94020761E080E00E94300760E080E09B
:103070000E94020762E08DE00E9430078DE00E940E
:10308000D9068C0161E08DE00E94300761E08DE09F
:103090000E94020762E081E00E94300761E081E067
:1030A0000E94300761E081E00E94020761E082E057
:1030B0000E94300760E083E00E94300762E08EE00B
:1030C0000E94300761E08EE00E94300761E08EE0F0
:1030D0000E94020711B88FEF82B962E085E10E9479
:1030E000300762E084E10E94300762E083E10E94E1
:1030F000300762E082E10E94300780E190E00E94A8
:10310000621780935103833038F060E080E190E0F3
:103110000E944E17109251038FE090E00E946217B8
:10312000C12CF2ECDF2EEE24E394F12C893050F424
:10313000E82FF0E0EE0FFF1FE25DFE4FC080D18070
:10314000F12CE12C60E87DE88BE590E0A701960189
:103150000E94882F21503109410951095695479500
:1031600037952795E0911A04F0911B0482E0808343
:10317000211580E13807A8F0E0911A04F0911B04B2
:10318000108260EC76EC8DE290E0A70196010E943F
:10319000882F215031094109510956954795379596
:1031A0002795E0911604F09117043083E0911804FC
:1031B000F0911904208310922204E0911E04F091F2
:1031C0001F0486E08083E0911C04F0911D0480813F
:1031D00088698083E0911C04F0911D0480818F7DBB
:1031E000808380EC97E00E94101481E997E00E94B0
:1031F00010140E940C1461E08CE00E94300761E022
:103200008CE00E94020761E08BE00E94300760E0E2
:103210008BE00E94020761E08FE00E94300760E0CF
:1032200086E10E94020786E00E94A41161E086E127
:103230000E94020782E00E94A411F0905103F11055
:103240000DC262E08AE00E94300761E082E00E94E5
:10325000020761E087E10E94300760E087E10E9499
:10326000020764E670E080E090E00E94BF0761E042
:1032700087E10E94020764EF71E080E090E00E9425
:10328000BF078DE090E00E946217823028F061E075
:103290008DE090E00E944E178DE090E00E94621752
:1032A0008093F8028EE090E00E94621780935703AB
:1032B000863038F060E08EE090E00E944E17109269
:1032C000570310928803109287031092960310926E
:1032D000B80310929403FF24F394F0929303109296
:1032E0008C0361E081E10E94020761E080E10E94BD
:1032F00002078091B9008E7F8093B9008091B90058
:103300008D7F8093B90080E78093B80085E4809337
:10331000BC008CE499E090931A03809319038DE428
:1033200099E090931E0380931D0386E18093B8007B
:1033300080E20E9448060E94450681110FC0F0926B
:10334000580380E20E9448068CE090E00E94C10988
:1033500085E090E00E94C1090E94450688E40E9431
:1033600048060E944506811190C045E567E00E942D
:10337000C21467E080E00E941015853509F085C011
:103380004AEA67E080E00E94C21467E080E00E94A1
:1033900010158A3A09F079C045E567E081E00E949E
:1033A000C21467E081E00E941015853509F06DC0F8
:1033B0004AEA67E081E00E94C21467E081E00E946F
:1033C00010158A3A09F061C081E080934B036EE0EA
:1033D00080E00E941015482F48606EE080E00E9457
:1033E000C21462E080E00E941015482F416062E044
:1033F00080E00E94C21462E081E00E941015482F14
:10340000416062E081E00E94C21460E080E00E94BE
:10341000931561E080E00E94931560E081E00E94D6
:10342000931561E081E00E94931540EB54E060E069
:1034300070E080E00E94F41540EB54E060E070E042
:1034400081E00E94F41580E00E94691581E00E94ED
:10345000691562E080E00E941015482F426062E02A
:1034600080E00E94C21462E081E00E941015482FA3
:10347000426062E081E00E94C21460E080E00E944D
:10348000101560E081E00E9410158FE090E00E942E
:1034900062178A3028F069E08FE090E00E944E17B2
:1034A0008AE797E00E94E0088091F802882309F4F7
:1034B000EEC087E592E00E948E1386E797E00E94B7
:1034C00010142091510380E890E002C0880F991FEA
:1034D0002A95E2F79F938F9384E697E09F938F93CB
:1034E0008AE094E09F938F930E949A1480915103F5
:1034F0000F900F900F900F900F900F90813009F068
:10350000C9C088E497E00E94E0080E940C1488E695
:103510000E9448060E944506811152C18EE893E040
:103520000E94E00881E00E94D91385E492E00E94A5
:10353000341489E693E00E94E00880916303082E2A
:10354000000C990B0E945E138CE592E00E943414EB
:1035500088E60E9448068FE090E00E94C1090E9420
:10356000450661E070E088E690E00E9467120E94E4
:10357000650687FF01C128E030E046E050E069EBD6
:1035800074E0CE0101960E94E716CE0101960E94DA
:10359000951660938B03CE0101960E94A01625E03C
:1035A00030E043E050E069EB74E0CE0101960E9408
:1035B000E716CE0101960E94951660938A03CE010C
:1035C00001960E94A01622E030E050E040E069EB56
:1035D00074E0CE0101960E94E716CE0101960E948A
:1035E000951660938903CE0101960E94A01626E0ED
:1035F00030E044E050E063EB74E0CE0101960E94BD
:10360000E716CE0101960E94951660936603CE01DF
:1036100001960E94A01690E080E00E947806EFEBF1
:10362000E80FE33108F04DC00E2E000CFF0BE55EF5
:10363000F44E0C94AA2FC41B611B611BDE1B611B83
:10364000C21B611B611B611B501B611B611BCE1BDD
:10365000DC1BDA1B611B611B611BD81B61E08AE06C
:103660000E94300760E08AE00E94020781E08F1527
:1036700008F0EBCD60E082E00E94020761E087E1A4
:103680000E94300760E087E10E940207FACD89E5D9
:1036900092E011CF823009F038CF82E197E033CF4A
:1036A00081E090E00E947806813609F467C082E0EC
:1036B00090E00E9478068E3609F062C086E0809322
:1036C00065032BE030E049E050E063EB74E0CE01AD
:1036D00001960E94E716CE0101960E94951660930E
:1036E0006403CE0101960E94A01681E593E00E943A
:1036F000101486E293E00E94E00880E00E94D91353
:103700008BE193E00E94E0080E9464178AE094E055
:103710000E9439088093F602982F9F7D993511F009
:103720009E3491F7682F8AE094E00E9493080E94EB
:103730000C148091F6028F7D893589F440916403E1
:1037400060916503809166030E94C60986EF92E04E
:103750000E94E00881E00E94D9130E940C1488E6C0
:103760000E9448068FE090E00E94C10988E090E046
:103770000E94C1090E94450681E023C081E09FCFDD
:1037800087E09DCF82E09BCF82E090E00E947806A8
:10379000823711F484E093CF88E091CF82E090E00B
:1037A0000E947806823711F483E089CF85E087CFC5
:1037B00089E085CF8AE083CF8BE081CF8CE07FCF1B
:1037C00080E08093480380915803882321F08CEF98
:1037D00096E00E94101480914B03882321F08EED17
:1037E00096E00E94101487EC96E00E94E0088CE0BE
:1037F00090E00E946217823028F060E08CE090E058
:103800000E944E178CE090E00E946217809347035D
:103810008823F9F084EC96E00E9410140E94DB0BE0
:103820000E94DB0B8AE090E00E9462178093F7020F
:10383000012B19F0853008F4F7C08AE094E00E946B
:103840005B081816190644F48AE094E00E943908CF
:10385000F4CF80EC96E0E0CF0E940C1484E996E06F
:103860000E9410140E940C141091F702153008F0F9
:1038700030C184E896E00E94E008812F90E0019634
:103880000E945E1385E492E00E94341410E38AE7FC
:1038900096E00E94101480E796E00E9410148FE5D5
:1038A00096E00E94E008809157030E94951380E5FE
:1038B00096E00E94101486E496E00E94101487E2BD
:1038C00096E00E94E0088091F802882309F403C181
:1038D00089E592E00E948E1382E296E00E94101425
:1038E00085E096E00E94E008809147038111F6C0D0
:1038F0008EE592E00E948E1385E492E00E943414DB
:1039000085EE95E00E94E0088FE090E00E9462174B
:10391000893008F0E8C0E82FF0E0EE0FFF1FE25D0D
:10392000FE4F6081718190E080E04AE00E941A13AE
:1039300085E492E00E94341480914803882321F0AA
:103940008FEC95E00E9410148CEB95E00E94E0084B
:1039500080E190E00E94621720E830E002C0220F70
:10396000331F8A95E2F73F932F9383EB95E09F9364
:103970008F938AE094E09F938F930E949A1485E43A
:1039800092E00E9434140E940C148EE995E00E948B
:10399000E0080F900F900F900F900F900F900E94E3
:1039A00064178AE094E00E9439088093F6028F330E
:1039B00009F09EC0909162039F5F90936203682F0D
:1039C0008AE094E00E94930889E995E00E9410142F
:1039D00010916203112369F087E895E00E94E008E6
:1039E000612F70E090E080E04AE00E941A130E948C
:1039F0000C148091F602883309F43AC10CF084C0AB
:103A0000863309F41FC10CF029C1833309F4C7C000
:103A10006091F60261536093F702653008F0E4C4E8
:103A20008AE090E00E944E178091F702823051F4B4
:103A300081E195E00E94E008809157030E94951370
:103A40000E940C141091F702123009F478C308F0A8
:103A500051C3112309F465C38DE692E0113009F4D6
:103A6000A6C361E080E00E940207E090F102F090BE
:103A7000F202E114F10469F090E080E00E94B611D6
:103A800083EC0E94EA118E2D0E94EA118F2D0E9474
:103A9000EA11C7010E94B611143008F06CC40E94EC
:103AA000DB0B882309F49BC30E94DB0B8093EC02A1
:103AB000882309F494C36091EC02662329F050E056
:103AC00040E080E00E9440140E941C140E94DB0B26
:103AD000EBCF11E3DCCE87E592E0FCCE81E096E00F
:103AE0000E94E00809CF60E072EC81E090E01DCF19
:103AF000803219F41092620352CF81170CF44FCF29
:103B000082360CF04CCF5BCF813409F488C2813609
:103B100009F485C2893309F07BCF0E94AE1210925E
:103B2000530387E594E00E94101488E294E00E9419
:103B300010143AE0F32E46EFE42EDD24D39486E20F
:103B400094E00E94E00880915303823009F419C187
:103B500008F0FAC0882309F404C1813009F40AC1CD
:103B60000E9464178AE094E00E943908082F80932D
:103B7000F602853709F423C1853509F420C184375D
:103B800009F439C4843509F436C48D3049F71091ED
:103B900053036DE08AE094E00E94930834C181E70A
:103BA00094E00E9410148091570381508093F50295
:103BB00006E08091F5028F5F602F0E94682F192F19
:103BC0009093F50282E895E00E94E008812F0E9420
:103BD00095138FE695E00E94E0088AE094E00E9449
:103BE0005B08181619062CF48AE094E00E94390844
:103BF000F4CF8AE094E00E945B08181619061CF0C6
:103C00000E946417F6CF8AE094E00E9439088093FE
:103C1000F6028D3011F08B3161F60E940C140E9477
:103C20000C148091F6028D3009F0F2CE6091F5020D
:103C3000609357038EE090E00E944E1783E38093D9
:103C4000F602E6CE61E08091F802811160E06093B7
:103C5000F8028DE090E00E944E17DACE61E080918C
:103C60004703811160E0609347038CE090E0F3CF5D
:103C700081E794E00E9410148FE090E00E946217A8
:103C800081508093F5020AE08091F5028F5F602FEA
:103C90000E94682F192F9093F5028AE695E00E9402
:103CA000E00860E072EC81E090E0193051F0E12F23
:103CB000F0E0EE0FFF1FE25DFE4F6081718190E04A
:103CC00080E04AE00E941A1385E695E00E94E00831
:103CD0008AE094E00E945B08181619062CF48AE02A
:103CE00094E00E943908F4CF8AE094E00E945B08D7
:103CF000181619061CF00E946417F6CF8AE094E0AB
:103D00000E9439088093F6028D3019F08B3109F04A
:103D1000BBCF0E940C140E940C148091F6028D30CF
:103D200009F076CE8FE090E00E9462176091F50274
:103D3000861709F456C38FE090E00E944E178FE279
:103D400095E00E94101464CE843091F150F18530DA
:103D500009F006CF8AED93E00E94E00880918B0382
:103D600006C08DE194E00E94E008809164030E9407
:103D7000C913F6CE83E194E00E94E00880916503C8
:103D8000F6CF85E094E00E94E0086DE08AE094E0E0
:103D90000E9493088CEF93E00E94E00880916603F4
:103DA000E6CF82EF93E00E94E00880918903DFCFA5
:103DB00086EE93E00E94E00880918A03D8CF1091AC
:103DC0005303123009F463C0E0F5112309F449C02C
:103DD000113009F451C0802F8F7D843509F0AAC0BD
:103DE000123009F4C3C008F08DC0112309F49BC040
:103DF000113009F4AFC06DE08AE094E00E949308AE
:103E00000D3009F09CCE1F5F10935303163008F459
:103E100096CE4091640360916503809166030E9491
:103E2000C6098AEC93E00E9410148DEA93E00E9488
:103E3000E00881E00E94D91385E492E00E943414E6
:103E4000E7CD143009F450C008F443C0153019F61A
:103E500080918B038F5F8C3308F051C080938B036C
:103E6000BACF809164038F5F843618F48093640323
:103E7000B2CF10926403AFCF809165038F5F8D3016
:103E800018F480936503A7CF10936503A4CF8091A6
:103E900066038F5F80936603E0916503E23089F4E7
:103EA00090E020916403237049F42DE130E028175D
:103EB00039070CF090CFD09266038DCF2CE130E023
:103EC000F6CFF0E0EF5DFE4F9081981708F083CFBA
:103ED000F2CF809189038F5F883118F48093890332
:103EE0007ACF1092890377CF80918A038F5F8C33CA
:103EF00018F480938A036FCF10928A036CCF1092CC
:103F00008B0369CF143009F46EC008F45AC0153021
:103F100009F071CF20918B03265F2C3308F075C018
:103F200020938B0307C020916403265F243640F45E
:103F3000209364036DE08AE094E00E949308FFCD33
:103F4000822F6F2D0E94682F8E9D200D11242093AB
:103F5000640351CF809165038B3020F08A508093A9
:103F6000650349CF833030F7865FF9CF2091660330
:103F7000265F20936603422F50E0E0916503F0E056
:103F8000EF5DFE4F808190E030916403337061E01B
:103F900070E011F070E060E0860F971F84179507BE
:103FA0004CF4822F6F2D0E94682F8E9D200D1124BE
:103FB00020936603809166038111BCCFD092660383
:103FC0001ACF20918903265F283118F420938903A2
:103FD000B1CF822F6F2D0E94682F8E9D200D11244E
:103FE0002093890308CF20918A03265F2C3318F48D
:103FF00020938A039FCF822F6F2D0E94682F8E9D62
:10400000200D112420938A03F6CE822F6F2D0E945B
:10401000682F8E9D200D112420938B03ECCE81E719
:1040200094E00E9410148091510381508093F50216
:1040300083E0C82ED12C90E8A92EB12C0FE115E019
:104040002AE0E22E24E0F22E8091F5028F5F90E0CC
:10405000B6010E94742F982E8093F5028AE295E0B3
:104060000E94E008C50102C0880F991F9A94E2F7E8
:104070009F938F931F930F93FF92EF920E949A1436
:104080000F900F900F900F900F900F908AE094E098
:104090000E945B08181619062CF48AE094E00E942E
:1040A0003908F4CF8AE094E00E945B0818161906DC
:1040B0001CF00E946417F6CF8AE094E00E94390851
:1040C0008093F6028D3019F08B3109F0BDCF0E943C
:1040D0000C140E940C148091F6028D3009F098CCDB
:1040E0006091F5026093510380E190E00E944E17C9
:1040F00080E3A5CD133009F46FC0143009F0B1CCC2
:10410000EFE0F5E0859194919093F0028093EF02B7
:104110008AE692E09093EE028093ED0280E19DEFBB
:104120003FC081E692E09093F4028093F3021092F4
:10413000F2021092F10281E08093500392CC8091C0
:104140005703823091F170F4882311F1813009F026
:1041500088CC83E892E09093F4028093F30280E8A5
:1041600090E01EC08430A9F148F1853009F079CC87
:104170008DEA92E09093F4028093F3021092F2029F
:104180001092F10281E08093500380934F0369CC39
:1041900089E792E09093F4028093F30280EE91ED30
:1041A0009093F2028093F1025CCC8EE892E09093BF
:1041B000F4028093F30280E091E0F2CF89E992E08B
:1041C0009093F4028093F3021092F2021092F102A3
:1041D00048CC85EA92E0F4CF87EB92E0F1CF0091F2
:1041E000F3021091F4026EE872E0C8010E94D63129
:1041F000892B31F0C8010E9428108093EC0210C076
:1042000084EC92E00E9428108111F4CF84EC92E0BB
:104210009093F4028093F30260E08DE00E94020725
:104220008091EC028823E9F06091EC02662339F07A
:104230004091F3025091F40281E00E9440140E94E8
:104240001C140091F3021091F402C8010E9428107E
:104250008093EC02833021F30E94DB0B0E94DB0B86
:10426000C9CF83EF94E00E94E0088091F30290911F
:10427000F4020E948E138EEE94E00E94E008CE01BC
:1042800001960E94290E082F89818093460300938E
:10429000EC021092F5021091F50280914603181776
:1042A00058F4E12FF0E0E354FC4F80810E94EA11C2
:1042B0001F5F1093F502EFCF803291F40023F9F2E3
:1042C0004091F3025091F402602F82E00E9440146A
:1042D0000E941C1460E070E0CB010E94F90E02C045
:1042E0000111EECF8091EC028111C9CF8BEC94E0EB
:1042F0000E94101460E086E10E9402078091B600DF
:104300008F7D8093B6008091B10081608093B10071
:104310008091B100897F8093B1008091B00082606C
:104320008093B0008091B0008E7F8093B000809128
:10433000B00080648093B0008091B0008F7780934C
:10434000B0008091F8028093B30061E08FE00E949A
:1043500030078EEA94E00E9410140E940C148AE048
:1043600094E00E945B0818161906FCF48AE094E0B9
:104370000E943908F4CF81ED94E00E94E00810E03B
:1043800000E08091ED029091EE020817190708F005
:10439000ADCFE091EF02F091F002E00FF11F8491B8
:1043A0000E94EA110F5F1F4FECCF61E070E080E0E8
:1043B00090E00E94BF0761E086E10E940207269616
:1043C0000FB6F894DEBF0FBECDBFDF91CF911F9126
:1043D0000F91FF90EF90DF90CF90BF90AF909F90A4
:1043E00008958CED8093F7028AE090E00E946217B6
:1043F0008093F70219CB10915303F2CC1F920F92C6
:104400000FB60F9211244F935F936F937F938F9307
:104410009F9340915E0350915F03609160037091A0
:10442000610380915D0390915C039230F9F41092E6
:104430005C038A5A8D3728F08D574F5F5F4F6F4F5F
:104440007F4F80935D0340935E0350935F036093BF
:104450006003709361039F918F917F916F915F9142
:104460004F910F900FBE0F901F9018958B5A9F5F22
:1044700090935C03DFCF1F920F920FB60F9211241F
:104480000BB60F922F933F934F935F936F937F934E
:104490008F939F93AF93BF93EF93FF938AE094E042
:1044A0000E947108FF91EF91BF91AF919F918F9101
:1044B0007F916F915F914F913F912F910F900BBE24
:1044C0000F900FBE0F901F9018951F920F920FB66E
:1044D0000F9211240BB60F922F938F939F93EF930C
:1044E000FF93E0911A04F0911B048081E091200475
:1044F000F091210482FD1DC09081809123048F5F83
:104500008F7320912404821741F0E0912304F0E09E
:10451000E65FFB4F958F80932304FF91EF919F916E
:104520008F912F910F900BBE0F900FBE0F901F9089
:1045300018958081F2CF1F920F920FB60F9211241F
:104540000BB60F922F933F934F935F936F937F938D
:104550008F939F93AF93BF93EF93FF938091B90095
:10456000887F803609F44DC008F040C0883209F4D5
:10457000A9C028F5803109F49DC0C8F4882309F446
:1045800007C1883009F496C0FF91EF91BF91AF91B8
:104590009F918F917F916F915F914F913F912F915B
:1045A0000F900BBE0F900FBE0F901F901895883183
:1045B00009F488C0803241F78093920314C080349C
:1045C00009F4A5C040F48033B9F38833E9F6809349
:1045D000920385ECBCC0803509F489C0883509F4A4
:1045E0009EC0883489F60E941B09CECF883909F411
:1045F00094C038F5883729F050F4883611F08037A8
:1046000019F683E08093940310923F0357C08838D3
:1046100009F483C0803919F0803809F0B5CF809152
:104620003F03803208F079C0E0913F0381E08E0FB4
:1046300080933F038091BB00F0E0E15EFC4F8083FC
:104640003DC0803B39F0E0F4803A09F485C0883AF7
:1046500009F09ACF84E08093940310921C03109287
:104660001B03E0911903F0911A03099580911B0334
:1046700081110FC081E080931B031092F90209C0E1
:10468000803C09F4A6CF883C09F4A3CF883B09F00D
:104690007BCFE0911C0381E08E0F80931C03F0E040
:1046A000E750FD4F80818093BB0090911C03809167
:1046B0001B0331C080918D038093BB0085EC8093F8
:1046C000BC0062CF90918F0380918E039817B8F54C
:1046D0008091900390919103E0918F0321E02E0F40
:1046E00020938F03E80FF92FF11D8081E5CF2091F2
:1046F000900330919103E0918F0381E08E0F8093BE
:104700008F038091BB00E20FF32FF11D8083909106
:104710008F0380918E03981788F285E8D0CF20917F
:10472000900330919103E0918F0381E08E0F80938D
:104730008F038091BB00E20FF32FF11D80838091E6
:104740009303811150CF81E080938C0384EA80939E
:10475000BC001092940318CF85EC8093BC0010929B
:10476000940380913F03803230F4E0913F03F0E006
:10477000E15EFC4F108260913F0370E0E0911D0309
:10478000F0911E038FE193E0099510923F03FCCE58
:104790001092920328CFEF92FF920F931F93CF9323
:1047A000DF930097C9F0EA018C012097B1F1E09006
:1047B0004003F0904103E114F10479F1F801819193
:1047C0008F010E949F0AF1E0EF1AF108F092410375
:1047D000E09240032197E9CF41155105610571052C
:1047E00029F18091DD0383FD07C089E0440F551F47
:1047F000661F771F8A95D1F788E50E94E50A811127
:104800001DC08FEF0E949F0A8EEF0E949F0A80E0DA
:1048100092E0909341038093400390E080E0DF9129
:10482000CF911F910F91FF90EF900895DF91CF915D
:104830001F910F91FF90EF900C94A90A81E090E0F6
:10484000EECF0F931F93CF93DF93C82F162FD42F44
:10485000809162038330E0F01F924F931F926F9319
:104860008C2F90E08F5B9F4F9F938F938AEF98E000
:104870009F938F938AE094E09F938F930E949A1462
:104880008DB79EB70A960FB6F8949EBF0FBE8DBF28
:1048900063E08C2F0E941015082F4FEB63E08C2FE4
:1048A0000E94C21462E08C2F0E941015482F4F7393
:1048B00011114064D111406862E08C2F0E94C21433
:1048C000402F63E08C2FDF91CF911F910F910C94BB
:1048D000C214EAE0F4E01382128288EE93E0A0E0D2
:1048E000B0E084839583A683B78328E132E03183E7
:1048F000208325EC30E03587248724EC30E03787AF
:10490000268720EC30E0318B208B21EC30E0338B9C
:10491000228B22EC30E0358B248B26EC30E0378B79
:10492000268B118E128E138E148EE7EAF4E013821A
:10493000128284839583A683B7838AE292E091836F
:104940008083E9EBF4E011821082138212821582D7
:10495000148248E050E060ED72E0CF010E94A8169A
:10496000E3EBF4E01182108213821282158214822A
:104970004BE050E069ED72E0CF010C94A816CF93A4
:10498000DF9300D0CDB7DEB7789484B5836084BD63
:1049900085B5836085BD80916E00816080936E00D7
:1049A00082E080938100809181008160809381000A
:1049B000809180008160809380008091B10084604C
:1049C0008093B1008091B00081608093B0008091AD
:1049D000910083608093910080919000816080932A
:1049E000900087E880937A001092C1000E941A1804
:1049F00083E00E94D906892B09F0F5C483E10E9467
:104A0000D906892B09F0A9C482E10E94D906F0B029
:104A1000F0925B03882379F0F0921B0110925A0305
:104A20001092590360E08EE00E94020760E080E08F
:104A30000E940207D0C480911B018C3009F4A4C1EC
:104A400008F04FC0863009F435C108F5833009F409
:104A500012C168F4882309F401C1813009F405C149
:104A600080911B018A30F1F28C30E1F205C3843071
:104A700009F415C18530A1F780915803882309F402
:104A8000FBC280E20E94480690E080E0FEC08930D0
:104A900009F426C180F4873009F417C1883001F782
:104AA00080915803882309F4E7C280E20E944806F7
:104AB0008DE090E0EAC08A3009F433C18B3081F692
:104AC000F0925403809155039091560381159240C2
:104AD00008F054C1FFE1FF1508F454C110920F0112
:104AE000BFCF823109F42FC308F078C08F3009F4AA
:104AF0001FC380F48D3009F493C28E3009F0B0CF1B
:104B00008F2D817080935003F1FADD24D0F8D0927C
:104B10004F03A6CF803109F411C3813109F0A0CF32
:104B200080915803882309F4A7C281E080934D0344
:104B300011E0F11010E010934C0380E20E9448064F
:104B400082E190E00E94C109110F012F0560802FC2
:104B500090E00E94C1090E94450680E20E9448063A
:104B600090E080E00E94C10988EF90E00E94C109B6
:104B70000E94450680E20E94480681E090E00E9483
:104B8000C10990E080E00E94C1090E94450680E2D0
:104B90000E9448068CE090E00E94C1098FEF90E0EF
:104BA0000E94C1090E94450680E20E94480682E1F7
:104BB00090E00E94C109612F616087EA94E00E9441
:104BC00092090E9445060093530380E20E94480622
:104BD00082E190E00E94C109602F5AC08432C0F582
:104BE000823208F0E3C2803208F43ACF90914B034E
:104BF000992309F435CF11E0803209F410E0809157
:104C000062038330F8F080EE8F0D8F3508F0CCC250
:104C10008F2D1F928F931F92FF92812F90E08F5BB9
:104C20009F4F9F938F9383E899E09F938F938AE0A0
:104C300094E09F938F930E949A140FB6F894DEBF6E
:104C40000FBECDBF4F2D60E0812F0E94C21408CF50
:104C50008E3709F005CFF092620302CF60E0F0FEDC
:104C600061E08DE00E940207FBCE6F2D8AE094E0A8
:104C70000E949308F5CE80915803882309F4FCC163
:104C800080E20E94480682E190E00E94C1096F2DF7
:104C900087EA94E00E9492090E944506E1CE809145
:104CA0005803882309F4E8C180E20E94480683E1A2
:104CB00090E0EBCF80915803882309F4DDC180E2B6
:104CC0000E94480681E090E0E0CF8091580388235D
:104CD00009F4D2C180E20E9448068CE090E0D5CF72
:104CE00023E680E12F15D0F080915703805D8093FB
:104CF00012018F2D6AE00E94682F90E3980F909325
:104D0000140160E3D62EDF0C36EF839FD00C112404
:104D1000D092150180E191E00E94281080930F014C
:104D20009FCE8091590390915A03EF2DF0E00097A8
:104D300051F4F0935603E0935503019690935A0370
:104D4000809359038DCE209155033F2D3093560308
:104D500020935503409154032115324040F44032D2
:104D600048F410920F012FEF20931B01E6CF21E1B1
:104D7000403208F022E120930F01F5CF2FE181E1CD
:104D80002F1560F682E1CACFC0905903D0905A0324
:104D9000C114D10419F56091550370915603611542
:104DA00032E07307D8F4809154038032B8F49091C4
:104DB0000F01911113C045E0660F771F4A95E1F787
:104DC000682B90E080E059E0660F771F881F991FDD
:104DD0005A95D1F70E94F90E80930F0180910F012F
:104DE000811181C08C2D8F7180935303E82FF0E0E7
:104DF000E354FC4FF0828F3109F075C00091080434
:104E000010910904A12C85E00115110509F458C081
:104E1000F801818180FFD9C086FD0AC08689978903
:104E2000A08DB18D88279E7F868B978BA08FB18FA9
:104E3000F801828D938DA48DB58D46895789608D3B
:104E4000718D841B950BA60BB70B80329105A105C4
:104E5000B10520F080E290E0A0E0B0E07C01B12C50
:104E6000A12C3DEB232E33E0332EE114F10409F4A1
:104E7000AFC0F80186899789A08DB18D9C013170F2
:104E8000232B09F067C092809A94AC01BD0129E000
:104E900076956795579547952A95D1F79422B1F560
:104EA000892B8A2B8B2B39F5668D778D80A191A16B
:104EB000F801623071058105910520F5118281E0CC
:104EC000A092520380930F01FFE1FA1508F482C00B
:104ED00083E180930F012FEFC21621E0D20618F074
:104EE0008FEF80931B01FFEFCF1ADF0AD0925A0396
:104EF000C0925903B5CD62A173A184A195A10E946E
:104F0000B90DD6CF62A373A384A395A3F80162A1C0
:104F100073A184A195A10E942D0A611571058105D7
:104F2000910511F4F801CACFAB01BC01490D511D27
:104F3000611D711DF80146A357A360A771A790E0FA
:104F400080E00E94CB23F801892B09F0B7CF818143
:104F500080648183F80186899789917020E032E02E
:104F6000281B390B47012E153F0508F44901240180
:104F7000712C612CB301A401C1010E94CB23F80163
:104F8000892B09F09BCF86899789A08DB18D840DDF
:104F9000951DA61DB71D868B978BA08FB18F280CF2
:104FA000391CE818F908A80CB91C2C01F1E05F22A3
:104FB000452809F05ACF0E94A90AF801892B09F067
:104FC0007DCF81818F7B818350CFA12C84E078CFEE
:104FD00080E076CF3FEFC31631E0D30608F483CFED
:104FE00081117ECF85E00115110569F0F8018181FD
:104FF00080FF14C086FF0CC00E94A90A892B41F0D3
:10500000F801118281E01092520380930F0168CF62
:10501000F80181818F7B818380E0F5CF84E0F3CF3D
:105020002EE02F1508F41CCDEF2DF0E0E65EF74DD5
:105030000C94AA2F29284028462848285628582862
:105040005E286028752877287D287F288E2890285C
:10505000962861E08CE00E94020760E08BE00E94ED
:10506000020710915103112339F060E08AE00E9499
:10507000020760E01230B8F58FEF80931B01D2CCAD
:1050800061E08CE00E94020761E0E8CF60E0F9CFC8
:1050900061E08CE00E94020760E08BE00E94020762
:1050A0001091510361E0112339F3E0CF60E0F1CFBB
:1050B00061E08CE00E94020761E0EFCF60E0F9CF91
:1050C00061E08CE00E94020760E08BE00E94020732
:1050D00010915103112381F260E08AE00E940207DF
:1050E000123050F261E087E1BDCD60E0EACF61E0CF
:1050F0008CE00E94020761E0E8CF60E0F9CF61E058
:105100008CE00E94020760E08BE00E940207109191
:10511000510361E0112309F4AFCFDFCF60E0F0CF9E
:1051200061E08CE00E94020761E0EECF60E0F9CF21
:10513000FF2009F4A1CFF0920E0192CC8F2D817047
:1051400080934E038DCC80914D03882309F494CF36
:1051500080E20E94480683E190E00E94C1096F2D21
:1051600087EA94E00E9492090E94450610914C0340
:10517000110F80E20E94480682E190E00E94C1097E
:10518000612F6C6F87EA94E00E9492090E944506A5
:105190001D6F1093530380E20E94480682E190E065
:1051A0000E94C109612F74CD8EE233CD90914B03E3
:1051B000992309F455CCBB24B394823209F4B12C61
:1051C0000F2D10E076E0159507957A95E1F75F2DA4
:1051D0005F71D52E90916203923000F1823209F016
:1051E00081C087E69AE09F938F936AE0E62E64E0A1
:1051F000F62EFF92EF920E949A1480915B031F9209
:105200008F938FE69AE09F938F93FF92EF920E9485
:105210009A140FB6F894DEBF0FBECDBF8B2D90E071
:10522000FC01E45FFE4F7F0180818F71D81651F140
:10523000E0915B03EF7124E0E29FF0011124E05460
:10524000FE4F9080A180C280D38080916203823023
:1052500098F0DF92CF92AF929F924CE45AE05F9326
:105260004F938AE094E09F938F930E949A140FB615
:10527000F894DEBF0FBECDBF492D5A2DB6018B2D40
:105280000E94F415F701808190E056E0959587958E
:105290005A95E1F70817190701F1809162038230EE
:1052A00008F4C7C21F930F932AE33AE03F932F936A
:1052B0004AE0C42E44E0D42EDF92CF920E949A148A
:1052C0000F900F900F900F900F900F9001301105DD
:1052D00011F10CF0B7C2012B41F080915B03F70193
:1052E0008083BECB8FE59AE07ECF809162038230CF
:1052F00060F080E39AE09F938F93DF92CF920E94B9
:105300009A140F900F900F900F9040E060E08B2D5B
:105310000E942124E2CF809162038230B0F32AE11F
:105320003AE03F932F938AE094E09F938F93E7CFE7
:1053300080916203823070F08BE09AE09F938F93AC
:105340008AE094E09F938F930E949A140F900F909D
:105350000F900F9041E061E0DACF84E10E94D9061E
:10536000892B09F061C282E10E94D90610925B0389
:10537000882309F472C08FEF80935B038AE094E086
:105380000E945B08181619060CF063C08AE094E0CE
:105390000E94390880935B0310924A0361E081E028
:1053A0000E940207809149038E7F8093490381E028
:1053B00080930B011FEF11B980915B0382B960E00C
:1053C0008EE00E94020760E080E00E9402070E94D7
:1053D0009C0611B812B961E080E00E94020761E00A
:1053E0008EE00E94020780914F03882379F10E948A
:1053F0006C070091420310914303209144033091C4
:1054000045036B017C01C01AD10AE20AF30A20911C
:105410000E0130E0A8EEB3E00E94592F6C157D0517
:105420008E059F0598F460E081E00E94020780915C
:1054300049038260809349030E946C076093420392
:105440007093430380934403909345030E94541246
:10545000CFCA81E080934A03A1CF80911B01883895
:1054600009F470C118F5833809F4ACC090F48138A0
:1054700009F481C008F09BC0803809F460C08091B5
:105480001B018D7F843809F495CF8FEF80931B012A
:1054900091CF853809F4FDC008F4BEC0863809F400
:1054A000FBC0873861F70E94DB0B7EC0843AF0F5C1
:1054B000823A08F073C18A3809F450C108F447C130
:1054C000803AE8F290914B03992309F465C111E009
:1054D000803A09F410E060E0812F0E941015082F37
:1054E000809162038330F8F080EE800F8F3508F0F2
:1054F00051C1802F1F928F931F920F93812F90E0A5
:105500008F5B9F4F9F938F93E3EAF9E0FF93EF93B5
:105510008AE094E09F938F930E949A140FB6F894B8
:10552000DEBF0FBECDBF00935B03A9CF863A08F460
:105530005CC18E3F09F0A3CF8091620335C08DE03E
:105540000E94D906182F8093530362E08DE00E94D9
:1055500030078DE00E94D90621E0892B09F020E078
:1055600020935B0361E08DE00E943007612F8DE0A6
:105570000E94020784CF80915803882309F47FCFCB
:1055800080E20E94480682E190E00E94C1090E94E8
:10559000450680E20E94480661E070E080E290E00B
:1055A0000E9467120E94650680935B0368CF80911A
:1055B0005803882309F463CF80E20E94480683E100
:1055C00090E0E3CF0091480310E0000F111FF0902E
:1055D00047038AE094E00E945B0834E0181619063D
:1055E0000CF030E080914A0328E0811101C020E0F6
:1055F00080914E03F0E18F9FC0011124082BF02A07
:105600000091510340E4049F80011124F02AF32A01
:10561000F22AF0925B0333CF809148038823A9F1EB
:105620000091590310915A030115110569F40E9464
:10563000AE1280918B0380935B030F5F1F4F10931B
:105640005A03009359031BCF07301105F0F48091E2
:1056500065030430110579F368F480918903023001
:10566000110549F3809166030330110521F3809100
:105670008A03E1CF8091640305301105E1F2809146
:10568000630306301105B9F2F2CF8FEF80931B014F
:10569000F6CE80910F0188CF0091590310915A03E3
:1056A0000115110519F560915503709156036115A7
:1056B00052E07507D8F4809154038032B8F4909189
:1056C0000F01911113C095E0660F771F9A95E1F7CE
:1056D000682B90E080E029E0660F771F881F991FF4
:1056E0002A95D1F70E94F90E80930F0180910F0146
:1056F00081111DC0802F8F71F82E8093530381116B
:105700000FC0CE0101960E94290E99819093460305
:105710009032B0F080930F0180910F01811107C08A
:10572000EF2DF0E0E354FC4F808180935B030F3F4B
:1057300091E0190708F481CF8FEF80931B017DCF93
:1057400083E1E8CF8AE094E00E942A082DCF80917F
:10575000490380935B031092490391CE80914D03DE
:10576000882309F48CCE80E20E94480682E190E012
:105770000E94C1090E94450680E20E94480661E03D
:1057800070E080E290E00E9467120E946506887FC8
:1057900081600ACF8EE2AECE8AE106CF90914B03B4
:1057A000992309F111E0823A09F410E069E0812FB0
:1057B0000E941015082F80916203843008F4B3CE44
:1057C0001F920F93812F90E08F5B9F4F9F938F933A
:1057D00082EC99E09F938F938AE094E09F938F935C
:1057E0000E949A149BCE80E4DFCE90914B039923C4
:1057F000D1F311E0843A09F410E068E0812F0E94AF
:105800001015082F80916203843008F48CCE1F920B
:105810000F93812F90E08F5B9F4F9F938F9341EE6B
:1058200059E05F934F93D8CF61E081E00E94020777
:10583000F9C80130110509F46ECD24F4012B09F4E7
:1058400064CD4BCD0230110509F472CD0330110542
:1058500009F043CD80916203823008F43ECD20E010
:105860003AE03F932F938AE094E09F938F930E94B6
:105870009A140F900F900F900F902FCD83EB94E020
:105880000E94A01689EB94E00C94A0161F93FC01D3
:1058900099278827BC01E89411911032E9F3193057
:1058A00010F01E30C8F31B3251F01D3249F46894D9
:1058B00006C00E946D2C610F711D811D911D1191FB
:1058C00010531A30B0F33EF4909580957095619521
:1058D0007F4F8F4F9F4F1F910895592F482F372F7C
:1058E000262F660F771F881F991F660F771F881F47
:1058F000991F620F731F841F951F660F771F881FE4
:10590000991F0895CF93DF93EC018B8188608B837F
:10591000CE010E94912C2B81277F2B83DF91CF9189
:1059200008952F923F924F925F926F927F928F9243
:105930009F92AF92BF92CF92DF92EF92FF920F931E
:105940001F93CF93DF93CDB7DEB72B970FB6F894A5
:10595000DEBF0FBECDBF7C013B018A01FC01178277
:105960001682838181FFDDC1CE0101965C01F701C2
:105970009381F30193FD859193FF81913F018823EA
:1059800009F453C1853239F493FD859193FF8191D8
:105990003F01853229F4B70190E00E94AA2EE7CF9B
:1059A000912C212C312CFFE1F31538F08B3211F1C1
:1059B00090F4803209F1833229F137FC3CC020EDAC
:1059C000280F2A3050F536FE20C08AE0989E200D20
:1059D0001124922E06C08D3291F0803371F76894B5
:1059E00030F8F30193FD859193FF81913F0181117F
:1059F000DACF21C0689431F8689432F8F2CF689415
:105A000033F8EFCF689434F8ECCFEAE02E9E200D07
:105A10001124222E689435F8E4CF8E3229F436FC16
:105A200004C1689436F8DDCF8C3619F4689437F8E1
:105A3000D8CF8836B1F2982F9F7D95549330E0F0FF
:105A40008336A1F18337C1F1833509F063C02801A2
:105A5000F2E04F0E511CF801C080D180692D70E03A
:105A600036FC02C06FEF7FEFC6010E94942E4C01FE
:105A7000689437F882010AC00C5F1F4FFFE3F98377
:105A800088248394912C6501E89437F833FE2DC067
:105A9000522C8114910471F5552009F468CFB70197
:105AA00080E290E00E94AA2E5A94F6CFF8018081FD
:105AB00089830E5F1F4FE4CF2801F2E04F0E511C87
:105AC000F801C080D180692D70E036FC02C06FEF14
:105AD0007FEFC6010E949F2E4C018201D5CFB701F6
