:100000000C946B060C9495060C9495060C9495062E
:100010000C9495060C9495060C9495060C949506F4
:100020000C9495060C9495060C9495060C949506E4
:100030000C9495060C9495060C9495060C949506D4
:100040000C9495060C9495060C94C0230C9495067C
:100050000C9427240C94FD230C9495060C9495067F
:100060000C9495060C9495060C945C240C949506BF
:100070000C9495060C9495060C9495060C94950694
:100080000C9495060C9495060C9495063110FD2160
:1000900052FDCDC6FECD3EFFCDF4FD3EFFBC20108F
:1000A000BD200D21D9FDCDC6FE2188FDCDC6FE7631
:1000B000E521D9FDCDC6FE2175FDCDC6FEE1CD4BB6
:1000C000FFCD3EFFCD3EFFDB01FEFF20FAE9694C8C
:1000D0006F6164202D20496E74656C2D4865782011
:1000E0004C6F61646572202D2053323030373138C7
:1000F000005374617274696E672041646472657341
:10010000733A20004C6F6164206572726F72202D0B
:100110002053797374656D2068616C746564005751
:10012000616974696E6720696E707574207374728A
:1001300065616D2E2E2E0053796E74617820657284
:10014000726F722100436865636B73756D20657211
:10015000726F722100694C6F61643A2000416464DF
:10016000726573732076696F6C6174696F6E2100BC
:10017000F5D5C501FFFF21A3FDCDC6FECD3EFFCDC8
:1001800072FFFE0D28F9FE0A28F5FE2028F1CD1A8F
:10019000FFCD69FFFE3AC2A3FECDE1FE571E00CDA2
:1001A000BEFECDD6FE3EFFB82005B92002444D7CF0
:1001B000CDBEFE7DCDBEFECDE1FECDBEFEFE01205C
:1001C0001ECDE1FECDBEFE7BA72866CD3EFF21D928
:1001D000FDCDC6FE21C9FDCDC6FE01FFFF18527A36
:1001E000A7282CCDE1FECDBEFEE5C5A701F0FCEDB4
:1001F00042C1E1DA8EFECD3EFF21D9FDCDC6FE2102
:10020000E1FDCDC6FE01FFFF182777231518D0CDDD
:10021000E1FECDBEFE7BA720B2CD3EFFC303FECDE7
:100220003EFF21D9FDCDC6FE21BBFDCDC6FE01FF9F
:10023000FFCD3EFF6069C1D1F1C9C54F7B915F79A8
:10024000C1C9F5E57EFE002806CD69FF2318F5E15A
:10025000F1C9F5CDE1FE67CDE1FE6FF1C9C5CDF481
:10026000FECB07CB07CB07CB0747CDF4FEB0C1C908
:10027000CD72FFCD1AFFCD06FF30F5CD23FFCD2E79
:10028000FFC9FE47D0FE3030023FC9FE3AD8FE41DA
:1002900030023FC937C9FE61D8FE7BD0E65FC9FE98
:1002A0003A3802D607D630E60FC9F5E60FC630FE5B
:1002B0003A3802C607CD69FFF1C9F53E0DCD69FF99
:1002C0003E0ACD69FFF1C9E5F57CCD58FF7DCD58DB
:1002D000FFF1E1C9F5C5470F0F0F0FCD2EFF78CD08
:1002E0002EFFC1F1C9F53E01D301F1D300C9DB01F5
:1002F000FEFFCA72FFC9494F533A2052544320733C
:10030000657420617420636F6D70696C6520746919
:100310006D65202D204E6F773A2000293F205B59D4
:100320002F4E5D203E000A446F20796F7520776163
:100330006E74207365742052544320617420494FB9
:100340005320636F6D70696C652074696D6520283A
:1003500000494F533A2052544320636C6F636B2023
:100360006661696C7572652100494F533A20525499
:1003700043204453333233312074656D70657261AC
:10038000747572652073656E736F723A202564C24E
:10039000B0430D0A00494F533A20466F756E6420F2
:1003A00052544320445333323331204D6F64756CC3
:1003B00065202800494F533A205254432064617409
:1003C000652F74696D65207570646174656420289B
:1003D00000202E2E2E646F6E652020202020200A03
:1003E000005365636F6E6473202D3E20004D696E6F
:1003F00075746573202D3E2000486F757273202D33
:100400003E200020446179202D3E20002020202025
:10041000202020202020202020004D6F6E74682096
:100420002D3E200059656172202D3E200020000ADB
:10043000507265737320542F5520746F20696E635A
:1004400072656D656E74202B31302F2B31206F72E9
:1004500020435220746F20616363657074000A4901
:100460004F533A20525443206D616E75616C207376
:10047000657474696E673A000D0A50726573732073
:10048000435220746F206163636570742C20455360
:100490004320746F2065786974206F7220616E79D3
:1004A000206F74686572206B657920746F206368B3
:1004B000616E676500494F533A205A38302069739E
:1004C0002072756E6E696E672066726F6D206E6F3A
:1004D000770020446F6E6500494F533A204C6F619E
:1004E00064696E6720626F6F742070726F677261EB
:1004F0006D2E2E2E00292E2E2E00494F533A204CC1
:100500006F6164696E6720626F6F742070726F67CD
:1005100072616D20280044454255473A20426F6F72
:100520007453747241646472203D20004445425506
:10053000473A20466C61736820426F6F74496D6161
:10054000676553697A65203D200044454255473A26
:1005500020496E6A6563746564204A5020307825AE
:100560003034580D0A008C00494F533A20437572BD
:1005700072656E74200044454255473A20626F6FA1
:10058000744D6F64653A2025640D0A002564204B84
:1005900042797465730D000D202D3E004368616E35
:1005A0006765642073706565642077696C6C206290
:1005B0006520656666656374697665206166746545
:1005C00072206E657874207265626F6F74210D0AF7
:1005D0000A000D0A0A000D202D3E256C6420202003
:1005E0000D000D0A0A00202020202020202020209D
:1005F000202020202020200D000D202D3E003F56E1
:100600006572626F73697479206C6576656C2025FC
:10061000640D0A000D0A456E74657220796F75725B
:100620002063686F696365203E2000202025633ABF
:100630002052414D2073697A6520282564204B4261
:1006400079746573290D0A00202025633A205365CB
:1006500074205254432054696D652F446174650DB4
:100660000A00202025633A2053657420536572697F
:10067000616C20506F72742053706565642028256A
:100680006C64290D0A00202025633A20546F6767A7
:100690006C652043502F4D204175746F65786563FC
:1006A00020282D3E202573290D0A00202025633A9D
:1006B000204368616E6765205A383020436C6F6351
:1006C0006B20537065656420282D3E202564204DE5
:1006D000487A290D0A00202025633A20694C6F6171
:1006E000640D0A0A000D0A202025633A2041757422
:1006F0006F626F6F740D0A00202025633A204C6FE3
:1007000061642F536574204F532000202025633AE5
:1007100020466F7274680D0A00202025633A20423B
:10072000617369630D0A00202025633A20457869CA
:100730007420776974686F7574206368616E67658B
:10074000202827256327290D0A0A000D0A494F533F
:100750003A2053656C65637420426F6F74204D6F4F
:100760006465206F722053797374656D20506172D7
:10077000616D65746572733A0D0A0A00494F533A08
:100780002043502F4D204175746F65786563206953
:10079000732025730D0A00494F533A20466F756E3A
:1007A000642053494F41202F2053494F42204F701E
:1007B00074696F6E00494F533A20466F756E64201E
:1007C000475045204F7074696F6E00202843545382
:1007D0002C2052545320757365642061732042416C
:1007E0004E4B322C2042414E4B33207369676E6171
:1007F0006C2C2043453220696E76657274656429DD
:10080000002028435453207573656420617320428F
:10081000414E4B32207369676E616C2900494F531A
:100820003A202564204B42797465732052414D0073
:10083000494F533A205A383020636C6F636B2073F2
:100840006574206174202564204D487A0D0A0049A2
:100850004F533A20466F756E6420657874656E64F8
:1008600065642073657269616C20527820627566D8
:1008700066657220282564206279746573290D0AE3
:1008800000533232303731382D523239303832332A
:100890002D44303930313236202D204A616E2020EF
:1008A0003920323032362031383A32343A3135005C
:1008B0000D0A0A5A38302D4D4243322D4E47202D15
:1008C0002041303430363138202D2041546D656759
:1008D000613132383470202D202564204D487A0D46
:1008E0000A00494F533A20436865636B2053442004
:1008F000616E642070726573732061206B6579206E
:10090000746F207265706561740D0A00202D204699
:10091000696C653A2000206F7065726174696F6E52
:100920000052454144004F50454E004D4F554E54E6
:1009300000206F6E2000554E4B4E4F574E004E4FCD
:100940005F46494C4553595354454D004E4F545FF3
:10095000454E41424C4544004E4F545F4F50454E2A
:100960004544004E4F5F46494C45004E4F545F5240
:1009700045414459004449534B5F455252000D0ACA
:10098000494F533A205344206572726F7220003FE2
:100990003F53494F25633A2041637475616C20626F
:1009A000617564726174653A2025640D0A003F3FE9
:1009B00053494F25633A2043616C63756C617465DC
:1009C000642064697669736F723A2025640D0A00A9
:1009D0003F3F53494F25633A20446573697265640C
:1009E0002062617564726174653A2025640D0A00A5
:1009F0003F3F3F53494F25633A2053657441757417
:100A00006F48616E647368616B652025642C2025D6
:100A1000640D0A003F3F3F3F3F53494F25633A2053
:100A20005265616452656769737465722030782518
:100A30003032582028257329207265733D3078257F
:100A40003032580D0A003F3F3F3F3F53494F256327
:100A50003A205772697465526567697374657220CC
:100A600030782530325820282573292076616C3D56
:100A70003078253032580D0A003F3F3F53494F250B
:100A8000633A20577269746542797465203078251D
:100A90003032582025630D0A003F3F3F53494F2510
:100AA000633A20526561644279746520307825305C
:100AB00032582025630D0A003F3F3F3F53494F25E1
:100AC000633A205278204649464F204C6576656C43
:100AD0003A2025640D0A003F3F3F3F53494F2563AD
:100AE0003A205478204649464F2053706163653A56
:100AF0002025640D0A00202D2069727153746174E1
:100B00007573203D200044454255473A20494E54D4
:100B10002041434B206379636C6500202D20696F71
:100B200044617461203D200044454255473A2053BA
:100B3000595349525100202D2069727153746174C8
:100B40007573203D200044454255473A2053455295
:100B50002052580072657365727665640D0A0061F3
:100B600075746F205254532F4354530D0A0061750E
:100B7000746F20586F6E2F586F666620284E594943
:100B8000290D0A0064697361626C650D0A00202DED
:100B90002068616E647368616B653A20256420008B
:100BA000202D2062617564726174653A20256C6441
:100BB0000D0A003F3F53494F423A003F3F53494FD0
:100BC000413A002073657420636F6E74726F6C3AE3
:100BD0002030782530325800000021002400270002
:100BE0002A0000002200250028002B000000200021
:100BF000230026002900020202020202020204046B
:100C000004040404040403030303030303030101B2
:100C100001010101010101020408102040800102CC
:100C200004081020408001020408102040800102C6
:100C30000408102040800000000203000A0B00009E
:100C4000000005040908000000000000000000008A
:100C50000000000000003F3F3F53494F25633A200A
:100C60004649464F536574547269676765724C65AF
:100C700076656C2825735F4649464F3A2026640DF9
:100C80000A003F53494F25633A204C435220526596
:100C90006769737465723A203078253032780D0AAE
:100CA000000D0A0A494F533A20426175642072656B
:100CB000636F7665727920646F6E65202D20506CAD
:100CC00065617365207265626F6F74206E6F772146
:100CD00000002A26002E11241FBECFEFD0E4DEBF75
:100CE000CDBF25E0AEEEB2E001C01D92AC38B20738
:100CF000E1F712E0A0E0B1E0EAE8F7E600E00BBFC0
:100D000002C007900D92AE3EB107D9F716E0CAE6D1
:100D1000D6E004C02197FE010E946C31C936D1078C
:100D2000C9F70E9480260C94B8330C940000282F39
:100D30009091C10381E0913208F042C080919D03FF
:100D40008111FCCF8091C00332E030939D0320934A
:100D50009C032FEF20939B0320EA33E030939A0308
:100D600020939903109298039093970310929603FF
:100D700090919603880F892B809396038091950319
:100D8000813029F510929503809196038093BB00E2
:100D90008091BC0083FDF8CF85EC8093BC008091EE
:100DA0009D038230E1F380919B038F3F91F080910E
:100DB0009B03803281F080919B03803371F084E04B
:100DC00010929F031092C10310929E03089585EE26
:100DD000E4CF80E0F5CF82E0F3CF83E0F1CF81E094
:100DE0000C94970691E090939E038093C003109219
:100DF0009F031092C10308959091910380919003F5
:100E00002FEF3FEF981748F4E92FF0E0E059FC4F3F
:100E1000208130E09F5F90939103C90108959091E4
:100E20009103809190032FEF3FEF981748F4E92F3B
:100E3000F0E0E059FC4F208130E09F5F90939103F8
:100E4000C9010895FB01A485B585ED91FC91119729
:100E50000190F081E02D682FCD01099590E080E0B0
:100E6000089520918005309181058217930760F4E1
:100E700020917C0530917D052115310529F0280F41
:100E8000391FF9018081089580E0089587E090E09E
:100E90000197F1F7089582508A3088F5E82FF0E045
:100EA000EC5AF84F0C946C317C0780075E0764079E
:100EB0007F077F0768076E077207780780918000B9
:100EC0008F77809380000895809180008F7DF9CF87
:100ED0008091B0008F778093B00008958091B0002A
:100EE0008F7DF9CF809190008F7780939000089547
:100EF000809190008F7DF9CF84B58F7784BD089560
:100F000084B58F7DFBCFCF93DF93282F30E0F9019D
:100F1000EA5CF34F8491F901EA5EF34FD491F90151
:100F2000EA50F44FC491CC23A1F081110E944B07E9
:100F3000EC2FF0E0EE0FFF1FE451F44FA591B491B8
:100F4000EC91ED2381E090E009F480E0DF91CF9116
:100F5000089580E090E0FACF1F93CF93DF93282F7E
:100F600030E0F901EA5CF34F8491F901EA5EF34F56
:100F7000D491F901EA50F44FC491CC23A9F0162F73
:100F800081110E944B07EC2FF0E0EE0FFF1FEE5196
:100F9000F44FA591B4918FB7F894EC91111108C05A
:100FA000D095DE23DC938FBFDF91CF911F91089501
:100FB000DE2BF8CFCF93DF9390E0FC01EA5EF34F96
:100FC00024918A50944FFC0184918823C9F090E0C9
:100FD000880F991FFC01E852F44FA591B491FC01D0
:100FE000EE51F44FC591D49161110DC09FB7F894A3
:100FF0008C91209582238C938881282328839FBFFE
:10100000DF91CF910895623051F49FB7F8943C91ED
:10101000822F809583238C93E8812E2BEFCF8FB77F
:10102000F894EC912E2B2C938FBFEACFCF92DF92C6
:10103000EF92FF926FB7F8948091670390916803E5
:10104000A0916903B0916A035091660326B535B348
:10105000432F417030FF04C041E02F3F09F440E0CE
:101060006FBF6C017D0137E0CC0CDD1CEE1CFF1C5A
:101070003A95D1F7C50ED11CE11CF11CC81AD90A4A
:10108000EA0AFB0A880F991FAA1FBB1FC81AD90AB0
:10109000EA0AFB0A63E0CC0CDD1CEE1CFF1C6A951F
:1010A000D1F730E0AAEAB2E00E941B31672F782F17
:1010B000892F99276C0D7D1D8E1D9F1D442321F0C6
:1010C00066557D4F8F4F9F4FFF90EF90DF90CF90F1
:1010D00008958F929F92AF92BF92CF92DF92EF923C
:1010E000FF924B015C010E9416086B017C010E947B
:1010F00016086C197D098E099F09683E73408105A9
:101100009105A8F321E0821A9108A108B10888EEA0
:10111000C80E83E0D81EE11CF11C81149104A104C7
:10112000B10429F7FF90EF90DF90CF90BF90AF9080
:101130009F908F9008952FB7F894609167037091F6
:1011400068038091690390916A032FBF0895AF925D
:10115000BF92CF92DF92EF92FF920F931F93CF93A4
:10116000DF936C017B018B01040F151FEB015E0106
:10117000AE18BF08C017D10759F06991D601ED919B
:10118000FC910190F081E02DC6010995892B79F73A
:10119000C501DF91CF911F910F91FF90EF90DF90EC
:1011A000CF90BF90AF900895FC01538D448D252FB3
:1011B00030E0842F90E0821B930B541710F0CF96F1
:1011C000089501970895FC01918D828D981759F02B
:1011D000A28DAE0FBF2FB11D5D968C91928D9F5F3A
:1011E000928F90E008958FEF9FEF0895FC01918D0D
:1011F000828D981731F0828DE80FF11D858D90E07A
:1012000008958FEF9FEF0895FC01918D828D981BBB
:10121000892F90E0089583E194E00E94040921E081
:10122000892B09F420E0822F0895FC01A48DA80FDA
:10123000B92FB11DA35EBE4F2C91848D90E0019615
:101240008F739927848FA689B7892C93A089B18938
:101250008C91837080648C93938D848D981306C0D9
:101260000288F389E02D80818F7D80830895EF923D
:10127000FF920F931F93CF93DF93EC0181E0888F50
:101280009B8D8C8D98131AC0E889F989808185FF20
:1012900015C09FB7F894EE89FF896083E889F989C2
:1012A00080818370806480839FBF81E090E0DF91C4
:1012B000CF911F910F91FF90EF900895F62E0B8D17
:1012C00010E00F5F1F4F0F731127E02E8C8D8E11D2
:1012D0000CC00FB607FCFACFE889F989808185FF39
:1012E000F5CFCE010E941509F1CFEB8DEC0FFD2F4C
:1012F000F11DE35EFE4FF0829FB7F8940B8FEA89F1
:10130000FB8980818062CFCF0F931F93CF93DF93B0
:101310008C01D0E0C0E0F801EC0FFD1F6491662362
:1013200041F083E194E00E943709892B11F0219666
:10133000F2CFCE01DF91CF911F910F910895CF93FE
:10134000DF93EC01888D8823B9F0AA89BB89E889ED
:10135000F9898C9185FD03C0808186FD0DC00FB693
:1013600007FCF7CF8C9185FFF2CF808185FFEDCF11
:10137000CE010E941509E9CFDF91CF91089581E058
:1013800080934E0308950E940B09882319F081E091
:1013900080934E0380E090E0892B49F080E090E05C
:1013A000892B29F00E94000081110C9400000895FF
:1013B00085ED8093BC008091BC0084FDFCCF109231
:1013C0009D03089520912303260F3327331F2132D5
:1013D0003105ECF420919D03FC0190E080E0243085
:1013E00069F082E00895A09123032191AC014F5F41
:1013F0005C4FA40FB52FB11D2C930196861798F35F
:1014000080912303680F6093230380E0089581E0B7
:101410000895089508950895E091910380919003AF
:10142000E81730F4F0E0E059FC4F808190E0089537
:101430008FEF9FEF08958091900390919103891B06
:10144000990B0895CF92DF92EF92FF920F931F9323
:10145000CF93DF937C01CB018A0120919E0322234D
:1014600089F0EB016B01C40ED51ECC15DD0569F0CA
:101470006991D701ED91FC910190F081E02DC701B8
:101480000995F3CF642F0E94E209C801DF91CF9143
:101490001F910F91FF90EF90DF90CF900895CF9321
:1014A000DF931F92CDB7DEB7698320919E0322237D
:1014B000F9F02091C103203258F021E030E0FC0126
:1014C0003383228390E080E00F90DF91CF910895E5
:1014D00080919F03E82FF0E0E056FC4F99819083C4
:1014E0008F5F80939F038093C10381E090E0ECCFF6
:1014F00061E0CE0101960E94E209F7CF682F80E7F4
:1015000095E00C944F0A0F931F93CF93DF93082F0E
:10151000162FD42F88E60E94F20690E080E00E9409
:101520007E0A80919403CAE06C2F0E942A31829532
:10153000807F682F690F80E795E00E944F0A8091B5
:1015400093036C2F0E942A318295807F682F690F48
:1015500080E795E00E944F0A809192036C2F0E94D1
:101560002A318295807F682F690F80E795E00E947D
:101570004F0A81E090E00E947E0A802F6C2F0E942B
:101580002A318295807F682F690F80E795E00E945D
:101590004F0A812F6C2F0E942A318295807F682FFD
:1015A000690F80E795E00E944F0A8D2F6C2F0E94F3
:1015B0002A318295807F682F690F80E795E00E942D
:1015C0004F0ADF91CF911F910F910C94EF0690E09D
:1015D00080E008950F931F93E0911104F09112049D
:1015E0009B01AC0122503109410951098681978143
:1015F000A085B1850297A109B109281739074A07C3
:101600005B0778F4A281B0E00E941031028913894F
:1016100024893589600F711F821F931F1F910F91BD
:10162000089560E070E0CB01F9CF0F931F93CF9343
:10163000DF93EC01E0911104F091120419821882F9
:101640006C817D818E819F8161307105810591055D
:1016500081F1068117812085318560177107820726
:10166000930738F5611571058105910539F42081DD
:10167000233021F466857785808991896887798709
:101680008A879B87611571058105910569F00E9424
:10169000EA0A6C877D878E879F8790E080E0DF91E4
:1016A000CF911F910F9108956685778580899189E3
:1016B000F0CF81E090E0F3CF8EBD0DB407FEFDCFFB
:1016C00008958FEF0E945C0B8EB508950F931F93C2
:1016D000CF93DF93C0914803D09149032197CD3F29
:1016E0008FEFD80721F080E00E945C0BF7CF0E94BB
:1016F000610B8F71853079F0D1E0C0E061E084E06A
:101700000E94AC070E94610B8D2F9C2FDF91CF911F
:101710001F910F91089508E813E1C8E5D2E00E94F7
:10172000610B8F3F49F00115110531F3CE0101978F
:10173000F1F701501109F3CFD1E0C0E0012BF1F234
:10174000D0E0DCCFFF920F931F93CF93DF93C82F8E
:10175000D42F152F062FF72E8091E60381113FC05D
:1017600083E58CBD1DBCC7FF09C040E050E0BA0155
:1017700087E70E94A20B823060F5CF7761E084E0BA
:101780000E94AC070E94610B60E084E00E94AC07FD
:101790000E94610B8C2F0E945C0B8F2D0E945C0BB2
:1017A000802F0E945C0B812F0E945C0B8D2F0E946A
:1017B0005C0B85E9C03421F087E8C83409F081E08A
:1017C0000E945C0BCAE00E94610B87FF02C0C150FF
:1017D000D1F7DF91CF911F910F91FF90089580E590
:1017E0008CBD81E08DBDBFCFCF92DF92EF92FF9293
:1017F0000F931F93CF93DF937C0169018091E603E0
:1018000083FD07C089E0440F551F661F771F8A9527
:10181000D1F781E50E94A20B811108C0C0E4DCE988
:101820000E94610B8F3F29F42197D1F7C1E0D0E0EE
:1018300022C08E3FD9F7C2E0D2E0C01BD10BCC1939
:10184000DD0981E0C81AD10818F00E94610BF9CFB8
:10185000E114F10401F10E0D1F1D0E94610BF7014F
:1018600081937F010E171F07C1F70E94610B21971B
:10187000E1F7D0E0C0E061E084E00E94AC070E94A4
:10188000610BCE01DF91CF911F910F91FF90EF90EF
:10189000DF90CF9008950E94610B01501109D9F794
:1018A000E4CFCF92DF92EF92FF920F931F93CF93EB
:1018B000DF93EC016A017B0102E010E02EEF31E0E2
:1018C0000E94F40B892B31F58881998185359A4ADC
:1018D00059F526E330E0B701A601CE010E94F40BD2
:1018E000892B29F4888199818634914489F002E01A
:1018F00010E022E530E0B701A601CE010E94F40B12
:10190000892BA1F481E0288139812634314419F4EE
:1019100080E001C083E0DF91CF911F910F91FF9094
:10192000EF90DF90CF90089582E0F5CF81E0F3CF84
:101930004F925F926F927F928F929F92AF92BF92DF
:10194000CF92DF92EF92FF920F931F93CF93DF938B
:10195000CDB7DEB7A4970FB6F894DEBF0FBECDBFEC
:1019600010921204109211048091E603882339F03A
:1019700084E00E948307892B11F40E94660B61E0CA
:1019800084E00E94AC0761E084E00E94DA0761E035
:1019900085E00E94DA0761E087E00E94DA0761E0F3
:1019A00084E00E94DA0783E58CBD1DBC61E084E021
:1019B0000E94AC071AE00E94610B1150E1F740E071
:1019C00050E0BA0180E40E94A20B182F813009F484
:1019D00041C010E01093E60361E084E00E94AC0790
:1019E0000E94610B82E090E01123E9F040E050E0BA
:1019F000BA01CE0101960E94510CC12CD12C760166
:101A0000813009F096C000E110E02EEB31E040E0BB
:101A100050E0BA01CE0101960E94F40B892B09F423
:101A200078C081E090E0A4960FB6F894DEBF0FBEB8
:101A3000CDBFDF91CF911F910F91FF90EF90DF907D
:101A4000CF90BF90AF909F908F907F906F905F905E
:101A50004F9008954AEA51E060E070E088E40E9407
:101A6000A20B813091F5CE0101967C016E0195E0CB
:101A7000C90ED11C87010E94610BF80181938F016F
:101A8000CE16DF06C1F78B81813009F0A2CF8C81A1
:101A90008A3A09F09ECF80E1C82E87E2D82E98E5D9
:101AA000A92E92E0B92E40E050E060E070E489EEAB
:101AB0000E94A20B882309F4C9C0C5010197F1F760
:101AC000F1E0CF1AD10879F784CF40E050E0BA01B5
:101AD00089EE0E94A20B01E4823010F412E009EEBC
:101AE000A0E1EA2EA7E2FA2EB8E5CB2EB2E0DB2E7B
:101AF00040E050E0BA01802F0E94A20B882309F435
:101B0000BBC0C6010197F1F7F1E0EF1AF10881F7C8
:101B100060CF8D81811103C086E090E084CFC984BD
:101B2000DA84EB84FC84B701A601CE0101960E9401
:101B3000510C833009F475CF8111EECF04E210E02F
:101B40002DE030E0B701A601CE0101960E94F40B12
:101B5000892B09F066CF2A853B8550E040E02115AE
:101B600031054105510521F4288D398D4A8D5B8D54
:101B7000AC81B0E00E9410314B015C014A815B8175
:101B800070E060E0C40ED51EE61EF71EC092F103A1
:101B9000D092F203E092F303F092F403E981E09330
:101BA000E9038D819E819093EC038093EB030F8179
:101BB000188530E020E0011511052105310521F4DB
:101BC0000C891D892E893F89F4E096958795FA95B1
:101BD000E1F72C01712C612C041B150B260B370B24
:101BE000C901B801681979098A099B09641975093D
:101BF000860997092E2F30E050E040E00E944A31DC
:101C0000DA01C9010296A11DB11D8093ED039093E5
:101C1000EE03A093EF03B093F003265F3F4041092A
:101C200051092F3F3F4E4105510588F1873F9F4F96
:101C3000A105B10588F570CF82E08093E703D50157
:101C4000C4018C0D9D1DAE1DBF1D2DC040E050E098
:101C5000BA018AE70E94A20B8111BBCE0E94610BE0
:101C6000F70181937F010E171F07C1F789811CE0DF
:101C700086FDB0CE14E0AECE40E052E060E070E011
:101C800080E50E94A20B882309F4A4CEA2CE873F50
:101C90009F4FA105B10580F283E08093E70388A1FF
:101CA00099A1AAA1BBA18093F5039093F603A093F9
:101CB000F703B093F803C40CD51CE61CF71C8C0C7E
:101CC0009D1CAE1CBF1C8092F9039092FA03A09257
:101CD000FB03B092FC031092E80387EE93E090932D
:101CE00012048093110490E080E09DCE0F931F9327
:101CF000CF93DF9300D000D0CDB7DEB7623071054F
:101D00008105910528F461E070E080E090E055C025
:101D1000E0911104F091120406811781208531852C
:101D2000601771078207930770F7AB01BC018081D0
:101D3000823031F1833039F79A012F773327220F20
:101D4000331F220F331F97E0769567955795479578
:101D50009A95D1F782859385A485B585480F591F3B
:101D60006A1F7B1F04E010E0CE0101960E94F40B75
:101D7000892B49F669817A818B819C819F701DC076
:101D80009A013327220F331F452F562F672F7727AE
:101D900082859385A485B585480F591F6A1F7B1FCF
:101DA00002E010E0CE0101960E94F40B892B09F0AD
:101DB000AACF69817A8190E080E00F900F900F9018
:101DC0000F90DF91CF911F910F9108956F927F92A5
:101DD0008F929F92AF92BF92CF92DF92EF92FF923B
:101DE0000F931F93CF93DF93C0911104D0911204EE
:101DF000FC0111821082209709F4AFC0298120FFD5
:101E0000AFC00A8D1B8D2C8D3D8D4E895F89688DED
:101E1000798D68017901C41AD50AE60AF70AB70173
:101E2000A601403251056105710520F040E250E005
:101E300060E070E05C017A0136EC832E33E0932E93
:101E4000612C42E0742EE114F10409F48CC08E89F7
:101E50009F89A88DB98DAC01BD0151706627772788
:101E6000452B462B472B09F04AC0DA80DA94AC01A7
:101E7000BD0129E076956795579547952A95D1F745
:101E8000D42251F5892B8A2B8B2BD9F46E8D7F8D23
:101E900088A199A16230710581059105C8F4198264
:101EA00081E090E0DF91CF911F910F91FF90EF9033
:101EB000DF90CF90BF90AF909F908F907F906F906A
:101EC00008956AA17BA18CA19DA10E94760EE2CF0C
:101ED0006AA37BA38CA39DA36AA17BA18CA19DA1D6
:101EE0000E94EA0A6115710581059105C1F26D0D27
:101EF000711D811D911D6EA37FA388A799A72E89AF
:101F00003F893170C301821B930B67018E159F05BA
:101F100008F46C014EA15FA168A579A58601C401F2
:101F20000E94F40B892B09F0BACF8E899F89A88D66
:101F3000B98D8C0D9D1DA11DB11D8E8B9F8BA88F02
:101F4000B98F8C0C9D1CEC18FD08F50180819181E6
:101F5000C80ED91ED182C08276CF85E090E0A2CF94
:101F600084E090E09FCF90E080E09CCF4F925F9222
:101F70006F927F928F929F92AF92BF92CF92DF9299
:101F8000EF92FF92CF93DF9300D000D000D0CDB777
:101F9000DEB720911104309112043E832D83211568
:101FA000310509F40CC1D90111962C91119720FF2C
:101FB00009C15A96CD90DD90ED90FC905D976C151F
:101FC0007D058E059F0510F46B017C01ED81FE817E
:101FD00046885788608C718C168A178A108E118EED
:101FE000C114D104E104F10409F4E6C08280912C0B
:101FF000B12CA12C39E0880C991CAA1CBB1C3A9569
:10200000D1F7411451046104710409F470C0B1E0C6
:102010004B1A510861087108C701B6016150710976
:1020200081099109A50194010E944A3129833A83CB
:102030004B835C83C301B201A50194010E944A3124
:1020400089819A81AB81BC8182179307A407B50768
:1020500008F44DC088279927DC0188199909AA0935
:10206000BB0984219521A621B721ED81FE81868BB4
:10207000978BA08FB18FC81AD90AEA0AFB0A62A10E
:1020800073A184A195A18C149D04AE04BF0408F033
:1020900058C00E94760E623071058105910568F086
:1020A000AD81BE8116964D905D906D907C90199794
:1020B000641575058605970540F1ED81FE81118255
:1020C00081E090E026960FB6F894DEBF0FBECDBF3C
:1020D000DF91CF91FF90EF90DF90CF90BF90AF90C6
:1020E0009F908F907F906F905F904F900895AD81FB
:1020F000BE815E966D917D918D919C919197FD0130
:1021000062A373A384A395A3BECFAD81BE81929633
:102110006D937D938D939C93959756964D905D907E
:102120006D907C905997480C591C6A1C7B1CFD01D2
:10213000468A578A608E718EC818D908EA08FB084B
:10214000A2CFAD81BE8156968D909D90AD90BC90F2
:102150005997C80CD91CEA1CFB1CFD01C68AD78AFA
:10216000E08EF18E0E94EA0AAB01BC0141155105D7
:102170006105710529F4AD81BE8111961C92A0CF35
:10218000ED81FE8182818150990B092E000CAA0BF2
:10219000BB0B29E0F694E794D794C7942A95D1F71E
:1021A0008C219D21AE21BF21480F591F6A1F7B1F23
:1021B00046A357A360A771A790E080E083CF85E096
:1021C00090E080CF84E090E07DCF4F925F926F925D
:1021D0007F92BF92CF92DF92EF92FF920F931F9365
:1021E000CF93DF93CDB7DEB7EC970FB6F894DEBF91
:1021F0000FBECDBFE0901104F0901204E114F10481
:1022000009F404C1F70111829E012F5C3F4F3CA3EA
:102210002BA39C016901F90180812F5F3F4F803220
:10222000C9F38F3209F469011DA21EA21FA218A6CC
:10223000F6018081A0E2BA2E803208F0D4C0CE012F
:1022400081960E94150B1982009709F407C1EC963C
:102250000FB6F894DEBF0FBECDBFDF91CF911F91B7
:102260000F91FF90EF90DF90CF90BF907F906F9095
:102270005F904F90089520E0E0E088E0D1C0C30E69
:10228000D11C81E0913208F080E01B968C93CE0146
:1022900081960E94150B0097D1F629A13AA12F70C3
:1022A0003327F5E0220F331FFA95E1F74DA55EA520
:1022B0006FA578A900E210E0CE0101960E94F40B10
:1022C000892B19F081E090E0C2CF8981811103C090
:1022D00083E090E0BCCF8C8583FD13C00BA11CA1D3
:1022E0009E012F5F3F4FD801B801655F7F4F6A178E
:1022F0007B0709F4AEC0F90141919F019D914917F7
:10230000B1F309A11AA10F5F1F4F11F38DA59EA56F
:10231000AFA5B8A90097A105B105D1F298012F701A
:102320003327232BB9F40196A11DB11D8DA79EA7BC
:10233000AFA7B8AB69A57AA58BA59CA5F7016115D8
:1023400071058105910549F4848195810817190764
:1023500008F0BECF1AA309A3A0CF2281E22FE1503B
:10236000FF0BAF019801E4E036952795EA95E1F778
:1023700024233523232B71F70E94760E62307105DA
:102380008105910508F49ECFF7014680578060844F
:102390007184641575058605970508F099CF69A7BE
:1023A0007AA78BA79CA70E94EA0A6DA77EA78FA792
:1023B00098ABD0CF84FF8CCFF70180818330F1F4CC
:1023C0008D899E89B0E0A0E0DC01992788274B8D9C
:1023D0005C8D70E060E0842B952BA62BB72B8DA332
:1023E0009EA3AFA3B8A7ABA1BCA1FD01CD010B96E5
:1023F0008E179F0709F43FCFB192FACF80E090E0AB
:10240000DC01E5CF80E090E0DC013DC085E090E0BC
:102410001ECF883009F033CF9BE0282FE32F892F80
:1024200031E03E0FEC0DFD2DF11D9081913208F44D
:1024300026CF9F3209F423CF9E3259F3281708F094
:102440001ECFFD01E20FF11D9083982F81E0820FD6
:10245000E4CFF8019385992309F4ACCF89818823CF
:1024600009F436CF8C8584FD33CFE0911104F091CF
:1024700012048081833031F68D899E89B0E0A0E01E
:10248000DC01992788274B8D5C8D70E060E0842B00
:10249000952BA62BB72BF701868F978FA0A3B1A3FF
:1024A0008D8D9E8DAF8DB8A1828F938FA48FB58FA8
:1024B000168A178A108E118E81E0818390E080E069
:1024C000C6CECF93DF93D82FC0E061E08FE00E94AB
:1024D000AC0760E08FE00E94AC07CF5FDC13F5CF64
:1024E000DF91CF9108951F93CF93DF93182FD92FAA
:1024F00081E00E94611261E080915A03823009F00C
:1025000060E082E00E94AC07CFEFC1B981E282B9FE
:1025100082E00E94611211B8C2B982E00E94611289
:10252000C1B912B983E00E946112D2B982E00E945F
:10253000611211B8C2B961E080915A03823009F486
:1025400060E082E0DF91CF911F910C94AC07CF93B4
:10255000DF93D82F81E00E94611261E080915A03DD
:10256000823009F060E082E00E94AC07CFEFC1B991
:1025700086E382B982E00E94611211B8C2B982E09A
:102580000E946112C1B9D2B982E00E94611211B8F1
:10259000C2B9C0915A0361E0C23009F460E082E040
:1025A0000E94AC0783E00E94611281E00E946112E8
:1025B00061E0C23009F060E082E00E94AC07CFEF3A
:1025C000C1B983E282B982E00E94611211B8C2B936
:1025D00061E080915A03823009F460E082E00E9459
:1025E000AC0783E0DF91CF910C946112282F81E03A
:1025F000FB019191BF01992321F0921719F08F5F90
:10260000F7CF80E00895AC0180919D038111FCCF4C
:10261000962F81E080939D0380939C032FEF20935E
:102620009B0320E733E030939A03209399031092A1
:1026300098032FEF260F2093970380939603209102
:102640009603440F551F822F842B8093960380910D
:1026500095038130E9F4109295038091960380935D
:10266000BB008091BC0083FDF8CF85EC8093BC005B
:1026700080919D038130E1F380919803861710F4D7
:10268000909198031092910390939003892F08954D
:1026900085EEECCFCF9388E60E94F20690E080E0D2
:1026A0000E947E0A0E94EF0662E170E088E690E0F8
:1026B0000E9403130E940F07982F92959770CAE00B
:1026C0008F709C9F800D1124809394030E940F07AC
:1026D000982F92959F708F709C9F800D11248093EE
:1026E00093030E940F07982F929593708F709C9F71
:1026F000800D1124809392030E940F070E940F0700
:10270000982F92959F708F709C9F800D11248093BD
:102710006F030E940F07982F92959F708F709C9F58
:10272000800D112480936E030E940F07982F9295BD
:102730009F708F709C9F800D112480936D030E9469
:102740000F07C150E1F70E940F0780936C03CF91F0
:102750000895FC0101900020E9F73197AF01481B73
:10276000590BBC0183E194E00C94A7088F929F92CF
:10277000AF92BF920F931F93CF93DF93CDB7DEB786
:10278000A1970FB6F894DEBF0FBECDBF19A242309D
:1027900008F44AE08E010F5D1F4F842E912CB12C5E
:1027A000A12CA50194010E944A31E62FB901CA016A
:1027B000EA30F4F4E05DD801EE938D01232B242B55
:1027C000252B79F790E080E0109719F0CD010E9459
:1027D000A913A1960FB6F894DEBF0FBECDBFDF914F
:1027E000CF911F910F91BF90AF909F908F900895C0
:1027F000E95CE1CF009711F00C94A91390E080E020
:1028000008951F93CF93DF9300D0CDB7DEB7182F75
:1028100084E492E00E94FA13612F70E090E080E07F
:102820004AE00E94B613105D1093020180E091E02F
:102830000E94E510CE0101960E94E60E89818093E8
:102840004F03882361F08EE492E00E94FA1386EC35
:1028500093E00E94FA1381E592E00E94FA130F9030
:102860000F90DF91CF911F910895CF93C82F8A3099
:1028700020F484E592E00E94FA136C2F70E090E05F
:1028800080E04AE0CF910C94B61381110E944A1364
:1028900083E592E00E94FA1380916D030E94351443
:1028A00086E592E00E94FA1380916E030E9435142F
:1028B00086E592E00E94FA1380916F030E9435141E
:1028C0008CE492E00E94FA13809192030E943514E6
:1028D00088E592E00E94FA13809193030E943514D8
:1028E00088E592E00E94FA13809194030C943514C9
:1028F0008AE592E00C94A913CF93DF930E94840998
:10290000EC010E9478148C0F9D1FDF91CF910895E8
:1029100083E194E00E940409181619062CF483E15F
:1029200094E00E94E308F4CF82EE98E00E947C14C9
:1029300083E194E00E94040918161906CCF7089563
:10294000CF93DF93682F83E194E00E943709EC0175
:102950000E9478148C0F9D1FDF91CF910895CF9323
:10296000DF93682F70E090E080E04AE00E94B613A9
:10297000EC010E9478148C0F9D1FDF91CF91089578
:10298000CF93DF9381E592E00E94A913EC010E94AE
:1029900078148C0F9D1FDF91CF9108950F931F9393
:1029A000CF93DF93D82FC62F8A018EE799E00E943C
:1029B00084096C2F70E090E080E04AE00E94B6133A
:1029C0008EE492E00E94FA1383E699E0C330C1F0EE
:1029D00058F485E799E0C13099F08BE699E0C23070
:1029E00079F086E399E00CC08CE499E0C53041F0C1
:1029F00088E599E0C53020F08EE399E0C63089F78C
:102A00000E94840981E399E00E94840986E299E0AA
:102A1000D13031F08BE299E0D23011F481E299E0CB
:102A20000E94840986E199E00E948409011511053C
:102A300039F08CE099E00E948409C8010E94FA13E1
:102A4000DF91CF911F910F910C94C014CF93DF931E
:102A5000CDB7DEB72E970FB6F894DEBF0FBECDBF51
:102A600082E297E09A8789871C861B8682E08C83A6
:102A700083E194E09E878D87AE01495E5F4F6D894B
:102A80007E89CE0101960E94442E2E960FB6F894B0
:102A9000DEBF0FBECDBFDF91CF910895FF920F93A0
:102AA0001F93CF93DF93F42E062F10E0C82FD0E0B2
:102AB00080916B03853020F11F924F93C801880FDE
:102AC000991F880F991F84579E4F9F938F931F9232
:102AD0006F93CE018F5B9F4F9F938F9386E49AE015
:102AE0009F938F9383E194E09F938F930E94261589
:102AF0008DB79EB70C960FB6F8949EBF0FBE8DBFD4
:102B000088E40E94F206C80123E0880F991F2A95E5
:102B1000E1F7CC0FDD1F8C2B9D2B0E947E0A6F2DC1
:102B200080E795E00E944F0A81E0DF91CF911F91ED
:102B30000F91FF900C949706DF92EF92FF920F9304
:102B40001F93CF93DF93C82FD62E88E40E94F206FE
:102B50000D2D10E0D0E0980193E0220F331F9A95DD
:102B6000E1F7CE01880F991F822B932B0E947E0ADA
:102B700080E00E94970661E070E088E490E00E94A7
:102B800003130E940F077C0180916B03853020F1B5
:102B9000C70199279F938F93000F111F000F111FDB
:102BA000045B1E4F1F930F931F92DF92CF5BDF4F8B
:102BB000DF93CF9384E19AE09F938F9383E194E036
:102BC0009F938F930E9426158DB79EB70C960FB6D4
:102BD000F8949EBF0FBE8DBF8E2DDF91CF911F91B8
:102BE0000F91FF90EF90DF900895CF93DF93D82F50
:102BF00063E00E949C15807CC82FC36080916B03AA
:102C00008823B1F01F92CF931F92DF9382E89CE05C
:102C10009F938F9383E194E09F938F930E94261557
:102C20008DB79EB708960FB6F8949EBF0FBE8DBFA6
:102C30004C2F63E08D2FDF91CF910C944E150F93A5
:102C40001F93CF93DF93C82F162F80916B03833090
:102C500018F180E692E0662311F08DE592E01F9274
:102C600020E32F939F938F938C2F90E08F5B9F4F48
:102C70009F938F9386E59CE09F938F9383E194E0ED
:102C80009F938F930E9426158DB79EB70A960FB615
:102C9000F8949EBF0FBE8DBF64E08C2F0E949C15E0
:102CA000482F446064E08C2F0E944E1563E08C2F07
:102CB0000E949C15082F4FEB63E08C2F0E944E154D
:102CC00062E08C2F0E949C15D82F482F406162E053
:102CD0008C2F0E944E1540EC11114CE067E08C2FB8
:102CE0000E944E154D2F62E08C2F0E944E15402FF2
:102CF00063E08C2FDF91CF911F910F910C944E15B3
:102D00004F925F926F927F928F929F92AF92BF92FB
:102D1000CF92DF92EF92FF920F931F93CF93DF93A7
:102D2000C82F042FB52EA62E972E64E00E949C1566
:102D300024E087FF21E030E050E040E060E072EC0A
:102D400081E090E00E944A3129013A01CA01B901AB
:102D5000202F3B2D4A2D592D0E944A3169017A01BD
:102D600063E08C2F0E949C15182F482F406863E069
:102D70008C2F0E944E154C2D60E08C2F0E944E151A
:102D80004D2D61E08C2F0E944E15412F4F7763E04F
:102D90008C2F0E944E15A701960144275527C30189
:102DA000B2010E944A313901842ED52F80916B03E4
:102DB000823098F1CF5B9F92AF92BF920F931F9298
:102DC000CF9380ED99E09F938F9303E114E01F93DD
:102DD0000F930E942615DF92CF921F92CF938EEA17
:102DE00099E09F938F931F930F930E942615DF9373
:102DF0008F927F926F921F92CF938FE899E09F936B
:102E00008F931F930F930E9426158DB79EB74C96F4
:102E10000FB6F8949EBF0FBE8DBFB301882D9D2FB6
:102E2000DF91CF911F910F91FF90EF90DF90CF90A6
:102E3000BF90AF909F908F907F906F905F904F90DA
:102E40000895FC0180819181009711F00C94082E67
:102E500060E070E0CB010895FC01808191810097D2
:102E600011F00C9425320895EF92FF920F931F9367
:102E7000CF93DF93EC017B018A01888199810097D0
:102E800029F02A813B812417350788F4B8016F5F48
:102E90007F4F0E94AE32009791F0998388831B8305
:102EA0000A832C813D81232B11F4FC0110821D83A8
:102EB0000C83B701888199810E94B1330CC088814D
:102EC0009981009711F00E942532198218821D8283
:102ED0001C821B821A82CE01DF91CF911F910F912C
:102EE000FF90EF900895AF92BF92CF92DF92EF9252
:102EF000FF920F931F93CF93DF93EC016B015A0165
:102F000079012417350720F48B2D5901E42EF82E72
:102F1000198218821B821A821D821C8250E040E0B6
:102F20006CE572E0CE010E943417D60114960D9123
:102F30001C91A016B10628F5E016F10608F48701E9
:102F4000D601ED91FC911197E00FF11FF0801082F6
:102F50006D917C916A0D7B1D61157105F1F0FB018E
:102F600001900020E9F73197AF01461B570BCE01C6
:102F70000E943417F60180819181080F191FD80132
:102F8000FC92CE01DF91CF911F910F91FF90EF90B6
:102F9000DF90CF90BF90AF9008958881998100977E
:102FA00011F00E942532198218821D821C821B8218
:102FB0001A82E0CF1F93CF93DF93EC01162F0E946C
:102FC000FA30181739F0612FCE01DF91CF911F91A0
:102FD0000C940231DF91CF911F9108950C94FA3037
:102FE000CF92DF92EF92FF920F931F93CF930E94A5
:102FF0009B086B017C01C1E083E194E00E9404091D
:10300000892B09F09BC00E949B086C197D098E09D1
:103010009F09683B7B4081059105A0F462E08DE04B
:103020000E94DA078DE00E948307892B09F0C0E037
:1030300061E08DE00E94DA076AE070E080E090E0F5
:103040000E9469080E949B080091C2031091C3036B
:103050002091C4033091C503601B710B820B930B4D
:103060006D32714081059105A0F080E00E948307D8
:1030700061E0892B09F060E080E00E94AC070E94CB
:103080009B086093C2037093C3038093C40390931F
:10309000C5030E949B086C197D098E099F09693B35
:1030A0007B408105910508F4A7CFCC2309F4A4CF78
:1030B0008FE090E00E94EE17893009F49DCF60E028
:1030C00080E00E94AC0769E08FE090E00E94DA1790
:1030D00081EA9CE00E947C140E949B08C090C2037D
:1030E000D090C303E090C403F090C5036C197D0930
:1030F0008E099F09653671058105910568F380E0A9
:103100000E94830761E0892B09F060E080E00E9463
:10311000AC078DE00E94830761E0892B09F060E035
:103120008DE00E94AC070E949B086093C2037093DD
:10313000C3038093C4039093C503CECFCF911F9157
:103140000F91FF90EF90DF90CF9008959F92AF92F4
:10315000BF92CF92DF92EF92FF920F931F93CF9384
:10316000DF93CDB7DEB72D970FB6F894DEBF0FBE55
:10317000CDBF61E086E10E94DA0760E086E10E944F
:10318000AC0761E080E00E94DA0760E080E00E9426
:10319000AC0762E08DE00E94DA078DE00E948307B1
:1031A0008C0161E08DE00E94DA0761E08DE00E9411
:1031B000AC0762E081E00E94DA0761E081E00E94F2
:1031C000DA0761E081E00E94AC0761E082E00E94E2
:1031D000DA0760E083E00E94DA0762E08EE00E9496
:1031E000DA0761E08EE00E94DA0761E08EE00E947B
:1031F000AC0711B88FEF82B962E085E10E94DA076F
:1032000062E084E10E94DA0762E083E10E94DA076B
:1032100062E082E10E94DA0780E190E00E94EE170E
:1032200080935A03833038F060E080E190E00E94A0
:10323000DA1710925A038FE090E00E94EE17C12C2B
:1032400072ECD72EEE24E394F12C893050F4E82F61
:10325000F0E0EE0FFF1FE65CFE4FC080D180F12C46
:10326000E12C60E87DE88BE590E0A70196010E94E3
:103270004A312150310941095109569547953795F1
:103280002795E0912304F091240482E080832115A6
:1032900080E13807A8F0E0912304F0912404108223
:1032A00060EC76EC8DE290E0A70196010E944A3135
:1032B0002150310941095109569547953795279570
:1032C00083E1E82E84E0F82EE0911F04F0912004C1
:1032D0003083E0912104F0912204208310922B048A
:1032E000E0912704F091280486E08083E091250492
:1032F000F0912604808188698083E0912504F09113
:10330000260480818F7D80831F9288E18F9380EBDC
:1033100098E09F938F93FF92EF920E94261581E889
:1033200098E00E947C140E94781481E08F931F9291
:103330008FE498E09F938F93FF92EF920E9426155F
:1033400061E08CE00E94DA0761E08CE00E94AC074B
:1033500061E08BE00E94DA0760E08BE00E94AC073E
:1033600061E08FE00E94DA0760E086E10E94AC072E
:1033700086E00E94611261E086E10E94AC0782E073
:103380000E946112F0905A030FB6F894DEBF0FBE90
:10339000CDBFF11014C262E08AE00E94DA0761E05A
:1033A00082E00E94AC0761E087E10E94DA0760E0FA
:1033B00087E10E94AC0764E670E080E090E00E9444
:1033C000690861E087E10E94AC0764EF71E080E08A
:1033D00090E00E9469088DE090E00E94EE17823034
:1033E00028F061E08DE090E00E94DA178DE090E037
:1033F0000E94EE17809300038EE090E00E94EE178B
:1034000080936003863038F060E08EE090E00E94A8
:10341000DA171092600310929103109290031092A9
:103420009F031092C10310929D03FF24F394F09226
:103430009C031092950361E081E10E94AC0761E07A
:1034400080E10E94AC078091B9008E7F8093B90023
:103450008091B9008D7F8093B90080E78093B80098
:1034600085E48093BC0089E09AE0909322038093E6
:1034700021038AE09AE0909326038093250386E156
:103480008093B80080E20E94F2060E94EF0681114C
:103490000FC0F092610380E20E94F2068CE090E09F
:1034A0000E947E0A85E090E00E947E0A0E94EF065C
:1034B00088E40E94F2060E94EF06811190C045E563
:1034C00067E00E944E1567E080E00E949C158535FC
:1034D00009F085C04AEA67E080E00E944E1567E087
:1034E00080E00E949C158A3A09F079C045E567E0C2
:1034F00081E00E944E1567E081E00E949C158535B1
:1035000009F06DC04AEA67E081E00E944E1567E06D
:1035100081E00E949C158A3A09F061C081E08093A5
:1035200054036EE080E00E949C15482F48606EE0D6
:1035300080E00E944E1562E080E00E949C15482FBA
:10354000416062E080E00E944E1562E081E00E94EE
:103550009C15482F416062E081E00E944E1560E0BA
:1035600080E00E941F1661E080E00E941F1660E06C
:1035700081E00E941F1661E081E00E941F1640EB6F
:1035800054E060E070E080E00E94801640EB54E080
:1035900060E070E081E00E94801680E00E94F515F6
:1035A00081E00E94F51562E080E00E949C15482FA2
:1035B000426062E080E00E944E1562E081E00E947D
:1035C0009C15482F426062E081E00E944E1560E049
:1035D00080E00E949C1560E081E00E949C158FE0D5
:1035E00090E00E94EE178A3028F069E08FE090E0CA
:1035F0000E94DA1780910003882309F4F9C086E05D
:103600001F928F9380E398E09F938F93B3E1EB2E0B
:10361000B4E0FB2EFF92EF920E94261520915A03F0
:1036200080E890E002C0880F991F2A95E2F79F93E7
:103630008F938DE198E09F938F93FF92EF920E947A
:10364000261580915A030FB6F894DEBF0FBECDBF8A
:10365000813009F0CFC081E098E00E9484090E9487
:10366000781488E60E94F2060E94EF06811155C187
:1036700085E993E00E94840981E00E9445140E943C
:10368000C01480916C03282F082E000C330B3F933D
:103690008F9389E693E09F938F9383E194E09F93C8
:1036A0008F930E94261588E60E94F2068FE090E034
:1036B0000E947E0A0E94EF0661E070E088E690E0DA
:1036C0000E9403130E940F070F900F900F900F900E
:1036D0000F900F9087FFFDC028E030E046E050E0FB
:1036E00062E875E0CE0101960E947317CE01019643
:1036F0000E94211760939403CE0101960E942C171B
:1037000025E030E043E050E062E875E0CE0101964C
:103710000E947317CE0101960E94211760939303B4
:10372000CE0101960E942C1722E030E050E040E0EC
:1037300062E875E0CE0101960E947317CE010196F2
:103740000E94211760939203CE0101960E942C17CC
:1037500026E030E044E050E06CE775E0CE010196F1
:103760000E947317CE0101960E94211760936F0388
:10377000CE0101960E942C1790E080E00E94310754
:10378000EFEBE80FE33108F04CC00E2E000CFF0BFE
:10379000E453F44E0C946C31711C111C111C8B1CE5
:1037A000111C6F1C111C111C111C001C111C111C64
:1037B0007B1C891C871C111C111C111C851C61E0C1
:1037C0008AE00E94DA0760E08AE00E94AC0731E0FC
:1037D0003F1508F0E4CD60E082E00E94AC0761E0B4
:1037E00087E10E94DA0760E087E10E94AC07F3CD31
:1037F0008CE006CF823009F032CF8BEC97E02DCFF2
:1038000081E090E00E943107813609F464C082E0D3
:1038100090E00E9431078E3609F05FC086E0809309
:103820006E032BE030E049E050E06CE775E0CE013C
:1038300001960E947317CE0101960E942117609392
:103840006D03CE0101960E942C1781E593E00E9442
:103850007C1486E293E00E94840980E00E94451473
:103860008BE193E00E9484090E94F01783E194E0C9
:103870000E94E3088093FE02893731F0893521F0F8
:103880008E3611F08E3481F70E94A0148091FE02D2
:103890008F7D893589F440916D0360916E0380912D
:1038A0006F030E94830A86EF92E00E94840981E000
:1038B0000E9445140E94781488E60E94F2068FE068
:1038C00090E00E947E0A88E090E00E947E0A0E94BA
:1038D000EF0681E023C081E0A2CF87E0A0CF82E0A5
:1038E0009ECF82E090E00E943107823711F484E09D
:1038F00096CF88E094CF82E090E00E943107823733
:1039000011F483E08CCF85E08ACF89E088CF8AE00C
:1039100086CF8BE084CF8CE082CF80E08093510310
:1039200080916103882321F085EB97E00E947C144D
:1039300080915403882321F087E997E00E947C144A
:103940008CE090E00E94EE17823028F060E08CE07E
:1039500090E00E94DA178CE090E00E94EE178093CE
:1039600050038823C1F183E692E09F938F938CE705
:1039700097E09F938F9383E194E09F938F930E94AE
:1039800026158BE0E3E2F1E0DE01119601900D9245
:103990008A95E1F70E94980C0E94980C8AE090E0CA
:1039A0000E94EE178093FF020F900F900F900F90E0
:1039B0000F900F90012B19F0853008F481C183E13D
:1039C00094E00E9404091816190644F483E194E077
:1039D0000E94E308F4CF86E692E0C7CF8BE497E03D
:1039E0009F938F9303E114E01F930F930E9426157A
:1039F000E091FF020F900F900F900F90E53008F0CC
:103A0000EFC1EC0FFD2FF11D8281282F082E000C35
:103A1000330B3F938F931F9288E58F9387E297E054
:103A20009F938F931F930F930E9426150FB6F894C0
:103A3000DEBF0FBECDBF1F9282E48F9389E197E076
:103A40009F938F9303E114E01F930F930E94261519
:103A50001F9286E48F938BE097E09F938F931F9341
:103A60000F930E9426151F9284E48F9388EF96E0AF
:103A70009F938F931F930F930E942615809160034D
:103A80000E9401141F9281E48F9385EE96E09F932C
:103A90008F931F930F930E9426151F928CE48F9390
:103AA00086ED96E09F938F931F930F930E942615A8
:103AB0000FB6F894DEBF0FBECDBF80910003882300
:103AC00009F4A1C18CE01F928F931F9283E48F931E
:103AD0008BEA96E09F938F9383E194E09F938F937B
:103AE0000E9426150FB6F894DEBF0FBECDBF8091A1
:103AF0005003882309F489C186E692E09F938F934F
:103B00001F9285E48F9386E896E09F938F9383E1DD
:103B100094E09F938F930E9426158FE090E00E947F
:103B2000EE170FB6F894DEBF0FBECDBF893008F098
:103B30006FC1E82FF0E0EE0FFF1FE65CFE4F8081C3
:103B40009181B0E0A0E0BF93AF939F938F931F92BA
:103B500083E58F9382E696E09F938F9303E114E0D1
:103B60001F930F930E9426150FB6F894DEBF0FBE69
:103B7000CDBF80915103882309F44FC11F9284E582
:103B80008F9388E496E09F938F931F930F930E94E7
:103B900026150F900F900F900F900F900F9080E1CF
:103BA00090E00E94EE1720E830E002C0220F331FA1
:103BB0008A95E2F73F932F931F9282E58F938BE2D2
:103BC00096E09F938F9303E114E01F930F930E945D
:103BD000261584E196E09F938F931F930F930E9485
:103BE00026150FB6F894DEBF0FBECDBF0E94F017AA
:103BF00083E194E00E94E3080E949733182F80939A
:103C0000FE028F3309F01CC180916B038F5F80939C
:103C10006B03BE016F5F7F4F812F0E94F6128823D6
:103C200029F3812F0E94A01480916B03882391F0C7
:103C30001F928F938EEF95E09F938F9383E194E093
:103C40009F938F930E9426150F900F900F900F90C7
:103C50000F900F908091FE02853409F4ADC10CF0F5
:103C6000F5C0833409F49CC1843409F43CC1BE011D
:103C70006F5F7F4F8091FE020E94F6128250809308
:103C8000FF0290916B03992391F01F928F9386E727
:103C900095E09F938F9383E194E09F938F930E948D
:103CA00026150F900F900F900F900F900F9060912E
:103CB000FF028AE090E0653008F0E0C30E94DA1766
:103CC0008091FF02823051F488E695E00E948409D9
:103CD000809160030E9401140E9478148091FF0279
:103CE000823009F4FEC308F0CEC3882309F4E2C38E
:103CF000813009F4EDC361E080E00E94AC070091DF
:103D0000F9021091FA020115110519F1F0906B03F7
:103D100090E080E00E94731283EC0E94A712802F33
:103D20000E94A712812F0E94A712FF2091F01F93DB
:103D30000F938AE495E09F938F9383E194E09F93A0
:103D40008F930E9426150F900F900F900F900F9059
:103D50000F908091F9029091FA020E947312809163
:103D60006B038823F1F08CE295E00E948409609156
:103D7000F5027091F60290E080E04AE00E94B613EE
:103D80000E94781486E195E00E9484096091F9020E
:103D90007091FA0290E080E040E10E94B6130E9428
:103DA00078148091FF02843008F0B1C40E94980C0E
:103DB000882309F4E0C30E94980C8093F4028823BE
:103DC00009F4D9C36091F402662329F050E040E081
:103DD00080E00E94CE140E9488140E94980CEBCFC1
:103DE000BE016F5F7F4F88E50E94F612182F88236F
:103DF00009F421CE88E590E00E948F33FE01E10FA7
:103E0000F11D808318CE86E05ECE83E692E076CE0A
:103E100080E092ECA1E0B0E096CEBE016F5F7F4FF4
:103E200084E50E94F612182F882309F4B8CE84E5A1
:103E300090E00E948F33FE01E10FF11D8083AFCE31
:103E4000803209F0E6CE10926B03E3CE833509F49D
:103E5000BDC0843509F443C1823509F008CF88E735
:103E600094E00E947C1480915A0381508093FD025B
:103E700083E0C82ED12C90E8A92EB12C0CE815E0D7
:103E800023E1E22E24E0F22E8091FD028F5F90E08C
:103E9000B6010E943631982E8093FD0287E995E0A5
:103EA0000E948409C50102C0880F991F9A94E2F705
:103EB0009F938F931F930F93FF92EF920E9426156B
:103EC0000F900F900F900F900F900F9083E194E060
:103ED0000E940409181619060CF0A8C283E194E0A8
:103EE0000E94E308F3CF88E794E00E947C1480915D
:103EF000600381508093FD0206E08091FD028F5F98
:103F0000602F0E942A31192F9093FD0289EF95E0CE
:103F10000E948409812F0E94011486EE95E00E9480
:103F2000840983E194E00E940409181619062CF410
:103F300083E194E00E94E308F4CF83E194E00E94DF
:103F40000409181619061CF00E94F017F6CF83E139
:103F500094E00E94E3088093FE028D3011F08B31D3
:103F600061F682EE95E09F938F9383E194E09F93B7
:103F70008F930E9426150F900F900F900F908091B5
:103F8000FE028D3009F073CE6091FD0260936003F4
:103F90008EE090E00E94DA1784E48093FE0267CE00
:103FA00061E080910003811160E0609300038DE087
:103FB00090E00E94DA175BCE61E08091500381119E
:103FC00060E0609350038CE090E0F3CF88E794E0EA
:103FD0000E947C148FE090E00E94EE178150809345
:103FE000FD026AE0D62E06ED15E073E1E72E74E0DF
:103FF000F72E8091FD028F5F6D2D0E942A319093E4
:10400000FD02993029F1E92FF0E0EE0FFF1FE65C89
:10401000FE4F80819181B0E0A0E0BF93AF939F936A
:104020008F931F930F93FF92EF920E9426150FB666
:10403000F894DEBF0FBECDBF83E194E00E94040977
:104040001816190654F483E194E00E94E308F4CFB3
:1040500080E092ECA1E0B0E0E0CF83E194E00E9448
:104060000409181619061CF00E94F017F6CF83E118
:1040700094E00E94E3088093FE028D3019F08B31AA
:1040800009F0B7CF82ED95E09F938F9303E114E0A1
:104090001F930F930E9426150F900F900F900F9073
:1040A0008091FE028D3009F0E2CD8FE090E00E9419
:1040B000EE176091FD02861709F4D9CD8FE090E0EC
:1040C0000E94DA178CE995E09F938F931F930F93CB
:1040D0000E9426150F900F900F900F90C8CD0E9450
:1040E0004A1310925C038EE594E00E947C148FE2E8
:1040F00094E00E947C143AE0F32E46EFE42EDD2497
:10410000D3948DE294E00E94840980915C03823014
:1041100009F440C018F5882369F18130A1F10E94AB
:10412000F01783E194E00E94E308082F8093FE02D9
:10413000853709F44DC0853509F44AC0843709F440
:104140001CC3843509F419C38D3049F710915C0301
:104150006DE083E194E00E9437095EC0843089F10C
:1041600048F18530E1F681EE93E00E948409809168
:10417000940306C084E294E00E94840980916D0358
:104180000E943514CCCF8AE194E00E94840980918A
:104190006E03F6CF8CE094E00E9484096DE083E129
:1041A00094E00E94370983E094E00E9484098091A2
:1041B0006F03E6CF89EF93E00E9484098091920318
:1041C000DFCF8DEE93E00E94840980919303D8CFD6
:1041D00010915C03123009F461C0D0F5112309F489
:1041E00047C0113009F44FC0802F8F7D843509F00E
:1041F000A8C0123009F4C1C008F08BC0112309F423
:1042000099C0113009F4ADC06DE083E194E00E94E3
:1042100037090D3009F075CF1F5F10935C0316301E
:1042200008F46FCF40916D0360916E0380916F032E
:104230000E94830A81ED93E00E947C1484EB93E05A
:104240000E94840981E00E9445140E94C0140FCD91
:10425000143009F450C008F443C0153029F6809199
:1042600094038F5F8C3308F051C080939403BCCFCC
:1042700080916D038F5F843618F480936D03B4CF03
:1042800010926D03B1CF80916E038F5F8D3018F463
:1042900080936E03A9CF10936E03A6CF80916F0316
:1042A0008F5F80936F03E0916E03E23089F490E0BA
:1042B00020916D03237049F42DE130E02817390770
:1042C0000CF092CFD0926F038FCF2CE130E0F6CF7D
:1042D000F0E0E35DFE4F9081981708F085CFF2CFB4
:1042E000809192038F5F883118F4809392037CCF82
:1042F0001092920379CF809193038F5F8C3318F4DF
:104300008093930371CF109293036ECF1092940316
:104310006BCF143009F46EC008F45AC0153009F0A0
:1043200073CF20919403265F2C3308F075C020933F
:10433000940307C020916D03265F243640F4209338
:104340006D036DE083E194E00E943709DACE822F9D
:104350006F2D0E942A318E9D200D112420936D0314
:1043600053CF80916E038B3020F08A5080936E0380
:104370004BCF833030F7865FF9CF20916F03265FF4
:1043800020936F03422F50E0E0916E03F0E0E35D75
:10439000FE4F808190E030916D03337061E070E0FA
:1043A00011F070E060E0860F971F841795074CF4BA
:1043B000822F6F2D0E942A318E9D200D1124209373
:1043C0006F0380916F038111BCCFD0926F031CCF1C
:1043D00020919203265F283118F420939203B1CFE5
:1043E000822F6F2D0E942A318E9D200D1124209343
:1043F00092030ACF20919303265F2C3318F4209365
:1044000093039FCF822F6F2D0E942A318E9D200D06
:10441000112420939303F8CE822F6F2D0E942A310E
:104420008E9D200D112420939403EECE83E194E021
:104430000E940409181619061CF00E94F017F6CF06
:1044400083E194E00E94E3088093FE028D3019F02E
:104450008B3109F019CD0E9478140E947814809154
:10446000FE028D3009F003CC6091FD0260935A0387
:1044700080E190E00E94DA1788E58FCD0E94EE1768
:104480008093FF021DCC833009F472C0843009F0A0
:1044900032CCE6E6F5E0859194919093F802809312
:1044A000F7028AE692E09093F6028093F50280E1AB
:1044B0009DEF48C08AE692E09093FC028093FB0255
:1044C0001092FA021092F90281E08093590313CC02
:1044D00086E792E09093FC028093FB0280E091E0FB
:1044E00031C080916003823091F170F4882311F122
:1044F000813009F000CC8CE892E09093FC0280932C
:10450000FB0280E890E01EC0843079F118F185301C
:1045100009F0F1CB86EB92E09093FC028093FB02D2
:104520001092FA021092F90281E08093590380936D
:104530005803E1CB82E892E09093FC028093FB0267
:1045400080EE91ED9093FA028093F902D4CB87E943
:1045500092E0C0CF82EA92E09093FC028093FB024B
:104560001092FA021092F902C6CB8EEA92E0F4CFD2
:1045700080EC92E0F1CF0091FB021091FC0267E920
:1045800072E0C8010E94A833892B31F0C8010E9453
:10459000E5108093F40210C08DEC92E00E94E510CB
:1045A0008111F4CF8DEC92E09093FC028093FB029A
:1045B00060E08DE00E94AC078091F4028823E9F06E
:1045C0006091F402662339F04091FB025091FC02A5
:1045D00081E00E94CE140E9488140091FB02109189
:1045E000FC02C8010E94E5108093F402833021F39D
:1045F0000E94980C0E94980CC9CF8AEF94E00E9408
:1046000084098091FB029091FC020E94FA1385EFCD
:1046100094E00E948409CE010C960E94E60E082FB9
:104620008C8580934F030093F4021092FD02109149
:10463000FD0280914F03181758F4E12FF0E0EA5380
:10464000FC4F80810E94A7121F5F1093FD02EFCFE5
:10465000803291F40023F9F24091FB025091FC0268
:10466000602F82E00E94CE140E94881460E070E007
:10467000CB010E94B60F02C00111EECF8091F4026F
:104680008111C9CF82ED94E00E947C1460E086E144
:104690000E94AC078091B6008F7D8093B600809118
:1046A000B10081608093B1008091B100897F8093D7
:1046B000B1008091B00082608093B0008091B00022
:1046C0008E7F8093B0008091B00080648093B000B2
:1046D0008091B0008F778093B00080910003809329
:1046E000B30061E08FE00E94DA0785EB94E00E945E
:1046F0007C140E94781483E194E00E940409181647
:104700001906FCF483E194E00E94E308F4CF88EDFD
:1047100094E00E94840910E000E08091F5029091FD
:10472000F6020817190708F0ADCFE091F702F091F3
:10473000F802E00FF11F84910E94A7120F5F1F4F34
:10474000ECCF61E070E080E090E00E94690861E0F9
:1047500086E10E94AC072D960FB6F894DEBF0FBE1F
:10476000CDBFDF91CF911F910F91FF90EF90DF9020
:10477000CF90BF90AF909F90089510915C0339CD7A
:104780001F920F920FB60F9211244F935F936F9366
:104790007F938F939F93409167035091680360913B
:1047A000690370916A03809166039091650392306A
:1047B000F9F4109265038A5A8D3728F08D574F5FB0
:1047C0005F4F6F4F7F4F8093660340936703509313
:1047D00068036093690370936A039F918F917F913F
:1047E0006F915F914F910F900FBE0F901F90189592
:1047F0008B5A9F5F90936503DFCF1F920F920FB686
:104800000F9211240BB60F922F933F934F935F9308
:104810006F937F938F939F93AF93BF93EF93FF9388
:1048200083E194E00E941509FF91EF91BF91AF9150
:104830009F918F917F916F915F914F913F912F91B8
:104840000F900BBE0F900FBE0F901F9018951F92E8
:104850000F920FB60F9211240BB60F922F938F93D6
:104860009F93EF93FF93E0912304F09124048081C0
:10487000E0912904F0912A0482FD1CC0908180916E
:104880002C048F5F20912D04821741F0E0912C04BD
:10489000F0E0ED5EFB4F958F80932C04FF91EF913C
:1048A0009F918F912F910F900BBE0F900FBE0F9085
:1048B0001F9018958081F2CF1F920F920FB60F9222
:1048C00011240BB60F922F933F934F935F936F93E7
:1048D0007F938F939F93AF93BF93EF93FF938091B9
:1048E000B900887F803609F44DC008F040C0883296
:1048F00009F4A9C028F5803109F49DC0C8F48823C3
:1049000009F407C1883009F496C0FF91EF91BF9177
:10491000AF919F918F917F916F915F914F913F9157
:104920002F910F900BBE0F900FBE0F901F901895F8
:10493000883109F488C0803241F780939B0314C00A
:10494000803409F4A5C040F48033B9F38833E9F624
:1049500080939B0385ECBCC0803509F489C0883501
:1049600009F49EC0883489F60E94D809CECF8839D0
:1049700009F494C038F5883729F050F4883611F0DE
:10498000803719F683E080939D031092470357C048
:10499000883809F483C0803919F0803809F0B5CF20
:1049A00080914703803208F079C0E091470381E0AD
:1049B0008E0F809347038091BB00F0E0E95DFC4FD0
:1049C00080833DC0803B39F0E0F4803A09F485C033
:1049D000883A09F09ACF84E080939D0310922403D3
:1049E00010922303E0912103F09122030995809115
:1049F000230381110FC081E08093230310920103F0
:104A000009C0803C09F4A6CF883C09F4A3CF883BB9
:104A100009F07BCFE091240381E08E0F8093240383
:104A2000F0E0EF5FFC4F80818093BB009091240306
:104A30008091230331C0809196038093BB0085EC65
:104A40008093BC0062CF9091980380919703981750
:104A5000B8F58091990390919A03E091980321E031
:104A60002E0F20939803E80FF92FF11D8081E5CFD9
:104A70002091990330919A03E091980381E08E0F81
:104A8000809398038091BB00E20FF32FF11D808388
:104A90009091980380919703981788F285E8D0CF7A
:104AA0002091990330919A03E091980381E08E0F51
:104AB000809398038091BB00E20FF32FF11D808358
:104AC00080919C03811150CF81E08093950384EA0B
:104AD0008093BC0010929D0318CF85EC8093BC009E
:104AE00010929D0380914703803230F4E091470398
:104AF000F0E0E95DFC4F10826091470370E0E091C7
:104B00002503F091260387E293E00995109247036D
:104B1000FCCE10929B0328CFEF92FF920F931F932E
:104B2000CF93DF930097C9F0EA018C012097B1F190
:104B3000E0904803F0904903E114F10479F1F801A1
:104B400081918F010E945C0BF1E0EF1AF108F09265
:104B50004903E09248032197E9CF411551056105CA
:104B6000710529F18091E60383FD07C089E0440FB8
:104B7000551F661F771F8A95D1F788E50E94A20B03
:104B800081111DC08FEF0E945C0B8EEF0E945C0BA9
:104B900080E092E0909349038093480390E080E0A6
:104BA000DF91CF911F910F91FF90EF900895DF91CA
:104BB000CF911F910F91FF90EF900C94660B81E0C5
:104BC00090E0EECF0F931F93CF93DF93C82F162F54
:104BD000D42F80916B038330E0F01F924F931F928C
:104BE0006F938C2F90E08F5B9F4F9F938F9380EFFD
:104BF00099E09F938F9383E194E09F938F930E941A
:104C000026158DB79EB70A960FB6F8949EBF0FBEB5
:104C10008DBF63E08C2F0E949C15082F4FEB63E043
:104C20008C2F0E944E1562E08C2F0E949C15482FFD
:104C30004F7311114064D111406862E08C2F0E94C3
:104C40004E15402F63E08C2FDF91CF911F910F9174
:104C50000C944E15E3E1F4E01382128288EE93E0A7
:104C6000A0E0B0E084839583A683B78324E232E09A
:104C70003183208325EC30E03587248724EC30E035
:104C80003787268720EC30E0318B208B21EC30E019
:104C9000338B228B22EC30E0358B248B26EC30E0FA
:104CA000378B268B118E128E138E148EE0E7F5E073
:104CB0001382128284839583A683B78386E392E06E
:104CC00091838083E2E8F5E01182108213821282E0
:104CD0001582148248E050E069ED72E0CF010E9435
:104CE0003417ECE7F5E011821082138212821582EC
:104CF00014824BE050E062EE72E0CF010C94341766
:104D0000CF93DF9300D0CDB7DEB7789484B58360BE
:104D100084BD85B5836085BD80916E008160809380
:104D20006E0082E080938100809181008160809399
:104D30008100809180008160809380008091B1002B
:104D400084608093B1008091B00081608093B00056
:104D500080919100836080939100809190008160A8
:104D60008093900087E880937A001092C1000E949F
:104D7000A61883E00E948307892B29F583E10E940E
:104D80008307892B09F0AFC482E10E948307F0B04A
:104D9000F0926403882309F471C0F0921C01109210
:104DA00063031092620360E08EE00E94AC0760E053
:104DB00080E00E94AC0761E080E00E94AC0761E007
:104DC0008EE00E94AC0780911C018F3F09F053C018
:104DD000809159038823E1F080914E038823C1F02C
:104DE00080910B018823A1F083E194E00E940409E3
:104DF000181619066CF460E081E00E94AC078091FF
:104E0000530381608093530310920B0110924E0361
:104E100080915803882379F10E94160800914A0373
:104E200010914B0320914C0330914D036B017C0199
:104E3000C01AD10AE20AF30A20910F0130E0A8EE6D
:104E4000B3E00E941B316C157D058E059F0598F41B
:104E500060E081E00E94AC07809153038260809300
:104E600053030E94160860934A0370934B03809388
:104E70004C0390934D030E94C3097BCF80911C018A
:104E80008C3009F47AC108F051C0863009F40BC1A6
:104E900018F5833009F4E8C078F4882309F4D7C002
:104EA000813009F4DBC080911C018A3009F47BCF8A
:104EB0008C3009F478CFCFC2843009F4E9C0853052
:104EC00091F780916103882309F4C5C280E20E94B2
:104ED000F20690E080E0D2C0893009F4FAC080F494
:104EE000873009F4EBC08830F1F6809161038823A4
:104EF00009F4B1C280E20E94F2068DE090E0BEC0EB
:104F00008A3009F407C18B3071F6F0925D0380910D
:104F10005E0390915F038115924008F028C1FFE184
:104F2000FF1508F428C110921001BDCF823109F499
:104F3000A0C208F078C08F3009F491C280F48D309F
:104F400009F467C28E3009F0AECF8F2D8170809347
:104F50005903F1FADD24D0F8D0925803A4CF803160
:104F600009F482C2813109F09ECF809161038823C8
:104F700009F471C281E08093560311E0F11010E052
:104F80001093550380E20E94F20682E190E00E94B5
:104F90007E0A110F012F0560802F90E00E947E0A8B
:104FA0000E94EF0680E20E94F20690E080E00E94FC
:104FB0007E0A88EF90E00E947E0A0E94EF0680E25F
:104FC0000E94F20681E090E00E947E0A90E080E07C
:104FD0000E947E0A0E94EF0680E20E94F2068CE0A8
:104FE00090E00E947E0A8FEF90E00E947E0A0E946D
:104FF000EF0680E20E94F20682E190E00E947E0AC3
:10500000612F616080E795E00E944F0A0E94EF06E1
:1050100000935C0380E20E94F20682E190E00E942D
:105020007E0A602F2EC0823248F4803208F051C2CE
:10503000833109F038CFF0920E0135CF843208F475
:105040007BC28E3F09F02FCFF0926B032CCF60E034
:10505000F0FE61E08DE00E94AC0725CF6F2D83E16B
:1050600094E00E9437091FCF80916103882309F4DF
:10507000F2C180E20E94F20682E190E00E947E0A84
:105080006F2D80E795E00E944F0A0E94EF060BCF3C
:1050900080916103882309F4DEC180E20E94F20658
:1050A00083E190E0EBCF80916103882309F4D3C1C1
:1050B00080E20E94F20681E090E0E0CF80916103FF
:1050C000882309F4C8C180E20E94F2068CE090E0D7
:1050D000D5CF23E680E12F15D0F080916003805D6D
:1050E000809313018F2D6AE00E942A3190E3980F7C
:1050F0009093150160E3D62EDF0C36EF839FD00C22
:105100001124D092160181E191E00E94E510809374
:105110001001C9CE80916203909163036F2D70E0FE
:10512000009751F470935F0360935E030196909330
:10513000630380936203B7CE20915E033F2D3093CB
:105140005F0320935E0340915D032115324040F4DC
:10515000403248F4109210012FEF20931C01E6CF4B
:1051600021E1403208F022E120931001F5CF2FE138
:1051700081E12F1560F682E1CACFC0906203D09022
:105180006303C114D10419F560915E0370915F034C
:10519000611532E07307D8F480915D038032B8F472
:1051A00090911001911113C045E0660F771F4A9549
:1051B000E1F7682B90E080E059E0660F771F881FC9
:1051C000991F5A95D1F70E94B60F809310018091D4
:1051D0001001811181C08C2D8F7180935C03E82FA9
:1051E000F0E0EA53FC4FF0828F3109F075C0009176
:1051F000110410911204A12C85E00115110509F488
:1052000058C0F801818180FFD9C086FD0AC0868917
:105210009789A08DB18D88279E7F868B978BA08FD5
:10522000B18FF801828D938DA48DB58D46895789F4
:10523000608D718D841B950BA60BB70B8032910589
:10524000A105B10520F080E290E0A0E0B0E07C0193
:10525000B12CA12C36EC232E33E0332EE114F104D3
:1052600009F4AFC0F80186899789A08DB18D9C01A2
:105270003170232B09F067C092809A94AC01BD0174
:1052800029E076956795579547952A95D1F7942209
:10529000B1F5892B8A2B8B2B39F5668D778D80A103
:1052A00091A1F801623071058105910520F5118207
:1052B00081E0A0925B0380931001FFE1FA1508F4EE
:1052C00082C083E1809310012FEFC21621E0D20645
:1052D00018F08FEF80931C01FFEFCF1ADF0AD092F6
:1052E0006303C0926203DFCD62A173A184A195A183
:1052F0000E94760ED6CF62A373A384A395A3F80170
:1053000062A173A184A195A10E94EA0A61157105A9
:105310008105910511F4F801CACFAB01BC01490D1B
:10532000511D611D711DF80146A357A360A771A708
:1053300090E080E00E948C25F801892B09F0B7CF1E
:10534000818180648183F80186899789917020E04A
:1053500032E0281B390B47012E153F0508F449019F
:105360002401712C612CB301A401C1010E948C2580
:10537000F801892B09F09BCF86899789A08DB18D83
:10538000840D951DA61DB71D868B978BA08FB18FA1
:10539000280C391CE818F908A80CB91C2C01F1E0FC
:1053A0005F22452809F05ACF0E94660BF801892B2D
:1053B00009F07DCF81818F7B818350CFA12C84E048
:1053C00078CF80E076CF3FEFC31631E0D30608F404
:1053D00083CF81117ECF85E00115110569F0F801B9
:1053E000818180FF14C086FF0CC00E94660B892B50
:1053F00041F0F801118281E010925B03809310016B
:1054000068CFF80181818F7B818380E0F5CF84E0D4
:10541000F3CF2EE02F15F8F011E01F0DF11001C0B1
:1054200010E0612F609561708CE00E94AC07612FE5
:1054300062708BE00E94AC0700915A03002359F080
:10544000612F64708AE00E94AC07612F687087E169
:10545000023008F000CE8FEF80931C01A4CCFF2017
:10546000D1F3F0920F011FCD8F2D817080935703E0
:105470001ACD80915603882371F380E20E94F206D0
:1054800083E190E00E947E0A6F2D80E795E00E9404
:105490004F0A0E94EF0610915503110F80E20E94FF
:1054A000F20682E190E00E947E0A612F6C6F80E735
:1054B00095E00E944F0A0E94EF061D6F10935C0357
:1054C00080E20E94F20682E190E00E947E0A612F53
:1054D000D8CD90915403992309F4E5CC11E08032A2
:1054E00009F410E080916B038330F0F080EE8F0DB3
:1054F0008F3500F58F2D1F928F931F92FF92812F72
:1055000090E08F5B9F4F9F938F9389E79AE09F93E3
:105510008F9383E194E09F938F930E9426150FB69B
:10552000F894DEBF0FBECDBF4F2D60E0812F0E94EB
:105530004E15B9CC8EE2DFCF90915403992309F434
:10554000B2CCBB24B394823209F4B12C0F2D10E0FD
:1055500076E0159507957A95E1F75F2D5F71D52E69
:1055600090916B03923000F1823209F081C08BEB95
:105570009BE09F938F9363E1E62E64E0F62EFF920B
:10558000EF920E942615809164031F928F9383EC03
:105590009BE09F938F93FF92EF920E9426150FB688
:1055A000F894DEBF0FBECDBF8B2D90E0FC01E45F11
:1055B000FE4F7F0180818F71D81651F1E091640315
:1055C000EF7124E0E29FF0011124E453FE4F90803C
:1055D000A180C280D38080916B03823098F0DF92EB
:1055E000CF92AF929F9240EA5BE05F934F9383E14B
:1055F00094E09F938F930E9426150FB6F894DEBF18
:105600000FBECDBF492D5A2DB6018B2D0E9480169D
:10561000F701808190E056E0959587955A95E1F7DE
:105620000817190701F180916B03823008F4C3C297
:105630001F930F932EE83BE03F932F9343E1C42E3B
:1056400044E0D42EDF92CF920E9426150F900F9047
:105650000F900F900F900F900130110511F10CF089
:10566000B3C2012B41F080916403F70180831BCC0E
:1056700083EB9BE07ECF80916B03823060F084E807
:105680009BE09F938F93DF92CF920E9426150F90FD
:105690000F900F900F9040E060E08B2D0E94E2256C
:1056A000E2CF80916B038230B0F32EE63BE03F9374
:1056B0002F9383E194E09F938F93E7CF80916B03C7
:1056C000823070F08FE59BE09F938F9383E194E0AD
:1056D0009F938F930E9426150F900F900F900F901D
:1056E00041E061E0DACF84E10E948307892B09F071
:1056F00047C282E10E94830710926403882309F461
:1057000046C080916B03823070F00E94781486E46A
:105710009BE00E94840986E39BE00E9484098091BB
:1057200053030E94AF148FEF8093640383E194E0EE
:105730000E9404091816190634F583E194E00E94CA
:10574000E308809364031092520361E081E00E94B9
:10575000AC07809153038E7F8093530381E0809345
:105760000B011FEF11B98091640382B960E08EE0F4
:105770000E94AC0760E080E00E94AC070E944607F0
:1057800011B812B918CB81E080935203DECF80911B
:105790001C01883809F46FC110F5833809F4ABC0D7
:1057A00088F4813809F480C008F09AC0803809F480
:1057B0005FC080911C018D7F843899F28FEF8093B8
:1057C0001C01CFCF853809F4FDC008F4BEC086386F
:1057D00009F4FBC0873869F70E94980C7EC0843AB0
:1057E000F0F5823A08F086C18A3809F463C108F4FA
:1057F00047C1803AF0F290915403992309F478C19B
:1058000011E0803A09F410E060E0812F0E949C15BD
:10581000082F80916B038330F8F080EE800F8F3576
:1058200008F064C1802F1F928F931F920F93812FD6
:1058300090E08F5B9F4F9F938F93E9E9FAE0FF938E
:10584000EF9383E194E09F938F930E9426150FB608
:10585000F894DEBF0FBECDBF00936403AACF863A93
:1058600008F46FC18E3F09F0A4CF80916B0335C05F
:105870008DE00E948307182F80935C0362E08DE027
:105880000E94DA078DE00E94830721E0892B09F04E
:1058900020E02093640361E08DE00E94DA07612F2D
:1058A0008DE00E94AC0785CF80916103882309F4C5
:1058B00085CF80E20E94F20682E190E00E947E0A9B
:1058C0000E94EF0680E20E94F20661E070E080E252
:1058D00090E00E9403130E940F078093640369CF36
:1058E00080916103882309F469CF80E20E94F20667
:1058F00083E190E0E3CF0091510310E0000F111F0E
:10590000F090500383E194E00E94040934E01816FB
:1059100019060CF030E08091520328E0811101C09B
:1059200020E080915703F0E18F9FC0011124082BE4
:10593000F02A00915A0340E4049F80011124F02AC8
:10594000F32AF22AF092640334CF80915103882322
:10595000A9F100916203109163030115110569F427
:105960000E944A1380919403809364030F5F1F4F3A
:1059700010936303009362031CCF07301105F0F40A
:1059800080916E030430110579F368F480919203DD
:105990000230110549F380916F030330110521F3A3
:1059A00080919303E1CF80916D0305301105E1F201
:1059B00080916C0306301105B9F2F2CF8FEF80931E
:1059C0001C01F7CE8091100188CF009162031091E5
:1059D00063030115110519F560915E0370915F0372
:1059E000611552E07507D8F480915D038032B8F4F8
:1059F00090911001911113C095E0660F771F9A9551
:105A0000E1F7682B90E080E029E0660F771F881FA0
:105A1000991F2A95D1F70E94B60F809310018091AB
:105A2000100181111DC0802F8F71F82E80935C03AF
:105A300081110FC0CE0101960E94E60E99819093CC
:105A40004F039032B0F080931001809110018111CA
:105A500007C0EF2DF0E0EA53FC4F80818093640390
:105A60000F3F91E0190708F481CF8FEF80931C015D
:105A70007DCF83E1E8CF83E194E00E94D4082DCF6D
:105A800080915303809364031092530380916B03BE
:105A9000823008F493CE0E94781488E29BE00E9442
:105AA00084098BE19BE00E948409809164030E9439
:105AB000AF147FCE80915603882309F47FCE80E215
:105AC0000E94F20682E190E00E947E0A0E94EF06A8
:105AD00080E20E94F20661E070E080E290E00E94C5
