:100000000C9415060C943F060C943F060C943F0686
:100010000C943F060C943F060C943F060C943F064C
:100020000C943F060C943F060C943F060C943F063C
:100030000C943F060C943F060C943F060C943F062C
:100040000C943F060C943F060C9492220C943F06AD
:100050000C94F9220C94CF220C943F060C943F068A
:100060000C943F060C943F060C942F230C943F06EF
:100070000C943F060C943F060C943F060C943F06EC
:100080000C943F060C943F060C943F063110FD2162
:1000900052FDCDC6FECD3EFFCDF4FD3EFFBC20108F
:1000A000BD200D21D9FDCDC6FE2188FDCDC6FE7631
:1000B000E521D9FDCDC6FE2175FDCDC6FEE1CD4BB6
:1000C000FFCD3EFFCD3EFFDB01FEFF20FAE9694C8C
:1000D0006F6164202D20496E74656C2D4865782011
:1000E0004C6F61646572202D2053323030373138C7
:1000F000005374617274696E672041646472657341
:10010000733A20004C6F6164206572726F72202D0B
:100110002053797374656D2068616C746564005751
:10012000616974696E6720696E707574207374728A
:1001300065616D2E2E2E0053796E74617820657284
:10014000726F722100436865636B73756D20657211
:10015000726F722100694C6F61643A2000416464DF
:10016000726573732076696F6C6174696F6E2100BC
:10017000F5D5C501FFFF21A3FDCDC6FECD3EFFCDC8
:1001800072FFFE0D28F9FE0A28F5FE2028F1CD1A8F
:10019000FFCD69FFFE3AC2A3FECDE1FE571E00CDA2
:1001A000BEFECDD6FE3EFFB82005B92002444D7CF0
:1001B000CDBEFE7DCDBEFECDE1FECDBEFEFE01205C
:1001C0001ECDE1FECDBEFE7BA72866CD3EFF21D928
:1001D000FDCDC6FE21C9FDCDC6FE01FFFF18527A36
:1001E000A7282CCDE1FECDBEFEE5C5A701F0FCEDB4
:1001F00042C1E1DA8EFECD3EFF21D9FDCDC6FE2102
:10020000E1FDCDC6FE01FFFF182777231518D0CDDD
:10021000E1FECDBEFE7BA720B2CD3EFFC303FECDE7
:100220003EFF21D9FDCDC6FE21BBFDCDC6FE01FF9F
:10023000FFCD3EFF6069C1D1F1C9C54F7B915F79A8
:10024000C1C9F5E57EFE002806CD69FF2318F5E15A
:10025000F1C9F5CDE1FE67CDE1FE6FF1C9C5CDF481
:10026000FECB07CB07CB07CB0747CDF4FEB0C1C908
:10027000CD72FFCD1AFFCD06FF30F5CD23FFCD2E79
:10028000FFC9FE47D0FE3030023FC9FE3AD8FE41DA
:1002900030023FC937C9FE61D8FE7BD0E65FC9FE98
:1002A0003A3802D607D630E60FC9F5E60FC630FE5B
:1002B0003A3802C607CD69FFF1C9F53E0DCD69FF99
:1002C0003E0ACD69FFF1C9E5F57CCD58FF7DCD58DB
:1002D000FFF1E1C9F5C5470F0F0F0FCD2EFF78CD08
:1002E0002EFFC1F1C9F53E01D301F1D300C9DB01F5
:1002F000FEFFCA72FFC9494F533A2052544320733C
:10030000657420617420636F6D70696C6520746919
:100310006D65202D204E6F773A2000293F205B59D4
:100320002F4E5D203E000A446F20796F7520776163
:100330006E74207365742052544320617420494FB9
:100340005320636F6D70696C652074696D6520283A
:1003500000494F533A2052544320636C6F636B2023
:100360006661696C7572652100494F533A20525499
:1003700043204453333233312074656D70657261AC
:10038000747572652073656E736F723A2000494F01
:10039000533A20466F756E642052544320445333C1
:1003A000323331204D6F64756C65202800494F53FE
:1003B0003A2052544320646174652F74696D65203E
:1003C00075706461746564202800202E2E2E646F81
:1003D0006E652020202020200A005365636F6E6424
:1003E00073202D3E20004D696E75746573202D3E7F
:1003F0002000486F757273202D3E200020446179E3
:10040000202D3E20002020202020202020202020E1
:100410002020004D6F6E7468202D3E2000596561CC
:1004200072202D3E200020000A5072657373205404
:100430002F5520746F20696E6372656D656E742030
:100440002B31302F2B31206F7220435220746F20BC
:10045000616363657074000A494F533A20525443F4
:10046000206D616E75616C2073657474696E673A96
:10047000000D0A507265737320435220746F20611F
:1004800063636570742C2045534320746F20657836
:100490006974206F7220616E79206F7468657220B4
:1004A0006B657920746F206368616E676500494FE2
:1004B000533A205A38302069732072756E6E696E17
:1004C000672066726F6D206E6F770020446F6E65D7
:1004D00000494F533A204C6F6164696E6720626F28
:1004E0006F742070726F6772616D2E2E2E00292E30
:1004F0002E2E00494F533A204C6F6164696E67207D
:10050000626F6F742070726F6772616D2028004493
:10051000454255473A20426F6F7453747241646488
:1005200072203D200044454255473A20466C617395
:100530006820426F6F74496D61676553697A652001
:100540003D200044454255473A20496E6A65637430
:100550006564204A50203078008C00494F533A207F
:1005600043757272656E7420002564204B42797465
:1005700065730D000D202D3E004368616E67656454
:100580002073706565642077696C6C2062652065F6
:100590006666656374697665206166746572206E4F
:1005A000657874207265626F6F74210D0A0A0020ED
:1005B00020200D000D202D3E002020202020202076
:1005C000202020202020202020200D000D202D3E46
:1005D000003F566572626F73697479206C65766549
:1005E0006C200020204F6B00456E74657220796F7F
:1005F00075722063686F696365203E200025644B37
:1006000042797465730020413A2053657420524149
:100610004D2D73697A6520280020393A205365747E
:10062000205254432074696D652F64617465002005
:10063000383A205365742073657269616C20706F5D
:1006400072742073706565642028004F4646002050
:10065000373A20546F67676C652043502F4D204117
:1006600075746F6578656320282D3E004D487A29A2
:100670000020363A204368616E6765205A38302082
:10068000636C6F636B20737065656420282D3E007A
:1006900020353A20694C6F6164000D0A20343A20FD
:1006A0004175746F626F6F740020333A204C6F6134
:1006B000642F736574204F53200020323A20466F18
:1006C0007274680020313A204261736963002030FF
:1006D0003A204E6F206368616E6765202800494F9D
:1006E000533A2053656C65637420626F6F74206D9C
:1006F0006F6465206F722073797374656D2070610B
:1007000072616D65746572733A004F4646004F4ED4
:1007100000494F533A2043502F4D204175746F6567
:100720007865632069732000494F533A20466F75FE
:100730006E642053494F41202F2053494F42204F90
:100740007074696F6E00494F533A20466F756E643E
:1007500020475045204F7074696F6E002028435425
:10076000532C2052545320757365642061732042CA
:10077000414E4B322C2042414E4B33207369676E01
:10078000616C2C2043453220696E76657274656415
:100790002900202843545320757365642061732019
:1007A00042414E4B32207369676E616C2900494F9C
:1007B000533A2025644B42797465732052414D00B1
:1007C0004D487A00494F533A205A383020636C6FB5
:1007D000636B2073657420617420005332323037AC
:1007E00031382D523239303832332D4432383132AB
:1007F0003235202D204465632032382032303235A6
:100800002031393A34393A3436000D0A0A5A383030
:100810002D4D424332202D204130343036313820A6
:100820002D2041546D65676131323834202D2032DE
:1008300034204D487A00494F533A20436865636B32
:1008400020534420616E64207072657373206120B0
:100850006B657920746F207265706561740D0A0094
:10086000202D2046696C653A2000206F706572610A
:1008700074696F6E0052454144004F50454E004D23
:100880004F554E5400206F6E2000554E4B4E4F5723
:100890004E004E4F5F46494C4553595354454D0009
:1008A0004E4F545F454E41424C4544004E4F545FBD
:1008B0004F50454E4544004E4F5F46494C45004E13
:1008C0004F545F5245414459004449534B5F455290
:1008D00052000D0A494F533A205344206572726FFB
:1008E0007220003F3F53494F25633A20416374759E
:1008F000616C2062617564726174653A2025640DD3
:100900000A003F3F53494F25633A2043616C6375AA
:100910006C617465642064697669736F723A20252E
:10092000640D0A003F3F53494F25633A20446573E5
:10093000697265642062617564726174653A20252C
:10094000640D0A003F3F3F53494F25633A205365EA
:10095000744175746F48616E647368616B652025BE
:10096000642C2025640D0A003F3F3F3F3F53494F11
:1009700025633A20526561645265676973746572D4
:10098000203078253032582028257329207265734D
:100990003D3078253032580D0A003F3F3F3F3F53EE
:1009A000494F25633A2057726974655265676973C8
:1009B000746572203078253032582028257329201C
:1009C00076616C3D3078253032580D0A003F3F3F4C
:1009D00053494F25633A20577269746542797465AB
:1009E000203078253032582025630D0A003F3F3FE4
:1009F00053494F25633A20526561644279746520FA
:100A00003078253032582025630D0A003F3F3F3FA4
:100A100053494F25633A205278204649464F204C8F
:100A20006576656C3A2025640D0A003F3F3F3F53D1
:100A3000494F25633A205478204649464F20537049
:100A40006163653A2025640D0A00202D20697271CA
:100A5000537461747573203D200044454255473AF4
:100A600020494E542041434B206379636C6500203C
:100A70002D20696F44617461203D2000444542553A
:100A8000473A2053595349525100202D2069727121
:100A9000537461747573203D200044454255473AB4
:100AA0002053455220525800726573657276656412
:100AB0000D0A006175746F205254532F4354530D27
:100AC0000A006175746F20586F6E2F586F6666202C
:100AD000284E5949290D0A0064697361626C650DDD
:100AE0000A00202D2068616E647368616B653A208E
:100AF00025642000202D2062617564726174653A5E
:100B000020256C640D0A003F3F53494F423A003F95
:100B10003F53494F413A002073657420636F6E74F0
:100B2000726F6C3A20307825303258000000210076
:100B3000240027002A0000002200250028002B00A6
:100B40000000200023002600290002020202020207
:100B5000020204040404040404040303030303035F
:100B60000303010101010101010101020408102038
:100B70004080010204081020408001020408102077
:100B800040800102040810204080000000020300A1
:100B90000A0B000000000504090800000000000026
:100BA000000000000000000000003F3F3F53494F9D
:100BB00025633A204649464F536574547269676706
:100BC00065724C6576656C2825735F4649464F3AD9
:100BD0002026640D0A003F53494F25633A204C43B9
:100BE000522052656769737465723A2030782530F7
:100BF00032780D0A000D0A0A494F533A20426175B6
:100C000064207265636F7665727920646F6E65200B
:100C10002D20506C65617365207265626F6F742062
:100C20006E6F77210000FD24122D11241FBECFEF1F
:100C3000D0E4DEBFCDBF24E0A4EEB2E001C01D923F
:100C4000A13CB207E1F712E0A0E0B1E0EEE8F5E682
:100C500000E00BBF02C007900D92A43EB107D9F788
:100C600016E0C4E1D6E004C02197FE010E947E3068
:100C7000C331D107C9F70E9453250C94BA320C94A2
:100C80000000282F9091B60381E0913208F042C015
:100C9000809192038111FCCF8091B50332E03093B3
:100CA0009203209391032FEF2093900325E933E0E3
:100CB00030938F0320938E0310928D0390938C03B7
:100CC00010928B0390918B03880F892B80938B0359
:100CD00080918A03813029F510928A0380918B03D9
:100CE0008093BB008091BC0083FDF8CF85EC80939E
:100CF000BC00809192038230E1F3809190038F3F9A
:100D000091F080919003803281F080919003803344
:100D100071F084E0109294031092B6031092930342
:100D2000089585EEE4CF80E0F5CF82E0F3CF83E055
:100D3000F1CF81E00C94410691E09093930380936E
:100D4000B503109294031092B60308959091860310
:100D5000809185032FEF3FEF981748F4E92FF0E0DB
:100D6000EB59FC4F208130E09F5F90938603C901CF
:100D7000089590918603809185032FEF3FEF981798
:100D800048F4E92FF0E0EB59FC4F208130E09F5F01
:100D900090938603C90108952091B5043091B6045B
:100DA0008217930760F42091B1043091B2042115A9
:100DB000310529F0280F391FF9018081089580E05D
:100DC0000895FB01A485B585ED91FC9111970190E3
:100DD000F081E02D682FCD01099590E080E0089525
:100DE00087E090E00197F1F7089582508A3088F506
:100DF000E82FF0E0E250F94F0C947E3026072A07E6
:100E000008070E0729072907120718071C072207DA
:100E1000809180008F77809380000895809180007A
:100E20008F7DF9CF8091B0008F778093B0000895C7
:100E30008091B0008F7DF9CF809190008F77809363
:100E400090000895809190008F7DF9CF84B58F77C1
:100E500084BD089584B58F7DFBCFCF93DF93282F7A
:100E600030E0F901E657F44F8491F901E659F44F67
:100E7000D491F901E65BF44FC491CC23A1F0811128
:100E80000E94F506EC2FF0E0EE0FFF1FE05CF44F40
:100E9000A591B491EC91ED2381E090E009F480E01C
:100EA000DF91CF91089580E090E0FACF1F93CF9328
:100EB000DF93282F30E0F901E657F44F8491F901D0
:100EC000E659F44FD491F901E65BF44FC491CC2379
:100ED000A9F0162F81110E94F506EC2FF0E0EE0F1D
:100EE000FF1FEA5CF44FA591B4918FB7F894EC9191
:100EF000111108C0D095DE23DC938FBFDF91CF9115
:100F00001F910895DE2BF8CFCF93DF9390E0FC0183
:100F1000E659F44F2491865B944FFC018491882319
:100F2000C9F090E0880F991FFC01E45DF44FA59192
:100F3000B491FC01EA5CF44FC591D49161110DC0EC
:100F40009FB7F8948C91209582238C9388812823D5
:100F500028839FBFDF91CF910895623051F49FB7EE
:100F6000F8943C91822F809583238C93E8812E2BDB
:100F7000EFCF8FB7F894EC912E2B2C938FBFEACF45
:100F8000CF92DF92EF92FF926FB7F89480915C035B
:100F900090915D03A0915E03B0915F0350915B035C
:100FA00026B535B3432F417030FF04C041E02F3FD9
:100FB00009F440E06FBF6C017D0137E0CC0CDD1C13
:100FC000EE1CFF1C3A95D1F7C50ED11CE11CF11C9B
:100FD000C81AD90AEA0AFB0A880F991FAA1FBB1F61
:100FE000C81AD90AEA0AFB0A63E0CC0CDD1CEE1C25
:100FF000FF1C6A95D1F730E0AAEAB2E00E942D30DA
:10100000672F782F892F99276C0D7D1D8E1D9F1DB1
:10101000442321F066557D4F8F4F9F4FFF90EF90F7
:10102000DF90CF9008958F929F92AF92BF92CF9210
:10103000DF92EF92FF924B015C010E94C0076B01AF
:101040007C010E94C0076C197D098E099F09683ECA
:10105000734081059105A8F321E0821A9108A10847
:10106000B10888EEC80E83E0D81EE11CF11C811483
:101070009104A104B10429F7FF90EF90DF90CF9085
:10108000BF90AF909F908F9008952FB7F894609184
:101090005C0370915D0380915E0390915F032FBFAD
:1010A0000895AF92BF92CF92DF92EF92FF920F938B
:1010B0001F93CF93DF936C017B018B01040F151FEE
:1010C000EB015E01AE18BF08C017D10759F0699156
:1010D000D601ED91FC910190F081E02DC6010995BA
:1010E000892B79F7C501DF91CF911F910F91FF9067
:1010F000EF90DF90CF90BF90AF900895FC01538D9B
:10110000448D252F30E0842F90E0821B930B5417E1
:1011100010F0CF96089501970895FC01918D828D6E
:10112000981761F0A28DAE0FBF2FB11D5D968C9107
:10113000928D9F5F9F73928F90E008958FEF9FEF46
:101140000895FC01918D828D981731F0828DE80F02
:10115000F11D858D90E008958FEF9FEF0895FC01BC
:10116000918D228D892F90E0805C9F4F821B910989
:101170008F739927089588E094E00E94AF0821E0DA
:10118000892B09F420E0822F0895FC01A48DA80F7B
:10119000B92FB11DA35ABF4F2C91848D90E00196B9
:1011A0008F739927848FA689B7892C93A089B189D9
:1011B0008C91837080648C93938D848D981306C07A
:1011C0000288F389E02D80818F7D80830895EF92DE
:1011D000FF920F931F93CF93DF93EC0181E0888FF1
:1011E0009B8D8C8D98131AC0E889F989808185FFC1
:1011F00015C09FB7F894EE89FF896083E889F98963
:1012000080818370806480839FBF81E090E0DF9164
:10121000CF911F910F91FF90EF900895F62E0B8DB7
:1012200010E00F5F1F4F0F731127E02E8C8D8E1172
:101230000CC00FB607FCFACFE889F989808185FFD9
:10124000F5CFCE010E94C508F1CFEB8DEC0FFD2F3D
:10125000F11DE35AFF4FF0829FB7F8940B8FEA8994
:10126000FB8980818062CFCF0F931F93CF93DF9351
:101270008C01D0E0C0E0F801EC0FFD1F6491662303
:1012800041F088E094E00E94E708892B11F0219654
:10129000F2CFCE01DF91CF911F910F910895CF939F
:1012A000DF93EC01888D8823B9F0AA89BB89E8898E
:1012B000F9898C9185FD03C0808186FD0DC00FB634
:1012C00007FCF7CF8C9185FFF2CF808185FFEDCFB2
:1012D000CE010E94C508E9CFDF91CF91089585ED39
:1012E0008093BC008091BC0084FDFCCF10929203DF
:1012F000089520911903260F3327331F213231051A
:10130000ECF420919203FC0190E080E0243069F03D
:1013100082E00895A09119032191AC0149505D4FDD
:10132000A40FB52FB11D2C930196861798F38091C9
:101330001903680F6093190380E0089581E0089510
:10134000089508950895E091860380918503E81734
:1013500030F4F0E0EB59FC4F808190E008958FEF7E
:101360009FEF08958091850390918603891B990BC7
:101370000895CF92DF92EF92FF920F931F93CF9336
:10138000DF937C01CB018A0120919303222389F012
:10139000EB016B01C40ED51ECC15DD0569F069911A
:1013A000D701ED91FC910190F081E02DC7010995E5
:1013B000F3CF642F0E947909C801DF91CF911F916B
:1013C0000F91FF90EF90DF90CF900895CF93DF9330
:1013D0001F92CDB7DEB76983209193032223F9F0E2
:1013E0002091B603203258F021E030E0FC01338335
:1013F000228390E080E00F90DF91CF91089580915B
:101400009403E82FF0E0EB56FC4F998190838F5FB7
:10141000809394038093B60381E090E0ECCF61E089
:10142000CE0101960E947909F7CF682F85EA94E0F2
:101430000C94E6090F931F93CF93DF93082F162F79
:10144000D42F88E60E949C0690E080E00E94150A56
:1014500080918903CAE06C2F0E943C308295807F86
:10146000682F690F85EA94E00E94E609809188035D
:101470006C2F0E943C308295807F682F690F85EA2F
:1014800094E00E94E609809187036C2F0E943C3013
:101490008295807F682F690F85EA94E00E94E609B3
:1014A00081E090E00E94150A802F6C2F0E943C3052
:1014B0008295807F682F690F85EA94E00E94E60993
:1014C000812F6C2F0E943C308295807F682F690F9E
:1014D00085EA94E00E94E6098D2F6C2F0E943C3033
:1014E0008295807F682F690F85EA94E00E94E60963
:1014F000DF91CF911F910F910C94990690E080E0BD
:1015000008950F931F93E0910604F09107049B0147
:10151000AC01225031094109510986819781A0858A
:10152000B1850297A109B109281739074A075B0756
:1015300078F4A281B0E00E942230028913892489C4
:101540003589600F711F821F931F1F910F9108959E
:1015500060E070E0CB01F9CF0F931F93CF93DF933F
:10156000EC01E0910604F0910704198218826C8165
:101570007D818E819F81613071058105910581F1A9
:1015800006811781208531856017710782079307CF
:1015900038F5611571058105910539F420812330F5
:1015A00021F46685778580899189688779878A871C
:1015B0009B87611571058105910569F00E94810A7B
:1015C0006C877D878E879F8790E080E0DF91CF9149
:1015D0001F910F9108956685778580899189F0CF55
:1015E00081E090E0F3CF8EBD0DB407FEFDCF0895EE
:1015F0008FEF0E94F30A8EB508950F931F93CF9338
:10160000DF93C0913E03D0913F032197CD3F8FEFF1
:10161000D80721F080E00E94F30AF7CF0E94F80A71
:101620008F71853079F0D1E0C0E061E084E00E9404
:1016300056070E94F80A8D2F9C2FDF91CF911F91A2
:101640000F91089508E813E1C8E5D2E00E94F80A76
:101650008F3F49F00115110531F3CE010197F1F7E4
:1016600001501109F3CFD1E0C0E0012BF1F2D0E03D
:10167000DCCFFF920F931F93CF93DF93C82FD42F0C
:10168000152F062FF72E8091DB0381113FC083E5D4
:101690008CBD1DBCC7FF09C040E050E0BA0187E720
:1016A0000E94390B823060F5CF7761E084E00E94C0
:1016B00056070E94F80A60E084E00E9456070E94E4
:1016C000F80A8C2F0E94F30A8F2D0E94F30A802FB4
:1016D0000E94F30A812F0E94F30A8D2F0E94F30AC1
:1016E00085E9C03421F087E8C83409F081E00E9420
:1016F000F30ACAE00E94F80A87FF02C0C150D1F77E
:10170000DF91CF911F910F91FF90089580E58CBDDF
:1017100081E08DBDBFCFCF92DF92EF92FF920F930A
:101720001F93CF93DF937C0169018091DB0383FDDD
:1017300007C089E0440F551F661F771F8A95D1F7B0
:1017400081E50E94390B811108C0C0E4DCE90E94E8
:10175000F80A8F3F29F42197D1F7C1E0D0E022C0E9
:101760008E3FD9F7C2E0D2E0C01BD10BCC19DD0906
:1017700081E0C81AD10818F00E94F80AF9CFE114E4
:10178000F10401F10E0D1F1D0E94F80AF70181936B
:101790007F010E171F07C1F70E94F80A2197E1F792
:1017A000D0E0C0E061E084E00E9456070E94F80AA1
:1017B000CE01DF91CF911F910F91FF90EF90DF90BD
:1017C000CF9008950E94F80A01501109D9F7E4CF8B
:1017D000CF92DF92EF92FF920F931F93CF93DF93FD
:1017E000EC016A017B0102E010E02EEF31E00E9483
:1017F0008B0B892B31F58881998185359A4A59F56A
:1018000026E330E0B701A601CE010E948B0B892BA5
:1018100029F4888199818634914489F002E010E0AE
:1018200022E530E0B701A601CE010E948B0B892B87
:10183000A1F481E0288139812634314419F480E013
:1018400001C083E0DF91CF911F910F91FF90EF9046
:10185000DF90CF90089582E0F5CF81E0F3CF4F92F3
:101860005F926F927F928F929F92AF92BF92CF9230
:10187000DF92EF92FF920F931F93CF93DF93CDB739
:10188000DEB7A4970FB6F894DEBF0FBECDBF10929F
:101890000704109206048091DB03882339F084E06A
:1018A0000E942D07892B11F40E94FD0A61E084E05B
:1018B0000E94560761E084E00E94840761E085E0B1
:1018C0000E94840761E087E00E94840761E084E071
:1018D0000E94840783E58CBD1DBC61E084E00E940A
:1018E00056071AE00E94F80A1150E1F740E050E074
:1018F000BA0180E40E94390B182F813009F441C0ED
:1019000010E01093DB0361E084E00E9456070E9420
:10191000F80A82E090E01123E9F040E050E0BA01DB
:10192000CE0101960E94E80BC12CD12C76018130AA
:1019300009F096C000E110E02EEB31E040E050E00D
:10194000BA01CE0101960E948B0B892B09F478C055
:1019500081E090E0A4960FB6F894DEBF0FBECDBF35
:10196000DF91CF911F910F91FF90EF90DF90CF907B
:10197000BF90AF909F908F907F906F905F904F90AF
:1019800008954AEA51E060E070E088E40E94390B73
:10199000813091F5CE0101967C016E0195E0C90E72
:1019A000D11C87010E94F80AF80181938F01CE169D
:1019B000DF06C1F78B81813009F0A2CF8C818A3A92
:1019C00009F09ECF80E1C82E87E2D82E98E5A92E97
:1019D00092E0B92E40E050E060E070E489EE0E94B1
:1019E000390B882309F4C9C0C5010197F1F7F1E06B
:1019F000CF1AD10879F784CF40E050E0BA0189EEE0
:101A00000E94390B01E4823010F412E009EEA0E1EB
:101A1000EA2EA7E2FA2EB8E5CB2EB2E0DB2E40E0AC
:101A200050E0BA01802F0E94390B882309F4BBC013
:101A3000C6010197F1F7F1E0EF1AF10881F760CFE5
:101A40008D81811103C086E090E084CFC984DA845F
:101A5000EB84FC84B701A601CE0101960E94E80B3D
:101A6000833009F475CF8111EECF04E210E02DE050
:101A700030E0B701A601CE0101960E948B0B892BA5
:101A800009F066CF2A853B8550E040E021153105FD
:101A90004105510521F4288D398D4A8D5B8DAC812E
:101AA000B0E00E9422304B015C014A815B8170E012
:101AB00060E0C40ED51EE61EF71EC092E603D0926B
:101AC000E703E092E803F092E903E981E093DE03A3
:101AD0008D819E819093E1038093E0030F811885AF
:101AE00030E020E0011511052105310521F40C89B4
:101AF0001D892E893F89F4E096958795FA95E1F73F
:101B00002C01712C612C041B150B260B370BC90102
:101B1000B801681979098A099B0964197509860948
:101B200097092E2F30E050E040E00E945C30DA014F
:101B3000C9010296A11DB11D8093E2039093E303B6
:101B4000A093E403B093E503265F3F4041095109A8
:101B50002F3F3F4E4105510588F1873F9F4FA1051B
:101B6000B10588F570CF82E08093DC03D501C40114
:101B70008C0D9D1DAE1DBF1D2DC040E050E0BA0173
:101B80008AE70E94390B8111BBCE0E94F80AF70147
:101B900081937F010E171F07C1F789811CE086FD25
:101BA000B0CE14E0AECE40E052E060E070E080E500
:101BB0000E94390B882309F4A4CEA2CE873F9F4F01
:101BC000A105B10580F283E08093DC0388A199A18F
:101BD000AAA1BBA18093EA039093EB03A093EC032B
:101BE000B093ED03C40CD51CE61CF71C8C0C9D1C9B
:101BF000AE1CBF1C8092EE039092EF03A092F00304
:101C0000B092F1031092DD038CED93E09093070402
:101C10008093060490E080E09DCE0F931F93CF93B6
:101C2000DF9300D000D0CDB7DEB7623071058105FB
:101C3000910528F461E070E080E090E055C0E0910B
:101C40000604F0910704068117812085318560170D
:101C500071078207930770F7AB01BC018081823066
:101C600031F1833039F79A012F773327220F331F51
:101C7000220F331F97E076956795579547959A956C
:101C8000D1F782859385A485B585480F591F6A1FB2
:101C90007B1F04E010E0CE0101960E948B0B892B84
:101CA00049F669817A818B819C819F701DC09A0160
:101CB0003327220F331F452F562F672F7727828513
:101CC0009385A485B585480F591F6A1F7B1F02E0C5
:101CD00010E0CE0101960E948B0B892B09F0AACF50
:101CE00069817A8190E080E00F900F900F900F90C3
:101CF000DF91CF911F910F9108956F927F928F92F4
:101D00009F92AF92BF92CF92DF92EF92FF920F938A
:101D10001F93CF93DF93C0910604D0910704FC0179
:101D200011821082209709F4AFC0298120FFAFC033
:101D30000A8D1B8D2C8D3D8D4E895F89688D798D27
:101D400068017901C41AD50AE60AF70AB701A601A3
:101D5000403251056105710520F040E250E060E03D
:101D600070E05C017A013BEB832E33E0932E612C13
:101D700042E0742EE114F10409F48CC08E899F892D
:101D8000A88DB98DAC01BD01517066277727452B11
:101D9000462B472B09F04AC0DA80DA94AC01BD012A
:101DA00029E076956795579547952A95D1F7D422DE
:101DB00051F5892B8A2B8B2BD9F46E8D7F8D88A1C1
:101DC00099A16230710581059105C8F4198281E0FD
:101DD00090E0DF91CF911F910F91FF90EF90DF90F6
:101DE000CF90BF90AF909F908F907F906F9008950D
:101DF0006AA17BA18CA19DA10E940D0EE2CF6AA3D6
:101E00007BA38CA39DA36AA17BA18CA19DA10E9411
:101E1000810A6115710581059105C1F26D0D711D74
:101E2000811D911D6EA37FA388A799A72E893F8945
:101E30003170C301821B930B67018E159F0508F457
:101E40006C014EA15FA168A579A58601C4010E941D
:101E50008B0B892B09F0BACF8E899F89A88DB98DFC
:101E60008C0D9D1DA11DB11D8E8B9F8BA88FB98FD1
:101E70008C0C9D1CEC18FD08F50180819181C80E29
:101E8000D91ED182C08276CF85E090E0A2CF84E0D7
:101E900090E09FCF90E080E09CCF4F925F926F9256
:101EA0007F928F929F92AF92BF92CF92DF92EF92EA
:101EB000FF92CF93DF9300D000D000D0CDB7DEB734
:101EC00020910604309107043E832D8321153105AE
:101ED00009F40CC1D90111962C91119720FF09C169
:101EE0005A96CD90DD90ED90FC905D976C157D0538
:101EF0008E059F0510F46B017C01ED81FE81468803
:101F00005788608C718C168A178A108E118EC114B6
:101F1000D104E104F10409F4E6C08280912CB12CD3
:101F2000A12C39E0880C991CAA1CBB1C3A95D1F74E
:101F3000411451046104710409F470C0B1E04B1AFA
:101F4000510861087108C701B60161507109810922
:101F50009109A50194010E945C3029833A834B8347
:101F60005C83C301B201A50194010E945C308981A8
:101F70009A81AB81BC8182179307A407B50708F447
:101F80004DC088279927DC0188199909AA09BB093E
:101F900084219521A621B721ED81FE81868B978B27
:101FA000A08FB18FC81AD90AEA0AFB0A62A173A1ED
:101FB00084A195A18C149D04AE04BF0408F058C000
:101FC0000E940D0E623071058105910568F0AD81AA
:101FD000BE8116964D905D906D907C90199764151A
:101FE00075058605970540F1ED81FE81118281E03E
:101FF00090E026960FB6F894DEBF0FBECDBFDF91FE
:10200000CF91FF90EF90DF90CF90BF90AF909F90D7
:102010008F907F906F905F904F900895AD81BE81BB
:102020005E966D917D918D919C919197FD0162A33A
:1020300073A384A395A3BECFAD81BE8192966D9309
:102040007D938D939C93959756964D905D906D9052
:102050007C905997480C591C6A1C7B1CFD01468AD0
:10206000578A608E718EC818D908EA08FB08A2CF7B
:10207000AD81BE8156968D909D90AD90BC90599744
:10208000C80CD91CEA1CFB1CFD01C68AD78AE08E4D
:10209000F18E0E94810AAB01BC0141155105610519
:1020A000710529F4AD81BE8111961C92A0CFED81FE
:1020B000FE8182818150990B092E000CAA0BBB0B6B
:1020C00029E0F694E794D794C7942A95D1F78C2108
:1020D0009D21AE21BF21480F591F6A1F7B1F46A3B8
:1020E00057A360A771A790E080E083CF85E090E0E0
:1020F00080CF84E090E07DCF4F925F926F927F928D
:10210000BF92CF92DF92EF92FF920F931F93CF93E4
:10211000DF93CDB7DEB7EC970FB6F894DEBF0FBEF6
:10212000CDBFE0900604F0900704E114F10409F437
:1021300004C1F70111829E012F5C3F4F3CA32BA3EA
:102140009C016901F90180812F5F3F4F8032C9F303
:102150008F3209F469011DA21EA21FA218A6F60162
:102160008081A0E2BA2E803208F0D4C0CE018196E0
:102170000E94AC0A1982009709F407C1EC960FB6C9
:10218000F894DEBF0FBECDBFDF91CF911F910F91AD
:10219000FF90EF90DF90CF90BF907F906F905F9017
:1021A0004F90089520E0E0E088E0D1C0C30ED11C3C
:1021B00081E0913208F080E01B968C93CE018196ED
:1021C0000E94AC0A0097D1F629A13AA12F703327BB
:1021D000F5E0220F331FFA95E1F74DA55EA56FA537
:1021E00078A900E210E0CE0101960E948B0B892BAA
:1021F00019F081E090E0C2CF8981811103C083E0B2
:1022000090E0BCCF8C8583FD13C00BA11CA19E0167
:102210002F5F3F4FD801B801655F7F4F6A177B077B
:1022200009F4AEC0F90141919F019D914917B1F3A5
:1022300009A11AA10F5F1F4F11F38DA59EA5AFA590
:10224000B8A90097A105B105D1F298012F703327E5
:10225000232BB9F40196A11DB11D8DA79EA7AFA791
:10226000B8AB69A57AA58BA59CA5F7016115710589
:102270008105910549F4848195810817190708F0B3
:10228000BECF1AA309A3A0CF2281E22FE150FF0BFA
:10229000AF019801E4E036952795EA95E1F724230C
:1022A0003523232B71F70E940D0E623071058105D5
:1022B000910508F49ECFF7014680578060847184B1
:1022C000641575058605970508F099CF69A77AA763
:1022D0008BA79CA70E94810A6DA77EA78FA798ABAA
:1022E000D0CF84FF8CCFF70180818330F1F48D89CA
:1022F0009E89B0E0A0E0DC01992788274B8D5C8D9A
:1023000070E060E0842B952BA62BB72B8DA39EA3AA
:10231000AFA3B8A7ABA1BCA1FD01CD010B968E1751
:102320009F0709F43FCFB192FACF80E090E0DC0143
:10233000E5CF80E090E0DC013DC085E090E01ECF7D
:10234000883009F033CF9BE0282FE32F892F31E02D
:102350003E0FEC0DFD2DF11D9081913208F426CF3A
:102360009F3209F423CF9E3259F3281708F01ECF6D
:10237000FD01E20FF11D9083982F81E0820FE4CFE1
:10238000F8019385992309F4ACCF8981882309F456
:1023900036CF8C8584FD33CFE0910604F09107049D
:1023A0008081833031F68D899E89B0E0A0E0DC0128
:1023B000992788274B8D5C8D70E060E0842B952BEE
:1023C000A62BB72BF701868F978FA0A3B1A38D8D76
:1023D0009E8DAF8DB8A1828F938FA48FB58F168AF3
:1023E000178A108E118E81E0818390E080E0C6CE46
:1023F000CF93DF93D82FC0E061E08FE00E945607B3
:1024000060E08FE00E945607CF5FDC13F5CFDF91CD
:10241000CF9108951F93CF93DF93182FD92F81E089
:102420000E94F81161E080914F03823009F060E072
:1024300082E00E945607CFEFC1B981E282B982E003
:102440000E94F81111B8C2B982E00E94F811C1B916
:1024500012B983E00E94F811D2B982E00E94F8110B
:1024600011B8C2B961E080914F03823009F460E095
:1024700082E0DF91CF911F910C945607CF93DF93A9
:10248000D82F81E00E94F81161E080914F038230E3
:1024900009F060E082E00E945607CFEFC1B986E301
:1024A00082B982E00E94F81111B8C2B982E00E949C
:1024B000F811C1B9D2B982E00E94F81111B8C2B9BD
:1024C000C0914F0361E0C23009F460E082E00E94F5
:1024D000560783E00E94F81181E00E94F81161E044
:1024E000C23009F060E082E00E945607CFEFC1B928
:1024F00083E282B982E00E94F81111B8C2B961E0AA
:1025000080914F03823009F460E082E00E94560718
:1025100083E0DF91CF910C94F81188E094E00E9461
:10252000AF08181619069CF480914E03813079F497
:1025300080910B01882359F060E081E00E945607EA
:102540008091480381608093480310920B010895A5
:102550000E94BB0881110E948D1280E090E0892BBF
:1025600049F080E090E0892B29F00E940000811161
:102570000C9400000895AC01809192038111FCCF6E
:10258000962F81E080939203809391032FEF209305
:10259000900325E633E030938F0320938E0310924F
:1025A0008D032FEF260F20938C0380938B032091B4
:1025B0008B03440F551F822F842B80938B038091B4
:1025C0008A038130E9F410928A0380918B0380930F
:1025D000BB008091BC0083FDF8CF85EC8093BC00EC
:1025E000809192038130E1F380918D03861710F47E
:1025F00090918D031092860390938503892F0895FF
:1026000085EEECCFCF9388E60E949C0690E080E0B8
:102610000E94150A0E94990662E170E088E690E047
:102620000E94BB120E94B906982F92959770CAE03B
:102630008F709C9F800D1124809389030E94B9069E
:10264000982F92959F708F709C9F800D112480937E
:1026500088030E94B906982F929593708F709C9F63
:10266000800D1124809387030E94B9060E94B90649
:10267000982F92959F708F709C9F800D112480934E
:1026800064030E94B906982F92959F708F709C9F4B
:10269000800D1124809363030E94B906982F9295B0
:1026A0009F708F709C9F800D1124809362030E9405
:1026B000B906C150E1F70E94B90680936103CF913A
:1026C0000895FC0101900020E9F73197AF01481B04
:1026D000590BBC0188E094E00C9451088F929F92B2
:1026E000AF92BF920F931F93CF93DF93CDB7DEB717
:1026F000A1970FB6F894DEBF0FBECDBF19A242302E
:1027000008F44AE08E010F5D1F4F842E912CB12CEE
:10271000A12CA50194010E945C30E62FB901CA01E9
:10272000EA30F4F4E05DD801EE938D01232B242BE5
:10273000252B79F790E080E0109719F0CD010E94E9
:102740006113A1960FB6F894DEBF0FBECDBFDF9127
:10275000CF911F910F91BF90AF909F908F90089550
:10276000E95CE1CFCF92DF92EF92FF92CF93DF93BC
:102770006C01990FEE08FF08F7FE19C06DE288E0C2
:1027800094E00E94E708EC0166277727CB016C19DB
:102790007D098E099F094AE00E946E138C0F9D1FD0
:1027A000DF91CF91FF90EF90DF90CF9008954AE0B6
:1027B000C701B601DF91CF91FF90EF90DF90CF90EE
:1027C0000C946E13009711F00C94611390E080E06C
:1027D00008951F93CF93DF9300D0CDB7DEB7182FA6
:1027E00089E392E00E94E213612F70E090E080E0C4
:1027F0004AE00E946E13105D1093020180E091E0A8
:102800000E947C10CE0101960E947D0E89818093EA
:102810004403882361F083E492E00E94E2138BEB8F
:1028200093E00E94E21386E492E00E94E2130F908C
:102830000F90DF91CF911F910895CF93C82F8A30C9
:1028400020F489E492E00E94E2136C2F70E090E0A3
:1028500080E04AE0CF910C946E1381110E94021324
:1028600088E492E00E94E213809162030E941D14AA
:102870008BE492E00E94E213809163030E941D1496
:102880008BE492E00E94E213809164030E941D1485
:1028900081E492E00E94E213809187030E941D145C
:1028A0008DE492E00E94E213809188030E941D143F
:1028B0008DE492E00E94E213809189030C941D1430
:1028C0008FE492E00C946113CF93DF930E9434095C
:1028D000EC010E9460148C0F9D1FDF91CF91089531
:1028E00088E094E00E94AF08181619062CF488E0DE
:1028F00094E00E948D08F4CF86E398E00E9464146F
:1029000088E094E00E94AF0818161906CCF70895E5
:10291000CF93DF93682F70E090E080E04AE00E9460
:102920006E13EC010E9460148C0F9D1FDF91CF91FC
:102930000895CF93DF930E946113EC010E9460140D
:102940008C0F9D1FDF91CF9108950F931F93CF930D
:10295000DF93D82FC62F8A0182ED98E00E943409B8
:102960006C2F70E090E080E04AE00E946E1383E4F8
:1029700092E00E94E21387EB98E0C330C1F058F474
:1029800089EC98E0C13099F08FEB98E0C23079F093
:102990008AE898E00CC080EA98E0C53041F08CEA03
:1029A00098E0C53020F082E998E0C63089F70E94AF
:1029B000340985E898E00E9434098AE798E0D1302C
:1029C00031F08FE798E0D23011F485E798E00E946B
:1029D00034098AE698E00E9434090115110539F09E
:1029E00080E698E00E943409C8010E94E21386E460
:1029F00092E0DF91CF911F910F910C949914CF9396
:102A0000DF93CDB7DEB72E970FB6F894DEBF0FBEBB
:102A1000CDBF81EE96E09A8789871C861B8682E06F
:102A20008C8388E094E09E878D87AE01495E5F4F7E
:102A30006D897E89CE0101960E94562D2E960FB685
:102A4000F894DEBF0FBECDBFDF91CF910895FF9206
:102A50000F931F93CF93DF93F42E062F10E0C82F10
:102A6000D0E080916003853020F11F924F93C80120
:102A7000880F991F880F991F8F579E4F9F938F9391
:102A80001F926F93CE018F5B9F4F9F938F938AE925
:102A900099E09F938F9388E094E09F938F930E9497
:102AA000FF148DB79EB70C960FB6F8949EBF0FBE5D
:102AB0008DBF88E40E949C06C80123E0880F991FFF
:102AC0002A95E1F7CC0FDD1F8C2B9D2B0E94150A58
:102AD0006F2D85EA94E00E94E60981E0DF91CF91B5
:102AE0001F910F91FF900C944106DF92EF92FF929D
:102AF0000F931F93CF93DF93C82FD62E88E40E94A5
:102B00009C060D2D10E0D0E0980193E0220F331FBA
:102B10009A95E1F7CE01880F991F822B932B0E9483
:102B2000150A80E00E94410661E070E088E490E0D0
:102B30000E94BB120E94B9067C018091600385301F
:102B400020F1C70199279F938F93000F111F000F4A
:102B5000111F0F5B1E4F1F930F931F92DF92CF5BCE
:102B6000DF4FDF93CF9388E699E09F938F9388E0C0
:102B700094E09F938F930E94FF148DB79EB70C969D
:102B80000FB6F8949EBF0FBE8DBF8E2DDF91CF91F3
:102B90001F910F91FF90EF90DF900895CF93DF93F7
:102BA000D82F63E00E947515807CC82FC360809188
:102BB00060038823B1F01F92CF931F92DF9386EDBD
:102BC0009BE09F938F9388E094E09F938F930E9464
:102BD000FF148DB79EB708960FB6F8949EBF0FBE30
:102BE0008DBF4C2F63E08D2FDF91CF910C94271573
:102BF0000F931F93CF93DF93C82F162F80916003FD
:102C0000833018F185E592E0662311F082E592E0C9
:102C10001F9220E32F939F938F938C2F90E08F5BD5
:102C20009F4F9F938F938AEA9BE09F938F9388E0B7
:102C300094E09F938F930E94FF148DB79EB70A96DE
:102C40000FB6F8949EBF0FBE8DBF64E08C2F0E941C
:102C50007515482F446064E08C2F0E94271563E0AF
:102C60008C2F0E947515082F4FEB63E08C2F0E946C
:102C7000271562E08C2F0E947515D82F482F4061D0
:102C800062E08C2F0E94271540EC11114CE067E0A8
:102C90008C2F0E9427154D2F62E08C2F0E94271544
:102CA000402F63E08C2FDF91CF911F910F910C94F7
:102CB00027154F925F926F927F928F929F92AF9261
:102CC000BF92CF92DF92EF92FF920F931F93CF9319
:102CD000DF93C82F042FB52EA62E972E64E00E94F6
:102CE000751524E087FF21E030E050E040E060E02F
:102CF00072EC81E090E00E945C3029013A01CA0147
:102D0000B901202F3B2D4A2D592D0E945C306901BD
:102D10007A0163E08C2F0E947515182F482F4068A8
:102D200063E08C2F0E9427154C2D60E08C2F0E94B1
:102D300027154D2D61E08C2F0E942715412F4F77CD
:102D400063E08C2F0E942715A70196014427552781
:102D5000C301B2010E945C303901842ED52F8091CD
:102D60006003823098F1CF5B9F92AF92BF920F9336
:102D70001F92CF9384E299E09F938F9308E014E031
:102D80001F930F930E94FF14DF92CF921F92CF9355
:102D900082E099E09F938F931F930F930E94FF14FB
:102DA000DF938F927F926F921F92CF9383EE98E082
:102DB0009F938F931F930F930E94FF148DB79EB71D
:102DC0004C960FB6F8949EBF0FBE8DBFB301882DF1
:102DD0009D2FDF91CF911F910F91FF90EF90DF908A
:102DE000CF90BF90AF909F908F907F906F905F90AB
:102DF0004F900895FC0180819181009711F00C940F
:102E00001A2D60E070E0CB010895FC018081918172
:102E1000009711F00C9437310895EF92FF920F93C1
:102E20001F93CF93DF93EC017B018A018881998105
:102E3000009729F02A813B812417350788F4B801CF
:102E40006F5F7F4F0E94C031009791F09983888314
:102E50001B830A832C813D81232B11F4FC011082FA
:102E60001D830C83B701888199810E94B3320CC005
:102E700088819981009711F00E9437311982188258
:102E80001D821C821B821A82CE01DF91CF911F917D
:102E90000F91FF90EF900895AF92BF92CF92DF9283
:102EA000EF92FF920F931F93CF93DF93EC016B018F
:102EB0005A0179012417350720F48B2D5901E42E8E
:102EC000F82E198218821B821A821D821C8250E001
:102ED00040E061E572E0CE010E940D17D601149624
:102EE0000D911C91A016B10628F5E016F10608F424
:102EF0008701D601ED91FC911197E00FF11FF08051
:102F000010826D917C916A0D7B1D61157105F1F048
:102F1000FB0101900020E9F73197AF01461B570BE9
:102F2000CE010E940D17F60180819181080F191FB3
:102F3000D801FC92CE01DF91CF911F910F91FF90AC
:102F4000EF90DF90CF90BF90AF90089588819981E6
:102F5000009711F00E943731198218821D821C825D
:102F60001B821A82E0CF1F93CF93DF93EC01162FC1
:102F70000E940C30181739F0612FCE01DF91CF91EC
:102F80001F910C941430DF91CF911F9108950C94F0
:102F90000C30CF92DF92EF92FF920F931F93CF935B
:102FA0000E9445086B017C01C1E088E094E00E942A
:102FB000AF08892B09F09BC00E9445086C197D0958
:102FC0008E099F09683B7B4081059105A0F462E072
:102FD0008DE00E9484078DE00E942D07892B09F067
:102FE000C0E061E08DE00E9484076AE070E080E06C
:102FF00090E00E9413080E9445080091B7031091C9
:10300000B8032091B9033091BA03601B710B820B96
:10301000930B6D32714081059105A0F080E00E9414
:103020002D0761E0892B09F060E080E00E945607DF
:103030000E9445086093B7037093B8038093B90367
:103040009093BA030E9445086C197D098E099F0967
:10305000693B7B408105910508F4A7CFCC2309F497
:10306000A4CF8FE090E00E94C717893009F49DCF6C
:1030700060E080E00E94560769E08FE090E00E94E7
:10308000B31785EF9BE00E9464140E944508C0902E
:10309000B703D090B803E090B903F090BA036C196D
:1030A0007D098E099F09653671058105910568F3D3
:1030B00080E00E942D0761E0892B09F060E080E04C
:1030C0000E9456078DE00E942D0761E0892B09F0D0
:1030D00060E08DE00E9456070E9445086093B703A8
:1030E0007093B8038093B9039093BA03CECFCF9176
:1030F0001F910F91FF90EF90DF90CF9008959F92D6
:10310000AF92BF92CF92DF92EF92FF920F931F93F5
:10311000CF93DF9300D000D000D0CDB7DEB761E011
:1031200086E10E94840760E086E10E94560761E024
:1031300080E00E94840760E080E00E94560762E021
:103140008DE00E9484078DE00E942D078C0161E0D4
:103150008DE00E94840761E08DE00E94560762E0E6
:1031600081E00E94840761E081E00E94840761E0C1
:1031700081E00E94560761E082E00E94840760E0DF
:1031800083E00E94840762E08EE00E94840761E091
:103190008EE00E94840761E08EE00E94560711B81D
:1031A0008FEF82B962E085E10E94840762E084E1EA
:1031B0000E94840762E083E10E94840762E082E16A
:1031C0000E94840780E190E00E94C71780934F031C
:1031D000833038F060E080E190E00E94B3171092F5
:1031E0004F038FE090E00E94C717C12CF2ECDF2E56
:1031F000EE24E394F12C893050F4E82FF0E0EE0F48
:10320000FF1FE15DFE4FC080D180F12CE12C60E812
:103210007DE88BE590E0A70196010E945C3021508B
:103220003109410951095695479537952795E09100
:103230001804F091190482E08083211580E1380799
:10324000A8F0E0911804F0911904108260EC76EC7B
:103250008DE290E0A70196010E945C302150310977
:10326000410951095695479537952795E0911404E2
:10327000F09115043083E0911604F0911704208337
:1032800010922004E0911C04F0911D0486E08083DC
:10329000E0911A04F0911B04808188698083E09199
:1032A0001A04F0911B0480818F7D80838AE098E06E
:1032B0000E9464148BED97E00E9464140E946014D5
:1032C00061E08CE00E94840761E08CE00E94560778
:1032D00061E08BE00E94840760E08BE00E9456076B
:1032E00061E08FE00E94840760E086E10E9456075B
:1032F00086E00E94F81161E086E10E94560782E0B4
:103300000E94F811F0904F03F1100DC262E08AE0C4
:103310000E94840761E082E00E94560761E087E135
:103320000E94840760E087E10E94560764E670E02F
:1033300080E090E00E94130861E087E10E94560758
:1033400064EF71E080E090E00E9413088DE090E06F
:103350000E94C717823028F061E08DE090E00E9463
:10336000B3178DE090E00E94C7178093F6028EE0BD
:1033700090E00E94C71780935503863038F060E0D4
:103380008EE090E00E94B3171092550310928603CE
:1033900010928503109294031092B6031092920338
:1033A000FF24F394F092910310928A0361E081E18B
:1033B0000E94560761E080E10E9456078091B900A3
:1033C0008E7F8093B9008091B9008D7F8093B90082
:1033D00080E78093B80085E48093BC0080EA99E0A0
:1033E000909318038093170381EA99E090931C034C
:1033F00080931B0386E18093B80080E20E949C06C4
:103400000E94990681110FC0F092560380E20E943B
:103410009C068CE090E00E94150A85E090E00E94F6
:10342000150A0E94990688E40E949C060E9499064B
:10343000811190C045E567E00E94271567E080E0B4
:103440000E947515853509F085C04AEA67E080E07D
:103450000E94271567E080E00E9475158A3A09F0FE
:1034600079C045E567E081E00E94271567E081E0CB
:103470000E947515853509F06DC04AEA67E081E064
:103480000E94271567E081E00E9475158A3A09F0CD
:1034900061C081E0809349036EE080E00E94751571
:1034A000482F48606EE080E00E94271562E080E0CF
:1034B0000E947515482F416062E080E00E94271548
:1034C00062E081E00E947515482F416062E081E072
:1034D0000E94271560E080E00E94F81561E080E01E
:1034E0000E94F81560E081E00E94F81561E081E03B
:1034F0000E94F81540EB54E060E070E080E00E942C
:10350000591640EB54E060E070E081E00E945916EB
:1035100080E00E94CE1581E00E94CE1562E080E03E
:103520000E947515482F426062E080E00E942715D6
:1035300062E081E00E947515482F426062E081E000
:103540000E94271560E080E00E94751560E081E030
:103550000E9475158FE090E00E94C7178A3028F00E
:1035600069E08FE090E00E94B31784EC97E00E943E
:1035700034098091F602882309F4EEC086ED92E0CA
:103580000E94E21380EC97E00E94641420914F03A4
:1035900080E890E002C0880F991F2A95E2F79F9378
:1035A0008F938EEA97E09F938F9388E094E09F93A8
:1035B0008F930E94FF1480914F030F900F900F90F4
:1035C0000F900F900F90813009F0C9C082E997E009
:1035D0000E9434090E94601488E60E949C060E94A2
:1035E0009906811152C18EE893E00E94340981E06E
:1035F0000E942D1486E492E00E94991489E693E0DB
:103600000E94340980916103082E000C990B0E94DE
:10361000B2138BE592E00E94991488E60E949C0602
:103620008FE090E00E94150A0E94990661E070E028
:1036300088E690E00E94BB120E94B90687FF01C194
:1036400028E030E046E050E067EB74E0CE01019600
:103650000E944C17CE0101960E94FA1660938903CE
:10366000CE0101960E94051725E030E043E050E0CE
:1036700067EB74E0CE0101960E944C17CE010196D3
:103680000E94FA1660938803CE0101960E940517E6
:1036900022E030E050E040E067EB74E0CE010196BC
:1036A0000E944C17CE0101960E94FA166093870380
:1036B000CE0101960E94051726E030E044E050E07C
:1036C00061EB74E0CE0101960E944C17CE01019689
:1036D0000E94FA1660936403CE0101960E940517BA
:1036E00090E080E00E94CC06EFEBE80FE33108F0B9
:1036F0004DC00E2E000CFF0BE058F44E0C947E30A3
:10370000291CC61BC61B431CC61B271CC61BC61B6D
:10371000C61BB51BC61BC61B331C411C3F1CC61B4E
:10372000C61BC61B3D1C61E08AE00E94840760E066
:103730008AE00E94560781E08F1508F0EBCD60E02B
:1037400082E00E94560761E087E10E94840760E002
:1037500087E10E945607FACD88E592E011CF8230CA
:1037600009F038CF8CE597E033CF81E090E00E94FC
:10377000CC06813609F467C082E090E00E94CC0656
:103780008E3609F062C086E0809363032BE030E060
:1037900049E050E061EB74E0CE0101960E944C17C5
:1037A000CE0101960E94FA1660936203CE01019643
:1037B0000E94051781E593E00E94641486E293E07D
:1037C0000E94340980E00E942D148BE193E00E9456
:1037D00034090E94C91788E094E00E948D08809304
:1037E000F402982F9F7D993511F09E3491F7682F40
:1037F00088E094E00E94E7080E9460148091F4023F
:103800008F7D893589F440916203609163038091D3
:1038100064030E941A0A86EF92E00E94340981E054
:103820000E942D140E94601488E60E949C068FE07E
:1038300090E00E94150A88E090E00E94150A0E941C
:10384000990681E023C081E09FCF87E09DCF82E091
:103850009BCF82E090E00E94CC06823711F484E096
:1038600093CF88E091CF82E090E00E94CC0682372F
:1038700011F483E089CF85E087CF89E085CF8AE0A6
:1038800083CF8BE081CF8CE07FCF80E080934603B5
:1038900080915603882321F086E497E00E94641407
:1038A00080914903882321F088E297E00E94641404
:1038B00081E197E00E9434098CE090E00E94C717F4
:1038C000823028F060E08CE090E00E94B3178CE03A
:1038D00090E00E94C717809345038823F9F08EE09B
:1038E00097E00E9464140E942F0C0E942F0C8AE023
:1038F00090E00E94C7178093F502012B19F08530E4
:1039000008F409C188E094E00E94AF08181619066F
:1039100044F488E094E00E948D08F4CF8AE097E0B8
:10392000E0CF0E9460148EED96E00E9464140E9425
:1039300060141091F502153008F0A6C08EEC96E0E8
:103940000E943409812F90E001960E94B21386E410
:1039500092E00E94991410E384EC96E00E946414B3
:103960008AEB96E00E94641489EA96E00E9434098A
:10397000809155030E94E9138AE996E00E9464143D
:1039800080E996E00E94641481E796E00E94340981
:103990008091F602882309F479C088E592E00E94BC
:1039A000E2138CE696E00E9464148FE496E00E9495
:1039B00034098091450381116CC08DE592E00E942D
:1039C000E21386E492E00E9499148FE296E00E944E
:1039D00034098FE090E00E94C717893008F05EC07C
:1039E000E82FF0E0EE0FFF1FE15DFE4F6081718177
:1039F00090E080E04AE00E946E1386E492E00E942C
:103A0000991480914603882321F089E196E00E9471
:103A1000641486E096E00E94340980E190E00E9400
:103A2000C71720E830E002C0220F331F8A95E2F763
:103A30003F932F938DEF95E09F938F9388E094E0D1
:103A40009F938F930E94FF1486E492E00E94991442
:103A50000E94601488EE95E00E9434090F900F9048
:103A60000F900F900F900F900E94C91788E094E07C
:103A70000E948D088093F4028F33A9F48091600333
:103A80008F5F80936003F0CF11E366CF86ED92E005
:103A900086CF8BE496E00E94340993CF60E072EC0D
:103AA00081E090E0A7CF803219F410926003DCCF60
:103AB0008117D4F28236C4F6682F88E094E00E9421
:103AC000E70883EE95E00E946414109160031123CF
:103AD00039F081ED95E00E943409812F0E9488140D
:103AE0008091F402883309F454C10CF09EC08633EF
:103AF00009F439C10CF043C1833309F4E1C060918A
:103B0000F40261536093F502653008F001C58AE064
:103B100090E00E94B3178091F502823051F48BE55A
:103B200095E00E943409809155030E94E9130E9498
:103B300060148091F502823009F49BC308F06BC3D6
:103B4000882309F47FC3813009F48AC361E080E0EF
:103B50000E9456070091EF021091F0020115110525
:103B6000E9F0F090600390E080E00E940A1283EC9C
:103B70000E943E12802F0E943E12812F0E943E1210
:103B8000FF2061F083E495E00E943409B80190E0E1
:103B900080E040E10E946E130E9460148091EF0269
:103BA0009091F0020E940A12809160038823F1F044
:103BB00085E295E00E9434096091EB027091EC027D
:103BC00090E080E04AE00E946E130E9460148FE053
:103BD00095E00E9434096091EF027091F00290E04C
:103BE00080E040E10E946E130E9460148091F50213
:103BF000843008F054C40E942F0C882309F483C336
:103C00000E942F0C8093EA02882309F47CC3609100
:103C1000EA02662329F050E040E080E00E94A5140B
:103C20000E9470140E942F0CEBCF813409F488C2DB
:103C3000813609F485C2893309F061CF0E940213ED
:103C40001092510387E594E00E94641488E294E0A6
:103C50000E9464143AE0F32E46EFE42EDD24D39460
:103C600086E294E00E94340980915103823009F485
:103C700019C108F0FAC0882309F404C1813009F49D
:103C80000AC10E94C91788E094E00E948D08082F9D
:103C90008093F402853709F423C1853509F420C1E6
:103CA000843709F43CC4843509F439C48D3049F7AC
:103CB000109151036DE088E094E00E94E70834C160
:103CC00081E794E00E9464148091550381508093B1
:103CD000F30206E08091F3028F5F602F0E943C3078
:103CE000192F9093F3028CEC95E00E943409812FF8
:103CF0000E94E91389EB95E00E94340988E094E082
:103D00000E94AF08181619062CF488E094E00E946F
:103D10008D08F4CF88E094E00E94AF0818161906C9
:103D20001CF00E94C917F6CF88E094E00E948D082D
:103D30008093F4028D3011F08B3161F60E94601493
:103D40000E9460148091F4028D3009F0D8CE609109
:103D5000F302609355038EE090E00E94B31783E373
:103D60008093F402CCCE61E08091F602811160E094
:103D70006093F6028DE090E00E94B317C0CE61E040
:103D800080914503811160E0609345038CE090E0F1
:103D9000F3CF81E794E00E9464148FE090E00E94EA
:103DA000C71781508093F3020AE08091F3028F5F7E
:103DB000602F0E943C30192F9093F30284EB95E022
:103DC0000E94340960E072EC81E090E0193051F01B
:103DD000E12FF0E0EE0FFF1FE15DFE4F608171818A
:103DE00090E080E04AE00E946E138FEA95E00E9426
:103DF000340988E094E00E94AF08181619062CF4E4
:103E000088E094E00E948D08F4CF88E094E00E945E
:103E1000AF08181619061CF00E94C917F6CF88E0E3
:103E200094E00E948D088093F4028D3019F08B315C
:103E300009F0BBCF0E9460140E9460148091F402CC
:103E40008D3009F05CCE8FE090E00E94C717609142
:103E5000F302861709F459C38FE090E00E94B3176C
:103E600089E795E00E9464144ACE843091F150F1C4
:103E7000853009F006CF8AED93E00E9434098091E5
:103E8000890306C08DE194E00E94340980916203A9
:103E90000E941D14F6CE83E194E00E9434098091C3
:103EA0006303F6CF85E094E00E9434096DE088E07A
:103EB00094E00E94E7088CEF93E00E94340980911F
:103EC0006403E6CF82EF93E00E9434098091870378
:103ED000DFCF86EE93E00E94340980918803D8CF2B
:103EE00010915103123009F463C0E0F5112309F475
:103EF00049C0113009F451C0802F8F7D843509F0FD
:103F0000AAC0123009F4C3C008F08DC0112309F40F
:103F10009BC0113009F4AFC06DE088E094E00E94CE
:103F2000E7080D3009F09CCE1F5F10935103163047
:103F300008F496CE4091620360916303809164031C
:103F40000E941A0A8AEC93E00E9464148DEA93E0BE
:103F50000E94340981E00E942D1486E492E00E94C0
:103F60009914CDCD143009F450C008F443C0153075
:103F700019F6809189038F5F8C3308F051C08093CC
:103F80008903BACF809162038F5F843618F48093DF
:103F90006203B2CF10926203AFCF809163038F5F51
:103FA0008D3018F480936303A7CF10936303A4CFDD
:103FB000809164038F5F80936403E0916303E23038
:103FC00089F490E020916203237049F42DE130E000
:103FD000281739070CF090CFD09264038DCF2CE1D5
:103FE00030E0F6CFF0E0EE5DFE4F9081981708F0DC
:103FF00083CFF2CF809187038F5F883118F480934D
:1040000087037ACF1092870377CF809188038F5FE1
:104010008C3318F4809388036FCF109288036CCF91
:104020001092890369CF143009F46EC008F45AC0A5
:10403000153009F071CF20918903265F2C3308F0E9
:1040400075C02093890307C020916203265F243640
:1040500040F4209362036DE088E094E00E94E7085A
:10406000FFCD822F6F2D0E943C308E9D200D11249C
:104070002093620351CF809163038B3020F08A50EC
:104080008093630349CF833030F7865FF9CF209167
:104090006403265F20936403422F50E0E0916303A2
:1040A000F0E0EE5DFE4F808190E03091620333706E
:1040B00061E070E011F070E060E0860F971F8417F8
:1040C00095074CF4822F6F2D0E943C308E9D200D61
:1040D000112420936403809164038111BCCFD0929A
:1040E00064031ACF20918703265F283118F42093A8
:1040F0008703B1CF822F6F2D0E943C308E9D200D03
:1041000011242093870308CF20918803265F2C3346
:1041100018F4209388039FCF822F6F2D0E943C308C
:104120008E9D200D112420938803F6CE822F6F2DB3
:104130000E943C308E9D200D112420938903ECCEEB
:1041400081E794E00E94641480914F038150809332
:10415000F30283E0C82ED12C90E8A92EB12C09E6F9
:1041600015E028E0E22E24E0F22E8091F3028F5F2A
:1041700090E0B6010E944830982E8093F30284E7C5
:1041800095E00E943409C50102C0880F991F9A94D6
:10419000E2F79F938F931F930F93FF92EF920E94EA
:1041A000FF140F900F900F900F900F900F9088E0DA
:1041B00094E00E94AF08181619062CF488E094E0E9
:1041C0000E948D08F4CF88E094E00E94AF08181692
:1041D00019061CF00E94C917F6CF88E094E00E94EF
:1041E0008D088093F4028D3019F08B3109F0BDCF2A
:1041F0000E9460140E9460148091F4028D3009F0D6
:104200007ECC6091F30260934F0380E190E00E94C6
:10421000B31780E3A5CD833009F472C0843009F070
:1042200095CCE9E5F5E0859194919093EE02809329
:10423000ED028AE692E09093EC028093EB0280E13B
:104240009DEF48C080E692E09093F2028093F102E5
:104250001092F0021092EF0281E080934E0376CC30
:104260008CE692E09093F2028093F10280E091E07C
:1042700031C080915503823091F170F4882311F19F
:10428000813009F063CC82E892E09093F20280934F
:10429000F10280E890E01EC0843079F118F1853099
:1042A00009F054CC8CEA92E09093F2028093F102F0
:1042B0001092F0021092EF0281E080934E038093FF
:1042C0004D0344CC88E792E09093F2028093F10290
:1042D00080EE91ED9093F0028093EF0237CC8DE861
:1042E00092E0C0CF88E992E09093F2028093F102CD
:1042F0001092F0021092EF0229CC84EA92E0F4CFFF
:1043000086EB92E0F1CF0091F1021091F2026DE89C
:1043100072E0C8010E94AA32892B31F0C8010E94C4
:104320007C108093EA0210C083EC92E00E947C1023
:104330008111F4CF83EC92E09093F2028093F1022A
:1043400060E08DE00E9456078091EA028823E9F040
:104350006091EA02662339F04091F1025091F20235
:1043600081E00E94A5140E9470140091F102109146
:10437000F202C8010E947C108093EA02833021F38C
:104380000E942F0C0E942F0CC9CF83EF94E00E9453
:1043900034098091F1029091F2020E94E2138EEEB4
:1043A00094E00E943409CE0101960E947D0E082FF0
:1043B0008981809344030093EA021092F3021091E2
:1043C000F30280914403181758F4E12FF0E0E5540C
:1043D000FC4F80810E943E121F5F1093F302EFCFCB
:1043E000803291F40023F9F24091F1025091F202EF
:1043F000602F82E00E94A5140E94701460E070E0BB
:10440000CB010E944D0F02C00111EECF8091EA0254
:104410008111C9CF8BEC94E00E94641460E086E1C6
:104420000E9456078091B6008F7D8093B6008091E0
:10443000B10081608093B1008091B100897F809349
:10444000B1008091B00082608093B0008091B00094
:104450008E7F8093B0008091B00080648093B00024
:104460008091B0008F778093B0008091F6028093A6
:10447000B30061E08FE00E9484078EEA94E00E941E
:1044800064140E94601488E094E00E94AF0818163B
:104490001906FCF488E094E00E948D08F4CF81EDC9
:1044A00094E00E94340910E000E08091EB029091CA
:1044B000EC020817190708F0ADCFE091ED02F0917A
:1044C000EE02E00FF11F84910E943E120F5F1F4F1A
:1044D000ECCF61E070E080E090E00E94130861E0C2
:1044E00086E10E94560726960FB6F894DEBF0FBEEF
:1044F000CDBFDF91CF911F910F91FF90EF90DF9093
:10450000CF90BF90AF909F9008958CED8093F5026F
:104510008AE090E00E94C7178093F502FCCA1091D0
:104520005103EFCC1F920F920FB60F9211244F93AD
:104530005F936F937F938F939F9340915C03509110
:104540005D0360915E0370915F0380915B039091C6
:104550005A039230F9F410925A038A5A8D3728F090
:104560008D574F5F5F4F6F4F7F4F80935B0340933B
:104570005C0350935D0360935E0370935F039F91B0
:104580008F917F916F915F914F910F900FBE0F9020
:104590001F9018958B5A9F5F90935A03DFCF1F92FD
:1045A0000F920FB60F9211240BB60F922F933F93D9
:1045B0004F935F936F937F938F939F93AF93BF932B
:1045C000EF93FF9388E094E00E94C508FF91EF917C
:1045D000BF91AF919F918F917F916F915F914F911B
:1045E0003F912F910F900BBE0F900FBE0F901F9019
:1045F00018951F920F920FB60F9211240BB60F92BF
:104600002F938F939F93EF93FF93E0911804F09172
:1046100019048081E0911E04F0911F0482FD1DC0E9
:104620009081809121048F5F8F73209122048217E3
:1046300041F0E0912104F0E0E85FFB4F958F80931B
:104640002104FF91EF919F918F912F910F900BBEBD
:104650000F900FBE0F901F9018958081F2CF1F9280
:104660000F920FB60F9211240BB60F922F933F9318
:104670004F935F936F937F938F939F93AF93BF936A
:10468000EF93FF938091B900887F803609F44DC085
:1046900008F040C0883209F4A9C028F5803109F437
:1046A0009DC0C8F4882309F407C1883009F496C076
:1046B000FF91EF91BF91AF919F918F917F916F91FA
:1046C0005F914F913F912F910F900BBE0F900FBEB6
:1046D0000F901F901895883109F488C0803241F7F7
:1046E0008093900314C0803409F4A5C040F4803353
:1046F000B9F38833E9F68093900385ECBCC080352C
:1047000009F489C0883509F49EC0883489F60E946E
:104710006F09CECF883909F494C038F5883729F06D
:1047200050F4883611F0803719F683E080939203B5
:1047300010923D0357C0883809F483C0803919F0BE
:10474000803809F0B5CF80913D03803208F079C000
:10475000E0913D0381E08E0F80933D038091BB008B
:10476000F0E0E35EFC4F80833DC0803B39F0E0F435
:10477000803A09F485C0883A09F09ACF84E08093A2
:10478000920310921A0310921903E0911703F0910B
:10479000180309958091190381110FC081E080935E
:1047A00019031092F70209C0803C09F4A6CF883C97
:1047B00009F4A3CF883B09F07BCFE0911A0381E095
:1047C0008E0F80931A03F0E0E950FD4F80818093B3
:1047D000BB0090911A038091190331C080918B0323
:1047E0008093BB0085EC8093BC0062CF90918D03D9
:1047F00080918C039817B8F580918E0390918F0368
:10480000E0918D0321E02E0F20938D03E80FF92F07
:10481000F11D8081E5CF20918E0330918F03E091CF
:104820008D0381E08E0F80938D038091BB00E20F9A
:10483000F32FF11D808390918D0380918C03981745
:1048400088F285E8D0CF20918E0330918F03E091DC
:104850008D0381E08E0F80938D038091BB00E20F6A
:10486000F32FF11D808380919103811150CF81E05E
:1048700080938A0384EA8093BC001092920318CF3D
:1048800085EC8093BC001092920380913D038032AE
:1048900030F4E0913D03F0E0E35EFC4F1082609164
:1048A0003D0370E0E0911B03F0911C038DE193E068
:1048B000099510923D03FCCE1092900328CFEF9201
:1048C000FF920F931F93CF93DF930097C9F0EA01F4
:1048D0008C012097B1F1E0903E03F0903F03E1148A
:1048E000F10479F1F80181918F010E94F30AF1E05E
:1048F000EF1AF108F0923F03E0923E032197E9CFCF
:10490000411551056105710529F18091DB0383FD96
:1049100007C089E0440F551F661F771F8A95D1F79E
:1049200088E50E94390B81111DC08FEF0E94F30AA8
:104930008EEF0E94F30A80E092E090933F03809311
:104940003E0390E080E0DF91CF911F910F91FF90A7
:10495000EF900895DF91CF911F910F91FF90EF900D
:104960000C94FD0A81E090E0EECF0F931F93CF935C
:10497000DF93C82F162FD42F809160038330E0F08F
:104980001F924F931F926F938C2F90E08F5B9F4FDE
:104990009F938F9384E499E09F938F9388E094E0B2
:1049A0009F938F930E94FF148DB79EB70A960FB600
:1049B000F8949EBF0FBE8DBF63E08C2F0E947515CB
:1049C000082F4FEB63E08C2F0E94271562E08C2F9D
:1049D0000E947515482F4F7311114064D111406822
:1049E00062E08C2F0E942715402F63E08C2FDF910F
:1049F000CF911F910F910C942715E8E0F4E01382FA
:104A0000128288EE93E0A0E0B0E084839583A683D1
:104A1000B78329E132E03183208325EC30E035870C
:104A2000248724EC30E03787268720EC30E0318B78
:104A3000208B21EC30E0338B228B22EC30E0358B65
:104A4000248B26EC30E0378B268B118E128E138E42
:104A5000148EE5EAF4E01382128284839583A683A0
:104A6000B7838BE292E091838083E7EBF4E01182DD
:104A70001082138212821582148248E050E06FEC9B
:104A800072E0CF010E940D17E1EBF4E01182108279
:104A900013821282158214824BE050E068ED72E0BE
:104AA000CF010C940D17CF93DF9300D0CDB7DEB7B5
:104AB000789484B5836084BD85B5836085BD80911D
:104AC0006E00816080936E0082E08093810080910F
:104AD000810081608093810080918000816080935B
:104AE00080008091B10084608093B1008091B0001B
:104AF00081608093B00080919100836080939100E9
:104B00008091900081608093900087E880937A0084
:104B10001092C1000E947F1883E00E942D07892B0C
:104B200029F583E10E942D07892B09F0EEC482E16B
:104B30000E942D07F0B0F0925903882309F44CC06D
:104B4000F0921C01109258031092570360E08EE01F
:104B50000E94560760E080E00E94560761E080E016
:104B60000E94560761E08EE00E94560780914D0337
:104B7000882379F10E94C0070091400310914103FE
:104B800020914203309143036B017C01C01AD10A8A
:104B9000E20AF30A20910F0130E0A8EEB3E00E9490
:104BA0002D306C157D058E059F0598F460E081E041
:104BB0000E945607809148038260809348030E94B8
:104BC000C007609340037093410380934203909326
:104BD00043030E94A812A0CF80911C018C3009F4DD
:104BE0007AC108F051C0863009F40BC118F5833042
:104BF00009F4E8C078F4882309F4D7C0813009F4B7
:104C0000DBC080911C018A3009F4A0CF8C3009F4FC
:104C10009DCFD9C2843009F4E9C0853091F78091E5
:104C20005603882309F4CFC280E20E949C0690E0DC
:104C300080E0D2C0893009F4FAC080F4873009F4EA
:104C4000EBC08830F1F680915603882309F4BBC28B
:104C500080E20E949C068DE090E0BEC08A3009F49C
:104C600007C18B3071F6F0925203809153039091FB
:104C700054038115924008F028C1FFE1FF1508F4A4
:104C800028C110921001BDCF823109F403C308F08E
:104C900078C08F3009F4F3C280F48D3009F467C214
:104CA0008E3009F0AECF8F2D817080934E03F1FAD4
:104CB000DD24D0F8D0924D03A4CF803109F4E5C2B1
:104CC000813109F09ECF80915603882309F47BC27D
:104CD00081E080934B0311E0F11010E010934A0340
:104CE00080E20E949C0682E190E00E94150A110F6A
:104CF000012F0560802F90E00E94150A0E949906FE
:104D000080E20E949C0690E080E00E94150A88EFF5
:104D100090E00E94150A0E94990680E20E949C067B
:104D200081E090E00E94150A90E080E00E94150A60
:104D30000E94990680E20E949C068CE090E00E940E
:104D4000150A8FEF90E00E94150A0E94990680E2F2
:104D50000E949C0682E190E00E94150A612F61602A
:104D600085EA94E00E94E6090E94990600935103A7
:104D700080E20E949C0682E190E00E94150A602F6A
:104D80002EC0823248F4803208F0B5C2833109F077
:104D900038CFF0920E0135CF843208F4DFC28E375F
:104DA00009F02FCFF09260032CCF60E0F0FE61E0BD
:104DB0008DE00E94560725CF6F2D88E094E00E9479
:104DC000E7081FCF80915603882309F4FCC180E2D5
:104DD0000E949C0682E190E00E94150A6F2D85EAF0
:104DE00094E00E94E6090E9499060BCF8091560339
:104DF000882309F4E8C180E20E949C0683E190E0E8
:104E0000EBCF80915603882309F4DDC180E20E9434
:104E10009C0681E090E0E0CF80915603882309F45E
:104E2000D2C180E20E949C068CE090E0D5CF23E6C0
:104E300080E12F15D0F080915503805D80931301A0
:104E40008F2D6AE00E943C3090E3980F90931501FB
:104E500060E3D62EDF0C36EF839FD00C1124D09266
:104E6000160181E191E00E947C1080931001C9CE6F
:104E70008091570390915803EF2DF0E0009751F483
:104E8000F0935403E0935303019690935803809357
:104E90005703B7CE209153033F2D309354032093F3
:104EA0005303409152032115324040F4403248F4FC
:104EB000109210012FEF20931C01E6CF21E1403228
:104EC00008F022E120931001F5CF2FE181E12F15A9
:104ED00060F682E1CACFC0905703D0905803C11446
:104EE000D10419F56091530370915403611532E0B8
:104EF0007307D8F4809152038032B8F49091100176
:104F0000911113C045E0660F771F4A95E1F7682BB2
:104F100090E080E059E0660F771F881F991F5A952F
:104F2000D1F70E944D0F80931001809110018111E3
:104F300081C08C2D8F7180935103E82FF0E0E554F0
:104F4000FC4FF0828F3109F075C00091060410917A
:104F50000704A12C85E00115110509F458C0F801DA
:104F6000818180FFD9C086FD0AC086899789A08D7E
:104F7000B18D88279E7F868B978BA08FB18FF8018C
:104F8000828D938DA48DB58D46895789608D718DE5
:104F9000841B950BA60BB70B80329105A105B105BB
:104FA00020F080E290E0A0E0B0E07C01B12CA12CE8
:104FB0003BEB232E33E0332EE114F10409F4AFC0B0
:104FC000F80186899789A08DB18D9C013170232BC2
:104FD00009F067C092809A94AC01BD0129E07695F2
:104FE0006795579547952A95D1F79422B1F5892B66
:104FF0008A2B8B2B39F5668D778D80A191A1F801D5
:10500000623071058105910520F5118281E0A09241
:10501000500380931001FFE1FA1508F482C083E188
:10502000809310012FEFC21621E0D20618F08FEF07
:1050300080931C01FFEFCF1ADF0AD0925803C09271
:105040005703DFCD62A173A184A195A10E940D0E2B
:10505000D6CF62A373A384A395A3F80162A173A121
:1050600084A195A10E94810A6115710581059105B0
:1050700011F4F801CACFAB01BC01490D511D611DEE
:10508000711DF80146A357A360A771A790E080E0C7
:105090000E945F24F801892B09F0B7CF81818064D9
:1050A0008183F80186899789917020E032E0281B7E
:1050B000390B47012E153F0508F449012401712CD5
:1050C000612CB301A401C1010E945F24F801892B66
:1050D00009F09BCF86899789A08DB18D840D951D90
:1050E000A61DB71D868B978BA08FB18F280C391CFE
:1050F000E818F908A80CB91C2C01F1E05F2245283A
:1051000009F05ACF0E94FD0AF801892B09F07DCFE2
:1051100081818F7B818350CFA12C84E078CF80E088
:1051200076CF3FEFC31631E0D30608F483CF811169
:105130007ECF85E00115110569F0F801818180FFBE
:1051400014C086FF0CC00E94FD0A892B41F0F801B3
:10515000118281E0109250038093100168CFF80112
:1051600081818F7B818380E0F5CF84E0F3CF2EE0D7
:105170002F1508F446CDEF2DF0E0EF53F74D0C94CA
:105180007E30D028E728ED28EF28FD28FF280529C4
:1051900007291C291E2924292629352937293D2993
:1051A00061E08CE00E94560760E08BE00E945607A9
:1051B00010914F03112339F060E08AE00E945607F6
:1051C00060E01230B8F58FEF80931C01BFCC61E036
:1051D0008CE00E94560761E0E8CF60E0F9CF61E023
:1051E0008CE00E94560760E08BE00E945607109109
:1051F0004F0361E0112339F3E0CF60E0F1CF61E0CC
:105200008CE00E94560761E0EFCF60E0F9CF61E0EB
:105210008CE00E94560760E08BE00E9456071091D8
:105220004F03112381F260E08AE00E94560712309A
:1052300050F261E087E1BDCD60E0EACF61E08CE053
:105240000E94560761E0E8CF60E0F9CF61E08CE0B2
:105250000E94560760E08BE00E94560710914F03B2
:1052600061E0112309F4AFCFDFCF60E0F0CF61E060
:105270008CE00E94560761E0EECF60E0F9CFFF209E
:1052800009F4A1CFF0920F01BCCC8F2D81708093D7
:105290004C03B7CC80914B03882309F494CF80E270
:1052A0000E949C0683E190E00E94150A6F2D85EA1A
:1052B00094E00E94E6090E94990610914A03110F9A
:1052C00080E20E949C0682E190E00E94150A612F14
:1052D0006C6F85EA94E00E94E6090E9499061D6FB2
:1052E0001093510380E20E949C0682E190E00E94AC
:1052F000150A612F74CD90914903992309F481CC4B
:1053000011E0803209F410E0809160038330F0F006
:1053100080EE8F0D8F3500F58F2D1F928F931F928A
:10532000FF92812F90E08F5B9F4F9F938F938DEC27
:1053300099E09F938F9388E094E09F938F930E94CE
:10534000FF140FB6F894DEBF0FBECDBF4F2D60E047
:10535000812F0E94271555CC8EE2DFCF9091490313
:10536000992309F44ECCBB24B394823209F4B12CB6
:105370000F2D10E076E0159507957A95E1F75F2DF2
:105380005F71D52E90916003923000F1823209F066
:1053900081C08FE09BE09F938F9368E0E62E64E0EE
:1053A000F62EFF92EF920E94FF14809159031F92F4
:1053B0008F9387E19BE09F938F93FF92EF920E94E0
:1053C000FF140FB6F894DEBF0FBECDBF8B2D90E05B
:1053D000FC01E45FFE4F7F0180818F71D81651F18F
:1053E000E0915903EF7124E0E29FF0011124EF53A3
:1053F000FE4F9080A180C280D38080916003823074
:1054000098F0DF92CF92AF929F9244EF5AE05F9371
:105410004F9388E094E09F938F930E94FF140FB600
:10542000F894DEBF0FBECDBF492D5A2DB6018B2D8E
:105430000E945916F701808190E056E09595879576
:105440005A95E1F70817190701F18091600382303E
:1054500008F4C3C21F930F9322EE3AE03F932F93B9
:1054600048E0C42E44E0D42EDF92CF920E94FF1475
:105470000F900F900F900F900F900F90013011052B
:1054800011F10CF0B3C2012B41F080915903F701E7
:105490008083B7CB87E09BE07ECF80916003823032
:1054A00060F088ED9AE09F938F93DF92CF920E94F5
:1054B000FF140F900F900F900F9040E060E08B2D45
:1054C0000E94B524E2CF809160038230B0F322ECD9
:1054D0003AE03F932F9388E094E09F938F93E7CF38
:1054E00080916003823070F083EB9AE09F938F93FA
:1054F00088E094E09F938F930E94FF140F900F9089
:105500000F900F9041E061E0DACF84E10E942D0717
:10551000892B09F047C282E10E942D07109259039E
:10552000882309F446C080916003823070F00E94A5
:1055300060148AE99AE00E9434098AE89AE00E949D
:105540003409809148030E9488148FEF8093590397
:1055500088E094E00E94AF081816190634F588E038
:1055600094E00E948D08809359031092470361E0F4
:1055700081E00E945607809148038E7F8093480304
:1055800081E080930B011FEF11B98091590382B91B
:1055900060E08EE00E94560760E080E00E945607BF
:1055A0000E94F00611B812B9D9CA81E0809347036E
:1055B000DECF80911C01883809F46FC110F5833863
:1055C00009F4ABC088F4813809F480C008F09AC0AF
:1055D000803809F45FC080911C018D7F843899F276
:1055E0008FEF80931C01CFCF853809F4FDC008F4FC
:1055F000BEC0863809F4FBC0873869F70E942F0CBB
:105600007EC0843AF0F5823A08F086C18A3809F4FF
:1056100063C108F447C1803AF0F29091490399239D
:1056200009F478C111E0803A09F410E060E0812FBC
:105630000E947515082F809160038330F8F080EE8A
:10564000800F8F3508F064C1802F1F928F931F92B7
:105650000F93812F90E08F5B9F4F9F938F93EDEE81
:10566000F9E0FF93EF9388E094E09F938F930E947B
:10567000FF140FB6F894DEBF0FBECDBF00935903E1
:10568000AACF863A08F46FC18E3F09F0A4CF80916B
:10569000600335C08DE00E942D07182F80935103C1
:1056A00062E08DE00E9484078DE00E942D0721E0DA
:1056B000892B09F020E02093590361E08DE00E94DE
:1056C0008407612F8DE00E94560785CF8091560395
:1056D000882309F485CF80E20E949C0682E190E055
:1056E0000E94150A0E94990680E20E949C0661E0D1
:1056F00070E080E290E00E94BB120E94B9068093A5
:10570000590369CF80915603882309F469CF80E259
:105710000E949C0683E190E0E3CF0091460310E0F5
:10572000000F111FF090450388E094E00E94AF083D
:1057300034E0181619060CF030E08091470328E099
:10574000811101C020E080914C03F0E18F9FC001E6
:105750001124082BF02A00914F0340E4049F80019C
:105760001124F02AF32AF22AF092590334CF8091BF
:1057700046038823A9F1009157031091580301159E
:10578000110569F40E9402138091890380935903E3
:105790000F5F1F4F10935803009357031CCF073020
:1057A0001105F0F4809163030430110579F368F476
:1057B000809187030230110549F38091640303301F
:1057C000110521F380918803E1CF809162030530B8
:1057D0001105E1F28091610306301105B9F2F2CFB3
:1057E0008FEF80931C01F7CE8091100188CF00913C
:1057F0005703109158030115110519F560915303D2
:1058000070915403611552E07507D8F480915203EA
:105810008032B8F490911001911113C095E0660F99
:10582000771F9A95E1F7682B90E080E029E0660FFA
:10583000771F881F991F2A95D1F70E944D0F8093DB
:1058400010018091100181111DC0802F8F71F82EE1
:105850008093510381110FC0CE0101960E947D0EED
:105860009981909344039032B0F08093100180911D
:105870001001811107C0EF2DF0E0E554FC4F80814D
:10588000809359030F3F91E0190708F481CF8FEF00
:1058900080931C017DCF83E1E8CF88E094E00E94F3
:1058A0007E082DCF809148038093590310924803BE
:1058B00080916003823008F493CE0E9460148CE7DC
:1058C0009AE00E9434098FE69AE00E9434098091A0
:1058D00059030E9488147FCE80914B03882309F4DA
:1058E0007FCE80E20E949C0682E190E00E94150A31
:1058F0000E94990680E20E949C0661E070E080E2CE
:1059000090E00E94BB120E94B906887F8160F7CEAA
:105910008EE29BCE8AE1F3CE90914903992309F15F
:1059200011E0823A09F410E069E0812F0E947515B8
:10593000082F80916003843008F4A0CE1F920F934B
:10594000812F90E08F5B9F4F9F938F938CE09AE025
:105950009F938F9388E094E09F938F930E94FF140E
:1059600088CE80E4CCCE909149039923D1F311E005
:10597000843A09F410E068E0812F0E947515082F21
:1059800080916003843008F479CE1F920F93812FA9
:1059900090E08F5B9F4F9F938F934BE25AE05F9312
:1059A0004F93D8CF61E081E00E9456078091600359
:1059B000823070F00E9460148AE59AE00E943409F7
:1059C0008AE49AE00E943409809148030E94881476
:1059D0001FEF11B980910E01DACD0130110509F4E4
:1059E00072CD24F4012B09F468CD4FCD023011059E
:1059F00009F476CD0330110509F047CD809160039D
:105A0000823008F442CD28EA3AE03F932F9388E0B1
:105A100094E09F938F930E94FF140F900F900F902C
:105A20000F9033CD81EB94E00E94051787EB94E053
:105A30000C9405171F93FC0199278827BC01E89453
:105A400011911032E9F3193010F01E30C8F31B32F7
:105A500051F01D3249F4689406C00E94412D610F37
:105A6000711D811D911D119110531A30B0F33EF438
:105A700090958095709561957F4F8F4F9F4F1F91A7
:105A80000895592F482F372F262F660F771F881F0D
:105A9000991F660F771F881F991F620F731F841F3E
:105AA000951F660F771F881F991F0895CF93DF9367
:105AB000EC018B8188608B83CE010E94652D2B8148
:105AC000277F2B83DF91CF9108952F923F924F92A2
:105AD0005F926F927F928F929F92AF92BF92CF927E
